0193722868931382020010100537+33822-116504FM-15+0137KPSP V0203505N002652200059N0160935N5+01785-00175101835ADDAA101000095GA1005+999999999GD10991+9999999GF100991999999999999999999MA1101835100195REMMET09812/31/19 16:53:03 METAR KPSP 010053Z 35005KT 10SM CLR 18/M02 A3007 RMK AO2 SLP183 T01781017 $ (FS)
0193722868931382020010101537+33822-116504FM-15+0137KPSP V0202705N002152200059N0160935N5+01675-00175101875ADDAA101000095GA1005+999999999GD10991+9999999GF100991999999999999999999MA1101865100225REMMET09812/31/19 17:53:03 METAR KPSP 010153Z 27004KT 10SM CLR 17/M02 A3008 RMK AO2 SLP187 T01671017 $ (FS)
0212722868931382020010102537+33822-116504FM-15+0137KPSP V0202405N002152200059N0160935N5+01565+00005101905ADDAA101000095GA1005+999999999GD10991+9999999GF100991999999999999999999MA1101905100255MD1190149+9999REMMET10312/31/19 18:53:03 METAR KPSP 010253Z 24004KT 10SM CLR 16/00 A3009 RMK AO2 SLP190 T01560000 51014 $ (AT)
0192722868931382020010103537+33822-116504FM-15+0137KPSP V0203005N003152200059N0160935N5+01395+00065101945ADDAA101000095GA1005+999999999GD10991+9999999GF100991999999999999999999MA1101935100295REMMET09712/31/19 19:53:03 METAR KPSP 010353Z 30006KT 10SM CLR 14/01 A3010 RMK AO2 SLP194 T01390006 $ (ZC)
0193722868931382020010104537+33822-116504FM-15+0137KPSP V0202805N002152200059N0160935N5+01445-00115101975ADDAA101000095GA1005+999999999GD10991+9999999GF100991999999999999999999MA1101965100325REMMET09812/31/19 20:53:03 METAR KPSP 010453Z 28004KT 10SM CLR 14/M01 A3011 RMK AO2 SLP197 T01441011 $ (ZC)
0251722868931382020010105537+33822-116504FM-15+0137KPSP V0202805N001552200059N0160935N5+01335-00065101985ADDAA101000095GA1005+999999999GD10991+9999999GF100991999999999999999999KA1060M+02061KA2060N+01331MA1102005100355MD1190099+9999REMMET11612/31/19 21:53:03 METAR KPSP 010553Z 28003KT 10SM CLR 13/M01 A3012 RMK AO2 SLP198 T01331006 10206 20133 51009 $ (AT)
0187722868931382020010106537+33822-116504FM-15+0137KPSP V0202805N002152200059N0160935N5+01285+00005102005ADDAA101000095GA1005+999999999GD10991+9999999GF100991999999999999999999MA1102005100355REMMET09212/31/19 22:53:03 METAR KPSP 010653Z 28004KT 10SM CLR 13/00 A3012 RMK AO2 SLP200 T01280000 $
0223722868931382020010107537+33822-116504FM-15+0137KPSP V0209999V001552200059N0160935N5+01115+00065102045ADDAA101000095GA1005+999999999GD10991+9999999GF100991999999999999999999KA1240M+02171KA2240N+01001MA1102035100395REMMET10212/31/19 23:53:03 METAR KPSP 010753Z VRB03KT 10SM CLR 11/01 A3013 RMK AO2 SLP204 T01110006 402170100 $
0899722868931382020010107596+33822-116504SOD  +0137KPSP V020999999999999999999999999999+99999+99999999999ADDAA124000095AJ100009599999999AL12400095AN1024000095KA1240M+02175KA2240N+01005MG1100204101694OE11240120732099995OE22240089433099995OE33240031399999995REMSOD73924 HR PRECIPITATION (IN): 0.00 SNOW DEPTH (IN):0     24 HR SNOWFALL (IN):0.0  24 HR MAX TEMP (F): 7124 HR MIN TEMP (F): 50AVERAGE STATION PRESSURE:29.590 MINIMUM SEA LEVEL PRESSURE:30.03 TIME OF OCCURRENCE:1523 PEAK WIND SPEED (MPH): 27 PEAK WIND DIR (DEG):320 PEAK WIND TIME (LST):      FASTEST 2MIN SPEED (MPH): 20FASTEST 2MIN DIR (DEG):330 FASTEST 2MIN TIME (LST):     AVERAGE WIND SPEED (MPH): 7.0 24 HR AVG TEMP (F): 61DEPART FROM NORMAL:  5  HEATING DEGREE DAYS:  4 COOLING DEGREE DAYS:  0 LATEST DAY MAX TEMP (0700-1900 LST):71  LATEST NIGHT MIN TEMP(1900-0800 LST):55 HOURLY INCREMENTAL PRECIPITATION VALUES (IN):.00 0.00 0.00 0.00 0.00 0.00 0.00 0.00 0.00 0.00 0.00 0.00 0.00 0.00 0.00 0.00 0.00 0.00 0.00 0.00 0.00 0.00 0.00 0.00
1243722868931382020010107596+33822-116504SOM  +0137KPSP V020999999999999999999999999999+99999+99999999999ADDAB10035196AD10018092627999999995AE1045035015005AH1005000892311455AH2010001092611375AH3015001592611045AH4020002092311455AH5030002592311575AH6045003392312075AI1060004192611535AI2080005392612045AI3100005892612225AI4120006992612045AI5150008192612225AI6180008992612115KB1744N+08505KB2744M+19225KB3744A+13895KC1N9+00331899995KC2M9+02380999995KD1744H02425KD2744C00005KE1005005005005MH1100244101904MK1103251709185100751501185REMSOM795PCP MTOT:1.38 PCP GT 24HRS:0.71 DATE(S):26-27 DAYS W/PCP >=.01:4  DAYS W/PCP >=.10:3  DAYS W/ PCP >=.50:1 DAYS W/PCP >=1.00:0 MSDP AMTS W/DATE-TIME TAGS:MIN:5 0.03  23/1145 MIN:10 0.04  26/1137 MIN:15 0.06  26/1104 MIN:20 0.08  23/1145 MIN:30 0.10  23/1157 MIN:45 0.13  23/1207 MIN:60 0.16  26/1153 MIN:80 0.21  26/1204 MIN:100 0.23  26/1222 MIN:120 0.27  26/1204 MIN:150 0.32  26/1222 MIN:180 0.35  26/1211 AVG DLY MIN:47.3  AVG DLY MAX:66.6  AVG MLY TMP:57.0  MIN TMP:38 DATE(S):18 MAX TMP:75  DATE(S):09 DAYS MAX <=32:0 DAYS MAX >=90:0  DAYS MIN <=32:0  DAYS MIN  <=0:0  AVG STP:29.600 LWST SLP:29.75 DATE/TIME:150118 HGST SLP:30.49 DATE/TIME:170918 HDD MTH TOT:242 DEP NORM:-2553 SEASON(JUL 1-JUN 30):339 DEP NORM:-25536 CDD MTH TOT:0 DEP NORM:-2553 SEASON(JAN 1-DEC 31):4517 DEP NORM:-25536EQDR01  1.387ABP070
0207722868931382020010108537+33822-116504FM-15+0137KPSP V0203305N003152200059N0160935N5+00835+00175101925ADDAA101000095GA1005+999999999GD10991+9999999GF100991999999999999999999MA1101935100295MD1890079+9999REMMET09801/01/20 00:53:02 METAR KPSP 010853Z 33006KT 10SM CLR 08/02 A3010 RMK AO2 SLP192 T00830017 58007 $
0187722868931382020010109537+33822-116504FM-15+0137KPSP V0203605N003152200059N0160935N5+00895+00065101835ADDAA101000095GA1005+999999999GD10991+9999999GF100991999999999999999999MA1101835100195REMMET09201/01/20 01:53:02 METAR KPSP 010953Z 36006KT 10SM CLR 09/01 A3007 RMK AO2 SLP183 T00890006 $
0187722868931382020010110537+33822-116504FM-15+0137KPSP V0203405N002652200059N0160935N5+00835+00115101885ADDAA101000095GA1005+999999999GD10991+9999999GF100991999999999999999999MA1101905100255REMMET09201/01/20 02:53:02 METAR KPSP 011053Z 34005KT 10SM CLR 08/01 A3009 RMK AO2 SLP188 T00830011 $
0245722868931382020010111537+33822-116504FM-15+0137KPSP V0203205N003652200059N0160935N5+00895+00005101925ADDAA101000095GA1005+999999999GD10991+9999999GF100991999999999999999999KA1060M+01331KA2060N+00781MA1101935100295MD1390009+9999REMMET11001/01/20 03:53:02 METAR KPSP 011153Z 32007KT 10SM CLR 09/00 A3010 RMK AO2 SLP192 T00890000 10133 20078 53000 $
0187722868931382020010112537+33822-116504FM-15+0137KPSP V0203205N002652200059N0160935N5+00835+00005101845ADDAA101000095GA1005+999999999GD10991+9999999GF100991999999999999999999MA1101835100195REMMET09201/01/20 04:53:02 METAR KPSP 011253Z 32005KT 10SM CLR 08/00 A3007 RMK AO2 SLP184 T00830000 $
0128722868931382020010113534+33830-116507FM-15+014599999V0203401N004612200019N016093199+00831+00061101861ADDGF100991999999999999999999MA1101861999999REMMET075METAR KPSP 011353Z 34009KT 10SM CLR 08/01 A3008 RMK AO2 SLP186 T00830006 $=
0148722868931382020010114534+33830-116507FM-15+014599999V0209999C000012200019N016093199+00721+00061101921ADDGF100991999999999999999999MA1101901999999MD1990021+9999REMMET081METAR KPSP 011453Z 00000KT 10SM CLR 07/01 A3009 RMK AO2 SLP192 T00720006 55002 $=
0187722868931382020010115537+33822-116504FM-15+0137KPSP V0209999C000052200059N0160935N5+00945+00115101925ADDAA101000095GA1005+999999999GD10991+9999999GF100991999999999999999999MA1101905100255REMMET09201/01/20 07:53:02 METAR KPSP 011553Z 00000KT 10SM CLR 09/01 A3009 RMK AO2 SLP192 T00940011 $
0187722868931382020010116537+33822-116504FM-15+0137KPSP V0209999C000052200059N0160935N5+01225+00065101955ADDAA101000095GA1005+999999999GD10991+9999999GF100991999999999999999999MA1101935100295REMMET09201/01/20 08:53:02 METAR KPSP 011653Z 00000KT 10SM CLR 12/01 A3010 RMK AO2 SLP195 T01220006 $
0245722868931382020010117537+33822-116504FM-15+0137KPSP V0203305N002152200059N0160935N5+01505+00065101935ADDAA101000095GA1005+999999999GD10991+9999999GF100991999999999999999999KA1060M+01501KA2060N+00611MA1101935100295MD1090029+9999REMMET11001/01/20 09:53:02 METAR KPSP 011753Z 33004KT 10SM CLR 15/01 A3010 RMK AO2 SLP193 T01500006 10150 20061 50002 $
0188722868931382020010118537+33822-116504FM-15+0137KPSP V0209999C000052200059N0160935N5+01675-00115101785ADDAA101000095GA1005+999999999GD10991+9999999GF100991999999999999999999MA1101795100155REMMET09301/01/20 10:53:02 METAR KPSP 011853Z 00000KT 10SM CLR 17/M01 A3006 RMK AO2 SLP178 T01671011 $
0188722868931382020010119537+33822-116504FM-15+0137KPSP V0201605N001552200059N0160935N5+01785-00225101575ADDAA101000095GA1005+999999999GD10991+9999999GF100991999999999999999999MA1101565099925REMMET09301/01/20 11:53:02 METAR KPSP 011953Z 16003KT 10SM CLR 18/M02 A2999 RMK AO2 SLP157 T01781022 $
0208722868931382020010120537+33822-116504FM-15+0137KPSP V0209999V002152200059N0160935N5+01895-00225101405ADDAA101000095GA1005+999999999GD10991+9999999GF100991999999999999999999MA1101395099755MD1890529+9999REMMET09901/01/20 12:53:02 METAR KPSP 012053Z VRB04KT 10SM CLR 19/M02 A2994 RMK AO2 SLP140 T01891022 58052 $
0188722868931382020010121537+33822-116504FM-15+0137KPSP V0209999V003152200059N0160935N5+01945-00225101205ADDAA101000095GA1005+999999999GD10991+9999999GF100991999999999999999999MA1101225099585REMMET09301/01/20 13:53:02 METAR KPSP 012153Z VRB06KT 10SM CLR 19/M02 A2989 RMK AO2 SLP120 T01941022 $
0193722868931382020010122537+33822-116504FM-15+0137KPSP V0201405N004652200059N0160935N5+01945-00225101305ADDAA101000095GA1005+999999999GD10991+9999999GF100991999999999999999999MA1101325099685REMMET09801/01/20 14:53:02 METAR KPSP 012253Z 14009KT 10SM CLR 19/M02 A2992 RMK AO2 SLP130 T01941022 $ (FS)
0250722868931382020010123537+33822-116504FM-15+0137KPSP V0200905N002152200059N0160935N5+01895+00005101355ADDAA101000095GA1005+999999999GD10991+9999999GF100991999999999999999999KA1060M+01941KA2060N+01501MA1101355099725MD1590059+9999REMMET11501/01/20 15:53:02 METAR KPSP 012353Z 09004KT 10SM CLR 19/00 A2993 RMK AO2 SLP135 T01890000 10194 20150 55005 $ (AT)
0187722868931382020010200537+33822-116504FM-15+0137KPSP V0201305N003152200059N0160935N5+01675+00065101225ADDAA101000095GA1005+999999999GD10991+9999999GF100991999999999999999999MA1101225099585REMMET09201/01/20 16:53:01 METAR KPSP 020053Z 13006KT 10SM CLR 17/01 A2989 RMK AO2 SLP122 T01670006 $
0187722868931382020010201537+33822-116504FM-15+0137KPSP V0201605N002152200059N0160935N5+01445+00285101195ADDAA101000095GA1005+999999999GD10991+9999999GF100991999999999999999999MA1101195099555REMMET09201/01/20 17:53:01 METAR KPSP 020153Z 16004KT 10SM CLR 14/03 A2988 RMK AO2 SLP119 T01440028 $
0207722868931382020010202537+33822-116504FM-15+0137KPSP V0200705N002652200059N0160935N5+01335+00335101215ADDAA101000095GA1005+999999999GD10991+9999999GF100991999999999999999999MA1101225099585MD1590159+9999REMMET09801/01/20 18:53:01 METAR KPSP 020253Z 07005KT 10SM CLR 13/03 A2989 RMK AO2 SLP121 T01330033 55015 $
0187722868931382020010203537+33822-116504FM-15+0137KPSP V0203105N001552200059N0160935N5+01285+00225101195ADDAA101000095GA1005+999999999GD10991+9999999GF100991999999999999999999MA1101195099555REMMET09201/01/20 19:53:01 METAR KPSP 020353Z 31003KT 10SM CLR 13/02 A2988 RMK AO2 SLP119 T01280022 $
0187722868931382020010204537+33822-116504FM-15+0137KPSP V0202105N003152200059N0160935N5+01175+00225101205ADDAA101000095GA1005+999999999GD10991+9999999GF100991999999999999999999MA1101195099555REMMET09201/01/20 20:53:02 METAR KPSP 020453Z 21006KT 10SM CLR 12/02 A2988 RMK AO2 SLP120 T01170022 $
0245722868931382020010205537+33822-116504FM-15+0137KPSP V0209999C000052200059N0160935N5+01115+00225101185ADDAA101000095GA1005+999999999GD10991+9999999GF100991999999999999999999KA1060M+01891KA2060N+01061MA1101195099555MD1690029+9999REMMET11001/01/20 21:53:02 METAR KPSP 020553Z 00000KT 10SM CLR 11/02 A2988 RMK AO2 SLP118 T01110022 10189 20106 56002 $
0187722868931382020010206537+33822-116504FM-15+0137KPSP V0203505N002152200059N0160935N5+01005+00335101185ADDAA101000095GA1005+999999999GD10991+9999999GF100991999999999999999999MA1101195099555REMMET09201/01/20 22:53:02 METAR KPSP 020653Z 35004KT 10SM CLR 10/03 A2988 RMK AO2 SLP118 T01000033 $
0223722868931382020010207537+33822-116504FM-15+0137KPSP V0209999C000052200059N0160935N5+00895+00335101095ADDAA101000095GA1005+999999999GD10991+9999999GF100991999999999999999999KA1240M+01941KA2240N+00611MA1101085099455REMMET10201/01/20 23:53:02 METAR KPSP 020753Z 00000KT 10SM CLR 09/03 A2985 RMK AO2 SLP109 T00890033 401940061 $
0903722868931382020010207596+33822-116504SOD  +0137KPSP V020999999999999999999999999999+99999+99999999999ADDAA124000095AJ100009599999999AL12400095AN1024000095KA1240M+01945KA2240N+00615MG1099874101084OE11240062614099995OE22240053614099995OE33240020699999995REMSOD74324 HR PRECIPITATION (IN): 0.00 SNOW DEPTH (IN):0     24 HR SNOWFALL (IN):0.0  24 HR MAX TEMP (F): 6724 HR MIN TEMP (F): 43AVERAGE STATION PRESSURE(D):29.493 MINIMUM SEA LEVEL PRESSURE:29.85 TIME OF OCCURRENCE:2359 PEAK WIND SPEED (MPH): 14 PEAK WIND DIR (DEG):140 PEAK WIND TIME (LST):      FASTEST 2MIN SPEED (MPH): 12FASTEST 2MIN DIR (DEG):140 FASTEST 2MIN TIME (LST):     AVERAGE WIND SPEED (MPH): 4.6 24 HR AVG TEMP (F): 55DEPART FROM NORMAL: -1  HEATING DEGREE DAYS: 10 COOLING DEGREE DAYS:  0 LATEST DAY MAX TEMP (0700-1900 LST): 67 LATEST NIGHT MIN TEMP(1900-0800 LST):43 HOURLY INCREMENTAL PRECIPITATION VALUES (IN):0.00 0.00 0.00 0.00 0.00 0.00 0.00 0.00 0.00 0.00 0.00 0.00 0.00 0.00 0.00 0.00 0.00 0.00 0.00 0.00 0.00 0.00 0.00 0.00
0207722868931382020010208537+33822-116504FM-15+0137KPSP V0202605N003152200059N0160935N5+00945+00285101075ADDAA101000095GA1005+999999999GD10991+9999999GF100991999999999999999999MA1101085099455MD1890119+9999REMMET09801/02/20 00:53:02 METAR KPSP 020853Z 26006KT 10SM CLR 09/03 A2985 RMK AO2 SLP107 T00940028 58011 $
0187722868931382020010209537+33822-116504FM-15+0137KPSP V0203005N002152200059N0160935N5+01005+00225101045ADDAA101000095GA1005+999999999GD10991+9999999GF100991999999999999999999MA1101055099425REMMET09201/02/20 01:53:02 METAR KPSP 020953Z 30004KT 10SM CLR 10/02 A2984 RMK AO2 SLP104 T01000022 $
0187722868931382020010210537+33822-116504FM-15+0137KPSP V0201005N001552200059N0160935N5+00895+00225101085ADDAA101000095GA1005+999999999GD10991+9999999GF100991999999999999999999MA1101085099455REMMET09201/02/20 02:53:02 METAR KPSP 021053Z 10003KT 10SM CLR 09/02 A2985 RMK AO2 SLP108 T00890022 $
0245722868931382020010211537+33822-116504FM-15+0137KPSP V0209999C000052200059N0160935N5+01005+00175101155ADDAA101000095GA1005+999999999GD10991+9999999GF100991999999999999999999KA1060M+01111KA2060N+00781MA1101155099525MD1390089+9999REMMET11001/02/20 03:53:02 METAR KPSP 021153Z 00000KT 10SM CLR 10/02 A2987 RMK AO2 SLP115 T01000017 10111 20078 53008 $
0187722868931382020010212537+33822-116504FM-15+0137KPSP V0209999C000052200059N0160935N5+00945+00225101195ADDAA101000095GA1005+999999999GD10991+9999999GF100991999999999999999999MA1101195099555REMMET09201/02/20 04:53:02 METAR KPSP 021253Z 00000KT 10SM CLR 09/02 A2988 RMK AO2 SLP119 T00940022 $
0187722868931382020010213537+33822-116504FM-15+0137KPSP V0200405N002652200059N0160935N5+01005+00225101265ADDAA101000095GA1005+999999999GD10991+9999999GF100991999999999999999999MA1101255099625REMMET09201/02/20 05:53:02 METAR KPSP 021353Z 04005KT 10SM CLR 10/02 A2990 RMK AO2 SLP126 T01000022 $
0212722868931382020010214537+33822-116504FM-15+0137KPSP V0202905N002652200059N0160935N5+01115+00285101375ADDAA101000095GA1005+999999999GD10991+9999999GF100991999999999999999999MA1101355099725MD1390209+9999REMMET10301/02/20 06:53:02 METAR KPSP 021453Z 29005KT 10SM CLR 11/03 A2993 RMK AO2 SLP137 T01110028 53020 $ (FS)
0190722868931382020010215537+33822-116504FM-15+0137KPSP V0209999V002152200059N0160935N5+01225+00395101555ADDAA101000095GA1005+999999999GD10991+9999999GF100991999999999999999999MA1101525099895REMMET09501/02/20 07:53:02 METAR KPSP 021553Z VRB04KT 10SM CLR 12/04 A2998 RMK AO2 SLP155 T01220039 (FS)
0190722868931382020010216537+33822-116504FM-15+0137KPSP V0202205N002152200059N0160935N5+01835+00115101615ADDAA101000095GA1005+999999999GD10991+9999999GF100991999999999999999999MA1101635099995REMMET09501/02/20 08:53:02 METAR KPSP 021653Z 22004KT 10SM CLR 18/01 A3001 RMK AO2 SLP161 T01830011 (FS)
0249722868931382020010217537+33822-116504FM-15+0137KPSP V0202105N003152200059N0160935N5+02115-00175101685ADDAA101000095GA1005+999999999GD10991+9999999GF100991999999999999999999KA1060M+02111KA2060N+00781MA1101695100055MD1190319+9999REMMET11401/02/20 09:53:02 METAR KPSP 021753Z 21006KT 10SM CLR 21/M02 A3003 RMK AO2 SLP168 T02111017 10211 20078 51031 (FS)
0191722868931382020010218537+33822-116504FM-15+0137KPSP V0209999V001552200059N0160935N5+02175-00335101645ADDAA101000095GA1005+999999999GD10991+9999999GF100991999999999999999999MA1101635099995REMMET09601/02/20 10:53:02 METAR KPSP 021853Z VRB03KT 10SM CLR 22/M03 A3001 RMK AO2 SLP164 T02171033 (FS)
0191722868931382020010219537+33822-116504FM-15+0137KPSP V0200305N005152200059N0160935N5+02335-00395101575ADDAA101000095GA1005+999999999GD10991+9999999GF100991999999999999999999MA1101565099925REMMET09601/02/20 11:53:02 METAR KPSP 021953Z 03010KT 10SM CLR 23/M04 A2999 RMK AO2 SLP157 T02331039 (AG)
0211722868931382020010220537+33822-116504FM-15+0137KPSP V0209999C000052200059N0160935N5+02285-00565101495ADDAA101000095GA1005+999999999GD10991+9999999GF100991999999999999999999MA1101495099855MD1890189+9999REMMET10201/02/20 12:53:02 METAR KPSP 022053Z 00000KT 10SM CLR 23/M06 A2997 RMK AO2 SLP149 T02281056 58018 (AG)
0191722868931382020010221537+33822-116504FM-15+0137KPSP V0202105N002152200059N0160935N5+02285-00445101435ADDAA101000095GA1005+999999999GD10991+9999999GF100991999999999999999999MA1101465099825REMMET09601/02/20 13:53:02 METAR KPSP 022153Z 21004KT 10SM CLR 23/M04 A2996 RMK AO2 SLP143 T02281044 (AG)
0191722868931382020010222537+33822-116504FM-15+0137KPSP V0202005N004152200059N0160935N5+02285-00445101475ADDAA101000095GA1005+999999999GD10991+9999999GF100991999999999999999999MA1101465099825REMMET09601/02/20 14:53:02 METAR KPSP 022253Z 20008KT 10SM CLR 23/M04 A2996 RMK AO2 SLP147 T02281044 (AG)
0249722868931382020010223537+33822-116504FM-15+0137KPSP V0201905N002152200059N0160935N5+02115-00285101495ADDAA101000095GA1005+999999999GD10991+9999999GF100991999999999999999999KA1060M+02391KA2060N+02111MA1101495099855MD1590009+9999REMMET11401/02/20 15:53:02 METAR KPSP 022353Z 19004KT 10SM CLR 21/M03 A2997 RMK AO2 SLP149 T02111028 10239 20211 55000 (ZC)
0186722868931382020010300537+33822-116504FM-15+0137KPSP V0202205N002152200059N0160935N5+01945-00175101555ADDAA101000095GA1005+999999999GD10991+9999999GF100991999999999999999999MA1101565099925REMMET09101/02/20 16:53:01 METAR KPSP 030053Z 22004KT 10SM CLR 19/M02 A2999 RMK AO2 SLP155 T01941017
0186722868931382020010301537+33822-116504FM-15+0137KPSP V0202505N002152200059N0160935N5+01785-00225101665ADDAA101000095GA1005+999999999GD10991+9999999GF100991999999999999999999MA1101665100025REMMET09101/02/20 17:53:01 METAR KPSP 030153Z 25004KT 10SM CLR 18/M02 A3002 RMK AO2 SLP166 T01781022
0206722868931382020010302537+33822-116504FM-15+0137KPSP V0200105N002652200059N0160935N5+01615-00115101755ADDAA101000095GA1005+999999999GD10991+9999999GF100991999999999999999999MA1101765100125MD1390259+9999REMMET09701/02/20 18:53:01 METAR KPSP 030253Z 01005KT 10SM CLR 16/M01 A3005 RMK AO2 SLP175 T01611011 53025
0185722868931382020010303537+33822-116504FM-15+0137KPSP V0203405N003152200059N0160935N5+01445+00175101875ADDAA101000095GA1005+999999999GD10991+9999999GF100991999999999999999999MA1101865100225REMMET09001/02/20 19:53:01 METAR KPSP 030353Z 34006KT 10SM CLR 14/02 A3008 RMK AO2 SLP187 T01440017
0185722868931382020010304537+33822-116504FM-15+0137KPSP V0209999C000052200059N0160935N5+01335+00115101895ADDAA101000095GA1005+999999999GD10991+9999999GF100991999999999999999999MA1101905100255REMMET09001/02/20 20:53:02 METAR KPSP 030453Z 00000KT 10SM CLR 13/01 A3009 RMK AO2 SLP189 T01330011
0243722868931382020010305537+33822-116504FM-15+0137KPSP V0203505N002652200059N0160935N5+01285+00175101975ADDAA101000095GA1005+999999999GD10991+9999999GF100991999999999999999999KA1060M+02171KA2060N+01221MA1101965100325MD1190239+9999REMMET10801/02/20 21:53:02 METAR KPSP 030553Z 35005KT 10SM CLR 13/02 A3011 RMK AO2 SLP197 T01280017 10217 20122 51023
0185722868931382020010306537+33822-116504FM-15+0137KPSP V0203305N003152200059N0160935N5+01225+00115102045ADDAA101000095GA1005+999999999GD10991+9999999GF100991999999999999999999MA1102035100395REMMET09001/02/20 22:53:02 METAR KPSP 030653Z 33006KT 10SM CLR 12/01 A3013 RMK AO2 SLP204 T01220011
0221722868931382020010307537+33822-116504FM-15+0137KPSP V0203305N004652200059N0160935N5+01065+00175102045ADDAA101000095GA1005+999999999GD10991+9999999GF100991999999999999999999KA1240M+02391KA2240N+00781MA1102075100425REMMET10001/02/20 23:53:02 METAR KPSP 030753Z 33009KT 10SM CLR 11/02 A3014 RMK AO2 SLP204 T01060017 402390078
0899722868931382020010307596+33822-116504SOD  +0137KPSP V020999999999999999999999999999+99999+99999999999ADDAA124000095AJ100009599999999AL12400095AN1024000095KA1240M+02395KA2240N+00785MG1099924101024OE11240067102099995OE22240058122099995OE33240022499999995REMSOD73924 HR PRECIPITATION (IN): 0.00 SNOW DEPTH (IN):0     24 HR SNOWFALL (IN):0.0  24 HR MAX TEMP (F): 7524 HR MIN TEMP (F): 46AVERAGE STATION PRESSURE:29.505 MINIMUM SEA LEVEL PRESSURE:29.83 TIME OF OCCURRENCE:0239 PEAK WIND SPEED (MPH): 15 PEAK WIND DIR (DEG): 20 PEAK WIND TIME (LST):      FASTEST 2MIN SPEED (MPH): 13FASTEST 2MIN DIR (DEG):220 FASTEST 2MIN TIME (LST):     AVERAGE WIND SPEED (MPH): 5.0 24 HR AVG TEMP (F): 61DEPART FROM NORMAL:  5  HEATING DEGREE DAYS:  4 COOLING DEGREE DAYS:  0 LATEST DAY MAX TEMP (0700-1900 LST):75  LATEST NIGHT MIN TEMP(1900-0800 LST):46 HOURLY INCREMENTAL PRECIPITATION VALUES (IN):.00 0.00 0.00 0.00 0.00 0.00 0.00 0.00 0.00 0.00 0.00 0.00 0.00 0.00 0.00 0.00 0.00 0.00 0.00 0.00 0.00 0.00 0.00 0.00
0205722868931382020010308537+33822-116504FM-15+0137KPSP V0203105N004152200059N0160935N5+01225+00005102055ADDAA101000095GA1005+999999999GD10991+9999999GF100991999999999999999999MA1102075100425MD1190089+9999REMMET09601/03/20 00:53:02 METAR KPSP 030853Z 31008KT 10SM CLR 12/00 A3014 RMK AO2 SLP205 T01220000 51008
0186722868931382020010309537+33822-116504FM-15+0137KPSP V0202705N002152200059N0160935N5+01225-00065102105ADDAA101000095GA1005+999999999GD10991+9999999GF100991999999999999999999MA1102105100455REMMET09101/03/20 01:53:02 METAR KPSP 030953Z 27004KT 10SM CLR 12/M01 A3015 RMK AO2 SLP210 T01221006
0186722868931382020010310537+33822-116504FM-15+0137KPSP V0203305N001552200059N0160935N5+01175-00065102095ADDAA101000095GA1005+999999999GD10991+9999999GF100991999999999999999999MA1102105100455REMMET09101/03/20 02:53:02 METAR KPSP 031053Z 33003KT 10SM CLR 12/M01 A3015 RMK AO2 SLP209 T01171006
0244722868931382020010311537+33822-116504FM-15+0137KPSP V0200805N003152200059N0160935N5+01115-00065102155ADDAA101000095GA1005+999999999GD10991+9999999GF100991999999999999999999KA1060M+01391KA2060N+01001MA1102175100525MD1290099+9999REMMET10901/03/20 03:53:02 METAR KPSP 031153Z 08006KT 10SM CLR 11/M01 A3017 RMK AO2 SLP215 T01111006 10139 20100 52009
0185722868931382020010312537+33822-116504FM-15+0137KPSP V0203305N002152200059N0160935N5+01005+00005102255ADDAA101000095GA1005+999999999GD10991+9999999GF100991999999999999999999MA1102245100595REMMET09001/03/20 04:53:02 METAR KPSP 031253Z 33004KT 10SM CLR 10/00 A3019 RMK AO2 SLP225 T01000000
0185722868931382020010313537+33822-116504FM-15+0137KPSP V0203305N001552200059N0160935N5+00895+00065102365ADDAA101000095GA1005+999999999GD10991+9999999GF100991999999999999999999MA1102375100725REMMET09001/03/20 05:53:02 METAR KPSP 031353Z 33003KT 10SM CLR 09/01 A3023 RMK AO2 SLP236 T00890006
0210722868931382020010314537+33822-116504FM-15+0137KPSP V0209999C000052200059N0160935N5+00945+00065102485ADDAA101000095GA1005+999999999GD10991+9999999GF100991999999999999999999MA1102475100825MD1390319+9999REMMET10101/03/20 06:53:02 METAR KPSP 031453Z 00000KT 10SM CLR 09/01 A3026 RMK AO2 SLP248 T00940006 53031 (OL)
0190722868931382020010315537+33822-116504FM-15+0137KPSP V0203205N003152200059N0160935N5+01115+00065102545ADDAA101000095GA1005+999999999GD10991+9999999GF100991999999999999999999MA1102545100895REMMET09501/03/20 07:53:02 METAR KPSP 031553Z 32006KT 10SM CLR 11/01 A3028 RMK AO2 SLP254 T01110006 (AG)
0190722868931382020010316537+33822-116504FM-15+0137KPSP V0209999C000052200059N0160935N5+01445+00065102605ADDAA101000095GA1005+999999999GD10991+9999999GF100991999999999999999999MA1102615100955REMMET09501/03/20 08:53:02 METAR KPSP 031653Z 00000KT 10SM CLR 14/01 A3030 RMK AO2 SLP260 T01440006 (AG)
0248722868931382020010317537+33822-116504FM-15+0137KPSP V0209999C000052200059N0160935N5+01725+00175102635ADDAA101000095GA1005+999999999GD10991+9999999GF100991999999999999999999KA1060M+01721KA2060N+00831MA1102645100995MD1190169+9999REMMET11301/03/20 09:53:02 METAR KPSP 031753Z 00000KT 10SM CLR 17/02 A3031 RMK AO2 SLP263 T01720017 10172 20083 51016 (AG)
0191722868931382020010318537+33822-116504FM-15+0137KPSP V0209999C000052200059N0160935N5+01945-00175102585ADDAA101000095GA1005+999999999GD10991+9999999GF100991999999999999999999MA1102575100925REMMET09601/03/20 10:53:02 METAR KPSP 031853Z 00000KT 10SM CLR 19/M02 A3029 RMK AO2 SLP258 T01941017 (AG)
0191722868931382020010319537+33822-116504FM-15+0137KPSP V0201005N002152200059N0160935N5+02065-00175102515ADDAA101000095GA1005+999999999GD10991+9999999GF100991999999999999999999MA1102515100855REMMET09601/03/20 11:53:02 METAR KPSP 031953Z 10004KT 10SM CLR 21/M02 A3027 RMK AO2 SLP251 T02061017 (AG)
0211722868931382020010320537+33822-116504FM-15+0137KPSP V0209999C000052200059N0160935N5+02005-00065102465ADDAA101000095GA1005+999999999GD10991+9999999GF100991999999999999999999MA1102475100825MD1690179+9999REMMET10201/03/20 12:53:02 METAR KPSP 032053Z 00000KT 10SM CLR 20/M01 A3026 RMK AO2 SLP246 T02001006 56017 (AG)
0191722868931382020010321537+33822-116504FM-15+0137KPSP V0200805N002152200059N0160935N5+02175-00065102435ADDAA101000095GA1005+999999999GD10991+9999999GF100991999999999999999999MA1102445100795REMMET09601/03/20 13:53:02 METAR KPSP 032153Z 08004KT 10SM CLR 22/M01 A3025 RMK AO2 SLP243 T02171006 (AG)
0191722868931382020010322537+33822-116504FM-15+0137KPSP V0201105N001552200059N0160935N5+02175-00065102455ADDAA101000095GA1005+999999999GD10991+9999999GF100991999999999999999999MA1102475100825REMMET09601/03/20 14:53:02 METAR KPSP 032253Z 11003KT 10SM CLR 22/M01 A3026 RMK AO2 SLP245 T02171006 (CM)
0248722868931382020010323537+33822-116504FM-15+0137KPSP V0200705N001552200059N0160935N5+02175+00005102495ADDAA101000095GA1005+999999999GD10991+9999999GF100991999999999999999999KA1060M+02171KA2060N+01721MA1102515100855MD1390039+9999REMMET11301/03/20 15:53:02 METAR KPSP 032353Z 07003KT 10SM CLR 22/00 A3027 RMK AO2 SLP249 T02170000 10217 20172 53003 (ZP)
0185722868931382020010400537+33822-116504FM-15+0137KPSP V0201305N002152200059N0160935N5+01835+00115102545ADDAA101000095GA1005+999999999GD10991+9999999GF100991999999999999999999MA1102545100895REMMET09001/03/20 16:53:01 METAR KPSP 040053Z 13004KT 10SM CLR 18/01 A3028 RMK AO2 SLP254 T01830011
0185722868931382020010401537+33822-116504FM-15+0137KPSP V0209999C000052200059N0160935N5+01835+00225102605ADDAA101000095GA1005+999999999GD10991+9999999GF100991999999999999999999MA1102615100955REMMET09001/03/20 17:53:01 METAR KPSP 040153Z 00000KT 10SM CLR 18/02 A3030 RMK AO2 SLP260 T01830022
0205722868931382020010402537+33822-116504FM-15+0137KPSP V0203105N002152200059N0160935N5+01565+00335102645ADDAA101000095GA1005+999999999GD10991+9999999GF100991999999999999999999MA1102645100995MD1190139+9999REMMET09601/03/20 18:53:01 METAR KPSP 040253Z 31004KT 10SM CLR 16/03 A3031 RMK AO2 SLP264 T01560033 51013
0185722868931382020010403537+33822-116504FM-15+0137KPSP V0203305N002152200059N0160935N5+01335+00395102685ADDAA101000095GA1005+999999999GD10991+9999999GF100991999999999999999999MA1102685101025REMMET09001/03/20 19:53:01 METAR KPSP 040353Z 33004KT 10SM CLR 13/04 A3032 RMK AO2 SLP268 T01330039
0185722868931382020010404537+33822-116504FM-15+0137KPSP V0203405N002652200059N0160935N5+01285+00285102705ADDAA101000095GA1005+999999999GD10991+9999999GF100991999999999999999999MA1102685101025REMMET09001/03/20 20:53:02 METAR KPSP 040453Z 34005KT 10SM CLR 13/03 A3032 RMK AO2 SLP270 T01280028
0243722868931382020010405537+33822-116504FM-15+0137KPSP V0203305N003152200059N0160935N5+01175+00285102755ADDAA101000095GA1005+999999999GD10991+9999999GF100991999999999999999999KA1060M+02171KA2060N+01171MA1102745101095MD1390129+9999REMMET10801/03/20 21:53:02 METAR KPSP 040553Z 33006KT 10SM CLR 12/03 A3034 RMK AO2 SLP275 T01170028 10217 20117 53012
0185722868931382020010406537+33822-116504FM-15+0137KPSP V0203205N003152200059N0160935N5+01175+00225102735ADDAA101000095GA1005+999999999GD10991+9999999GF100991999999999999999999MA1102715101065REMMET09001/03/20 22:53:02 METAR KPSP 040653Z 32006KT 10SM CLR 12/02 A3033 RMK AO2 SLP273 T01170022
0221722868931382020010407537+33822-116504FM-15+0137KPSP V0203305N003152200059N0160935N5+01115+00225102695ADDAA101000095GA1005+999999999GD10991+9999999GF100991999999999999999999KA1240M+02171KA2240N+00831MA1102685101025REMMET10001/03/20 23:53:02 METAR KPSP 040753Z 33006KT 10SM CLR 11/02 A3032 RMK AO2 SLP269 T01110022 402170083
0899722868931382020010407596+33822-116504SOD  +0137KPSP V020999999999999999999999999999+99999+99999999999ADDAA124000095AJ100009599999999AL12400095AN1024000095KA1240M+02175KA2240N+00835MG1100834102034OE11240067134099995OE22240062634099995OE33240017999999995REMSOD73924 HR PRECIPITATION (IN): 0.00 SNOW DEPTH (IN):0     24 HR SNOWFALL (IN):0.0  24 HR MAX TEMP (F): 7124 HR MIN TEMP (F): 47AVERAGE STATION PRESSURE:29.775 MINIMUM SEA LEVEL PRESSURE:30.13 TIME OF OCCURRENCE:0100 PEAK WIND SPEED (MPH): 15 PEAK WIND DIR (DEG):340 PEAK WIND TIME (LST):      FASTEST 2MIN SPEED (MPH): 14FASTEST 2MIN DIR (DEG):340 FASTEST 2MIN TIME (LST):     AVERAGE WIND SPEED (MPH): 4.0 24 HR AVG TEMP (F): 59DEPART FROM NORMAL:  3  HEATING DEGREE DAYS:  6 COOLING DEGREE DAYS:  0 LATEST DAY MAX TEMP (0700-1900 LST):71  LATEST NIGHT MIN TEMP(1900-0800 LST):47 HOURLY INCREMENTAL PRECIPITATION VALUES (IN):.00 0.00 0.00 0.00 0.00 0.00 0.00 0.00 0.00 0.00 0.00 0.00 0.00 0.00 0.00 0.00 0.00 0.00 0.00 0.00 0.00 0.00 0.00 0.00
0205722868931382020010408537+33822-116504FM-15+0137KPSP V0203305N003152200059N0160935N5+01005+00225102665ADDAA101000095GA1005+999999999GD10991+9999999GF100991999999999999999999MA1102645100995MD1890099+9999REMMET09601/04/20 00:53:02 METAR KPSP 040853Z 33006KT 10SM CLR 10/02 A3031 RMK AO2 SLP266 T01000022 58009
0185722868931382020010409537+33822-116504FM-15+0137KPSP V0203305N004152200059N0160935N5+01175+00115102605ADDAA101000095GA1005+999999999GD10991+9999999GF100991999999999999999999MA1102615100955REMMET09001/04/20 01:53:02 METAR KPSP 040953Z 33008KT 10SM CLR 12/01 A3030 RMK AO2 SLP260 T01170011
0185722868931382020010410537+33822-116504FM-15+0137KPSP V0203405N002652200059N0160935N5+00945+00175102595ADDAA101000095GA1005+999999999GD10991+9999999GF100991999999999999999999MA1102575100925REMMET09001/04/20 02:53:02 METAR KPSP 041053Z 34005KT 10SM CLR 09/02 A3029 RMK AO2 SLP259 T00940017
0243722868931382020010411537+33822-116504FM-15+0137KPSP V0203205N002152200059N0160935N5+00945+00175102575ADDAA101000095GA1005+999999999GD10991+9999999GF100991999999999999999999KA1060M+01221KA2060N+00831MA1102575100925MD1690089+9999REMMET10801/04/20 03:53:02 METAR KPSP 041153Z 32004KT 10SM CLR 09/02 A3029 RMK AO2 SLP257 T00940017 10122 20083 56008
0185722868931382020010412537+33822-116504FM-15+0137KPSP V0203405N002652200059N0160935N5+00835+00175102605ADDAA101000095GA1005+999999999GD10991+9999999GF100991999999999999999999MA1102615100955REMMET09001/04/20 04:53:02 METAR KPSP 041253Z 34005KT 10SM CLR 08/02 A3030 RMK AO2 SLP260 T00830017
0190722868931382020010413537+33822-116504FM-15+0137KPSP V0203405N002152200059N0160935N5+00895+00175102655ADDAA101000095GA1005+999999999GD10991+9999999GF100991999999999999999999MA1102645100995REMMET09501/04/20 05:53:02 METAR KPSP 041353Z 34004KT 10SM CLR 09/02 A3031 RMK AO2 SLP265 T00890017 (AT)
0210722868931382020010414537+33822-116504FM-15+0137KPSP V0203505N002652200059N0160935N5+00785+00225102695ADDAA101000095GA1005+999999999GD10991+9999999GF100991999999999999999999MA1102685101025MD1390119+9999REMMET10101/04/20 06:53:02 METAR KPSP 041453Z 35005KT 10SM CLR 08/02 A3032 RMK AO2 SLP269 T00780022 53011 (AG)
0190722868931382020010415537+33822-116504FM-15+0137KPSP V0209999C000052200059N0160935N5+01065+00285102785ADDAA101000095GA1005+999999999GD10991+9999999GF100991999999999999999999MA1102785101125REMMET09501/04/20 07:53:02 METAR KPSP 041553Z 00000KT 10SM CLR 11/03 A3035 RMK AO2 SLP278 T01060028 (AG)
0190722868931382020010416537+33822-116504FM-15+0137KPSP V0209999V001552200059N0160935N5+01395+00395102855ADDAA101000095GA1005+999999999GD10991+9999999GF100991999999999999999999MA1102845101195REMMET09501/04/20 08:53:02 METAR KPSP 041653Z VRB03KT 10SM CLR 14/04 A3037 RMK AO2 SLP285 T01390039 (AG)
0248722868931382020010417537+33822-116504FM-15+0137KPSP V0209999C000052200059N0160935N5+01675+00225102885ADDAA101000095GA1005+999999999GD10991+9999999GF100991999999999999999999KA1060M+01721KA2060N+00671MA1102885101225MD1190199+9999REMMET11301/04/20 09:53:02 METAR KPSP 041753Z 00000KT 10SM CLR 17/02 A3038 RMK AO2 SLP288 T01670022 10172 20067 51019 (AG)
0190722868931382020010418537+33822-116504FM-15+0137KPSP V0201105N001552200059N0160935N5+01835+00115102785ADDAA101000095GA1005+999999999GD10991+9999999GF100991999999999999999999MA1102785101125REMMET09501/04/20 10:53:02 METAR KPSP 041853Z 11003KT 10SM CLR 18/01 A3035 RMK AO2 SLP278 T01830011 (AG)
0190722868931382020010419537+33822-116504FM-15+0137KPSP V0209999C000052200059N0160935N5+02005+00115102625ADDAA101000095GA1005+999999999GD10991+9999999GF100991999999999999999999MA1102615100955REMMET09501/04/20 11:53:02 METAR KPSP 041953Z 00000KT 10SM CLR 20/01 A3030 RMK AO2 SLP262 T02000011 (ZP)
0210722868931382020010420537+33822-116504FM-15+0137KPSP V0209999C000052200059N0160935N5+02115+00065102535ADDAA101000095GA1005+999999999GD10991+9999999GF100991999999999999999999MA1102545100895MD1690349+9999REMMET10101/04/20 12:53:02 METAR KPSP 042053Z 00000KT 10SM CLR 21/01 A3028 RMK AO2 SLP253 T02110006 56034 (BY)
0190722868931382020010421537+33822-116504FM-15+0137KPSP V0209999C000052200059N0160935N5+02115+00175102465ADDAA101000095GA1005+999999999GD10991+9999999GF100991999999999999999999MA1102475100825REMMET09501/04/20 13:53:02 METAR KPSP 042153Z 00000KT 10SM CLR 21/02 A3026 RMK AO2 SLP246 T02110017 (ZP)
0190722868931382020010422537+33822-116504FM-15+0137KPSP V0201305N002152200059N0160935N5+02115+00115102445ADDAA101000095GA1005+999999999GD10991+9999999GF100991999999999999999999MA1102445100795REMMET09501/04/20 14:53:02 METAR KPSP 042253Z 13004KT 10SM CLR 21/01 A3025 RMK AO2 SLP244 T02110011 (LO)
0248722868931382020010423537+33822-116504FM-15+0137KPSP V0201205N002652200059N0160935N5+02065+00115102455ADDAA101000095GA1005+999999999GD10991+9999999GF100991999999999999999999KA1060M+02171KA2060N+01671MA1102445100795MD1590089+9999REMMET11301/04/20 15:53:02 METAR KPSP 042353Z 12005KT 10SM CLR 21/01 A3025 RMK AO2 SLP245 T02060011 10217 20167 55008 (CP)
0185722868931382020010500537+33822-116504FM-15+0137KPSP V0201205N001552200059N0160935N5+01835+00285102475ADDAA101000095GA1005+999999999GD10991+9999999GF100991999999999999999999MA1102475100825REMMET09001/04/20 16:53:01 METAR KPSP 050053Z 12003KT 10SM CLR 18/03 A3026 RMK AO2 SLP247 T01830028
0185722868931382020010501537+33822-116504FM-15+0137KPSP V0209999C000052200059N0160935N5+01615+00445102535ADDAA101000095GA1005+999999999GD10991+9999999GF100991999999999999999999MA1102515100855REMMET09001/04/20 17:53:01 METAR KPSP 050153Z 00000KT 10SM CLR 16/04 A3027 RMK AO2 SLP253 T01610044
0205722868931382020010502537+33822-116504FM-15+0137KPSP V0203305N002152200059N0160935N5+01505+00395102605ADDAA101000095GA1005+999999999GD10991+9999999GF100991999999999999999999MA1102575100925MD1390149+9999REMMET09601/04/20 18:53:01 METAR KPSP 050253Z 33004KT 10SM CLR 15/04 A3029 RMK AO2 SLP260 T01500039 53014
0185722868931382020010503537+33822-116504FM-15+0137KPSP V0203305N002652200059N0160935N5+01335+00445102675ADDAA101000095GA1005+999999999GD10991+9999999GF100991999999999999999999MA1102645100995REMMET09001/04/20 19:53:01 METAR KPSP 050353Z 33005KT 10SM CLR 13/04 A3031 RMK AO2 SLP267 T01330044
0185722868931382020010504537+33822-116504FM-15+0137KPSP V0203205N003152200059N0160935N5+01225+00395102675ADDAA101000095GA1005+999999999GD10991+9999999GF100991999999999999999999MA1102685101025REMMET09001/04/20 20:53:02 METAR KPSP 050453Z 32006KT 10SM CLR 12/04 A3032 RMK AO2 SLP267 T01220039
0243722868931382020010505537+33822-116504FM-15+0137KPSP V0203205N002152200059N0160935N5+01225+00395102685ADDAA101000095GA1005+999999999GD10991+9999999GF100991999999999999999999KA1060M+02061KA2060N+01171MA1102685101025MD1190099+9999REMMET10801/04/20 21:53:02 METAR KPSP 050553Z 32004KT 10SM CLR 12/04 A3032 RMK AO2 SLP268 T01220039 10206 20117 51009
0185722868931382020010506537+33822-116504FM-15+0137KPSP V0203405N003152200059N0160935N5+01115+00335102675ADDAA101000095GA1005+999999999GD10991+9999999GF100991999999999999999999MA1102685101025REMMET09001/04/20 22:53:02 METAR KPSP 050653Z 34006KT 10SM CLR 11/03 A3032 RMK AO2 SLP267 T01110033
0221722868931382020010507537+33822-116504FM-15+0137KPSP V0203305N003652200059N0160935N5+01005+00285102605ADDAA101000095GA1005+999999999GD10991+9999999GF100991999999999999999999KA1240M+02171KA2240N+00671MA1102615100955REMMET10001/04/20 23:53:02 METAR KPSP 050753Z 33007KT 10SM CLR 10/03 A3030 RMK AO2 SLP260 T01000028 402170067
0899722868931382020010507596+33822-116504SOD  +0137KPSP V020999999999999999999999999999+99999+99999999999ADDAA124000095AJ100009599999999AL12400095AN1024000095KA1240M+02175KA2240N+00675MG1100984102444OE11240053632099995OE22240044732099995OE33240018899999995REMSOD73924 HR PRECIPITATION (IN): 0.00 SNOW DEPTH (IN):0     24 HR SNOWFALL (IN):0.0  24 HR MAX TEMP (F): 7124 HR MIN TEMP (F): 44AVERAGE STATION PRESSURE:29.820 MINIMUM SEA LEVEL PRESSURE:30.25 TIME OF OCCURRENCE:1618 PEAK WIND SPEED (MPH): 12 PEAK WIND DIR (DEG):320 PEAK WIND TIME (LST):      FASTEST 2MIN SPEED (MPH): 10FASTEST 2MIN DIR (DEG):320 FASTEST 2MIN TIME (LST):     AVERAGE WIND SPEED (MPH): 4.2 24 HR AVG TEMP (F): 58DEPART FROM NORMAL:  2  HEATING DEGREE DAYS:  7 COOLING DEGREE DAYS:  0 LATEST DAY MAX TEMP (0700-1900 LST):71  LATEST NIGHT MIN TEMP(1900-0800 LST):44 HOURLY INCREMENTAL PRECIPITATION VALUES (IN):.00 0.00 0.00 0.00 0.00 0.00 0.00 0.00 0.00 0.00 0.00 0.00 0.00 0.00 0.00 0.00 0.00 0.00 0.00 0.00 0.00 0.00 0.00 0.00
0205722868931382020010508537+33822-116504FM-15+0137KPSP V0203605N002652200059N0160935N5+01005+00285102555ADDAA101000095GA1005+999999999GD10991+9999999GF100991999999999999999999MA1102545100895MD1890139+9999REMMET09601/05/20 00:53:02 METAR KPSP 050853Z 36005KT 10SM CLR 10/03 A3028 RMK AO2 SLP255 T01000028 58013
0185722868931382020010509537+33822-116504FM-15+0137KPSP V0203305N003152200059N0160935N5+01065+00225102545ADDAA101000095GA1005+999999999GD10991+9999999GF100991999999999999999999MA1102545100895REMMET09001/05/20 01:53:02 METAR KPSP 050953Z 33006KT 10SM CLR 11/02 A3028 RMK AO2 SLP254 T01060022
0185722868931382020010510537+33822-116504FM-15+0137KPSP V0202805N001552200059N0160935N5+00835+00285102505ADDAA101000095GA1005+999999999GD10991+9999999GF100991999999999999999999MA1102515100855REMMET09001/05/20 02:53:02 METAR KPSP 051053Z 28003KT 10SM CLR 08/03 A3027 RMK AO2 SLP250 T00830028
0243722868931382020010511537+33822-116504FM-15+0137KPSP V0203305N003152200059N0160935N5+00945+00175102455ADDAA101000095GA1005+999999999GD10991+9999999GF100991999999999999999999KA1060M+01221KA2060N+00831MA1102445100795MD1890109+9999REMMET10801/05/20 03:53:02 METAR KPSP 051153Z 33006KT 10SM CLR 09/02 A3025 RMK AO2 SLP245 T00940017 10122 20083 58010
0185722868931382020010512537+33822-116504FM-15+0137KPSP V0209999C000052200059N0160935N5+00725+00225102485ADDAA101000095GA1005+999999999GD10991+9999999GF100991999999999999999999MA1102475100825REMMET09001/05/20 04:53:02 METAR KPSP 051253Z 00000KT 10SM CLR 07/02 A3026 RMK AO2 SLP248 T00720022
0190722868931382020010513537+33822-116504FM-15+0137KPSP V0203305N004152200059N0160935N5+00895+00175102545ADDAA101000095GA1005+999999999GD10991+9999999GF100991999999999999999999MA1102545100895REMMET09501/05/20 05:53:02 METAR KPSP 051353Z 33008KT 10SM CLR 09/02 A3028 RMK AO2 SLP254 T00890017 (AG)
0210722868931382020010514537+33822-116504FM-15+0137KPSP V0203405N003652200059N0160935N5+00895+00115102595ADDAA101000095GA1005+999999999GD10991+9999999GF100991999999999999999999MA1102575100925MD1390149+9999REMMET10101/05/20 06:53:02 METAR KPSP 051453Z 34007KT 10SM CLR 09/01 A3029 RMK AO2 SLP259 T00890011 53014 (AG)
0190722868931382020010515537+33822-116504FM-15+0137KPSP V0203405N002652200059N0160935N5+01005+00175102655ADDAA101000095GA1005+999999999GD10991+9999999GF100991999999999999999999MA1102645100995REMMET09501/05/20 07:53:02 METAR KPSP 051553Z 34005KT 10SM CLR 10/02 A3031 RMK AO2 SLP265 T01000017 (AG)
0190722868931382020010516537+33822-116504FM-15+0137KPSP V0203205N003152200059N0160935N5+01445+00175102695ADDAA101000095GA1005+999999999GD10991+9999999GF100991999999999999999999MA1102685101025REMMET09501/05/20 08:53:02 METAR KPSP 051653Z 32006KT 10SM CLR 14/02 A3032 RMK AO2 SLP269 T01440017 (AG)
0248722868931382020010517537+33822-116504FM-15+0137KPSP V0209999C000052200059N0160935N5+01675+00395102685ADDAA101000095GA1005+999999999GD10991+9999999GF100991999999999999999999KA1060M+01671KA2060N+00671MA1102685101025MD1090099+9999REMMET11301/05/20 09:53:02 METAR KPSP 051753Z 00000KT 10SM CLR 17/04 A3032 RMK AO2 SLP268 T01670039 10167 20067 50009 (ZP)
0190722868931382020010518537+33822-116504FM-15+0137KPSP V0209999C000052200059N0160935N5+02065+00175102555ADDAA101000095GA1005+999999999GD10991+9999999GF100991999999999999999999MA1102545100895REMMET09501/05/20 10:53:02 METAR KPSP 051853Z 00000KT 10SM CLR 21/02 A3028 RMK AO2 SLP255 T02060017 (BY)
0172722868931382020010519057+33822-116504FM-16+0137KPSP V0209999C000052200059N0160935N5+02065+00115999999ADDGA1005+999999999GD10991+9999999GF100991999999999999999999MA1102545100895REMMET08801/05/20 11:05:02 SPECI KPSP 051905Z 00000KT 10SM CLR 21/01 A3028 RMK AO2 T02060011 (AG)
0190722868931382020010519537+33822-116504FM-15+0137KPSP V0201505N002152200059N0160935N5+02115+00065102415ADDAA101000095GA1005+999999999GD10991+9999999GF100991999999999999999999MA1102405100755REMMET09501/05/20 11:53:02 METAR KPSP 051953Z 15004KT 10SM CLR 21/01 A3024 RMK AO2 SLP241 T02110006 (BY)
0210722868931382020010520537+33822-116504FM-15+0137KPSP V0209999C000052200059N0160935N5+02225+00115102335ADDAA101000095GA1005+999999999GD10991+9999999GF100991999999999999999999MA1102345100695MD1690349+9999REMMET10101/05/20 12:53:02 METAR KPSP 052053Z 00000KT 10SM CLR 22/01 A3022 RMK AO2 SLP233 T02220011 56034 (AG)
0190722868931382020010521537+33822-116504FM-15+0137KPSP V0200905N001552200059N0160935N5+02285+00115102275ADDAA101000095GA1005+999999999GD10991+9999999GF100991999999999999999999MA1102275100625REMMET09501/05/20 13:53:02 METAR KPSP 052153Z 09003KT 10SM CLR 23/01 A3020 RMK AO2 SLP227 T02280011 (LJ)
0190722868931382020010522537+33822-116504FM-15+0137KPSP V0201105N001552200059N0160935N5+02285+00175102295ADDAA101000095GA1005+999999999GD10991+9999999GF100991999999999999999999MA1102305100655REMMET09501/05/20 14:53:02 METAR KPSP 052253Z 11003KT 10SM CLR 23/02 A3021 RMK AO2 SLP229 T02280017 (LJ)
0248722868931382020010523537+33822-116504FM-15+0137KPSP V0201305N003152200059N0160935N5+02225+00285102325ADDAA101000095GA1005+999999999GD10991+9999999GF100991999999999999999999KA1060M+02331KA2060N+01721MA1102305100655MD1590019+9999REMMET11301/05/20 15:53:02 METAR KPSP 052353Z 13006KT 10SM CLR 22/03 A3021 RMK AO2 SLP232 T02220028 10233 20172 55001 (LJ)
0185722868931382020010600537+33822-116504FM-15+0137KPSP V0209999C000052200059N0160935N5+01895+00395102375ADDAA101000095GA1005+999999999GD10991+9999999GF100991999999999999999999MA1102375100725REMMET09001/05/20 16:53:01 METAR KPSP 060053Z 00000KT 10SM CLR 19/04 A3023 RMK AO2 SLP237 T01890039
0185722868931382020010601537+33822-116504FM-15+0137KPSP V0201805N001552200059N0160935N5+01785+00445102485ADDAA101000095GA1005+999999999GD10991+9999999GF100991999999999999999999MA1102475100825REMMET09001/05/20 17:53:01 METAR KPSP 060153Z 18003KT 10SM CLR 18/04 A3026 RMK AO2 SLP248 T01780044
0205722868931382020010602537+33822-116504FM-15+0137KPSP V0202605N002152200059N0160935N5+01835+00175102525ADDAA101000095GA1005+999999999GD10991+9999999GF100991999999999999999999MA1102515100855MD1190209+9999REMMET09601/05/20 18:53:01 METAR KPSP 060253Z 26004KT 10SM CLR 18/02 A3027 RMK AO2 SLP252 T01830017 51020
0186722868931382020010603537+33822-116504FM-15+0137KPSP V0200105N002652200059N0160935N5+01895-00565102615ADDAA101000095GA1005+999999999GD10991+9999999GF100991999999999999999999MA1102615100955REMMET09101/05/20 19:53:01 METAR KPSP 060353Z 01005KT 10SM CLR 19/M06 A3030 RMK AO2 SLP261 T01891056
0186722868931382020010604537+33822-116504FM-15+0137KPSP V0203305N008252200059N0160935N5+02005-00835102695ADDAA101000095GA1005+999999999GD10991+9999999GF100991999999999999999999MA1102715101065REMMET09101/05/20 20:53:02 METAR KPSP 060453Z 33016KT 10SM CLR 20/M08 A3033 RMK AO2 SLP269 T02001083
0244722868931382020010605537+33822-116504FM-15+0137KPSP V0203205N003152200059N0160935N5+01895-00785102765ADDAA101000095GA1005+999999999GD10991+9999999GF100991999999999999999999KA1060M+02221KA2060N+01611MA1102785101125MD1190259+9999REMMET10901/05/20 21:53:02 METAR KPSP 060553Z 32006KT 10SM CLR 19/M08 A3035 RMK AO2 SLP276 T01891078 10222 20161 51025
0186722868931382020010606537+33822-116504FM-15+0137KPSP V0202905N002152200059N0160935N5+01835-00895102815ADDAA101000095GA1005+999999999GD10991+9999999GF100991999999999999999999MA1102815101165REMMET09101/05/20 22:53:02 METAR KPSP 060653Z 29004KT 10SM CLR 18/M09 A3036 RMK AO2 SLP281 T01831089
0222722868931382020010607537+33822-116504FM-15+0137KPSP V0203205N002152200059N0160935N5+01835-01005102755ADDAA101000095GA1005+999999999GD10991+9999999GF100991999999999999999999KA1240M+02331KA2240N+00671MA1102785101125REMMET10101/05/20 23:53:02 METAR KPSP 060753Z 32004KT 10SM CLR 18/M10 A3035 RMK AO2 SLP275 T01831100 402330067
0899722868931382020010607596+33822-116504SOD  +0137KPSP V020999999999999999999999999999+99999+99999999999ADDAA124000095AJ100009599999999AL12400095AN1024000095KA1240M+02335KA2240N+00675MG1100884102274OE11240107332099995OE22240089434099995OE33240022499999995REMSOD73924 HR PRECIPITATION (IN): 0.00 SNOW DEPTH (IN):0     24 HR SNOWFALL (IN):0.0  24 HR MAX TEMP (F): 7424 HR MIN TEMP (F): 44AVERAGE STATION PRESSURE:29.790 MINIMUM SEA LEVEL PRESSURE:30.20 TIME OF OCCURRENCE:1512 PEAK WIND SPEED (MPH): 24 PEAK WIND DIR (DEG):320 PEAK WIND TIME (LST):      FASTEST 2MIN SPEED (MPH): 20FASTEST 2MIN DIR (DEG):340 FASTEST 2MIN TIME (LST):     AVERAGE WIND SPEED (MPH): 5.0 24 HR AVG TEMP (F): 59DEPART FROM NORMAL:  3  HEATING DEGREE DAYS:  6 COOLING DEGREE DAYS:  0 LATEST DAY MAX TEMP (0700-1900 LST):74  LATEST NIGHT MIN TEMP(1900-0800 LST):44 HOURLY INCREMENTAL PRECIPITATION VALUES (IN):.00 0.00 0.00 0.00 0.00 0.00 0.00 0.00 0.00 0.00 0.00 0.00 0.00 0.00 0.00 0.00 0.00 0.00 0.00 0.00 0.00 0.00 0.00 0.00
0206722868931382020010608537+33822-116504FM-15+0137KPSP V0202805N003152200059N0160935N5+01725-00945102715ADDAA101000095GA1005+999999999GD10991+9999999GF100991999999999999999999MA1102715101065MD1890059+9999REMMET09701/06/20 00:53:02 METAR KPSP 060853Z 28006KT 10SM CLR 17/M09 A3033 RMK AO2 SLP271 T01721094 58005
0186722868931382020010609537+33822-116504FM-15+0137KPSP V0203105N004152200059N0160935N5+01945-01175102715ADDAA101000095GA1005+999999999GD10991+9999999GF100991999999999999999999MA1102745101095REMMET09101/06/20 01:53:02 METAR KPSP 060953Z 31008KT 10SM CLR 19/M12 A3034 RMK AO2 SLP271 T01941117
0186722868931382020010610537+33822-116504FM-15+0137KPSP V0203105N005152200059N0160935N5+01945-01225102765ADDAA101000095GA1005+999999999GD10991+9999999GF100991999999999999999999MA1102785101125REMMET09101/06/20 02:53:02 METAR KPSP 061053Z 31010KT 10SM CLR 19/M12 A3035 RMK AO2 SLP276 T01941122
0244722868931382020010611537+33822-116504FM-15+0137KPSP V0203205N003652200059N0160935N5+01785-01175102825ADDAA101000095GA1005+999999999GD10991+9999999GF100991999999999999999999KA1060M+02061KA2060N+01561MA1102845101195MD1390129+9999REMMET10901/06/20 03:53:02 METAR KPSP 061153Z 32007KT 10SM CLR 18/M12 A3037 RMK AO2 SLP282 T01781117 10206 20156 53012
0186722868931382020010612537+33822-116504FM-15+0137KPSP V0203505N007252200059N0160935N5+01675-01065102815ADDAA101000095GA1005+999999999GD10991+9999999GF100991999999999999999999MA1102815101165REMMET09101/06/20 04:53:02 METAR KPSP 061253Z 35014KT 10SM CLR 17/M11 A3036 RMK AO2 SLP281 T01671106
0191722868931382020010613537+33822-116504FM-15+0137KPSP V0203105N003652200059N0160935N5+01675-01065102875ADDAA101000095GA1005+999999999GD10991+9999999GF100991999999999999999999MA1102885101225REMMET09601/06/20 05:53:02 METAR KPSP 061353Z 31007KT 10SM CLR 17/M11 A3038 RMK AO2 SLP287 T01671106 (CM)
0211722868931382020010614537+33822-116504FM-15+0137KPSP V0209999V002652200059N0160935N5+01615-01065102915ADDAA101000095GA1005+999999999GD10991+9999999GF100991999999999999999999MA1102915101265MD1390089+9999REMMET10201/06/20 06:53:02 METAR KPSP 061453Z VRB05KT 10SM CLR 16/M11 A3039 RMK AO2 SLP291 T01611106 53008 (CM)
0191722868931382020010615537+33822-116504FM-15+0137KPSP V0202605N002652200059N0160935N5+01565-00835103015ADDAA101000095GA1005+999999999GD10991+9999999GF100991999999999999999999MA1103015101365REMMET09601/06/20 07:53:02 METAR KPSP 061553Z 26005KT 10SM CLR 16/M08 A3042 RMK AO2 SLP301 T01561083 (ZP)
0191722868931382020010616537+33822-116504FM-15+0137KPSP V0209999C000052200059N0160935N5+01835-00725103085ADDAA101000095GA1005+999999999GD10991+9999999GF100991999999999999999999MA1103085101425REMMET09601/06/20 08:53:02 METAR KPSP 061653Z 00000KT 10SM CLR 18/M07 A3044 RMK AO2 SLP308 T01831072 (LJ)
0249722868931382020010617537+33822-116504FM-15+0137KPSP V0202405N001552200059N0160935N5+02065-00725103105ADDAA101000095GA1005+999999999GD10991+9999999GF100991999999999999999999KA1060M+02061KA2060N+01391MA1103125101465MD1190199+9999REMMET11401/06/20 09:53:02 METAR KPSP 061753Z 24003KT 10SM CLR 21/M07 A3045 RMK AO2 SLP310 T02061072 10206 20139 51019 (CM)
0191722868931382020010618537+33822-116504FM-15+0137KPSP V0209999C000052200059N0160935N5+02225-00945103025ADDAA101000095GA1005+999999999GD10991+9999999GF100991999999999999999999MA1103055101395REMMET09601/06/20 10:53:02 METAR KPSP 061853Z 00000KT 10SM CLR 22/M09 A3043 RMK AO2 SLP302 T02221094 (ZP)
0191722868931382020010619537+33822-116504FM-15+0137KPSP V0203105N002152200059N0160935N5+02335-00945102865ADDAA101000095GA1005+999999999GD10991+9999999GF100991999999999999999999MA1102885101225REMMET09601/06/20 11:53:02 METAR KPSP 061953Z 31004KT 10SM CLR 23/M09 A3038 RMK AO2 SLP286 T02331094 (ZP)
0211722868931382020010620537+33822-116504FM-15+0137KPSP V0203305N002652200059N0160935N5+02395-01065102755ADDAA101000095GA1005+999999999GD10991+9999999GF100991999999999999999999MA1102785101125MD1890359+9999REMMET10201/06/20 12:53:02 METAR KPSP 062053Z 33005KT 10SM CLR 24/M11 A3035 RMK AO2 SLP275 T02391106 58035 (ZP)
0191722868931382020010621537+33822-116504FM-15+0137KPSP V0209999C000052200059N0160935N5+02395-01005102675ADDAA101000095GA1005+999999999GD10991+9999999GF100991999999999999999999MA1102685101025REMMET09601/06/20 13:53:02 METAR KPSP 062153Z 00000KT 10SM CLR 24/M10 A3032 RMK AO2 SLP267 T02391100 (ZP)
0191722868931382020010622537+33822-116504FM-15+0137KPSP V0202805N001552200059N0160935N5+02445-00945102635ADDAA101000095GA1005+999999999GD10991+9999999GF100991999999999999999999MA1102645100995REMMET09601/06/20 14:53:02 METAR KPSP 062253Z 28003KT 10SM CLR 24/M09 A3031 RMK AO2 SLP263 T02441094 (ZP)
0249722868931382020010623537+33822-116504FM-15+0137KPSP V0202805N002152200059N0160935N5+02395-01005102635ADDAA101000095GA1005+999999999GD10991+9999999GF100991999999999999999999KA1060M+02501KA2060N+02061MA1102645100995MD1690119+9999REMMET11401/06/20 15:53:02 METAR KPSP 062353Z 28004KT 10SM CLR 24/M10 A3031 RMK AO2 SLP263 T02391100 10250 20206 56011 (ZP)
0186722868931382020010700537+33822-116504FM-15+0137KPSP V0202505N002652200059N0160935N5+02005-00565102635ADDAA101000095GA1005+999999999GD10991+9999999GF100991999999999999999999MA1102645100995REMMET09101/06/20 16:53:01 METAR KPSP 070053Z 25005KT 10SM CLR 20/M06 A3031 RMK AO2 SLP263 T02001056
0186722868931382020010701537+33822-116504FM-15+0137KPSP V0202705N003652200059N0160935N5+01835-00615102635ADDAA101000095GA1005+999999999GD10991+9999999GF100991999999999999999999MA1102645100995REMMET09101/06/20 17:53:01 METAR KPSP 070153Z 27007KT 10SM CLR 18/M06 A3031 RMK AO2 SLP263 T01831061
0206722868931382020010702537+33822-116504FM-15+0137KPSP V0202705N002152200059N0160935N5+01725-00675102645ADDAA101000095GA1005+999999999GD10991+9999999GF100991999999999999999999MA1102645100995MD1590009+9999REMMET09701/06/20 18:53:01 METAR KPSP 070253Z 27004KT 10SM CLR 17/M07 A3031 RMK AO2 SLP264 T01721067 55000
0186722868931382020010703537+33822-116504FM-15+0137KPSP V0202605N002652200059N0160935N5+01675-00785102665ADDAA101000095GA1005+999999999GD10991+9999999GF100991999999999999999999MA1102645100995REMMET09101/06/20 19:53:01 METAR KPSP 070353Z 26005KT 10SM CLR 17/M08 A3031 RMK AO2 SLP266 T01671078
0186722868931382020010704537+33822-116504FM-15+0137KPSP V0202605N002652200059N0160935N5+01565-00785102655ADDAA101000095GA1005+999999999GD10991+9999999GF100991999999999999999999MA1102645100995REMMET09101/06/20 20:53:02 METAR KPSP 070453Z 26005KT 10SM CLR 16/M08 A3031 RMK AO2 SLP265 T01561078
0244722868931382020010705537+33822-116504FM-15+0137KPSP V0203005N001552200059N0160935N5+01285-00395102685ADDAA101000095GA1005+999999999GD10991+9999999GF100991999999999999999999KA1060M+02391KA2060N+01221MA1102685101025MD1390049+9999REMMET10901/06/20 21:53:02 METAR KPSP 070553Z 30003KT 10SM CLR 13/M04 A3032 RMK AO2 SLP268 T01281039 10239 20122 53004
0186722868931382020010706537+33822-116504FM-15+0137KPSP V0203005N003152200059N0160935N5+01395-00615102655ADDAA101000095GA1005+999999999GD10991+9999999GF100991999999999999999999MA1102685101025REMMET09101/06/20 22:53:02 METAR KPSP 070653Z 30006KT 10SM CLR 14/M06 A3032 RMK AO2 SLP265 T01391061
0222722868931382020010707537+33822-116504FM-15+0137KPSP V0203205N002152200059N0160935N5+01225-00505102625ADDAA101000095GA1005+999999999GD10991+9999999GF100991999999999999999999KA1240M+02501KA2240N+01171MA1102615100955REMMET10101/06/20 23:53:02 METAR KPSP 070753Z 32004KT 10SM CLR 12/M05 A3030 RMK AO2 SLP262 T01221050 402500117
0899722868931382020010707596+33822-116504SOD  +0137KPSP V020999999999999999999999999999+99999+99999999999ADDAA124000095AJ100009599999999AL12400095AN1024000095KA1240M+02505KA2240N+01115MG1101154102614OE11240089432099995OE22240076034099995OE33240025999999995REMSOD73924 HR PRECIPITATION (IN): 0.00 SNOW DEPTH (IN):0     24 HR SNOWFALL (IN):0.0  24 HR MAX TEMP (F): 7724 HR MIN TEMP (F): 52AVERAGE STATION PRESSURE:29.870 MINIMUM SEA LEVEL PRESSURE:30.30 TIME OF OCCURRENCE:2359 PEAK WIND SPEED (MPH): 20 PEAK WIND DIR (DEG):320 PEAK WIND TIME (LST):      FASTEST 2MIN SPEED (MPH): 17FASTEST 2MIN DIR (DEG):340 FASTEST 2MIN TIME (LST):     AVERAGE WIND SPEED (MPH): 5.8 24 HR AVG TEMP (F): 65DEPART FROM NORMAL:  8  HEATING DEGREE DAYS:  0 COOLING DEGREE DAYS:  0 LATEST DAY MAX TEMP (0700-1900 LST):77  LATEST NIGHT MIN TEMP(1900-0800 LST):57 HOURLY INCREMENTAL PRECIPITATION VALUES (IN):.00 0.00 0.00 0.00 0.00 0.00 0.00 0.00 0.00 0.00 0.00 0.00 0.00 0.00 0.00 0.00 0.00 0.00 0.00 0.00 0.00 0.00 0.00 0.00
0206722868931382020010708537+33822-116504FM-15+0137KPSP V0203005N001552200059N0160935N5+01065-00335102585ADDAA101000095GA1005+999999999GD10991+9999999GF100991999999999999999999MA1102575100925MD1890109+9999REMMET09701/07/20 00:53:02 METAR KPSP 070853Z 30003KT 10SM CLR 11/M03 A3029 RMK AO2 SLP258 T01061033 58010
0186722868931382020010709537+33822-116504FM-15+0137KPSP V0203205N002652200059N0160935N5+01065-00445102575ADDAA101000095GA1005+999999999GD10991+9999999GF100991999999999999999999MA1102575100925REMMET09101/07/20 01:53:02 METAR KPSP 070953Z 32005KT 10SM CLR 11/M04 A3029 RMK AO2 SLP257 T01061044
0186722868931382020010710537+33822-116504FM-15+0137KPSP V0203105N002652200059N0160935N5+01005-00445102525ADDAA101000095GA1005+999999999GD10991+9999999GF100991999999999999999999MA1102545100895REMMET09101/07/20 02:53:02 METAR KPSP 071053Z 31005KT 10SM CLR 10/M04 A3028 RMK AO2 SLP252 T01001044
0244722868931382020010711537+33822-116504FM-15+0137KPSP V0203305N002652200059N0160935N5+00895-00285102475ADDAA101000095GA1005+999999999GD10991+9999999GF100991999999999999999999KA1060M+01441KA2060N+00781MA1102475100825MD1890119+9999REMMET10901/07/20 03:53:02 METAR KPSP 071153Z 33005KT 10SM CLR 09/M03 A3026 RMK AO2 SLP247 T00891028 10144 20078 58011
0186722868931382020010712537+33822-116504FM-15+0137KPSP V0203405N003152200059N0160935N5+00835-00335102445ADDAA101000095GA1005+999999999GD10991+9999999GF100991999999999999999999MA1102445100795REMMET09101/07/20 04:53:02 METAR KPSP 071253Z 34006KT 10SM CLR 08/M03 A3025 RMK AO2 SLP244 T00831033
0186722868931382020010713537+33822-116504FM-15+0137KPSP V0203305N003652200059N0160935N5+00945-00505102425ADDAA101000095GA1005+999999999GD10991+9999999GF100991999999999999999999MA1102405100755REMMET09101/07/20 05:53:02 METAR KPSP 071353Z 33007KT 10SM CLR 09/M05 A3024 RMK AO2 SLP242 T00941050
0211722868931382020010714537+33822-116504FM-15+0137KPSP V0203205N002652200059N0160935N5+01115-00615102425ADDAA101000095GA1005+999999999GD10991+9999999GF100991999999999999999999MA1102405100755MD1590069+9999REMMET10201/07/20 06:53:02 METAR KPSP 071453Z 32005KT 10SM CLR 11/M06 A3024 RMK AO2 SLP242 T01111061 55006 (AG)
0191722868931382020010715537+33822-116504FM-15+0137KPSP V0203305N003152200059N0160935N5+01115-00505102465ADDAA101000095GA1005+999999999GD10991+9999999GF100991999999999999999999MA1102475100825REMMET09601/07/20 07:53:02 METAR KPSP 071553Z 33006KT 10SM CLR 11/M05 A3026 RMK AO2 SLP246 T01111050 (AG)
0191722868931382020010716537+33822-116504FM-15+0137KPSP V0209999C000052200059N0160935N5+01505-00395102475ADDAA101000095GA1005+999999999GD10991+9999999GF100991999999999999999999MA1102475100825REMMET09601/07/20 08:53:02 METAR KPSP 071653Z 00000KT 10SM CLR 15/M04 A3026 RMK AO2 SLP247 T01501039 (AG)
0249722868931382020010717537+33822-116504FM-15+0137KPSP V0209999C000052200059N0160935N5+01895-00565102465ADDAA101000095GA1005+999999999GD10991+9999999GF100991999999999999999999KA1060M+01891KA2060N+00781MA1102475100825MD1090049+9999REMMET11401/07/20 09:53:02 METAR KPSP 071753Z 00000KT 10SM CLR 19/M06 A3026 RMK AO2 SLP246 T01891056 10189 20078 50004 (AG)
0191722868931382020010718537+33822-116504FM-15+0137KPSP V0209999C000052200059N0160935N5+02005-00565102335ADDAA101000095GA1005+999999999GD10991+9999999GF100991999999999999999999MA1102345100695REMMET09601/07/20 10:53:02 METAR KPSP 071853Z 00000KT 10SM CLR 20/M06 A3022 RMK AO2 SLP233 T02001056 (BY)
0191722868931382020010719537+33822-116504FM-15+0137KPSP V0209999V001552200059N0160935N5+02115-00725102195ADDAA101000095GA1005+999999999GD10991+9999999GF100991999999999999999999MA1102205100555REMMET09601/07/20 11:53:02 METAR KPSP 071953Z VRB03KT 10SM CLR 21/M07 A3018 RMK AO2 SLP219 T02111072 (AG)
0211722868931382020010720537+33822-116504FM-15+0137KPSP V0209999V001552200059N0160935N5+02175-00615102035ADDAA101000095GA1005+999999999GD10991+9999999GF100991999999999999999999MA1102035100395MD1890439+9999REMMET10201/07/20 12:53:02 METAR KPSP 072053Z VRB03KT 10SM CLR 22/M06 A3013 RMK AO2 SLP203 T02171061 58043 (AG)
0191722868931382020010721537+33822-116504FM-15+0137KPSP V0201205N001552200059N0160935N5+02285-00565101935ADDAA101000095GA1005+999999999GD10991+9999999GF100991999999999999999999MA1101935100295REMMET09601/07/20 13:53:02 METAR KPSP 072153Z 12003KT 10SM CLR 23/M06 A3010 RMK AO2 SLP193 T02281056 (AG)
0191722868931382020010722537+33822-116504FM-15+0137KPSP V0202005N002152200059N0160935N5+02225-00615101905ADDAA101000095GA1005+999999999GD10991+9999999GF100991999999999999999999MA1101905100255REMMET09601/07/20 14:53:02 METAR KPSP 072253Z 20004KT 10SM CLR 22/M06 A3009 RMK AO2 SLP190 T02221061 (BY)
0249722868931382020010723537+33822-116504FM-15+0137KPSP V0201305N002152200059N0160935N5+02175-00565101905ADDAA101000095GA1005+999999999GD10991+9999999GF100991999999999999999999KA1060M+02281KA2060N+01891MA1101905100255MD1690139+9999REMMET11401/07/20 15:53:02 METAR KPSP 072353Z 13004KT 10SM CLR 22/M06 A3009 RMK AO2 SLP190 T02171056 10228 20189 56013 (LO)
0186722868931382020010800537+33822-116504FM-15+0137KPSP V0201305N001552200059N0160935N5+01945-00395101855ADDAA101000095GA1005+999999999GD10991+9999999GF100991999999999999999999MA1101865100225REMMET09101/07/20 16:53:01 METAR KPSP 080053Z 13003KT 10SM CLR 19/M04 A3008 RMK AO2 SLP185 T01941039
0186722868931382020010801537+33822-116504FM-15+0137KPSP V0202605N001552200059N0160935N5+01785-00115101815ADDAA101000095GA1005+999999999GD10991+9999999GF100991999999999999999999MA1101835100195REMMET09101/07/20 17:53:01 METAR KPSP 080153Z 26003KT 10SM CLR 18/M01 A3007 RMK AO2 SLP181 T01781011
0205722868931382020010802537+33822-116504FM-15+0137KPSP V0203305N003152200059N0160935N5+01565+00005101795ADDAA101000095GA1005+999999999GD10991+9999999GF100991999999999999999999MA1101795100155MD1690109+9999REMMET09601/07/20 18:53:01 METAR KPSP 080253Z 33006KT 10SM CLR 16/00 A3006 RMK AO2 SLP179 T01560000 56010
0185722868931382020010803537+33822-116504FM-15+0137KPSP V0203505N003652200059N0160935N5+01335+00005101825ADDAA101000095GA1005+999999999GD10991+9999999GF100991999999999999999999MA1101835100195REMMET09001/07/20 19:53:01 METAR KPSP 080353Z 35007KT 10SM CLR 13/00 A3007 RMK AO2 SLP182 T01330000
0186722868931382020010804537+33822-116504FM-15+0137KPSP V0203305N002652200059N0160935N5+01335-00175101805ADDAA101000095GA1005+999999999GD10991+9999999GF100991999999999999999999MA1101795100155REMMET09101/07/20 20:53:02 METAR KPSP 080453Z 33005KT 10SM CLR 13/M02 A3006 RMK AO2 SLP180 T01331017
0244722868931382020010805537+33822-116504FM-15+0137KPSP V0203305N003652200059N0160935N5+01225-00175101795ADDAA101000095GA1005+999999999GD10991+9999999GF100991999999999999999999KA1060M+02171KA2060N+01221MA1101795100155MD1890009+9999REMMET10901/07/20 21:53:02 METAR KPSP 080553Z 33007KT 10SM CLR 12/M02 A3006 RMK AO2 SLP179 T01221017 10217 20122 58000
0186722868931382020010806537+33822-116504FM-15+0137KPSP V0203305N003152200059N0160935N5+01175-00175101725ADDAA101000095GA1005+999999999GD10991+9999999GF100991999999999999999999MA1101735100095REMMET09101/07/20 22:53:02 METAR KPSP 080653Z 33006KT 10SM CLR 12/M02 A3004 RMK AO2 SLP172 T01171017
0222722868931382020010807537+33822-116504FM-15+0137KPSP V0203405N002652200059N0160935N5+01175-00175101625ADDAA101000095GA1005+999999999GD10991+9999999GF100991999999999999999999KA1240M+02281KA2240N+00781MA1101635099995REMMET10101/07/20 23:53:02 METAR KPSP 080753Z 34005KT 10SM CLR 12/M02 A3001 RMK AO2 SLP162 T01171017 402280078
0899722868931382020010807596+33822-116504SOD  +0137KPSP V020999999999999999999999999999+99999+99999999999ADDAA124000095AJ100009599999999AL12400095AN1024000095KA1240M+02285KA2240N+00785MG1100494101634OE11240053632099995OE22240035833099995OE33240021599999995REMSOD73924 HR PRECIPITATION (IN): 0.00 SNOW DEPTH (IN):0     24 HR SNOWFALL (IN):0.0  24 HR MAX TEMP (F): 7324 HR MIN TEMP (F): 46AVERAGE STATION PRESSURE:29.675 MINIMUM SEA LEVEL PRESSURE:30.01 TIME OF OCCURRENCE:2359 PEAK WIND SPEED (MPH): 12 PEAK WIND DIR (DEG):320 PEAK WIND TIME (LST):      FASTEST 2MIN SPEED (MPH):  8FASTEST 2MIN DIR (DEG):330 FASTEST 2MIN TIME (LST):     AVERAGE WIND SPEED (MPH): 4.8 24 HR AVG TEMP (F): 60DEPART FROM NORMAL:  3  HEATING DEGREE DAYS:  5 COOLING DEGREE DAYS:  0 LATEST DAY MAX TEMP (0700-1900 LST):73  LATEST NIGHT MIN TEMP(1900-0800 LST):46 HOURLY INCREMENTAL PRECIPITATION VALUES (IN):.00 0.00 0.00 0.00 0.00 0.00 0.00 0.00 0.00 0.00 0.00 0.00 0.00 0.00 0.00 0.00 0.00 0.00 0.00 0.00 0.00 0.00 0.00 0.00
0206722868931382020010808537+33822-116504FM-15+0137KPSP V0203405N002652200059N0160935N5+01115-00175101565ADDAA101000095GA1005+999999999GD10991+9999999GF100991999999999999999999MA1101565099925MD1690229+9999REMMET09701/08/20 00:53:02 METAR KPSP 080853Z 34005KT 10SM CLR 11/M02 A2999 RMK AO2 SLP156 T01111017 56022
0186722868931382020010809537+33822-116504FM-15+0137KPSP V0203105N002652200059N0160935N5+00945-00115101555ADDAA101000095GA1005+999999999GD10991+9999999GF100991999999999999999999MA1101565099925REMMET09101/08/20 01:53:02 METAR KPSP 080953Z 31005KT 10SM CLR 09/M01 A2999 RMK AO2 SLP155 T00941011
0186722868931382020010810537+33822-116504FM-15+0137KPSP V0203305N002152200059N0160935N5+00945-00065101495ADDAA101000095GA1005+999999999GD10991+9999999GF100991999999999999999999MA1101495099855REMMET09101/08/20 02:53:02 METAR KPSP 081053Z 33004KT 10SM CLR 09/M01 A2997 RMK AO2 SLP149 T00941006
0244722868931382020010811537+33822-116504FM-15+0137KPSP V0209999C000052200059N0160935N5+00895-00225101435ADDAA101000095GA1005+999999999GD10991+9999999GF100991999999999999999999KA1060M+01281KA2060N+00831MA1101425099795MD1890149+9999REMMET10901/08/20 03:53:02 METAR KPSP 081153Z 00000KT 10SM CLR 09/M02 A2995 RMK AO2 SLP143 T00891022 10128 20083 58014
0186722868931382020010812537+33822-116504FM-15+0137KPSP V0209999C000052200059N0160935N5+00725-00115101395ADDAA101000095GA1005+999999999GD10991+9999999GF100991999999999999999999MA1101395099755REMMET09101/08/20 04:53:02 METAR KPSP 081253Z 00000KT 10SM CLR 07/M01 A2994 RMK AO2 SLP139 T00721011
0191722868931382020010813537+33822-116504FM-15+0137KPSP V0200405N001552200059N0160935N5+00785-00115101375ADDAA101000095GA1005+999999999GD10991+9999999GF100991999999999999999999MA1101355099725REMMET09601/08/20 05:53:02 METAR KPSP 081353Z 04003KT 10SM CLR 08/M01 A2993 RMK AO2 SLP137 T00781011 (AG)
0211722868931382020010814537+33822-116504FM-15+0137KPSP V0202705N002152200059N0160935N5+00835-00225101375ADDAA101000095GA1005+999999999GD10991+9999999GF100991999999999999999999MA1101355099725MD1690079+9999REMMET10201/08/20 06:53:02 METAR KPSP 081453Z 27004KT 10SM CLR 08/M02 A2993 RMK AO2 SLP137 T00831022 56007 (AG)
0190722868931382020010815537+33822-116504FM-15+0137KPSP V0202005N001552200059N0160935N5+00835+00005101395ADDAA101000095GA1005+999999999GD10991+9999999GF100991999999999999999999MA1101395099755REMMET09501/08/20 07:53:02 METAR KPSP 081553Z 20003KT 10SM CLR 08/00 A2994 RMK AO2 SLP139 T00830000 (AG)
0191722868931382020010816537+33822-116504FM-15+0137KPSP V0209999C000052200059N0160935N5+01335-00175101415ADDAA101000095GA1005+999999999GD10991+9999999GF100991999999999999999999MA1101425099795REMMET09601/08/20 08:53:02 METAR KPSP 081653Z 00000KT 10SM CLR 13/M02 A2995 RMK AO2 SLP141 T01331017 (OL)
0249722868931382020010817537+33822-116504FM-15+0137KPSP V0209999V003152200059N0160935N5+01505-00225101455ADDAA101000095GA1005+999999999GD10991+9999999GF100991999999999999999999KA1060M+01501KA2060N+00611MA1101465099825MD1390099+9999REMMET11401/08/20 09:53:02 METAR KPSP 081753Z VRB06KT 10SM CLR 15/M02 A2996 RMK AO2 SLP145 T01501022 10150 20061 53009 (AG)
0191722868931382020010818537+33822-116504FM-15+0137KPSP V0201305N002652200059N0160935N5+01615-00065101465ADDAA101000095GA1005+999999999GD10991+9999999GF100991999999999999999999MA1101465099825REMMET09601/08/20 10:53:02 METAR KPSP 081853Z 13005KT 10SM CLR 16/M01 A2996 RMK AO2 SLP146 T01611006 (AG)
0191722868931382020010819537+33822-116504FM-15+0137KPSP V0201205N002652200059N0160935N5+01725-00065101365ADDAA101000095GA1005+999999999GD10991+9999999GF100991999999999999999999MA1101355099725REMMET09601/08/20 11:53:02 METAR KPSP 081953Z 12005KT 10SM CLR 17/M01 A2993 RMK AO2 SLP136 T01721006 (AT)
0173722868931382020010819557+33822-116504FM-16+0137KPSP V0201105N003152200059N0160935N5+01725-00065999999ADDGA1005+999999999GD10991+9999999GF100991999999999999999999MA1101355099725REMMET08901/08/20 11:55:02 SPECI KPSP 081955Z 11006KT 10SM CLR 17/M01 A2993 RMK AO2 T01721006 (AT)
0211722868931382020010820537+33822-116504FM-15+0137KPSP V0201205N003152200059N0160935N5+01895-00065101245ADDAA101000095GA1005+999999999GD10991+9999999GF100991999999999999999999MA1101255099625MD1890219+9999REMMET10201/08/20 12:53:02 METAR KPSP 082053Z 12006KT 10SM CLR 19/M01 A2990 RMK AO2 SLP124 T01891006 58021 (AG)
0191722868931382020010821537+33822-116504FM-15+0137KPSP V0201405N001552200059N0160935N5+01945-00175101185ADDAA101000095GA1005+999999999GD10991+9999999GF100991999999999999999999MA1101195099555REMMET09601/08/20 13:53:02 METAR KPSP 082153Z 14003KT 10SM CLR 19/M02 A2988 RMK AO2 SLP118 T01941017 (LO)
0191722868931382020010822537+33822-116504FM-15+0137KPSP V0201305N003152200059N0160935N5+02005-00115101175ADDAA101000095GA1005+999999999GD10991+9999999GF100991999999999999999999MA1101155099525REMMET09601/08/20 14:53:02 METAR KPSP 082253Z 13006KT 10SM CLR 20/M01 A2987 RMK AO2 SLP117 T02001011 (LO)
0249722868931382020010823537+33822-116504FM-15+0137KPSP V0209999C000052200059N0160935N5+02005-00115101145ADDAA101000095GA1005+999999999GD10991+9999999GF100991999999999999999999KA1060M+02061KA2060N+01501MA1101155099525MD1690099+9999REMMET11401/08/20 15:53:02 METAR KPSP 082353Z 00000KT 10SM CLR 20/M01 A2987 RMK AO2 SLP114 T02001011 10206 20150 56009 (LO)
0185722868931382020010900537+33822-116504FM-15+0137KPSP V0200705N002152200059N0160935N5+01785+00065101185ADDAA101000095GA1005+999999999GD10991+9999999GF100991999999999999999999MA1101195099555REMMET09001/08/20 16:53:01 METAR KPSP 090053Z 07004KT 10SM CLR 18/01 A2988 RMK AO2 SLP118 T01780006
0185722868931382020010901537+33822-116504FM-15+0137KPSP V0201605N002152200059N0160935N5+01675+00115101265ADDAA101000095GA1005+999999999GD10991+9999999GF100991999999999999999999MA1101255099625REMMET09001/08/20 17:53:01 METAR KPSP 090153Z 16004KT 10SM CLR 17/01 A2990 RMK AO2 SLP126 T01670011
0205722868931382020010902537+33822-116504FM-15+0137KPSP V0209999C000052200059N0160935N5+01565+00115101295ADDAA101000095GA1005+999999999GD10991+9999999GF100991999999999999999999MA1101295099655MD1290149+9999REMMET09601/08/20 18:53:01 METAR KPSP 090253Z 00000KT 10SM CLR 16/01 A2991 RMK AO2 SLP129 T01560011 52014
0185722868931382020010903537+33822-116504FM-15+0137KPSP V0209999N999992200059N0160935N5+01395+00115101335ADDAA101000095GA1005+999999999GD10991+9999999GF100991999999999999999999MA1101325099685REMMET09001/08/20 19:53:01 METAR KPSP 090353Z      KT 10SM CLR 14/01 A2992 RMK AO2 SLP133 T01390011
0185722868931382020010904537+33822-116504FM-15+0137KPSP V0202605N002152200059N0160935N5+01565+00395101315ADDAA101000095GA1005+999999999GD10991+9999999GF100991999999999999999999MA1101325099685REMMET09001/08/20 20:53:02 METAR KPSP 090453Z 26004KT 10SM CLR 16/04 A2992 RMK AO2 SLP131 T01560039
0243722868931382020010905537+33822-116504FM-15+0137KPSP V0202405N002152200059N0160935N5+01505+00005101345ADDAA101000095GA1005+999999999GD10991+9999999GF100991999999999999999999KA1060M+02001KA2060N+01391MA1101355099725MD1190069+9999REMMET10801/08/20 21:53:02 METAR KPSP 090553Z 24004KT 10SM CLR 15/00 A2993 RMK AO2 SLP134 T01500000 10200 20139 51006
0185722868931382020010906537+33822-116504FM-15+0137KPSP V0209999C000052200059N0160935N5+01335+00005101305ADDAA101000095GA1005+999999999GD10991+9999999GF100991999999999999999999MA1101325099685REMMET09001/08/20 22:53:02 METAR KPSP 090653Z 00000KT 10SM CLR 13/00 A2992 RMK AO2 SLP130 T01330000
0221722868931382020010907537+33822-116504FM-15+0137KPSP V0202305N002152200059N0160935N5+01175+00115101285ADDAA101000095GA1005+999999999GD10991+9999999GF100991999999999999999999KA1240M+02061KA2240N+00611MA1101295099655REMMET10001/08/20 23:53:02 METAR KPSP 090753Z 23004KT 10SM CLR 12/01 A2991 RMK AO2 SLP128 T01170011 402060061
0899722868931382020010907596+33822-116504SOD  +0137KPSP V020999999999999999999999999999+99999+99999999999ADDAA124000095AJ100009599999999AL12400095AN1024000095KA1240M+02065KA2240N+00615MG1099704101124OE11240058128099995OE22240040229099995OE33240015699999995REMSOD73924 HR PRECIPITATION (IN): 0.00 SNOW DEPTH (IN):0     24 HR SNOWFALL (IN):0.0  24 HR MAX TEMP (F): 6924 HR MIN TEMP (F): 43AVERAGE STATION PRESSURE:29.440 MINIMUM SEA LEVEL PRESSURE:29.86 TIME OF OCCURRENCE:1625 PEAK WIND SPEED (MPH): 13 PEAK WIND DIR (DEG):280 PEAK WIND TIME (LST):      FASTEST 2MIN SPEED (MPH):  9FASTEST 2MIN DIR (DEG):290 FASTEST 2MIN TIME (LST):     AVERAGE WIND SPEED (MPH): 3.5 24 HR AVG TEMP (F): 56DEPART FROM NORMAL: -1  HEATING DEGREE DAYS:  9 COOLING DEGREE DAYS:  0 LATEST DAY MAX TEMP (0700-1900 LST):69  LATEST NIGHT MIN TEMP(1900-0800 LST):43 HOURLY INCREMENTAL PRECIPITATION VALUES (IN):.00 0.00 0.00 0.00 0.00 0.00 0.00 0.00 0.00 0.00 0.00 0.00 0.00 0.00 0.00 0.00 0.00 0.00 0.00 0.00 0.00 0.00 0.00 0.00
0205722868931382020010908537+33822-116504FM-15+0137KPSP V0202405N001552200059N0160935N5+01065+00225101285ADDAA101000095GA1005+999999999GD10991+9999999GF100991999999999999999999MA1101295099655MD1690069+9999REMMET09601/09/20 00:53:02 METAR KPSP 090853Z 24003KT 10SM CLR 11/02 A2991 RMK AO2 SLP128 T01060022 56006
0185722868931382020010909537+33822-116504FM-15+0137KPSP V0203505N002652200059N0160935N5+01115+00175101295ADDAA101000095GA1005+999999999GD10991+9999999GF100991999999999999999999MA1101295099655REMMET09001/09/20 01:53:02 METAR KPSP 090953Z 35005KT 10SM CLR 11/02 A2991 RMK AO2 SLP129 T01110017
0185722868931382020010910537+33822-116504FM-15+0137KPSP V0209999C000052200059N0160935N5+01115+00175101235ADDAA101000095GA1005+999999999GD10991+9999999GF100991999999999999999999MA1101225099585REMMET09001/09/20 02:53:02 METAR KPSP 091053Z 00000KT 10SM CLR 11/02 A2989 RMK AO2 SLP123 T01110017
0243722868931382020010911537+33822-116504FM-15+0137KPSP V0209999C000052200059N0160935N5+00945+00175101195ADDAA101000095GA1005+999999999GD10991+9999999GF100991999999999999999999KA1060M+01501KA2060N+00891MA1101195099555MD1890089+9999REMMET10801/09/20 03:53:02 METAR KPSP 091153Z 00000KT 10SM CLR 09/02 A2988 RMK AO2 SLP119 T00940017 10150 20089 58008
0185722868931382020010912537+33822-116504FM-15+0137KPSP V0202105N002652200059N0160935N5+00835+00175101165ADDAA101000095GA1005+999999999GD10991+9999999GF100991999999999999999999MA1101155099525REMMET09001/09/20 04:53:02 METAR KPSP 091253Z 21005KT 10SM CLR 08/02 A2987 RMK AO2 SLP116 T00830017
0190722868931382020010913537+33822-116504FM-15+0137KPSP V0209999C000052200059N0160935N5+00895+00175101135ADDAA101000095GA1005+999999999GD10991+9999999GF100991999999999999999999MA1101125099485REMMET09501/09/20 05:53:02 METAR KPSP 091353Z 00000KT 10SM CLR 09/02 A2986 RMK AO2 SLP113 T00890017 (LJ)
0210722868931382020010914537+33822-116504FM-15+0137KPSP V0202305N002652200059N0160935N5+00785+00175101185ADDAA101000095GA1005+999999999GD10991+9999999GF100991999999999999999999MA1101195099555MD1590029+9999REMMET10101/09/20 06:53:02 METAR KPSP 091453Z 23005KT 10SM CLR 08/02 A2988 RMK AO2 SLP118 T00780017 55002 (LJ)
0190722868931382020010915537+33822-116504FM-15+0137KPSP V0209999C000052200059N0160935N5+01065+00285101245ADDAA101000095GA1005+999999999GD10991+9999999GF100991999999999999999999MA1101225099585REMMET09501/09/20 07:53:02 METAR KPSP 091553Z 00000KT 10SM CLR 11/03 A2989 RMK AO2 SLP124 T01060028 (LJ)
0190722868931382020010916537+33822-116504FM-15+0137KPSP V0201605N002152200059N0160935N5+01335+00285101255ADDAA101000095GA1005+999999999GD10991+9999999GF100991999999999999999999MA1101255099625REMMET09501/09/20 08:53:02 METAR KPSP 091653Z 16004KT 10SM CLR 13/03 A2990 RMK AO2 SLP125 T01330028 (LJ)
0248722868931382020010917537+33822-116504FM-15+0137KPSP V0202305N001552200059N0160935N5+01565+00335101225ADDAA101000095GA1005+999999999GD10991+9999999GF100991999999999999999999KA1060M+01611KA2060N+00721MA1101225099585MD1090059+9999REMMET11301/09/20 09:53:02 METAR KPSP 091753Z 23003KT 10SM CLR 16/03 A2989 RMK AO2 SLP122 T01560033 10161 20072 50005 (LJ)
0190722868931382020010918537+33822-116504FM-15+0137KPSP V0201405N002652200059N0160935N5+01785+00285101135ADDAA101000095GA1005+999999999GD10991+9999999GF100991999999999999999999MA1101155099525REMMET09501/09/20 10:53:02 METAR KPSP 091853Z 14005KT 10SM CLR 18/03 A2987 RMK AO2 SLP113 T01780028 (LJ)
0190722868931382020010919537+33822-116504FM-15+0137KPSP V0200805N003152200059N0160935N5+01895+00175100985ADDAA101000095GA1005+999999999GD10991+9999999GF100991999999999999999999MA1100985099355REMMET09501/09/20 11:53:02 METAR KPSP 091953Z 08006KT 10SM CLR 19/02 A2982 RMK AO2 SLP098 T01890017 (LJ)
0254722868931382020010920537+33822-116504FM-15+0137KPSP V0201005V005152200059N0160935N5+02005+00065100915ADDAA101000095GA1045+018295999GD12991+0182959GE19AGL   +99999+99999GF104995999999018291999999MA1100915099285MD1690309+9999REMMET10401/09/20 12:53:02 METAR KPSP 092053Z 10010KT 10SM SCT060 20/01 A2980 RMK AO2 SLP091 T02000006 56030 (LO)EQDD01      0ADE726
0233722868931382020010921537+33822-116504FM-15+0137KPSP V0203205N009352200059N0160935N5+02065+00115100855ADDAA101000095GA1005+999999999GD10991+9999999GF100991999999999999999999MA1100855099225OC101495OD149901491330REMMET11601/09/20 13:53:02 METAR KPSP 092153Z 32018G29KT 10SM CLR 21/01 A2978 RMK AO2 PK WND 33029/2148 SLP085 T02060011 (LO)
0233722868931382020010922537+33822-116504FM-15+0137KPSP V0202805N004652200059N0160935N5+01785+00335100955ADDAA101000095GA1005+999999999GD10991+9999999GF100991999999999999999999MA1100955099325OC101185OD149901591310REMMET11601/09/20 14:53:02 METAR KPSP 092253Z 28009G23KT 10SM CLR 18/03 A2981 RMK AO2 PK WND 31031/2206 SLP095 T01780033 (ZC)
0284722868931382020010923537+33822-116504FM-15+0137KPSP V0200205N00465030485MN0160935N5+01725+00335101055ADDAA101000095GA1075+030485999GD13991+0304859GE19MSL   +99999+99999GF199999999999030481999999KA1060M+02171KA2060N+01561MA1101055099425MD1390139+9999OC100775REMMET11901/09/20 15:53:02 METAR KPSP 092353Z 02009G15KT 10SM BKN100 17/03 A2984 RMK AO2 SLP105 T01720033 10217 20156 53013 (CM)
0185722868931382020011000537+33822-116504FM-15+0137KPSP V0203105N003652200059N0160935N5+01505+00505101125ADDAA101000095GA1005+999999999GD10991+9999999GF100991999999999999999999MA1101125099485REMMET09001/09/20 16:53:01 METAR KPSP 100053Z 31007KT 10SM CLR 15/05 A2986 RMK AO2 SLP112 T01500050
0185722868931382020011001537+33822-116504FM-15+0137KPSP V0201205N002152200059N0160935N5+01445+00445101245ADDAA101000095GA1005+999999999GD10991+9999999GF100991999999999999999999MA1101225099585REMMET09001/09/20 17:53:01 METAR KPSP 100153Z 12004KT 10SM CLR 14/04 A2989 RMK AO2 SLP124 T01440044
0205722868931382020011002537+33822-116504FM-15+0137KPSP V0202405N002152200059N0160935N5+01335+00505101335ADDAA101000095GA1005+999999999GD10991+9999999GF100991999999999999999999MA1101325099685MD1390279+9999REMMET09601/09/20 18:53:01 METAR KPSP 100253Z 24004KT 10SM CLR 13/05 A2992 RMK AO2 SLP133 T01330050 53027
0185722868931382020011003537+33822-116504FM-15+0137KPSP V0209999V002152200059N0160935N5+01335+00395101425ADDAA101000095GA1005+999999999GD10991+9999999GF100991999999999999999999MA1101425099795REMMET09001/09/20 19:53:01 METAR KPSP 100353Z VRB04KT 10SM CLR 13/04 A2995 RMK AO2 SLP142 T01330039
0185722868931382020011004537+33822-116504FM-15+0137KPSP V0202805N002152200059N0160935N5+01335+00225101505ADDAA101000095GA1005+999999999GD10991+9999999GF100991999999999999999999MA1101495099855REMMET09001/09/20 20:53:02 METAR KPSP 100453Z 28004KT 10SM CLR 13/02 A2997 RMK AO2 SLP150 T01330022
0243722868931382020011005537+33822-116504FM-15+0137KPSP V0200205N002652200059N0160935N5+01175+00395101585ADDAA101000095GA1005+999999999GD10991+9999999GF100991999999999999999999KA1060M+01721KA2060N+01111MA1101595099955MD1190259+9999REMMET10801/09/20 21:53:02 METAR KPSP 100553Z 02005KT 10SM CLR 12/04 A3000 RMK AO2 SLP158 T01170039 10172 20111 51025
0185722868931382020011006537+33822-116504FM-15+0137KPSP V0201205N001552200059N0160935N5+01005+00395101625ADDAA101000095GA1005+999999999GD10991+9999999GF100991999999999999999999MA1101635099995REMMET09001/09/20 22:53:02 METAR KPSP 100653Z 12003KT 10SM CLR 10/04 A3001 RMK AO2 SLP162 T01000039
0221722868931382020011007537+33822-116504FM-15+0137KPSP V0209999V001552200059N0160935N5+01005+00335101715ADDAA101000095GA1005+999999999GD10991+9999999GF100991999999999999999999KA1240M+02171KA2240N+00721MA1101695100055REMMET10001/09/20 23:53:02 METAR KPSP 100753Z VRB03KT 10SM CLR 10/03 A3003 RMK AO2 SLP171 T01000033 402170072
0899722868931382020011007596+33822-116504SOD  +0137KPSP V020999999999999999999999999999+99999+99999999999ADDAA124000095AJ100009599999999AL12400095AN1024000095KA1240M+02175KA2240N+00725MG1099614100814OE11240156531099995OE22240111833099995OE33240025099999995REMSOD73924 HR PRECIPITATION (IN): 0.00 SNOW DEPTH (IN):0     24 HR SNOWFALL (IN):0.0  24 HR MAX TEMP (F): 7124 HR MIN TEMP (F): 45AVERAGE STATION PRESSURE:29.415 MINIMUM SEA LEVEL PRESSURE:29.77 TIME OF OCCURRENCE:1359 PEAK WIND SPEED (MPH): 35 PEAK WIND DIR (DEG):310 PEAK WIND TIME (LST):      FASTEST 2MIN SPEED (MPH): 25FASTEST 2MIN DIR (DEG):330 FASTEST 2MIN TIME (LST):     AVERAGE WIND SPEED (MPH): 5.6 24 HR AVG TEMP (F): 58DEPART FROM NORMAL:  1  HEATING DEGREE DAYS:  7 COOLING DEGREE DAYS:  0 LATEST DAY MAX TEMP (0700-1900 LST):71  LATEST NIGHT MIN TEMP(1900-0800 LST):45 HOURLY INCREMENTAL PRECIPITATION VALUES (IN):.00 0.00 0.00 0.00 0.00 0.00 0.00 0.00 0.00 0.00 0.00 0.00 0.00 0.00 0.00 0.00 0.00 0.00 0.00 0.00 0.00 0.00 0.00 0.00
0205722868931382020011008537+33822-116504FM-15+0137KPSP V0203505N003652200059N0160935N5+01005+00225101785ADDAA101000095GA1005+999999999GD10991+9999999GF100991999999999999999999MA1101765100125MD1390209+9999REMMET09601/10/20 00:53:02 METAR KPSP 100853Z 35007KT 10SM CLR 10/02 A3005 RMK AO2 SLP178 T01000022 53020
0185722868931382020011009537+33822-116504FM-15+0137KPSP V0209999V002152200059N0160935N5+00835+00285101855ADDAA101000095GA1005+999999999GD10991+9999999GF100991999999999999999999MA1101865100225REMMET09001/10/20 01:53:02 METAR KPSP 100953Z VRB04KT 10SM CLR 08/03 A3008 RMK AO2 SLP185 T00830028
0185722868931382020011010537+33822-116504FM-15+0137KPSP V0201605N003652200059N0160935N5+00895+00225101925ADDAA101000095GA1005+999999999GD10991+9999999GF100991999999999999999999MA1101935100295REMMET09001/10/20 02:53:02 METAR KPSP 101053Z 16007KT 10SM CLR 09/02 A3010 RMK AO2 SLP192 T00890022
0243722868931382020011011537+33822-116504FM-15+0137KPSP V0203505N001552200059N0160935N5+00785+00225101945ADDAA101000095GA1005+999999999GD10991+9999999GF100991999999999999999999KA1060M+01281KA2060N+00781MA1101935100295MD1190159+9999REMMET10801/10/20 03:53:02 METAR KPSP 101153Z 35003KT 10SM CLR 08/02 A3010 RMK AO2 SLP194 T00780022 10128 20078 51015
0185722868931382020011012537+33822-116504FM-15+0137KPSP V0209999C000052200059N0160935N5+00725+00175102065ADDAA101000095GA1005+999999999GD10991+9999999GF100991999999999999999999MA1102075100425REMMET09001/10/20 04:53:02 METAR KPSP 101253Z 00000KT 10SM CLR 07/02 A3014 RMK AO2 SLP206 T00720017
0190722868931382020011013537+33822-116504FM-15+0137KPSP V0209999C000052200059N0160935N5+00615+00175102125ADDAA101000095GA1005+999999999GD10991+9999999GF100991999999999999999999MA1102105100455REMMET09501/10/20 05:53:02 METAR KPSP 101353Z 00000KT 10SM CLR 06/02 A3015 RMK AO2 SLP212 T00610017 (DD)
0210722868931382020011014537+33822-116504FM-15+0137KPSP V0203405N001552200059N0160935N5+00725+00175102195ADDAA101000095GA1005+999999999GD10991+9999999GF100991999999999999999999MA1102175100525MD1190259+9999REMMET10101/10/20 06:53:02 METAR KPSP 101453Z 34003KT 10SM CLR 07/02 A3017 RMK AO2 SLP219 T00720017 51025 (DD)
0190722868931382020011015537+33822-116504FM-15+0137KPSP V0209999C000052200059N0160935N5+00835+00225102295ADDAA101000095GA1005+999999999GD10991+9999999GF100991999999999999999999MA1102275100625REMMET09501/10/20 07:53:02 METAR KPSP 101553Z 00000KT 10SM CLR 08/02 A3020 RMK AO2 SLP229 T00830022 (ZP)
0191722868931382020011016537+33822-116504FM-15+0137KPSP V0209999C000052200059N0160935N5+01225-00065102385ADDAA101000095GA1005+999999999GD10991+9999999GF100991999999999999999999MA1102375100725REMMET09601/10/20 08:53:02 METAR KPSP 101653Z 00000KT 10SM CLR 12/M01 A3023 RMK AO2 SLP238 T01221006 (AG)
0248722868931382020011017537+33822-116504FM-15+0137KPSP V0202105N002152200059N0160935N5+01505+00225102435ADDAA101000095GA1005+999999999GD10991+9999999GF100991999999999999999999KA1060M+01501KA2060N+00501MA1102445100795MD1190249+9999REMMET11301/10/20 09:53:02 METAR KPSP 101753Z 21004KT 10SM CLR 15/02 A3025 RMK AO2 SLP243 T01500022 10150 20050 51024 (AG)
0191722868931382020011018537+33822-116504FM-15+0137KPSP V0209999C000052200059N0160935N5+01785-00115102445ADDAA101000095GA1005+999999999GD10991+9999999GF100991999999999999999999MA1102445100795REMMET09601/10/20 10:53:02 METAR KPSP 101853Z 00000KT 10SM CLR 18/M01 A3025 RMK AO2 SLP244 T01781011 (AG)
0191722868931382020011019537+33822-116504FM-15+0137KPSP V0209999C000052200059N0160935N5+01895-00285102345ADDAA101000095GA1005+999999999GD10991+9999999GF100991999999999999999999MA1102345100695REMMET09601/10/20 11:53:02 METAR KPSP 101953Z 00000KT 10SM CLR 19/M03 A3022 RMK AO2 SLP234 T01891028 (AG)
0211722868931382020011020537+33822-116504FM-15+0137KPSP V0209999V002152200059N0160935N5+02065-00675102285ADDAA101000095GA1005+999999999GD10991+9999999GF100991999999999999999999MA1102275100625MD1890149+9999REMMET10201/10/20 12:53:02 METAR KPSP 102053Z VRB04KT 10SM CLR 21/M07 A3020 RMK AO2 SLP228 T02061067 58014 (AG)
0191722868931382020011021537+33822-116504FM-15+0137KPSP V0209999C000052200059N0160935N5+02115-00675102245ADDAA101000095GA1005+999999999GD10991+9999999GF100991999999999999999999MA1102245100595REMMET09601/10/20 13:53:02 METAR KPSP 102153Z 00000KT 10SM CLR 21/M07 A3019 RMK AO2 SLP224 T02111067 (AG)
0191722868931382020011022537+33822-116504FM-15+0137KPSP V0202305N003152200059N0160935N5+02115-00725102225ADDAA101000095GA1005+999999999GD10991+9999999GF100991999999999999999999MA1102245100595REMMET09601/10/20 14:53:02 METAR KPSP 102253Z 23006KT 10SM CLR 21/M07 A3019 RMK AO2 SLP222 T02111072 (AG)
0249722868931382020011023537+33822-116504FM-15+0137KPSP V0202105N002652200059N0160935N5+02065-00675102235ADDAA101000095GA1005+999999999GD10991+9999999GF100991999999999999999999KA1060M+02111KA2060N+01441MA1102245100595MD1590069+9999REMMET11401/10/20 15:53:02 METAR KPSP 102353Z 21005KT 10SM CLR 21/M07 A3019 RMK AO2 SLP223 T02061067 10211 20144 55006 (ZC)
0186722868931382020011100537+33822-116504FM-15+0137KPSP V0202405N001552200059N0160935N5+01785-00445102275ADDAA101000095GA1005+999999999GD10991+9999999GF100991999999999999999999MA1102275100625REMMET09101/10/20 16:53:01 METAR KPSP 110053Z 24003KT 10SM CLR 18/M04 A3020 RMK AO2 SLP227 T01781044
0186722868931382020011101537+33822-116504FM-15+0137KPSP V0203005N002152200059N0160935N5+01675-00445102345ADDAA101000095GA1005+999999999GD10991+9999999GF100991999999999999999999MA1102345100695REMMET09101/10/20 17:53:01 METAR KPSP 110153Z 30004KT 10SM CLR 17/M04 A3022 RMK AO2 SLP234 T01671044
0206722868931382020011102537+33822-116504FM-15+0137KPSP V0209999C000052200059N0160935N5+01505-00445102365ADDAA101000095GA1005+999999999GD10991+9999999GF100991999999999999999999MA1102345100695MD1190139+9999REMMET09701/10/20 18:53:01 METAR KPSP 110253Z 00000KT 10SM CLR 15/M04 A3022 RMK AO2 SLP236 T01501044 51013
0186722868931382020011103537+33822-116504FM-15+0137KPSP V0203305N002152200059N0160935N5+01175-00225102385ADDAA101000095GA1005+999999999GD10991+9999999GF100991999999999999999999MA1102375100725REMMET09101/10/20 19:53:01 METAR KPSP 110353Z 33004KT 10SM CLR 12/M02 A3023 RMK AO2 SLP238 T01171022
0186722868931382020011104537+33822-116504FM-15+0137KPSP V0203205N003152200059N0160935N5+01175-00285102425ADDAA101000095GA1005+999999999GD10991+9999999GF100991999999999999999999MA1102405100755REMMET09101/10/20 20:53:02 METAR KPSP 110453Z 32006KT 10SM CLR 12/M03 A3024 RMK AO2 SLP242 T01171028
0244722868931382020011105537+33822-116504FM-15+0137KPSP V0203505N001552200059N0160935N5+00945-00225102475ADDAA101000095GA1005+999999999GD10991+9999999GF100991999999999999999999KA1060M+02001KA2060N+00891MA1102445100795MD1390109+9999REMMET10901/10/20 21:53:02 METAR KPSP 110553Z 35003KT 10SM CLR 09/M02 A3025 RMK AO2 SLP247 T00941022 10200 20089 53010
0186722868931382020011106537+33822-116504FM-15+0137KPSP V0203005N002152200059N0160935N5+01065-00225102425ADDAA101000095GA1005+999999999GD10991+9999999GF100991999999999999999999MA1102405100755REMMET09101/10/20 22:53:02 METAR KPSP 110653Z 30004KT 10SM CLR 11/M02 A3024 RMK AO2 SLP242 T01061022
0222722868931382020011107537+33822-116504FM-15+0137KPSP V0203405N005152200059N0160935N5+00945-00175102375ADDAA101000095GA1005+999999999GD10991+9999999GF100991999999999999999999KA1240M+02111KA2240N+00501MA1102375100725REMMET10101/10/20 23:53:02 METAR KPSP 110753Z 34010KT 10SM CLR 09/M02 A3023 RMK AO2 SLP237 T00941017 402110050
0899722868931382020011107596+33822-116504SOD  +0137KPSP V020999999999999999999999999999+99999+99999999999ADDAA124000095AJ100009599999999AL12400095AN1024000095KA1240M+02115KA2240N+00505MG1100594101694OE11240058134099995OE22240053633099995OE33240015699999995REMSOD73924 HR PRECIPITATION (IN): 0.00 SNOW DEPTH (IN):0     24 HR SNOWFALL (IN):0.0  24 HR MAX TEMP (F): 7024 HR MIN TEMP (F): 41AVERAGE STATION PRESSURE:29.705 MINIMUM SEA LEVEL PRESSURE:30.03 TIME OF OCCURRENCE:0017 PEAK WIND SPEED (MPH): 13 PEAK WIND DIR (DEG):340 PEAK WIND TIME (LST):      FASTEST 2MIN SPEED (MPH): 12FASTEST 2MIN DIR (DEG):330 FASTEST 2MIN TIME (LST):     AVERAGE WIND SPEED (MPH): 3.5 24 HR AVG TEMP (F): 56DEPART FROM NORMAL: -1  HEATING DEGREE DAYS:  9 COOLING DEGREE DAYS:  0 LATEST DAY MAX TEMP (0700-1900 LST):70  LATEST NIGHT MIN TEMP(1900-0800 LST):41 HOURLY INCREMENTAL PRECIPITATION VALUES (IN):.00 0.00 0.00 0.00 0.00 0.00 0.00 0.00 0.00 0.00 0.00 0.00 0.00 0.00 0.00 0.00 0.00 0.00 0.00 0.00 0.00 0.00 0.00 0.00
0206722868931382020011108537+33822-116504FM-15+0137KPSP V0203305N002652200059N0160935N5+00895-00225102345ADDAA101000095GA1005+999999999GD10991+9999999GF100991999999999999999999MA1102345100695MD1890129+9999REMMET09701/11/20 00:53:02 METAR KPSP 110853Z 33005KT 10SM CLR 09/M02 A3022 RMK AO2 SLP234 T00891022 58012
0186722868931382020011109537+33822-116504FM-15+0137KPSP V0203105N002652200059N0160935N5+00895-00285102315ADDAA101000095GA1005+999999999GD10991+9999999GF100991999999999999999999MA1102305100655REMMET09101/11/20 01:53:02 METAR KPSP 110953Z 31005KT 10SM CLR 09/M03 A3021 RMK AO2 SLP231 T00891028
0186722868931382020011110537+33822-116504FM-15+0137KPSP V0203405N003152200059N0160935N5+00785-00285102265ADDAA101000095GA1005+999999999GD10991+9999999GF100991999999999999999999MA1102275100625REMMET09101/11/20 02:53:02 METAR KPSP 111053Z 34006KT 10SM CLR 08/M03 A3020 RMK AO2 SLP226 T00781028
0244722868931382020011111537+33822-116504FM-15+0137KPSP V0203005N002152200059N0160935N5+00835-00335102175ADDAA101000095GA1005+999999999GD10991+9999999GF100991999999999999999999KA1060M+01061KA2060N+00781MA1102175100525MD1890179+9999REMMET10901/11/20 03:53:02 METAR KPSP 111153Z 30004KT 10SM CLR 08/M03 A3017 RMK AO2 SLP217 T00831033 10106 20078 58017
0186722868931382020011112537+33822-116504FM-15+0137KPSP V0209999C000052200059N0160935N5+00675-00285102155ADDAA101000095GA1005+999999999GD10991+9999999GF100991999999999999999999MA1102135100495REMMET09101/11/20 04:53:02 METAR KPSP 111253Z 00000KT 10SM CLR 07/M03 A3016 RMK AO2 SLP215 T00671028
0160722868931382020011113536+33822-116504FM-15+0137KPSP V0203305N002152200059N0160935N5+00675-00285102145ADDAA101000095GA1005+999999999GD10991+9999999MA1102135100495REMMET09101/11/20 05:53:02 METAR KPSP 111353Z 33004KT 10SM CLR 07/M03 A3016 RMK AO2 SLP214 T00671028
0211722868931382020011114537+33822-116504FM-15+0137KPSP V0203305N001552200059N0160935N5+00725-00335102115ADDAA101000095GA1005+999999999GD10991+9999999GF100991999999999999999999MA1102105100455MD1790069+9999REMMET10201/11/20 06:53:02 METAR KPSP 111453Z 33003KT 10SM CLR 07/M03 A3015 RMK AO2 SLP211 T00721033 57006 (ZP)
0165722868931382020011115536+33822-116504FM-15+0137KPSP V0209999C000052200059N0160935N5+00725-00065102125ADDAA101000095GA1005+999999999GD10991+9999999MA1102105100455REMMET09601/11/20 07:53:02 METAR KPSP 111553Z 00000KT 10SM CLR 07/M01 A3015 RMK AO2 SLP212 T00721006 (AG)
0191722868931382020011116537+33822-116504FM-15+0137KPSP V0209999C000052200059N0160935N5+01115-00225102145ADDAA101000095GA1005+999999999GD10991+9999999GF100991999999999999999999MA1102135100495REMMET09601/11/20 08:53:02 METAR KPSP 111653Z 00000KT 10SM CLR 11/M02 A3016 RMK AO2 SLP214 T01111022 (AG)
0249722868931382020011117537+33822-116504FM-15+0137KPSP V0201005N001552200059N0160935N5+01395-00395102125ADDAA101000095GA1005+999999999GD10991+9999999GF100991999999999999999999KA1060M+01391KA2060N+00561MA1102105100455MD1090019+9999REMMET11401/11/20 09:53:02 METAR KPSP 111753Z 10003KT 10SM CLR 14/M04 A3015 RMK AO2 SLP212 T01391039 10139 20056 50001 (AG)
0165722868931382020011118536+33822-116504FM-15+0137KPSP V0201205N003152200059N0160935N5+01505-00395101965ADDAA101000095GA1005+999999999GD10991+9999999MA1101965100325REMMET09601/11/20 10:53:02 METAR KPSP 111853Z 12006KT 10SM CLR 15/M04 A3011 RMK AO2 SLP196 T01501039 (ZP)
0173722868931382020011119167+33822-116504FM-16+0137KPSP V0201205N004152200059N0160935N5+01565-00395999999ADDGA1005+999999999GD10991+9999999GF100991999999999999999999MA1101865100225REMMET08901/11/20 11:16:02 SPECI KPSP 111916Z 12008KT 10SM CLR 16/M04 A3008 RMK AO2 T01561039 (ZP)
0191722868931382020011119537+33822-116504FM-15+0137KPSP V0201205N003652200059N0160935N5+01615-00445101795ADDAA101000095GA1005+999999999GD10991+9999999GF100991999999999999999999MA1101795100155REMMET09601/11/20 11:53:02 METAR KPSP 111953Z 12007KT 10SM CLR 16/M04 A3006 RMK AO2 SLP179 T01611044 (AG)
0211722868931382020011120537+33822-116504FM-15+0137KPSP V0201105N003652200059N0160935N5+01725-00445101645ADDAA101000095GA1005+999999999GD10991+9999999GF100991999999999999999999MA1101635099995MD1690479+9999REMMET10201/11/20 12:53:02 METAR KPSP 112053Z 11007KT 10SM CLR 17/M04 A3001 RMK AO2 SLP164 T01721044 56047 (AG)
0191722868931382020011121537+33822-116504FM-15+0137KPSP V0201105N004152200059N0160935N5+01785-00395101595ADDAA101000095GA1005+999999999GD10991+9999999GF100991999999999999999999MA1101595099955REMMET09601/11/20 13:53:02 METAR KPSP 112153Z 11008KT 10SM CLR 18/M04 A3000 RMK AO2 SLP159 T01781039 (CM)
0191722868931382020011122537+33822-116504FM-15+0137KPSP V0201405N003652200059N0160935N5+01725-00285101505ADDAA101000095GA1005+999999999GD10991+9999999GF100991999999999999999999MA1101495099855REMMET09601/11/20 14:53:02 METAR KPSP 112253Z 14007KT 10SM CLR 17/M03 A2997 RMK AO2 SLP150 T01721028 (ZP)
0249722868931382020011123537+33822-116504FM-15+0137KPSP V0201305N003152200059N0160935N5+01725-00285101505ADDAA101000095GA1005+999999999GD10991+9999999GF100991999999999999999999KA1060M+01781KA2060N+01331MA1101495099855MD1690159+9999REMMET11401/11/20 15:53:02 METAR KPSP 112353Z 13006KT 10SM CLR 17/M03 A2997 RMK AO2 SLP150 T01721028 10178 20133 56015 (ZP)
0186722868931382020011200537+33822-116504FM-15+0137KPSP V0201105N003152200059N0160935N5+01505-00285101475ADDAA101000095GA1005+999999999GD10991+9999999GF100991999999999999999999MA1101465099825REMMET09101/11/20 16:53:01 METAR KPSP 120053Z 11006KT 10SM CLR 15/M03 A2996 RMK AO2 SLP147 T01501028
0186722868931382020011201537+33822-116504FM-15+0137KPSP V0209999C000052200059N0160935N5+01335-00285101505ADDAA101000095GA1005+999999999GD10991+9999999GF100991999999999999999999MA1101495099855REMMET09101/11/20 17:53:01 METAR KPSP 120153Z 00000KT 10SM CLR 13/M03 A2997 RMK AO2 SLP150 T01331028
0206722868931382020011202537+33822-116504FM-15+0137KPSP V0209999C000052200059N0160935N5+01285-00285101535ADDAA101000095GA1005+999999999GD10991+9999999GF100991999999999999999999MA1101525099895MD1390039+9999REMMET09701/11/20 18:53:01 METAR KPSP 120253Z 00000KT 10SM CLR 13/M03 A2998 RMK AO2 SLP153 T01281028 53003
0186722868931382020011203537+33822-116504FM-15+0137KPSP V0209999C000052200059N0160935N5+01115-00115101615ADDAA101000095GA1005+999999999GD10991+9999999GF100991999999999999999999MA1101595099955REMMET09101/11/20 19:53:01 METAR KPSP 120353Z 00000KT 10SM CLR 11/M01 A3000 RMK AO2 SLP161 T01111011
0186722868931382020011204537+33822-116504FM-15+0137KPSP V0203205N002652200059N0160935N5+01065-00065101715ADDAA101000095GA1005+999999999GD10991+9999999GF100991999999999999999999MA1101695100055REMMET09101/11/20 20:53:02 METAR KPSP 120453Z 32005KT 10SM CLR 11/M01 A3003 RMK AO2 SLP171 T01061006
0244722868931382020011205537+33822-116504FM-15+0137KPSP V0202505N002152200059N0160935N5+01115-00065101755ADDAA101000095GA1005+999999999GD10991+9999999GF100991999999999999999999KA1060M+01721KA2060N+01001MA1101735100095MD1190229+9999REMMET10901/11/20 21:53:02 METAR KPSP 120553Z 25004KT 10SM CLR 11/M01 A3004 RMK AO2 SLP175 T01111006 10172 20100 51022
0186722868931382020011206537+33822-116504FM-15+0137KPSP V0202605N002152200059N0160935N5+01175-00065101775ADDAA101000095GA1005+999999999GD10991+9999999GF100991999999999999999999MA1101765100125REMMET09101/11/20 22:53:02 METAR KPSP 120653Z 26004KT 10SM CLR 12/M01 A3005 RMK AO2 SLP177 T01171006
0221722868931382020011207537+33822-116504FM-15+0137KPSP V0202605N002652200059N0160935N5+01065+00005101815ADDAA101000095GA1005+999999999GD10991+9999999GF100991999999999999999999KA1240M+01781KA2240N+00561MA1101795100155REMMET10001/11/20 23:53:02 METAR KPSP 120753Z 26005KT 10SM CLR 11/00 A3006 RMK AO2 SLP181 T01060000 401780056
0899722868931382020011207596+33822-116504SOD  +0137KPSP V020999999999999999999999999999+99999+99999999999ADDAA124000095AJ100009599999999AL12400095AN1024000095KA1240M+01785KA2240N+00565MG1100224101424OE11240071513099995OE22240058112099995OE33240020699999995REMSOD73924 HR PRECIPITATION (IN): 0.00 SNOW DEPTH (IN):0     24 HR SNOWFALL (IN):0.0  24 HR MAX TEMP (F): 6424 HR MIN TEMP (F): 42AVERAGE STATION PRESSURE:29.595 MINIMUM SEA LEVEL PRESSURE:29.95 TIME OF OCCURRENCE:1707 PEAK WIND SPEED (MPH): 16 PEAK WIND DIR (DEG):130 PEAK WIND TIME (LST):      FASTEST 2MIN SPEED (MPH): 13FASTEST 2MIN DIR (DEG):120 FASTEST 2MIN TIME (LST):     AVERAGE WIND SPEED (MPH): 4.6 24 HR AVG TEMP (F): 53DEPART FROM NORMAL: -4  HEATING DEGREE DAYS: 12 COOLING DEGREE DAYS:  0 LATEST DAY MAX TEMP (0700-1900 LST):64  LATEST NIGHT MIN TEMP(1900-0800 LST):42 HOURLY INCREMENTAL PRECIPITATION VALUES (IN):.00 0.00 0.00 0.00 0.00 0.00 0.00 0.00 0.00 0.00 0.00 0.00 0.00 0.00 0.00 0.00 0.00 0.00 0.00 0.00 0.00 0.00 0.00 0.00
0205722868931382020011208537+33822-116504FM-15+0137KPSP V0202205N001552200059N0160935N5+01005+00005101815ADDAA101000095GA1005+999999999GD10991+9999999GF100991999999999999999999MA1101795100155MD1190069+9999REMMET09601/12/20 00:53:02 METAR KPSP 120853Z 22003KT 10SM CLR 10/00 A3006 RMK AO2 SLP181 T01000000 51006
0185722868931382020011209537+33822-116504FM-15+0137KPSP V0203005N003152200059N0160935N5+01175+00445101855ADDAA101000095GA1005+999999999GD10991+9999999GF100991999999999999999999MA1101865100225REMMET09001/12/20 01:53:02 METAR KPSP 120953Z 30006KT 10SM CLR 12/04 A3008 RMK AO2 SLP185 T01170044
0185722868931382020011210537+33822-116504FM-15+0137KPSP V0203405N002152200059N0160935N5+00945+00285101825ADDAA101000095GA1005+999999999GD10991+9999999GF100991999999999999999999MA1101835100195REMMET09001/12/20 02:53:02 METAR KPSP 121053Z 34004KT 10SM CLR 09/03 A3007 RMK AO2 SLP182 T00940028
0243722868931382020011211537+33822-116504FM-15+0137KPSP V0203305N003152200059N0160935N5+00785+00225101825ADDAA101000095GA1005+999999999GD10991+9999999GF100991999999999999999999KA1060M+01221KA2060N+00781MA1101795100155MD1090009+9999REMMET10801/12/20 03:53:02 METAR KPSP 121153Z 33006KT 10SM CLR 08/02 A3006 RMK AO2 SLP182 T00780022 10122 20078 50000
0185722868931382020011212537+33822-116504FM-15+0137KPSP V0209999C000052200059N0160935N5+00615+00175101795ADDAA101000095GA1005+999999999GD10991+9999999GF100991999999999999999999MA1101795100155REMMET09001/12/20 04:53:02 METAR KPSP 121253Z 00000KT 10SM CLR 06/02 A3006 RMK AO2 SLP179 T00610017
0185722868931382020011213537+33822-116504FM-15+0137KPSP V0202805N001552200059N0160935N5+00675+00225101895ADDAA101000095GA1005+999999999GD10991+9999999GF100991999999999999999999MA1101865100225REMMET09001/12/20 05:53:02 METAR KPSP 121353Z 28003KT 10SM CLR 07/02 A3008 RMK AO2 SLP189 T00670022
