0211722868931382019010100537+33822-116504FM-15+0137KPSP V0203605N00365030485MN0160935N5+01335-00835101395ADDAA101000095GA1085+030485999GD14991+0304859GE19AGL   +99999+99999GF199999999999030481999999MA1101355099725REMMET09412/31/18 16:53:01 METAR KPSP 010053Z 36007KT 10SM OVC100 13/M08 A2993 RMK AO2 SLP139 T01331083
0230722868931382019010101537+33822-116504FM-15+0137KPSP V0203105N001552200059N0160935N5+01225-01005101455ADDAA101000095GA1025+033535999GD11991+0335359GE19AGL   +99999+99999GF102995999999033531999999MA1101465099825REMMET09412/31/18 17:53:01 METAR KPSP 010153Z 31003KT 10SM FEW110 12/M10 A2996 RMK AO2 SLP145 T01221100EQDD01      0ADE726
0231722868931382019010102537+33822-116504FM-15+0137KPSP V0209999V00155033535MN0160935N5+01005-00225101525ADDAA101000095GA1085+033535999GD14991+0335359GE19AGL   +99999+99999GF199999999999033531999999MA1101495099855MD1190259+9999REMMET10012/31/18 18:53:01 METAR KPSP 010253Z VRB03KT 10SM OVC110 10/M02 A2997 RMK AO2 SLP152 T01001022 51025
0235722868931382019010103537+33822-116504FM-15+0137KPSP V0209999V002152200059N0160935N5+00895-00285101565ADDAA101000095GA1025+036585999GD11991+0365859GE19AGL   +99999+99999GF102995999999036581999999MA1101565099925REMMET09912/31/18 19:53:03 METAR KPSP 010353Z VRB04KT 10SM FEW120 09/M03 A2999 RMK AO2 SLP156 T00891028 (ZC)EQDD01      0ADE726
0186722868931382019010104537+33822-116504FM-15+0137KPSP V0209999C000052200059N0160935N5+00835-00445101585ADDAA101000095GA1005+999999999GD10991+9999999GF100991999999999999999999MA1101565099925REMMET09112/31/18 20:53:02 METAR KPSP 010453Z 00000KT 10SM CLR 08/M04 A2999 RMK AO2 SLP158 T00831044
0244722868931382019010105537+33822-116504FM-15+0137KPSP V0203205N004152200059N0160935N5+01065-01115101645ADDAA101000095GA1005+999999999GD10991+9999999GF100991999999999999999999KA1060M+01391KA2060N+00671MA1101635099995MD1390139+9999REMMET10912/31/18 21:53:02 METAR KPSP 010553Z 32008KT 10SM CLR 11/M11 A3001 RMK AO2 SLP164 T01061111 10139 20067 53013
0186722868931382019010106537+33822-116504FM-15+0137KPSP V0203305N004152200059N0160935N5+01065-01335101735ADDAA101000095GA1005+999999999GD10991+9999999GF100991999999999999999999MA1101735100095REMMET09112/31/18 22:53:02 METAR KPSP 010653Z 33008KT 10SM CLR 11/M13 A3004 RMK AO2 SLP173 T01061133
0222722868931382019010107537+33822-116504FM-15+0137KPSP V0203205N004652200059N0160935N5+01065-01445101785ADDAA101000095GA1005+999999999GD10991+9999999GF100991999999999999999999KA1240M+01391KA2240N+00501MA1101765100125REMMET10112/31/18 23:53:02 METAR KPSP 010753Z 32009KT 10SM CLR 11/M14 A3005 RMK AO2 SLP178 T01061144 401390050
0863722868931382019010107596+33822-116504SOD  +0137KPSP V020999999999999999999999999999+99999+99999999999ADDAA124000395AJ100009599999999AT1AU16RA  5KA1240M+01395KA2240N+00505MG1099644100984OE11240111834099995OE22240093934099995OE33240023299999995REMSOD71324 HR PRECIPITATION (IN): 0.01 SNOW DEPTH (IN):0    24 HR MAX TEMP (F): 5724 HR MIN TEMP (F): 41AVERAGE STATION PRESSURE:29.425 MINIMUM SEA LEVEL PRESSURE:29.82 TIME OF OCCURRENCE:0525 PEAK WIND SPEED (MPH): 25 PEAK WIND DIR (DEG):340 PEAK WIND TIME (LST):      FASTEST 2MIN SPEED (MPH): 21FASTEST 2MIN DIR (DEG):340 FASTEST 2MIN TIME (LST):     AVERAGE WIND SPEED (MPH): 5.2 24 HR AVG TEMP (F): 49DEPART FROM NORMAL: -7  HEATING DEGREE DAYS: 16 COOLING DEGREE DAYS:  0 LATEST DAY MAX TEMP (0700-1900 LST):57  LATEST NIGHT MIN TEMP(1900-0800 LST):41 HOURLY INCREMENTAL PRECIPITATION VALUES (IN):.00 0.00 0.00 0.00 0.00 0.00 0.00 0.00 0.00 T    0.01 T    0.00 0.00 0.00 0.00 0.00 0.00 0.00 0.00 0.00 0.00 0.00 0.00
1177722868931382019010107596+33822-116504SOM  +0137KPSP V020999999999999999999999999999+99999+99999999999ADDAB10013596AD10011499999999999995AE1045015005005AH1005000590620225AH2010000890617095AH3015001090607435AH4020001090620285AH5030001590617305AH6045001890620285AI1060002090620285AI2080002590618115AI3100003090618335AI4120003390618595AI5150003690620285AI6180004190620285KB1744N+08785KB2744M+22565KB3744A+15675KC1N9+00503199995KC2M9+03881699996KD1744H01675KD2744C00295MH1100224101864MK1102912909185100642506185REMSOM728PCP MTOT:0.53 PCP GT 24HRS:0.45 DATE(S):6-7+ DAYS W/PCP >=.01:4  DAYS W/PCP >=.10:1  DAYS W/ PCP >=.50:0 DAYS W/PCP >=1.00:0 MSDP AMTS W/DATE-TIME TAGS:MIN:5 0.02  06/2022 MIN:10 0.03  06/1709 MIN:15 0.04  06/0743 MIN:20 0.04  06/2028 MIN:30 0.06  06/1730 MIN:45 0.07  06/2028 MIN:60 0.08  06/2028 MIN:80 0.10  06/1811 MIN:100 0.12  06/1833 MIN:120 0.13  06/1859 MIN:150 0.14  06/2028 MIN:180 0.16  06/2028 AVG DLY MIN:47.8  AVG DLY MAX:72.6  AVG MLY TMP:60.2  MIN TMP:41 DATE(S):31 MAX TMP:102 DATE(S):16 AVG STP:29.595 LWST SLP:29.72 DATE/TIME:250618 HGST SLP:30.39 DATE/TIME:290918 HDD MTH TOT:167 DEP NORM:-2553 SEASON(JUL 1-JUN 30):203 DEP NORM:-25536 CDD MTH TOT:29 DEP NORM:-2553 SEASON(JAN 1-DEC 31):5091 DEP NORM:-25536EQDR01  0.537ABP070R02 102167KCX019
0206722868931382019010108537+33822-116504FM-15+0137KPSP V0209999V002152200059N0160935N5+01065-01445101845ADDAA101000095GA1005+999999999GD10991+9999999GF100991999999999999999999MA1101835100195MD1190209+9999REMMET09701/01/19 00:53:02 METAR KPSP 010853Z VRB04KT 10SM CLR 11/M14 A3007 RMK AO2 SLP184 T01061144 51020
0186722868931382019010109537+33822-116504FM-15+0137KPSP V0202905N002152200059N0160935N5+01005-01395101915ADDAA101000095GA1005+999999999GD10991+9999999GF100991999999999999999999MA1101905100255REMMET09101/01/19 01:53:02 METAR KPSP 010953Z 29004KT 10SM CLR 10/M14 A3009 RMK AO2 SLP191 T01001139
0186722868931382019010110537+33822-116504FM-15+0137KPSP V0203205N002652200059N0160935N5+00895-01395101975ADDAA101000095GA1005+999999999GD10991+9999999GF100991999999999999999999MA1101965100325REMMET09101/01/19 02:53:02 METAR KPSP 011053Z 32005KT 10SM CLR 09/M14 A3011 RMK AO2 SLP197 T00891139
0261722868931382019010111537+33822-116504FM-15+0137KPSP V0203405N004152200059N0160935N5+00785-01395101985ADDAA101000095AA224000391GA1005+999999999GD10991+9999999GF100991999999999999999999KA1060M+01171KA2060N+00721MA1101965100325MD1190149+9999REMMET11501/01/19 03:53:02 METAR KPSP 011153Z 34008KT 10SM CLR 08/M14 A3011 RMK AO2 SLP198 70001 T00781139 10117 20072 51014
0186722868931382019010112537+33822-116504FM-15+0137KPSP V0203305N003652200059N0160935N5+00895-01445102075ADDAA101000095GA1005+999999999GD10991+9999999GF100991999999999999999999MA1102075100425REMMET09101/01/19 04:53:02 METAR KPSP 011253Z 33007KT 10SM CLR 09/M14 A3014 RMK AO2 SLP207 T00891144
0186722868931382019010113537+33822-116504FM-15+0137KPSP V0203205N002152200059N0160935N5+00835-01445102185ADDAA101000095GA1005+999999999GD10991+9999999GF100991999999999999999999MA1102175100525REMMET09101/01/19 05:53:02 METAR KPSP 011353Z 32004KT 10SM CLR 08/M14 A3017 RMK AO2 SLP218 T00831144
0206722868931382019010114537+33822-116504FM-15+0137KPSP V0209999V002652200059N0160935N5+00835-01445102315ADDAA101000095GA1005+999999999GD10991+9999999GF100991999999999999999999MA1102305100655MD1390329+9999REMMET09701/01/19 06:53:02 METAR KPSP 011453Z VRB05KT 10SM CLR 08/M14 A3021 RMK AO2 SLP231 T00831144 53032
0197722868931382019010115537+33822-116504FM-15+0137KPSP V0203205N005752200059N0160935N5+00945-01445102395ADDAA101000095GA1005+999999999GD10991+9999999GF100991999999999999999999MA1102375100725OC100725REMMET09401/01/19 07:53:02 METAR KPSP 011553Z 32011G14KT 10SM CLR 09/M14 A3023 RMK AO2 SLP239 T00941144
0186722868931382019010116537+33822-116504FM-15+0137KPSP V0200105N004152200059N0160935N5+01065-01395102515ADDAA101000095GA1005+999999999GD10991+9999999GF100991999999999999999999MA1102475100825REMMET09101/01/19 08:53:02 METAR KPSP 011653Z 01008KT 10SM CLR 11/M14 A3026 RMK AO2 SLP251 T01061139
0244722868931382019010117537+33822-116504FM-15+0137KPSP V0209999C000052200059N0160935N5+01175-01445102495ADDAA101000095GA1005+999999999GD10991+9999999GF100991999999999999999999KA1060M+01171KA2060N+00721MA1102475100825MD1090189+9999REMMET10901/01/19 09:53:02 METAR KPSP 011753Z 00000KT 10SM CLR 12/M14 A3026 RMK AO2 SLP249 T01171144 10117 20072 50018
0186722868931382019010118537+33822-116504FM-15+0137KPSP V0200105N006252200059N0160935N5+01285-01445102385ADDAA101000095GA1005+999999999GD10991+9999999GF100991999999999999999999MA1102375100725REMMET09101/01/19 10:53:02 METAR KPSP 011853Z 01012KT 10SM CLR 13/M14 A3023 RMK AO2 SLP238 T01281144
0186722868931382019010119537+33822-116504FM-15+0137KPSP V0200105N008252200059N0160935N5+01335-01505102255ADDAA101000095GA1005+999999999GD10991+9999999GF100991999999999999999999MA1102245100595REMMET09101/01/19 11:53:02 METAR KPSP 011953Z 01016KT 10SM CLR 13/M15 A3019 RMK AO2 SLP225 T01331150
0217722868931382019010120537+33822-116504FM-15+0137KPSP V0200305N006752200059N0160935N5+01335-01615102195ADDAA101000095GA1005+999999999GD10991+9999999GF100991999999999999999999MA1102175100525MD1690299+9999OC101085REMMET10001/01/19 12:53:02 METAR KPSP 012053Z 03013G21KT 10SM CLR 13/M16 A3017 RMK AO2 SLP219 T01331161 56029
0229722868931382019010121537+33822-116504FM-15+0137KPSP V0203505N006752200059N0160935N5+01335-01615102175ADDAA101000095GA1005+999999999GD10991+9999999GF100991999999999999999999MA1102175100525OC101135OD149901331030REMMET11201/01/19 13:53:02 METAR KPSP 012153Z 35013G22KT 10SM CLR 13/M16 A3017 RMK AO2 PK WND 03026/2140 SLP217 T01331161
0186722868931382019010122537+33822-116504FM-15+0137KPSP V0203605N006752200059N0160935N5+01395-01615102195ADDAA101000095GA1005+999999999GD10991+9999999GF100991999999999999999999MA1102175100525REMMET09101/01/19 14:53:02 METAR KPSP 012253Z 36013KT 10SM CLR 14/M16 A3017 RMK AO2 SLP219 T01391161
0255722868931382019010123537+33822-116504FM-15+0137KPSP V0203605N004652200059N0160935N5+01395-01615102235ADDAA101000095GA1005+999999999GD10991+9999999GF100991999999999999999999KA1060M+01441KA2060N+01171MA1102245100595MD1390049+9999OC100825REMMET11201/01/19 15:53:02 METAR KPSP 012353Z 36009G16KT 10SM CLR 14/M16 A3019 RMK AO2 SLP223 T01391161 10144 20117 53004
0186722868931382019010200537+33822-116504FM-15+0137KPSP V0200205N002652200059N0160935N5+01115-01615102225ADDAA101000095GA1005+999999999GD10991+9999999GF100991999999999999999999MA1102205100555REMMET09101/01/19 16:53:01 METAR KPSP 020053Z 02005KT 10SM CLR 11/M16 A3018 RMK AO2 SLP222 T01111161
0186722868931382019010201537+33822-116504FM-15+0137KPSP V0203205N002152200059N0160935N5+01065-01675102285ADDAA101000095GA1005+999999999GD10991+9999999GF100991999999999999999999MA1102275100625REMMET09101/01/19 17:53:01 METAR KPSP 020153Z 32004KT 10SM CLR 11/M17 A3020 RMK AO2 SLP228 T01061167
0206722868931382019010202537+33822-116504FM-15+0137KPSP V0209999C000052200059N0160935N5+00945-01445102285ADDAA101000095GA1005+999999999GD10991+9999999GF100991999999999999999999MA1102275100625MD1390049+9999REMMET09701/01/19 18:53:01 METAR KPSP 020253Z 00000KT 10SM CLR 09/M14 A3020 RMK AO2 SLP228 T00941144 53004
0186722868931382019010203537+33822-116504FM-15+0137KPSP V0209999C000052200059N0160935N5+00945-01615102265ADDAA101000095GA1005+999999999GD10991+9999999GF100991999999999999999999MA1102245100595REMMET09101/01/19 19:53:02 METAR KPSP 020353Z 00000KT 10SM CLR 09/M16 A3019 RMK AO2 SLP226 T00941161
0186722868931382019010204537+33822-116504FM-15+0137KPSP V0209999V001552200059N0160935N5+01115-01725102265ADDAA101000095GA1005+999999999GD10991+9999999GF100991999999999999999999MA1102245100595REMMET09101/01/19 20:53:02 METAR KPSP 020453Z VRB03KT 10SM CLR 11/M17 A3019 RMK AO2 SLP226 T01111172
0244722868931382019010205537+33822-116504FM-15+0137KPSP V0202905N004152200059N0160935N5+01065-01615102285ADDAA101000095GA1005+999999999GD10991+9999999GF100991999999999999999999KA1060M+01441KA2060N+00831MA1102275100625MD1390019+9999REMMET10901/01/19 21:53:02 METAR KPSP 020553Z 29008KT 10SM CLR 11/M16 A3020 RMK AO2 SLP228 T01061161 10144 20083 53001
0186722868931382019010206537+33822-116504FM-15+0137KPSP V0209999C000052200059N0160935N5+00945-01565102295ADDAA101000095GA1005+999999999GD10991+9999999GF100991999999999999999999MA1102275100625REMMET09101/01/19 22:53:02 METAR KPSP 020653Z 00000KT 10SM CLR 09/M16 A3020 RMK AO2 SLP229 T00941156
0222722868931382019010207537+33822-116504FM-15+0137KPSP V0209999V001552200059N0160935N5+00835-01395102285ADDAA101000095GA1005+999999999GD10991+9999999GF100991999999999999999999KA1240M+01441KA2240N+00721MA1102275100625REMMET10101/01/19 23:53:02 METAR KPSP 020753Z VRB03KT 10SM CLR 08/M14 A3020 RMK AO2 SLP228 T00831139 401440072
0903722868931382019010207596+33822-116504SOD  +0137KPSP V020999999999999999999999999999+99999+99999999999ADDAA124000095AJ100009599999999AL12400095AN1024000095KA1240M+01445KA2240N+00725MG1100564101764OE11240134103099995OE22240102836099995OE33240033199999995REMSOD74324 HR PRECIPITATION (IN): 0.00 SNOW DEPTH (IN):0     24 HR SNOWFALL (IN):0.0  24 HR MAX TEMP (F): 5824 HR MIN TEMP (F): 45AVERAGE STATION PRESSURE(D):29.694 MINIMUM SEA LEVEL PRESSURE:30.05 TIME OF OCCURRENCE:0008 PEAK WIND SPEED (MPH): 30 PEAK WIND DIR (DEG): 30 PEAK WIND TIME (LST):      FASTEST 2MIN SPEED (MPH): 23FASTEST 2MIN DIR (DEG):360 FASTEST 2MIN TIME (LST):     AVERAGE WIND SPEED (MPH): 7.4 24 HR AVG TEMP (F): 52DEPART FROM NORMAL: -4  HEATING DEGREE DAYS: 13 COOLING DEGREE DAYS:  0 LATEST DAY MAX TEMP (0700-1900 LST): 58 LATEST NIGHT MIN TEMP(1900-0800 LST):44 HOURLY INCREMENTAL PRECIPITATION VALUES (IN):0.00 0.00 0.00 0.00 0.00 0.00 0.00 0.00 0.00 0.00 0.00 0.00 0.00 0.00 0.00 0.00 0.00 0.00 0.00 0.00 0.00 0.00 0.00 0.00
0206722868931382019010208537+33822-116504FM-15+0137KPSP V0202205N002152200059N0160935N5+00725-01335102295ADDAA101000095GA1005+999999999GD10991+9999999GF100991999999999999999999MA1102275100625MD1390019+9999REMMET09701/02/19 00:53:02 METAR KPSP 020853Z 22004KT 10SM CLR 07/M13 A3020 RMK AO2 SLP229 T00721133 53001
0186722868931382019010209537+33822-116504FM-15+0137KPSP V0202205N003152200059N0160935N5+00725-01395102295ADDAA101000095GA1005+999999999GD10991+9999999GF100991999999999999999999MA1102275100625REMMET09101/02/19 01:53:02 METAR KPSP 020953Z 22006KT 10SM CLR 07/M14 A3020 RMK AO2 SLP229 T00721139
0186722868931382019010210537+33822-116504FM-15+0137KPSP V0202105N002152200059N0160935N5+00675-01395102285ADDAA101000095GA1005+999999999GD10991+9999999GF100991999999999999999999MA1102275100625REMMET09101/02/19 02:53:02 METAR KPSP 021053Z 21004KT 10SM CLR 07/M14 A3020 RMK AO2 SLP228 T00671139
0244722868931382019010211537+33822-116504FM-15+0137KPSP V0209999V001552200059N0160935N5+00565-01335102235ADDAA101000095GA1005+999999999GD10991+9999999GF100991999999999999999999KA1060M+01171KA2060N+00501MA1102245100595MD1890059+9999REMMET10901/02/19 03:53:02 METAR KPSP 021153Z VRB03KT 10SM CLR 06/M13 A3019 RMK AO2 SLP223 T00561133 10117 20050 58005
0186722868931382019010212537+33822-116504FM-15+0137KPSP V0202205N002652200059N0160935N5+00725-01505102235ADDAA101000095GA1005+999999999GD10991+9999999GF100991999999999999999999MA1102205100555REMMET09101/02/19 04:53:02 METAR KPSP 021253Z 22005KT 10SM CLR 07/M15 A3018 RMK AO2 SLP223 T00721150
0186722868931382019010213537+33822-116504FM-15+0137KPSP V0209999C000052200059N0160935N5+00895-01675102335ADDAA101000095GA1005+999999999GD10991+9999999GF100991999999999999999999MA1102305100655REMMET09101/02/19 05:53:02 METAR KPSP 021353Z 00000KT 10SM CLR 09/M17 A3021 RMK AO2 SLP233 T00891167
0206722868931382019010214537+33822-116504FM-15+0137KPSP V0209999C000052200059N0160935N5+00725-01505102465ADDAA101000095GA1005+999999999GD10991+9999999GF100991999999999999999999MA1102445100795MD1390229+9999REMMET09701/02/19 06:53:02 METAR KPSP 021453Z 00000KT 10SM CLR 07/M15 A3025 RMK AO2 SLP246 T00721150 53022
0186722868931382019010215537+33822-116504FM-15+0137KPSP V0201505N002152200059N0160935N5+00725-01335102575ADDAA101000095GA1005+999999999GD10991+9999999GF100991999999999999999999MA1102545100895REMMET09101/02/19 07:53:02 METAR KPSP 021553Z 15004KT 10SM CLR 07/M13 A3028 RMK AO2 SLP257 T00721133
0186722868931382019010216537+33822-116504FM-15+0137KPSP V0209999V002152200059N0160935N5+01115-01335102595ADDAA101000095GA1005+999999999GD10991+9999999GF100991999999999999999999MA1102575100925REMMET09101/02/19 08:53:02 METAR KPSP 021653Z VRB04KT 10SM CLR 11/M13 A3029 RMK AO2 SLP259 T01111133
0244722868931382019010217537+33822-116504FM-15+0137KPSP V0200805N001552200059N0160935N5+01395-01725102585ADDAA101000095GA1005+999999999GD10991+9999999GF100991999999999999999999KA1060M+01391KA2060N+00441MA1102575100925MD1090129+9999REMMET10901/02/19 09:53:02 METAR KPSP 021753Z 08003KT 10SM CLR 14/M17 A3029 RMK AO2 SLP258 T01391172 10139 20044 50012
0186722868931382019010218537+33822-116504FM-15+0137KPSP V0201805N001552200059N0160935N5+01445-01945102465ADDAA101000095GA1005+999999999GD10991+9999999GF100991999999999999999999MA1102445100795REMMET09101/02/19 10:53:02 METAR KPSP 021853Z 18003KT 10SM CLR 14/M19 A3025 RMK AO2 SLP246 T01441194
0186722868931382019010219537+33822-116504FM-15+0137KPSP V0209999C000052200059N0160935N5+01615-02065102375ADDAA101000095GA1005+999999999GD10991+9999999GF100991999999999999999999MA1102375100725REMMET09101/02/19 11:53:02 METAR KPSP 021953Z 00000KT 10SM CLR 16/M21 A3023 RMK AO2 SLP237 T01611206
0206722868931382019010220537+33822-116504FM-15+0137KPSP V0209999V001552200059N0160935N5+01675-02115102245ADDAA101000095GA1005+999999999GD10991+9999999GF100991999999999999999999MA1102245100595MD1890339+9999REMMET09701/02/19 12:53:02 METAR KPSP 022053Z VRB03KT 10SM CLR 17/M21 A3019 RMK AO2 SLP224 T01671211 58033
0186722868931382019010221537+33822-116504FM-15+0137KPSP V0209999C000052200059N0160935N5+01725-02175102225ADDAA101000095GA1005+999999999GD10991+9999999GF100991999999999999999999MA1102205100555REMMET09101/02/19 13:53:02 METAR KPSP 022153Z 00000KT 10SM CLR 17/M22 A3018 RMK AO2 SLP222 T01721217
0168722868931382019010222147+33822-116504FM-16+0137KPSP V0201105N002152200059N0160935N5+01725-02065999999ADDGA1005+999999999GD10991+9999999GF100991999999999999999999MA1102245100595REMMET08401/02/19 14:14:02 SPECI KPSP 022214Z 11004KT 10SM CLR 17/M21 A3019 RMK AO2 T01721206
0186722868931382019010222537+33822-116504FM-15+0137KPSP V0209999C000052200059N0160935N5+01725-02065102255ADDAA101000095GA1005+999999999GD10991+9999999GF100991999999999999999999MA1102245100595REMMET09101/02/19 14:53:02 METAR KPSP 022253Z 00000KT 10SM CLR 17/M21 A3019 RMK AO2 SLP225 T01721206
0244722868931382019010223537+33822-116504FM-15+0137KPSP V0209999V001552200059N0160935N5+01725-02005102285ADDAA101000095GA1005+999999999GD10991+9999999GF100991999999999999999999KA1060M+01781KA2060N+01331MA1102275100625MD1390049+9999REMMET10901/02/19 15:53:02 METAR KPSP 022353Z VRB03KT 10SM CLR 17/M20 A3020 RMK AO2 SLP228 T01721200 10178 20133 53004
0186722868931382019010300537+33822-116504FM-15+0137KPSP V0209999C000052200059N0160935N5+01335-01505102335ADDAA101000095GA1005+999999999GD10991+9999999GF100991999999999999999999MA1102305100655REMMET09101/02/19 16:53:01 METAR KPSP 030053Z 00000KT 10SM CLR 13/M15 A3021 RMK AO2 SLP233 T01331150
0186722868931382019010301537+33822-116504FM-15+0137KPSP V0202505N002652200059N0160935N5+01225-01335102415ADDAA101000095GA1005+999999999GD10991+9999999GF100991999999999999999999MA1102405100755REMMET09101/02/19 17:53:01 METAR KPSP 030153Z 25005KT 10SM CLR 12/M13 A3024 RMK AO2 SLP241 T01221133
0206722868931382019010302537+33822-116504FM-15+0137KPSP V0202805N002652200059N0160935N5+01225-01395102425ADDAA101000095GA1005+999999999GD10991+9999999GF100991999999999999999999MA1102405100755MD1190139+9999REMMET09701/02/19 18:53:02 METAR KPSP 030253Z 28005KT 10SM CLR 12/M14 A3024 RMK AO2 SLP242 T01221139 51013
0186722868931382019010303537+33822-116504FM-15+0137KPSP V0200105N002152200059N0160935N5+00945-01395102475ADDAA101000095GA1005+999999999GD10991+9999999GF100991999999999999999999MA1102445100795REMMET09101/02/19 19:53:02 METAR KPSP 030353Z 01004KT 10SM CLR 09/M14 A3025 RMK AO2 SLP247 T00941139
0186722868931382019010304537+33822-116504FM-15+0137KPSP V0203505N003652200059N0160935N5+00835-01395102535ADDAA101000095GA1005+999999999GD10991+9999999GF100991999999999999999999MA1102515100855REMMET09101/02/19 20:53:02 METAR KPSP 030453Z 35007KT 10SM CLR 08/M14 A3027 RMK AO2 SLP253 T00831139
0244722868931382019010305537+33822-116504FM-15+0137KPSP V0203305N002652200059N0160935N5+00675-01285102555ADDAA101000095GA1005+999999999GD10991+9999999GF100991999999999999999999KA1060M+01721KA2060N+00671MA1102545100895MD1190139+9999REMMET10901/02/19 21:53:02 METAR KPSP 030553Z 33005KT 10SM CLR 07/M13 A3028 RMK AO2 SLP255 T00671128 10172 20067 51013
0186722868931382019010306537+33822-116504FM-15+0137KPSP V0209999C000052200059N0160935N5+00615-01225102605ADDAA101000095GA1005+999999999GD10991+9999999GF100991999999999999999999MA1102575100925REMMET09101/02/19 22:53:02 METAR KPSP 030653Z 00000KT 10SM CLR 06/M12 A3029 RMK AO2 SLP260 T00611122
0222722868931382019010307537+33822-116504FM-15+0137KPSP V0203305N001552200059N0160935N5+00785-01285102625ADDAA101000095GA1005+999999999GD10991+9999999GF100991999999999999999999KA1240M+01781KA2240N+00441MA1102615100955REMMET10101/02/19 23:53:02 METAR KPSP 030753Z 33003KT 10SM CLR 08/M13 A3030 RMK AO2 SLP262 T00781128 401780044
0903722868931382019010307596+33822-116504SOD  +0137KPSP V020999999999999999999999999999+99999+99999999999ADDAA124000095AJ100009599999999AL12400095AN1024000095KA1240M+01785KA2240N+00445MG1100734102204OE11240084921099995OE22240071521099995OE33240014399999995REMSOD74324 HR PRECIPITATION (IN): 0.00 SNOW DEPTH (IN):0     24 HR SNOWFALL (IN):0.0  24 HR MAX TEMP (F): 6424 HR MIN TEMP (F): 40AVERAGE STATION PRESSURE(D):29.745 MINIMUM SEA LEVEL PRESSURE:30.18 TIME OF OCCURRENCE:0450 PEAK WIND SPEED (MPH): 19 PEAK WIND DIR (DEG):210 PEAK WIND TIME (LST):      FASTEST 2MIN SPEED (MPH): 16FASTEST 2MIN DIR (DEG):210 FASTEST 2MIN TIME (LST):     AVERAGE WIND SPEED (MPH): 3.2 24 HR AVG TEMP (F): 52DEPART FROM NORMAL: -4  HEATING DEGREE DAYS: 13 COOLING DEGREE DAYS:  0 LATEST DAY MAX TEMP (0700-1900 LST): 64 LATEST NIGHT MIN TEMP(1900-0800 LST):40 HOURLY INCREMENTAL PRECIPITATION VALUES (IN):0.00 0.00 0.00 0.00 0.00 0.00 0.00 0.00 0.00 0.00 0.00 0.00 0.00 0.00 0.00 0.00 0.00 0.00 0.00 0.00 0.00 0.00 0.00 0.00
0206722868931382019010308537+33822-116504FM-15+0137KPSP V0202805N001552200059N0160935N5+00565-01115102645ADDAA101000095GA1005+999999999GD10991+9999999GF100991999999999999999999MA1102615100955MD1190099+9999REMMET09701/03/19 00:53:02 METAR KPSP 030853Z 28003KT 10SM CLR 06/M11 A3030 RMK AO2 SLP264 T00561111 51009
0186722868931382019010309537+33822-116504FM-15+0137KPSP V0203405N002652200059N0160935N5+00445-01175102695ADDAA101000095GA1005+999999999GD10991+9999999GF100991999999999999999999MA1102685101025REMMET09101/03/19 01:53:02 METAR KPSP 030953Z 34005KT 10SM CLR 04/M12 A3032 RMK AO2 SLP269 T00441117
0186722868931382019010310537+33822-116504FM-15+0137KPSP V0202505N001552200059N0160935N5+00285-00785102655ADDAA101000095GA1005+999999999GD10991+9999999GF100991999999999999999999MA1102645100995REMMET09101/03/19 02:53:02 METAR KPSP 031053Z 25003KT 10SM CLR 03/M08 A3031 RMK AO2 SLP265 T00281078
0244722868931382019010311537+33822-116504FM-15+0137KPSP V0203005N002652200059N0160935N5+00395-01115102625ADDAA101000095GA1005+999999999GD10991+9999999GF100991999999999999999999KA1060M+00831KA2060N+00281MA1102615100955MD1890029+9999REMMET10901/03/19 03:53:02 METAR KPSP 031153Z 30005KT 10SM CLR 04/M11 A3030 RMK AO2 SLP262 T00391111 10083 20028 58002
0186722868931382019010312537+33822-116504FM-15+0137KPSP V0203005N001552200059N0160935N5+00285-00835102615ADDAA101000095GA1005+999999999GD10991+9999999GF100991999999999999999999MA1102575100925REMMET09101/03/19 04:53:02 METAR KPSP 031253Z 30003KT 10SM CLR 03/M08 A3029 RMK AO2 SLP261 T00281083
0186722868931382019010313537+33822-116504FM-15+0137KPSP V0203205N003652200059N0160935N5+00335-01175102645ADDAA101000095GA1005+999999999GD10991+9999999GF100991999999999999999999MA1102615100955REMMET09101/03/19 05:53:02 METAR KPSP 031353Z 32007KT 10SM CLR 03/M12 A3030 RMK AO2 SLP264 T00331117
0206722868931382019010314537+33822-116504FM-15+0137KPSP V0202405N001552200059N0160935N5+00225-00895102645ADDAA101000095GA1005+999999999GD10991+9999999GF100991999999999999999999MA1102615100955MD1390019+9999REMMET09701/03/19 06:53:02 METAR KPSP 031453Z 24003KT 10SM CLR 02/M09 A3030 RMK AO2 SLP264 T00221089 53001
0186722868931382019010315537+33822-116504FM-15+0137KPSP V0203205N002652200059N0160935N5+00505-01065102685ADDAA101000095GA1005+999999999GD10991+9999999GF100991999999999999999999MA1102645100995REMMET09101/03/19 07:53:02 METAR KPSP 031553Z 32005KT 10SM CLR 05/M11 A3031 RMK AO2 SLP268 T00501106
0186722868931382019010316537+33822-116504FM-15+0137KPSP V0209999C000052200059N0160935N5+01005-01175102735ADDAA101000095GA1005+999999999GD10991+9999999GF100991999999999999999999MA1102715101065REMMET09101/03/19 08:53:02 METAR KPSP 031653Z 00000KT 10SM CLR 10/M12 A3033 RMK AO2 SLP273 T01001117
0244722868931382019010317537+33822-116504FM-15+0137KPSP V0209999C000052200059N0160935N5+01225-01115102685ADDAA101000095GA1005+999999999GD10991+9999999GF100991999999999999999999KA1060M+01221KA2060N+00171MA1102645100995MD1090049+9999REMMET10901/03/19 09:53:02 METAR KPSP 031753Z 00000KT 10SM CLR 12/M11 A3031 RMK AO2 SLP268 T01221111 10122 20017 50004
0186722868931382019010318537+33822-116504FM-15+0137KPSP V0209999V002152200059N0160935N5+01445-01335102565ADDAA101000095GA1005+999999999GD10991+9999999GF100991999999999999999999MA1102545100895REMMET09101/03/19 10:53:02 METAR KPSP 031853Z VRB04KT 10SM CLR 14/M13 A3028 RMK AO2 SLP256 T01441133
0186722868931382019010319537+33822-116504FM-15+0137KPSP V0209999V002652200059N0160935N5+01505-01175102445ADDAA101000095GA1005+999999999GD10991+9999999GF100991999999999999999999MA1102445100795REMMET09101/03/19 11:53:02 METAR KPSP 031953Z VRB05KT 10SM CLR 15/M12 A3025 RMK AO2 SLP244 T01501117
0206722868931382019010320537+33822-116504FM-15+0137KPSP V0201105N002652200059N0160935N5+01615-01225102315ADDAA101000095GA1005+999999999GD10991+9999999GF100991999999999999999999MA1102305100655MD1890369+9999REMMET09701/03/19 12:53:02 METAR KPSP 032053Z 11005KT 10SM CLR 16/M12 A3021 RMK AO2 SLP231 T01611122 58036
0186722868931382019010321537+33822-116504FM-15+0137KPSP V0200805N001552200059N0160935N5+01615-01225102245ADDAA101000095GA1005+999999999GD10991+9999999GF100991999999999999999999MA1102245100595REMMET09101/03/19 13:53:02 METAR KPSP 032153Z 08003KT 10SM CLR 16/M12 A3019 RMK AO2 SLP224 T01611122
0186722868931382019010322537+33822-116504FM-15+0137KPSP V0209999V002152200059N0160935N5+01675-01225102215ADDAA101000095GA1005+999999999GD10991+9999999GF100991999999999999999999MA1102205100555REMMET09101/03/19 14:53:02 METAR KPSP 032253Z VRB04KT 10SM CLR 17/M12 A3018 RMK AO2 SLP221 T01671122
0244722868931382019010323537+33822-116504FM-15+0137KPSP V0209999V001552200059N0160935N5+01615-01115102175ADDAA101000095GA1005+999999999GD10991+9999999GF100991999999999999999999KA1060M+01671KA2060N+01221MA1102175100525MD1690139+9999REMMET10901/03/19 15:53:02 METAR KPSP 032353Z VRB03KT 10SM CLR 16/M11 A3017 RMK AO2 SLP217 T01611111 10167 20122 56013
0186722868931382019010400537+33822-116504FM-15+0137KPSP V0209999V001552200059N0160935N5+01335-01005102185ADDAA101000095GA1005+999999999GD10991+9999999GF100991999999999999999999MA1102175100525REMMET09101/03/19 16:53:01 METAR KPSP 040053Z VRB03KT 10SM CLR 13/M10 A3017 RMK AO2 SLP218 T01331100
0186722868931382019010401537+33822-116504FM-15+0137KPSP V0209999C000052200059N0160935N5+01225-00725102235ADDAA101000095GA1005+999999999GD10991+9999999GF100991999999999999999999MA1102205100555REMMET09101/03/19 17:53:01 METAR KPSP 040153Z 00000KT 10SM CLR 12/M07 A3018 RMK AO2 SLP223 T01221072
0206722868931382019010402537+33822-116504FM-15+0137KPSP V0203405N002652200059N0160935N5+01065-00835102285ADDAA101000095GA1005+999999999GD10991+9999999GF100991999999999999999999MA1102245100595MD1390099+9999REMMET09701/03/19 18:53:01 METAR KPSP 040253Z 34005KT 10SM CLR 11/M08 A3019 RMK AO2 SLP228 T01061083 53009
0186722868931382019010403537+33822-116504FM-15+0137KPSP V0203305N002652200059N0160935N5+00895-00895102325ADDAA101000095GA1005+999999999GD10991+9999999GF100991999999999999999999MA1102305100655REMMET09101/03/19 19:53:02 METAR KPSP 040353Z 33005KT 10SM CLR 09/M09 A3021 RMK AO2 SLP232 T00891089
0186722868931382019010404537+33822-116504FM-15+0137KPSP V0203305N002152200059N0160935N5+00785-00895102355ADDAA101000095GA1005+999999999GD10991+9999999GF100991999999999999999999MA1102345100695REMMET09101/03/19 20:53:02 METAR KPSP 040453Z 33004KT 10SM CLR 08/M09 A3022 RMK AO2 SLP235 T00781089
0244722868931382019010405537+33822-116504FM-15+0137KPSP V0203405N003152200059N0160935N5+00565-00835102335ADDAA101000095GA1005+999999999GD10991+9999999GF100991999999999999999999KA1060M+01611KA2060N+00561MA1102305100655MD1090069+9999REMMET10901/03/19 21:53:02 METAR KPSP 040553Z 34006KT 10SM CLR 06/M08 A3021 RMK AO2 SLP233 T00561083 10161 20056 50006
0186722868931382019010406537+33822-116504FM-15+0137KPSP V0203305N003152200059N0160935N5+00565-00895102245ADDAA101000095GA1005+999999999GD10991+9999999GF100991999999999999999999MA1102245100595REMMET09101/03/19 22:53:03 METAR KPSP 040653Z 33006KT 10SM CLR 06/M09 A3019 RMK AO2 SLP224 T00561089
0222722868931382019010407537+33822-116504FM-15+0137KPSP V0203205N003152200059N0160935N5+00505-00835102215ADDAA101000095GA1005+999999999GD10991+9999999GF100991999999999999999999KA1240M+01671KA2240N+00171MA1102205100555REMMET10101/03/19 23:53:03 METAR KPSP 040753Z 32006KT 10SM CLR 05/M08 A3018 RMK AO2 SLP221 T00501083 401670017
0903722868931382019010407596+33822-116504SOD  +0137KPSP V020999999999999999999999999999+99999+99999999999ADDAA124000095AJ100009599999999AL12400095AN1024000095KA1240M+01675KA2240N+00175MG1100774102174OE11240049212099995OE22240040212099995OE33240015699999995REMSOD74324 HR PRECIPITATION (IN): 0.00 SNOW DEPTH (IN):0     24 HR SNOWFALL (IN):0.0  24 HR MAX TEMP (F): 6224 HR MIN TEMP (F): 35AVERAGE STATION PRESSURE(D):29.759 MINIMUM SEA LEVEL PRESSURE:30.17 TIME OF OCCURRENCE:1702 PEAK WIND SPEED (MPH): 11 PEAK WIND DIR (DEG):120 PEAK WIND TIME (LST):      FASTEST 2MIN SPEED (MPH):  9FASTEST 2MIN DIR (DEG):120 FASTEST 2MIN TIME (LST):     AVERAGE WIND SPEED (MPH): 3.5 24 HR AVG TEMP (F): 49DEPART FROM NORMAL: -7  HEATING DEGREE DAYS: 16 COOLING DEGREE DAYS:  0 LATEST DAY MAX TEMP (0700-1900 LST): 62 LATEST NIGHT MIN TEMP(1900-0800 LST):35 HOURLY INCREMENTAL PRECIPITATION VALUES (IN):0.00 0.00 0.00 0.00 0.00 0.00 0.00 0.00 0.00 0.00 0.00 0.00 0.00 0.00 0.00 0.00 0.00 0.00 0.00 0.00 0.00 0.00 0.00 0.00
0206722868931382019010408537+33822-116504FM-15+0137KPSP V0203405N004152200059N0160935N5+00445-00835102185ADDAA101000095GA1005+999999999GD10991+9999999GF100991999999999999999999MA1102175100525MD1690149+9999REMMET09701/04/19 00:53:02 METAR KPSP 040853Z 34008KT 10SM CLR 04/M08 A3017 RMK AO2 SLP218 T00441083 56014
0186722868931382019010409537+33822-116504FM-15+0137KPSP V0209999C000052200059N0160935N5+00335-00725102175ADDAA101000095GA1005+999999999GD10991+9999999GF100991999999999999999999MA1102175100525REMMET09101/04/19 01:53:02 METAR KPSP 040953Z 00000KT 10SM CLR 03/M07 A3017 RMK AO2 SLP217 T00331072
0186722868931382019010410537+33822-116504FM-15+0137KPSP V0203205N002652200059N0160935N5+00335-00785102125ADDAA101000095GA1005+999999999GD10991+9999999GF100991999999999999999999MA1102105100455REMMET09101/04/19 02:53:02 METAR KPSP 041053Z 32005KT 10SM CLR 03/M08 A3015 RMK AO2 SLP212 T00331078
0244722868931382019010411537+33822-116504FM-15+0137KPSP V0203305N002652200059N0160935N5+00335-00785102075ADDAA101000095GA1005+999999999GD10991+9999999GF100991999999999999999999KA1060M+00611KA2060N+00221MA1102075100425MD1890109+9999REMMET10901/04/19 03:53:02 METAR KPSP 041153Z 33005KT 10SM CLR 03/M08 A3014 RMK AO2 SLP207 T00331078 10061 20022 58010
0186722868931382019010412537+33822-116504FM-15+0137KPSP V0203205N002152200059N0160935N5+00395-00835102025ADDAA101000095GA1005+999999999GD10991+9999999GF100991999999999999999999MA1102005100355REMMET09101/04/19 04:53:02 METAR KPSP 041253Z 32004KT 10SM CLR 04/M08 A3012 RMK AO2 SLP202 T00391083
0186722868931382019010413537+33822-116504FM-15+0137KPSP V0203405N002652200059N0160935N5+00395-00785102015ADDAA101000095GA1005+999999999GD10991+9999999GF100991999999999999999999MA1102005100355REMMET09101/04/19 05:53:02 METAR KPSP 041353Z 34005KT 10SM CLR 04/M08 A3012 RMK AO2 SLP201 T00391078
0206722868931382019010414537+33822-116504FM-15+0137KPSP V0203305N003652200059N0160935N5+00335-00835102075ADDAA101000095GA1005+999999999GD10991+9999999GF100991999999999999999999MA1102035100395MD1590019+9999REMMET09701/04/19 06:53:02 METAR KPSP 041453Z 33007KT 10SM CLR 03/M08 A3013 RMK AO2 SLP207 T00331083 55001
0186722868931382019010415537+33822-116504FM-15+0137KPSP V0209999C000052200059N0160935N5+00505-00675102155ADDAA101000095GA1005+999999999GD10991+9999999GF100991999999999999999999MA1102135100495REMMET09101/04/19 07:53:02 METAR KPSP 041553Z 00000KT 10SM CLR 05/M07 A3016 RMK AO2 SLP215 T00501067
0186722868931382019010416537+33822-116504FM-15+0137KPSP V0203405N001552200059N0160935N5+00945-00725102195ADDAA101000095GA1005+999999999GD10991+9999999GF100991999999999999999999MA1102175100525REMMET09101/04/19 08:53:02 METAR KPSP 041653Z 34003KT 10SM CLR 09/M07 A3017 RMK AO2 SLP219 T00941072
0244722868931382019010417537+33822-116504FM-15+0137KPSP V0209999C000052200059N0160935N5+01285-00785102145ADDAA101000095GA1005+999999999GD10991+9999999GF100991999999999999999999KA1060M+01331KA2060N+00281MA1102135100495MD1090079+9999REMMET10901/04/19 09:53:02 METAR KPSP 041753Z 00000KT 10SM CLR 13/M08 A3016 RMK AO2 SLP214 T01281078 10133 20028 50007
0186722868931382019010418537+33822-116504FM-15+0137KPSP V0209999V001552200059N0160935N5+01615-00945102075ADDAA101000095GA1005+999999999GD10991+9999999GF100991999999999999999999MA1102075100425REMMET09101/04/19 10:53:02 METAR KPSP 041853Z VRB03KT 10SM CLR 16/M09 A3014 RMK AO2 SLP207 T01611094
0186722868931382019010419537+33822-116504FM-15+0137KPSP V0201105N002652200059N0160935N5+01675-01005101945ADDAA101000095GA1005+999999999GD10991+9999999GF100991999999999999999999MA1101935100295REMMET09101/04/19 11:53:02 METAR KPSP 041953Z 11005KT 10SM CLR 17/M10 A3010 RMK AO2 SLP194 T01671100
0206722868931382019010420537+33822-116504FM-15+0137KPSP V0201005N001552200059N0160935N5+01785-00835101825ADDAA101000095GA1005+999999999GD10991+9999999GF100991999999999999999999MA1101795100155MD1890309+9999REMMET09701/04/19 12:53:02 METAR KPSP 042053Z 10003KT 10SM CLR 18/M08 A3006 RMK AO2 SLP182 T01781083 58030
0186722868931382019010421537+33822-116504FM-15+0137KPSP V0201305N002152200059N0160935N5+01835-00895101775ADDAA101000095GA1005+999999999GD10991+9999999GF100991999999999999999999MA1101765100125REMMET09101/04/19 13:53:02 METAR KPSP 042153Z 13004KT 10SM CLR 18/M09 A3005 RMK AO2 SLP177 T01831089
0186722868931382019010422537+33822-116504FM-15+0137KPSP V0209999V002652200059N0160935N5+01835-00895101745ADDAA101000095GA1005+999999999GD10991+9999999GF100991999999999999999999MA1101735100095REMMET09101/04/19 14:53:02 METAR KPSP 042253Z VRB05KT 10SM CLR 18/M09 A3004 RMK AO2 SLP174 T01831089
0244722868931382019010423537+33822-116504FM-15+0137KPSP V0209999V002152200059N0160935N5+01785-00785101735ADDAA101000095GA1005+999999999GD10991+9999999GF100991999999999999999999KA1060M+01831KA2060N+01331MA1101735100095MD1690099+9999REMMET10901/04/19 15:53:02 METAR KPSP 042353Z VRB04KT 10SM CLR 18/M08 A3004 RMK AO2 SLP173 T01781078 10183 20133 56009
0186722868931382019010500537+33822-116504FM-15+0137KPSP V0209999C000052200059N0160935N5+01565-00785101705ADDAA101000095GA1005+999999999GD10991+9999999GF100991999999999999999999MA1101695100055REMMET09101/04/19 16:53:01 METAR KPSP 050053Z 00000KT 10SM CLR 16/M08 A3003 RMK AO2 SLP170 T01561078
0186722868931382019010501537+33822-116504FM-15+0137KPSP V0202405N002152200059N0160935N5+01395-00505101735ADDAA101000095GA1005+999999999GD10991+9999999GF100991999999999999999999MA1101735100095REMMET09101/04/19 17:53:01 METAR KPSP 050153Z 24004KT 10SM CLR 14/M05 A3004 RMK AO2 SLP173 T01391050
0206722868931382019010502537+33822-116504FM-15+0137KPSP V0203405N003152200059N0160935N5+01115-00675101755ADDAA101000095GA1005+999999999GD10991+9999999GF100991999999999999999999MA1101735100095MD1390019+9999REMMET09701/04/19 18:53:02 METAR KPSP 050253Z 34006KT 10SM CLR 11/M07 A3004 RMK AO2 SLP175 T01111067 53001
0186722868931382019010503537+33822-116504FM-15+0137KPSP V0203305N002652200059N0160935N5+01005-00675101805ADDAA101000095GA1005+999999999GD10991+9999999GF100991999999999999999999MA1101795100155REMMET09101/04/19 19:53:02 METAR KPSP 050353Z 33005KT 10SM CLR 10/M07 A3006 RMK AO2 SLP180 T01001067
0186722868931382019010504537+33822-116504FM-15+0137KPSP V0202905N002152200059N0160935N5+01065-00725101805ADDAA101000095GA1005+999999999GD10991+9999999GF100991999999999999999999MA1101795100155REMMET09101/04/19 20:53:02 METAR KPSP 050453Z 29004KT 10SM CLR 11/M07 A3006 RMK AO2 SLP180 T01061072
0244722868931382019010505537+33822-116504FM-15+0137KPSP V0203305N002652200059N0160935N5+00945-00675101785ADDAA101000095GA1005+999999999GD10991+9999999GF100991999999999999999999KA1060M+01781KA2060N+00941MA1101765100125MD1090039+9999REMMET10901/04/19 21:53:02 METAR KPSP 050553Z 33005KT 10SM CLR 09/M07 A3005 RMK AO2 SLP178 T00941067 10178 20094 50003
0186722868931382019010506537+33822-116504FM-15+0137KPSP V0203005N001552200059N0160935N5+00895-00615101725ADDAA101000095GA1005+999999999GD10991+9999999GF100991999999999999999999MA1101735100095REMMET09101/04/19 22:53:02 METAR KPSP 050653Z 30003KT 10SM CLR 09/M06 A3004 RMK AO2 SLP172 T00891061
0222722868931382019010507537+33822-116504FM-15+0137KPSP V0203205N002652200059N0160935N5+00785-00615101705ADDAA101000095GA1005+999999999GD10991+9999999GF100991999999999999999999KA1240M+01831KA2240N+00221MA1101695100055REMMET10101/04/19 23:53:02 METAR KPSP 050753Z 32005KT 10SM CLR 08/M06 A3003 RMK AO2 SLP170 T00781061 401830022
0903722868931382019010507596+33822-116504SOD  +0137KPSP V020999999999999999999999999999+99999+99999999999ADDAA124000095AJ100009599999999AL12400095AN1024000095KA1240M+01835KA2240N+00225MG1100274101694OE11240049230099995OE22240040233099995OE33240017999999995REMSOD74324 HR PRECIPITATION (IN): 0.00 SNOW DEPTH (IN):0     24 HR SNOWFALL (IN):0.0  24 HR MAX TEMP (F): 6524 HR MIN TEMP (F): 36AVERAGE STATION PRESSURE(D):29.610 MINIMUM SEA LEVEL PRESSURE:30.03 TIME OF OCCURRENCE:2359 PEAK WIND SPEED (MPH): 11 PEAK WIND DIR (DEG):300 PEAK WIND TIME (LST):      FASTEST 2MIN SPEED (MPH):  9FASTEST 2MIN DIR (DEG):330 FASTEST 2MIN TIME (LST):     AVERAGE WIND SPEED (MPH): 4.0 24 HR AVG TEMP (F): 51DEPART FROM NORMAL: -5  HEATING DEGREE DAYS: 14 COOLING DEGREE DAYS:  0 LATEST DAY MAX TEMP (0700-1900 LST): 65 LATEST NIGHT MIN TEMP(1900-0800 LST):36 HOURLY INCREMENTAL PRECIPITATION VALUES (IN):0.00 0.00 0.00 0.00 0.00 0.00 0.00 0.00 0.00 0.00 0.00 0.00 0.00 0.00 0.00 0.00 0.00 0.00 0.00 0.00 0.00 0.00 0.00 0.00
0206722868931382019010508537+33822-116504FM-15+0137KPSP V0203405N003652200059N0160935N5+00725-00615101705ADDAA101000095GA1005+999999999GD10991+9999999GF100991999999999999999999MA1101695100055MD1690089+9999REMMET09701/05/19 00:53:02 METAR KPSP 050853Z 34007KT 10SM CLR 07/M06 A3003 RMK AO2 SLP170 T00721061 56008
0186722868931382019010509537+33822-116504FM-15+0137KPSP V0203205N002652200059N0160935N5+00835-00675101675ADDAA101000095GA1005+999999999GD10991+9999999GF100991999999999999999999MA1101665100025REMMET09101/05/19 01:53:02 METAR KPSP 050953Z 32005KT 10SM CLR 08/M07 A3002 RMK AO2 SLP167 T00831067
0186722868931382019010510537+33822-116504FM-15+0137KPSP V0203305N002652200059N0160935N5+00785-00615101595ADDAA101000095GA1005+999999999GD10991+9999999GF100991999999999999999999MA1101595099955REMMET09101/05/19 02:53:02 METAR KPSP 051053Z 33005KT 10SM CLR 08/M06 A3000 RMK AO2 SLP159 T00781061
0244722868931382019010511537+33822-116504FM-15+0137KPSP V0203405N002652200059N0160935N5+00835-00615101515ADDAA101000095GA1005+999999999GD10991+9999999GF100991999999999999999999KA1060M+00941KA2060N+00721MA1101525099895MD1890179+9999REMMET10901/05/19 03:53:02 METAR KPSP 051153Z 34005KT 10SM CLR 08/M06 A2998 RMK AO2 SLP151 T00831061 10094 20072 58017
0186722868931382019010512537+33822-116504FM-15+0137KPSP V0203405N003152200059N0160935N5+00835-00565101505ADDAA101000095GA1005+999999999GD10991+9999999GF100991999999999999999999MA1101495099855REMMET09101/05/19 04:53:02 METAR KPSP 051253Z 34006KT 10SM CLR 08/M06 A2997 RMK AO2 SLP150 T00831056
0186722868931382019010513537+33822-116504FM-15+0137KPSP V0209999C000052200059N0160935N5+00725-00335101535ADDAA101000095GA1005+999999999GD10991+9999999GF100991999999999999999999MA1101525099895REMMET09101/05/19 05:53:02 METAR KPSP 051353Z 00000KT 10SM CLR 07/M03 A2998 RMK AO2 SLP153 T00721033
0206722868931382019010514537+33822-116504FM-15+0137KPSP V0203205N002152200059N0160935N5+00835-00565101575ADDAA101000095GA1005+999999999GD10991+9999999GF100991999999999999999999MA1101565099925MD1390059+9999REMMET09701/05/19 06:53:02 METAR KPSP 051453Z 32004KT 10SM CLR 08/M06 A2999 RMK AO2 SLP157 T00831056 53005
0186722868931382019010515537+33822-116504FM-15+0137KPSP V0203305N001552200059N0160935N5+00945-00505101625ADDAA101000095GA1005+999999999GD10991+9999999GF100991999999999999999999MA1101595099955REMMET09101/05/19 07:53:02 METAR KPSP 051553Z 33003KT 10SM CLR 09/M05 A3000 RMK AO2 SLP162 T00941050
0186722868931382019010516537+33822-116504FM-15+0137KPSP V0209999C000052200059N0160935N5+01005-00395101715ADDAA101000095GA1005+999999999GD10991+9999999GF100991999999999999999999MA1101695100055REMMET09101/05/19 08:53:02 METAR KPSP 051653Z 00000KT 10SM CLR 10/M04 A3003 RMK AO2 SLP171 T01001039
0244722868931382019010517537+33822-116504FM-15+0137KPSP V0209999C000052200059N0160935N5+01225-00395101825ADDAA101000095GA1005+999999999GD10991+9999999GF100991999999999999999999KA1060M+01221KA2060N+00721MA1101835100195MD1390259+9999REMMET10901/05/19 09:53:02 METAR KPSP 051753Z 00000KT 10SM CLR 12/M04 A3007 RMK AO2 SLP182 T01221039 10122 20072 53025
0230722868931382019010518537+33822-116504FM-15+0137KPSP V0209999C000052200059N0160935N5+01335-00395101735ADDAA101000095GA1025+033535999GD11991+0335359GE19AGL   +99999+99999GF102995999999033531999999MA1101735100095REMMET09401/05/19 10:53:02 METAR KPSP 051853Z 00000KT 10SM FEW110 13/M04 A3004 RMK AO2 SLP173 T01331039EQDD01      0ADE726
0230722868931382019010519537+33822-116504FM-15+0137KPSP V0209999C000052200059N0160935N5+01445-00675101655ADDAA101000095GA1045+036585999GD12991+0365859GE19AGL   +99999+99999GF104995999999036581999999MA1101635099995REMMET09401/05/19 11:53:02 METAR KPSP 051953Z 00000KT 10SM SCT120 14/M07 A3001 RMK AO2 SLP165 T01441067EQDD01      0ADE726
0250722868931382019010520537+33822-116504FM-15+0137KPSP V0201105N002152200059N0160935N5+01445-00505101615ADDAA101000095GA1045+033535999GD12991+0335359GE19AGL   +99999+99999GF104995999999033531999999MA1101595099955MD1690219+9999REMMET10001/05/19 12:53:02 METAR KPSP 052053Z 11004KT 10SM SCT110 14/M05 A3000 RMK AO2 SLP161 T01441050 56021EQDD01      0ADE726
0230722868931382019010521537+33822-116504FM-15+0137KPSP V0200805N002652200059N0160935N5+01445-00615101575ADDAA101000095GA1045+033535999GD12991+0335359GE19AGL   +99999+99999GF104995999999033531999999MA1101565099925REMMET09401/05/19 13:53:02 METAR KPSP 052153Z 08005KT 10SM SCT110 14/M06 A2999 RMK AO2 SLP157 T01441061EQDD01      0ADE726
0211722868931382019010522537+33822-116504FM-15+0137KPSP V0209999C00005033535MN0160935N5+01445-00675101575ADDAA101000095GA1075+033535999GD13991+0335359GE19AGL   +99999+99999GF199999999999033531999999MA1101565099925REMMET09401/05/19 14:53:02 METAR KPSP 052253Z 00000KT 10SM BKN110 14/M07 A2999 RMK AO2 SLP157 T01441067
0307722868931382019010523537+33822-116504FM-15+0137KPSP V0201105N00265030485MN0160935N5+01395-00505101585ADDAA101000095GA1025+022865999GA2085+030485999GD11991+0228659GD24991+0304859GE19AGL   +99999+99999GF199999999999022861999999KA1060M+01501KA2060N+01221MA1101565099925MD1590039+9999REMMET11901/05/19 15:53:02 METAR KPSP 052353Z 11005KT 10SM FEW075 OVC100 14/M05 A2999 RMK AO2 SLP158 T01391050 10150 20122 55003
0211722868931382019010600537+33822-116504FM-15+0137KPSP V0201005N00265030485MN0160935N5+01285-00225101605ADDAA101000095GA1085+030485999GD14991+0304859GE19AGL   +99999+99999GF199999999999030481999999MA1101595099955REMMET09401/05/19 16:53:01 METAR KPSP 060053Z 10005KT 10SM OVC100 13/M02 A3000 RMK AO2 SLP160 T01281022
0249722868931382019010601537+33822-116504FM-15+0137KPSP V0209999V00215025915MN0160935N5+01225-00065101625ADDAA101000095GA1025+019815999GA2085+025915999GD11991+0198159GD24991+0259159GE19AGL   +99999+99999GF199999999999019811999999MA1101595099955REMMET10101/05/19 17:53:01 METAR KPSP 060153Z VRB04KT 10SM FEW065 OVC085 12/M01 A3000 RMK AO2 SLP162 T01221006
0230722868931382019010602537+33822-116504FM-15+0137KPSP V0209999V00155027435MN0160935N5+01115+00115101655ADDAA101000095GA1085+027435999GD14991+0274359GE19AGL   +99999+99999GF199999999999027431999999MA1101635099995MD1390079+9999REMMET09901/05/19 18:53:01 METAR KPSP 060253Z VRB03KT 10SM OVC090 11/01 A3001 RMK AO2 SLP165 T01110011 53007
0263722868931382019010603537+33822-116504FM-15+0137KPSP V0200905N00215024385MN0160935N5+01065+00335101685ADDAA101000025GA1045+015245999GA2085+024385999GD12991+0152459GD24991+0243859GE19AGL   +99999+99999GF199999999999015241999999MA1101665100025REMMET11501/05/19 19:53:02 METAR KPSP 060353Z 09004KT 10SM SCT050 OVC080 11/03 A3002 RMK AO2 RAB05E16 SLP168 P0000 T01060033
0210722868931382019010604537+33822-116504FM-15+0137KPSP V0200905N00315033535MN0160935N5+01005+00335101745ADDAA101000095GA1075+033535999GD13991+0335359GE19AGL   +99999+99999GF199999999999033531999999MA1101735100095REMMET09301/05/19 20:53:02 METAR KPSP 060453Z 09006KT 10SM BKN110 10/03 A3004 RMK AO2 SLP174 T01000033
0342722868931382019010605537+33822-116504FM-15+0137KPSP V0200805N001552200059N0160935N5+00895+00395101775ADDAA101000095AA206000021GA1045+021345999GA2045+028965999GD12991+0213459GD22991+0289659GE19AGL   +99999+99999GF104995999999021341999999KA1060M+01391KA2060N+00891MA1101765100125MD1390129+9999REMMET12401/05/19 21:53:02 METAR KPSP 060553Z 08003KT 10SM SCT070 SCT095 09/04 A3005 RMK AO2 SLP177 60000 T00890039 10139 20089 53012EQDD01      0ADE726
0301722868931382019010606537+33822-116504FM-15+0137KPSP V0200905N00155024385MN0160935N5+00895+00445101725ADDAA101000025GA1045+019815999GA2075+024385999GA3085+030485999GD12991+0198159GD23991+0243859GD34991+0304859GE19AGL   +99999+99999GF199999999999019811999999MA1101735100095REMMET12201/05/19 22:53:02 METAR KPSP 060653Z 09003KT 10SM SCT065 BKN080 OVC100 09/04 A3004 RMK AO2 RAB33E44 SLP172 P0000 T00890044
0322722868931382019010607537+33822-116504FM-15+0137KPSP V0200505N00155019815MN0144845N5+00835+00505101765ADDAA101000025AU110020015AW1615GA1075+019815999GA2085+030485999GD13991+0198159GD24991+0304859GE19AGL   +99999+99999GF199999999999019811999999KA1240M+01501KA2240N+00721MA1101765100125MW1615REMMET12501/05/19 23:53:02 METAR KPSP 060753Z 05003KT 9SM -RA BKN065 OVC100 08/05 A3005 RMK AO2 RAB40 SLP176 P0000 T00830050 401500072
0863722868931382019010607596+33822-116504SOD  +0137KPSP V020999999999999999999999999999+99999+99999999999ADDAA124000025AJ100009599999999AT1AU16RA  5KA1240M+01505KA2240N+00725MG1099994101494OE11240044710099995OE22240040233099995OE33240015699999995REMSOD71324 HR PRECIPITATION (IN):    T SNOW DEPTH (IN):0    24 HR MAX TEMP (F): 5924 HR MIN TEMP (F): 45AVERAGE STATION PRESSURE(D):29.529 MINIMUM SEA LEVEL PRESSURE:29.97 TIME OF OCCURRENCE:0542 PEAK WIND SPEED (MPH): 10 PEAK WIND DIR (DEG):100 PEAK WIND TIME (LST):      FASTEST 2MIN SPEED (MPH):  9FASTEST 2MIN DIR (DEG):330 FASTEST 2MIN TIME (LST):     AVERAGE WIND SPEED (MPH): 3.5 24 HR AVG TEMP (F): 52DEPART FROM NORMAL: -4  HEATING DEGREE DAYS: 13 COOLING DEGREE DAYS:  0 LATEST DAY MAX TEMP (0700-1900 LST): 59 LATEST NIGHT MIN TEMP(1900-0800 LST):45 HOURLY INCREMENTAL PRECIPITATION VALUES (IN):0.00 0.00 0.00 0.00 0.00 0.00 0.00 0.00 0.00 0.00 0.00 0.00 0.00 0.00 0.00 0.00 0.00 0.00 0.00T     0.00 0.00T    T
0273722868931382019010608037+33822-116504FM-16+0137KPSP V0209999C00005019815MN0128755N5+00835+00565999999ADDAA101000531AU110020015AW1615GA1025+003355999GA2085+019815999GD11991+0033559GD24991+0198159GE19AGL   +99999+99999GF199999999999003351999999MA1101765100125MW1615REMMET10201/06/19 00:03:02 SPECI KPSP 060803Z 00000KT 8SM -RA FEW011 OVC065 08/06 A3005 RMK AO2 P0002 T00830056
0356722868931382019010608537+33822-116504FM-15+0137KPSP V0209999C00005018295MN0096565N5+00785+00615101805ADDAA101002096AA203001892AU110020015AU200001015AW1105AW2615GA1025+015245999GA2085+018295999GD11991+0152459GD24991+0182959GE19AGL   +99999+99999GF199999999999015241999999MA1101795100155MD1390029+9999MW1615REMMET12401/06/19 00:53:02 METAR KPSP 060853Z 00000KT 6SM -RA BR FEW050 OVC060 08/06 A3006 RMK AO2 SLP180 P0007 60007 T00780061 53002EQDQ01  00178PRCP03
0331722868931382019010609017+33822-116504FM-16+0137KPSP V0209999C00005018295MN0096565N5+00835+00615999999ADDAA101000231AU110020015AU200001015AW1105AW2615GA1025+002445999GA2045+015245999GA3085+018295999GD11991+0024459GD22991+0152459GD34991+0182959GE19AGL   +99999+99999GF199999999999002441999999MA1101795100155MW1615REMMET11201/06/19 01:01:02 SPECI KPSP 060901Z 00000KT 6SM -RA BR FEW008 SCT050 OVC060 08/06 A3006 RMK AO2 P0001 T00830061
0262722868931382019010609537+33822-116504FM-15+0137KPSP V0201905N00265018295MN0064375N5+00785+00675101795ADDAA101001395AU110020015AU200001015AW1105AW2615GA1085+018295999GD14991+0182959GE19AGL   +99999+99999GF199999999999018291999999MA1101765100125MW1615REMMET10501/06/19 01:53:02 METAR KPSP 060953Z 19005KT 4SM -RA BR OVC060 08/07 A3005 RMK AO2 SLP179 P0005 T00780067
0272722868931382019010610327+33822-116504FM-16+0137KPSP V0203005N00155033535MN0096565N5+00785+00675999999ADDAA101000231AU100001015AW1105GA1025+007325999GA2075+033535999GD11991+0073259GD23991+0335359GE19AGL   +99999+99999GF199999999999007321999999MA1101735100095REMMET10701/06/19 02:32:02 SPECI KPSP 061032Z 30003KT 6SM BR FEW024 BKN110 08/07 A3004 RMK AO2 RAE19 P0001 T00780067
0279722868931382019010610537+33822-116504FM-15+0137KPSP V0209999C00005033535MN0080475N5+00785+00615101665ADDAA101000025AU100001015AW1105GA1025+007625999GA2075+033535999GD11991+0076259GD23991+0335359GE19AGL   +99999+99999GF199999999999007621999999MA1101665100025REMMET11401/06/19 02:53:02 METAR KPSP 061053Z 00000KT 5SM BR FEW025 BKN110 08/06 A3002 RMK AO2 RAE19 SLP166 P0001 T00780061
0315722868931382019010611537+33822-116504FM-15+0137KPSP V0209999C000052200059N0080475N5+00785+00615101665ADDAA101000095AA206003391AA324003391AU100001015AW1105GA1005+999999999GD10991+9999999GF100991999999999999999999KA1060M+00891KA2060N+00781MA1101665100025MD1590139+9999REMMET12201/06/19 03:53:02 METAR KPSP 061153Z 00000KT 5SM BR CLR 08/06 A3002 RMK AO2 SLP166 60013 70013 T00780061 10089 20078 55013EQDQ01  00338PRCP24
0229722868931382019010612537+33822-116504FM-15+0137KPSP V0209999C00005016765MN0080475N5+00725+00615101675ADDAA101000095AU100001015AW1105GA1085+016765999GD14991+0167659GE19AGL   +99999+99999GF199999999999016761999999MA1101665100025REMMET09501/06/19 04:53:02 METAR KPSP 061253Z 00000KT 5SM BR OVC055 07/06 A3002 RMK AO2 SLP167 T00720061
0268722868931382019010613537+33822-116504FM-15+0137KPSP V0209999V00215019815MN0064375N5+00725+00615101785ADDAA101000025AU110020015AU200001015AW1105AW2615GA1085+019815999GD14991+0198159GE19AGL   +99999+99999GF199999999999019811999999MA1101765100125MW1615REMMET11101/06/19 05:53:02 METAR KPSP 061353Z VRB04KT 4SM -RA BR OVC065 07/06 A3005 RMK AO2 RAB35 SLP178 P0000 T00720061
0356722868931382019010614537+33822-116504FM-15+0137KPSP V0209999C00005018295MN0080475N5+00785+00615101865ADDAA101001896AA203001592AU110020015AU200001015AW1105AW2615GA1025+015245999GA2085+018295999GD11991+0152459GD24991+0182959GE19AGL   +99999+99999GF199999999999015241999999MA1101835100195MD1390189+9999MW1615REMMET12401/06/19 06:53:02 METAR KPSP 061453Z 00000KT 5SM -RA BR FEW050 OVC060 08/06 A3007 RMK AO2 SLP186 P0006 60006 T00780061 53018EQDQ01  00158PRCP03
0272722868931382019010615317+33822-116504FM-16+0137KPSP V0200205N00265016765MN0032195N5+00785+00675999999ADDAA101000231AU100001015AW1105GA1075+016765999GA2075+022865999GD13991+0167659GD23991+0228659GE19AGL   +99999+99999GF199999999999016761999999MA1101865100225REMMET10701/06/19 07:31:02 SPECI KPSP 061531Z 02005KT 2SM BR BKN055 BKN075 08/07 A3008 RMK AO2 RAE12 P0001 T00780067
0175722868931382019010615516+33822-116504FM-16+0137KPSP V0203405N00265018295MN0048285N5+00805+00705999999ADDAU100001015AW1105GA1075+018295999GD13991+0182959MA1101905100255REMMET10001/06/19 07:51:02 SPECI KPSP 061551Z 34005KT 3SM BR BKN060 08/07 A3009 RMK AO2 RAE12 P0001 FIBI (ZP)
0241722868931382019010615537+33822-116504FM-15+0137KPSP V0203405N00265018295MN0048285N5+00835+00675101935ADDAA101000025AU100001015AW1105GA1075+018295999GD13991+0182959GE19AGL   +99999+99999GF199999999999018291999999MA1101905100255REMMET10701/06/19 07:53:02 METAR KPSP 061553Z 34005KT 3SM BR BKN060 08/07 A3009 RMK AO2 RAE12 SLP193 P0001 T00830067
0230722868931382019010616177+33822-116504FM-16+0137KPSP V0200105N004152200059N0080475N5+00895+00675999999ADDAU100001015AW1105GA1025+018295999GD11991+0182959GE19AGL   +99999+99999GF102995999999018291999999MA1101965100325REMMET08801/06/19 08:17:02 SPECI KPSP 061617Z 01008KT 5SM BR FEW060 09/07 A3011 RMK AO2 T00890067EQDD01      0ADE726
0184722868931382019010616537+33822-116504FM-15+0137KPSP V0209999C000052200059N0128755N5+01005+00675102045ADDAA101000095GA1005+999999999GD10991+9999999GF100991999999999999999999MA1102035100395REMMET08901/06/19 08:53:02 METAR KPSP 061653Z 00000KT 8SM CLR 10/07 A3013 RMK AO2 SLP204 T01000067
0144722868931382019010617516+33822-116504FM-16+0137KPSP V0209999C000052200059N0160935N5+01005+00605999999ADDGA1025+003965999GD11991+0039659MA1102105100455REMMET08601/06/19 09:51:02 SPECI KPSP 061751Z 00000KT 10SM FEW013 10/06 A3015 RMK AO2 FIBI (ZU)
0304722868931382019010617537+33822-116504FM-15+0137KPSP V0209999V001552200059N0160935N5+01005+00615102135ADDAA101000095AA206001891GA1025+003965999GD11991+0039659GE19AGL   +99999+99999GF102995999999003961999999KA1060M+01061KA2060N+00721MA1102105100455MD1390209+9999REMMET11701/06/19 09:53:02 METAR KPSP 061753Z VRB03KT 10SM FEW013 10/06 A3015 RMK AO2 SLP213 60007 T01000061 10106 20072 53020EQDD01      0ADE726
0210722868931382019010618057+33822-116504FM-16+0137KPSP V0201705N002152200059N0128755N5+01065+00675999999ADDGA1025+003965999GD11991+0039659GE19AGL   +99999+99999GF102995999999003961999999MA1102105100455REMMET08501/06/19 10:05:02 SPECI KPSP 061805Z 17004KT 8SM FEW013 11/07 A3015 RMK AO2 T01060067EQDD01      0ADE726
0228722868931382019010618537+33822-116504FM-15+0137KPSP V0201505N002152200059N0144845N5+01115+00615102055ADDAA101000095GA1045+024385999GD12991+0243859GE19AGL   +99999+99999GF104995999999024381999999MA1102035100395REMMET09201/06/19 10:53:02 METAR KPSP 061853Z 15004KT 9SM SCT080 11/06 A3013 RMK AO2 SLP205 T01110061EQDD01      0ADE726
0210722868931382019010619147+33822-116504FM-16+0137KPSP V0201505N002152200059N0144845N5+01175+00675999999ADDGA1025+004885999GD11991+0048859GE19AGL   +99999+99999GF102995999999004881999999MA1101965100325REMMET08501/06/19 11:14:02 SPECI KPSP 061914Z 15004KT 9SM FEW016 12/07 A3011 RMK AO2 T01170067EQDD01      0ADE726
0185722868931382019010619537+33822-116504FM-15+0137KPSP V0201305N003152200059N0160935N5+01175+00615101915ADDAA101000095GA1005+999999999GD10991+9999999GF100991999999999999999999MA1101905100255REMMET09001/06/19 11:53:02 METAR KPSP 061953Z 13006KT 10SM CLR 12/06 A3009 RMK AO2 SLP191 T01170061
0205722868931382019010620537+33822-116504FM-15+0137KPSP V0209999V002152200059N0160935N5+01285+00615101915ADDAA101000095GA1005+999999999GD10991+9999999GF100991999999999999999999MA1101905100255MD1690219+9999REMMET09601/06/19 12:53:02 METAR KPSP 062053Z VRB04KT 10SM CLR 13/06 A3009 RMK AO2 SLP191 T01280061 56021
0185722868931382019010621537+33822-116504FM-15+0137KPSP V0201005N002652200059N0160935N5+01395+00675101885ADDAA101000095GA1005+999999999GD10991+9999999GF100991999999999999999999MA1101865100225REMMET09001/06/19 13:53:02 METAR KPSP 062153Z 10005KT 10SM CLR 14/07 A3008 RMK AO2 SLP188 T01390067
0185722868931382019010622537+33822-116504FM-15+0137KPSP V0201205N002652200059N0160935N5+01395+00675101895ADDAA101000095GA1005+999999999GD10991+9999999GF100991999999999999999999MA1101905100255REMMET09001/06/19 14:53:02 METAR KPSP 062253Z 12005KT 10SM CLR 14/07 A3009 RMK AO2 SLP189 T01390067
0243722868931382019010623537+33822-116504FM-15+0137KPSP V0201005N003652200059N0160935N5+01395+00675101915ADDAA101000095GA1005+999999999GD10991+9999999GF100991999999999999999999KA1060M+01441KA2060N+01001MA1101905100255MD1590009+9999REMMET10801/06/19 15:53:02 METAR KPSP 062353Z 10007KT 10SM CLR 14/07 A3009 RMK AO2 SLP191 T01390067 10144 20100 55000
0185722868931382019010700537+33822-116504FM-15+0137KPSP V0201005N003152200059N0160935N5+01225+00675101945ADDAA101000095GA1005+999999999GD10991+9999999GF100991999999999999999999MA1101935100295REMMET09001/06/19 16:53:01 METAR KPSP 070053Z 10006KT 10SM CLR 12/07 A3010 RMK AO2 SLP194 T01220067
0185722868931382019010701537+33822-116504FM-15+0137KPSP V0201305N003152200059N0160935N5+01115+00725102035ADDAA101000095GA1005+999999999GD10991+9999999GF100991999999999999999999MA1102005100355REMMET09001/06/19 17:53:01 METAR KPSP 070153Z 13006KT 10SM CLR 11/07 A3012 RMK AO2 SLP203 T01110072
0204722868931382019010702537+33822-116504FM-15+0137KPSP V0200905N002652200059N0128755N5+01005+00725102125ADDAA101000095GA1005+999999999GD10991+9999999GF100991999999999999999999MA1102105100455MD1390209+9999REMMET09501/06/19 18:53:02 METAR KPSP 070253Z 09005KT 8SM CLR 10/07 A3015 RMK AO2 SLP212 T01000072 53020
0184722868931382019010703537+33822-116504FM-15+0137KPSP V0201305N002152200059N0128755N5+00895+00675102255ADDAA101000095GA1005+999999999GD10991+9999999GF100991999999999999999999MA1102245100595REMMET08901/06/19 19:53:02 METAR KPSP 070353Z 13004KT 8SM CLR 09/07 A3019 RMK AO2 SLP225 T00890067
0184722868931382019010704537+33822-116504FM-15+0137KPSP V0209999C000052200059N0112655N5+00895+00675102295ADDAA101000095GA1005+999999999GD10991+9999999GF100991999999999999999999MA1102275100625REMMET08901/06/19 20:53:02 METAR KPSP 070453Z 00000KT 7SM CLR 09/07 A3020 RMK AO2 SLP229 T00890067
0262722868931382019010705537+33822-116504FM-15+0137KPSP V0209999C000052200059N0080475N5+00835+00615102305ADDAA101000095AU100001015AW1105GA1005+999999999GD10991+9999999GF100991999999999999999999KA1060M+01391KA2060N+00781MA1102275100625MD1190189+9999REMMET11001/06/19 21:53:02 METAR KPSP 070553Z 00000KT 5SM BR CLR 08/06 A3020 RMK AO2 SLP230 T00830061 10139 20078 51018
0204722868931382019010706537+33822-116504FM-15+0137KPSP V0209999C000052200059N0080475N5+00785+00615102275ADDAA101000095AU100001015AW1105GA1005+999999999GD10991+9999999GF100991999999999999999999MA1102245100595REMMET09201/06/19 22:53:02 METAR KPSP 070653Z 00000KT 5SM BR CLR 08/06 A3019 RMK AO2 SLP227 T00780061
0240722868931382019010707537+33822-116504FM-15+0137KPSP V0201305N001552200059N0048285N5+00725+00565102255ADDAA101000095AU100001015AW1105GA1005+999999999GD10991+9999999GF100991999999999999999999KA1240M+01441KA2240N+00671MA1102245100595REMMET10201/06/19 23:53:02 METAR KPSP 070753Z 13003KT 3SM BR CLR 07/06 A3019 RMK AO2 SLP225 T00720056 401440067
0950722868931382019010707596+33822-116504SOD  +0137KPSP V020999999999999999999999999999+99999+99999999999ADDAA124005195AJ100009599999999AT1AU16RA  5AT2AU13BR  5AX1016246AX2086246KA1240M+01445KA2240N+00675MG1100304101634OE11240071511099995OE22240040211099995OE33240014899999995REMSOD73524 HR PRECIPITATION (IN): 0.20 SNOW DEPTH (IN):0    WEATHER(CODE):18  24 HR MAX TEMP (F): 5824 HR MIN TEMP (F): 44AVERAGE STATION PRESSURE(D):29.618 MINIMUM SEA LEVEL PRESSURE:30.01 TIME OF OCCURRENCE:0415 PEAK WIND SPEED (MPH): 16 PEAK WIND DIR (DEG):110 PEAK WIND TIME (LST):      FASTEST 2MIN SPEED (MPH):  9FASTEST 2MIN DIR (DEG):110 FASTEST 2MIN TIME (LST):     AVERAGE WIND SPEED (MPH): 3.3 24 HR AVG TEMP (F): 51DEPART FROM NORMAL: -6  HEATING DEGREE DAYS: 14 COOLING DEGREE DAYS:  0 LATEST DAY MAX TEMP (0700-1900 LST): 58 LATEST NIGHT MIN TEMP(1900-0800 LST):45 HOURLY INCREMENTAL PRECIPITATION VALUES (IN):0.08 0.05T     0.00 0.00T     0.07T     0.00 0.00 0.00 0.00 0.00 0.00 0.00 0.00 0.00 0.00 0.00 0.00 0.00 0.00 0.00 0.00EQDR01    187AXW093R02    187AXW093
0224722868931382019010708537+33822-116504FM-15+0137KPSP V0209999C000052200059N0064375N5+00675+00505102275ADDAA101000095AU100001015AW1105GA1005+999999999GD10991+9999999GF100991999999999999999999MA1102275100625MD1590019+9999REMMET09801/07/19 00:53:02 METAR KPSP 070853Z 00000KT 4SM BR CLR 07/05 A3020 RMK AO2 SLP227 T00670050 55001
0248722868931382019010709537+33822-116504FM-15+0137KPSP V0209999V001552200059N0048285N5+00675+00505102285ADDAA101000095AU100001015AW1105GA1025+024385999GD11991+0243859GE19AGL   +99999+99999GF102995999999024381999999MA1102275100625REMMET09501/07/19 01:53:02 METAR KPSP 070953Z VRB03KT 3SM BR FEW080 07/05 A3020 RMK AO2 SLP228 T00670050EQDD01      0ADE726
0190722868931382019010710247+33822-116504FM-16+0137KPSP V0202205N002152200059N0040235N5+00675+00505999999ADDAU100001015AW1105GA1005+999999999GD10991+9999999GF100991999999999999999999MA1102305100655REMMET08901/07/19 02:24:02 SPECI KPSP 071024Z 22004KT 2 1/2SM BR CLR 07/05 A3021 RMK AO2 T00670050
0186722868931382019010710317+33822-116504FM-16+0137KPSP V0202205N002652200059N0048285N5+00615+00505999999ADDAU100001015AW1105GA1005+999999999GD10991+9999999GF100991999999999999999999MA1102345100695REMMET08501/07/19 02:31:02 SPECI KPSP 071031Z 22005KT 3SM BR CLR 06/05 A3022 RMK AO2 T00610050
0248722868931382019010710537+33822-116504FM-15+0137KPSP V0201405N001552200059N0048285N5+00675+00565102345ADDAA101000095AU100001015AW1105GA1025+021345999GD11991+0213459GE19AGL   +99999+99999GF102995999999021341999999MA1102345100695REMMET09501/07/19 02:53:02 METAR KPSP 071053Z 14003KT 3SM BR FEW070 07/06 A3022 RMK AO2 SLP234 T00670056EQDD01      0ADE726
0323722868931382019010711537+33822-116504FM-15+0137KPSP V0202305N002152200059N0048285N5+00675+00565102355ADDAA101000095AA224001891AU100001015AW1105GA1045+019815999GD12991+0198159GE19AGL   +99999+99999GF104995999999019811999999KA1060M+00831KA2060N+00611MA1102345100695MD1290079+9999REMMET11901/07/19 03:53:02 METAR KPSP 071153Z 23004KT 3SM BR SCT065 07/06 A3022 RMK AO2 SLP235 70007 T00670056 10083 20061 52007EQDD01      0ADE726
0159722868931382019010712516+33822-116504FM-16+0137KPSP V0202505N001552200059N0040235N5+00705+00505999999ADDAU100001015AW1105GA1005+999999999GD10991+9999999MA1102345100695REMMET08401/07/19 04:51:02 SPECI KPSP 071251Z 25003KT 2 1/2SM BR CLR 07/05 A3022 RMK AO2 FIBI
0204722868931382019010712537+33822-116504FM-15+0137KPSP V0202505N001552200059N0048285N5+00675+00505102355ADDAA101000095AU100001015AW1105GA1005+999999999GD10991+9999999GF100991999999999999999999MA1102345100695REMMET09201/07/19 04:53:02 METAR KPSP 071253Z 25003KT 3SM BR CLR 07/05 A3022 RMK AO2 SLP235 T00670050
0209722868931382019010713537+33822-116504FM-15+0137KPSP V0202405N001552200059N0064375N5+00725+00615102375ADDAA101000095AU100001015AW1105GA1005+999999999GD10991+9999999GF100991999999999999999999MA1102345100695REMMET09701/07/19 05:53:02 METAR KPSP 071353Z 24003KT 4SM BR CLR 07/06 A3022 RMK AO2 SLP237 T00720061 (ZP)
0195722868931382019010714107+33822-116504FM-16+0137KPSP V0202105N002652200059N0040235N5+00565+00445999999ADDAU100001015AW1105GA1005+999999999GD10991+9999999GF100991999999999999999999MA1102345100695REMMET09401/07/19 06:10:02 SPECI KPSP 071410Z 21005KT 2 1/2SM BR CLR 06/04 A3022 RMK AO2 T00560044 (ZP)
0191722868931382019010714277+33822-116504FM-16+0137KPSP V0202805N001552200059N0064375N5+00725+00565999999ADDAU100001015AW1105GA1005+999999999GD10991+9999999GF100991999999999999999999MA1102345100695REMMET09001/07/19 06:27:02 SPECI KPSP 071427Z 28003KT 4SM BR CLR 07/06 A3022 RMK AO2 T00720056 (ZP)
0229722868931382019010714537+33822-116504FM-15+0137KPSP V0209999C000052200059N0048285N5+00675+00505102395ADDAA101000095AU100001015AW1105GA1005+999999999GD10991+9999999GF100991999999999999999999MA1102375100725MD1390039+9999REMMET10301/07/19 06:53:02 METAR KPSP 071453Z 00000KT 3SM BR CLR 07/05 A3023 RMK AO2 SLP239 T00670050 53003 (ZP)
0209722868931382019010715537+33822-116504FM-15+0137KPSP V0209999C000052200059N0048285N5+00725+00565102455ADDAA101000095AU100001015AW1105GA1005+999999999GD10991+9999999GF100991999999999999999999MA1102445100795REMMET09701/07/19 07:53:02 METAR KPSP 071553Z 00000KT 3SM BR CLR 07/06 A3025 RMK AO2 SLP245 T00720056 (ZP)
0215722868931382019010716537+33822-116504FM-15+0137KPSP V0203505N001552200059N0080475N5+01005+00675102545ADDAA101000095AU100007015AW1051GA1005+999999999GD10991+9999999GF100991999999999999999999MA1102515100855MW1055REMMET09701/07/19 08:53:02 METAR KPSP 071653Z 35003KT 5SM HZ CLR 10/07 A3027 RMK AO2 SLP254 T01000067 (ZP)
0273722868931382019010717537+33822-116504FM-15+0137KPSP V0201205N001552200059N0080475N5+01115+00725102565ADDAA101000095AU100007015AW1051GA1005+999999999GD10991+9999999GF100991999999999999999999KA1060M+01111KA2060N+00561MA1102545100895MD1190179+9999MW1055REMMET11501/07/19 09:53:02 METAR KPSP 071753Z 12003KT 5SM HZ CLR 11/07 A3028 RMK AO2 SLP256 T01110072 10111 20056 51017 (LO)
0189722868931382019010718537+33822-116504FM-15+0137KPSP V0201305N002652200059N0144845N5+01285+00675102495ADDAA101000095GA1005+999999999GD10991+9999999GF100991999999999999999999MA1102475100825REMMET09401/07/19 10:53:02 METAR KPSP 071853Z 13005KT 9SM CLR 13/07 A3026 RMK AO2 SLP249 T01280067 (LO)
0189722868931382019010719537+33822-116504FM-15+0137KPSP V0201205N002152200059N0144845N5+01395+00675102375ADDAA101000095GA1005+999999999GD10991+9999999GF100991999999999999999999MA1102375100725REMMET09401/07/19 11:53:02 METAR KPSP 071953Z 12004KT 9SM CLR 14/07 A3023 RMK AO2 SLP237 T01390067 (AT)
0210722868931382019010720537+33822-116504FM-15+0137KPSP V0209999V003152200059N0160935N5+01565+00675102315ADDAA101000095GA1005+999999999GD10991+9999999GF100991999999999999999999MA1102305100655MD1690249+9999REMMET10101/07/19 12:53:02 METAR KPSP 072053Z VRB06KT 10SM CLR 16/07 A3021 RMK AO2 SLP231 T01560067 56024 (DD)
0190722868931382019010721537+33822-116504FM-15+0137KPSP V0201305N002652200059N0160935N5+01615+00675102305ADDAA101000095GA1005+999999999GD10991+9999999GF100991999999999999999999MA1102305100655REMMET09501/07/19 13:53:02 METAR KPSP 072153Z 13005KT 10SM CLR 16/07 A3021 RMK AO2 SLP230 T01610067 (DD)
0190722868931382019010722537+33822-116504FM-15+0137KPSP V0209999V002152200059N0160935N5+01615+00615102335ADDAA101000095GA1005+999999999GD10991+9999999GF100991999999999999999999MA1102345100695REMMET09501/07/19 14:53:02 METAR KPSP 072253Z VRB04KT 10SM CLR 16/06 A3022 RMK AO2 SLP233 T01610061 (DD)
0248722868931382019010723537+33822-116504FM-15+0137KPSP V0201005N002652200059N0160935N5+01615+00675102385ADDAA101000095GA1005+999999999GD10991+9999999GF100991999999999999999999KA1060M+01671KA2060N+01111MA1102375100725MD1390069+9999REMMET11301/07/19 15:53:02 METAR KPSP 072353Z 10005KT 10SM CLR 16/07 A3023 RMK AO2 SLP238 T01610067 10167 20111 53006 (DD)
0185722868931382019010800537+33822-116504FM-15+0137KPSP V0201105N002152200059N0160935N5+01505+00615102355ADDAA101000095GA1005+999999999GD10991+9999999GF100991999999999999999999MA1102345100695REMMET09001/07/19 16:53:01 METAR KPSP 080053Z 11004KT 10SM CLR 15/06 A3022 RMK AO2 SLP235 T01500061
0185722868931382019010801537+33822-116504FM-15+0137KPSP V0209999C000052200059N0160935N5+01445+00615102395ADDAA101000095GA1005+999999999GD10991+9999999GF100991999999999999999999MA1102375100725REMMET09001/07/19 17:53:01 METAR KPSP 080153Z 00000KT 10SM CLR 14/06 A3023 RMK AO2 SLP239 T01440061
0205722868931382019010802537+33822-116504FM-15+0137KPSP V0209999C000052200059N0160935N5+01225+00725102445ADDAA101000095GA1005+999999999GD10991+9999999GF100991999999999999999999MA1102405100755MD1390059+9999REMMET09601/07/19 18:53:01 METAR KPSP 080253Z 00000KT 10SM CLR 12/07 A3024 RMK AO2 SLP244 T01220072 53005
0185722868931382019010803537+33822-116504FM-15+0137KPSP V0209999C000052200059N0160935N5+01175+00725102485ADDAA101000095GA1005+999999999GD10991+9999999GF100991999999999999999999MA1102475100825REMMET09001/07/19 19:53:02 METAR KPSP 080353Z 00000KT 10SM CLR 12/07 A3026 RMK AO2 SLP248 T01170072
0184722868931382019010804537+33822-116504FM-15+0137KPSP V0203605N002652200059N0144845N5+01065+00725102545ADDAA101000095GA1005+999999999GD10991+9999999GF100991999999999999999999MA1102545100895REMMET08901/07/19 20:53:02 METAR KPSP 080453Z 36005KT 9SM CLR 11/07 A3028 RMK AO2 SLP254 T01060072
0243722868931382019010805537+33822-116504FM-15+0137KPSP V0203105N002152200059N0160935N5+01115+00675102575ADDAA101000095GA1005+999999999GD10991+9999999GF100991999999999999999999KA1060M+01611KA2060N+01001MA1102575100925MD1190149+9999REMMET10801/07/19 21:53:02 METAR KPSP 080553Z 31004KT 10SM CLR 11/07 A3029 RMK AO2 SLP257 T01110067 10161 20100 51014
0185722868931382019010806537+33822-116504FM-15+0137KPSP V0203505N002152200059N0160935N5+01005+00675102535ADDAA101000095GA1005+999999999GD10991+9999999GF100991999999999999999999MA1102515100855REMMET09001/07/19 22:53:02 METAR KPSP 080653Z 35004KT 10SM CLR 10/07 A3027 RMK AO2 SLP253 T01000067
0220722868931382019010807537+33822-116504FM-15+0137KPSP V0202505N001552200059N0144845N5+00895+00615102495ADDAA101000095GA1005+999999999GD10991+9999999GF100991999999999999999999KA1240M+01671KA2240N+00561MA1102475100825REMMET09901/07/19 23:53:02 METAR KPSP 080753Z 25003KT 9SM CLR 09/06 A3026 RMK AO2 SLP249 T00890061 401670056
0959722868931382019010807596+33822-116504SOD  +0137KPSP V020999999999999999999999999999+99999+99999999999ADDAA124000095AJ100009599999999AL12400095AN1024000095AT1AU13BR  5AT2AU08HZ  5AX1015245AX2085245KA1240M+01675KA2240N+00565MG1100784102244OE11240049213099995OE22240035833099995OE33240013099999995REMSOD75724 HR PRECIPITATION (IN): 0.00 SNOW DEPTH (IN):0     24 HR SNOWFALL (IN):0.0  WEATHER(CODE):18  24 HR MAX TEMP (F): 6224 HR MIN TEMP (F): 42AVERAGE STATION PRESSURE:29.760 MINIMUM SEA LEVEL PRESSURE:30.19 TIME OF OCCURRENCE:0018 PEAK WIND SPEED (MPH): 11 PEAK WIND DIR (DEG):130 PEAK WIND TIME (LST):      FASTEST 2MIN SPEED (MPH):  8FASTEST 2MIN DIR (DEG):330 FASTEST 2MIN TIME (LST):     AVERAGE WIND SPEED (MPH): 2.9 24 HR AVG TEMP (F): 52DEPART FROM NORMAL: -5  HEATING DEGREE DAYS: 13 COOLING DEGREE DAYS:  0 LATEST DAY MAX TEMP (0700-1900 LST):62  LATEST NIGHT MIN TEMP(1900-0800 LST):42 HOURLY INCREMENTAL PRECIPITATION VALUES (IN):.00 0.00 0.00 0.00 0.00 0.00 0.00 0.00 0.00 0.00 0.00 0.00 0.00 0.00 0.00 0.00 0.00 0.00 0.00 0.00 0.00 0.00 0.00 0.00
0205722868931382019010808537+33822-116504FM-15+0137KPSP V0202905N001552200059N0160935N5+01065+00615102445ADDAA101000095GA1005+999999999GD10991+9999999GF100991999999999999999999MA1102445100795MD1690129+9999REMMET09601/08/19 00:53:02 METAR KPSP 080853Z 29003KT 10SM CLR 11/06 A3025 RMK AO2 SLP244 T01060061 56012
0184722868931382019010809537+33822-116504FM-15+0137KPSP V0203405N002152200059N0144845N5+00835+00565102445ADDAA101000095GA1005+999999999GD10991+9999999GF100991999999999999999999MA1102445100795REMMET08901/08/19 01:53:02 METAR KPSP 080953Z 34004KT 9SM CLR 08/06 A3025 RMK AO2 SLP244 T00830056
0185722868931382019010810537+33822-116504FM-15+0137KPSP V0203405N002652200059N0160935N5+00895+00565102435ADDAA101000095GA1005+999999999GD10991+9999999GF100991999999999999999999MA1102405100755REMMET09001/08/19 02:53:02 METAR KPSP 081053Z 34005KT 10SM CLR 09/06 A3024 RMK AO2 SLP243 T00890056
0243722868931382019010811537+33822-116504FM-15+0137KPSP V0203205N002652200059N0160935N5+00895+00565102405ADDAA101000095GA1005+999999999GD10991+9999999GF100991999999999999999999KA1060M+01111KA2060N+00831MA1102375100725MD1890059+9999REMMET10801/08/19 03:53:02 METAR KPSP 081153Z 32005KT 10SM CLR 09/06 A3023 RMK AO2 SLP240 T00890056 10111 20083 58005
0185722868931382019010812537+33822-116504FM-15+0137KPSP V0203205N002652200059N0160935N5+00895+00505102395ADDAA101000095GA1005+999999999GD10991+9999999GF100991999999999999999999MA1102375100725REMMET09001/08/19 04:53:02 METAR KPSP 081253Z 32005KT 10SM CLR 09/05 A3023 RMK AO2 SLP239 T00890050
0190722868931382019010813537+33822-116504FM-15+0137KPSP V0209999C000052200059N0160935N5+00785+00505102405ADDAA101000095GA1005+999999999GD10991+9999999GF100991999999999999999999MA1102375100725REMMET09501/08/19 05:53:02 METAR KPSP 081353Z 00000KT 10SM CLR 08/05 A3023 RMK AO2 SLP240 T00780050 (AT)
0210722868931382019010814537+33822-116504FM-15+0137KPSP V0209999C000052200059N0160935N5+00835+00505102395ADDAA101000095GA1005+999999999GD10991+9999999GF100991999999999999999999MA1102375100725MD1890019+9999REMMET10101/08/19 06:53:02 METAR KPSP 081453Z 00000KT 10SM CLR 08/05 A3023 RMK AO2 SLP239 T00830050 58001 (BY)
0190722868931382019010815537+33822-116504FM-15+0137KPSP V0203305N003152200059N0160935N5+00835+00505102395ADDAA101000095GA1005+999999999GD10991+9999999GF100991999999999999999999MA1102375100725REMMET09501/08/19 07:53:02 METAR KPSP 081553Z 33006KT 10SM CLR 08/05 A3023 RMK AO2 SLP239 T00830050 (BY)
0190722868931382019010816537+33822-116504FM-15+0137KPSP V0203305N002152200059N0160935N5+01225+00675102425ADDAA101000095GA1005+999999999GD10991+9999999GF100991999999999999999999MA1102405100755REMMET09501/08/19 08:53:02 METAR KPSP 081653Z 33004KT 10SM CLR 12/07 A3024 RMK AO2 SLP242 T01220067 (DD)
0248722868931382019010817537+33822-116504FM-15+0137KPSP V0209999C000052200059N0160935N5+01565+00615102415ADDAA101000095GA1005+999999999GD10991+9999999GF100991999999999999999999KA1060M+01561KA2060N+00721MA1102405100755MD1290039+9999REMMET11301/08/19 09:53:02 METAR KPSP 081753Z 00000KT 10SM CLR 16/06 A3024 RMK AO2 SLP241 T01560061 10156 20072 52003 (DD)
0190722868931382019010818537+33822-116504FM-15+0137KPSP V0209999C000052200059N0160935N5+01725+00615102325ADDAA101000095GA1005+999999999GD10991+9999999GF100991999999999999999999MA1102305100655REMMET09501/08/19 10:53:02 METAR KPSP 081853Z 00000KT 10SM CLR 17/06 A3021 RMK AO2 SLP232 T01720061 (DD)
0164722868931382019010819536+33822-116504FM-15+0137KPSP V0200505N001552200059N0160935N5+01895+00615102165ADDAA101000095GA1005+999999999GD10991+9999999MA1102175100525REMMET09501/08/19 11:53:02 METAR KPSP 081953Z 05003KT 10SM CLR 19/06 A3017 RMK AO2 SLP216 T01890061 (WM)
0210722868931382019010820537+33822-116504FM-15+0137KPSP V0201405N001552200059N0160935N5+01945+00565102065ADDAA101000095GA1005+999999999GD10991+9999999GF100991999999999999999999MA1102075100425MD1890349+9999REMMET10101/08/19 12:53:02 METAR KPSP 082053Z 14003KT 10SM CLR 19/06 A3014 RMK AO2 SLP206 T01940056 58034 (WM)
0190722868931382019010821537+33822-116504FM-15+0137KPSP V0201305N002152200059N0160935N5+02005+00505102015ADDAA101000095GA1005+999999999GD10991+9999999GF100991999999999999999999MA1102005100355REMMET09501/08/19 13:53:02 METAR KPSP 082153Z 13004KT 10SM CLR 20/05 A3012 RMK AO2 SLP201 T02000050 (WM)
0190722868931382019010822537+33822-116504FM-15+0137KPSP V0201305N002652200059N0160935N5+02005+00445101985ADDAA101000095GA1005+999999999GD10991+9999999GF100991999999999999999999MA1101965100325REMMET09501/08/19 14:53:02 METAR KPSP 082253Z 13005KT 10SM CLR 20/04 A3011 RMK AO2 SLP198 T02000044 (WM)
0248722868931382019010823537+33822-116504FM-15+0137KPSP V0209999C000052200059N0160935N5+01945+00615101975ADDAA101000095GA1005+999999999GD10991+9999999GF100991999999999999999999KA1060M+02061KA2060N+01561MA1101965100325MD1690099+9999REMMET11301/08/19 15:53:02 METAR KPSP 082353Z 00000KT 10SM CLR 19/06 A3011 RMK AO2 SLP197 T01940061 10206 20156 56009 (QC)
0185722868931382019010900537+33822-116504FM-15+0137KPSP V0201205N002152200059N0160935N5+01785+00675101995ADDAA101000095GA1005+999999999GD10991+9999999GF100991999999999999999999MA1102005100355REMMET09001/08/19 16:53:01 METAR KPSP 090053Z 12004KT 10SM CLR 18/07 A3012 RMK AO2 SLP199 T01780067
0185722868931382019010901537+33822-116504FM-15+0137KPSP V0202105N001552200059N0160935N5+01675+00725102055ADDAA101000095GA1005+999999999GD10991+9999999GF100991999999999999999999MA1102035100395REMMET09001/08/19 17:53:01 METAR KPSP 090153Z 21003KT 10SM CLR 17/07 A3013 RMK AO2 SLP205 T01670072
0205722868931382019010902537+33822-116504FM-15+0137KPSP V0209999C000052200059N0160935N5+01615+00725102105ADDAA101000095GA1005+999999999GD10991+9999999GF100991999999999999999999MA1102105100455MD1390129+9999REMMET09601/08/19 18:53:02 METAR KPSP 090253Z 00000KT 10SM CLR 16/07 A3015 RMK AO2 SLP210 T01610072 53012
0185722868931382019010903537+33822-116504FM-15+0137KPSP V0209999C000052200059N0160935N5+01505+00615102155ADDAA101000095GA1005+999999999GD10991+9999999GF100991999999999999999999MA1102135100495REMMET09001/08/19 19:53:02 METAR KPSP 090353Z 00000KT 10SM CLR 15/06 A3016 RMK AO2 SLP215 T01500061
0185722868931382019010904537+33822-116504FM-15+0137KPSP V0209999C000052200059N0160935N5+01395+00725102185ADDAA101000095GA1005+999999999GD10991+9999999GF100991999999999999999999MA1102175100525REMMET09001/08/19 20:53:02 METAR KPSP 090453Z 00000KT 10SM CLR 14/07 A3017 RMK AO2 SLP218 T01390072
0243722868931382019010905537+33822-116504FM-15+0137KPSP V0209999C000052200059N0160935N5+01225+00725102185ADDAA101000095GA1005+999999999GD10991+9999999GF100991999999999999999999KA1060M+01941KA2060N+01221MA1102175100525MD1190099+9999REMMET10801/08/19 21:53:02 METAR KPSP 090553Z 00000KT 10SM CLR 12/07 A3017 RMK AO2 SLP218 T01220072 10194 20122 51009
0185722868931382019010906537+33822-116504FM-15+0137KPSP V0203505N002652200059N0160935N5+01175+00725102165ADDAA101000095GA1005+999999999GD10991+9999999GF100991999999999999999999MA1102175100525REMMET09001/08/19 22:53:02 METAR KPSP 090653Z 35005KT 10SM CLR 12/07 A3017 RMK AO2 SLP216 T01170072
0221722868931382019010907537+33822-116504FM-15+0137KPSP V0203405N002652200059N0160935N5+01115+00725102105ADDAA101000095GA1005+999999999GD10991+9999999GF100991999999999999999999KA1240M+02061KA2240N+00721MA1102105100455REMMET10001/08/19 23:53:02 METAR KPSP 090753Z 34005KT 10SM CLR 11/07 A3015 RMK AO2 SLP210 T01110072 402060072
0899722868931382019010907596+33822-116504SOD  +0137KPSP V020999999999999999999999999999+99999+99999999999ADDAA124000095AJ100009599999999AL12400095AN1024000095KA1240M+02065KA2240N+00725MG1100584101964OE11240044733099995OE22240035804099995OE33240013999999995REMSOD73924 HR PRECIPITATION (IN): 0.00 SNOW DEPTH (IN):0     24 HR SNOWFALL (IN):0.0  24 HR MAX TEMP (F): 6924 HR MIN TEMP (F): 45AVERAGE STATION PRESSURE:29.700 MINIMUM SEA LEVEL PRESSURE:30.11 TIME OF OCCURRENCE:1638 PEAK WIND SPEED (MPH): 10 PEAK WIND DIR (DEG):330 PEAK WIND TIME (LST):      FASTEST 2MIN SPEED (MPH):  8FASTEST 2MIN DIR (DEG): 40 FASTEST 2MIN TIME (LST):     AVERAGE WIND SPEED (MPH): 3.1 24 HR AVG TEMP (F): 57DEPART FROM NORMAL:  0  HEATING DEGREE DAYS:  8 COOLING DEGREE DAYS:  0 LATEST DAY MAX TEMP (0700-1900 LST):69  LATEST NIGHT MIN TEMP(1900-0800 LST):45 HOURLY INCREMENTAL PRECIPITATION VALUES (IN):.00 0.00 0.00 0.00 0.00 0.00 0.00 0.00 0.00 0.00 0.00 0.00 0.00 0.00 0.00 0.00 0.00 0.00 0.00 0.00 0.00 0.00 0.00 0.00
0205722868931382019010908537+33822-116504FM-15+0137KPSP V0203305N003152200059N0160935N5+01175+00675102105ADDAA101000095GA1005+999999999GD10991+9999999GF100991999999999999999999MA1102105100455MD1690089+9999REMMET09601/09/19 00:53:02 METAR KPSP 090853Z 33006KT 10SM CLR 12/07 A3015 RMK AO2 SLP210 T01170067 56008
0185722868931382019010909537+33822-116504FM-15+0137KPSP V0203405N003652200059N0160935N5+01115+00615102125ADDAA101000095GA1005+999999999GD10991+9999999GF100991999999999999999999MA1102135100495REMMET09001/09/19 01:53:02 METAR KPSP 090953Z 34007KT 10SM CLR 11/06 A3016 RMK AO2 SLP212 T01110061
0185722868931382019010910537+33822-116504FM-15+0137KPSP V0203205N002652200059N0160935N5+01115+00615102145ADDAA101000095GA1005+999999999GD10991+9999999GF100991999999999999999999MA1102135100495REMMET09001/09/19 02:53:02 METAR KPSP 091053Z 32005KT 10SM CLR 11/06 A3016 RMK AO2 SLP214 T01110061
0243722868931382019010911537+33822-116504FM-15+0137KPSP V0203305N002652200059N0160935N5+01115+00565102085ADDAA101000095GA1005+999999999GD10991+9999999GF100991999999999999999999KA1060M+01281KA2060N+01061MA1102075100425MD1890029+9999REMMET10801/09/19 03:53:02 METAR KPSP 091153Z 33005KT 10SM CLR 11/06 A3014 RMK AO2 SLP208 T01110056 10128 20106 58002
0185722868931382019010912537+33822-116504FM-15+0137KPSP V0203205N002152200059N0160935N5+01005+00565102095ADDAA101000095GA1005+999999999GD10991+9999999GF100991999999999999999999MA1102105100455REMMET09001/09/19 04:53:02 METAR KPSP 091253Z 32004KT 10SM CLR 10/06 A3015 RMK AO2 SLP209 T01000056
0190722868931382019010913537+33822-116504FM-15+0137KPSP V0203305N003152200059N0160935N5+00945+00565102135ADDAA101000095GA1005+999999999GD10991+9999999GF100991999999999999999999MA1102135100495REMMET09501/09/19 05:53:02 METAR KPSP 091353Z 33006KT 10SM CLR 09/06 A3016 RMK AO2 SLP213 T00940056 (WM)
0210722868931382019010914537+33822-116504FM-15+0137KPSP V0203305N002652200059N0160935N5+00895+00505102175ADDAA101000095GA1005+999999999GD10991+9999999GF100991999999999999999999MA1102175100525MD1390079+9999REMMET10101/09/19 06:53:02 METAR KPSP 091453Z 33005KT 10SM CLR 09/05 A3017 RMK AO2 SLP217 T00890050 53007 (WM)
0190722868931382019010915537+33822-116504FM-15+0137KPSP V0203405N002152200059N0160935N5+01005+00565102235ADDAA101000095GA1005+999999999GD10991+9999999GF100991999999999999999999MA1102245100595REMMET09501/09/19 07:53:02 METAR KPSP 091553Z 34004KT 10SM CLR 10/06 A3019 RMK AO2 SLP223 T01000056 (WM)
0190722868931382019010916537+33822-116504FM-15+0137KPSP V0203405N001552200059N0160935N5+01445+00615102255ADDAA101000095GA1005+999999999GD10991+9999999GF100991999999999999999999MA1102245100595REMMET09501/09/19 08:53:02 METAR KPSP 091653Z 34003KT 10SM CLR 14/06 A3019 RMK AO2 SLP225 T01440061 (WM)
0248722868931382019010917537+33822-116504FM-15+0137KPSP V0209999C000052200059N0160935N5+01725+00615102235ADDAA101000095GA1005+999999999GD10991+9999999GF100991999999999999999999KA1060M+01721KA2060N+00831MA1102245100595MD1090079+9999REMMET11301/09/19 09:53:02 METAR KPSP 091753Z 00000KT 10SM CLR 17/06 A3019 RMK AO2 SLP223 T01720061 10172 20083 50007 (WM)
0190722868931382019010918537+33822-116504FM-15+0137KPSP V0209999C000052200059N0160935N5+01895+00565102105ADDAA101000095GA1005+999999999GD10991+9999999GF100991999999999999999999MA1102105100455REMMET09501/09/19 10:53:02 METAR KPSP 091853Z 00000KT 10SM CLR 19/06 A3015 RMK AO2 SLP210 T01890056 (WM)
0190722868931382019010919537+33822-116504FM-15+0137KPSP V0200905N002152200059N0160935N5+02065+00565101945ADDAA101000095GA1005+999999999GD10991+9999999GF100991999999999999999999MA1101935100295REMMET09501/09/19 11:53:02 METAR KPSP 091953Z 09004KT 10SM CLR 21/06 A3010 RMK AO2 SLP194 T02060056 (WM)
0210722868931382019010920537+33822-116504FM-15+0137KPSP V0201505N002152200059N0160935N5+02115+00565101815ADDAA101000095GA1005+999999999GD10991+9999999GF100991999999999999999999MA1101835100195MD1690409+9999REMMET10101/09/19 12:53:02 METAR KPSP 092053Z 15004KT 10SM CLR 21/06 A3007 RMK AO2 SLP181 T02110056 56040 (WM)
0190722868931382019010921537+33822-116504FM-15+0137KPSP V0209999V002152200059N0160935N5+02225+00505101815ADDAA101000095GA1005+999999999GD10991+9999999GF100991999999999999999999MA1101835100195REMMET09501/09/19 13:53:02 METAR KPSP 092153Z VRB04KT 10SM CLR 22/05 A3007 RMK AO2 SLP181 T02220050 (QC)
0190722868931382019010922537+33822-116504FM-15+0137KPSP V0209999V002152200059N0160935N5+02225+00445101765ADDAA101000095GA1005+999999999GD10991+9999999GF100991999999999999999999MA1101765100125REMMET09501/09/19 14:53:02 METAR KPSP 092253Z VRB04KT 10SM CLR 22/04 A3005 RMK AO2 SLP176 T02220044 (ZU)
0248722868931382019010923537+33822-116504FM-15+0137KPSP V0201805N001552200059N0160935N5+02115+00445101815ADDAA101000095GA1005+999999999GD10991+9999999GF100991999999999999999999KA1060M+02221KA2060N+01721MA1101795100155MD1590029+9999REMMET11301/09/19 15:53:02 METAR KPSP 092353Z 18003KT 10SM CLR 21/04 A3006 RMK AO2 SLP181 T02110044 10222 20172 55002 (QC)
0167722868931382019011000187+33822-116504FM-16+0137KPSP V0209999C000052200059N0160935N5+02065+00505999999ADDGA1005+999999999GD10991+9999999GF100991999999999999999999MA1101795100155REMMET08301/09/19 16:18:01 SPECI KPSP 100018Z 00000KT 10SM CLR 21/05 A3006 RMK AO2 T02060050
0185722868931382019011000537+33822-116504FM-15+0137KPSP V0209999V002152200059N0160935N5+01945+00615101825ADDAA101000095GA1005+999999999GD10991+9999999GF100991999999999999999999MA1101835100195REMMET09001/09/19 16:53:01 METAR KPSP 100053Z VRB04KT 10SM CLR 19/06 A3007 RMK AO2 SLP182 T01940061
0185722868931382019011001537+33822-116504FM-15+0137KPSP V0203305N001552200059N0160935N5+01785+00615101875ADDAA101000095GA1005+999999999GD10991+9999999GF100991999999999999999999MA1101865100225REMMET09001/09/19 17:53:01 METAR KPSP 100153Z 33003KT 10SM CLR 18/06 A3008 RMK AO2 SLP187 T01780061
0205722868931382019011002537+33822-116504FM-15+0137KPSP V0203405N003652200059N0160935N5+01615+00785101895ADDAA101000095GA1005+999999999GD10991+9999999GF100991999999999999999999MA1101865100225MD1190079+9999REMMET09601/09/19 18:53:01 METAR KPSP 100253Z 34007KT 10SM CLR 16/08 A3008 RMK AO2 SLP189 T01610078 51007
0185722868931382019011003537+33822-116504FM-15+0137KPSP V0203305N002652200059N0160935N5+01445+00725101935ADDAA101000095GA1005+999999999GD10991+9999999GF100991999999999999999999MA1101935100295REMMET09001/09/19 19:53:01 METAR KPSP 100353Z 33005KT 10SM CLR 14/07 A3010 RMK AO2 SLP193 T01440072
0185722868931382019011004537+33822-116504FM-15+0137KPSP V0203005N002152200059N0160935N5+01445+00675101955ADDAA101000095GA1005+999999999GD10991+9999999GF100991999999999999999999MA1101965100325REMMET09001/09/19 20:53:02 METAR KPSP 100453Z 30004KT 10SM CLR 14/07 A3011 RMK AO2 SLP195 T01440067
0243722868931382019011005537+33822-116504FM-15+0137KPSP V0209999V002152200059N0160935N5+01335+00615101945ADDAA101000095GA1005+999999999GD10991+9999999GF100991999999999999999999KA1060M+02171KA2060N+01281MA1101935100295MD1090069+9999REMMET10801/09/19 21:53:02 METAR KPSP 100553Z VRB04KT 10SM CLR 13/06 A3010 RMK AO2 SLP194 T01330061 10217 20128 50006
0185722868931382019011006537+33822-116504FM-15+0137KPSP V0209999C000052200059N0160935N5+01395+00565101885ADDAA101000095GA1005+999999999GD10991+9999999GF100991999999999999999999MA1101905100255REMMET09001/09/19 22:53:02 METAR KPSP 100653Z 00000KT 10SM CLR 14/06 A3009 RMK AO2 SLP188 T01390056
0221722868931382019011007537+33822-116504FM-15+0137KPSP V0203605N003152200059N0160935N5+01445+00615101835ADDAA101000095GA1005+999999999GD10991+9999999GF100991999999999999999999KA1240M+02221KA2240N+00831MA1101835100195REMMET10001/09/19 23:53:02 METAR KPSP 100753Z 36006KT 10SM CLR 14/06 A3007 RMK AO2 SLP183 T01440061 402220083
0899722868931382019011007596+33822-116504SOD  +0137KPSP V020999999999999999999999999999+99999+99999999999ADDAA124000095AJ100009599999999AL12400095AN1024000095KA1240M+02225KA2240N+00835MG1100364101764OE11240053635099995OE22240040234099995OE33240018399999995REMSOD73924 HR PRECIPITATION (IN): 0.00 SNOW DEPTH (IN):0     24 HR SNOWFALL (IN):0.0  24 HR MAX TEMP (F): 7224 HR MIN TEMP (F): 47AVERAGE STATION PRESSURE:29.635 MINIMUM SEA LEVEL PRESSURE:30.05 TIME OF OCCURRENCE:1539 PEAK WIND SPEED (MPH): 12 PEAK WIND DIR (DEG):350 PEAK WIND TIME (LST):      FASTEST 2MIN SPEED (MPH):  9FASTEST 2MIN DIR (DEG):340 FASTEST 2MIN TIME (LST):     AVERAGE WIND SPEED (MPH): 4.1 24 HR AVG TEMP (F): 60DEPART FROM NORMAL:  3  HEATING DEGREE DAYS:  5 COOLING DEGREE DAYS:  0 LATEST DAY MAX TEMP (0700-1900 LST):72  LATEST NIGHT MIN TEMP(1900-0800 LST):47 HOURLY INCREMENTAL PRECIPITATION VALUES (IN):.00 0.00 0.00 0.00 0.00 0.00 0.00 0.00 0.00 0.00 0.00 0.00 0.00 0.00 0.00 0.00 0.00 0.00 0.00 0.00 0.00 0.00 0.00 0.00
0205722868931382019011008537+33822-116504FM-15+0137KPSP V0203105N002152200059N0160935N5+01445+00445101805ADDAA101000095GA1005+999999999GD10991+9999999GF100991999999999999999999MA1101795100155MD1690139+9999REMMET09601/10/19 00:53:02 METAR KPSP 100853Z 31004KT 10SM CLR 14/04 A3006 RMK AO2 SLP180 T01440044 56013
0185722868931382019011009537+33822-116504FM-15+0137KPSP V0209999C000052200059N0160935N5+01005+00445101865ADDAA101000095GA1005+999999999GD10991+9999999GF100991999999999999999999MA1101865100225REMMET09001/10/19 01:53:02 METAR KPSP 100953Z 00000KT 10SM CLR 10/04 A3008 RMK AO2 SLP186 T01000044
0185722868931382019011010537+33822-116504FM-15+0137KPSP V0209999C000052200059N0160935N5+01065+00395101865ADDAA101000095GA1005+999999999GD10991+9999999GF100991999999999999999999MA1101865100225REMMET09001/10/19 02:53:02 METAR KPSP 101053Z 00000KT 10SM CLR 11/04 A3008 RMK AO2 SLP186 T01060039
0243722868931382019011011537+33822-116504FM-15+0137KPSP V0203105N002152200059N0160935N5+01115+00285101845ADDAA101000095GA1005+999999999GD10991+9999999GF100991999999999999999999KA1060M+01561KA2060N+00941MA1101835100195MD1090039+9999REMMET10801/10/19 03:53:02 METAR KPSP 101153Z 31004KT 10SM CLR 11/03 A3007 RMK AO2 SLP184 T01110028 10156 20094 50003
0185722868931382019011012537+33822-116504FM-15+0137KPSP V0203605N002152200059N0160935N5+01005+00335101855ADDAA101000095GA1005+999999999GD10991+9999999GF100991999999999999999999MA1101865100225REMMET09001/10/19 04:53:02 METAR KPSP 101253Z 36004KT 10SM CLR 10/03 A3008 RMK AO2 SLP185 T01000033
0185722868931382019011013537+33822-116504FM-15+0137KPSP V0202605N003652200059N0160935N5+01065+00225101815ADDAA101000095GA1005+999999999GD10991+9999999GF100991999999999999999999MA1101835100195REMMET09001/10/19 05:53:02 METAR KPSP 101353Z 26007KT 10SM CLR 11/02 A3007 RMK AO2 SLP181 T01060022
0210722868931382019011014537+33822-116504FM-15+0137KPSP V0203405N003652200059N0160935N5+01065+00285101885ADDAA101000095GA1005+999999999GD10991+9999999GF100991999999999999999999MA1101865100225MD1390039+9999REMMET10101/10/19 06:53:02 METAR KPSP 101453Z 34007KT 10SM CLR 11/03 A3008 RMK AO2 SLP188 T01060028 53003 (OL)
0190722868931382019011015537+33822-116504FM-15+0137KPSP V0201905N001552200059N0160935N5+01225+00285101905ADDAA101000095GA1005+999999999GD10991+9999999GF100991999999999999999999MA1101905100255REMMET09501/10/19 07:53:02 METAR KPSP 101553Z 19003KT 10SM CLR 12/03 A3009 RMK AO2 SLP190 T01220028 (ZU)
0190722868931382019011016537+33822-116504FM-15+0137KPSP V0209999C000052200059N0160935N5+01565+00285101945ADDAA101000095GA1005+999999999GD10991+9999999GF100991999999999999999999MA1101935100295REMMET09501/10/19 08:53:02 METAR KPSP 101653Z 00000KT 10SM CLR 16/03 A3010 RMK AO2 SLP194 T01560028 (ZU)
0248722868931382019011017537+33822-116504FM-15+0137KPSP V0201605N001552200059N0160935N5+01835+00175101965ADDAA101000095GA1005+999999999GD10991+9999999GF100991999999999999999999KA1060M+01831KA2060N+00941MA1101965100325MD1190089+9999REMMET11301/10/19 09:53:02 METAR KPSP 101753Z 16003KT 10SM CLR 18/02 A3011 RMK AO2 SLP196 T01830017 10183 20094 51008 (ZU)
0190722868931382019011018537+33822-116504FM-15+0137KPSP V0209999C000052200059N0160935N5+02115+00175101865ADDAA101000095GA1005+999999999GD10991+9999999GF100991999999999999999999MA1101865100225REMMET09501/10/19 10:53:02 METAR KPSP 101853Z 00000KT 10SM CLR 21/02 A3008 RMK AO2 SLP186 T02110017 (ZU)
0190722868931382019011019537+33822-116504FM-15+0137KPSP V0209999V001552200059N0160935N5+02335+00005101725ADDAA101000095GA1005+999999999GD10991+9999999GF100991999999999999999999MA1101735100095REMMET09501/10/19 11:53:02 METAR KPSP 101953Z VRB03KT 10SM CLR 23/00 A3004 RMK AO2 SLP172 T02330000 (ZU)
0210722868931382019011020537+33822-116504FM-15+0137KPSP V0201005N002652200059N0160935N5+02395+00065101655ADDAA101000095GA1005+999999999GD10991+9999999GF100991999999999999999999MA1101665100025MD1690299+9999REMMET10101/10/19 12:53:02 METAR KPSP 102053Z 10005KT 10SM CLR 24/01 A3002 RMK AO2 SLP165 T02390006 56029 (ZC)
0190722868931382019011021537+33822-116504FM-15+0137KPSP V0209999V002652200059N0160935N5+02445+00175101665ADDAA101000095GA1005+999999999GD10991+9999999GF100991999999999999999999MA1101665100025REMMET09501/10/19 13:53:02 METAR KPSP 102153Z VRB05KT 10SM CLR 24/02 A3002 RMK AO2 SLP166 T02440017 (ZC)
0190722868931382019011022537+33822-116504FM-15+0137KPSP V0209999V001552200059N0160935N5+02445+00175101665ADDAA101000095GA1005+999999999GD10991+9999999GF100991999999999999999999MA1101665100025REMMET09501/10/19 14:53:02 METAR KPSP 102253Z VRB03KT 10SM CLR 24/02 A3002 RMK AO2 SLP166 T02440017 (ZC)
0248722868931382019011023537+33822-116504FM-15+0137KPSP V0203305N004152200059N0160935N5+02335+00395101695ADDAA101000095GA1005+999999999GD10991+9999999GF100991999999999999999999KA1060M+02501KA2060N+01891MA1101695100055MD1390039+9999REMMET11301/10/19 15:53:02 METAR KPSP 102353Z 33008KT 10SM CLR 23/04 A3003 RMK AO2 SLP169 T02330039 10250 20189 53003 (ZP)
0185722868931382019011100537+33822-116504FM-15+0137KPSP V0203205N003652200059N0160935N5+02115+00445101745ADDAA101000095GA1005+999999999GD10991+9999999GF100991999999999999999999MA1101765100125REMMET09001/10/19 16:53:01 METAR KPSP 110053Z 32007KT 10SM CLR 21/04 A3005 RMK AO2 SLP174 T02110044
0185722868931382019011101537+33822-116504FM-15+0137KPSP V0201205N001552200059N0160935N5+01785+00505101815ADDAA101000095GA1005+999999999GD10991+9999999GF100991999999999999999999MA1101795100155REMMET09001/10/19 17:53:01 METAR KPSP 110153Z 12003KT 10SM CLR 18/05 A3006 RMK AO2 SLP181 T01780050
0205722868931382019011102537+33822-116504FM-15+0137KPSP V0202005N002152200059N0160935N5+01725+00505101845ADDAA101000095GA1005+999999999GD10991+9999999GF100991999999999999999999MA1101835100195MD1190159+9999REMMET09601/10/19 18:53:01 METAR KPSP 110253Z 20004KT 10SM CLR 17/05 A3007 RMK AO2 SLP184 T01720050 51015
0185722868931382019011103537+33822-116504FM-15+0137KPSP V0203405N002152200059N0160935N5+01675+00285101885ADDAA101000095GA1005+999999999GD10991+9999999GF100991999999999999999999MA1101905100255REMMET09001/10/19 19:53:01 METAR KPSP 110353Z 34004KT 10SM CLR 17/03 A3009 RMK AO2 SLP188 T01670028
0185722868931382019011104537+33822-116504FM-15+0137KPSP V0203305N002652200059N0160935N5+01565+00505101945ADDAA101000095GA1005+999999999GD10991+9999999GF100991999999999999999999MA1101935100295REMMET09001/10/19 20:53:01 METAR KPSP 110453Z 33005KT 10SM CLR 16/05 A3010 RMK AO2 SLP194 T01560050
0243722868931382019011105537+33822-116504FM-15+0137KPSP V0203305N004152200059N0160935N5+01395+00615101995ADDAA101000095GA1005+999999999GD10991+9999999GF100991999999999999999999KA1060M+02331KA2060N+01391MA1102005100355MD1390149+9999REMMET10801/10/19 21:53:01 METAR KPSP 110553Z 33008KT 10SM CLR 14/06 A3012 RMK AO2 SLP199 T01390061 10233 20139 53014
0185722868931382019011106537+33822-116504FM-15+0137KPSP V0203205N003152200059N0160935N5+01395+00505101935ADDAA101000095GA1005+999999999GD10991+9999999GF100991999999999999999999MA1101935100295REMMET09001/10/19 22:53:01 METAR KPSP 110653Z 32006KT 10SM CLR 14/05 A3010 RMK AO2 SLP193 T01390050
0221722868931382019011107537+33822-116504FM-15+0137KPSP V0203305N002152200059N0160935N5+01335+00445101895ADDAA101000095GA1005+999999999GD10991+9999999GF100991999999999999999999KA1240M+02501KA2240N+00941MA1101905100255REMMET10001/10/19 23:53:02 METAR KPSP 110753Z 33004KT 10SM CLR 13/04 A3009 RMK AO2 SLP189 T01330044 402500094
0899722868931382019011107596+33822-116504SOD  +0137KPSP V020999999999999999999999999999+99999+99999999999ADDAA124000095AJ100009599999999AL12400095AN1024000095KA1240M+02505KA2240N+00945MG1100204101634OE11240058130099995OE22240044734099995OE33240019799999995REMSOD73924 HR PRECIPITATION (IN): 0.00 SNOW DEPTH (IN):0     24 HR SNOWFALL (IN):0.0  24 HR MAX TEMP (F): 7724 HR MIN TEMP (F): 49AVERAGE STATION PRESSURE:29.590 MINIMUM SEA LEVEL PRESSURE:30.01 TIME OF OCCURRENCE:1302 PEAK WIND SPEED (MPH): 13 PEAK WIND DIR (DEG):300 PEAK WIND TIME (LST):      FASTEST 2MIN SPEED (MPH): 10FASTEST 2MIN DIR (DEG):340 FASTEST 2MIN TIME (LST):     AVERAGE WIND SPEED (MPH): 4.4 24 HR AVG TEMP (F): 63DEPART FROM NORMAL:  6  HEATING DEGREE DAYS:  2 COOLING DEGREE DAYS:  0 LATEST DAY MAX TEMP (0700-1900 LST):77  LATEST NIGHT MIN TEMP(1900-0800 LST):49 HOURLY INCREMENTAL PRECIPITATION VALUES (IN):.00 0.00 0.00 0.00 0.00 0.00 0.00 0.00 0.00 0.00 0.00 0.00 0.00 0.00 0.00 0.00 0.00 0.00 0.00 0.00 0.00 0.00 0.00 0.00
0205722868931382019011108537+33822-116504FM-15+0137KPSP V0203205N003652200059N0160935N5+01335+00445101895ADDAA101000095GA1005+999999999GD10991+9999999GF100991999999999999999999MA1101905100255MD1690099+9999REMMET09601/11/19 00:53:02 METAR KPSP 110853Z 32007KT 10SM CLR 13/04 A3009 RMK AO2 SLP189 T01330044 56009
0185722868931382019011109537+33822-116504FM-15+0137KPSP V0203205N003152200059N0160935N5+01225+00445101945ADDAA101000095GA1005+999999999GD10991+9999999GF100991999999999999999999MA1101965100325REMMET09001/11/19 01:53:02 METAR KPSP 110953Z 32006KT 10SM CLR 12/04 A3011 RMK AO2 SLP194 T01220044
0185722868931382019011110537+33822-116504FM-15+0137KPSP V0203305N002652200059N0160935N5+01175+00445101905ADDAA101000095GA1005+999999999GD10991+9999999GF100991999999999999999999MA1101905100255REMMET09001/11/19 02:53:02 METAR KPSP 111053Z 33005KT 10SM CLR 12/04 A3009 RMK AO2 SLP190 T01170044
0243722868931382019011111537+33822-116504FM-15+0137KPSP V0203305N003652200059N0160935N5+01065+00395101855ADDAA101000095GA1005+999999999GD10991+9999999GF100991999999999999999999KA1060M+01501KA2060N+01001MA1101865100225MD1890049+9999REMMET10801/11/19 03:53:02 METAR KPSP 111153Z 33007KT 10SM CLR 11/04 A3008 RMK AO2 SLP185 T01060039 10150 20100 58004
0185722868931382019011112537+33822-116504FM-15+0137KPSP V0203205N002652200059N0160935N5+01065+00335101855ADDAA101000095GA1005+999999999GD10991+9999999GF100991999999999999999999MA1101865100225REMMET09001/11/19 04:53:02 METAR KPSP 111253Z 32005KT 10SM CLR 11/03 A3008 RMK AO2 SLP185 T01060033
0190722868931382019011113537+33822-116504FM-15+0137KPSP V0203205N002652200059N0160935N5+00945+00285101895ADDAA101000095GA1005+999999999GD10991+9999999GF100991999999999999999999MA1101905100255REMMET09501/11/19 05:53:02 METAR KPSP 111353Z 32005KT 10SM CLR 09/03 A3009 RMK AO2 SLP189 T00940028 (QC)
0210722868931382019011114537+33822-116504FM-15+0137KPSP V0203005N002152200059N0160935N5+01005+00285101935ADDAA101000095GA1005+999999999GD10991+9999999GF100991999999999999999999MA1101935100295MD1390079+9999REMMET10101/11/19 06:53:02 METAR KPSP 111453Z 30004KT 10SM CLR 10/03 A3010 RMK AO2 SLP193 T01000028 53007 (QC)
0190722868931382019011115537+33822-116504FM-15+0137KPSP V0203305N002652200059N0160935N5+01115+00285101975ADDAA101000095GA1005+999999999GD10991+9999999GF100991999999999999999999MA1101965100325REMMET09501/11/19 07:53:02 METAR KPSP 111553Z 33005KT 10SM CLR 11/03 A3011 RMK AO2 SLP197 T01110028 (QC)
0190722868931382019011116537+33822-116504FM-15+0137KPSP V0203205N002152200059N0160935N5+01615+00225102045ADDAA101000095GA1005+999999999GD10991+9999999GF100991999999999999999999MA1102035100395REMMET09501/11/19 08:53:02 METAR KPSP 111653Z 32004KT 10SM CLR 16/02 A3013 RMK AO2 SLP204 T01610022 (QC)
0248722868931382019011117537+33822-116504FM-15+0137KPSP V0201605N001552200059N0160935N5+01725+00395102085ADDAA101000095GA1005+999999999GD10991+9999999GF100991999999999999999999KA1060M+01831KA2060N+00891MA1102105100455MD1390159+9999REMMET11301/11/19 09:53:02 METAR KPSP 111753Z 16003KT 10SM CLR 17/04 A3015 RMK AO2 SLP208 T01720039 10183 20089 53015 (QC)
0190722868931382019011118537+33822-116504FM-15+0137KPSP V0209999V002152200059N0160935N5+01895+00225102005ADDAA101000095GA1005+999999999GD10991+9999999GF100991999999999999999999MA1102005100355REMMET09501/11/19 10:53:02 METAR KPSP 111853Z VRB04KT 10SM CLR 19/02 A3012 RMK AO2 SLP200 T01890022 (ZU)
0190722868931382019011119537+33822-116504FM-15+0137KPSP V0201005N003152200059N0160935N5+01835+00395101865ADDAA101000095GA1005+999999999GD10991+9999999GF100991999999999999999999MA1101865100225REMMET09501/11/19 11:53:02 METAR KPSP 111953Z 10006KT 10SM CLR 18/04 A3008 RMK AO2 SLP186 T01830039 (CM)
0210722868931382019011120537+33822-116504FM-15+0137KPSP V0201205N002152200059N0160935N5+01835+00395101835ADDAA101000095GA1005+999999999GD10991+9999999GF100991999999999999999999MA1101835100195MD1690259+9999REMMET10101/11/19 12:53:02 METAR KPSP 112053Z 12004KT 10SM CLR 18/04 A3007 RMK AO2 SLP183 T01830039 56025 (CM)
