0202722868931382021010100537+33822-116504FM-15+0137KPSP V0203305N007252200059N0160935N5+01785-00445101415ADDAA101000095GA1005+999999999GD10991+9999999GF100991999999999999999999MA1101395099755OC101035REMMET09912/31/20 16:53:03 METAR KPSP 010053Z 33014G20KT 10SM CLR 18/M04 A2994 RMK AO2 SLP141 T01781044 (CP)
0202722868931382021010101537+33822-116504FM-15+0137KPSP V0203305V006252200059N0160935N5+01785-00285101465ADDAA101000095GA1005+999999999GD10991+9999999GF100991999999999999999999MA1101465099825OC101185REMMET09912/31/20 17:53:03 METAR KPSP 010153Z 33012G23KT 10SM CLR 18/M03 A2996 RMK AO2 SLP146 T01781028 (CP)
0211722868931382021010102537+33822-116504FM-15+0137KPSP V0203605N004152200059N0160935N5+01785-00225101455ADDAA101000095GA1005+999999999GD10991+9999999GF100991999999999999999999MA1101425099795MD1090079+9999REMMET10212/31/20 18:53:03 METAR KPSP 010253Z 36008KT 10SM CLR 18/M02 A2995 RMK AO2 SLP145 T01781022 50007 (CP)
0235722868931382021010103537+33822-116504FM-15+0137KPSP V0202405V004152200059N0160935N5+01785-00225101455ADDAA101000095GA1025+027435999GD11991+0274359GE19AGL   +99999+99999GF102995999999027431999999MA1101465099825REMMET09912/31/20 19:53:03 METAR KPSP 010353Z 24008KT 10SM FEW090 18/M02 A2996 RMK AO2 SLP145 T01781022 (CP)EQDD01      0ADE726
0249722868931382021010104537+33822-116504FM-15+0137KPSP V0203005N00365027435MN0160935N5+01835-00175101485ADDAA101000095GA1075+027435999GA2075+033535999GD13991+0274359GD23991+0335359GE19MSL   +99999+99999GF199999999999027431999999MA1101495099855REMMET10112/31/20 20:53:03 METAR KPSP 010453Z 30007KT 10SM BKN090 BKN110 18/M02 A2997 RMK AO2 SLP148 T01831017
0331722868931382021010105537+33822-116504FM-15+0137KPSP V0203305N009352200059N0160935N5+01835-00225101545ADDAA101000095GA1025+028965999GD11991+0289659GE19AGL   +99999+99999GF102995999999028961999999KA1060M+01891KA2060N+01671MA1101525099895MD1390099+9999OC101345OD149901331330REMMET13312/31/20 21:53:03 METAR KPSP 010553Z 33018G26KT 10SM FEW095 18/M02 A2998 RMK AO2 PK WND 33026/0552 SLP154 T01831022 10189 20167 53009EQDD01      0ADE726
0186722868931382021010106537+33822-116504FM-15+0137KPSP V0203405N006752200059N0160935N5+01675-00225101565ADDAA101000095GA1005+999999999GD10991+9999999GF100991999999999999999999MA1101565099925REMMET09112/31/20 22:53:03 METAR KPSP 010653Z 34013KT 10SM CLR 17/M02 A2999 RMK AO2 SLP156 T01671022
0222722868931382021010107537+33822-116504FM-15+0137KPSP V0203305N003152200059N0160935N5+01615-00285101615ADDAA101000095GA1005+999999999GD10991+9999999GF100991999999999999999999KA1240M+02111KA2240N+00501MA1101635099995REMMET10112/31/20 23:53:03 METAR KPSP 010753Z 33006KT 10SM CLR 16/M03 A3001 RMK AO2 SLP161 T01611028 402110050
0832722868931382021010107596+33822-116504SOD  +0137KPSP V020999999999999999999999999999+99999+99999999999ADDAA124000096KA1240M+02115KA2240N+00505MG1099834101224OE11240147534099995OE22240107335099995OE33240033599999995REMSOD69224 HR PRECIPITATION (IN): 0.00 24 HR MAX TEMP (F): 7024 HR MIN TEMP (F): 41AVERAGE STATION PRESSURE:29.480 MINIMUM SEA LEVEL PRESSURE:29.89 TIME OF OCCURRENCE:1332 PEAK WIND SPEED (MPH): 33 PEAK WIND DIR (DEG):340 PEAK WIND TIME (LST):      FASTEST 2MIN SPEED (MPH): 24FASTEST 2MIN DIR (DEG):350 FASTEST 2MIN TIME (LST):     AVERAGE WIND SPEED (MPH): 7.5 24 HR AVG TEMP (F): 56DEPART FROM NORMAL:  0  HEATING DEGREE DAYS:  9 COOLING DEGREE DAYS:  0 LATEST DAY MAX TEMP (0700-1900 LST):70  LATEST NIGHT MIN TEMP(1900-0800 LST):41 HOURLY INCREMENTAL PRECIPITATION VALUES (IN):.00 0.00 0.00 0.00 0.00 T    0.00 0.00 T    0.00 0.00 0.00 0.00 0.00 0.00 0.00 0.00 0.00 0.00 0.00 0.00 0.00 0.00 0.00EQDR01  0.007AAP092
1262722868931382021010107596+33822-116504SOM  +0137KPSP V020999999999999999999999999999+99999+99999999999ADDAB10005396AD10005192828999999995AE1025015005005AH1005001092819155AH2010001392819175AH3015001592819225AH4020001592819225AH5030001592819225AH6045001892819455AI1060001892821415AI2080002392820295AI3100002592820475AI4120002892821005AI5150003892821415AI6180004192821415KB1744N+07945KB2744M+22175KB3744A+15065KC1N9+00503114055KC2M9+02880199995KD1744H01845KD2744C00065KE1006005005005MH1100364102034MK1103082323025100882803525REMSOM798PCP MTOT:0.21 PCP GT 24HRS:0.20 DATE(S):28 DAYS W/PCP >=.01:2  DAYS W/PCP >=.10:1  DAYS W/ PCP >=.50:0 DAYS W/PCP >=1.00:0 MSDP AMTS W/DATE-TIME TAGS:MIN:5 0.04  28/1915 MIN:10 0.05  28/1917 MIN:15 0.06  28/1922 MIN:20 0.06  28/1922 MIN:30 0.06  28/1922 MIN:45 0.07  28/1945 MIN:60 0.07  28/2141 MIN:80 0.09  28/2029 MIN:100 0.10  28/2047 MIN:120 0.11  28/2100 MIN:150 0.15  28/2141 MIN:180 0.16  28/2141 AVG DLY MIN:46.3  AVG DLY MAX:71.9  AVG MLY TMP:59.1  MIN TMP:41 DATE(S):31 14 05 MAX TMP:84  DATE(S):01 DAYS MAX <=32:0 DAYS MAX >=90:0  DAYS MIN <=32:0  DAYS MIN  <=0:0  AVG STP:29.635 LWST SLP:29.79 DATE/TIME:280352 HGST SLP:30.44 DATE/TIME:232302 HDD MTH TOT:184 DEP NORM:-2553 SEASON(JUL 1-JUN 30):238 DEP NORM:-25536 CDD MTH TOT:6 DEP NORM:-2553 SEASON(JAN 1-DEC 31):5048 DEP NORM:-25536EQDR01  0.217ABP070R02     07KE1032
0217722868931382021010108537+33822-116504FM-15+0137KPSP V0200105N007252200059N0160935N5+01675-00285101605ADDAA101000095GA1005+999999999GD10991+9999999GF100991999999999999999999MA1101595099955MD1090079+9999OC101085REMMET10001/01/21 00:53:02 METAR KPSP 010853Z 01014G21KT 10SM CLR 17/M03 A3000 RMK AO2 SLP160 T01671028 50007
0186722868931382021010109537+33822-116504FM-15+0137KPSP V0203605N004152200059N0160935N5+01615-00335101655ADDAA101000095GA1005+999999999GD10991+9999999GF100991999999999999999999MA1101665100025REMMET09101/01/21 01:53:02 METAR KPSP 010953Z 36008KT 10SM CLR 16/M03 A3002 RMK AO2 SLP165 T01611033
0186722868931382021010110537+33822-116504FM-15+0137KPSP V0209999V002152200059N0160935N5+01565-00395101675ADDAA101000095GA1005+999999999GD10991+9999999GF100991999999999999999999MA1101695100055REMMET09101/01/21 02:53:02 METAR KPSP 011053Z VRB04KT 10SM CLR 16/M04 A3003 RMK AO2 SLP167 T01561039
0244722868931382021010111537+33822-116504FM-15+0137KPSP V0202305N001552200059N0160935N5+01175-00225101695ADDAA101000095GA1005+999999999GD10991+9999999GF100991999999999999999999KA1060M+01831KA2060N+01171MA1101695100055MD1190089+9999REMMET10901/01/21 03:53:02 METAR KPSP 011153Z 23003KT 10SM CLR 12/M02 A3003 RMK AO2 SLP169 T01171022 10183 20117 51008
0186722868931382021010112537+33822-116504FM-15+0137KPSP V0209999V001552200059N0160935N5+01505-00335101755ADDAA101000095GA1005+999999999GD10991+9999999GF100991999999999999999999MA1101765100125REMMET09101/01/21 04:53:02 METAR KPSP 011253Z VRB03KT 10SM CLR 15/M03 A3005 RMK AO2 SLP175 T01501033
0191722868931382021010113537+33822-116504FM-15+0137KPSP V0202205N003652200059N0160935N5+01335-00285101885ADDAA101000095GA1005+999999999GD10991+9999999GF100991999999999999999999MA1101865100225REMMET09601/01/21 05:53:02 METAR KPSP 011353Z 22007KT 10SM CLR 13/M03 A3008 RMK AO2 SLP188 T01331028 (CM)
0211722868931382021010114537+33822-116504FM-15+0137KPSP V0209999N999992200059N0160935N5+01615-00505101965ADDAA101000095GA1005+999999999GD10991+9999999GF100991999999999999999999MA1101965100325MD1390279+9999REMMET10201/01/21 06:53:02 METAR KPSP 011453Z      KT 10SM CLR 16/M05 A3011 RMK AO2 SLP196 T01611050 53027 (CM)
0191722868931382021010115537+33822-116504FM-15+0137KPSP V0203305N007252200059N0160935N5+01565-00505102025ADDAA101000095GA1005+999999999GD10991+9999999GF100991999999999999999999MA1102035100395REMMET09601/01/21 07:53:02 METAR KPSP 011553Z 33014KT 10SM CLR 16/M05 A3013 RMK AO2 SLP202 T01561050 (FS)
0191722868931382021010116537+33822-116504FM-15+0137KPSP V0203005N002152200059N0160935N5+01725-00445102135ADDAA101000095GA1005+999999999GD10991+9999999GF100991999999999999999999MA1102135100495REMMET09601/01/21 08:53:02 METAR KPSP 011653Z 30004KT 10SM CLR 17/M04 A3016 RMK AO2 SLP213 T01721044 (FS)
0249722868931382021010117537+33822-116504FM-15+0137KPSP V0203305N006752200059N0160935N5+01835-00445102165ADDAA101000095GA1005+999999999GD10991+9999999GF100991999999999999999999KA1060M+01831KA2060N+01171MA1102175100525MD1190209+9999REMMET11401/01/21 09:53:02 METAR KPSP 011753Z 33013KT 10SM CLR 18/M04 A3017 RMK AO2 SLP216 T01831044 10183 20117 51020 (RC)
0191722868931382021010118537+33822-116504FM-15+0137KPSP V0203505N002652200059N0160935N5+02005-00505102105ADDAA101000095GA1005+999999999GD10991+9999999GF100991999999999999999999MA1102105100455REMMET09601/01/21 10:53:02 METAR KPSP 011853Z 35005KT 10SM CLR 20/M05 A3015 RMK AO2 SLP210 T02001050 (RC)
0191722868931382021010119537+33822-116504FM-15+0137KPSP V0209999C000052200059N0160935N5+02065-00505102005ADDAA101000095GA1005+999999999GD10991+9999999GF100991999999999999999999MA1102005100355REMMET09601/01/21 11:53:02 METAR KPSP 011953Z 00000KT 10SM CLR 21/M05 A3012 RMK AO2 SLP200 T02061050 (RC)
0211722868931382021010120537+33822-116504FM-15+0137KPSP V0202705N002152200059N0160935N5+02065-00505101935ADDAA101000095GA1005+999999999GD10991+9999999GF100991999999999999999999MA1101935100295MD1890239+9999REMMET10201/01/21 12:53:02 METAR KPSP 012053Z 27004KT 10SM CLR 21/M05 A3010 RMK AO2 SLP193 T02061050 58023 (FS)
0191722868931382021010121537+33822-116504FM-15+0137KPSP V0209999C000052200059N0160935N5+02115-00505101925ADDAA101000095GA1005+999999999GD10991+9999999GF100991999999999999999999MA1101935100295REMMET09601/01/21 13:53:02 METAR KPSP 012153Z 00000KT 10SM CLR 21/M05 A3010 RMK AO2 SLP192 T02111050 (ZC)
0191722868931382021010122537+33822-116504FM-15+0137KPSP V0209999V002152200059N0160935N5+02175-00565101965ADDAA101000095GA1005+999999999GD10991+9999999GF100991999999999999999999MA1101965100325REMMET09601/01/21 14:53:02 METAR KPSP 012253Z VRB04KT 10SM CLR 22/M06 A3011 RMK AO2 SLP196 T02171056 (ZC)
0249722868931382021010123537+33822-116504FM-15+0137KPSP V0209999C000052200059N0160935N5+02115-00505102005ADDAA101000095GA1005+999999999GD10991+9999999GF100991999999999999999999KA1060M+02221KA2060N+01831MA1102005100355MD1390079+9999REMMET11401/01/21 15:53:02 METAR KPSP 012353Z 00000KT 10SM CLR 21/M05 A3012 RMK AO2 SLP200 T02111050 10222 20183 53007 (ZC)
0186722868931382021010200537+33822-116504FM-15+0137KPSP V0202305N002652200059N0160935N5+01835-00335102015ADDAA101000095GA1005+999999999GD10991+9999999GF100991999999999999999999MA1102035100395REMMET09101/01/21 16:53:01 METAR KPSP 020053Z 23005KT 10SM CLR 18/M03 A3013 RMK AO2 SLP201 T01831033
0186722868931382021010201537+33822-116504FM-15+0137KPSP V0202705N002652200059N0160935N5+01725-00335102135ADDAA101000095GA1005+999999999GD10991+9999999GF100991999999999999999999MA1102135100495REMMET09101/01/21 17:53:01 METAR KPSP 020153Z 27005KT 10SM CLR 17/M03 A3016 RMK AO2 SLP213 T01721033
0206722868931382021010202537+33822-116504FM-15+0137KPSP V0202605N002652200059N0160935N5+01615-00335102175ADDAA101000095GA1005+999999999GD10991+9999999GF100991999999999999999999MA1102175100525MD1390179+9999REMMET09701/01/21 18:53:01 METAR KPSP 020253Z 26005KT 10SM CLR 16/M03 A3017 RMK AO2 SLP217 T01611033 53017
0186722868931382021010203537+33822-116504FM-15+0137KPSP V0202805N001552200059N0160935N5+01615-00395102235ADDAA101000095GA1005+999999999GD10991+9999999GF100991999999999999999999MA1102245100595REMMET09101/01/21 19:53:01 METAR KPSP 020353Z 28003KT 10SM CLR 16/M04 A3019 RMK AO2 SLP223 T01611039
0186722868931382021010204537+33822-116504FM-15+0137KPSP V0209999C000052200059N0160935N5+01445-00285102265ADDAA101000095GA1005+999999999GD10991+9999999GF100991999999999999999999MA1102275100625REMMET09101/01/21 20:53:02 METAR KPSP 020453Z 00000KT 10SM CLR 14/M03 A3020 RMK AO2 SLP226 T01441028
0244722868931382021010205537+33822-116504FM-15+0137KPSP V0203205N002152200059N0160935N5+01285-00285102305ADDAA101000095GA1005+999999999GD10991+9999999GF100991999999999999999999KA1060M+02111KA2060N+01281MA1102305100655MD1190129+9999REMMET10901/01/21 21:53:02 METAR KPSP 020553Z 32004KT 10SM CLR 13/M03 A3021 RMK AO2 SLP230 T01281028 10211 20128 51012
0186722868931382021010206537+33822-116504FM-15+0137KPSP V0203405N003152200059N0160935N5+01115-00175102325ADDAA101000095GA1005+999999999GD10991+9999999GF100991999999999999999999MA1102305100655REMMET09101/01/21 22:53:02 METAR KPSP 020653Z 34006KT 10SM CLR 11/M02 A3021 RMK AO2 SLP232 T01111017
0222722868931382021010207537+33822-116504FM-15+0137KPSP V0203305N003152200059N0160935N5+01115-00175102325ADDAA101000095GA1005+999999999GD10991+9999999GF100991999999999999999999KA1240M+02221KA2240N+01061MA1102305100655REMMET10101/01/21 23:53:02 METAR KPSP 020753Z 33006KT 10SM CLR 11/M02 A3021 RMK AO2 SLP232 T01111017 402220106
0813722868931382021010207596+33822-116504SOD  +0137KPSP V020999999999999999999999999999+99999+99999999999ADDAA124000095KA1240M+02225KA2240N+01065MG1100374101594OE11240120703099995OE22240098303099995OE33240026499999995REMSOD69224 HR PRECIPITATION (IN): 0.00 24 HR MAX TEMP (F): 7224 HR MIN TEMP (F): 51AVERAGE STATION PRESSURE:29.640 MINIMUM SEA LEVEL PRESSURE:30.00 TIME OF OCCURRENCE:0131 PEAK WIND SPEED (MPH): 27 PEAK WIND DIR (DEG): 30 PEAK WIND TIME (LST):      FASTEST 2MIN SPEED (MPH): 22FASTEST 2MIN DIR (DEG): 30 FASTEST 2MIN TIME (LST):     AVERAGE WIND SPEED (MPH): 5.9 24 HR AVG TEMP (F): 62DEPART FROM NORMAL:  6  HEATING DEGREE DAYS:  3 COOLING DEGREE DAYS:  0 LATEST DAY MAX TEMP (0700-1900 LST):72  LATEST NIGHT MIN TEMP(1900-0800 LST):53 HOURLY INCREMENTAL PRECIPITATION VALUES (IN):.00 0.00 0.00 0.00 0.00 0.00 0.00 0.00 0.00 0.00 0.00 0.00 0.00 0.00 0.00 0.00 0.00 0.00 0.00 0.00 0.00 0.00 0.00 0.00
0206722868931382021010208537+33822-116504FM-15+0137KPSP V0203305N003652200059N0160935N5+01065-00175102355ADDAA101000095GA1005+999999999GD10991+9999999GF100991999999999999999999MA1102345100695MD1390049+9999REMMET09701/02/21 00:53:02 METAR KPSP 020853Z 33007KT 10SM CLR 11/M02 A3022 RMK AO2 SLP235 T01061017 53004
0186722868931382021010209537+33822-116504FM-15+0137KPSP V0203105N002652200059N0160935N5+01065-00225102365ADDAA101000095GA1005+999999999GD10991+9999999GF100991999999999999999999MA1102375100725REMMET09101/02/21 01:53:02 METAR KPSP 020953Z 31005KT 10SM CLR 11/M02 A3023 RMK AO2 SLP236 T01061022
0186722868931382021010210537+33822-116504FM-15+0137KPSP V0203405N003652200059N0160935N5+00945-00175102355ADDAA101000095GA1005+999999999GD10991+9999999GF100991999999999999999999MA1102345100695REMMET09101/02/21 02:53:02 METAR KPSP 021053Z 34007KT 10SM CLR 09/M02 A3022 RMK AO2 SLP235 T00941017
0244722868931382021010211537+33822-116504FM-15+0137KPSP V0203205N003152200059N0160935N5+00835-00175102315ADDAA101000095GA1005+999999999GD10991+9999999GF100991999999999999999999KA1060M+01331KA2060N+00831MA1102305100655MD1890039+9999REMMET10901/02/21 03:53:02 METAR KPSP 021153Z 32006KT 10SM CLR 08/M02 A3021 RMK AO2 SLP231 T00831017 10133 20083 58003
0186722868931382021010212537+33822-116504FM-15+0137KPSP V0203305N002152200059N0160935N5+00895-00175102335ADDAA101000095GA1005+999999999GD10991+9999999GF100991999999999999999999MA1102345100695REMMET09101/02/21 04:53:02 METAR KPSP 021253Z 33004KT 10SM CLR 09/M02 A3022 RMK AO2 SLP233 T00891017
0191722868931382021010213537+33822-116504FM-15+0137KPSP V0203105N002152200059N0160935N5+00835-00115102375ADDAA101000095GA1005+999999999GD10991+9999999GF100991999999999999999999MA1102375100725REMMET09601/02/21 05:53:02 METAR KPSP 021353Z 31004KT 10SM CLR 08/M01 A3023 RMK AO2 SLP237 T00831011 (FS)
0211722868931382021010214537+33822-116504FM-15+0137KPSP V0203305N002652200059N0160935N5+00895-00115102465ADDAA101000095GA1005+999999999GD10991+9999999GF100991999999999999999999MA1102445100795MD1390149+9999REMMET10201/02/21 06:53:02 METAR KPSP 021453Z 33005KT 10SM CLR 09/M01 A3025 RMK AO2 SLP246 T00891011 53014 (FS)
0191722868931382021010215537+33822-116504FM-15+0137KPSP V0209999C000052200059N0160935N5+00945-00065102515ADDAA101000095GA1005+999999999GD10991+9999999GF100991999999999999999999MA1102515100855REMMET09601/02/21 07:53:02 METAR KPSP 021553Z 00000KT 10SM CLR 09/M01 A3027 RMK AO2 SLP251 T00941006 (CM)
0191722868931382021010216537+33822-116504FM-15+0137KPSP V0209999C000052200059N0160935N5+01285-00115102525ADDAA101000095GA1005+999999999GD10991+9999999GF100991999999999999999999MA1102515100855REMMET09601/02/21 08:53:02 METAR KPSP 021653Z 00000KT 10SM CLR 13/M01 A3027 RMK AO2 SLP252 T01281011 (FS)
0249722868931382021010217537+33822-116504FM-15+0137KPSP V0201105N001552200059N0160935N5+01505-00335102515ADDAA101000095GA1005+999999999GD10991+9999999GF100991999999999999999999KA1060M+01561KA2060N+00781MA1102515100855MD1090059+9999REMMET11401/02/21 09:53:02 METAR KPSP 021753Z 11003KT 10SM CLR 15/M03 A3027 RMK AO2 SLP251 T01501033 10156 20078 50005 (RC)
0191722868931382021010218537+33822-116504FM-15+0137KPSP V0200705N001552200059N0160935N5+01725-00285102455ADDAA101000095GA1005+999999999GD10991+9999999GF100991999999999999999999MA1102445100795REMMET09601/02/21 10:53:02 METAR KPSP 021853Z 07003KT 10SM CLR 17/M03 A3025 RMK AO2 SLP245 T01721028 (RC)
0191722868931382021010219537+33822-116504FM-15+0137KPSP V0209999V002652200059N0160935N5+01835-00175102335ADDAA101000095GA1005+999999999GD10991+9999999GF100991999999999999999999MA1102345100695REMMET09601/02/21 11:53:02 METAR KPSP 021953Z VRB05KT 10SM CLR 18/M02 A3022 RMK AO2 SLP233 T01831017 (RC)
0211722868931382021010220537+33822-116504FM-15+0137KPSP V0209999V002652200059N0160935N5+01895-00285102255ADDAA101000095GA1005+999999999GD10991+9999999GF100991999999999999999999MA1102245100595MD1890259+9999REMMET10201/02/21 12:53:02 METAR KPSP 022053Z VRB05KT 10SM CLR 19/M03 A3019 RMK AO2 SLP225 T01891028 58025 (RC)
0191722868931382021010221537+33822-116504FM-15+0137KPSP V0201205N003652200059N0160935N5+01945-00285102245ADDAA101000095GA1005+999999999GD10991+9999999GF100991999999999999999999MA1102245100595REMMET09601/02/21 13:53:02 METAR KPSP 022153Z 12007KT 10SM CLR 19/M03 A3019 RMK AO2 SLP224 T01941028 (CM)
0191722868931382021010222537+33822-116504FM-15+0137KPSP V0201105N001552200059N0160935N5+01895-00285102255ADDAA101000095GA1005+999999999GD10991+9999999GF100991999999999999999999MA1102245100595REMMET09601/02/21 14:53:02 METAR KPSP 022253Z 11003KT 10SM CLR 19/M03 A3019 RMK AO2 SLP225 T01891028 (RC)
0249722868931382021010223537+33822-116504FM-15+0137KPSP V0201305N002152200059N0160935N5+01895-00225102235ADDAA101000095GA1005+999999999GD10991+9999999GF100991999999999999999999KA1060M+02001KA2060N+01501MA1102245100595MD1890029+9999REMMET11401/02/21 15:53:02 METAR KPSP 022353Z 13004KT 10SM CLR 19/M02 A3019 RMK AO2 SLP223 T01891022 10200 20150 58002 (RC)
0186722868931382021010300537+33822-116504FM-15+0137KPSP V0201205N002652200059N0160935N5+01785-00175102225ADDAA101000095GA1005+999999999GD10991+9999999GF100991999999999999999999MA1102245100595REMMET09101/02/21 16:53:01 METAR KPSP 030053Z 12005KT 10SM CLR 18/M02 A3019 RMK AO2 SLP222 T01781017
0186722868931382021010301537+33822-116504FM-15+0137KPSP V0201205N001552200059N0160935N5+01565-00065102295ADDAA101000095GA1005+999999999GD10991+9999999GF100991999999999999999999MA1102275100625REMMET09101/02/21 17:53:01 METAR KPSP 030153Z 12003KT 10SM CLR 16/M01 A3020 RMK AO2 SLP229 T01561006
0206722868931382021010302537+33822-116504FM-15+0137KPSP V0200805N002152200059N0160935N5+01505-00115102265ADDAA101000095GA1005+999999999GD10991+9999999GF100991999999999999999999MA1102245100595MD1090029+9999REMMET09701/02/21 18:53:01 METAR KPSP 030253Z 08004KT 10SM CLR 15/M01 A3019 RMK AO2 SLP226 T01501011 50002
0186722868931382021010303537+33822-116504FM-15+0137KPSP V0209999C000052200059N0160935N5+01445-00175102265ADDAA101000095GA1005+999999999GD10991+9999999GF100991999999999999999999MA1102275100625REMMET09101/02/21 19:53:01 METAR KPSP 030353Z 00000KT 10SM CLR 14/M02 A3020 RMK AO2 SLP226 T01441017
0186722868931382021010304537+33822-116504FM-15+0137KPSP V0203405N001552200059N0160935N5+01335-00065102265ADDAA101000095GA1005+999999999GD10991+9999999GF100991999999999999999999MA1102275100625REMMET09101/02/21 20:53:02 METAR KPSP 030453Z 34003KT 10SM CLR 13/M01 A3020 RMK AO2 SLP226 T01331006
0244722868931382021010305537+33822-116504FM-15+0137KPSP V0203305N002152200059N0160935N5+01225-00115102285ADDAA101000095GA1005+999999999GD10991+9999999GF100991999999999999999999KA1060M+01891KA2060N+01221MA1102275100625MD1390039+9999REMMET10901/02/21 21:53:02 METAR KPSP 030553Z 33004KT 10SM CLR 12/M01 A3020 RMK AO2 SLP228 T01221011 10189 20122 53003
0185722868931382021010306537+33822-116504FM-15+0137KPSP V0209999C000052200059N0160935N5+01175+00005102305ADDAA101000095GA1005+999999999GD10991+9999999GF100991999999999999999999MA1102305100655REMMET09001/02/21 22:53:02 METAR KPSP 030653Z 00000KT 10SM CLR 12/00 A3021 RMK AO2 SLP230 T01170000
0221722868931382021010307537+33822-116504FM-15+0137KPSP V0209999C000052200059N0160935N5+01225+00005102285ADDAA101000095GA1005+999999999GD10991+9999999GF100991999999999999999999KA1240M+02001KA2240N+00781MA1102275100625REMMET10001/02/21 23:53:02 METAR KPSP 030753Z 00000KT 10SM CLR 12/00 A3020 RMK AO2 SLP228 T01220000 402000078
0813722868931382021010307596+33822-116504SOD  +0137KPSP V020999999999999999999999999999+99999+99999999999ADDAA124000095KA1240M+02005KA2240N+00785MG1100664102244OE11240053612099995OE22240040210099995OE33240017499999995REMSOD69224 HR PRECIPITATION (IN): 0.00 24 HR MAX TEMP (F): 6824 HR MIN TEMP (F): 46AVERAGE STATION PRESSURE:29.725 MINIMUM SEA LEVEL PRESSURE:30.19 TIME OF OCCURRENCE:2140 PEAK WIND SPEED (MPH): 12 PEAK WIND DIR (DEG):120 PEAK WIND TIME (LST):      FASTEST 2MIN SPEED (MPH):  9FASTEST 2MIN DIR (DEG):100 FASTEST 2MIN TIME (LST):     AVERAGE WIND SPEED (MPH): 3.9 24 HR AVG TEMP (F): 57DEPART FROM NORMAL:  1  HEATING DEGREE DAYS:  8 COOLING DEGREE DAYS:  0 LATEST DAY MAX TEMP (0700-1900 LST):68  LATEST NIGHT MIN TEMP(1900-0800 LST):46 HOURLY INCREMENTAL PRECIPITATION VALUES (IN):.00 0.00 0.00 0.00 0.00 0.00 0.00 0.00 0.00 0.00 0.00 0.00 0.00 0.00 0.00 0.00 0.00 0.00 0.00 0.00 0.00 0.00 0.00 0.00
0206722868931382021010308537+33822-116504FM-15+0137KPSP V0203505N002152200059N0160935N5+01065-00065102245ADDAA101000095GA1005+999999999GD10991+9999999GF100991999999999999999999MA1102245100595MD1890039+9999REMMET09701/03/21 00:53:02 METAR KPSP 030853Z 35004KT 10SM CLR 11/M01 A3019 RMK AO2 SLP224 T01061006 58003
0185722868931382021010309537+33822-116504FM-15+0137KPSP V0209999C000052200059N0160935N5+00895+00065102215ADDAA101000095GA1005+999999999GD10991+9999999GF100991999999999999999999MA1102205100555REMMET09001/03/21 01:53:02 METAR KPSP 030953Z 00000KT 10SM CLR 09/01 A3018 RMK AO2 SLP221 T00890006
0185722868931382021010310537+33822-116504FM-15+0137KPSP V0203205N001552200059N0160935N5+01005+00115102205ADDAA101000095GA1005+999999999GD10991+9999999GF100991999999999999999999MA1102205100555REMMET09001/03/21 02:53:02 METAR KPSP 031053Z 32003KT 10SM CLR 10/01 A3018 RMK AO2 SLP220 T01000011
0243722868931382021010311537+33822-116504FM-15+0137KPSP V0202905N001552200059N0160935N5+01005+00005102175ADDAA101000095GA1005+999999999GD10991+9999999GF100991999999999999999999KA1060M+01281KA2060N+00831MA1102175100525MD1890079+9999REMMET10801/03/21 03:53:02 METAR KPSP 031153Z 29003KT 10SM CLR 10/00 A3017 RMK AO2 SLP217 T01000000 10128 20083 58007
0185722868931382021010312537+33822-116504FM-15+0137KPSP V0209999C000052200059N0160935N5+00945+00005102175ADDAA101000095GA1005+999999999GD10991+9999999GF100991999999999999999999MA1102175100525REMMET09001/03/21 04:53:02 METAR KPSP 031253Z 00000KT 10SM CLR 09/00 A3017 RMK AO2 SLP217 T00940000
0190722868931382021010313537+33822-116504FM-15+0137KPSP V0203405N001552200059N0160935N5+00895+00005102215ADDAA101000095GA1005+999999999GD10991+9999999GF100991999999999999999999MA1102205100555REMMET09501/03/21 05:53:02 METAR KPSP 031353Z 34003KT 10SM CLR 09/00 A3018 RMK AO2 SLP221 T00890000 (LJ)
0210722868931382021010314537+33822-116504FM-15+0137KPSP V0209999C000052200059N0160935N5+00945+00005102205ADDAA101000095GA1005+999999999GD10991+9999999GF100991999999999999999999MA1102205100555MD1090039+9999REMMET10101/03/21 06:53:02 METAR KPSP 031453Z 00000KT 10SM CLR 09/00 A3018 RMK AO2 SLP220 T00940000 50003 (LJ)
0191722868931382021010315537+33822-116504FM-15+0137KPSP V0203505N002152200059N0160935N5+01115-00065102285ADDAA101000095GA1005+999999999GD10991+9999999GF100991999999999999999999MA1102275100625REMMET09601/03/21 07:53:02 METAR KPSP 031553Z 35004KT 10SM CLR 11/M01 A3020 RMK AO2 SLP228 T01111006 (CM)
0190722868931382021010316537+33822-116504FM-15+0137KPSP V0209999C000052200059N0160935N5+01225+00175102315ADDAA101000095GA1005+999999999GD10991+9999999GF100991999999999999999999MA1102305100655REMMET09501/03/21 08:53:02 METAR KPSP 031653Z 00000KT 10SM CLR 12/02 A3021 RMK AO2 SLP231 T01220017 (ZC)
0248722868931382021010317537+33822-116504FM-15+0137KPSP V0200805N001552200059N0160935N5+01445+00065102365ADDAA101000095GA1005+999999999GD10991+9999999GF100991999999999999999999KA1060M+01441KA2060N+00721MA1102345100695MD1190169+9999REMMET11301/03/21 09:53:02 METAR KPSP 031753Z 08003KT 10SM CLR 14/01 A3022 RMK AO2 SLP236 T01440006 10144 20072 51016 (CM)
0190722868931382021010318537+33822-116504FM-15+0137KPSP V0201605N002152200059N0160935N5+01675+00115102285ADDAA101000095GA1005+999999999GD10991+9999999GF100991999999999999999999MA1102275100625REMMET09501/03/21 10:53:02 METAR KPSP 031853Z 16004KT 10SM CLR 17/01 A3020 RMK AO2 SLP228 T01670011 (CM)
0230722868931382021010319537+33822-116504FM-15+0137KPSP V0209999V001552200059N0160935N5+01895-00065102165ADDAA101000025AU110020015AW1615GA1005+999999999GD10991+9999999GF100991999999999999999999MA1102175100525MW1615REMMET11201/03/21 11:53:02 METAR KPSP 031953Z VRB03KT 10SM -RA CLR 19/M01 A3017 RMK AO2 RAB44 SLP216 P0000 T01891006 (CM)
0260722868931382021010320537+33822-116504FM-15+0137KPSP V0201205N002152200059N0160935N5+01945+00005102045ADDAA101000095AA203000021GA1005+999999999GD10991+9999999GF100991999999999999999999MA1102035100395MD1890319+9999REMMET12101/03/21 12:53:02 METAR KPSP 032053Z 12004KT 10SM CLR 19/00 A3013 RMK AO2 RAE1955 SLP204 P0000 60000 T01940000 58031 (CM)EQDQ01  00008PRCP03
0190722868931382021010321537+33822-116504FM-15+0137KPSP V0200805N002652200059N0160935N5+02065+00005102025ADDAA101000095GA1005+999999999GD10991+9999999GF100991999999999999999999MA1102035100395REMMET09501/03/21 13:53:02 METAR KPSP 032153Z 08005KT 10SM CLR 21/00 A3013 RMK AO2 SLP202 T02060000 (CM)
0190722868931382021010322537+33822-116504FM-15+0137KPSP V0201605N002652200059N0160935N5+02005+00005102045ADDAA101000095GA1005+999999999GD10991+9999999GF100991999999999999999999MA1102035100395REMMET09501/03/21 14:53:02 METAR KPSP 032253Z 16005KT 10SM CLR 20/00 A3013 RMK AO2 SLP204 T02000000 (CM)
0265722868931382021010323537+33822-116504FM-15+0137KPSP V0201005N002652200059N0160935N5+02065+00005102065ADDAA101000095AA206000021GA1005+999999999GD10991+9999999GF100991999999999999999999KA1060M+02111KA2060N+01441MA1102075100425MD1390029+9999REMMET11901/03/21 15:53:02 METAR KPSP 032353Z 10005KT 10SM CLR 21/00 A3014 RMK AO2 SLP206 60000 T02060000 10211 20144 53002 (CM)
0185722868931382021010400537+33822-116504FM-15+0137KPSP V0201105N001552200059N0160935N5+01895+00005102085ADDAA101000095GA1005+999999999GD10991+9999999GF100991999999999999999999MA1102075100425REMMET09001/03/21 16:53:01 METAR KPSP 040053Z 11003KT 10SM CLR 19/00 A3014 RMK AO2 SLP208 T01890000
0185722868931382021010401537+33822-116504FM-15+0137KPSP V0209999C000052200059N0160935N5+01785+00065102145ADDAA101000095GA1005+999999999GD10991+9999999GF100991999999999999999999MA1102135100495REMMET09001/03/21 17:53:01 METAR KPSP 040153Z 00000KT 10SM CLR 18/01 A3016 RMK AO2 SLP214 T01780006
0205722868931382021010402537+33822-116504FM-15+0137KPSP V0209999C000052200059N0160935N5+01565+00225102195ADDAA101000095GA1005+999999999GD10991+9999999GF100991999999999999999999MA1102175100525MD1390139+9999REMMET09601/03/21 18:53:01 METAR KPSP 040253Z 00000KT 10SM CLR 16/02 A3017 RMK AO2 SLP219 T01560022 53013
0185722868931382021010403537+33822-116504FM-15+0137KPSP V0203405N002652200059N0160935N5+01335+00115102205ADDAA101000095GA1005+999999999GD10991+9999999GF100991999999999999999999MA1102175100525REMMET09001/03/21 19:53:01 METAR KPSP 040353Z 34005KT 10SM CLR 13/01 A3017 RMK AO2 SLP220 T01330011
0223722868931382021010404537+33822-116504FM-15+0137KPSP V0202905N002152200059N0160935N5+01285+00115102205ADDAA101000025AU120020015AW1625GA1005+999999999GD10991+9999999GF100991999999999999999999MA1102175100525MW1655REMMET10501/03/21 20:53:02 METAR KPSP 040453Z 29004KT 10SM RA CLR 13/01 A3017 RMK AO2 RAB24 SLP220 T01280011 PNO $
0250722868931382021010405537+33822-116504FM-15+0137KPSP V0203305N001552200059N0160935N5+01225+00175102195ADDGA1005+999999999GD10991+9999999GF100991999999999999999999KA1060M+02061KA2060N+01111MA1102205100555MD1390019+9999REMMET12601/03/21 21:53:02 METAR KPSP 040553Z 33003KT 10SM CLR 12/02 A3018 RMK AO2 RAE11 SLP219 6//// T01220017 10206 20111 53001 PNO $
0180722868931382021010406537+33822-116504FM-15+0137KPSP V0203305N003152200059N0160935N5+01115+00175102215ADDGA1005+999999999GD10991+9999999GF100991999999999999999999MA1102205100555REMMET09601/03/21 22:53:02 METAR KPSP 040653Z 33006KT 10SM CLR 11/02 A3018 RMK AO2 SLP221 T01110017 PNO $
0216722868931382021010407537+33822-116504FM-15+0137KPSP V0203405N002652200059N0160935N5+01065+00225102175ADDGA1005+999999999GD10991+9999999GF100991999999999999999999KA1240M+02111KA2240N+00721MA1102175100525REMMET10601/03/21 23:53:02 METAR KPSP 040753Z 34005KT 10SM CLR 11/02 A3017 RMK AO2 SLP217 T01060022 402110072 PNO $
0841722868931382021010407596+33822-116504SOD  +0137KPSP V020999999999999999999999999999+99999+99999999999ADDAA124000096AT1AU16RA  5KA1240M+02115KA2240N+00725MG1100524102034OE11240044711099995OE22240031333099995OE33240015699999995REMSOD68924 HR PRECIPITATION (IN): 0.00 24 HR MAX TEMP (F): 7024 HR MIN TEMP (F): 45AVERAGE STATION PRESSURE:29.685 MINIMUM SEA LEVEL PRESSURE:30.13 TIME OF OCCURRENCE:1615 PEAK WIND SPEED (MPH): 10 PEAK WIND DIR (DEG):110 PEAK WIND TIME (LST):      FASTEST 2MIN SPEED (MPH):  7FASTEST 2MIN DIR (DEG):330 FASTEST 2MIN TIME (LST):     AVERAGE WIND SPEED (MPH): 3.5 24 HR AVG TEMP (F): 58DEPART FROM NORMAL:  2  HEATING DEGREE DAYS:  7 COOLING DEGREE DAYS:  0 LATEST DAY MAX TEMP (0700-1900 LST):70  LATEST NIGHT MIN TEMP(1900-0800 LST):45 HOURLY INCREMENTAL PRECIPITATION VALUES (IN):.00 0.00 0.00 0.00 0.00 0.00 0.00 0.00 0.00 0.00 0.00 T    0.00 0.00 0.00 0.00 0.00 0.00 0.00 0.00 T    M    M    MEQDR01  0.007AAP092
0206722868931382021010408537+33822-116504FM-15+0137KPSP V0203305N003652200059N0160935N5+01005+00175102205ADDGA1005+999999999GD10991+9999999GF100991999999999999999999MA1102205100555MD1390019+9999REMMET10801/04/21 00:53:02 METAR KPSP 040853Z 33007KT 10SM CLR 10/02 A3018 RMK AO2 SLP220 6//// T01000017 53001 PNO $
0180722868931382021010409537+33822-116504FM-15+0137KPSP V0203505N002652200059N0160935N5+01005+00115102235ADDGA1005+999999999GD10991+9999999GF100991999999999999999999MA1102245100595REMMET09601/04/21 01:53:02 METAR KPSP 040953Z 35005KT 10SM CLR 10/01 A3019 RMK AO2 SLP223 T01000011 PNO $
0180722868931382021010410537+33822-116504FM-15+0137KPSP V0203305N002652200059N0160935N5+01065+00115102195ADDGA1005+999999999GD10991+9999999GF100991999999999999999999MA1102205100555REMMET09601/04/21 02:53:02 METAR KPSP 041053Z 33005KT 10SM CLR 11/01 A3018 RMK AO2 SLP219 T01060011 PNO $
0261722868931382021010411537+33822-116504FM-15+0137KPSP V0203305N002652200059N0160935N5+00895+00115102175ADDAA124999919GA1005+999999999GD10991+9999999GF100991999999999999999999KA1060M+01221KA2060N+00831MA1102175100525MD1890039+9999REMMET12601/04/21 03:53:02 METAR KPSP 041153Z 33005KT 10SM CLR 09/01 A3017 RMK AO2 SLP217 6//// 7//// T00890011 10122 20083 58003 PNO $
0180722868931382021010412537+33822-116504FM-15+0137KPSP V0203205N001552200059N0160935N5+00945+00175102175ADDGA1005+999999999GD10991+9999999GF100991999999999999999999MA1102175100525REMMET09601/04/21 04:53:02 METAR KPSP 041253Z 32003KT 10SM CLR 09/02 A3017 RMK AO2 SLP217 T00940017 PNO $
0185722868931382021010413537+33822-116504FM-15+0137KPSP V0203405N002652200059N0160935N5+00835+00115102225ADDGA1005+999999999GD10991+9999999GF100991999999999999999999MA1102205100555REMMET10101/04/21 05:53:02 METAR KPSP 041353Z 34005KT 10SM CLR 08/01 A3018 RMK AO2 SLP222 T00830011 PNO $ (CP)
0211722868931382021010414537+33822-116504FM-15+0137KPSP V0203305N003152200059N0160935N5+00945+00115102285ADDGA1005+999999999GD10991+9999999GF100991999999999999999999MA1102275100625MD1390109+9999REMMET11301/04/21 06:53:02 METAR KPSP 041453Z 33006KT 10SM CLR 09/01 A3020 RMK AO2 SLP228 6//// T00940011 53010 PNO $ (CP)
0181722868931382021010415537+33822-116504FM-15+0137KPSP V0203405N002652200059N0160935N5+01065+00115102315ADDGA1005+999999999GD10991+9999999GF100991999999999999999999MA1102305100655REMMET09701/04/21 07:53:02 METAR KPSP 041553Z 34005KT 10SM CLR 11/01 A3021 RMK AO2 SLP231 T01060011 $ (CP)
0190722868931382021010416537+33822-116504FM-15+0137KPSP V0203305N002152200059N0160935N5+01445+00225102315ADDAA101000095GA1005+999999999GD10991+9999999GF100991999999999999999999MA1102305100655REMMET09501/04/21 08:53:02 METAR KPSP 041653Z 33004KT 10SM CLR 14/02 A3021 RMK AO2 SLP231 T01440022 (CP)
0234722868931382021010417537+33822-116504FM-15+0137KPSP V0209999C000052200059N0160935N5+01785+00175102305ADDAA101000095GA1005+999999999GD10991+9999999GF100991999999999999999999KA1060M+01781KA2060N+00831MA1102305100655REMMET11301/04/21 09:53:02 METAR KPSP 041753Z 00000KT 10SM CLR 18/02 A3021 RMK AO2 SLP230 6//// T01780017 10178 20083 (CP)
0190722868931382021010418537+33822-116504FM-15+0137KPSP V0209999C000052200059N0160935N5+02005+00065102205ADDAA101000095GA1005+999999999GD10991+9999999GF100991999999999999999999MA1102205100555REMMET09501/04/21 10:53:02 METAR KPSP 041853Z 00000KT 10SM CLR 20/01 A3018 RMK AO2 SLP220 T02000006 (DD)
0191722868931382021010419537+33822-116504FM-15+0137KPSP V0209999V001552200059N0160935N5+02115-00065102045ADDAA101000095GA1005+999999999GD10991+9999999GF100991999999999999999999MA1102035100395REMMET09601/04/21 11:53:02 METAR KPSP 041953Z VRB03KT 10SM CLR 21/M01 A3013 RMK AO2 SLP204 T02111006 (ZP)
0210722868931382021010420537+33822-116504FM-15+0137KPSP V0201505N002652200059N0160935N5+02115+00005101915ADDAA101000095GA1005+999999999GD10991+9999999GF100991999999999999999999MA1101905100255MD1890389+9999REMMET10101/04/21 12:53:02 METAR KPSP 042053Z 15005KT 10SM CLR 21/00 A3009 RMK AO2 SLP191 T02110000 58038 (AG)
0190722868931382021010421537+33822-116504FM-15+0137KPSP V0201305N003152200059N0160935N5+02175+00065101855ADDAA101000095GA1005+999999999GD10991+9999999GF100991999999999999999999MA1101865100225REMMET09501/04/21 13:53:02 METAR KPSP 042153Z 13006KT 10SM CLR 22/01 A3008 RMK AO2 SLP185 T02170006 (AG)
0190722868931382021010422537+33822-116504FM-15+0137KPSP V0201105N002652200059N0160935N5+02225+00065101815ADDAA101000095GA1005+999999999GD10991+9999999GF100991999999999999999999MA1101835100195REMMET09501/04/21 14:53:02 METAR KPSP 042253Z 11005KT 10SM CLR 22/01 A3007 RMK AO2 SLP181 T02220006 (AG)
0248722868931382021010423537+33822-116504FM-15+0137KPSP V0201105N002152200059N0160935N5+02175+00065101875ADDAA101000095GA1005+999999999GD10991+9999999GF100991999999999999999999KA1060M+02221KA2060N+01781MA1101865100225MD1590049+9999REMMET11301/04/21 15:53:02 METAR KPSP 042353Z 11004KT 10SM CLR 22/01 A3008 RMK AO2 SLP187 T02170006 10222 20178 55004 (AG)
0185722868931382021010500537+33822-116504FM-15+0137KPSP V0201405N002652200059N0160935N5+01945+00115101885ADDAA101000095GA1005+999999999GD10991+9999999GF100991999999999999999999MA1101905100255REMMET09001/04/21 16:53:01 METAR KPSP 050053Z 14005KT 10SM CLR 19/01 A3009 RMK AO2 SLP188 T01940011
0185722868931382021010501537+33822-116504FM-15+0137KPSP V0209999C000052200059N0160935N5+01785+00175101945ADDAA101000095GA1005+999999999GD10991+9999999GF100991999999999999999999MA1101935100295REMMET09001/04/21 17:53:01 METAR KPSP 050153Z 00000KT 10SM CLR 18/02 A3010 RMK AO2 SLP194 T01780017
0205722868931382021010502537+33822-116504FM-15+0137KPSP V0209999C000052200059N0160935N5+01725+00175101965ADDAA101000095GA1005+999999999GD10991+9999999GF100991999999999999999999MA1101965100325MD1390099+9999REMMET09601/04/21 18:53:01 METAR KPSP 050253Z 00000KT 10SM CLR 17/02 A3011 RMK AO2 SLP196 T01720017 53009
0185722868931382021010503537+33822-116504FM-15+0137KPSP V0203005N002152200059N0160935N5+01615+00175101935ADDAA101000095GA1005+999999999GD10991+9999999GF100991999999999999999999MA1101935100295REMMET09001/04/21 19:53:01 METAR KPSP 050353Z 30004KT 10SM CLR 16/02 A3010 RMK AO2 SLP193 T01610017
0185722868931382021010504537+33822-116504FM-15+0137KPSP V0203505N001552200059N0160935N5+01395+00175101915ADDAA101000095GA1005+999999999GD10991+9999999GF100991999999999999999999MA1101905100255REMMET09001/04/21 20:53:02 METAR KPSP 050453Z 35003KT 10SM CLR 14/02 A3009 RMK AO2 SLP191 T01390017
0310722868931382021010505537+33822-116504FM-15+0137KPSP V0209999C000052200059N0160935N5+01445+00225101945ADDAA101000025AA206000021GA1005+999999999GD10991+9999999GF100991999999999999999999KA1060M+02171KA2060N+01331MA1101935100295MD1590029+9999REMMET12901/04/21 21:53:02 METAR KPSP 050553Z 00000KT 10SM CLR 14/02 A3010 RMK AO2 RAB20E30 SLP194 P0000 60000 T01440022 10217 20133 55002EQDQ01  00002PRCP06Q02  00008PRCP06
0185722868931382021010506537+33822-116504FM-15+0137KPSP V0202905N001552200059N0160935N5+01565+00115101865ADDAA101000095GA1005+999999999GD10991+9999999GF100991999999999999999999MA1101865100225REMMET09001/04/21 22:53:02 METAR KPSP 050653Z 29003KT 10SM CLR 16/01 A3008 RMK AO2 SLP186 T01560011
0221722868931382021010507537+33822-116504FM-15+0137KPSP V0209999C000052200059N0160935N5+01175+00225101865ADDAA101000095GA1005+999999999GD10991+9999999GF100991999999999999999999KA1240M+02221KA2240N+00831MA1101865100225REMMET10001/04/21 23:53:02 METAR KPSP 050753Z 00000KT 10SM CLR 12/02 A3008 RMK AO2 SLP186 T01170022 402220083
0832722868931382021010507596+33822-116504SOD  +0137KPSP V020999999999999999999999999999+99999+99999999999ADDAA124000096KA1240M+02225KA2240N+00835MG1100414101794OE11240053610099995OE22240040213099995OE33240017999999995REMSOD69224 HR PRECIPITATION (IN): 0.00 24 HR MAX TEMP (F): 7224 HR MIN TEMP (F): 47AVERAGE STATION PRESSURE:29.650 MINIMUM SEA LEVEL PRESSURE:30.06 TIME OF OCCURRENCE:1455 PEAK WIND SPEED (MPH): 12 PEAK WIND DIR (DEG):100 PEAK WIND TIME (LST):      FASTEST 2MIN SPEED (MPH):  9FASTEST 2MIN DIR (DEG):130 FASTEST 2MIN TIME (LST):     AVERAGE WIND SPEED (MPH): 4.0 24 HR AVG TEMP (F): 60DEPART FROM NORMAL:  4  HEATING DEGREE DAYS:  5 COOLING DEGREE DAYS:  0 LATEST DAY MAX TEMP (0700-1900 LST):72  LATEST NIGHT MIN TEMP(1900-0800 LST):47 HOURLY INCREMENTAL PRECIPITATION VALUES (IN):    M    M    M    M    M    M    M    0.00 0.00 0.00 0.00 0.00 0.00 0.00 0.00 0.00 0.00 0.00 0.00 0.00 T    0.00 0.00EQDR01  0.007AAP092
0205722868931382021010508537+33822-116504FM-15+0137KPSP V0203505N002152200059N0160935N5+01225+00225101855ADDAA101000095GA1005+999999999GD10991+9999999GF100991999999999999999999MA1101865100225MD1690079+9999REMMET09601/05/21 00:53:02 METAR KPSP 050853Z 35004KT 10SM CLR 12/02 A3008 RMK AO2 SLP185 T01220022 56007
0185722868931382021010509537+33822-116504FM-15+0137KPSP V0209999V002152200059N0160935N5+01225+00175101815ADDAA101000095GA1005+999999999GD10991+9999999GF100991999999999999999999MA1101835100195REMMET09001/05/21 01:53:02 METAR KPSP 050953Z VRB04KT 10SM CLR 12/02 A3007 RMK AO2 SLP181 T01220017
0200722868931382021010510537+33822-116504FM-15+0137KPSP V0202605N002152200059N0160935N5+00945+00175101785ADDAA101000025GA1005+999999999GD10991+9999999GF100991999999999999999999MA1101795100155REMMET10501/05/21 02:53:02 METAR KPSP 051053Z 26004KT 10SM CLR 09/02 A3006 RMK AO2 RAB43E49 SLP178 P0000 T00940017
0277722868931382021010511537+33822-116504FM-15+0137KPSP V0209999C000052200059N0160935N5+00945+00225101765ADDAA101000095AA206000021AA324999919GA1005+999999999GD10991+9999999GF100991999999999999999999KA1060M+01561KA2060N+00891MA1101765100125MD1690109+9999REMMET12001/05/21 03:53:02 METAR KPSP 051153Z 00000KT 10SM CLR 09/02 A3005 RMK AO2 SLP176 60000 7//// T00940022 10156 20089 56010
0185722868931382021010512537+33822-116504FM-15+0137KPSP V0203305N001552200059N0160935N5+01065+00115101855ADDAA101000095GA1005+999999999GD10991+9999999GF100991999999999999999999MA1101865100225REMMET09001/05/21 04:53:02 METAR KPSP 051253Z 33003KT 10SM CLR 11/01 A3008 RMK AO2 SLP185 T01060011
0190722868931382021010513537+33822-116504FM-15+0137KPSP V0209999C000052200059N0160935N5+01065+00065101865ADDAA101000095GA1005+999999999GD10991+9999999GF100991999999999999999999MA1101865100225REMMET09501/05/21 05:53:02 METAR KPSP 051353Z 00000KT 10SM CLR 11/01 A3008 RMK AO2 SLP186 T01060006 (DD)
0172722868931382021010514027+33822-116504FM-16+0137KPSP V0209999C000052200059N0160935N5+01115+00115999999ADDGA1005+999999999GD10991+9999999GF100991999999999999999999MA1101865100225REMMET08801/05/21 06:02:02 SPECI KPSP 051402Z 00000KT 10SM CLR 11/01 A3008 RMK AO2 T01110011 (CP)
0210722868931382021010514537+33822-116504FM-15+0137KPSP V0203605N002652200059N0160935N5+00895+00175101905ADDAA101000095GA1005+999999999GD10991+9999999GF100991999999999999999999MA1101905100255MD1190149+9999REMMET10101/05/21 06:53:02 METAR KPSP 051453Z 36005KT 10SM CLR 09/02 A3009 RMK AO2 SLP190 T00890017 51014 (CP)
0205722868931382021010515537+33822-116504FM-15+0137KPSP V0209999C000052200059N0160935N5+01005+00225102005ADDAA101000025GA1005+999999999GD10991+9999999GF100991999999999999999999MA1102005100355REMMET11001/05/21 07:53:02 METAR KPSP 051553Z 00000KT 10SM CLR 10/02 A3012 RMK AO2 RAB31E41 SLP200 P0000 T01000022 (ZP)
0229722868931382021010516537+33822-116504FM-15+0137KPSP V0209999V002152200059N0160935N5+01395+00175102105ADDAA101000025AU110020015AW1615GA1005+999999999GD10991+9999999GF100991999999999999999999MA1102105100455MW1615REMMET11101/05/21 08:53:02 METAR KPSP 051653Z VRB04KT 10SM -RA CLR 14/02 A3015 RMK AO2 RAB01 SLP210 P0000 T01390017 (ZP)
0317722868931382021010517537+33822-116504FM-15+0137KPSP V0209999C000052200059N0160935N5+01675+00225102145ADDAA101000025AA206000021AU110020015AW1615GA1005+999999999GD10991+9999999GF100991999999999999999999KA1060M+01671KA2060N+00781MA1102135100495MD1190239+9999MW1615REMMET12901/05/21 09:53:02 METAR KPSP 051753Z 00000KT 10SM -RA CLR 17/02 A3016 RMK AO2 SLP214 P0000 60000 T01670022 10167 20078 51023 (ZP)EQDQ01  00008PRCP06
0223722868931382021010518537+33822-116504FM-15+0137KPSP V0209999C000052200059N0160935N5+01945+00225102065ADDAA101000025AU110020015AW1615GA1005+999999999GD10991+9999999GF100991999999999999999999MA1102075100425MW1615REMMET10501/05/21 10:53:02 METAR KPSP 051853Z 00000KT 10SM -RA CLR 19/02 A3014 RMK AO2 SLP206 P0000 T01940022 (ZP)
0223722868931382021010519537+33822-116504FM-15+0137KPSP V0209999C000052200059N0160935N5+02065+00225101995ADDAA101000025AU110020015AW1615GA1005+999999999GD10991+9999999GF100991999999999999999999MA1102005100355MW1615REMMET10501/05/21 11:53:02 METAR KPSP 051953Z 00000KT 10SM -RA CLR 21/02 A3012 RMK AO2 SLP199 P0000 T02060022 (ZP)
0279722868931382021010520537+33822-116504FM-15+0137KPSP V0201105N001552200059N0160935N5+02285+00115101905ADDAA101000025AA203000021AU110020015AW1615GA1005+999999999GD10991+9999999GF100991999999999999999999MA1101905100255MD1890229+9999MW1615REMMET11701/05/21 12:53:02 METAR KPSP 052053Z 11003KT 10SM -RA CLR 23/01 A3009 RMK AO2 SLP190 P0000 60000 T02280011 58022 (ZP)EQDQ01  00008PRCP03
0218722868931382021010521537+33822-116504FM-15+0137KPSP V0209999C000052200059N0160935N5+02395+00065101875ADDAA101000025AU110020015AW1615GA1005+999999999GD10991+9999999GF100991999999999999999999MA1101905100255MW1615REMMET10001/05/21 13:53:02 METAR KPSP 052153Z 00000KT 10SM -RA CLR 24/01 A3009 RMK AO2 SLP187 P0000 T02390006
0224722868931382021010522537+33822-116504FM-15+0137KPSP V0202005N001552200059N0160935N5+02395-00065101835ADDAA101000025AU110020015AW1615GA1005+999999999GD10991+9999999GF100991999999999999999999MA1101835100195MW1615REMMET10601/05/21 14:53:02 METAR KPSP 052253Z 20003KT 10SM -RA CLR 24/M01 A3007 RMK AO2 SLP183 P0000 T02391006 (ZP)
0297722868931382021010523537+33822-116504FM-15+0137KPSP V0209999C000052200059N0160935N5+02445-00065101875ADDAA101000095AA206000021GA1005+999999999GD10991+9999999GF100991999999999999999999KA1060M+02441KA2060N+01671MA1101865100225MD1590039+9999REMMET13201/05/21 15:53:02 METAR KPSP 052353Z 00000KT 10SM CLR 24/M01 A3008 RMK AO2 RAEMM SLP187 P0000 60000 T02441006 10244 20167 55003 (FS)EQDQ01  00008PRCP06
0185722868931382021010600537+33822-116504FM-15+0137KPSP V0209999V001552200059N0160935N5+02065+00175101925ADDAA101000095GA1005+999999999GD10991+9999999GF100991999999999999999999MA1101935100295REMMET09001/05/21 16:53:01 METAR KPSP 060053Z VRB03KT 10SM CLR 21/02 A3010 RMK AO2 SLP192 T02060017
0186722868931382021010601537+33822-116504FM-15+0137KPSP V0202705N003152200059N0160935N5+02005-00065102005ADDAA101000095GA1005+999999999GD10991+9999999GF100991999999999999999999MA1102005100355REMMET09101/05/21 17:53:01 METAR KPSP 060153Z 27006KT 10SM CLR 20/M01 A3012 RMK AO2 SLP200 T02001006
0205722868931382021010602537+33822-116504FM-15+0137KPSP V0209999C000052200059N0160935N5+01785+00005102095ADDAA101000095GA1005+999999999GD10991+9999999GF100991999999999999999999MA1102105100455MD1390219+9999REMMET09601/05/21 18:53:01 METAR KPSP 060253Z 00000KT 10SM CLR 18/00 A3015 RMK AO2 SLP209 T01780000 53021
0186722868931382021010603537+33822-116504FM-15+0137KPSP V0209999C000052200059N0160935N5+01675-00065102125ADDAA101000095GA1005+999999999GD10991+9999999GF100991999999999999999999MA1102105100455REMMET09101/05/21 19:53:01 METAR KPSP 060353Z 00000KT 10SM CLR 17/M01 A3015 RMK AO2 SLP212 T01671006
0186722868931382021010604537+33822-116504FM-15+0137KPSP V0203105N003152200059N0160935N5+01565-00065102115ADDAA101000095GA1005+999999999GD10991+9999999GF100991999999999999999999MA1102105100455REMMET09101/05/21 20:53:02 METAR KPSP 060453Z 31006KT 10SM CLR 16/M01 A3015 RMK AO2 SLP211 T01561006
0243722868931382021010605537+33822-116504FM-15+0137KPSP V0202905N001552200059N0160935N5+01395+00005102135ADDAA101000095GA1005+999999999GD10991+9999999GF100991999999999999999999KA1060M+02441KA2060N+01391MA1102135100495MD1190049+9999REMMET10801/05/21 21:53:02 METAR KPSP 060553Z 29003KT 10SM CLR 14/00 A3016 RMK AO2 SLP213 T01390000 10244 20139 51004
0186722868931382021010606537+33822-116504FM-15+0137KPSP V0209999C000052200059N0160935N5+01395-00175102135ADDAA101000095GA1005+999999999GD10991+9999999GF100991999999999999999999MA1102135100495REMMET09101/05/21 22:53:02 METAR KPSP 060653Z 00000KT 10SM CLR 14/M02 A3016 RMK AO2 SLP213 T01391017
0222722868931382021010607537+33822-116504FM-15+0137KPSP V0202905N002152200059N0160935N5+01505-00285102145ADDAA101000095GA1005+999999999GD10991+9999999GF100991999999999999999999KA1240M+02441KA2240N+00781MA1102135100495REMMET10101/05/21 23:53:02 METAR KPSP 060753Z 29004KT 10SM CLR 15/M03 A3016 RMK AO2 SLP214 T01501028 402440078
0844722868931382021010607596+33822-116504SOD  +0137KPSP V020999999999999999999999999999+99999+99999999999ADDAA124000096AT1AU16RA  5KA1240M+02445KA2240N+00785MG1100324101764OE11240049235099995OE22240040233099995OE33240010399999995REMSOD69224 HR PRECIPITATION (IN): 0.00 24 HR MAX TEMP (F): 7624 HR MIN TEMP (F): 46AVERAGE STATION PRESSURE:29.625 MINIMUM SEA LEVEL PRESSURE:30.05 TIME OF OCCURRENCE:0413 PEAK WIND SPEED (MPH): 11 PEAK WIND DIR (DEG):350 PEAK WIND TIME (LST):      FASTEST 2MIN SPEED (MPH):  9FASTEST 2MIN DIR (DEG):330 FASTEST 2MIN TIME (LST):     AVERAGE WIND SPEED (MPH): 2.3 24 HR AVG TEMP (F): 61DEPART FROM NORMAL:  5  HEATING DEGREE DAYS:  4 COOLING DEGREE DAYS:  0 LATEST DAY MAX TEMP (0700-1900 LST):76  LATEST NIGHT MIN TEMP(1900-0800 LST):46 HOURLY INCREMENTAL PRECIPITATION VALUES (IN):.00 0.00 T    0.00 0.00 0.00 0.00 T    T    T    T    T    T    T    T    0.00 0.00 0.00 0.00 0.00 0.00 0.00 0.00 0.00EQDR01  0.007AAP092
0206722868931382021010608537+33822-116504FM-15+0137KPSP V0203105N002652200059N0160935N5+01285-00175102135ADDAA101000095GA1005+999999999GD10991+9999999GF100991999999999999999999MA1102135100495MD1090019+9999REMMET09701/06/21 00:53:02 METAR KPSP 060853Z 31005KT 10SM CLR 13/M02 A3016 RMK AO2 SLP213 T01281017 50001
0186722868931382021010609537+33822-116504FM-15+0137KPSP V0203405N002652200059N0160935N5+01175-00395102105ADDAA101000095GA1005+999999999GD10991+9999999GF100991999999999999999999MA1102105100455REMMET09101/06/21 01:53:02 METAR KPSP 060953Z 34005KT 10SM CLR 12/M04 A3015 RMK AO2 SLP210 T01171039
0186722868931382021010610537+33822-116504FM-15+0137KPSP V0203305N003652200059N0160935N5+01225-00505102065ADDAA101000095GA1005+999999999GD10991+9999999GF100991999999999999999999MA1102075100425REMMET09101/06/21 02:53:02 METAR KPSP 061053Z 33007KT 10SM CLR 12/M05 A3014 RMK AO2 SLP206 T01221050
0244722868931382021010611537+33822-116504FM-15+0137KPSP V0203405N002652200059N0160935N5+01175-00335102025ADDAA101000095GA1005+999999999GD10991+9999999GF100991999999999999999999KA1060M+01561KA2060N+01061MA1102035100395MD1890109+9999REMMET10901/06/21 03:53:02 METAR KPSP 061153Z 34005KT 10SM CLR 12/M03 A3013 RMK AO2 SLP202 T01171033 10156 20106 58010
0186722868931382021010612537+33822-116504FM-15+0137KPSP V0203405N002152200059N0160935N5+01175-00395102055ADDAA101000095GA1005+999999999GD10991+9999999GF100991999999999999999999MA1102075100425REMMET09101/06/21 04:53:02 METAR KPSP 061253Z 34004KT 10SM CLR 12/M04 A3014 RMK AO2 SLP205 T01171039
0191722868931382021010613537+33822-116504FM-15+0137KPSP V0203405N003652200059N0160935N5+01065-00445102115ADDAA101000095GA1005+999999999GD10991+9999999GF100991999999999999999999MA1102105100455REMMET09601/06/21 05:53:02 METAR KPSP 061353Z 34007KT 10SM CLR 11/M04 A3015 RMK AO2 SLP211 T01061044 (ZP)
0211722868931382021010614537+33822-116504FM-15+0137KPSP V0209999C000052200059N0160935N5+01065-00395102175ADDAA101000095GA1005+999999999GD10991+9999999GF100991999999999999999999MA1102175100525MD1390139+9999REMMET10201/06/21 06:53:02 METAR KPSP 061453Z 00000KT 10SM CLR 11/M04 A3017 RMK AO2 SLP217 T01061039 53013 (ZP)
0191722868931382021010615537+33822-116504FM-15+0137KPSP V0203305N001552200059N0160935N5+01335-00285102225ADDAA101000095GA1005+999999999GD10991+9999999GF100991999999999999999999MA1102205100555REMMET09601/06/21 07:53:02 METAR KPSP 061553Z 33003KT 10SM CLR 13/M03 A3018 RMK AO2 SLP222 T01331028 (KS)
0191722868931382021010616537+33822-116504FM-15+0137KPSP V0209999C000052200059N0160935N5+01565-00445102265ADDAA101000095GA1005+999999999GD10991+9999999GF100991999999999999999999MA1102275100625REMMET09601/06/21 08:53:02 METAR KPSP 061653Z 00000KT 10SM CLR 16/M04 A3020 RMK AO2 SLP226 T01561044 (DD)
0249722868931382021010617537+33822-116504FM-15+0137KPSP V0209999C000052200059N0160935N5+01675-00065102265ADDAA101000095GA1005+999999999GD10991+9999999GF100991999999999999999999KA1060M+01721KA2060N+01001MA1102275100625MD1090099+9999REMMET11401/06/21 09:53:02 METAR KPSP 061753Z 00000KT 10SM CLR 17/M01 A3020 RMK AO2 SLP226 T01671006 10172 20100 50009 (DD)
0249722868931382021010618537+33822-116504FM-15+0137KPSP V0209999C000052200059N0160935N5+01945-00225102165ADDAA101000025AU130020015AW1635GA1005+999999999GD10991+9999999GF100991999999999999999999MA1102175100525MW1635REMMET11201/06/21 10:53:02 METAR KPSP 061853Z 00000KT 10SM +RA CLR 19/M02 A3017 RMK AO2 RAB08 SLP216 T01941022 PNO $ (DD)EQDQ0163    2PRSWOA
0232722868931382021010619537+33822-116504FM-15+0137KPSP V0209999C000052200059N0160935N5+02175-00445102045ADDAU130020015AW1635GA1005+999999999GD10991+9999999GF100991999999999999999999MA1102035100395MW1635REMMET10601/06/21 11:53:02 METAR KPSP 061953Z 00000KT 10SM +RA CLR 22/M04 A3013 RMK AO2 SLP204 T02171044 PNO $ (DD)EQDQ0163    2PRSWOA
0258722868931382021010620537+33822-116504FM-15+0137KPSP V0201105N001552200059N0160935N5+02285-00395101945ADDAU130020015AW1635GA1005+999999999GD10991+9999999GF100991999999999999999999MA1101965100325MD1890309+9999MW1635REMMET11801/06/21 12:53:02 METAR KPSP 062053Z 11003KT 10SM +RA CLR 23/M04 A3011 RMK AO2 SLP194 6//// T02281039 58030 PNO $ (KS)EQDQ0163    2PRSWOA
0213722868931382021010621537+33822-116504FM-15+0137KPSP V0201505N002659999999N0160935N5+02285-00445101885ADDAA101000025AU130020015AW1635MA1101905100255MW1635REMMET10101/06/21 13:53:02 METAR KPSP 062153Z 15005KT 10SM +RA 23/M04 A3009 RMK AO2 RAB26 SLP188 T02281044 PNOEQDR01      7SKY009R02      7GAS009D01      0ADE735
0201722868931382021010622537+33822-116504FM-15+0137KPSP V0201205N002652200059N0160935N5+02285-00285101885ADDAA101000025GA1005+999999999GD10991+9999999GF100991999999999999999999MA1101905100255REMMET10601/06/21 14:53:02 METAR KPSP 062253Z 12005KT 10SM CLR 23/M03 A3009 RMK AO2 RAE18 SLP188 T02281028 PNO (OL)
0228722868931382021010623537+33822-116504FM-15+0137KPSP V0201305N002152200059N0160935N5+02225-00225101905ADDGA1005+999999999GD10991+9999999GF100991999999999999999999KA1060M+02331KA2060N+01671MA1101935100295REMMET11801/06/21 15:53:02 METAR KPSP 062353Z 13004KT 10SM CLR 22/M02 A3010 RMK AO2 SLP190 6//// T02221022 10233 20167 PNO (LO)
0179722868931382021010700537+33822-116504FM-15+0137KPSP V0209999C000052200059N0160935N5+02005-00175101925ADDGA1005+999999999GD10991+9999999GF100991999999999999999999MA1101935100295REMMET09501/06/21 16:53:01 METAR KPSP 070053Z 00000KT 10SM CLR 20/M02 A3010 RMK AO2 SLP192 T02001017 PNO
0179722868931382021010701537+33822-116504FM-15+0137KPSP V0209999C000052200059N0160935N5+01835-00065101965ADDGA1005+999999999GD10991+9999999GF100991999999999999999999MA1101965100325REMMET09501/06/21 17:53:01 METAR KPSP 070153Z 00000KT 10SM CLR 18/M01 A3011 RMK AO2 SLP196 T01831006 PNO
0204722868931382021010702537+33822-116504FM-15+0137KPSP V0203305N002152200059N0160935N5+01725+00005101975ADDGA1005+999999999GD10991+9999999GF100991999999999999999999MA1101965100325MD1390059+9999REMMET10601/06/21 18:53:01 METAR KPSP 070253Z 33004KT 10SM CLR 17/00 A3011 RMK AO2 SLP197 6//// T01720000 53005 PNO
0179722868931382021010703537+33822-116504FM-15+0137KPSP V0203305N002152200059N0160935N5+01505-00175102005ADDGA1005+999999999GD10991+9999999GF100991999999999999999999MA1102005100355REMMET09501/06/21 19:53:01 METAR KPSP 070353Z 33004KT 10SM CLR 15/M02 A3012 RMK AO2 SLP200 T01501017 PNO
0181722868931382021010704537+33822-116504FM-15+0137KPSP V0203405N003152200059N0160935N5+01395-00115102035ADDGA1005+999999999GD10991+9999999GF100991999999999999999999MA1102035100395REMMET09701/06/21 20:53:02 METAR KPSP 070453Z 34006KT 10SM CLR 14/M01 A3013 RMK AO2 SLP203 T01391011 PNO $
0245722868931382021010705537+33822-116504FM-15+0137KPSP V0203405N001552200059N0160935N5+01285-00225102015ADDGA1005+999999999GD10991+9999999GF100991999999999999999999KA1060M+02221KA2060N+01281MA1102005100355MD1090059+9999REMMET12101/06/21 21:53:02 METAR KPSP 070553Z 34003KT 10SM CLR 13/M02 A3012 RMK AO2 SLP201 6//// T01281022 10222 20128 50005 PNO $
0181722868931382021010706537+33822-116504FM-15+0137KPSP V0209999C000052200059N0160935N5+01335-00285101975ADDGA1005+999999999GD10991+9999999GF100991999999999999999999MA1101965100325REMMET09701/06/21 22:53:02 METAR KPSP 070653Z 00000KT 10SM CLR 13/M03 A3011 RMK AO2 SLP197 T01331028 PNO $
0217722868931382021010707537+33822-116504FM-15+0137KPSP V0203305N002652200059N0160935N5+01175-00175101995ADDGA1005+999999999GD10991+9999999GF100991999999999999999999KA1240M+02331KA2240N+01001MA1102005100355REMMET10701/06/21 23:53:02 METAR KPSP 070753Z 33005KT 10SM CLR 12/M02 A3012 RMK AO2 SLP199 T01171017 402330100 PNO $
0841722868931382021010707596+33822-116504SOD  +0137KPSP V020999999999999999999999999999+99999+99999999999ADDAA124000096AT1AU16RA  5KA1240M+02335KA2240N+01005MG1100394101864OE11240053633099995OE22240044732099995OE33240016199999995REMSOD68924 HR PRECIPITATION (IN): 0.00 24 HR MAX TEMP (F): 7424 HR MIN TEMP (F): 50AVERAGE STATION PRESSURE:29.645 MINIMUM SEA LEVEL PRESSURE:30.08 TIME OF OCCURRENCE:1456 PEAK WIND SPEED (MPH): 12 PEAK WIND DIR (DEG):330 PEAK WIND TIME (LST):      FASTEST 2MIN SPEED (MPH): 10FASTEST 2MIN DIR (DEG):320 FASTEST 2MIN TIME (LST):     AVERAGE WIND SPEED (MPH): 3.6 24 HR AVG TEMP (F): 62DEPART FROM NORMAL:  5  HEATING DEGREE DAYS:  3 COOLING DEGREE DAYS:  0 LATEST DAY MAX TEMP (0700-1900 LST):74  LATEST NIGHT MIN TEMP(1900-0800 LST):50 HOURLY INCREMENTAL PRECIPITATION VALUES (IN):.00 0.00 0.00 0.00 0.00 0.00 0.00 0.00 0.00 0.00 T    M    M    T    T    M    M    M    M    M    M    M    M    MEQDR01  0.007AAP092
0207722868931382021010708537+33822-116504FM-15+0137KPSP V0203505N002152200059N0160935N5+01065-00225101975ADDGA1005+999999999GD10991+9999999GF100991999999999999999999MA1101965100325MD1690039+9999REMMET10901/07/21 00:53:02 METAR KPSP 070853Z 35004KT 10SM CLR 11/M02 A3011 RMK AO2 SLP197 6//// T01061022 56003 PNO $
0181722868931382021010709537+33822-116504FM-15+0137KPSP V0203505N003152200059N0160935N5+01065-00225101965ADDGA1005+999999999GD10991+9999999GF100991999999999999999999MA1101965100325REMMET09701/07/21 01:53:02 METAR KPSP 070953Z 35006KT 10SM CLR 11/M02 A3011 RMK AO2 SLP196 T01061022 PNO $
0181722868931382021010710537+33822-116504FM-15+0137KPSP V0202805N001552200059N0160935N5+00835-00065101985ADDGA1005+999999999GD10991+9999999GF100991999999999999999999MA1102005100355REMMET09701/07/21 02:53:02 METAR KPSP 071053Z 28003KT 10SM CLR 08/M01 A3012 RMK AO2 SLP198 T00831006 PNO $
0262722868931382021010711537+33822-116504FM-15+0137KPSP V0203405N003652200059N0160935N5+01115-00285101945ADDAA124999919GA1005+999999999GD10991+9999999GF100991999999999999999999KA1060M+01331KA2060N+00831MA1101935100295MD1890039+9999REMMET12701/07/21 03:53:02 METAR KPSP 071153Z 34007KT 10SM CLR 11/M03 A3010 RMK AO2 SLP194 6//// 7//// T01111028 10133 20083 58003 PNO $
0181722868931382021010712537+33822-116504FM-15+0137KPSP V0203305N002652200059N0160935N5+01005-00285101955ADDGA1005+999999999GD10991+9999999GF100991999999999999999999MA1101935100295REMMET09701/07/21 04:53:02 METAR KPSP 071253Z 33005KT 10SM CLR 10/M03 A3010 RMK AO2 SLP195 T01001028 PNO $
0186722868931382021010713537+33822-116504FM-15+0137KPSP V0203405N002652200059N0160935N5+00945-00285102015ADDGA1005+999999999GD10991+9999999GF100991999999999999999999MA1102005100355REMMET10201/07/21 05:53:02 METAR KPSP 071353Z 34005KT 10SM CLR 09/M03 A3012 RMK AO2 SLP201 T00941028 PNO $ (DD)
0212722868931382021010714537+33822-116504FM-15+0137KPSP V0203305N002152200059N0160935N5+00945-00285102045ADDGA1005+999999999GD10991+9999999GF100991999999999999999999MA1102035100395MD1390099+9999REMMET11401/07/21 06:53:02 METAR KPSP 071453Z 33004KT 10SM CLR 09/M03 A3013 RMK AO2 SLP204 6//// T00941028 53009 PNO $ (DD)
0186722868931382021010715537+33822-116504FM-15+0137KPSP V0203105N002152200059N0160935N5+01115-00335102105ADDGA1005+999999999GD10991+9999999GF100991999999999999999999MA1102105100455REMMET10201/07/21 07:53:02 METAR KPSP 071553Z 31004KT 10SM CLR 11/M03 A3015 RMK AO2 SLP210 T01111033 PNO $ (DD)
0186722868931382021010716537+33822-116504FM-15+0137KPSP V0209999C000052200059N0160935N5+01505-00335102165ADDGA1005+999999999GD10991+9999999GF100991999999999999999999MA1102175100525REMMET10201/07/21 08:53:02 METAR KPSP 071653Z 00000KT 10SM CLR 15/M03 A3017 RMK AO2 SLP216 T01501033 PNO $ (DD)
0250722868931382021010717537+33822-116504FM-15+0137KPSP V0209999C000052200059N0160935N5+01785-00175102165ADDGA1005+999999999GD10991+9999999GF100991999999999999999999KA1060M+01781KA2060N+00831MA1102175100525MD1190139+9999REMMET12601/07/21 09:53:02 METAR KPSP 071753Z 00000KT 10SM CLR 18/M02 A3017 RMK AO2 SLP216 6//// T01781017 10178 20083 51013 PNO $ (DD)
0186722868931382021010718537+33822-116504FM-15+0137KPSP V0201205N002652200059N0160935N5+02065-00505102085ADDGA1005+999999999GD10991+9999999GF100991999999999999999999MA1102105100455REMMET10201/07/21 10:53:02 METAR KPSP 071853Z 12005KT 10SM CLR 21/M05 A3015 RMK AO2 SLP208 T02061050 PNO $ (AG)
0186722868931382021010719537+33822-116504FM-15+0137KPSP V0209999V002652200059N0160935N5+02225-00445101955ADDGA1005+999999999GD10991+9999999GF100991999999999999999999MA1101965100325REMMET10201/07/21 11:53:02 METAR KPSP 071953Z VRB05KT 10SM CLR 22/M04 A3011 RMK AO2 SLP195 T02221044 PNO $ (AG)
0212722868931382021010720537+33822-116504FM-15+0137KPSP V0209999V003152200059N0160935N5+02285-00395101865ADDGA1005+999999999GD10991+9999999GF100991999999999999999999MA1101865100225MD1890299+9999REMMET11401/07/21 12:53:02 METAR KPSP 072053Z VRB06KT 10SM CLR 23/M04 A3008 RMK AO2 SLP186 6//// T02281039 58029 PNO $ (AG)
0186722868931382021010721537+33822-116504FM-15+0137KPSP V0200905N001552200059N0160935N5+02395-00445101815ADDGA1005+999999999GD10991+9999999GF100991999999999999999999MA1101835100195REMMET10201/07/21 13:53:02 METAR KPSP 072153Z 09003KT 10SM CLR 24/M04 A3007 RMK AO2 SLP181 T02391044 PNO $ (AG)
0186722868931382021010722537+33822-116504FM-15+0137KPSP V0201305N002652200059N0160935N5+02395-00395101815ADDGA1005+999999999GD10991+9999999GF100991999999999999999999MA1101795100155REMMET10201/07/21 14:53:02 METAR KPSP 072253Z 13005KT 10SM CLR 24/M04 A3006 RMK AO2 SLP181 T02391039 PNO $ (AG)
0250722868931382021010723537+33822-116504FM-15+0137KPSP V0201105N002152200059N0160935N5+02285-00225101815ADDGA1005+999999999GD10991+9999999GF100991999999999999999999KA1060M+02391KA2060N+01781MA1101835100195MD1590059+9999REMMET12601/07/21 15:53:02 METAR KPSP 072353Z 11004KT 10SM CLR 23/M02 A3007 RMK AO2 SLP181 6//// T02281022 10239 20178 55005 PNO $ (ZC)
0181722868931382021010800537+33822-116504FM-15+0137KPSP V0201305N001552200059N0160935N5+02065-00065101875ADDGA1005+999999999GD10991+9999999GF100991999999999999999999MA1101865100225REMMET09701/07/21 16:53:01 METAR KPSP 080053Z 13003KT 10SM CLR 21/M01 A3008 RMK AO2 SLP187 T02061006 PNO $
0180722868931382021010801537+33822-116504FM-15+0137KPSP V0209999C000052200059N0160935N5+01945+00065101885ADDGA1005+999999999GD10991+9999999GF100991999999999999999999MA1101905100255REMMET09601/07/21 17:53:01 METAR KPSP 080153Z 00000KT 10SM CLR 19/01 A3009 RMK AO2 SLP188 T01940006 PNO $
0206722868931382021010802537+33822-116504FM-15+0137KPSP V0203105N001552200059N0160935N5+01785+00005101915ADDGA1005+999999999GD10991+9999999GF100991999999999999999999MA1101905100255MD1190099+9999REMMET10801/07/21 18:53:01 METAR KPSP 080253Z 31003KT 10SM CLR 18/00 A3009 RMK AO2 SLP191 6//// T01780000 51009 PNO $
0181722868931382021010803537+33822-116504FM-15+0137KPSP V0203505N002152200059N0160935N5+01505-00115101935ADDGA1005+999999999GD10991+9999999GF100991999999999999999999MA1101935100295REMMET09701/07/21 19:53:01 METAR KPSP 080353Z 35004KT 10SM CLR 15/M01 A3010 RMK AO2 SLP193 T01501011 PNO $
0181722868931382021010804537+33822-116504FM-15+0137KPSP V0203405N002652200059N0160935N5+01395-00115101945ADDGA1005+999999999GD10991+9999999GF100991999999999999999999MA1101935100295REMMET09701/07/21 20:53:02 METAR KPSP 080453Z 34005KT 10SM CLR 14/M01 A3010 RMK AO2 SLP194 T01391011 PNO $
0245722868931382021010805537+33822-116504FM-15+0137KPSP V0203305N003152200059N0160935N5+01285-00115101945ADDGA1005+999999999GD10991+9999999GF100991999999999999999999KA1060M+02281KA2060N+01281MA1101935100295MD1090029+9999REMMET12101/07/21 21:53:02 METAR KPSP 080553Z 33006KT 10SM CLR 13/M01 A3010 RMK AO2 SLP194 6//// T01281011 10228 20128 50002 PNO $
0181722868931382021010806537+33822-116504FM-15+0137KPSP V0203405N003152200059N0160935N5+01225-00395101935ADDGA1005+999999999GD10991+9999999GF100991999999999999999999MA1101935100295REMMET09701/07/21 22:53:01 METAR KPSP 080653Z 34006KT 10SM CLR 12/M04 A3010 RMK AO2 SLP193 T01221039 PNO $
0217722868931382021010807537+33822-116504FM-15+0137KPSP V0203105N001552200059N0160935N5+01335-00445101935ADDGA1005+999999999GD10991+9999999GF100991999999999999999999KA1240M+02391KA2240N+00831MA1101935100295REMMET10701/07/21 23:53:01 METAR KPSP 080753Z 31003KT 10SM CLR 13/M04 A3010 RMK AO2 SLP193 T01331044 402390083 PNO /
0810722868931382021010807596+33822-116504SOD  +0137KPSP V020999999999999999999999999999+99999+99999999999ADDAA124000095KA1240M+02395KA2240N+00835MG1100304101794OE11240049232099995OE22240040234099995OE33240018399999995REMSOD68924 HR PRECIPITATION (IN): 0.00 24 HR MAX TEMP (F): 7524 HR MIN TEMP (F): 47AVERAGE STATION PRESSURE:29.620 MINIMUM SEA LEVEL PRESSURE:30.06 TIME OF OCCURRENCE:1554 PEAK WIND SPEED (MPH): 11 PEAK WIND DIR (DEG):320 PEAK WIND TIME (LST):      FASTEST 2MIN SPEED (MPH):  9FASTEST 2MIN DIR (DEG):340 FASTEST 2MIN TIME (LST):     AVERAGE WIND SPEED (MPH): 4.1 24 HR AVG TEMP (F): 61DEPART FROM NORMAL:  4  HEATING DEGREE DAYS:  4 COOLING DEGREE DAYS:  0 LATEST DAY MAX TEMP (0700-1900 LST):75  LATEST NIGHT MIN TEMP(1900-0800 LST):47 HOURLY INCREMENTAL PRECIPITATION VALUES (IN):    M    M    M    M    M    M    M    M    M    M    M    M    M    M    M    M    M    M    M    M    M    M    M
0207722868931382021010808537+33822-116504FM-15+0137KPSP V0203405N003152200059N0160935N5+01175-00445101925ADDGA1005+999999999GD10991+9999999GF100991999999999999999999MA1101935100295MD1890019+9999REMMET10901/08/21 00:53:02 METAR KPSP 080853Z 34006KT 10SM CLR 12/M04 A3010 RMK AO2 SLP192 6//// T01171044 58001 PNO $
0181722868931382021010809537+33822-116504FM-15+0137KPSP V0203305N003652200059N0160935N5+01115-00445101935ADDGA1005+999999999GD10991+9999999GF100991999999999999999999MA1101935100295REMMET09701/08/21 01:53:02 METAR KPSP 080953Z 33007KT 10SM CLR 11/M04 A3010 RMK AO2 SLP193 T01111044 PNO $
0181722868931382021010810537+33822-116504FM-15+0137KPSP V0203205N002152200059N0160935N5+01005-00395101885ADDGA1005+999999999GD10991+9999999GF100991999999999999999999MA1101905100255REMMET09701/08/21 02:53:02 METAR KPSP 081053Z 32004KT 10SM CLR 10/M04 A3009 RMK AO2 SLP188 T01001039 PNO $
0262722868931382021010811537+33822-116504FM-15+0137KPSP V0203105N001552200059N0160935N5+00945-00445101905ADDAA124999919GA1005+999999999GD10991+9999999GF100991999999999999999999KA1060M+01331KA2060N+00891MA1101905100255MD1890039+9999REMMET12701/08/21 03:53:02 METAR KPSP 081153Z 31003KT 10SM CLR 09/M04 A3009 RMK AO2 SLP190 6//// 7//// T00941044 10133 20089 58003 PNO $
0181722868931382021010812537+33822-116504FM-15+0137KPSP V0203005N002652200059N0160935N5+01175-00445101955ADDGA1005+999999999GD10991+9999999GF100991999999999999999999MA1101965100325REMMET09701/08/21 04:53:02 METAR KPSP 081253Z 30005KT 10SM CLR 12/M04 A3011 RMK AO2 SLP195 T01171044 PNO $
0186722868931382021010813537+33822-116504FM-15+0137KPSP V0203305N003152200059N0160935N5+01175-00615101965ADDGA1005+999999999GD10991+9999999GF100991999999999999999999MA1101965100325REMMET10201/08/21 05:53:02 METAR KPSP 081353Z 33006KT 10SM CLR 12/M06 A3011 RMK AO2 SLP196 T01171061 PNO $ (CM)
0210722868931382021010814537+33822-116504FM-15+0137KPSP V0203305N003152200059N0160935N5+01065-00505102015ADDGA1005+999999999GD10991+9999999GF100991999999999999999999MA1102005100355MD1190119+9999REMMET11201/08/21 06:53:02 METAR KPSP 081453Z 33006KT 10SM CLR 11/M05 A3012 RMK AO2 SLP201 6//// T01061050 51011 PNO (CM)
0184722868931382021010815537+33822-116504FM-15+0137KPSP V0203405N003152200059N0160935N5+01065-00565102095ADDGA1005+999999999GD10991+9999999GF100991999999999999999999MA1102075100425REMMET10001/08/21 07:53:02 METAR KPSP 081553Z 34006KT 10SM CLR 11/M06 A3014 RMK AO2 SLP209 T01061056 PNO (FS)
0180722868931382021010816537+33822-116504FM-15+0137KPSP V0203305N002652200059N0160935N5+01445-00505102155ADDGA1005+999999999GD10991+9999999GF100991999999999999999999MA1102175100525REMMET09601/08/21 08:53:02 METAR KPSP 081653Z 33005KT 10SM CLR 14/M05 A3017 RMK AO2 SLP215 T01441050 (CM)
0255722868931382021010817537+33822-116504FM-15+0137KPSP V0209999C000052200059N0160935N5+01835-00115102145ADDAA101000095GA1005+999999999GD10991+9999999GF100991999999999999999999KA1060M+01831KA2060N+00781MA1102135100495MD1090129+9999REMMET12001/08/21 09:53:02 METAR KPSP 081753Z 00000KT 10SM CLR 18/M01 A3016 RMK AO2 SLP214 6//// T01831011 10183 20078 50012 (RC)
0191722868931382021010818537+33822-116504FM-15+0137KPSP V0209999C000052200059N0160935N5+02175-00445102025ADDAA101000095GA1005+999999999GD10991+9999999GF100991999999999999999999MA1102035100395REMMET09601/08/21 10:53:02 METAR KPSP 081853Z 00000KT 10SM CLR 22/M04 A3013 RMK AO2 SLP202 T02171044 (RC)
0191722868931382021010819537+33822-116504FM-15+0137KPSP V0209999C000052200059N0160935N5+02445-00835101905ADDAA101000095GA1005+999999999GD10991+9999999GF100991999999999999999999MA1101905100255REMMET09601/08/21 11:53:02 METAR KPSP 081953Z 00000KT 10SM CLR 24/M08 A3009 RMK AO2 SLP190 T02441083 (CM)
0211722868931382021010820537+33822-116504FM-15+0137KPSP V0201605N002652200059N0160935N5+02505-00725101795ADDAA101000095GA1005+999999999GD10991+9999999GF100991999999999999999999MA1101795100155MD1690339+9999REMMET10201/08/21 12:53:02 METAR KPSP 082053Z 16005KT 10SM CLR 25/M07 A3006 RMK AO2 SLP179 T02501072 56033 (CM)
0191722868931382021010821537+33822-116504FM-15+0137KPSP V0200905N002652200059N0160935N5+02505-00835101705ADDAA101000095GA1005+999999999GD10991+9999999GF100991999999999999999999MA1101695100055REMMET09601/08/21 13:53:02 METAR KPSP 082153Z 09005KT 10SM CLR 25/M08 A3003 RMK AO2 SLP170 T02501083 (CM)
0191722868931382021010822537+33822-116504FM-15+0137KPSP V0201405N003152200059N0160935N5+02505-00675101685ADDAA101000095GA1005+999999999GD10991+9999999GF100991999999999999999999MA1101695100055REMMET09601/08/21 14:53:02 METAR KPSP 082253Z 14006KT 10SM CLR 25/M07 A3003 RMK AO2 SLP168 T02501067 (LO)
0249722868931382021010823537+33822-116504FM-15+0137KPSP V0201105N004152200059N0160935N5+02395-00505101705ADDAA101000095GA1005+999999999GD10991+9999999GF100991999999999999999999KA1060M+02561KA2060N+01891MA1101735100095MD1590099+9999REMMET11401/08/21 15:53:02 METAR KPSP 082353Z 11008KT 10SM CLR 24/M05 A3004 RMK AO2 SLP170 T02391050 10256 20189 55009 (AG)
0186722868931382021010900537+33822-116504FM-15+0137KPSP V0200905N002152200059N0160935N5+02065-00175101755ADDAA101000095GA1005+999999999GD10991+9999999GF100991999999999999999999MA1101765100125REMMET09101/08/21 16:53:01 METAR KPSP 090053Z 09004KT 10SM CLR 21/M02 A3005 RMK AO2 SLP175 T02061017
0186722868931382021010901537+33822-116504FM-15+0137KPSP V0201705N001552200059N0160935N5+01785-00335101835ADDAA101000095GA1005+999999999GD10991+9999999GF100991999999999999999999MA1101835100195REMMET09101/08/21 17:53:01 METAR KPSP 090153Z 17003KT 10SM CLR 18/M03 A3007 RMK AO2 SLP183 T01781033
0206722868931382021010902537+33822-116504FM-15+0137KPSP V0209999C000052200059N0160935N5+01615-00175101855ADDAA101000095GA1005+999999999GD10991+9999999GF100991999999999999999999MA1101865100225MD1190139+9999REMMET09701/08/21 18:53:01 METAR KPSP 090253Z 00000KT 10SM CLR 16/M02 A3008 RMK AO2 SLP185 T01611017 51013
0186722868931382021010903537+33822-116504FM-15+0137KPSP V0203605N004152200059N0160935N5+01445-00395101885ADDAA101000095GA1005+999999999GD10991+9999999GF100991999999999999999999MA1101865100225REMMET09101/08/21 19:53:01 METAR KPSP 090353Z 36008KT 10SM CLR 14/M04 A3008 RMK AO2 SLP188 T01441039
0186722868931382021010904537+33822-116504FM-15+0137KPSP V0203305N002652200059N0160935N5+01285-00505101885ADDAA101000095GA1005+999999999GD10991+9999999GF100991999999999999999999MA1101905100255REMMET09101/08/21 20:53:02 METAR KPSP 090453Z 33005KT 10SM CLR 13/M05 A3009 RMK AO2 SLP188 T01281050
0244722868931382021010905537+33822-116504FM-15+0137KPSP V0203305N002652200059N0160935N5+01225-00335101845ADDAA101000095GA1005+999999999GD10991+9999999GF100991999999999999999999KA1060M+02391KA2060N+01221MA1101835100195MD1890019+9999REMMET10901/08/21 21:53:02 METAR KPSP 090553Z 33005KT 10SM CLR 12/M03 A3007 RMK AO2 SLP184 T01221033 10239 20122 58001
0186722868931382021010906537+33822-116504FM-15+0137KPSP V0203305N003152200059N0160935N5+01225-00445101785ADDAA101000095GA1005+999999999GD10991+9999999GF100991999999999999999999MA1101795100155REMMET09101/08/21 22:53:02 METAR KPSP 090653Z 33006KT 10SM CLR 12/M04 A3006 RMK AO2 SLP178 T01221044
0222722868931382021010907537+33822-116504FM-15+0137KPSP V0202805N002152200059N0160935N5+01225-00505101725ADDAA101000095GA1005+999999999GD10991+9999999GF100991999999999999999999KA1240M+02561KA2240N+00781MA1101735100095REMMET10101/08/21 23:53:02 METAR KPSP 090753Z 28004KT 10SM CLR 12/M05 A3004 RMK AO2 SLP172 T01221050 402560078
0813722868931382021010907596+33822-116504SOD  +0137KPSP V020999999999999999999999999999+99999+99999999999ADDAA124000095KA1240M+02565KA2240N+00785MG1100244101664OE11240058112099995OE22240053611099995OE33240022899999995REMSOD69224 HR PRECIPITATION (IN): 0.00 24 HR MAX TEMP (F): 7824 HR MIN TEMP (F): 46AVERAGE STATION PRESSURE:29.600 MINIMUM SEA LEVEL PRESSURE:30.02 TIME OF OCCURRENCE:1451 PEAK WIND SPEED (MPH): 13 PEAK WIND DIR (DEG):120 PEAK WIND TIME (LST):      FASTEST 2MIN SPEED (MPH): 12FASTEST 2MIN DIR (DEG):110 FASTEST 2MIN TIME (LST):     AVERAGE WIND SPEED (MPH): 5.1 24 HR AVG TEMP (F): 62DEPART FROM NORMAL:  5  HEATING DEGREE DAYS:  3 COOLING DEGREE DAYS:  0 LATEST DAY MAX TEMP (0700-1900 LST):78  LATEST NIGHT MIN TEMP(1900-0800 LST):46 HOURLY INCREMENTAL PRECIPITATION VALUES (IN):    M    M    M    M    M    M    M    M    0.00 0.00 0.00 0.00 0.00 0.00 0.00 0.00 0.00 0.00 0.00 0.00 0.00 0.00 0.00
0206722868931382021010908537+33822-116504FM-15+0137KPSP V0209999V002152200059N0160935N5+01115-00565101685ADDAA101000095GA1005+999999999GD10991+9999999GF100991999999999999999999MA1101695100055MD1690149+9999REMMET09701/09/21 00:53:02 METAR KPSP 090853Z VRB04KT 10SM CLR 11/M06 A3003 RMK AO2 SLP168 T01111056 56014
0186722868931382021010909537+33822-116504FM-15+0137KPSP V0209999C000052200059N0160935N5+00945-00395101665ADDAA101000095GA1005+999999999GD10991+9999999GF100991999999999999999999MA1101665100025REMMET09101/09/21 01:53:02 METAR KPSP 090953Z 00000KT 10SM CLR 09/M04 A3002 RMK AO2 SLP166 T00941039
0186722868931382021010910537+33822-116504FM-15+0137KPSP V0203205N002152200059N0160935N5+01065-00565101645ADDAA101000095GA1005+999999999GD10991+9999999GF100991999999999999999999MA1101665100025REMMET09101/09/21 02:53:02 METAR KPSP 091053Z 32004KT 10SM CLR 11/M06 A3002 RMK AO2 SLP164 T01061056
0250722868931382021010911537+33822-116504FM-15+0137KPSP V0203605N002152200059N0160935N5+00945-00505101645ADDAA101000095GA1005+999999999GD10991+9999999GF100991999999999999999999KA1060M+01281KA2060N+00891MA1101665100025MD1590049+9999REMMET11501/09/21 03:53:02 METAR KPSP 091153Z 36004KT 10SM CLR 09/M05 A3002 RMK AO2 SLP164 7//// T00941050 10128 20089 55004
0186722868931382021010912537+33822-116504FM-15+0137KPSP V0203405N003152200059N0160935N5+00945-00505101655ADDAA101000095GA1005+999999999GD10991+9999999GF100991999999999999999999MA1101665100025REMMET09101/09/21 04:53:02 METAR KPSP 091253Z 34006KT 10SM CLR 09/M05 A3002 RMK AO2 SLP165 T00941050
0191722868931382021010913537+33822-116504FM-15+0137KPSP V0202805N002152200059N0160935N5+00835-00445101755ADDAA101000095GA1005+999999999GD10991+9999999GF100991999999999999999999MA1101765100125REMMET09601/09/21 05:53:02 METAR KPSP 091353Z 28004KT 10SM CLR 08/M04 A3005 RMK AO2 SLP175 T00831044 (CM)
0211722868931382021010914537+33822-116504FM-15+0137KPSP V0202705N004152200059N0160935N5+01115-00565101875ADDAA101000095GA1005+999999999GD10991+9999999GF100991999999999999999999MA1101865100225MD1390229+9999REMMET10201/09/21 06:53:02 METAR KPSP 091453Z 27008KT 10SM CLR 11/M06 A3008 RMK AO2 SLP187 T01111056 53022 (LO)
0191722868931382021010915537+33822-116504FM-15+0137KPSP V0202505N003152200059N0160935N5+01395-00565102025ADDAA101000095GA1005+999999999GD10991+9999999GF100991999999999999999999MA1102035100395REMMET09601/09/21 07:53:02 METAR KPSP 091553Z 25006KT 10SM CLR 14/M06 A3013 RMK AO2 SLP202 T01391056 (LO)
0191722868931382021010916537+33822-116504FM-15+0137KPSP V0209999V003152200059N0160935N5+01945-00565102145ADDAA101000095GA1005+999999999GD10991+9999999GF100991999999999999999999MA1102135100495REMMET09601/09/21 08:53:02 METAR KPSP 091653Z VRB06KT 10SM CLR 19/M06 A3016 RMK AO2 SLP214 T01941056 (LO)
0340722868931382021010917537+33822-116504FM-15+0137KPSP V0203505N005152200059N0160935N5+02115-00725102185ADDAA101000025AA206000021AU110020015AW1615GA1005+999999999GD10991+9999999GF100991999999999999999999KA1060M+02111KA2060N+00781MA1102205100555MD1190319+9999MW1615REMMET13601/09/21 09:53:02 METAR KPSP 091753Z 35010KT 10SM -RA CLR 21/M07 A3018 RMK AO2 RAB51 SLP218 P0000 60000 T02111072 10211 20078 51031 (LO)EQDQ01  00002PRCP06Q02  00008PRCP06
0205722868931382021010918537+33822-116504FM-15+0137KPSP V0200105N003152200059N0160935N5+02175-01065102145ADDAA101000095GA1005+999999999GD10991+9999999GF100991999999999999999999MA1102175100525REMMET11001/09/21 10:53:02 METAR KPSP 091853Z 01006KT 10SM CLR 22/M11 A3017 RMK AO2 RAE1755 SLP214 P0000 T02171106 (AG)
0191722868931382021010919537+33822-116504FM-15+0137KPSP V0203605N004652200059N0160935N5+02225-01115102045ADDAA101000095GA1005+999999999GD10991+9999999GF100991999999999999999999MA1102075100425REMMET09601/09/21 11:53:02 METAR KPSP 091953Z 36009KT 10SM CLR 22/M11 A3014 RMK AO2 SLP204 T02221111 (RC)
0228722868931382021010920537+33822-116504FM-15+0137KPSP V0209999V002652200059N0160935N5+02285-01005101945ADDAA101000095AA203000021GA1005+999999999GD10991+9999999GF100991999999999999999999MA1101965100325MD1890239+9999REMMET10801/09/21 12:53:02 METAR KPSP 092053Z VRB05KT 10SM CLR 23/M10 A3011 RMK AO2 SLP194 60000 T02281100 58023 (RC)
0191722868931382021010921537+33822-116504FM-15+0137KPSP V0200505N002652200059N0160935N5+02335-01005101875ADDAA101000095GA1005+999999999GD10991+9999999GF100991999999999999999999MA1101905100255REMMET09601/09/21 13:53:02 METAR KPSP 092153Z 05005KT 10SM CLR 23/M10 A3009 RMK AO2 SLP187 T02331100 (LJ)
0191722868931382021010922537+33822-116504FM-15+0137KPSP V0200105N003652200059N0160935N5+02335-01065101855ADDAA101000095GA1005+999999999GD10991+9999999GF100991999999999999999999MA1101865100225REMMET09601/09/21 14:53:02 METAR KPSP 092253Z 01007KT 10SM CLR 23/M11 A3008 RMK AO2 SLP185 T02331106 (LJ)
0266722868931382021010923537+33822-116504FM-15+0137KPSP V0209999C000052200059N0160935N5+02285-01115101885ADDAA101000095AA206000021GA1005+999999999GD10991+9999999GF100991999999999999999999KA1060M+02391KA2060N+02111MA1101905100255MD1590069+9999REMMET12001/09/21 15:53:02 METAR KPSP 092353Z 00000KT 10SM CLR 23/M11 A3009 RMK AO2 SLP188 60000 T02281111 10239 20211 55006 (LJ)
0186722868931382021011000537+33822-116504FM-15+0137KPSP V0201605N003152200059N0160935N5+01945-00945101885ADDAA101000095GA1005+999999999GD10991+9999999GF100991999999999999999999MA1101865100225REMMET09101/09/21 16:53:01 METAR KPSP 100053Z 16006KT 10SM CLR 19/M09 A3008 RMK AO2 SLP188 T01941094
0186722868931382021011001537+33822-116504FM-15+0137KPSP V0201505N002652200059N0160935N5+01835-01065101975ADDAA101000095GA1005+999999999GD10991+9999999GF100991999999999999999999MA1101965100325REMMET09101/09/21 17:53:01 METAR KPSP 100153Z 15005KT 10SM CLR 18/M11 A3011 RMK AO2 SLP197 T01831106
0206722868931382021011002537+33822-116504FM-15+0137KPSP V0209999V002652200059N0160935N5+01615-00945102085ADDAA101000095GA1005+999999999GD10991+9999999GF100991999999999999999999MA1102075100425MD1390199+9999REMMET09701/09/21 18:53:01 METAR KPSP 100253Z VRB05KT 10SM CLR 16/M09 A3014 RMK AO2 SLP208 T01611094 53019
0186722868931382021011003537+33822-116504FM-15+0137KPSP V0209999V002652200059N0160935N5+01565-00835102155ADDAA101000095GA1005+999999999GD10991+9999999GF100991999999999999999999MA1102135100495REMMET09101/09/21 19:53:01 METAR KPSP 100353Z VRB05KT 10SM CLR 16/M08 A3016 RMK AO2 SLP215 T01561083
0186722868931382021011004537+33822-116504FM-15+0137KPSP V0202105N004652200059N0160935N5+01675-00945102195ADDAA101000095GA1005+999999999GD10991+9999999GF100991999999999999999999MA1102205100555REMMET09101/09/21 20:53:02 METAR KPSP 100453Z 21009KT 10SM CLR 17/M09 A3018 RMK AO2 SLP219 T01671094
0244722868931382021011005537+33822-116504FM-15+0137KPSP V0202605N003652200059N0160935N5+01565-00895102225ADDAA101000095GA1005+999999999GD10991+9999999GF100991999999999999999999KA1060M+02281KA2060N+01501MA1102245100595MD1190159+9999REMMET10901/09/21 21:53:02 METAR KPSP 100553Z 26007KT 10SM CLR 16/M09 A3019 RMK AO2 SLP222 T01561089 10228 20150 51015
0186722868931382021011006537+33822-116504FM-15+0137KPSP V0203105N003152200059N0160935N5+01675-00835102275ADDAA101000095GA1005+999999999GD10991+9999999GF100991999999999999999999MA1102275100625REMMET09101/09/21 22:53:02 METAR KPSP 100653Z 31006KT 10SM CLR 17/M08 A3020 RMK AO2 SLP227 T01671083
0222722868931382021011007537+33822-116504FM-15+0137KPSP V0203205N002652200059N0160935N5+01505-00835102235ADDAA101000095GA1005+999999999GD10991+9999999GF100991999999999999999999KA1240M+02391KA2240N+00781MA1102245100595REMMET10101/09/21 23:53:02 METAR KPSP 100753Z 32005KT 10SM CLR 15/M08 A3019 RMK AO2 SLP223 T01501083 402390078
0844722868931382021011007596+33822-116504SOD  +0137KPSP V020999999999999999999999999999+99999+99999999999ADDAA124000096AT1AU16RA  5KA1240M+02395KA2240N+00785MG1100324101634OE11240080503099995OE22240067133099995OE33240027399999995REMSOD69224 HR PRECIPITATION (IN): 0.00 24 HR MAX TEMP (F): 7524 HR MIN TEMP (F): 46AVERAGE STATION PRESSURE:29.625 MINIMUM SEA LEVEL PRESSURE:30.01 TIME OF OCCURRENCE:0442 PEAK WIND SPEED (MPH): 18 PEAK WIND DIR (DEG): 30 PEAK WIND TIME (LST):      FASTEST 2MIN SPEED (MPH): 15FASTEST 2MIN DIR (DEG):330 FASTEST 2MIN TIME (LST):     AVERAGE WIND SPEED (MPH): 6.1 24 HR AVG TEMP (F): 61DEPART FROM NORMAL:  4  HEATING DEGREE DAYS:  4 COOLING DEGREE DAYS:  0 LATEST DAY MAX TEMP (0700-1900 LST):75  LATEST NIGHT MIN TEMP(1900-0800 LST):46 HOURLY INCREMENTAL PRECIPITATION VALUES (IN):.00 0.00 0.00 0.00 0.00 0.00 0.00 0.00 0.00 T    0.00 0.00 0.00 0.00 0.00 0.00 0.00 0.00 0.00 0.00 0.00 0.00 0.00 0.00EQDR01  0.007AAP092
0206722868931382021011008537+33822-116504FM-15+0137KPSP V0209999C000052200059N0160935N5+01285-00725102255ADDAA101000095GA1005+999999999GD10991+9999999GF100991999999999999999999MA1102275100625MD1190039+9999REMMET09701/10/21 00:53:02 METAR KPSP 100853Z 00000KT 10SM CLR 13/M07 A3020 RMK AO2 SLP225 T01281072 51003
0186722868931382021011009537+33822-116504FM-15+0137KPSP V0203205N002152200059N0160935N5+01115-00675102285ADDAA101000095GA1005+999999999GD10991+9999999GF100991999999999999999999MA1102305100655REMMET09101/10/21 01:53:02 METAR KPSP 100953Z 32004KT 10SM CLR 11/M07 A3021 RMK AO2 SLP228 T01111067
0186722868931382021011010537+33822-116504FM-15+0137KPSP V0202905N002152200059N0160935N5+01175-00675102275ADDAA101000095GA1005+999999999GD10991+9999999GF100991999999999999999999MA1102275100625REMMET09101/10/21 02:53:02 METAR KPSP 101053Z 29004KT 10SM CLR 12/M07 A3020 RMK AO2 SLP227 T01171067
0244722868931382021011011537+33822-116504FM-15+0137KPSP V0209999V002152200059N0160935N5+01115-00675102285ADDAA101000095GA1005+999999999GD10991+9999999GF100991999999999999999999KA1060M+01831KA2060N+01061MA1102275100625MD1190039+9999REMMET10901/10/21 03:53:02 METAR KPSP 101153Z VRB04KT 10SM CLR 11/M07 A3020 RMK AO2 SLP228 T01111067 10183 20106 51003
0186722868931382021011012537+33822-116504FM-15+0137KPSP V0202405N003152200059N0160935N5+01175-00725102305ADDAA101000095GA1005+999999999GD10991+9999999GF100991999999999999999999MA1102305100655REMMET09101/10/21 04:53:02 METAR KPSP 101253Z 24006KT 10SM CLR 12/M07 A3021 RMK AO2 SLP230 T01171072
0191722868931382021011013537+33822-116504FM-15+0137KPSP V0202605N004152200059N0160935N5+01065-00565102345ADDAA101000095GA1005+999999999GD10991+9999999GF100991999999999999999999MA1102345100695REMMET09601/10/21 05:53:02 METAR KPSP 101353Z 26008KT 10SM CLR 11/M06 A3022 RMK AO2 SLP234 T01061056 (FS)
0211722868931382021011014537+33822-116504FM-15+0137KPSP V0202505N002652200059N0160935N5+01175-00675102395ADDAA101000095GA1005+999999999GD10991+9999999GF100991999999999999999999MA1102375100725MD1390109+9999REMMET10201/10/21 06:53:02 METAR KPSP 101453Z 25005KT 10SM CLR 12/M07 A3023 RMK AO2 SLP239 T01171067 53010 (FS)
0191722868931382021011015537+33822-116504FM-15+0137KPSP V0203305N002152200059N0160935N5+01115-00675102505ADDAA101000095GA1005+999999999GD10991+9999999GF100991999999999999999999MA1102515100855REMMET09601/10/21 07:53:02 METAR KPSP 101553Z 33004KT 10SM CLR 11/M07 A3027 RMK AO2 SLP250 T01111067 (CM)
0191722868931382021011016537+33822-116504FM-15+0137KPSP V0203405N001552200059N0160935N5+01505-00565102515ADDAA101000095GA1005+999999999GD10991+9999999GF100991999999999999999999MA1102515100855REMMET09601/10/21 08:53:02 METAR KPSP 101653Z 34003KT 10SM CLR 15/M06 A3027 RMK AO2 SLP251 T01501056 (FS)
0249722868931382021011017537+33822-116504FM-15+0137KPSP V0209999C000052200059N0160935N5+01785-00675102535ADDAA101000095GA1005+999999999GD10991+9999999GF100991999999999999999999KA1060M+01831KA2060N+00941MA1102545100895MD1190159+9999REMMET11401/10/21 09:53:02 METAR KPSP 101753Z 00000KT 10SM CLR 18/M07 A3028 RMK AO2 SLP253 T01781067 10183 20094 51015 (ZC)
0191722868931382021011018537+33822-116504FM-15+0137KPSP V0201405N002152200059N0160935N5+01895-00615102455ADDAA101000095GA1005+999999999GD10991+9999999GF100991999999999999999999MA1102475100825REMMET09601/10/21 10:53:02 METAR KPSP 101853Z 14004KT 10SM CLR 19/M06 A3026 RMK AO2 SLP245 T01891061 (FS)
0191722868931382021011019537+33822-116504FM-15+0137KPSP V0209999V001552200059N0160935N5+02005-00615102335ADDAA101000095GA1005+999999999GD10991+9999999GF100991999999999999999999MA1102345100695REMMET09601/10/21 11:53:02 METAR KPSP 101953Z VRB03KT 10SM CLR 20/M06 A3022 RMK AO2 SLP233 T02001061 (ZP)
0211722868931382021011020537+33822-116504FM-15+0137KPSP V0200305N002152200059N0160935N5+02175-00615102235ADDAA101000095GA1005+999999999GD10991+9999999GF100991999999999999999999MA1102245100595MD1890299+9999REMMET10201/10/21 12:53:02 METAR KPSP 102053Z 03004KT 10SM CLR 22/M06 A3019 RMK AO2 SLP223 T02171061 58029 (FS)
0191722868931382021011021537+33822-116504FM-15+0137KPSP V0209999C000052200059N0160935N5+02115-00675102195ADDAA101000095GA1005+999999999GD10991+9999999GF100991999999999999999999MA1102205100555REMMET09601/10/21 13:53:02 METAR KPSP 102153Z 00000KT 10SM CLR 21/M07 A3018 RMK AO2 SLP219 T02111067 (ZC)
0191722868931382021011022537+33822-116504FM-15+0137KPSP V0209999V002152200059N0160935N5+02115-00675102175ADDAA101000095GA1005+999999999GD10991+9999999GF100991999999999999999999MA1102175100525REMMET09601/10/21 14:53:02 METAR KPSP 102253Z VRB04KT 10SM CLR 21/M07 A3017 RMK AO2 SLP217 T02111067 (ZC)
0249722868931382021011023537+33822-116504FM-15+0137KPSP V0201405N001552200059N0160935N5+02065-00675102175ADDAA101000095GA1005+999999999GD10991+9999999GF100991999999999999999999KA1060M+02171KA2060N+01781MA1102175100525MD1690079+9999REMMET11401/10/21 15:53:02 METAR KPSP 102353Z 14003KT 10SM CLR 21/M07 A3017 RMK AO2 SLP217 T02061067 10217 20178 56007 (ZC)
0186722868931382021011100537+33822-116504FM-15+0137KPSP V0201305N002152200059N0160935N5+01835-00505102165ADDAA101000095GA1005+999999999GD10991+9999999GF100991999999999999999999MA1102175100525REMMET09101/10/21 16:53:01 METAR KPSP 110053Z 13004KT 10SM CLR 18/M05 A3017 RMK AO2 SLP216 T01831050
0186722868931382021011101537+33822-116504FM-15+0137KPSP V0200805N002152200059N0160935N5+01675-00335102255ADDAA101000095GA1005+999999999GD10991+9999999GF100991999999999999999999MA1102245100595REMMET09101/10/21 17:53:01 METAR KPSP 110153Z 08004KT 10SM CLR 17/M03 A3019 RMK AO2 SLP225 T01671033
0206722868931382021011102537+33822-116504FM-15+0137KPSP V0209999C000052200059N0160935N5+01505-00285102275ADDAA101000095GA1005+999999999GD10991+9999999GF100991999999999999999999MA1102275100625MD1390109+9999REMMET09701/10/21 18:53:01 METAR KPSP 110253Z 00000KT 10SM CLR 15/M03 A3020 RMK AO2 SLP227 T01501028 53010
0186722868931382021011103537+33822-116504FM-15+0137KPSP V0203305N003152200059N0160935N5+01285-00285102335ADDAA101000095GA1005+999999999GD10991+9999999GF100991999999999999999999MA1102345100695REMMET09101/10/21 19:53:01 METAR KPSP 110353Z 33006KT 10SM CLR 13/M03 A3022 RMK AO2 SLP233 T01281028
0186722868931382021011104537+33822-116504FM-15+0137KPSP V0203305N002652200059N0160935N5+01285-00505102385ADDAA101000095GA1005+999999999GD10991+9999999GF100991999999999999999999MA1102375100725REMMET09101/10/21 20:53:02 METAR KPSP 110453Z 33005KT 10SM CLR 13/M05 A3023 RMK AO2 SLP238 T01281050
0244722868931382021011105537+33822-116504FM-15+0137KPSP V0203305N002652200059N0160935N5+01175-00395102375ADDAA101000095GA1005+999999999GD10991+9999999GF100991999999999999999999KA1060M+02111KA2060N+01171MA1102375100725MD1090099+9999REMMET10901/10/21 21:53:02 METAR KPSP 110553Z 33005KT 10SM CLR 12/M04 A3023 RMK AO2 SLP237 T01171039 10211 20117 50009
0186722868931382021011106537+33822-116504FM-15+0137KPSP V0203505N002152200059N0160935N5+01065-00395102415ADDAA101000095GA1005+999999999GD10991+9999999GF100991999999999999999999MA1102405100755REMMET09101/10/21 22:53:02 METAR KPSP 110653Z 35004KT 10SM CLR 11/M04 A3024 RMK AO2 SLP241 T01061039
0222722868931382021011107537+33822-116504FM-15+0137KPSP V0203605N003152200059N0160935N5+00945-00395102395ADDAA101000095GA1005+999999999GD10991+9999999GF100991999999999999999999KA1240M+02171KA2240N+00941MA1102375100725REMMET10101/10/21 23:53:02 METAR KPSP 110753Z 36006KT 10SM CLR 09/M04 A3023 RMK AO2 SLP239 T00941039 402170094
0813722868931382021011107596+33822-116504SOD  +0137KPSP V020999999999999999999999999999+99999+99999999999ADDAA124000095KA1240M+02175KA2240N+00945MG1100684102174OE11240053626099995OE22240044734099995OE33240019299999995REMSOD69224 HR PRECIPITATION (IN): 0.00 24 HR MAX TEMP (F): 7124 HR MIN TEMP (F): 49AVERAGE STATION PRESSURE:29.730 MINIMUM SEA LEVEL PRESSURE:30.17 TIME OF OCCURRENCE:1714 PEAK WIND SPEED (MPH): 12 PEAK WIND DIR (DEG):260 PEAK WIND TIME (LST):      FASTEST 2MIN SPEED (MPH): 10FASTEST 2MIN DIR (DEG):340 FASTEST 2MIN TIME (LST):     AVERAGE WIND SPEED (MPH): 4.3 24 HR AVG TEMP (F): 60DEPART FROM NORMAL:  3  HEATING DEGREE DAYS:  5 COOLING DEGREE DAYS:  0 LATEST DAY MAX TEMP (0700-1900 LST):71  LATEST NIGHT MIN TEMP(1900-0800 LST):49 HOURLY INCREMENTAL PRECIPITATION VALUES (IN):.00 0.00 0.00 0.00 0.00 0.00 0.00 0.00 0.00 0.00 0.00 0.00 0.00 0.00 0.00 0.00 0.00 0.00 0.00 0.00 0.00 0.00 0.00 0.00
0206722868931382021011108537+33822-116504FM-15+0137KPSP V0202905N001552200059N0160935N5+01005-00445102385ADDAA101000095GA1005+999999999GD10991+9999999GF100991999999999999999999MA1102375100725MD1090019+9999REMMET09701/11/21 00:53:02 METAR KPSP 110853Z 29003KT 10SM CLR 10/M04 A3023 RMK AO2 SLP238 T01001044 50001
0186722868931382021011109537+33822-116504FM-15+0137KPSP V0200205N004652200059N0160935N5+01175-00565102375ADDAA101000095GA1005+999999999GD10991+9999999GF100991999999999999999999MA1102375100725REMMET09101/11/21 01:53:02 METAR KPSP 110953Z 02009KT 10SM CLR 12/M06 A3023 RMK AO2 SLP237 T01171056
0186722868931382021011110537+33822-116504FM-15+0137KPSP V0203005N002152200059N0160935N5+01065-00615102395ADDAA101000095GA1005+999999999GD10991+9999999GF100991999999999999999999MA1102405100755REMMET09101/11/21 02:53:02 METAR KPSP 111053Z 30004KT 10SM CLR 11/M06 A3024 RMK AO2 SLP239 T01061061
0244722868931382021011111537+33822-116504FM-15+0137KPSP V0209999V002152200059N0160935N5+01065-00675102375ADDAA101000095GA1005+999999999GD10991+9999999GF100991999999999999999999KA1060M+01221KA2060N+00831MA1102375100725MD1890019+9999REMMET10901/11/21 03:53:02 METAR KPSP 111153Z VRB04KT 10SM CLR 11/M07 A3023 RMK AO2 SLP237 T01061067 10122 20083 58001
0186722868931382021011112537+33822-116504FM-15+0137KPSP V0202905N002652200059N0160935N5+01005-00615102365ADDAA101000095GA1005+999999999GD10991+9999999GF100991999999999999999999MA1102375100725REMMET09101/11/21 04:53:02 METAR KPSP 111253Z 29005KT 10SM CLR 10/M06 A3023 RMK AO2 SLP236 T01001061
0191722868931382021011113537+33822-116504FM-15+0137KPSP V0209999C000052200059N0160935N5+00895-00505102425ADDAA101000095GA1005+999999999GD10991+9999999GF100991999999999999999999MA1102405100755REMMET09601/11/21 05:53:02 METAR KPSP 111353Z 00000KT 10SM CLR 09/M05 A3024 RMK AO2 SLP242 T00891050 (CM)
0211722868931382021011114537+33822-116504FM-15+0137KPSP V0202505N004152200059N0160935N5+01115-00615102445ADDAA101000095GA1005+999999999GD10991+9999999GF100991999999999999999999MA1102445100795MD1390079+9999REMMET10201/11/21 06:53:02 METAR KPSP 111453Z 25008KT 10SM CLR 11/M06 A3025 RMK AO2 SLP244 T01111061 53007 (CM)
0191722868931382021011115537+33822-116504FM-15+0137KPSP V0202905N001552200059N0160935N5+01335-00565102475ADDAA101000095GA1005+999999999GD10991+9999999GF100991999999999999999999MA1102475100825REMMET09601/11/21 07:53:02 METAR KPSP 111553Z 29003KT 10SM CLR 13/M06 A3026 RMK AO2 SLP247 T01331056 (CM)
0191722868931382021011116537+33822-116504FM-15+0137KPSP V0202305N001552200059N0160935N5+01615-00395102545ADDAA101000095GA1005+999999999GD10991+9999999GF100991999999999999999999MA1102545100895REMMET09601/11/21 08:53:02 METAR KPSP 111653Z 23003KT 10SM CLR 16/M04 A3028 RMK AO2 SLP254 T01611039 (AG)
0249722868931382021011117537+33822-116504FM-15+0137KPSP V0209999V002152200059N0160935N5+01945-00615102575ADDAA101000095GA1005+999999999GD10991+9999999GF100991999999999999999999KA1060M+01941KA2060N+00671MA1102575100925MD1290139+9999REMMET11401/11/21 09:53:02 METAR KPSP 111753Z VRB04KT 10SM CLR 19/M06 A3029 RMK AO2 SLP257 T01941061 10194 20067 52013 (DD)
0191722868931382021011118537+33822-116504FM-15+0137KPSP V0209999V001552200059N0160935N5+02005-00675102525ADDAA101000095GA1005+999999999GD10991+9999999GF100991999999999999999999MA1102515100855REMMET09601/11/21 10:53:02 METAR KPSP 111853Z VRB03KT 10SM CLR 20/M07 A3027 RMK AO2 SLP252 T02001067 (ZP)
0191722868931382021011119537+33822-116504FM-15+0137KPSP V0201505N001552200059N0160935N5+02115-00785102385ADDAA101000095GA1005+999999999GD10991+9999999GF100991999999999999999999MA1102375100725REMMET09601/11/21 11:53:02 METAR KPSP 111953Z 15003KT 10SM CLR 21/M08 A3023 RMK AO2 SLP238 T02111078 (ZP)
0211722868931382021011120537+33822-116504FM-15+0137KPSP V0201805N002152200059N0160935N5+02225-00725102295ADDAA101000095GA1005+999999999GD10991+9999999GF100991999999999999999999MA1102305100655MD1890289+9999REMMET10201/11/21 12:53:02 METAR KPSP 112053Z 18004KT 10SM CLR 22/M07 A3021 RMK AO2 SLP229 T02221072 58028 (AG)
0191722868931382021011121537+33822-116504FM-15+0137KPSP V0201605N003652200059N0160935N5+02285-00725102255ADDAA101000095GA1005+999999999GD10991+9999999GF100991999999999999999999MA1102275100625REMMET09601/11/21 13:53:02 METAR KPSP 112153Z 16007KT 10SM CLR 23/M07 A3020 RMK AO2 SLP225 T02281072 (AG)
0191722868931382021011122537+33822-116504FM-15+0137KPSP V0200805N002152200059N0160935N5+02285-00785102225ADDAA101000095GA1005+999999999GD10991+9999999GF100991999999999999999999MA1102245100595REMMET09601/11/21 14:53:02 METAR KPSP 112253Z 08004KT 10SM CLR 23/M08 A3019 RMK AO2 SLP222 T02281078 (CM)
0249722868931382021011123537+33822-116504FM-15+0137KPSP V0209999C000052200059N0160935N5+02225-00725102265ADDAA101000095GA1005+999999999GD10991+9999999GF100991999999999999999999KA1060M+02331KA2060N+01891MA1102275100625MD1590029+9999REMMET11401/11/21 15:53:02 METAR KPSP 112353Z 00000KT 10SM CLR 22/M07 A3020 RMK AO2 SLP226 T02221072 10233 20189 55002 (FS)
0186722868931382021011200537+33822-116504FM-15+0137KPSP V0209999C000052200059N0160935N5+02065-00615102305ADDAA101000095GA1005+999999999GD10991+9999999GF100991999999999999999999MA1102305100655REMMET09101/11/21 16:53:01 METAR KPSP 120053Z 00000KT 10SM CLR 21/M06 A3021 RMK AO2 SLP230 T02061061
0186722868931382021011201537+33822-116504FM-15+0137KPSP V0202605N002652200059N0160935N5+01835-00565102355ADDAA101000095GA1005+999999999GD10991+9999999GF100991999999999999999999MA1102345100695REMMET09101/11/21 17:53:01 METAR KPSP 120153Z 26005KT 10SM CLR 18/M06 A3022 RMK AO2 SLP235 T01831056
0206722868931382021011202537+33822-116504FM-15+0137KPSP V0209999C000052200059N0160935N5+01505-00505102375ADDAA101000095GA1005+999999999GD10991+9999999GF100991999999999999999999MA1102375100725MD1190109+9999REMMET09701/11/21 18:53:01 METAR KPSP 120253Z 00000KT 10SM CLR 15/M05 A3023 RMK AO2 SLP237 T01501050 51010
0186722868931382021011203537+33822-116504FM-15+0137KPSP V0202905N001552200059N0160935N5+01565-00565102435ADDAA101000095GA1005+999999999GD10991+9999999GF100991999999999999999999MA1102445100795REMMET09101/11/21 19:53:01 METAR KPSP 120353Z 29003KT 10SM CLR 16/M06 A3025 RMK AO2 SLP243 T01561056
0186722868931382021011204537+33822-116504FM-15+0137KPSP V0203305N003652200059N0160935N5+01285-00565102495ADDAA101000095GA1005+999999999GD10991+9999999GF100991999999999999999999MA1102475100825REMMET09101/11/21 20:53:02 METAR KPSP 120453Z 33007KT 10SM CLR 13/M06 A3026 RMK AO2 SLP249 T01281056
0244722868931382021011205537+33822-116504FM-15+0137KPSP V0209999C000052200059N0160935N5+01225-00675102525ADDAA101000095GA1005+999999999GD10991+9999999GF100991999999999999999999KA1060M+02221KA2060N+01221MA1102515100855MD1190159+9999REMMET10901/11/21 21:53:02 METAR KPSP 120553Z 00000KT 10SM CLR 12/M07 A3027 RMK AO2 SLP252 T01221067 10222 20122 51015
0186722868931382021011206537+33822-116504FM-15+0137KPSP V0202905N002152200059N0160935N5+01285-00565102545ADDAA101000095GA1005+999999999GD10991+9999999GF100991999999999999999999MA1102545100895REMMET09101/11/21 22:53:02 METAR KPSP 120653Z 29004KT 10SM CLR 13/M06 A3028 RMK AO2 SLP254 T01281056
0222722868931382021011207537+33822-116504FM-15+0137KPSP V0203205N002652200059N0160935N5+01005-00565102535ADDAA101000095GA1005+999999999GD10991+9999999GF100991999999999999999999KA1240M+02331KA2240N+00671MA1102545100895REMMET10101/11/21 23:53:02 METAR KPSP 120753Z 32005KT 10SM CLR 10/M06 A3028 RMK AO2 SLP253 T01001056 402330067
0813722868931382021011207596+33822-116504SOD  +0137KPSP V020999999999999999999999999999+99999+99999999999ADDAA124000095KA1240M+02335KA2240N+00675MG1100764102244OE11240058103099995OE22240044725099995OE33240017999999995REMSOD69224 HR PRECIPITATION (IN): 0.00 24 HR MAX TEMP (F): 7424 HR MIN TEMP (F): 44AVERAGE STATION PRESSURE:29.755 MINIMUM SEA LEVEL PRESSURE:30.19 TIME OF OCCURRENCE:1530 PEAK WIND SPEED (MPH): 13 PEAK WIND DIR (DEG): 30 PEAK WIND TIME (LST):      FASTEST 2MIN SPEED (MPH): 10FASTEST 2MIN DIR (DEG):250 FASTEST 2MIN TIME (LST):     AVERAGE WIND SPEED (MPH): 4.0 24 HR AVG TEMP (F): 59DEPART FROM NORMAL:  2  HEATING DEGREE DAYS:  6 COOLING DEGREE DAYS:  0 LATEST DAY MAX TEMP (0700-1900 LST):74  LATEST NIGHT MIN TEMP(1900-0800 LST):44 HOURLY INCREMENTAL PRECIPITATION VALUES (IN):.00 0.00 0.00 0.00 0.00 0.00 0.00 0.00 0.00 0.00 0.00 0.00 0.00 0.00 0.00 0.00 0.00 0.00 0.00 0.00 0.00 0.00 0.00 0.00
0206722868931382021011208537+33822-116504FM-15+0137KPSP V0203305N002652200059N0160935N5+01065-00615102475ADDAA101000095GA1005+999999999GD10991+9999999GF100991999999999999999999MA1102475100825MD1890049+9999REMMET09701/12/21 00:53:02 METAR KPSP 120853Z 33005KT 10SM CLR 11/M06 A3026 RMK AO2 SLP247 T01061061 58004
0186722868931382021011209537+33822-116504FM-15+0137KPSP V0209999C000052200059N0160935N5+00725-00395102535ADDAA101000095GA1005+999999999GD10991+9999999GF100991999999999999999999MA1102545100895REMMET09101/12/21 01:53:02 METAR KPSP 120953Z 00000KT 10SM CLR 07/M04 A3028 RMK AO2 SLP253 T00721039
0186722868931382021011210537+33822-116504FM-15+0137KPSP V0203405N002652200059N0160935N5+00785-00615102525ADDAA101000095GA1005+999999999GD10991+9999999GF100991999999999999999999MA1102515100855REMMET09101/12/21 02:53:02 METAR KPSP 121053Z 34005KT 10SM CLR 08/M06 A3027 RMK AO2 SLP252 T00781061
0244722868931382021011211537+33822-116504FM-15+0137KPSP V0203305N002652200059N0160935N5+00835-00565102525ADDAA101000095GA1005+999999999GD10991+9999999GF100991999999999999999999KA1060M+01331KA2060N+00721MA1102515100855MD1190049+9999REMMET10901/12/21 03:53:02 METAR KPSP 121153Z 33005KT 10SM CLR 08/M06 A3027 RMK AO2 SLP252 T00831056 10133 20072 51004
0186722868931382021011212537+33822-116504FM-15+0137KPSP V0203305N003152200059N0160935N5+00895-00785102565ADDAA101000095GA1005+999999999GD10991+9999999GF100991999999999999999999MA1102545100895REMMET09101/12/21 04:53:02 METAR KPSP 121253Z 33006KT 10SM CLR 09/M08 A3028 RMK AO2 SLP256 T00891078
0191722868931382021011213537+33822-116504FM-15+0137KPSP V0203305N003152200059N0160935N5+00785-00565102595ADDAA101000095GA1005+999999999GD10991+9999999GF100991999999999999999999MA1102575100925REMMET09601/12/21 05:53:02 METAR KPSP 121353Z 33006KT 10SM CLR 08/M06 A3029 RMK AO2 SLP259 T00781056 (DD)
0211722868931382021011214537+33822-116504FM-15+0137KPSP V0203405N002652200059N0160935N5+00835-00725102625ADDAA101000095GA1005+999999999GD10991+9999999GF100991999999999999999999MA1102615100955MD1190099+9999REMMET10201/12/21 06:53:02 METAR KPSP 121453Z 34005KT 10SM CLR 08/M07 A3030 RMK AO2 SLP262 T00831072 51009 (DD)
