0126722868931382018010100534+33830-116507FM-15+014599999V0209999C000012200019N016093199+01891+00171101751ADDGF100991999999999999999999MA1101761999999REMMET073METAR KPSP 010053Z 00000KT 10SM CLR 19/02 A3005 RMK AO2 SLP175 T01890017=
0126722868931382018010101534+33830-116507FM-15+014599999V0203501N002112200019N016093199+01721+00171101851ADDGF100991999999999999999999MA1101861999999REMMET073METAR KPSP 010153Z 35004KT 10SM CLR 17/02 A3008 RMK AO2 SLP185 T01720017=
0132722868931382018010102534+33830-116507FM-15+014599999V0209999C000012200019N016093199+01501+00001101911ADDGF100991999999999999999999MA1101901999999REMMET079METAR KPSP 010253Z 00000KT 10SM CLR 15/00 A3009 RMK AO2 SLP191 T01500000 53019=
0127722868931382018010103534+33830-116507FM-15+014599999V0203301N002112200019N016093199+01441-00391101971ADDGF100991999999999999999999MA1101961999999REMMET074METAR KPSP 010353Z 33004KT 10SM CLR 14/M04 A3011 RMK AO2 SLP197 T01441039=
0127722868931382018010104534+33830-116507FM-15+014599999V0203201N002112200019N016093199+01391-00441101991ADDGF100991999999999999999999MA1102001999999REMMET074METAR KPSP 010453Z 32004KT 10SM CLR 14/M04 A3012 RMK AO2 SLP199 T01391044=
0171722868931382018010105534+33830-116507FM-15+014599999V0203401N002612200019N016093199+01221-00501102011ADDGF100991999999999999999999KA1060M+02111KA2060N+01221MA1102001999999REMMET092METAR KPSP 010553Z 34005KT 10SM CLR 12/M05 A3012 RMK AO2 SLP201 T01221050 10211 20122 51010=
0132722868931382018010106534+33830-116507FM-15+014599999V0203301N002112200019N016093199+01221-00501102061ADDGF100991999999999999999999MA1102071999999REMMET079METAR KPSP 010653Z AUTO 33004KT 10SM CLR 12/M05 A3014 RMK AO2 SLP206 T01221050=
0168722868931382018010107534+33830-116507FM-15+014599999V0203301N004112200019N016093199+01221-00391102041ADDGF100991999999999999999999KA1240M+02331KA2240N+01001MA1102031999999REMMET089METAR KPSP 010753Z AUTO 33008KT 10SM CLR 12/M04 A3013 RMK AO2 SLP204 T01221039 402330100=
0820722868931382018010107596+33822-116504SOD  +0137KPSP V020999999999999999999999999999+99999+99999999999ADDAA124000095KA1240M+02335KA2240N+01005MG1999999101594OE11240058115010595OE22240044714011055OE33240019799999995REMSOD69924 HR PRECIPITATION (IN): 0.00 24 HR MAX TEMP (F):74 24 HR MAX TEMP TIME (LST):1446 24 HR MIN TEMP (F):50 24 HR MIN TEMP TIME (LST):0549 MINIMUM SEA LEVEL PRESSURE:30.00 TIME OF OCCURRENCE:0418 PEAK WIND SPEED (MPH):13  PEAK WIND DIR (DEG):150 PEAK WIND TIME (LST):1059  FASTEST 2MIN SPEED (MPH):10 FASTEST 2MIN DIR (DEG):140 FASTEST 2MIN TIME (LST):1105 AVERAGE WIND SPEED (MPH): 4.4 24 HR AVG TEMP (F):62 HEATING DEGREE DAYS:  3 COOLING DEGREE DAYS:  0 LATEST DAY MAX TEMP (0700-1900 LST): 74 LATEST NIGHT MIN TEMP(1900-0800 LST):50 HOURLY INCREMENTAL PRECIPITATION VALUES (IN):0.00 0.00 0.00 0.00 0.00 0.00 0.00 0.00 0.00 0.00 0.00 0.00 0.00 0.00 0.00 0.00 0.00 0.00 0.00 0.00 0.00 0.00 0.00 0.00
0206722868931382018010108537+33822-116504FM-15+0137KPSP V0202505N001552200059N0160935N5+01005-00175102055ADDAA101000095GA1005+999999999GD10991+9999999GF100991999999999999999999MA1102035100395MD1190039+9999REMMET09701/01/18 00:53:02 METAR KPSP 010853Z 25003KT 10SM CLR 10/M02 A3013 RMK AO2 SLP205 T01001017 51003
0186722868931382018010109537+33822-116504FM-15+0137KPSP V0203205N002152200059N0160935N5+01065-00675102025ADDAA101000095GA1005+999999999GD10991+9999999GF100991999999999999999999MA1102035100395REMMET09101/01/18 01:53:02 METAR KPSP 010953Z 32004KT 10SM CLR 11/M07 A3013 RMK AO2 SLP202 T01061067
0186722868931382018010110537+33822-116504FM-15+0137KPSP V0209999C000052200059N0160935N5+01005-00395102025ADDAA101000095GA1005+999999999GD10991+9999999GF100991999999999999999999MA1102035100395REMMET09101/01/18 02:53:02 METAR KPSP 011053Z 00000KT 10SM CLR 10/M04 A3013 RMK AO2 SLP202 T01001039
0244722868931382018010111537+33822-116504FM-15+0137KPSP V0203405N003152200059N0160935N5+01115-00395102025ADDAA101000095GA1005+999999999GD10991+9999999GF100991999999999999999999KA1060M+01281KA2060N+00941MA1102035100395MD1690039+9999REMMET10901/01/18 03:53:02 METAR KPSP 011153Z 34006KT 10SM CLR 11/M04 A3013 RMK AO2 SLP202 T01111039 10128 20094 56003
0185722868931382018010112537+33822-116504FM-15+0137KPSP V0203105N001552200059N0160935N5+00835+00005102045ADDAA101000095GA1005+999999999GD10991+9999999GF100991999999999999999999MA1102035100395REMMET09001/01/18 04:53:02 METAR KPSP 011253Z 31003KT 10SM CLR 08/00 A3013 RMK AO2 SLP204 T00830000
0186722868931382018010113537+33822-116504FM-15+0137KPSP V0209999C000052200059N0160935N5+00895-00065102105ADDAA101000095GA1005+999999999GD10991+9999999GF100991999999999999999999MA1102105100455REMMET09101/01/18 05:53:02 METAR KPSP 011353Z 00000KT 10SM CLR 09/M01 A3015 RMK AO2 SLP210 T00891006
0206722868931382018010114537+33822-116504FM-15+0137KPSP V0209999C000052200059N0160935N5+00895-00285102145ADDAA101000095GA1005+999999999GD10991+9999999GF100991999999999999999999MA1102135100495MD1390129+9999REMMET09701/01/18 06:53:02 METAR KPSP 011453Z 00000KT 10SM CLR 09/M03 A3016 RMK AO2 SLP214 T00891028 53012
0186722868931382018010115537+33822-116504FM-15+0137KPSP V0209999V001552200059N0160935N5+01115-00445102215ADDAA101000095GA1005+999999999GD10991+9999999GF100991999999999999999999MA1102205100555REMMET09101/01/18 07:53:02 METAR KPSP 011553Z VRB03KT 10SM CLR 11/M04 A3018 RMK AO2 SLP221 T01111044
0186722868931382018010116537+33822-116504FM-15+0137KPSP V0209999C000052200059N0160935N5+01505-00065102295ADDAA101000095GA1005+999999999GD10991+9999999GF100991999999999999999999MA1102305100655REMMET09101/01/18 08:53:02 METAR KPSP 011653Z 00000KT 10SM CLR 15/M01 A3021 RMK AO2 SLP229 T01501006
0244722868931382018010117537+33822-116504FM-15+0137KPSP V0209999C000052200059N0160935N5+01895-00505102325ADDAA101000095GA1005+999999999GD10991+9999999GF100991999999999999999999KA1060M+01891KA2060N+00781MA1102345100695MD1190199+9999REMMET10901/01/18 09:53:02 METAR KPSP 011753Z 00000KT 10SM CLR 19/M05 A3022 RMK AO2 SLP232 T01891050 10189 20078 51019
0186722868931382018010118537+33822-116504FM-15+0137KPSP V0209999V001552200059N0160935N5+02225-00725102295ADDAA101000095GA1005+999999999GD10991+9999999GF100991999999999999999999MA1102305100655REMMET09101/01/18 10:53:02 METAR KPSP 011853Z VRB03KT 10SM CLR 22/M07 A3021 RMK AO2 SLP229 T02221072
0186722868931382018010119537+33822-116504FM-15+0137KPSP V0209999C000052200059N0160935N5+02445-00725102185ADDAA101000095GA1005+999999999GD10991+9999999GF100991999999999999999999MA1102205100555REMMET09101/01/18 11:53:02 METAR KPSP 011953Z 00000KT 10SM CLR 24/M07 A3018 RMK AO2 SLP218 T02441072
0206722868931382018010120537+33822-116504FM-15+0137KPSP V0209999C000052200059N0160935N5+02395-00725102055ADDAA101000095GA1005+999999999GD10991+9999999GF100991999999999999999999MA1102075100425MD1890269+9999REMMET09701/01/18 12:53:02 METAR KPSP 012053Z 00000KT 10SM CLR 24/M07 A3014 RMK AO2 SLP205 T02391072 58026
0186722868931382018010121537+33822-116504FM-15+0137KPSP V0201205N003152200059N0160935N5+02395-00615101975ADDAA101000095GA1005+999999999GD10991+9999999GF100991999999999999999999MA1101965100325REMMET09101/01/18 13:53:02 METAR KPSP 012153Z 12006KT 10SM CLR 24/M06 A3011 RMK AO2 SLP197 T02391061
0186722868931382018010122537+33822-116504FM-15+0137KPSP V0201305N001552200059N0160935N5+02335-00505101975ADDAA101000095GA1005+999999999GD10991+9999999GF100991999999999999999999MA1101965100325REMMET09101/01/18 14:53:02 METAR KPSP 012253Z 13003KT 10SM CLR 23/M05 A3011 RMK AO2 SLP197 T02331050
0244722868931382018010123537+33822-116504FM-15+0137KPSP V0209999C000052200059N0160935N5+02285-00395101985ADDAA101000095GA1005+999999999GD10991+9999999GF100991999999999999999999KA1060M+02441KA2060N+01891MA1102005100355MD1590079+9999REMMET10901/01/18 15:53:02 METAR KPSP 012353Z 00000KT 10SM CLR 23/M04 A3012 RMK AO2 SLP198 T02281039 10244 20189 55007
0186722868931382018010200537+33822-116504FM-15+0137KPSP V0209999C000052200059N0160935N5+02175-00115102015ADDAA101000095GA1005+999999999GD10991+9999999GF100991999999999999999999MA1102005100355REMMET09101/01/18 16:53:01 METAR KPSP 020053Z 00000KT 10SM CLR 22/M01 A3012 RMK AO2 SLP201 T02171011
0186722868931382018010201537+33822-116504FM-15+0137KPSP V0202405N001552200059N0160935N5+02005-00065102055ADDAA101000095GA1005+999999999GD10991+9999999GF100991999999999999999999MA1102075100425REMMET09101/01/18 17:53:01 METAR KPSP 020153Z 24003KT 10SM CLR 20/M01 A3014 RMK AO2 SLP205 T02001006
0206722868931382018010202537+33822-116504FM-15+0137KPSP V0203305N002152200059N0160935N5+01785-00115102055ADDAA101000095GA1005+999999999GD10991+9999999GF100991999999999999999999MA1102075100425MD1190079+9999REMMET09701/01/18 18:53:02 METAR KPSP 020253Z 33004KT 10SM CLR 18/M01 A3014 RMK AO2 SLP205 T01781011 51007
0186722868931382018010203537+33822-116504FM-15+0137KPSP V0209999C000052200059N0160935N5+01565-00285102075ADDAA101000095GA1005+999999999GD10991+9999999GF100991999999999999999999MA1102075100425REMMET09101/01/18 19:53:02 METAR KPSP 020353Z 00000KT 10SM CLR 16/M03 A3014 RMK AO2 SLP207 T01561028
0186722868931382018010204537+33822-116504FM-15+0137KPSP V0203305N003152200059N0160935N5+01505-00285102105ADDAA101000095GA1005+999999999GD10991+9999999GF100991999999999999999999MA1102105100455REMMET09101/01/18 20:53:02 METAR KPSP 020453Z 33006KT 10SM CLR 15/M03 A3015 RMK AO2 SLP210 T01501028
0243722868931382018010205537+33822-116504FM-15+0137KPSP V0209999C000052200059N0160935N5+01335+00005102165ADDAA101000095GA1005+999999999GD10991+9999999GF100991999999999999999999KA1060M+02281KA2060N+01331MA1102175100525MD1390109+9999REMMET10801/01/18 21:53:02 METAR KPSP 020553Z 00000KT 10SM CLR 13/00 A3017 RMK AO2 SLP216 T01330000 10228 20133 53010
0186722868931382018010206537+33822-116504FM-15+0137KPSP V0203305N002652200059N0160935N5+01505-00565102165ADDAA101000095GA1005+999999999GD10991+9999999GF100991999999999999999999MA1102175100525REMMET09101/01/18 22:53:02 METAR KPSP 020653Z 33005KT 10SM CLR 15/M06 A3017 RMK AO2 SLP216 T01501056
0222722868931382018010207537+33822-116504FM-15+0137KPSP V0203105N003652200059N0160935N5+01445-00615102145ADDAA101000095GA1005+999999999GD10991+9999999GF100991999999999999999999KA1240M+02441KA2240N+00781MA1102135100495REMMET10101/01/18 23:53:02 METAR KPSP 020753Z 31007KT 10SM CLR 14/M06 A3016 RMK AO2 SLP214 T01441061 402440078
0930722868931382018010207596+33822-116504SOD  +0137KPSP V020999999999999999999999999999+99999+99999999999ADDAA124000095AJ100009599999999AL12400095AN1024000095KA1240M+02445KA2240N+00785MG1100464101964OE11240053633099995OE22240044732099995OE33240010799999995REMSOD77024 HR PRECIPITATION (IN): 0.00 SNOW DEPTH (IN):    0 24 HR SNOWFALL (IN):  0.024 HR MAX TEMP (F): 7624 HR MIN TEMP (F): 46AVERAGE STATION PRESSURE(D):29.666 MINIMUM SEA LEVEL PRESSURE:30.11 TIME OF OCCURRENCE:1620 PEAK WIND SPEED (MPH): 12 PEAK WIND DIR (DEG):330 PEAK WIND TIME (LST):      FASTEST 2MIN SPEED (MPH): 10FASTEST 2MIN DIR (DEG):320 FASTEST 2MIN TIME (LST):     AVERAGE WIND SPEED (MPH): 2.4 24 HR AVG TEMP (F): 61DEPART FROM NORMAL:  5  SKY COVER SR-SS (TENTHS): 0HEATING DEGREE DAYS:  4 COOLING DEGREE DAYS:  0 LATEST DAY MAX TEMP (0700-1900 LST): 76 LATEST NIGHT MIN TEMP(1900-0800 LST):46 HOURLY INCREMENTAL PRECIPITATION VALUES (IN):0.00 0.00 0.00 0.00 0.00 0.00 0.00 0.00 0.00 0.00 0.00 0.00 0.00 0.00 0.00 0.00 0.00 0.00 0.00 0.00 0.00 0.00 0.00 0.00
0206722868931382018010208537+33822-116504FM-15+0137KPSP V0203505N001552200059N0160935N5+01445-00445102125ADDAA101000095GA1005+999999999GD10991+9999999GF100991999999999999999999MA1102135100495MD1890029+9999REMMET09701/02/18 00:53:02 METAR KPSP 020853Z 35003KT 10SM CLR 14/M04 A3016 RMK AO2 SLP212 T01441044 58002
0127722868931382018010209534+33830-116507FM-15+014599999V0203401N002612200019N016093199+01331-00671102111ADDGF100991999999999999999999MA1102131999999REMMET074METAR KPSP 020953Z 34005KT 10SM CLR 13/M07 A3016 RMK AO2 SLP211 T01331067=
0186722868931382018010210537+33822-116504FM-15+0137KPSP V0203205N003152200059N0160935N5+01395-00615102095ADDAA101000095GA1005+999999999GD10991+9999999GF100991999999999999999999MA1102105100455REMMET09101/02/18 02:53:02 METAR KPSP 021053Z 32006KT 10SM CLR 14/M06 A3015 RMK AO2 SLP209 T01391061
0244722868931382018010211537+33822-116504FM-15+0137KPSP V0203305N002652200059N0160935N5+01335-00565102035ADDAA101000095GA1005+999999999GD10991+9999999GF100991999999999999999999KA1060M+01561KA2060N+01171MA1102035100395MD1890099+9999REMMET10901/02/18 03:53:02 METAR KPSP 021153Z 33005KT 10SM CLR 13/M06 A3013 RMK AO2 SLP203 T01331056 10156 20117 58009
0186722868931382018010212537+33822-116504FM-15+0137KPSP V0203005N002652200059N0160935N5+01565-00835102035ADDAA101000095GA1005+999999999GD10991+9999999GF100991999999999999999999MA1102035100395REMMET09101/02/18 04:53:02 METAR KPSP 021253Z 30005KT 10SM CLR 16/M08 A3013 RMK AO2 SLP203 T01561083
0186722868931382018010213537+33822-116504FM-15+0137KPSP V0203105N002152200059N0160935N5+01505-00835102055ADDAA101000095GA1005+999999999GD10991+9999999GF100991999999999999999999MA1102075100425REMMET09101/02/18 05:53:02 METAR KPSP 021353Z 31004KT 10SM CLR 15/M08 A3014 RMK AO2 SLP205 T01501083
0206722868931382018010214537+33822-116504FM-15+0137KPSP V0203305N003152200059N0160935N5+01615-01065102105ADDAA101000095GA1005+999999999GD10991+9999999GF100991999999999999999999MA1102105100455MD1390069+9999REMMET09701/02/18 06:53:02 METAR KPSP 021453Z 33006KT 10SM CLR 16/M11 A3015 RMK AO2 SLP210 T01611106 53006
0186722868931382018010215537+33822-116504FM-15+0137KPSP V0203305N002652200059N0160935N5+01615-00675102135ADDAA101000095GA1005+999999999GD10991+9999999GF100991999999999999999999MA1102135100495REMMET09101/02/18 07:53:02 METAR KPSP 021553Z 33005KT 10SM CLR 16/M07 A3016 RMK AO2 SLP213 T01611067
0186722868931382018010216537+33822-116504FM-15+0137KPSP V0209999C000052200059N0160935N5+01785-00445102195ADDAA101000095GA1005+999999999GD10991+9999999GF100991999999999999999999MA1102205100555REMMET09101/02/18 08:53:02 METAR KPSP 021653Z 00000KT 10SM CLR 18/M04 A3018 RMK AO2 SLP219 T01781044
0244722868931382018010217537+33822-116504FM-15+0137KPSP V0209999C000052200059N0160935N5+02225-00505102225ADDAA101000095GA1005+999999999GD10991+9999999GF100991999999999999999999KA1060M+02221KA2060N+01331MA1102245100595MD1290129+9999REMMET10901/02/18 09:53:02 METAR KPSP 021753Z 00000KT 10SM CLR 22/M05 A3019 RMK AO2 SLP222 T02221050 10222 20133 52012
0186722868931382018010218537+33822-116504FM-15+0137KPSP V0209999C000052200059N0160935N5+02445-00445102135ADDAA101000095GA1005+999999999GD10991+9999999GF100991999999999999999999MA1102175100525REMMET09101/02/18 10:53:02 METAR KPSP 021853Z 00000KT 10SM CLR 24/M04 A3017 RMK AO2 SLP213 T02441044
0186722868931382018010219537+33822-116504FM-15+0137KPSP V0202505N001552200059N0160935N5+02725-00725102015ADDAA101000095GA1005+999999999GD10991+9999999GF100991999999999999999999MA1102035100395REMMET09101/02/18 11:53:02 METAR KPSP 021953Z 25003KT 10SM CLR 27/M07 A3013 RMK AO2 SLP201 T02721072
0206722868931382018010220537+33822-116504FM-15+0137KPSP V0209999C000052200059N0160935N5+02945-00945101915ADDAA101000095GA1005+999999999GD10991+9999999GF100991999999999999999999MA1101935100295MD1890309+9999REMMET09701/02/18 12:53:02 METAR KPSP 022053Z 00000KT 10SM CLR 29/M09 A3010 RMK AO2 SLP191 T02941094 58030
0186722868931382018010221537+33822-116504FM-15+0137KPSP V0201905N002152200059N0160935N5+02945-00725101845ADDAA101000095GA1005+999999999GD10991+9999999GF100991999999999999999999MA1101865100225REMMET09101/02/18 13:53:02 METAR KPSP 022153Z 19004KT 10SM CLR 29/M07 A3008 RMK AO2 SLP184 T02941072
0186722868931382018010222537+33822-116504FM-15+0137KPSP V0202305N002152200059N0160935N5+02945-00675101835ADDAA101000095GA1005+999999999GD10991+9999999GF100991999999999999999999MA1101865100225REMMET09101/02/18 14:53:02 METAR KPSP 022253Z 23004KT 10SM CLR 29/M07 A3008 RMK AO2 SLP183 T02941067
0244722868931382018010223537+33822-116504FM-15+0137KPSP V0209999C000052200059N0160935N5+02835-00505101845ADDAA101000095GA1005+999999999GD10991+9999999GF100991999999999999999999KA1060M+03001KA2060N+02221MA1101865100225MD1590079+9999REMMET10901/02/18 15:53:02 METAR KPSP 022353Z 00000KT 10SM CLR 28/M05 A3008 RMK AO2 SLP184 T02831050 10300 20222 55007
0186722868931382018010300537+33822-116504FM-15+0137KPSP V0201205N003152200059N0160935N5+02445-00225101855ADDAA101000095GA1005+999999999GD10991+9999999GF100991999999999999999999MA1101865100225REMMET09101/02/18 16:53:01 METAR KPSP 030053Z 12006KT 10SM CLR 24/M02 A3008 RMK AO2 SLP185 T02441022
0185722868931382018010301537+33822-116504FM-15+0137KPSP V0209999C000052200059N0160935N5+02225+00005101925ADDAA101000095GA1005+999999999GD10991+9999999GF100991999999999999999999MA1101935100295REMMET09001/02/18 17:53:01 METAR KPSP 030153Z 00000KT 10SM CLR 22/00 A3010 RMK AO2 SLP192 T02220000
0205722868931382018010302537+33822-116504FM-15+0137KPSP V0202905N001552200059N0160935N5+02115+00005101955ADDAA101000095GA1005+999999999GD10991+9999999GF100991999999999999999999MA1101965100325MD1390109+9999REMMET09601/02/18 18:53:02 METAR KPSP 030253Z 29003KT 10SM CLR 21/00 A3011 RMK AO2 SLP195 T02110000 53010
0186722868931382018010303537+33822-116504FM-15+0137KPSP V0209999V001552200059N0160935N5+01945-00285101985ADDAA101000095GA1005+999999999GD10991+9999999GF100991999999999999999999MA1102005100355REMMET09101/02/18 19:53:02 METAR KPSP 030353Z VRB03KT 10SM CLR 19/M03 A3012 RMK AO2 SLP198 T01941028
0186722868931382018010304537+33822-116504FM-15+0137KPSP V0202705N002652200059N0160935N5+02065-00445101955ADDAA101000095GA1005+999999999GD10991+9999999GF100991999999999999999999MA1101965100325REMMET09101/02/18 20:53:02 METAR KPSP 030453Z 27005KT 10SM CLR 21/M04 A3011 RMK AO2 SLP195 T02061044
0244722868931382018010305537+33822-116504FM-15+0137KPSP V0202605N003152200059N0160935N5+02065-00565101985ADDAA101000095GA1005+999999999GD10991+9999999GF100991999999999999999999KA1060M+02831KA2060N+01891MA1102005100355MD1390039+9999REMMET10901/02/18 21:53:02 METAR KPSP 030553Z 26006KT 10SM CLR 21/M06 A3012 RMK AO2 SLP198 T02061056 10283 20189 53003
0186722868931382018010306537+33822-116504FM-15+0137KPSP V0202805N002152200059N0160935N5+02115-00565101995ADDAA101000095GA1005+999999999GD10991+9999999GF100991999999999999999999MA1102005100355REMMET09101/02/18 22:53:02 METAR KPSP 030653Z 28004KT 10SM CLR 21/M06 A3012 RMK AO2 SLP199 T02111056
0222722868931382018010307537+33822-116504FM-15+0137KPSP V0202905N002152200059N0160935N5+01835-00505101965ADDAA101000095GA1005+999999999GD10991+9999999GF100991999999999999999999KA1240M+03001KA2240N+01171MA1102005100355REMMET10101/02/18 23:53:02 METAR KPSP 030753Z 29004KT 10SM CLR 18/M05 A3012 RMK AO2 SLP196 T01831050 403000117
0930722868931382018010307596+33822-116504SOD  +0137KPSP V020999999999999999999999999999+99999+99999999999ADDAA124000095AJ100009599999999AL12400095AN1024000095KA1240M+03005KA2240N+01175MG1100374101834OE11240049233099995OE22240040233099995OE33240017499999995REMSOD77024 HR PRECIPITATION (IN): 0.00 SNOW DEPTH (IN):    0 24 HR SNOWFALL (IN):  0.024 HR MAX TEMP (F): 8624 HR MIN TEMP (F): 53AVERAGE STATION PRESSURE(D):29.641 MINIMUM SEA LEVEL PRESSURE:30.07 TIME OF OCCURRENCE:1655 PEAK WIND SPEED (MPH): 11 PEAK WIND DIR (DEG):330 PEAK WIND TIME (LST):      FASTEST 2MIN SPEED (MPH):  9FASTEST 2MIN DIR (DEG):330 FASTEST 2MIN TIME (LST):     AVERAGE WIND SPEED (MPH): 3.9 24 HR AVG TEMP (F): 70DEPART FROM NORMAL: 14  SKY COVER SR-SS (TENTHS): 0HEATING DEGREE DAYS:  0 COOLING DEGREE DAYS:  5 LATEST DAY MAX TEMP (0700-1900 LST): 86 LATEST NIGHT MIN TEMP(1900-0800 LST):53 HOURLY INCREMENTAL PRECIPITATION VALUES (IN):0.00 0.00 0.00 0.00 0.00 0.00 0.00 0.00 0.00 0.00 0.00 0.00 0.00 0.00 0.00 0.00 0.00 0.00 0.00 0.00 0.00 0.00 0.00 0.00
0206722868931382018010308537+33822-116504FM-15+0137KPSP V0209999V002152200059N0160935N5+02065-00615101945ADDAA101000095GA1005+999999999GD10991+9999999GF100991999999999999999999MA1101965100325MD1890029+9999REMMET09701/03/18 00:53:02 METAR KPSP 030853Z VRB04KT 10SM CLR 21/M06 A3011 RMK AO2 SLP194 T02061061 58002
0186722868931382018010309537+33822-116504FM-15+0137KPSP V0203305N002652200059N0160935N5+01445-00505101975ADDAA101000095GA1005+999999999GD10991+9999999GF100991999999999999999999MA1102005100355REMMET09101/03/18 01:53:02 METAR KPSP 030953Z 33005KT 10SM CLR 14/M05 A3012 RMK AO2 SLP197 T01441050
0186722868931382018010310537+33822-116504FM-15+0137KPSP V0202505N003152200059N0160935N5+01785-00505101925ADDAA101000095GA1005+999999999GD10991+9999999GF100991999999999999999999MA1101965100325REMMET09101/03/18 02:53:02 METAR KPSP 031053Z 25006KT 10SM CLR 18/M05 A3011 RMK AO2 SLP192 T01781050
0244722868931382018010311537+33822-116504FM-15+0137KPSP V0203205N002652200059N0160935N5+01395-00445101935ADDAA101000095GA1005+999999999GD10991+9999999GF100991999999999999999999KA1060M+02111KA2060N+01391MA1101935100295MD1890029+9999REMMET10901/03/18 03:53:02 METAR KPSP 031153Z 32005KT 10SM CLR 14/M04 A3010 RMK AO2 SLP193 T01391044 10211 20139 58002
0186722868931382018010312537+33822-116504FM-15+0137KPSP V0202905N001552200059N0160935N5+01725-00505101935ADDAA101000095GA1005+999999999GD10991+9999999GF100991999999999999999999MA1101965100325REMMET09101/03/18 04:53:02 METAR KPSP 031253Z 29003KT 10SM CLR 17/M05 A3011 RMK AO2 SLP193 T01721050
0186722868931382018010313537+33822-116504FM-15+0137KPSP V0203305N002152200059N0160935N5+01505-00615101985ADDAA101000095GA1005+999999999GD10991+9999999GF100991999999999999999999MA1102005100355REMMET09101/03/18 05:53:02 METAR KPSP 031353Z 33004KT 10SM CLR 15/M06 A3012 RMK AO2 SLP198 T01501061
0206722868931382018010314537+33822-116504FM-15+0137KPSP V0203205N002152200059N0160935N5+01445-00565102015ADDAA101000095GA1005+999999999GD10991+9999999GF100991999999999999999999MA1102035100395MD1390089+9999REMMET09701/03/18 06:53:02 METAR KPSP 031453Z 32004KT 10SM CLR 14/M06 A3013 RMK AO2 SLP201 T01441056 53008
0186722868931382018010315537+33822-116504FM-15+0137KPSP V0203405N003652200059N0160935N5+01445-00445102035ADDAA101000095GA1005+999999999GD10991+9999999GF100991999999999999999999MA1102035100395REMMET09101/03/18 07:53:02 METAR KPSP 031553Z 34007KT 10SM CLR 14/M04 A3013 RMK AO2 SLP203 T01441044
0186722868931382018010316537+33822-116504FM-15+0137KPSP V0203305N002152200059N0160935N5+01785-00615102065ADDAA101000095GA1005+999999999GD10991+9999999GF100991999999999999999999MA1102075100425REMMET09101/03/18 08:53:02 METAR KPSP 031653Z 33004KT 10SM CLR 18/M06 A3014 RMK AO2 SLP206 T01781061
0244722868931382018010317537+33822-116504FM-15+0137KPSP V0209999C000052200059N0160935N5+02005-00395102085ADDAA101000095GA1005+999999999GD10991+9999999GF100991999999999999999999KA1060M+02001KA2060N+01331MA1102105100455MD1390079+9999REMMET10901/03/18 09:53:02 METAR KPSP 031753Z 00000KT 10SM CLR 20/M04 A3015 RMK AO2 SLP208 T02001039 10200 20133 53007
0185722868931382018010318537+33822-116504FM-15+0137KPSP V0209999C000052200059N0160935N5+02115+00065102035ADDAA101000095GA1005+999999999GD10991+9999999GF100991999999999999999999MA1102075100425REMMET09001/03/18 10:53:02 METAR KPSP 031853Z 00000KT 10SM CLR 21/01 A3014 RMK AO2 SLP203 T02110006
0186722868931382018010319537+33822-116504FM-15+0137KPSP V0209999C000052200059N0160935N5+02285-00505101905ADDAA101000095GA1005+999999999GD10991+9999999GF100991999999999999999999MA1101935100295REMMET09101/03/18 11:53:02 METAR KPSP 031953Z 00000KT 10SM CLR 23/M05 A3010 RMK AO2 SLP190 T02281050
0206722868931382018010320537+33822-116504FM-15+0137KPSP V0209999C000052200059N0160935N5+02395-00445101785ADDAA101000095GA1005+999999999GD10991+9999999GF100991999999999999999999MA1101795100155MD1890299+9999REMMET09701/03/18 12:53:02 METAR KPSP 032053Z 00000KT 10SM CLR 24/M04 A3006 RMK AO2 SLP178 T02391044 58029
0186722868931382018010321537+33822-116504FM-15+0137KPSP V0209999C000052200059N0160935N5+02445-00785101765ADDAA101000095GA1005+999999999GD10991+9999999GF100991999999999999999999MA1101765100125REMMET09101/03/18 13:53:02 METAR KPSP 032153Z 00000KT 10SM CLR 24/M08 A3005 RMK AO2 SLP176 T02441078
0186722868931382018010322537+33822-116504FM-15+0137KPSP V0209999V002652200059N0160935N5+02335-00505101765ADDAA101000095GA1005+999999999GD10991+9999999GF100991999999999999999999MA1101795100155REMMET09101/03/18 14:53:02 METAR KPSP 032253Z VRB05KT 10SM CLR 23/M05 A3006 RMK AO2 SLP176 T02331050
0244722868931382018010323537+33822-116504FM-15+0137KPSP V0209999V001552200059N0160935N5+02285-00335101775ADDAA101000095GA1005+999999999GD10991+9999999GF100991999999999999999999KA1060M+02441KA2060N+02001MA1101795100155MD1590029+9999REMMET10901/03/18 15:53:02 METAR KPSP 032353Z VRB03KT 10SM CLR 23/M03 A3006 RMK AO2 SLP177 T02281033 10244 20200 55002
0186722868931382018010400537+33822-116504FM-15+0137KPSP V0209999C000052200059N0160935N5+02175-00285101785ADDAA101000095GA1005+999999999GD10991+9999999GF100991999999999999999999MA1101795100155REMMET09101/03/18 16:53:01 METAR KPSP 040053Z 00000KT 10SM CLR 22/M03 A3006 RMK AO2 SLP178 T02171028
0185722868931382018010401537+33822-116504FM-15+0137KPSP V0209999C000052200059N0160935N5+01945+00225101805ADDAA101000095GA1005+999999999GD10991+9999999GF100991999999999999999999MA1101835100195REMMET09001/03/18 17:53:01 METAR KPSP 040153Z 00000KT 10SM CLR 19/02 A3007 RMK AO2 SLP180 T01940022
0206722868931382018010402537+33822-116504FM-15+0137KPSP V0209999C000052200059N0160935N5+01945-00065101855ADDAA101000095GA1005+999999999GD10991+9999999GF100991999999999999999999MA1101865100225MD1390079+9999REMMET09701/03/18 18:53:02 METAR KPSP 040253Z 00000KT 10SM CLR 19/M01 A3008 RMK AO2 SLP185 T01941006 53007
0186722868931382018010403537+33822-116504FM-15+0137KPSP V0203505N002152200059N0160935N5+01835-00225101875ADDAA101000095GA1005+999999999GD10991+9999999GF100991999999999999999999MA1101865100225REMMET09101/03/18 19:53:02 METAR KPSP 040353Z 35004KT 10SM CLR 18/M02 A3008 RMK AO2 SLP187 T01831022
0186722868931382018010404537+33822-116504FM-15+0137KPSP V0209999C000052200059N0160935N5+01725-00395101865ADDAA101000095GA1005+999999999GD10991+9999999GF100991999999999999999999MA1101865100225REMMET09101/03/18 20:53:02 METAR KPSP 040453Z 00000KT 10SM CLR 17/M04 A3008 RMK AO2 SLP186 T01721039
0244722868931382018010405537+33822-116504FM-15+0137KPSP V0202805N002152200059N0160935N5+01675-00115101885ADDAA101000095GA1005+999999999GD10991+9999999GF100991999999999999999999KA1060M+02281KA2060N+01611MA1101905100255MD1390049+9999REMMET10901/03/18 21:53:02 METAR KPSP 040553Z 28004KT 10SM CLR 17/M01 A3009 RMK AO2 SLP188 T01671011 10228 20161 53004
0186722868931382018010406537+33822-116504FM-15+0137KPSP V0203405N002152200059N0160935N5+01565-00505101915ADDAA101000095GA1005+999999999GD10991+9999999GF100991999999999999999999MA1101935100295REMMET09101/03/18 22:53:02 METAR KPSP 040653Z 34004KT 10SM CLR 16/M05 A3010 RMK AO2 SLP191 T01561050
0222722868931382018010407537+33822-116504FM-15+0137KPSP V0209999N999992200059N0160935N5+01565-00395101895ADDAA101000095GA1005+999999999GD10991+9999999GF100991999999999999999999KA1240M+02441KA2240N+01331MA1101905100255REMMET10101/03/18 23:53:02 METAR KPSP 040753Z      KT 10SM CLR 16/M04 A3009 RMK AO2 SLP189 T01561039 402440133
0930722868931382018010407596+33822-116504SOD  +0137KPSP V020999999999999999999999999999+99999+99999999999ADDAA124000095AJ100009599999999AL12400095AN1024000095KA1240M+02445KA2240N+01335MG1100284101764OE11240044728099995OE22240035833099995OE33240012199999995REMSOD77024 HR PRECIPITATION (IN): 0.00 SNOW DEPTH (IN):    0 24 HR SNOWFALL (IN):  0.024 HR MAX TEMP (F): 7624 HR MIN TEMP (F): 56AVERAGE STATION PRESSURE(D):29.613 MINIMUM SEA LEVEL PRESSURE:30.05 TIME OF OCCURRENCE:1707 PEAK WIND SPEED (MPH): 10 PEAK WIND DIR (DEG):280 PEAK WIND TIME (LST):      FASTEST 2MIN SPEED (MPH):  8FASTEST 2MIN DIR (DEG):330 FASTEST 2MIN TIME (LST):     AVERAGE WIND SPEED (MPH): 2.7 24 HR AVG TEMP (F): 66DEPART FROM NORMAL: 10  SKY COVER SR-SS (TENTHS): 0HEATING DEGREE DAYS:  0 COOLING DEGREE DAYS:  1 LATEST DAY MAX TEMP (0700-1900 LST): 76 LATEST NIGHT MIN TEMP(1900-0800 LST):56 HOURLY INCREMENTAL PRECIPITATION VALUES (IN):0.00 0.00 0.00 0.00 0.00 0.00 0.00 0.00 0.00 0.00 0.00 0.00 0.00 0.00 0.00 0.00 0.00 0.00 0.00 0.00 0.00 0.00 0.00 0.00
0206722868931382018010408537+33822-116504FM-15+0137KPSP V0203305N003652200059N0160935N5+01395-00565101885ADDAA101000095GA1005+999999999GD10991+9999999GF100991999999999999999999MA1101905100255MD1890009+9999REMMET09701/04/18 00:53:02 METAR KPSP 040853Z 33007KT 10SM CLR 14/M06 A3009 RMK AO2 SLP188 T01391056 58000
0186722868931382018010409537+33822-116504FM-15+0137KPSP V0203305N003152200059N0160935N5+01285-00395101915ADDAA101000095GA1005+999999999GD10991+9999999GF100991999999999999999999MA1101935100295REMMET09101/04/18 01:53:02 METAR KPSP 040953Z 33006KT 10SM CLR 13/M04 A3010 RMK AO2 SLP191 T01281039
0186722868931382018010410537+33822-116504FM-15+0137KPSP V0203405N002152200059N0160935N5+01335-00445101895ADDAA101000095GA1005+999999999GD10991+9999999GF100991999999999999999999MA1101905100255REMMET09101/04/18 02:53:02 METAR KPSP 041053Z 34004KT 10SM CLR 13/M04 A3009 RMK AO2 SLP189 T01331044
0244722868931382018010411537+33822-116504FM-15+0137KPSP V0203205N003152200059N0160935N5+01445-00505101895ADDAA101000095GA1005+999999999GD10991+9999999GF100991999999999999999999KA1060M+01721KA2060N+01221MA1101905100255MD1090009+9999REMMET10901/04/18 03:53:02 METAR KPSP 041153Z 32006KT 10SM CLR 14/M05 A3009 RMK AO2 SLP189 T01441050 10172 20122 50000
0186722868931382018010412537+33822-116504FM-15+0137KPSP V0203305N002652200059N0160935N5+01225-00505101885ADDAA101000095GA1005+999999999GD10991+9999999GF100991999999999999999999MA1101905100255REMMET09101/04/18 04:53:02 METAR KPSP 041253Z 33005KT 10SM CLR 12/M05 A3009 RMK AO2 SLP188 T01221050
0186722868931382018010413537+33822-116504FM-15+0137KPSP V0203205N002652200059N0160935N5+01395-00615101945ADDAA101000095GA1005+999999999GD10991+9999999GF100991999999999999999999MA1101935100295REMMET09101/04/18 05:53:02 METAR KPSP 041353Z 32005KT 10SM CLR 14/M06 A3010 RMK AO2 SLP194 T01391061
0206722868931382018010414537+33822-116504FM-15+0137KPSP V0209999C000052200059N0160935N5+01115-00285102015ADDAA101000095GA1005+999999999GD10991+9999999GF100991999999999999999999MA1102005100355MD1390119+9999REMMET09701/04/18 06:53:02 METAR KPSP 041453Z 00000KT 10SM CLR 11/M03 A3012 RMK AO2 SLP201 T01111028 53011
0186722868931382018010415537+33822-116504FM-15+0137KPSP V0203005N002152200059N0160935N5+01445-00395102055ADDAA101000095GA1005+999999999GD10991+9999999GF100991999999999999999999MA1102035100395REMMET09101/04/18 07:53:02 METAR KPSP 041553Z 30004KT 10SM CLR 14/M04 A3013 RMK AO2 SLP205 T01441039
0186722868931382018010416537+33822-116504FM-15+0137KPSP V0209999C000052200059N0160935N5+01785-00115102085ADDAA101000095GA1005+999999999GD10991+9999999GF100991999999999999999999MA1102105100455REMMET09101/04/18 08:53:02 METAR KPSP 041653Z 00000KT 10SM CLR 18/M01 A3015 RMK AO2 SLP208 T01781011
0244722868931382018010417537+33822-116504FM-15+0137KPSP V0209999C000052200059N0160935N5+02115-00445102125ADDAA101000095GA1005+999999999GD10991+9999999GF100991999999999999999999KA1060M+02171KA2060N+01061MA1102135100495MD1190129+9999REMMET10901/04/18 09:53:02 METAR KPSP 041753Z 00000KT 10SM CLR 21/M04 A3016 RMK AO2 SLP212 T02111044 10217 20106 51012
0186722868931382018010418537+33822-116504FM-15+0137KPSP V0209999C000052200059N0160935N5+02335-00445102065ADDAA101000095GA1005+999999999GD10991+9999999GF100991999999999999999999MA1102075100425REMMET09101/04/18 10:53:02 METAR KPSP 041853Z 00000KT 10SM CLR 23/M04 A3014 RMK AO2 SLP206 T02331044
0186722868931382018010419537+33822-116504FM-15+0137KPSP V0209999V002652200059N0160935N5+02505-00675101925ADDAA101000095GA1005+999999999GD10991+9999999GF100991999999999999999999MA1101935100295REMMET09101/04/18 11:53:02 METAR KPSP 041953Z VRB05KT 10SM CLR 25/M07 A3010 RMK AO2 SLP192 T02501067
0206722868931382018010420537+33822-116504FM-15+0137KPSP V0209999V003152200059N0160935N5+02565-00615101825ADDAA101000095GA1005+999999999GD10991+9999999GF100991999999999999999999MA1101835100195MD1890289+9999REMMET09701/04/18 12:53:02 METAR KPSP 042053Z VRB06KT 10SM CLR 26/M06 A3007 RMK AO2 SLP182 T02561061 58028
0186722868931382018010421537+33822-116504FM-15+0137KPSP V0209999V003152200059N0160935N5+02615-00505101785ADDAA101000095GA1005+999999999GD10991+9999999GF100991999999999999999999MA1101795100155REMMET09101/04/18 13:53:02 METAR KPSP 042153Z VRB06KT 10SM CLR 26/M05 A3006 RMK AO2 SLP178 T02611050
0186722868931382018010422537+33822-116504FM-15+0137KPSP V0201205N003152200059N0160935N5+02675-00565101765ADDAA101000095GA1005+999999999GD10991+9999999GF100991999999999999999999MA1101765100125REMMET09101/04/18 14:53:02 METAR KPSP 042253Z 12006KT 10SM CLR 27/M06 A3005 RMK AO2 SLP176 T02671056
0244722868931382018010423537+33822-116504FM-15+0137KPSP V0209999V003152200059N0160935N5+02615-00445101785ADDAA101000095GA1005+999999999GD10991+9999999GF100991999999999999999999KA1060M+02671KA2060N+02111MA1101795100155MD1590049+9999REMMET10901/04/18 15:53:02 METAR KPSP 042353Z VRB06KT 10SM CLR 26/M04 A3006 RMK AO2 SLP178 T02611044 10267 20211 55004
0186722868931382018010500537+33822-116504FM-15+0137KPSP V0209999C000052200059N0160935N5+02335-00335101825ADDAA101000095GA1005+999999999GD10991+9999999GF100991999999999999999999MA1101835100195REMMET09101/04/18 16:53:01 METAR KPSP 050053Z 00000KT 10SM CLR 23/M03 A3007 RMK AO2 SLP182 T02331033
0186722868931382018010501537+33822-116504FM-15+0137KPSP V0209999C000052200059N0160935N5+02175-00225101925ADDAA101000095GA1005+999999999GD10991+9999999GF100991999999999999999999MA1101935100295REMMET09101/04/18 17:53:01 METAR KPSP 050153Z 00000KT 10SM CLR 22/M02 A3010 RMK AO2 SLP192 T02171022
0206722868931382018010502537+33822-116504FM-15+0137KPSP V0209999V001552200059N0160935N5+02065-00285101985ADDAA101000095GA1005+999999999GD10991+9999999GF100991999999999999999999MA1102005100355MD1390199+9999REMMET09701/04/18 18:53:02 METAR KPSP 050253Z VRB03KT 10SM CLR 21/M03 A3012 RMK AO2 SLP198 T02061028 53019
0185722868931382018010503537+33822-116504FM-15+0137KPSP V0203305N002152200059N0160935N5+01725+00005102025ADDAA101000095GA1005+999999999GD10991+9999999GF100991999999999999999999MA1102035100395REMMET09001/04/18 19:53:02 METAR KPSP 050353Z 33004KT 10SM CLR 17/00 A3013 RMK AO2 SLP202 T01720000
0186722868931382018010504537+33822-116504FM-15+0137KPSP V0203205N002652200059N0160935N5+01565-00335102075ADDAA101000095GA1005+999999999GD10991+9999999GF100991999999999999999999MA1102075100425REMMET09101/04/18 20:53:02 METAR KPSP 050453Z 32005KT 10SM CLR 16/M03 A3014 RMK AO2 SLP207 T01561033
0244722868931382018010505537+33822-116504FM-15+0137KPSP V0203305N003152200059N0160935N5+01565-00285102115ADDAA101000095GA1005+999999999GD10991+9999999GF100991999999999999999999KA1060M+02561KA2060N+01561MA1102105100455MD1390129+9999REMMET10901/04/18 21:53:02 METAR KPSP 050553Z 33006KT 10SM CLR 16/M03 A3015 RMK AO2 SLP211 T01561028 10256 20156 53012
0186722868931382018010506537+33822-116504FM-15+0137KPSP V0203305N003652200059N0160935N5+01565-00395102115ADDAA101000095GA1005+999999999GD10991+9999999GF100991999999999999999999MA1102135100495REMMET09101/04/18 22:53:02 METAR KPSP 050653Z 33007KT 10SM CLR 16/M04 A3016 RMK AO2 SLP211 T01561039
0222722868931382018010507537+33822-116504FM-15+0137KPSP V0203305N002652200059N0160935N5+01565-00335102055ADDAA101000095GA1005+999999999GD10991+9999999GF100991999999999999999999KA1240M+02671KA2240N+01061MA1102075100425REMMET10101/04/18 23:53:02 METAR KPSP 050753Z 33005KT 10SM CLR 16/M03 A3014 RMK AO2 SLP205 T01561033 402670106
0930722868931382018010507596+33822-116504SOD  +0137KPSP V020999999999999999999999999999+99999+99999999999ADDAA124000095AJ100009599999999AL12400095AN1024000095KA1240M+02675KA2240N+01065MG1100324101764OE11240049212099995OE22240040232099995OE33240015299999995REMSOD77024 HR PRECIPITATION (IN): 0.00 SNOW DEPTH (IN):    0 24 HR SNOWFALL (IN):  0.024 HR MAX TEMP (F): 8024 HR MIN TEMP (F): 51AVERAGE STATION PRESSURE(D):29.624 MINIMUM SEA LEVEL PRESSURE:30.05 TIME OF OCCURRENCE:1552 PEAK WIND SPEED (MPH): 11 PEAK WIND DIR (DEG):120 PEAK WIND TIME (LST):      FASTEST 2MIN SPEED (MPH):  9FASTEST 2MIN DIR (DEG):320 FASTEST 2MIN TIME (LST):     AVERAGE WIND SPEED (MPH): 3.4 24 HR AVG TEMP (F): 66DEPART FROM NORMAL: 10  SKY COVER SR-SS (TENTHS): 0HEATING DEGREE DAYS:  0 COOLING DEGREE DAYS:  1 LATEST DAY MAX TEMP (0700-1900 LST): 80 LATEST NIGHT MIN TEMP(1900-0800 LST):51 HOURLY INCREMENTAL PRECIPITATION VALUES (IN):0.00 0.00 0.00 0.00 0.00 0.00 0.00 0.00 0.00 0.00 0.00 0.00 0.00 0.00 0.00 0.00 0.00 0.00 0.00 0.00 0.00 0.00 0.00 0.00
0205722868931382018010508537+33822-116504FM-15+0137KPSP V0209999C000052200059N0160935N5+01285+00065102075ADDAA101000095GA1005+999999999GD10991+9999999GF100991999999999999999999MA1102075100425MD1590039+9999REMMET09601/05/18 00:53:02 METAR KPSP 050853Z 00000KT 10SM CLR 13/01 A3014 RMK AO2 SLP207 T01280006 55003
0185722868931382018010509537+33822-116504FM-15+0137KPSP V0203205N002152200059N0160935N5+01335+00225102075ADDAA101000095GA1005+999999999GD10991+9999999GF100991999999999999999999MA1102105100455REMMET09001/05/18 01:53:02 METAR KPSP 050953Z 32004KT 10SM CLR 13/02 A3015 RMK AO2 SLP207 T01330022
0185722868931382018010510537+33822-116504FM-15+0137KPSP V0209999C000052200059N0160935N5+01335+00175102085ADDAA101000095GA1005+999999999GD10991+9999999GF100991999999999999999999MA1102105100455REMMET09001/05/18 02:53:02 METAR KPSP 051053Z 00000KT 10SM CLR 13/02 A3015 RMK AO2 SLP208 T01330017
0243722868931382018010511537+33822-116504FM-15+0137KPSP V0209999C000052200059N0160935N5+01175+00175102055ADDAA101000095GA1005+999999999GD10991+9999999GF100991999999999999999999KA1060M+01671KA2060N+01171MA1102075100425MD1890029+9999REMMET10801/05/18 03:53:02 METAR KPSP 051153Z 00000KT 10SM CLR 12/02 A3014 RMK AO2 SLP205 T01170017 10167 20117 58002
0185722868931382018010512537+33822-116504FM-15+0137KPSP V0203405N002152200059N0160935N5+01505+00395102015ADDAA101000095GA1005+999999999GD10991+9999999GF100991999999999999999999MA1102035100395REMMET09001/05/18 04:53:02 METAR KPSP 051253Z 34004KT 10SM CLR 15/04 A3013 RMK AO2 SLP201 T01500039
0185722868931382018010513537+33822-116504FM-15+0137KPSP V0203405N002152200059N0160935N5+01285+00505102015ADDAA101000095GA1005+999999999GD10991+9999999GF100991999999999999999999MA1102035100395REMMET09001/05/18 05:53:02 METAR KPSP 051353Z 34004KT 10SM CLR 13/05 A3013 RMK AO2 SLP201 T01280050
0205722868931382018010514537+33822-116504FM-15+0137KPSP V0209999C000052200059N0160935N5+01225+00565102095ADDAA101000095GA1005+999999999GD10991+9999999GF100991999999999999999999MA1102105100455MD1390039+9999REMMET09601/05/18 06:53:02 METAR KPSP 051453Z 00000KT 10SM CLR 12/06 A3015 RMK AO2 SLP209 T01220056 53003
0185722868931382018010515537+33822-116504FM-15+0137KPSP V0209999C000052200059N0160935N5+01505+00675102145ADDAA101000095GA1005+999999999GD10991+9999999GF100991999999999999999999MA1102135100495REMMET09001/05/18 07:53:02 METAR KPSP 051553Z 00000KT 10SM CLR 15/07 A3016 RMK AO2 SLP214 T01500067
0185722868931382018010516537+33822-116504FM-15+0137KPSP V0209999C000052200059N0160935N5+01835+00445102215ADDAA101000095GA1005+999999999GD10991+9999999GF100991999999999999999999MA1102245100595REMMET09001/05/18 08:53:02 METAR KPSP 051653Z 00000KT 10SM CLR 18/04 A3019 RMK AO2 SLP221 T01830044
0243722868931382018010517537+33822-116504FM-15+0137KPSP V0209999C000052200059N0160935N5+02115+00615102225ADDAA101000095GA1005+999999999GD10991+9999999GF100991999999999999999999KA1060M+02111KA2060N+01111MA1102245100595MD1190139+9999REMMET10801/05/18 09:53:02 METAR KPSP 051753Z 00000KT 10SM CLR 21/06 A3019 RMK AO2 SLP222 T02110061 10211 20111 51013
0185722868931382018010518537+33822-116504FM-15+0137KPSP V0209999V001552200059N0160935N5+02335+00565102195ADDAA101000095GA1005+999999999GD10991+9999999GF100991999999999999999999MA1102205100555REMMET09001/05/18 10:53:02 METAR KPSP 051853Z VRB03KT 10SM CLR 23/06 A3018 RMK AO2 SLP219 T02330056
0185722868931382018010519537+33822-116504FM-15+0137KPSP V0209999V002152200059N0160935N5+02445+00615102085ADDAA101000095GA1005+999999999GD10991+9999999GF100991999999999999999999MA1102105100455REMMET09001/05/18 11:53:02 METAR KPSP 051953Z VRB04KT 10SM CLR 24/06 A3015 RMK AO2 SLP208 T02440061
0205722868931382018010520537+33822-116504FM-15+0137KPSP V0201205N002652200059N0160935N5+02615+00615101975ADDAA101000095GA1005+999999999GD10991+9999999GF100991999999999999999999MA1101965100325MD1890259+9999REMMET09601/05/18 12:53:02 METAR KPSP 052053Z 12005KT 10SM CLR 26/06 A3011 RMK AO2 SLP197 T02610061 58025
0167722868931382018010520567+33822-116504FM-16+0137KPSP V0209999V002652200059N0160935N5+02615+00615999999ADDGA1005+999999999GD10991+9999999GF100991999999999999999999MA1101965100325REMMET08301/05/18 12:56:02 SPECI KPSP 052056Z VRB05KT 10SM CLR 26/06 A3011 RMK AO2 T02610061
0185722868931382018010521537+33822-116504FM-15+0137KPSP V0209999V002652200059N0160935N5+02675+00615101885ADDAA101000095GA1005+999999999GD10991+9999999GF100991999999999999999999MA1101905100255REMMET09001/05/18 13:53:02 METAR KPSP 052153Z VRB05KT 10SM CLR 27/06 A3009 RMK AO2 SLP188 T02670061
0185722868931382018010522537+33822-116504FM-15+0137KPSP V0201005N004652200059N0160935N5+02615+00565101895ADDAA101000095GA1005+999999999GD10991+9999999GF100991999999999999999999MA1101935100295REMMET09001/05/18 14:53:02 METAR KPSP 052253Z 10009KT 10SM CLR 26/06 A3010 RMK AO2 SLP189 T02610056
0243722868931382018010523537+33822-116504FM-15+0137KPSP V0201105N003652200059N0160935N5+02505+00335101935ADDAA101000095GA1005+999999999GD10991+9999999GF100991999999999999999999KA1060M+02671KA2060N+02111MA1101935100295MD1590049+9999REMMET10801/05/18 15:53:02 METAR KPSP 052353Z 11007KT 10SM CLR 25/03 A3010 RMK AO2 SLP193 T02500033 10267 20211 55004
0185722868931382018010600537+33822-116504FM-15+0137KPSP V0201805N001552200059N0160935N5+02285+00225101955ADDAA101000095GA1005+999999999GD10991+9999999GF100991999999999999999999MA1101965100325REMMET09001/05/18 16:53:01 METAR KPSP 060053Z 18003KT 10SM CLR 23/02 A3011 RMK AO2 SLP195 T02280022
0185722868931382018010601537+33822-116504FM-15+0137KPSP V0200705N001552200059N0160935N5+02115+00065102035ADDAA101000095GA1005+999999999GD10991+9999999GF100991999999999999999999MA1102035100395REMMET09001/05/18 17:53:01 METAR KPSP 060153Z 07003KT 10SM CLR 21/01 A3013 RMK AO2 SLP203 T02110006
0205722868931382018010602537+33822-116504FM-15+0137KPSP V0209999C000052200059N0160935N5+02005+00065102095ADDAA101000095GA1005+999999999GD10991+9999999GF100991999999999999999999MA1102105100455MD1390159+9999REMMET09601/05/18 18:53:02 METAR KPSP 060253Z 00000KT 10SM CLR 20/01 A3015 RMK AO2 SLP209 T02000006 53015
0185722868931382018010603537+33822-116504FM-15+0137KPSP V0203405N002152200059N0160935N5+01835+00225102095ADDAA101000095GA1005+999999999GD10991+9999999GF100991999999999999999999MA1102105100455REMMET09001/05/18 19:53:02 METAR KPSP 060353Z 34004KT 10SM CLR 18/02 A3015 RMK AO2 SLP209 T01830022
0185722868931382018010604537+33822-116504FM-15+0137KPSP V0203305N002652200059N0160935N5+01785+00335102095ADDAA101000095GA1005+999999999GD10991+9999999GF100991999999999999999999MA1102105100455REMMET09001/05/18 20:53:02 METAR KPSP 060453Z 33005KT 10SM CLR 18/03 A3015 RMK AO2 SLP209 T01780033
0243722868931382018010605537+33822-116504FM-15+0137KPSP V0203005N001552200059N0160935N5+01785+00395102145ADDAA101000095GA1005+999999999GD10991+9999999GF100991999999999999999999KA1060M+02561KA2060N+01721MA1102175100525MD1390069+9999REMMET10801/05/18 21:53:02 METAR KPSP 060553Z 30003KT 10SM CLR 18/04 A3017 RMK AO2 SLP214 T01780039 10256 20172 53006
0185722868931382018010606537+33822-116504FM-15+0137KPSP V0209999C000052200059N0160935N5+01615+00565102115ADDAA101000095GA1005+999999999GD10991+9999999GF100991999999999999999999MA1102135100495REMMET09001/05/18 22:53:02 METAR KPSP 060653Z 00000KT 10SM CLR 16/06 A3016 RMK AO2 SLP211 T01610056
0221722868931382018010607537+33822-116504FM-15+0137KPSP V0209999C000052200059N0160935N5+01675+00505102065ADDAA101000095GA1005+999999999GD10991+9999999GF100991999999999999999999KA1240M+02671KA2240N+01111MA1102075100425REMMET10001/05/18 23:53:02 METAR KPSP 060753Z 00000KT 10SM CLR 17/05 A3014 RMK AO2 SLP206 T01670050 402670111
0930722868931382018010607596+33822-116504SOD  +0137KPSP V020999999999999999999999999999+99999+99999999999ADDAA124000095AJ100009599999999AL12400095AN1024000095KA1240M+02675KA2240N+01115MG1100424101864OE11240058110099995OE22240053611099995OE33240010799999995REMSOD77024 HR PRECIPITATION (IN): 0.00 SNOW DEPTH (IN):    0 24 HR SNOWFALL (IN):  0.024 HR MAX TEMP (F): 8024 HR MIN TEMP (F): 52AVERAGE STATION PRESSURE(D):29.656 MINIMUM SEA LEVEL PRESSURE:30.08 TIME OF OCCURRENCE:1440 PEAK WIND SPEED (MPH): 13 PEAK WIND DIR (DEG):100 PEAK WIND TIME (LST):      FASTEST 2MIN SPEED (MPH): 12FASTEST 2MIN DIR (DEG):110 FASTEST 2MIN TIME (LST):     AVERAGE WIND SPEED (MPH): 2.4 24 HR AVG TEMP (F): 66DEPART FROM NORMAL: 10  SKY COVER SR-SS (TENTHS): 0HEATING DEGREE DAYS:  0 COOLING DEGREE DAYS:  1 LATEST DAY MAX TEMP (0700-1900 LST): 80 LATEST NIGHT MIN TEMP(1900-0800 LST):52 HOURLY INCREMENTAL PRECIPITATION VALUES (IN):0.00 0.00 0.00 0.00 0.00 0.00 0.00 0.00 0.00 0.00 0.00 0.00 0.00 0.00 0.00 0.00 0.00 0.00 0.00 0.00 0.00 0.00 0.00 0.00
0205722868931382018010608537+33822-116504FM-15+0137KPSP V0203205N001552200059N0160935N5+01725+00565102025ADDAA101000095GA1005+999999999GD10991+9999999GF100991999999999999999999MA1102035100395MD1890129+9999REMMET09601/06/18 00:53:02 METAR KPSP 060853Z 32003KT 10SM CLR 17/06 A3013 RMK AO2 SLP202 T01720056 58012
0185722868931382018010609537+33822-116504FM-15+0137KPSP V0209999C000052200059N0160935N5+01565+00615101985ADDAA101000095GA1005+999999999GD10991+9999999GF100991999999999999999999MA1102005100355REMMET09001/06/18 01:53:02 METAR KPSP 060953Z 00000KT 10SM CLR 16/06 A3012 RMK AO2 SLP198 T01560061
0185722868931382018010610537+33822-116504FM-15+0137KPSP V0203005N001552200059N0160935N5+01785+00565101925ADDAA101000095GA1005+999999999GD10991+9999999GF100991999999999999999999MA1101935100295REMMET09001/06/18 02:53:02 METAR KPSP 061053Z 30003KT 10SM CLR 18/06 A3010 RMK AO2 SLP192 T01780056
0243722868931382018010611537+33822-116504FM-15+0137KPSP V0203005N001552200059N0160935N5+01615+00565101895ADDAA101000095GA1005+999999999GD10991+9999999GF100991999999999999999999KA1060M+01831KA2060N+01441MA1101905100255MD1790139+9999REMMET10801/06/18 03:53:02 METAR KPSP 061153Z 30003KT 10SM CLR 16/06 A3009 RMK AO2 SLP189 T01610056 10183 20144 57013
0185722868931382018010612537+33822-116504FM-15+0137KPSP V0203305N004152200059N0160935N5+01615+00615101885ADDAA101000095GA1005+999999999GD10991+9999999GF100991999999999999999999MA1101905100255REMMET09001/06/18 04:53:02 METAR KPSP 061253Z 33008KT 10SM CLR 16/06 A3009 RMK AO2 SLP188 T01610061
0185722868931382018010613537+33822-116504FM-15+0137KPSP V0203105N003152200059N0160935N5+01615+00675101885ADDAA101000095GA1005+999999999GD10991+9999999GF100991999999999999999999MA1101905100255REMMET09001/06/18 05:53:02 METAR KPSP 061353Z 31006KT 10SM CLR 16/07 A3009 RMK AO2 SLP188 T01610067
0205722868931382018010614537+33822-116504FM-15+0137KPSP V0209999C000052200059N0160935N5+01445+00675101935ADDAA101000095GA1005+999999999GD10991+9999999GF100991999999999999999999MA1101935100295MD1390039+9999REMMET09601/06/18 06:53:02 METAR KPSP 061453Z 00000KT 10SM CLR 14/07 A3010 RMK AO2 SLP193 T01440067 53003
0185722868931382018010615537+33822-116504FM-15+0137KPSP V0203505N002152200059N0160935N5+01725+00445102025ADDAA101000095GA1005+999999999GD10991+9999999GF100991999999999999999999MA1102035100395REMMET09001/06/18 07:53:02 METAR KPSP 061553Z 35004KT 10SM CLR 17/04 A3013 RMK AO2 SLP202 T01720044
0185722868931382018010616537+33822-116504FM-15+0137KPSP V0209999C000052200059N0160935N5+01675+00725102045ADDAA101000095GA1005+999999999GD10991+9999999GF100991999999999999999999MA1102035100395REMMET09001/06/18 08:53:02 METAR KPSP 061653Z 00000KT 10SM CLR 17/07 A3013 RMK AO2 SLP204 T01670072
0243722868931382018010617537+33822-116504FM-15+0137KPSP V0209999C000052200059N0160935N5+02005+00565102025ADDAA101000095GA1005+999999999GD10991+9999999GF100991999999999999999999KA1060M+02001KA2060N+01331MA1102035100395MD1090099+9999REMMET10801/06/18 09:53:02 METAR KPSP 061753Z 00000KT 10SM CLR 20/06 A3013 RMK AO2 SLP202 T02000056 10200 20133 50009
0187722868931382018010618537+33822-116504FM-15+0137KPSP V0209999V002152200059N0160935N5+02285+00615101955ADDAA101000095GA1005+999999999GD10991+9999999GF100991999999999999999999MA1101965100325REMMET09201/06/18 10:53:02 METAR KPSP 061853Z VRB04KT 10SM CLR 23/06 A3011 RMK AO2 SLP195 T02280061 $
0187722868931382018010619537+33822-116504FM-15+0137KPSP V0201305N003152200059N0160935N5+02395+00615101855ADDAA101000095GA1005+999999999GD10991+9999999GF100991999999999999999999MA1101865100225REMMET09201/06/18 11:53:02 METAR KPSP 061953Z 13006KT 10SM CLR 24/06 A3008 RMK AO2 SLP185 T02390061 $
0207722868931382018010620537+33822-116504FM-15+0137KPSP V0200805N004152200059N0160935N5+02565+00565101715ADDAA101000095GA1005+999999999GD10991+9999999GF100991999999999999999999MA1101735100095MD1890309+9999REMMET09801/06/18 12:53:02 METAR KPSP 062053Z 08008KT 10SM CLR 26/06 A3004 RMK AO2 SLP171 T02560056 58030 $
0187722868931382018010621537+33822-116504FM-15+0137KPSP V0201305N002152200059N0160935N5+02505+00445101635ADDAA101000095GA1005+999999999GD10991+9999999GF100991999999999999999999MA1101665100025REMMET09201/06/18 13:53:02 METAR KPSP 062153Z 13004KT 10SM CLR 25/04 A3002 RMK AO2 SLP163 T02500044 $
0231722868931382018010622537+33822-116504FM-15+0137KPSP V0201305N002152200059N0160935N5+02505+00505101625ADDAA101000095GA1025+033535999GD11991+0335359GE19AGL   +99999+99999GF102995999999033531999999MA1101665100025REMMET09501/06/18 14:53:02 METAR KPSP 062253Z 13004KT 10SM FEW110 25/05 A3002 RMK AO2 SLP162 T02500050 $EQDD01      0ADE726
0289722868931382018010623537+33822-116504FM-15+0137KPSP V0201105N003152200059N0160935N5+02445+00505101615ADDAA101000095GA1045+033535999GD12991+0335359GE19AGL   +99999+99999GF104995999999033531999999KA1060M+02561KA2060N+02001MA1101635099995MD1690109+9999REMMET11301/06/18 15:53:02 METAR KPSP 062353Z 11006KT 10SM SCT110 24/05 A3001 RMK AO2 SLP161 T02440050 10256 20200 56010 $EQDD01      0ADE726
0212722868931382018010700537+33822-116504FM-15+0137KPSP V0201105N00155033535MN0160935N5+02285+00335101645ADDAA101000095GA1075+033535999GD13991+0335359GE19AGL   +99999+99999GF199999999999033531999999MA1101665100025REMMET09501/06/18 16:53:01 METAR KPSP 070053Z 11003KT 10SM BKN110 23/03 A3002 RMK AO2 SLP164 T02280033 $
0212722868931382018010701537+33822-116504FM-15+0137KPSP V0201805N00215030485MN0160935N5+02175+00395101655ADDAA101000095GA1075+030485999GD13991+0304859GE19AGL   +99999+99999GF199999999999030481999999MA1101665100025REMMET09501/06/18 17:53:01 METAR KPSP 070153Z 18004KT 10SM BKN100 22/04 A3002 RMK AO2 SLP165 T02170039 $
0232722868931382018010702537+33822-116504FM-15+0137KPSP V0209999C00005030485MN0160935N5+02065+00445101705ADDAA101000095GA1085+030485999GD14991+0304859GE19AGL   +99999+99999GF199999999999030481999999MA1101735100095MD1390089+9999REMMET10101/06/18 18:53:02 METAR KPSP 070253Z 00000KT 10SM OVC100 21/04 A3004 RMK AO2 SLP170 T02060044 53008 $
0212722868931382018010703537+33822-116504FM-15+0137KPSP V0209999C00005028965MN0160935N5+02005+00445101705ADDAA101000095GA1075+028965999GD13991+0289659GE19AGL   +99999+99999GF199999999999028961999999MA1101695100055REMMET09501/06/18 19:53:02 METAR KPSP 070353Z 00000KT 10SM BKN095 20/04 A3003 RMK AO2 SLP170 T02000044 $
0231722868931382018010704537+33822-116504FM-15+0137KPSP V0209999C000052200059N0160935N5+01945+00335101725ADDAA101000095GA1025+028965999GD11991+0289659GE19AGL   +99999+99999GF102995999999028961999999MA1101735100095REMMET09501/06/18 20:53:02 METAR KPSP 070453Z 00000KT 10SM FEW095 19/03 A3004 RMK AO2 SLP172 T01940033 $EQDD01      0ADE726
0245722868931382018010705537+33822-116504FM-15+0137KPSP V0209999C000052200059N0160935N5+01725+00505101715ADDAA101000095GA1005+999999999GD10991+9999999GF100991999999999999999999KA1060M+02391KA2060N+01721MA1101735100095MD1290019+9999REMMET11001/06/18 21:53:02 METAR KPSP 070553Z 00000KT 10SM CLR 17/05 A3004 RMK AO2 SLP171 T01720050 10239 20172 52001 $
0187722868931382018010706537+33822-116504FM-15+0137KPSP V0203205N001552200059N0160935N5+01835+00445101695ADDAA101000095GA1005+999999999GD10991+9999999GF100991999999999999999999MA1101735100095REMMET09201/06/18 22:53:02 METAR KPSP 070653Z 32003KT 10SM CLR 18/04 A3004 RMK AO2 SLP169 T01830044 $
0223722868931382018010707537+33822-116504FM-15+0137KPSP V0203005N002152200059N0160935N5+01895+00505101665ADDAA101000095GA1005+999999999GD10991+9999999GF100991999999999999999999KA1240M+02561KA2240N+01331MA1101665100025REMMET10201/06/18 23:53:02 METAR KPSP 070753Z 30004KT 10SM CLR 19/05 A3002 RMK AO2 SLP166 T01890050 402560133 $
0930722868931382018010707596+33822-116504SOD  +0137KPSP V020999999999999999999999999999+99999+99999999999ADDAA124000095AJ100009599999999AL12400095AN1024000095KA1240M+02565KA2240N+01335MG1100184101594OE11240058108099995OE22240040212099995OE33240014899999995REMSOD77024 HR PRECIPITATION (IN): 0.00 SNOW DEPTH (IN):    0 24 HR SNOWFALL (IN):  0.024 HR MAX TEMP (F): 7824 HR MIN TEMP (F): 56AVERAGE STATION PRESSURE(D):29.584 MINIMUM SEA LEVEL PRESSURE:30.00 TIME OF OCCURRENCE:1612 PEAK WIND SPEED (MPH): 13 PEAK WIND DIR (DEG): 80 PEAK WIND TIME (LST):      FASTEST 2MIN SPEED (MPH):  9FASTEST 2MIN DIR (DEG):120 FASTEST 2MIN TIME (LST):     AVERAGE WIND SPEED (MPH): 3.3 24 HR AVG TEMP (F): 67DEPART FROM NORMAL: 10  SKY COVER SR-SS (TENTHS): 2HEATING DEGREE DAYS:  0 COOLING DEGREE DAYS:  2 LATEST DAY MAX TEMP (0700-1900 LST): 78 LATEST NIGHT MIN TEMP(1900-0800 LST):56 HOURLY INCREMENTAL PRECIPITATION VALUES (IN):0.00 0.00 0.00 0.00 0.00 0.00 0.00 0.00 0.00 0.00 0.00 0.00 0.00 0.00 0.00 0.00 0.00 0.00 0.00 0.00 0.00 0.00 0.00 0.00
0207722868931382018010708537+33822-116504FM-15+0137KPSP V0209999C000052200059N0160935N5+01565+00565101635ADDAA101000095GA1005+999999999GD10991+9999999GF100991999999999999999999MA1101665100025MD1890079+9999REMMET09801/07/18 00:53:02 METAR KPSP 070853Z 00000KT 10SM CLR 16/06 A3002 RMK AO2 SLP163 T01560056 58007 $
0192722868931382018010709537+33822-116504FM-15+0137KPSP V0202705N002152200059N0160935N5+01725+00565101645ADDAA101000095GA1005+999999999GD10991+9999999GF100991999999999999999999MA1101665100025REMMET09701/07/18 01:53:02 METAR KPSP 070953Z 27004KT 10SM CLR 17/06 A3002 RMK AO2 SLP164 T01720056 TSNO $
0187722868931382018010710537+33822-116504FM-15+0137KPSP V0202705N002652200059N0160935N5+01835+00505101715ADDAA101000095GA1005+999999999GD10991+9999999GF100991999999999999999999MA1101735100095REMMET09201/07/18 02:53:02 METAR KPSP 071053Z 27005KT 10SM CLR 18/05 A3004 RMK AO2 SLP171 T01830050 $
0245722868931382018010711537+33822-116504FM-15+0137KPSP V0209999V002652200059N0160935N5+01945+00835101725ADDAA101000095GA1005+999999999GD10991+9999999GF100991999999999999999999KA1060M+02001KA2060N+01561MA1101735100095MD1390099+9999REMMET11001/07/18 03:53:02 METAR KPSP 071153Z VRB05KT 10SM CLR 19/08 A3004 RMK AO2 SLP172 T01940083 10200 20156 53009 $
0187722868931382018010712537+33822-116504FM-15+0137KPSP V0203205N003152200059N0160935N5+01895+00565101785ADDAA101000095GA1005+999999999GD10991+9999999GF100991999999999999999999MA1101795100155REMMET09201/07/18 04:53:02 METAR KPSP 071253Z 32006KT 10SM CLR 19/06 A3006 RMK AO2 SLP178 T01890056 $
0187722868931382018010713537+33822-116504FM-15+0137KPSP V0203005N002152200059N0160935N5+01835+00615101875ADDAA101000095GA1005+999999999GD10991+9999999GF100991999999999999999999MA1101905100255REMMET09201/07/18 05:53:02 METAR KPSP 071353Z 30004KT 10SM CLR 18/06 A3009 RMK AO2 SLP187 T01830061 $
0207722868931382018010714537+33822-116504FM-15+0137KPSP V0203405N004152200059N0160935N5+01675+00895101935ADDAA101000095GA1005+999999999GD10991+9999999GF100991999999999999999999MA1101935100295MD1190209+9999REMMET09801/07/18 06:53:02 METAR KPSP 071453Z 34008KT 10SM CLR 17/09 A3010 RMK AO2 SLP193 T01670089 51020 $
0187722868931382018010715537+33822-116504FM-15+0137KPSP V0203505N003152200059N0160935N5+01675+00895101985ADDAA101000095GA1005+999999999GD10991+9999999GF100991999999999999999999MA1102005100355REMMET09201/07/18 07:53:02 METAR KPSP 071553Z 35006KT 10SM CLR 17/09 A3012 RMK AO2 SLP198 T01670089 $
0187722868931382018010716537+33822-116504FM-15+0137KPSP V0209999C000052200059N0160935N5+01785+00835102045ADDAA101000095GA1005+999999999GD10991+9999999GF100991999999999999999999MA1102075100425REMMET09201/07/18 08:53:02 METAR KPSP 071653Z 00000KT 10SM CLR 18/08 A3014 RMK AO2 SLP204 T01780083 $
0245722868931382018010717537+33822-116504FM-15+0137KPSP V0209999C000052200059N0160935N5+02225+00785102025ADDAA101000095GA1005+999999999GD10991+9999999GF100991999999999999999999KA1060M+02221KA2060N+01611MA1102035100395MD1090099+9999REMMET11001/07/18 09:53:02 METAR KPSP 071753Z 00000KT 10SM CLR 22/08 A3013 RMK AO2 SLP202 T02220078 10222 20161 50009 $
0187722868931382018010718537+33822-116504FM-15+0137KPSP V0203405N002152200059N0160935N5+02445+00565101965ADDAA101000095GA1005+999999999GD10991+9999999GF100991999999999999999999MA1101965100325REMMET09201/07/18 10:53:02 METAR KPSP 071853Z 34004KT 10SM CLR 24/06 A3011 RMK AO2 SLP196 T02440056 $
0187722868931382018010719537+33822-116504FM-15+0137KPSP V0209999V002652200059N0160935N5+02505+00505101835ADDAA101000095GA1005+999999999GD10991+9999999GF100991999999999999999999MA1101865100225REMMET09201/07/18 11:53:02 METAR KPSP 071953Z VRB05KT 10SM CLR 25/05 A3008 RMK AO2 SLP183 T02500050 $
0207722868931382018010720537+33822-116504FM-15+0137KPSP V0209999V002652200059N0160935N5+02565+00445101725ADDAA101000095GA1005+999999999GD10991+9999999GF100991999999999999999999MA1101735100095MD1890299+9999REMMET09801/07/18 12:53:02 METAR KPSP 072053Z VRB05KT 10SM CLR 26/04 A3004 RMK AO2 SLP172 T02560044 58029 $
0169722868931382018010721187+33822-116504FM-16+0137KPSP V0201205N003152200059N0160935N5+02505+00505999999ADDGA1005+999999999GD10991+9999999GF100991999999999999999999MA1101765100125REMMET08501/07/18 13:18:02 SPECI KPSP 072118Z 12006KT 10SM CLR 25/05 A3005 RMK AO2 T02500050 $
0187722868931382018010721537+33822-116504FM-15+0137KPSP V0209999V003152200059N0160935N5+02565+00565101695ADDAA101000095GA1005+999999999GD10991+9999999GF100991999999999999999999MA1101735100095REMMET09201/07/18 13:53:02 METAR KPSP 072153Z VRB06KT 10SM CLR 26/06 A3004 RMK AO2 SLP169 T02560056 $
0187722868931382018010722537+33822-116504FM-15+0137KPSP V0201405N003152200059N0160935N5+02565+00565101635ADDAA101000095GA1005+999999999GD10991+9999999GF100991999999999999999999MA1101665100025REMMET09201/07/18 14:53:02 METAR KPSP 072253Z 14006KT 10SM CLR 26/06 A3002 RMK AO2 SLP163 T02560056 $
0245722868931382018010723537+33822-116504FM-15+0137KPSP V0209999V002152200059N0160935N5+02445+00565101655ADDAA101000095GA1005+999999999GD10991+9999999GF100991999999999999999999KA1060M+02611KA2060N+02221MA1101665100025MD1590079+9999REMMET11001/07/18 15:53:02 METAR KPSP 072353Z VRB04KT 10SM CLR 24/06 A3002 RMK AO2 SLP165 T02440056 10261 20222 55007 $
0187722868931382018010800537+33822-116504FM-15+0137KPSP V0200905N001552200059N0160935N5+02285+00725101655ADDAA101000095GA1005+999999999GD10991+9999999GF100991999999999999999999MA1101665100025REMMET09201/07/18 16:53:01 METAR KPSP 080053Z 09003KT 10SM CLR 23/07 A3002 RMK AO2 SLP165 T02280072 $
0187722868931382018010801537+33822-116504FM-15+0137KPSP V0209999C000052200059N0160935N5+02175+00785101695ADDAA101000095GA1005+999999999GD10991+9999999GF100991999999999999999999MA1101695100055REMMET09201/07/18 17:53:01 METAR KPSP 080153Z 00000KT 10SM CLR 22/08 A3003 RMK AO2 SLP169 T02170078 $
0207722868931382018010802537+33822-116504FM-15+0137KPSP V0203505N002152200059N0160935N5+02065+00785101745ADDAA101000095GA1005+999999999GD10991+9999999GF100991999999999999999999MA1101765100125MD1390079+9999REMMET09801/07/18 18:53:02 METAR KPSP 080253Z 35004KT 10SM CLR 21/08 A3005 RMK AO2 SLP174 T02060078 53007 $
0187722868931382018010803537+33822-116504FM-15+0137KPSP V0203405N001552200059N0160935N5+02005+00565101775ADDAA101000095GA1005+999999999GD10991+9999999GF100991999999999999999999MA1101795100155REMMET09201/07/18 19:53:02 METAR KPSP 080353Z 34003KT 10SM CLR 20/06 A3006 RMK AO2 SLP177 T02000056 $
0187722868931382018010804537+33822-116504FM-15+0137KPSP V0203205N002152200059N0160935N5+01945+00445101795ADDAA101000095GA1005+999999999GD10991+9999999GF100991999999999999999999MA1101795100155REMMET09201/07/18 20:53:02 METAR KPSP 080453Z 32004KT 10SM CLR 19/04 A3006 RMK AO2 SLP179 T01940044 $
0245722868931382018010805537+33822-116504FM-15+0137KPSP V0203005N002152200059N0160935N5+01945+00505101775ADDAA101000095GA1005+999999999GD10991+9999999GF100991999999999999999999KA1060M+02441KA2060N+01891MA1101795100155MD1090049+9999REMMET11001/07/18 21:53:02 METAR KPSP 080553Z 30004KT 10SM CLR 19/05 A3006 RMK AO2 SLP177 T01940050 10244 20189 50004 $
0187722868931382018010806537+33822-116504FM-15+0137KPSP V0203305N002152200059N0160935N5+01895+00615101755ADDAA101000095GA1005+999999999GD10991+9999999GF100991999999999999999999MA1101765100125REMMET09201/07/18 22:53:02 METAR KPSP 080653Z 33004KT 10SM CLR 19/06 A3005 RMK AO2 SLP175 T01890061 $
0223722868931382018010807537+33822-116504FM-15+0137KPSP V0203305N002652200059N0160935N5+01895+00565101725ADDAA101000095GA1005+999999999GD10991+9999999GF100991999999999999999999KA1240M+02611KA2240N+01561MA1101735100095REMMET10201/07/18 23:53:02 METAR KPSP 080753Z 33005KT 10SM CLR 19/06 A3004 RMK AO2 SLP172 T01890056 402610156 $
0930722868931382018010807596+33822-116504SOD  +0137KPSP V020999999999999999999999999999+99999+99999999999ADDAA124000095AJ100009599999999AL12400095AN1024000095KA1240M+02615KA2240N+01565MG1100154101634OE11240080533099995OE22240071532099995OE33240017499999995REMSOD77024 HR PRECIPITATION (IN): 0.00 SNOW DEPTH (IN):    0 24 HR SNOWFALL (IN):  0.024 HR MAX TEMP (F): 7924 HR MIN TEMP (F): 60AVERAGE STATION PRESSURE(D):29.575 MINIMUM SEA LEVEL PRESSURE:30.01 TIME OF OCCURRENCE:1549 PEAK WIND SPEED (MPH): 18 PEAK WIND DIR (DEG):330 PEAK WIND TIME (LST):      FASTEST 2MIN SPEED (MPH): 16FASTEST 2MIN DIR (DEG):320 FASTEST 2MIN TIME (LST):     AVERAGE WIND SPEED (MPH): 3.9 24 HR AVG TEMP (F): 70DEPART FROM NORMAL: 13  SKY COVER SR-SS (TENTHS): 0HEATING DEGREE DAYS:  0 COOLING DEGREE DAYS:  5 LATEST DAY MAX TEMP (0700-1900 LST): 79 LATEST NIGHT MIN TEMP(1900-0800 LST):60 HOURLY INCREMENTAL PRECIPITATION VALUES (IN):0.00 0.00 0.00 0.00 0.00 0.00 0.00 0.00 0.00 0.00 0.00 0.00 0.00 0.00 0.00 0.00 0.00 0.00 0.00 0.00 0.00 0.00 0.00 0.00
0259722868931382018010808537+33822-116504FM-15+0137KPSP V0209999C00005033535MN0160935N5+01785+00785101715ADDGA1025+027435999GA2085+033535999GD11991+0274359GD24991+0335359GE19AGL   +99999+99999GF199999999999027431999999MA1101735100095MD1690069+9999REMMET10801/08/18 00:53:02 METAR KPSP 080853Z 00000KT 10SM FEW090 OVC110 18/08 A3004 RMK AO2 SLP171 T01780078 56006 $
0176722868931382018010809537+33822-116504FM-15+0137KPSP V0209999C000052200059N0160935N5+01835+00725101645ADDGA1005+999999999GD10991+9999999GF100991999999999999999999MA1101665100025REMMET09201/08/18 01:53:02 METAR KPSP 080953Z 00000KT 10SM CLR 18/07 A3002 RMK AO2 SLP164 T01830072 $
0176722868931382018010810537+33822-116504FM-15+0137KPSP V0203005N001552200059N0160935N5+01835+00615101625ADDGA1005+999999999GD10991+9999999GF100991999999999999999999MA1101635099995REMMET09201/08/18 02:53:02 METAR KPSP 081053Z 30003KT 10SM CLR 18/06 A3001 RMK AO2 SLP162 T01830061 $
0234722868931382018010811537+33822-116504FM-15+0137KPSP V0209999C000052200059N0160935N5+01785+00725101585ADDGA1005+999999999GD10991+9999999GF100991999999999999999999KA1060M+02001KA2060N+01721MA1101595099955MD1690139+9999REMMET11001/08/18 03:53:02 METAR KPSP 081153Z 00000KT 10SM CLR 18/07 A3000 RMK AO2 SLP158 T01780072 10200 20172 56013 $
0176722868931382018010812537+33822-116504FM-15+0137KPSP V0203305N002652200059N0160935N5+01725+00725101585ADDGA1005+999999999GD10991+9999999GF100991999999999999999999MA1101595099955REMMET09201/08/18 04:53:02 METAR KPSP 081253Z 33005KT 10SM CLR 17/07 A3000 RMK AO2 SLP158 T01720072 $
0176722868931382018010813537+33822-116504FM-15+0137KPSP V0203105N001552200059N0160935N5+01725+00615101625ADDGA1005+999999999GD10991+9999999GF100991999999999999999999MA1101635099995REMMET09201/08/18 05:53:02 METAR KPSP 081353Z 31003KT 10SM CLR 17/06 A3001 RMK AO2 SLP162 T01720061 $
0221722868931382018010814537+33822-116504FM-15+0137KPSP V0209999C00005030485MN0160935N5+01725+00725101645ADDGA1075+030485999GD13991+0304859GE19AGL   +99999+99999GF199999999999030481999999MA1101665100025MD1390049+9999REMMET10101/08/18 06:53:02 METAR KPSP 081453Z 00000KT 10SM BKN100 17/07 A3002 RMK AO2 SLP164 T01720072 53004 $
0246722868931382018010815537+33822-116504FM-15+0137KPSP V0203405N001552200059N0160935N5+01725+00945101655ADDAA101000021GA1025+033535999GD11991+0335359GE19AGL   +99999+99999GF102995999999033531999999MA1101665100025REMMET11001/08/18 07:53:02 METAR KPSP 081553Z 34003KT 10SM FEW110 17/09 A3002 RMK AO2 RAB1454E22 SLP165 P0000 T01720094EQDD01      0ADE726
0199722868931382018010816537+33822-116504FM-15+0137KPSP V0203305N00215036585MN0160935N5+01835+00725101695ADDGA1085+036585999GD14991+0365859GE19AGL   +99999+99999GF199999999999036581999999MA1101695100055REMMET09301/08/18 08:53:02 METAR KPSP 081653Z 33004KT 10SM OVC120 18/07 A3003 RMK AO2 SLP169 T01830072
0309722868931382018010817537+33822-116504FM-15+0137KPSP V0209999C00005030485MN0160935N5+01945+00835101715ADDAA106000021GA1075+030485999GD13991+0304859GE19AGL   +99999+99999GF199999999999030481999999KA1060M+01941KA2060N+01611MA1101735100095MD1390079+9999REMMET11701/08/18 09:53:02 METAR KPSP 081753Z 00000KT 10SM BKN100 19/08 A3004 RMK AO2 SLP171 60000 T01940083 10194 20161 53007EQDQ01  00002PRCP06Q02  00008PRCP06
0218722868931382018010822537+33822-116504FM-15+0137KPSP V0209999C000052200059N0160935N5+02225+00445101325ADDGA1025+033535999GD11991+0335359GE19AGL   +99999+99999GF102995999999033531999999MA1101355099725REMMET09301/08/18 14:53:02 METAR KPSP 082253Z 00000KT 10SM FEW110 22/04 A2993 RMK AO2 SLP132 T02220044EQDD01      0ADE726
0345722868931382018010823537+33822-116504FM-15+0137KPSP V0202305N00155027435MN0160935N5+02175+00505101385ADDAA101000025GA1025+014635999GA2045+021345999GA3075+027435999GD11991+0146359GD22991+0213459GD33991+0274359GE19AGL   +99999+99999GF199999999999014631999999KA1060M+02221KA2060N+01611MA1101395099755REMMET14001/08/18 15:53:02 METAR KPSP 082353Z 23003KT 10SM FEW048 SCT070 BKN090 22/05 A2994 RMK AO2 RAB17E41 SLP138 P0000 6//// T02170050 10222 20161
0210722868931382018010900537+33822-116504FM-15+0137KPSP V0203505N00315033535MN0160935N5+02115+00725101325ADDAA101000095GA1085+033535999GD14991+0335359GE19AGL   +99999+99999GF199999999999033531999999MA1101325099685REMMET09301/08/18 16:53:01 METAR KPSP 090053Z 35006KT 10SM OVC110 21/07 A2992 RMK AO2 SLP132 T02110072
0248722868931382018010901537+33822-116504FM-15+0137KPSP V0209999C00005024385MN0160935N5+02005+00785101415ADDAA101000025GA1075+024385999GA2085+033535999GD13991+0243859GD24991+0335359GE19AGL   +99999+99999GF199999999999024381999999MA1101425099795REMMET10001/08/18 17:53:01 METAR KPSP 090153Z 00000KT 10SM BKN080 OVC110 20/08 A2995 RMK AO2 SLP141 T02000078
0321722868931382018010902537+33822-116504FM-15+0137KPSP V0203405N00315028965MN0160935N5+01835+01395101405ADDAA101000395AA203000391GA1075+028965999GA2085+033535999GD13991+0289659GD24991+0335359GE19AGL   +99999+99999GF199999999999028961999999MA1101425099795MD1390019+9999REMMET12901/08/18 18:53:02 METAR KPSP 090253Z 34006KT 10SM BKN095 OVC110 18/14 A2995 RMK AO2 RAB0159E34 SLP140 P0001 60001 T01830139 53001EQDQ01  00028PRCP03
0210722868931382018010903537+33822-116504FM-15+0137KPSP V0209999C00005030485MN0160935N5+01725+01225101305ADDAA101000095GA1085+030485999GD14991+0304859GE19AGL   +99999+99999GF199999999999030481999999MA1101325099685REMMET09301/08/18 19:53:02 METAR KPSP 090353Z 00000KT 10SM OVC100 17/12 A2992 RMK AO2 SLP130 T01720122
0210722868931382018010904537+33822-116504FM-15+0137KPSP V0209999C00005027435MN0160935N5+01785+01065101295ADDAA101000095GA1075+027435999GD13991+0274359GE19AGL   +99999+99999GF199999999999027431999999MA1101295099655REMMET09301/08/18 20:53:02 METAR KPSP 090453Z 00000KT 10SM BKN090 18/11 A2991 RMK AO2 SLP129 T01780106
0375722868931382018010905537+33822-116504FM-15+0137KPSP V0203305N00155025915MN0160935N5+01725+01335101275ADDAA101000025AA206000391AU110020015AW1615GA1025+018295999GA2085+025915999GD11991+0182959GD24991+0259159GE19AGL   +99999+99999GF199999999999018291999999KA1060M+02171KA2060N+01721MA1101295099655MD1690139+9999REMMET14001/08/18 21:53:02 METAR KPSP 090553Z 33003KT 10SM -RA FEW060 OVC085 17/13 A2991 RMK AO2 RAB47 SLP127 P0000 60001 T01720133 10217 20172 56013EQDQ01  00028PRCP06
0248722868931382018010906537+33822-116504FM-15+0137KPSP V0203305N00215025915MN0160935N5+01675+01395101255ADDAA101000025AU110020015AW1615GA1085+025915999GD14991+0259159GE19AGL   +99999+99999GF199999999999025911999999MA1101255099625REMMET11401/08/18 22:53:02 METAR KPSP 090653Z 33004KT 10SM -RA OVC085 17/14 A2990 RMK AO2 RAE0558B29 SLP125 P0000 T01670139
0310722868931382018010907537+33822-116504FM-15+0137KPSP V0203505N00215019815MN0112655N5+01675+01225101295ADDAA101001095AU110020015AW1615GA1075+019815999GA2085+024385999GD13991+0198159GD24991+0243859GE19AGL   +99999+99999GF199999999999019811999999KA1240M+02221KA2240N+01611MA1101325099685REMMET11901/08/18 23:53:02 METAR KPSP 090753Z 35004KT 7SM -RA BKN065 OVC080 17/12 A2992 RMK AO2 SLP129 P0003 T01670122 402220161
0867722868931382018010907596+33822-116504SOD  +0137KPSP V020999999999999999999999999999+99999+99999999999ADDAA124001395AJ100009599999999AL12400095AN1024000095AT1AU16RA  5KA1240M+02225KA2240N+01615MG1999999101224OE11240049228099995OE22240035829099995OE33240009499999995REMSOD69524 HR PRECIPITATION (IN): 0.05 SNOW DEPTH (IN):    0 24 HR SNOWFALL (IN):  0.024 HR MAX TEMP (F): 7224 HR MIN TEMP (F): 61MINIMUM SEA LEVEL PRESSURE:29.89 TIME OF OCCURRENCE:2334 PEAK WIND SPEED (MPH): 11 PEAK WIND DIR (DEG):280 PEAK WIND TIME (LST):      FASTEST 2MIN SPEED (MPH):  8FASTEST 2MIN DIR (DEG):290 FASTEST 2MIN TIME (LST):     AVERAGE WIND SPEED (MPH): 2.1 24 HR AVG TEMP (F): 67DEPART FROM NORMAL: 10  SKY COVER SR-SS (TENTHS): 5HEATING DEGREE DAYS:  0 COOLING DEGREE DAYS:  2 LATEST NIGHT MIN TEMP(1900-0800 LST):61 HOURLY INCREMENTAL PRECIPITATION VALUES (IN):    M    M    M    M    M    M    M    M    M    M    M    M    M    M    T     0.00T     0.01 0.00 0.00T    T     0.04
0349722868931382018010908537+33822-116504FM-15+0137KPSP V0203105N00215022865MN0064375N5+01445+01285101205ADDAA101003895AA203004691AU120020015AU200001015AW1105AW2625GA1075+022865999GA2085+027435999GD13991+0228659GD24991+0274359GE19AGL   +99999+99999GF199999999999022861999999MA1101225099585MD1890079+9999REMMET12301/09/18 00:53:02 METAR KPSP 090853Z 31004KT 4SM RA BR BKN075 OVC090 14/13 A2989 RMK AO2 SLP120 P0015 60018 T01440128 58007EQDQ01  00458PRCP03
0336722868931382018010909537+33822-116504FM-15+0137KPSP V0202405N00215016765MN0040235N5+01395+01335101195ADDAA101004695AU130020015AU200001015AW1105AW2635GA1045+009755999GA2075+016765999GA3085+021345999GD12991+0097559GD23991+0167659GD34991+0213459GE19AGL   +99999+99999GF199999999999009751999999MA1101225099585REMMET12301/09/18 01:53:02 METAR KPSP 090953Z 24004KT 2 1/2SM +RA BR SCT032 BKN055 OVC070 14/13 A2989 RMK AO2 SLP119 P0016 T01390133
0294722868931382018010910537+33822-116504FM-15+0137KPSP V0200105N00215012805MN0048285N5+01335+01285101025ADDAA101007995AU130020015AU200001015AW1105AW2635GA1075+012805999GA2085+015245999GD13991+0128059GD24991+0152459GE19AGL   +99999+99999GF199999999999012801999999MA1101025099385REMMET11201/09/18 02:53:02 METAR KPSP 091053Z 01004KT 3SM +RA BR BKN042 OVC050 13/13 A2983 RMK AO2 SLP102 P0032 T01330128
0305722868931382018010911067+33822-116504FM-16+0137KPSP V0203505N00215012805MN0112655N5+01335+01285999999ADDAA101000531AU110020015AW1615GA1045+006715999GA2075+012805999GA3085+016765999GD12991+0067159GD23991+0128059GD34991+0167659GE19AGL   +99999+99999GF199999999999006711999999MA1101025099385REMMET10901/09/18 03:06:02 SPECI KPSP 091106Z 35004KT 7SM -RA SCT022 BKN042 OVC055 13/13 A2983 RMK AO2 P0002 T01330128
0306722868931382018010911177+33822-116504FM-16+0137KPSP V0203405N00215006715MN0160935N5+01335+01285999999ADDAA101000531AU110020015AW1615GA1075+006715999GA2075+012505999GA3085+015245999GD13991+0067159GD23991+0125059GD34991+0152459GE19AGL   +99999+99999GF199999999999006711999999MA1100985099355REMMET11001/09/18 03:17:02 SPECI KPSP 091117Z 34004KT 10SM -RA BKN022 BKN041 OVC050 13/13 A2982 RMK AO2 P0002 T01330128
0409722868931382018010911537+33822-116504FM-15+0137KPSP V0202705N00215007625MN0028165N5+01335+01225100965ADDAA101002895AA206019691AA324999919AU130020015AU200001015AW1105AW2635GA1025+003965999GA2085+007625999GD11991+0039659GD24991+0076259GE19AGL   +99999+99999GF199999999999003961999999KA1060M+01831KA2060N+01331MA1100985099355MD1890239+9999REMMET14601/09/18 03:53:02 METAR KPSP 091153Z 27004KT 1 3/4SM +RA BR FEW013 OVC025 13/12 A2982 RMK AO2 SLP096 P0011 60077 7//// T01330122 10183 20133 58023EQDQ01  01958PRCP06
0324722868931382018010912067+33822-116504FM-16+0137KPSP V0209999C00005010065MN0048285N5+01335+01285999999ADDAA101001031AU120020015AU200001015AW1105AW2625GA1025+003965999GA2045+007625999GA3085+010065999GD11991+0039659GD22991+0076259GD34991+0100659GE19AGL   +99999+99999GF199999999999003961999999MA1100915099285REMMET11101/09/18 04:06:02 SPECI KPSP 091206Z 00000KT 3SM RA BR FEW013 SCT025 OVC033 13/13 A2980 RMK AO2 P0004 T01330128
0325722868931382018010912157+33822-116504FM-16+0137KPSP V0209999C00005007015MN0064375N5+01335+01225999999ADDAA101001231AU110020015AU200001015AW1105AW2615GA1025+003965999GA2075+007015999GA3085+009755999GD11991+0039659GD23991+0070159GD34991+0097559GE19AGL   +99999+99999GF199999999999003961999999MA1100955099325REMMET11201/09/18 04:15:02 SPECI KPSP 091215Z 00000KT 4SM -RA BR FEW013 BKN023 OVC032 13/12 A2981 RMK AO2 P0005 T01330122
0347722868931382018010912377+33822-116504FM-16+0137KPSP V0200105N00315005795MN0040235N5+01335+01285999999ADDAA101002731AU130020015AU200001015AW1105AW2635GA1075+005795999GA2075+007625999GA3085+010365999GD13991+0057959GD23991+0076259GD34991+0103659GE19AGL   +99999+99999GF199999999999005791999999MA1100885099255REMMET13401/09/18 04:37:02 SPECI KPSP 091237Z 01006KT 2 1/2SM +RA BR BKN019 BKN025 OVC034 13/13 A2979 RMK AO2 LTG DSNT W PRESFR P0011 T01330128
0335722868931382018010912537+33822-116504FM-15+0137KPSP V0203405N00265005795MN0040235N5+01335+01285100905ADDAA101005895AU120020015AU200001015AW1105AW2625GA1075+005795999GA2075+008535999GA3085+010975999GD13991+0057959GD23991+0085359GD34991+0109759GE19AGL   +99999+99999GF199999999999005791999999MA1100915099285REMMET12201/09/18 04:53:02 METAR KPSP 091253Z 34005KT 2 1/2SM RA BR BKN019 BKN028 OVC036 13/13 A2980 RMK AO2 SLP090 P0018 T01330128
0329722868931382018010912597+33822-116504FM-16+0137KPSP V0203605N00265007925MN0028165N5+01285+01285999999ADDAA101001731AU130020015AU200001015AW1105AW2635GA1025+001525999GA2075+007925999GA3085+010365999GD11991+0015259GD23991+0079259GD34991+0103659GE19AGL   +99999+99999GF199999999999001521999999MA1100915099285REMMET11601/09/18 04:59:02 SPECI KPSP 091259Z 36005KT 1 3/4SM +RA BR FEW005 BKN026 OVC034 13/13 A2980 RMK AO2 P0007 T01280128
0324722868931382018010913137+33822-116504FM-16+0137KPSP V0203405N00155008535MN0048285N5+01285+01225999999ADDAA101003031AU120020015AU200001015AW1105AW2625GA1025+002135999GA2075+008535999GA3085+011285999GD11991+0021359GD23991+0085359GD34991+0112859GE19AGL   +99999+99999GF199999999999002131999999MA1100885099255REMMET11101/09/18 05:13:02 SPECI KPSP 091313Z 34003KT 3SM RA BR FEW007 BKN028 OVC037 13/12 A2979 RMK AO2 P0012 T01280122
0324722868931382018010913237+33822-116504FM-16+0137KPSP V0209999C00005009455MN0048285N5+01285+01225999999ADDAA101003831AU120020015AU200001015AW1105AW2625GA1045+002745999GA2075+009455999GA3085+011585999GD12991+0027459GD23991+0094559GD34991+0115859GE19AGL   +99999+99999GF199999999999002741999999MA1100915099285REMMET11101/09/18 05:23:02 SPECI KPSP 091323Z 00000KT 3SM RA BR SCT009 BKN031 OVC038 13/12 A2980 RMK AO2 P0015 T01280122
0325722868931382018010913397+33822-116504FM-16+0137KPSP V0203505N00155007325MN0064375N5+01285+01225999999ADDAA101004531AU110020015AU200001015AW1105AW2615GA1045+002745999GA2075+007325999GA3085+013415999GD12991+0027459GD23991+0073259GD34991+0134159GE19AGL   +99999+99999GF199999999999002741999999MA1100885099255REMMET11201/09/18 05:39:02 SPECI KPSP 091339Z 35003KT 4SM -RA BR SCT009 BKN024 OVC044 13/12 A2979 RMK AO2 P0018 T01280122
0332722868931382018010913537+33822-116504FM-15+0137KPSP V0209999C00005007925MN0064375N5+01285+01225100835ADDAA101003895AU110020015AU200001015AW1105AW2615GA1025+002745999GA2075+007925999GA3085+009755999GD11991+0027459GD23991+0079259GD34991+0097559GE19AGL   +99999+99999GF199999999999002741999999MA1100855099225REMMET11901/09/18 05:53:02 METAR KPSP 091353Z 00000KT 4SM -RA BR FEW009 BKN026 OVC032 13/12 A2978 RMK AO2 SLP083 P0021 T01280122
0325722868931382018010914097+33822-116504FM-16+0137KPSP V0203205N00215009755MN0032195N5+01285+01225999999ADDAA101001731AU130020015AU200001015AW1105AW2635GA1025+006105999GA2045+007925999GA3085+009755999GD11991+0061059GD22991+0079259GD34991+0097559GE19AGL   +99999+99999GF199999999999006101999999MA1100855099225REMMET11201/09/18 06:09:02 SPECI KPSP 091409Z 32004KT 2SM +RA BR FEW020 SCT026 OVC032 13/12 A2978 RMK AO2 P0007 T01280122
0324722868931382018010914187+33822-116504FM-16+0137KPSP V0209999C00005010065MN0048285N5+01285+01225999999ADDAA101002231AU120020015AU200001015AW1105AW2625GA1025+007925999GA2075+010065999GA3085+012505999GD11991+0079259GD23991+0100659GD34991+0125059GE19AGL   +99999+99999GF199999999999007921999999MA1100855099225REMMET11101/09/18 06:18:02 SPECI KPSP 091418Z 00000KT 3SM RA BR FEW026 BKN033 OVC041 13/12 A2978 RMK AO2 P0009 T01280122
0325722868931382018010914297+33822-116504FM-16+0137KPSP V0209999C00005009145MN0048285N5+01285+01225999999ADDAA101003031AU130020015AU200001015AW1105AW2635GA1045+000915999GA2075+009145999GA3085+011895999GD12991+0009159GD23991+0091459GD34991+0118959GE19AGL   +99999+99999GF199999999999000911999999MA1100855099225REMMET11201/09/18 06:29:02 SPECI KPSP 091429Z 00000KT 3SM +RA BR SCT003 BKN030 OVC039 13/12 A2978 RMK AO2 P0012 T01280122
0328722868931382018010914327+33822-116504FM-16+0137KPSP V0202105N00155000915MN0040235N5+01285+01225999999ADDAA101003331AU120020015AU200001015AW1105AW2625GA1075+000915999GA2075+007925999GA3085+009755999GD13991+0009159GD23991+0079259GD34991+0097559GE19AGL   +99999+99999GF199999999999000911999999MA1100885099255REMMET11501/09/18 06:32:02 SPECI KPSP 091432Z 21003KT 2 1/2SM RA BR BKN003 BKN026 OVC032 13/12 A2979 RMK AO2 P0013 T01280122
0324722868931382018010914417+33822-116504FM-16+0137KPSP V0209999C00005000915MN0048285N5+01285+01225999999ADDAA101003531AU120020015AU200001015AW1105AW2625GA1075+000915999GA2075+007625999GA3085+010065999GD13991+0009159GD23991+0076259GD34991+0100659GE19AGL   +99999+99999GF199999999999000911999999MA1100885099255REMMET11101/09/18 06:41:02 SPECI KPSP 091441Z 00000KT 3SM RA BR BKN003 BKN025 OVC033 13/12 A2979 RMK AO2 P0014 T01280122
0315722868931382018010914497+33822-116504FM-16+0137KPSP V0209999C00005007015MN0064375N5+01305+01205999999ADDAA101003831AU110020015AU200001015AW1105AW2615GA1045+000915999GA2075+007015999GA3085+010675999GD12991+0009159GD23991+0070159GD34991+0106759GE19AGL   +99999+99999GF199999999999000911999999MA1100885099255REMMET10201/09/18 06:49:02 SPECI KPSP 091449Z 00000KT 4SM -RA BR SCT003 BKN023 OVC035 13/12 A2979 RMK AO2 P0015
0387722868931382018010914537+33822-116504FM-15+0137KPSP V0209999C00005007015MN0048285N5+01285+01225100885ADDAA101004195AA203014091AU120020015AU200001015AW1105AW2625GA1045+000915999GA2075+007015999GA3085+010065999GD12991+0009159GD23991+0070159GD34991+0100659GE19AGL   +99999+99999GF199999999999000911999999MA1100885099255MD1690039+9999REMMET13001/09/18 06:53:02 METAR KPSP 091453Z 00000KT 3SM RA BR SCT003 BKN023 OVC033 13/12 A2979 RMK AO2 SLP088 P0016 60055 T01280122 56003EQDQ01  01398PRCP03
0329722868931382018010915077+33822-116504FM-16+0137KPSP V0209999C00005006105MN0040235N5+01335+01225999999ADDAA101000531AU110020015AU200001015AW1105AW2615GA1075+006105999GA2075+007625999GA3085+010365999GD13991+0061059GD23991+0076259GD34991+0103659GE19AGL   +99999+99999GF199999999999006101999999MA1100885099255REMMET11601/09/18 07:07:02 SPECI KPSP 091507Z 00000KT 2 1/2SM -RA BR BKN020 BKN025 OVC034 13/12 A2979 RMK AO2 P0002 T01330122
0325722868931382018010915227+33822-116504FM-16+0137KPSP V0209999C00005006405MN0048285N5+01335+01225999999ADDAA101000731AU110020015AU200001015AW1105AW2615GA1025+001835999GA2075+006405999GA3085+010065999GD11991+0018359GD23991+0064059GD34991+0100659GE19AGL   +99999+99999GF199999999999001831999999MA1100885099255REMMET11201/09/18 07:22:02 SPECI KPSP 091522Z 00000KT 3SM -RA BR FEW006 BKN021 OVC033 13/12 A2979 RMK AO2 P0003 T01330122
0315722868931382018010915507+33822-116504FM-16+0137KPSP V0209999C00005003965MN0096565N5+01305+01305999999ADDAA101001031AU110020015AU200001015AW1105AW2615GA1045+001525999GA2075+003965999GA3085+016765999GD12991+0015259GD23991+0039659GD34991+0167659GE19AGL   +99999+99999GF199999999999001521999999MA1100855099225REMMET10201/09/18 07:50:02 SPECI KPSP 091550Z 00000KT 6SM -RA BR SCT005 BKN013 OVC055 13/13 A2978 RMK AO2 P0004
0312722868931382018010915537+33822-116504FM-15+0137KPSP V0203605N00155003965MN0112655N5+01335+01285100865ADDAA101000895AU110020015AW1615GA1045+001525999GA2075+003965999GA3085+015245999GD12991+0015259GD23991+0039659GD34991+0152459GE19AGL   +99999+99999GF199999999999001521999999MA1100855099225REMMET11601/09/18 07:53:02 METAR KPSP 091553Z 36003KT 7SM -RA SCT005 BKN013 OVC050 13/13 A2978 RMK AO2 SLP086 P0004 T01330128
0291722868931382018010916097+33822-116504FM-16+0137KPSP V0203405N00365000915MN0160935N5+01335+01285999999ADDAA101000021GA1075+000915999GA2075+002445999GA3085+003965999GD13991+0009159GD23991+0024459GD34991+0039659GE19AGL   +99999+99999GF199999999999000911999999MA1100855099225REMMET11201/09/18 08:09:02 SPECI KPSP 091609Z 34007KT 10SM BKN003 BKN008 OVC013 13/13 A2978 RMK AO2 RAE06 P0000 T01330128
0315722868931382018010916187+33822-116504FM-16+0137KPSP V0203105N00215003055MN0160935N5+01335+01285999999ADDAA101000021AU110020015AW1615GA1045+001225999GA2075+003055999GA3085+013415999GD12991+0012259GD23991+0030559GD34991+0134159GE19AGL   +99999+99999GF199999999999001221999999MA1100885099255REMMET11901/09/18 08:18:02 SPECI KPSP 091618Z 31004KT 10SM -RA SCT004 BKN010 OVC044 13/13 A2979 RMK AO2 RAE06B16 P0000 T01330128
0314722868931382018010916297+33822-116504FM-16+0137KPSP V0203105N00265004575MN0112655N5+01395+01285999999ADDAA101000021AU110020015AW1615GA1045+001225999GA2075+004575999GA3085+014025999GD12991+0012259GD23991+0045759GD34991+0140259GE19AGL   +99999+99999GF199999999999001221999999MA1100915099285REMMET11801/09/18 08:29:02 SPECI KPSP 091629Z 31005KT 7SM -RA SCT004 BKN015 OVC046 14/13 A2980 RMK AO2 RAE06B16 P0000 T01390128
0334722868931382018010916417+33822-116504FM-16+0137KPSP V0203205N00315013725MN0096565N5+01395+01335999999ADDAA101000231AU110020015AU200001015AW1105AW2615GA1025+004575999GA2075+013725999GA3085+015245999GD11991+0045759GD23991+0137259GD34991+0152459GE19AGL   +99999+99999GF199999999999004571999999MA1100885099255REMMET12101/09/18 08:41:02 SPECI KPSP 091641Z 32006KT 6SM -RA BR FEW015 BKN045 OVC050 14/13 A2979 RMK AO2 RAE06B16 P0001 T01390133
0322722868931382018010916537+33822-116504FM-15+0137KPSP V0209999C00005015245MN0160935N5+01445+01335100885ADDAA101000395AU110020015AW1615GA1025+004885999GA2075+015245999GA3085+022865999GD11991+0048859GD23991+0152459GD34991+0228659GE19AGL   +99999+99999GF199999999999004881999999MA1100885099255REMMET12601/09/18 08:53:02 METAR KPSP 091653Z 00000KT 10SM -RA FEW016 BKN050 OVC075 14/13 A2979 RMK AO2 RAE06B16 SLP088 P0001 T01440133
0293722868931382018010917127+33822-116504FM-16+0137KPSP V0203405N00315005495MN0160935N5+01445+01285999999ADDAA101000021GA1075+005495999GA2075+007625999GA3085+019815999GD13991+0054959GD23991+0076259GD34991+0198159GE19AGL   +99999+99999GF199999999999005491999999MA1100885099255REMMET11401/09/18 09:12:02 SPECI KPSP 091712Z 34006KT 10SM BKN018 BKN025 OVC065 14/13 A2979 RMK AO2 RAE1654 P0000 T01440128
0342722868931382018010917537+33822-116504FM-15+0137KPSP V0203405N00415006715MN0160935N5+01505+01225100965ADDAA101000395AA206015291AU110020015AW1615GA1085+006715999GD14991+0067159GE19AGL   +99999+99999GF199999999999006711999999KA1060M+01501KA2060N+01281MA1100955099325MD1390099+9999REMMET13801/09/18 09:53:02 METAR KPSP 091753Z 34008KT 10SM -RA OVC022 15/12 A2981 RMK AO2 RAE1654B32 SLP096 P0000 60060 T01500122 10150 20128 53009EQDQ01  01528PRCP06
0313722868931382018010918537+33822-116504FM-15+0137KPSP V0201105N00215009145MN0160935N5+01505+01285100985ADDAA101000395AU110020015AW1615GA1025+007015999GA2075+009145999GA3085+027435999GD11991+0070159GD23991+0091459GD34991+0274359GE19AGL   +99999+99999GF199999999999007011999999MA1100985099355REMMET11701/09/18 10:53:02 METAR KPSP 091853Z 11004KT 10SM -RA FEW023 BKN030 OVC090 15/13 A2982 RMK AO2 SLP098 P0001 T01500128
0298722868931382018010919537+33822-116504FM-15+0137KPSP V0201405N00215021345MN0160935N5+01565+01285100845ADDAA101000025GA1045+014025999GA2045+018295999GA3075+021345999GD12991+0140259GD22991+0182959GD33991+0213459GE19AGL   +99999+99999GF199999999999014021999999MA1100855099225REMMET11901/09/18 11:53:02 METAR KPSP 091953Z 14004KT 10SM SCT046 SCT060 BKN070 16/13 A2978 RMK AO2 RAE35 SLP084 P0001 T01560128
0335722868931382018010920537+33822-116504FM-15+0137KPSP V0200605N007252200059N0160935N5+01725+01065100785ADDAA101000025AA203000591GA1025+021345999GA2045+033535999GD11991+0213459GD22991+0335359GE19AGL   +99999+99999GF104995999999021341999999MA1100785099155MD1890179+9999REMMET12701/09/18 12:53:02 METAR KPSP 092053Z 06014KT 10SM FEW070 SCT110 17/11 A2976 RMK AO2 RAB12E31 SLP078 P0000 60002 T01720106 58017EQDQ01  00058PRCP03D01      0ADE726
0271722868931382018010920557+33822-116504FM-16+0137KPSP V0203605N005152200059N0160935N5+01725+01005999999ADDGA1025+021345999GA2045+033535999GD11991+0213459GD22991+0335359GE19AGL   +99999+99999GF104995999999021341999999MA1100785099155OC100725REMMET10701/09/18 12:55:02 SPECI KPSP 092055Z 36010G14KT 10SM FEW070 SCT110 17/10 A2976 RMK AO2 WSHFT 2041 T01720100EQDD01      0ADE726
0240722868931382018010921537+33822-116504FM-15+0137KPSP V0209999C000052200059N0160935N5+01725+00675100745ADDAA101000095GA1025+022865999GD11991+0228659GE19AGL   +99999+99999GF102995999999022861999999MA1100755099125REMMET10401/09/18 13:53:02 METAR KPSP 092153Z 00000KT 10SM FEW075 17/07 A2975 RMK AO2 WSHFT 2041 SLP074 T01720067EQDD01      0ADE726
0248722868931382018010922537+33822-116504FM-15+0137KPSP V0201505N00155024385MN0160935N5+01675+00835100635ADDAA101000095GA1025+015245999GA2075+024385999GD11991+0152459GD23991+0243859GE19AGL   +99999+99999GF199999999999015241999999MA1100645099025REMMET10001/09/18 14:53:02 METAR KPSP 092253Z 15003KT 10SM FEW050 BKN080 17/08 A2972 RMK AO2 SLP063 T01670083
0249722868931382018010923027+33822-116504FM-16+0137KPSP V0201005N003652200059N0160935N5+01675+00835999999ADDGA1025+015245999GA2045+024385999GD11991+0152459GD22991+0243859GE19AGL   +99999+99999GF104995999999015241999999MA1100645099025REMMET09301/09/18 15:02:02 SPECI KPSP 092302Z 10007KT 10SM FEW050 SCT080 17/08 A2972 RMK AO2 T01670083EQDD01      0ADE726
0323722868931382018010923537+33822-116504FM-15+0137KPSP V0209999C00005024385MN0160935N5+01675+00895100665ADDAA101000095AA206000591GA1025+015245999GA2075+024385999GD11991+0152459GD23991+0243859GE19AGL   +99999+99999GF199999999999015241999999KA1060M+01781KA2060N+01501MA1100685099055MD1590129+9999REMMET12401/09/18 15:53:02 METAR KPSP 092353Z 00000KT 10SM FEW050 BKN080 17/09 A2973 RMK AO2 SLP066 60002 T01670089 10178 20150 55012
0242722868931382018011000537+33822-116504FM-15+0137KPSP V0203005N00315019815MN0112655N5+01505+00895100785ADDAA101000395AU110020015AW1615GA1085+019815999GD14991+0198159GE19AGL   +99999+99999GF199999999999019811999999MA1100785099155REMMET10801/09/18 16:53:01 METAR KPSP 100053Z 30006KT 7SM -RA OVC065 15/09 A2976 RMK AO2 RAB19 SLP078 P0001 T01500089
0275722868931382018011001537+33822-116504FM-15+0137KPSP V0209999C00005021345MN0160935N5+01445+00895100855ADDAA101001095AU110020015AW1615GA1075+021345999GA2085+028965999GD13991+0213459GD24991+0289659GE19AGL   +99999+99999GF199999999999021341999999MA1100855099225REMMET11001/09/18 17:53:01 METAR KPSP 100153Z 00000KT 10SM -RA BKN070 OVC095 14/09 A2978 RMK AO2 SLP085 P0004 T01440089
0324722868931382018011002537+33822-116504FM-15+0137KPSP V0203605N00215019815MN0160935N5+01285+00945100855ADDAA101000025AA203001391GA1075+019815999GA2085+024385999GD13991+0198159GD24991+0243859GE19AGL   +99999+99999GF199999999999019811999999MA1100855099225MD1090179+9999REMMET13201/09/18 18:53:02 METAR KPSP 100253Z 36004KT 10SM BKN065 OVC080 13/09 A2978 RMK AO2 RAE0156B36E51 SLP085 P0000 60005 T01280094 50017EQDQ01  00128PRCP03
0265722868931382018011003537+33822-116504FM-15+0137KPSP V0202305N00215022865MN0160935N5+01225+01005100875ADDAA101000025GA1045+015245999GA2075+022865999GD12991+0152459GD23991+0228659GE19AGL   +99999+99999GF199999999999015241999999MA1100855099225REMMET11701/09/18 19:53:02 METAR KPSP 100353Z 23004KT 10SM SCT050 BKN075 12/10 A2978 RMK AO2 RAB0259E32 SLP087 P0000 T01220100
0229722868931382018011004537+33822-116504FM-15+0137KPSP V0202205N001552200059N0160935N5+01225+01005100915ADDAA101000095GA1045+024385999GD12991+0243859GE19AGL   +99999+99999GF104995999999024381999999MA1100915099285REMMET09301/09/18 20:53:02 METAR KPSP 100453Z 22003KT 10SM SCT080 12/10 A2980 RMK AO2 SLP091 T01220100EQDD01      0ADE726
0304722868931382018011005537+33822-116504FM-15+0137KPSP V0202905N001552200059N0160935N5+01285+00945101025ADDAA101000095AA206001391GA1025+021345999GD11991+0213459GE19AGL   +99999+99999GF102995999999021341999999KA1060M+01721KA2060N+01171MA1101025099385MD1390189+9999REMMET11701/09/18 21:53:02 METAR KPSP 100553Z 29003KT 10SM FEW070 13/09 A2983 RMK AO2 SLP102 60005 T01280094 10172 20117 53018EQDD01      0ADE726
0185722868931382018011006537+33822-116504FM-15+0137KPSP V0203505N001552200059N0160935N5+01115+00945101045ADDAA101000095GA1005+999999999GD10991+9999999GF100991999999999999999999MA1101055099425REMMET09001/09/18 22:53:02 METAR KPSP 100653Z 35003KT 10SM CLR 11/09 A2984 RMK AO2 SLP104 T01110094
0221722868931382018011007537+33822-116504FM-15+0137KPSP V0209999C000052200059N0160935N5+01065+00945101085ADDAA101000095GA1005+999999999GD10991+9999999GF100991999999999999999999KA1240M+01781KA2240N+01061MA1101085099455REMMET10001/09/18 23:53:02 METAR KPSP 100753Z 00000KT 10SM CLR 11/09 A2985 RMK AO2 SLP108 T01060094 401780106
0981722868931382018011007596+33822-116504SOD  +0137KPSP V020999999999999999999999999999+99999+99999999999ADDAA124035695AJ100009599999999AL12400095AN1024000095AT1AU16RA  5AT2AU13BR  5AX1015245KA1240M+01785KA2240N+01065MG1099264100614OE11240098309099995OE22240076005099995OE33240017099999995REMSOD78824 HR PRECIPITATION (IN): 1.40 SNOW DEPTH (IN):    0 24 HR SNOWFALL (IN):  0.0WEATHER(CODE): 1  24 HR MAX TEMP (F): 6424 HR MIN TEMP (F): 51AVERAGE STATION PRESSURE(D):29.313 MINIMUM SEA LEVEL PRESSURE:29.71 TIME OF OCCURRENCE:1502 PEAK WIND SPEED (MPH): 22 PEAK WIND DIR (DEG): 90 PEAK WIND TIME (LST):      FASTEST 2MIN SPEED (MPH): 17FASTEST 2MIN DIR (DEG): 50 FASTEST 2MIN TIME (LST):     AVERAGE WIND SPEED (MPH): 3.8 24 HR AVG TEMP (F): 58DEPART FROM NORMAL:  1  SKY COVER SR-SS (TENTHS): 8HEATING DEGREE DAYS:  7 COOLING DEGREE DAYS:  0 LATEST DAY MAX TEMP (0700-1900 LST): 64 LATEST NIGHT MIN TEMP(1900-0800 LST):55 HOURLY INCREMENTAL PRECIPITATION VALUES (IN):0.15 0.18 0.31 0.11 0.23 0.15 0.16 0.03 0.01 0.01 0.01T    T     0.00 0.00 0.00 0.01 0.04T    T     0.00 0.00 0.00 0.00
0205722868931382018011008537+33822-116504FM-15+0137KPSP V0209999C000052200059N0160935N5+01065+00945101115ADDAA101000095GA1005+999999999GD10991+9999999GF100991999999999999999999MA1101125099485MD1390099+9999REMMET09601/10/18 00:53:02 METAR KPSP 100853Z 00000KT 10SM CLR 11/09 A2986 RMK AO2 SLP111 T01060094 53009
0185722868931382018011009537+33822-116504FM-15+0137KPSP V0209999C000052200059N0160935N5+01005+00895101165ADDAA101000095GA1005+999999999GD10991+9999999GF100991999999999999999999MA1101155099525REMMET09001/10/18 01:53:02 METAR KPSP 100953Z 00000KT 10SM CLR 10/09 A2987 RMK AO2 SLP116 T01000089
0185722868931382018011010537+33822-116504FM-15+0137KPSP V0202205N002152200059N0160935N5+00945+00835101285ADDAA101000095GA1005+999999999GD10991+9999999GF100991999999999999999999MA1101295099655REMMET09001/10/18 02:53:02 METAR KPSP 101053Z 22004KT 10SM CLR 09/08 A2991 RMK AO2 SLP128 T00940083
0260722868931382018011011537+33822-116504FM-15+0137KPSP V0202605N003152200059N0160935N5+01065+00835101255ADDAA101000095AA224017091GA1005+999999999GD10991+9999999GF100991999999999999999999KA1060M+01281KA2060N+00941MA1101255099625MD1090149+9999REMMET11401/10/18 03:53:02 METAR KPSP 101153Z 26006KT 10SM CLR 11/08 A2990 RMK AO2 SLP125 70067 T01060083 10128 20094 50014
0185722868931382018011012537+33822-116504FM-15+0137KPSP V0209999C000052200059N0160935N5+01065+00835101295ADDAA101000095GA1005+999999999GD10991+9999999GF100991999999999999999999MA1101295099655REMMET09001/10/18 04:53:02 METAR KPSP 101253Z 00000KT 10SM CLR 11/08 A2991 RMK AO2 SLP129 T01060083
0185722868931382018011013537+33822-116504FM-15+0137KPSP V0203305N002652200059N0160935N5+01005+00785101395ADDAA101000095GA1005+999999999GD10991+9999999GF100991999999999999999999MA1101395099755REMMET09001/10/18 05:53:02 METAR KPSP 101353Z 33005KT 10SM CLR 10/08 A2994 RMK AO2 SLP139 T01000078
0205722868931382018011014537+33822-116504FM-15+0137KPSP V0209999C000052200059N0160935N5+00945+00785101435ADDAA101000095GA1005+999999999GD10991+9999999GF100991999999999999999999MA1101425099795MD1390179+9999REMMET09601/10/18 06:53:02 METAR KPSP 101453Z 00000KT 10SM CLR 09/08 A2995 RMK AO2 SLP143 T00940078 53017
0185722868931382018011015537+33822-116504FM-15+0137KPSP V0202305N002652200059N0160935N5+01175+00835101455ADDAA101000095GA1005+999999999GD10991+9999999GF100991999999999999999999MA1101465099825REMMET09001/10/18 07:53:02 METAR KPSP 101553Z 23005KT 10SM CLR 12/08 A2996 RMK AO2 SLP145 T01170083
0185722868931382018011016537+33822-116504FM-15+0137KPSP V0202405N001552200059N0160935N5+01395+00945101565ADDAA101000095GA1005+999999999GD10991+9999999GF100991999999999999999999MA1101565099925REMMET09001/10/18 08:53:02 METAR KPSP 101653Z 24003KT 10SM CLR 14/09 A2999 RMK AO2 SLP156 T01390094
0243722868931382018011017537+33822-116504FM-15+0137KPSP V0209999C000052200059N0160935N5+01675+00835101665ADDAA101000095GA1005+999999999GD10991+9999999GF100991999999999999999999KA1060M+01671KA2060N+00941MA1101665100025MD1390249+9999REMMET10801/10/18 09:53:02 METAR KPSP 101753Z 00000KT 10SM CLR 17/08 A3002 RMK AO2 SLP166 T01670083 10167 20094 53024
0185722868931382018011018537+33822-116504FM-15+0137KPSP V0209999C000052200059N0160935N5+01785+00785101645ADDAA101000095GA1005+999999999GD10991+9999999GF100991999999999999999999MA1101635099995REMMET09001/10/18 10:53:02 METAR KPSP 101853Z 00000KT 10SM CLR 18/08 A3001 RMK AO2 SLP164 T01780078
0185722868931382018011019537+33822-116504FM-15+0137KPSP V0209999C000052200059N0160935N5+01895+00725101545ADDAA101000095GA1005+999999999GD10991+9999999GF100991999999999999999999MA1101525099895REMMET09001/10/18 11:53:02 METAR KPSP 101953Z 00000KT 10SM CLR 19/07 A2998 RMK AO2 SLP154 T01890072
0205722868931382018011020537+33822-116504FM-15+0137KPSP V0209999V003152200059N0160935N5+01895+00615101475ADDAA101000095GA1005+999999999GD10991+9999999GF100991999999999999999999MA1101465099825MD1890199+9999REMMET09601/10/18 12:53:02 METAR KPSP 102053Z VRB06KT 10SM CLR 19/06 A2996 RMK AO2 SLP147 T01890061 58019
0185722868931382018011021537+33822-116504FM-15+0137KPSP V0209999V002152200059N0160935N5+01945+00615101425ADDAA101000095GA1005+999999999GD10991+9999999GF100991999999999999999999MA1101425099795REMMET09001/10/18 13:53:02 METAR KPSP 102153Z VRB04KT 10SM CLR 19/06 A2995 RMK AO2 SLP142 T01940061
0185722868931382018011022537+33822-116504FM-15+0137KPSP V0201705N001552200059N0160935N5+01945+00725101465ADDAA101000095GA1005+999999999GD10991+9999999GF100991999999999999999999MA1101465099825REMMET09001/10/18 14:53:02 METAR KPSP 102253Z 17003KT 10SM CLR 19/07 A2996 RMK AO2 SLP146 T01940072
0243722868931382018011023537+33822-116504FM-15+0137KPSP V0209999V001552200059N0160935N5+02005+00725101545ADDAA101000095GA1005+999999999GD10991+9999999GF100991999999999999999999KA1060M+02061KA2060N+01671MA1101525099895MD1390079+9999REMMET10801/10/18 15:53:02 METAR KPSP 102353Z VRB03KT 10SM CLR 20/07 A2998 RMK AO2 SLP154 T02000072 10206 20167 53007
0185722868931382018011100537+33822-116504FM-15+0137KPSP V0203005N001552200059N0160935N5+01835+00895101605ADDAA101000095GA1005+999999999GD10991+9999999GF100991999999999999999999MA1101595099955REMMET09001/10/18 16:53:01 METAR KPSP 110053Z 30003KT 10SM CLR 18/09 A3000 RMK AO2 SLP160 T01830089
0185722868931382018011101537+33822-116504FM-15+0137KPSP V0203205N002152200059N0160935N5+01785+00895101655ADDAA101000095GA1005+999999999GD10991+9999999GF100991999999999999999999MA1101665100025REMMET09001/10/18 17:53:01 METAR KPSP 110153Z 32004KT 10SM CLR 18/09 A3002 RMK AO2 SLP165 T01780089
0205722868931382018011102537+33822-116504FM-15+0137KPSP V0203305N001552200059N0160935N5+01615+00945101755ADDAA101000095GA1005+999999999GD10991+9999999GF100991999999999999999999MA1101735100095MD1390199+9999REMMET09601/10/18 18:53:02 METAR KPSP 110253Z 33003KT 10SM CLR 16/09 A3004 RMK AO2 SLP175 T01610094 53019
0185722868931382018011103537+33822-116504FM-15+0137KPSP V0209999C000052200059N0160935N5+01675+00945101785ADDAA101000095GA1005+999999999GD10991+9999999GF100991999999999999999999MA1101795100155REMMET09001/10/18 19:53:02 METAR KPSP 110353Z 00000KT 10SM CLR 17/09 A3006 RMK AO2 SLP178 T01670094
0185722868931382018011104537+33822-116504FM-15+0137KPSP V0209999C000052200059N0160935N5+01505+00945101845ADDAA101000095GA1005+999999999GD10991+9999999GF100991999999999999999999MA1101835100195REMMET09001/10/18 20:53:02 METAR KPSP 110453Z 00000KT 10SM CLR 15/09 A3007 RMK AO2 SLP184 T01500094
0243722868931382018011105537+33822-116504FM-15+0137KPSP V0209999V001552200059N0160935N5+01225+00945101935ADDAA101000095GA1005+999999999GD10991+9999999GF100991999999999999999999KA1060M+02001KA2060N+01221MA1101935100295MD1390199+9999REMMET10801/10/18 21:53:02 METAR KPSP 110553Z VRB03KT 10SM CLR 12/09 A3010 RMK AO2 SLP193 T01220094 10200 20122 53019
0185722868931382018011106537+33822-116504FM-15+0137KPSP V0203205N002152200059N0160935N5+01335+00945101965ADDAA101000095GA1005+999999999GD10991+9999999GF100991999999999999999999MA1101965100325REMMET09001/10/18 22:53:02 METAR KPSP 110653Z 32004KT 10SM CLR 13/09 A3011 RMK AO2 SLP196 T01330094
0221722868931382018011107537+33822-116504FM-15+0137KPSP V0203605N002152200059N0160935N5+01225+00945101935ADDAA101000095GA1005+999999999GD10991+9999999GF100991999999999999999999KA1240M+02061KA2240N+00941MA1101935100295REMMET10001/10/18 23:53:02 METAR KPSP 110753Z 36004KT 10SM CLR 12/09 A3010 RMK AO2 SLP193 T01220094 402060094
