0215722868931382023010100537+33822-116504FM-15+0137KPSP V0201405N00265003965MN0160935N5+01335+01065101315ADDAA101000095GA1085+003965999GD14991+0039659GE19AGL   +99999+99999GF199999999999003961999999MA1101295099655REMMET09812/31/22 16:53:03 METAR KPSP 010053Z 14005KT 10SM OVC013 13/11 A2991 RMK AO2 SLP131 T01330106 (GG)
0197722868931382023010101227+33822-116504FM-16+0137KPSP V0201505N00155004575MN0160935N5+01335+01005999999ADDGA1085+004575999GD14991+0045759GE19AGL   +99999+99999GF199999999999004571999999MA1101295099655REMMET09112/31/22 17:22:03 SPECI KPSP 010122Z 15003KT 10SM OVC015 13/10 A2991 RMK AO2 T01330100 (GG)
0197722868931382023010101407+33822-116504FM-16+0137KPSP V0209999C00005004275MN0160935N5+01395+01065999999ADDGA1085+004275999GD14991+0042759GE19AGL   +99999+99999GF199999999999004271999999MA1101255099625REMMET09112/31/22 17:40:03 SPECI KPSP 010140Z 00000KT 10SM OVC014 14/11 A2990 RMK AO2 T01390106 (GG)
0182722868931382023010101516+33822-116504FM-16+0137KPSP V0209999C00005005795MN0160935N5+01405+01105999999ADDGA1045+004275999GA2085+005795999GD12991+0042759GD24991+0057959MA1101255099625REMMET09312/31/22 17:51:03 SPECI KPSP 010151Z 00000KT 10SM SCT014 OVC019 14/11 A2990 RMK AO2 FIBI (GG)
0253722868931382023010101537+33822-116504FM-15+0137KPSP V0209999C00005005795MN0160935N5+01395+01065101265ADDAA101000095GA1045+004275999GA2085+005795999GD12991+0042759GD24991+0057959GE19AGL   +99999+99999GF199999999999004271999999MA1101255099625REMMET10512/31/22 17:53:03 METAR KPSP 010153Z 00000KT 10SM SCT014 OVC019 14/11 A2990 RMK AO2 SLP126 T01390106 (GG)
0235722868931382023010102537+33822-116504FM-15+0137KPSP V0201605N00155005185MN0160935N5+01335+01005101185ADDAA101000095GA1085+005185999GD14991+0051859GE19AGL   +99999+99999GF199999999999005181999999MA1101195099555MD1890169+9999REMMET10412/31/22 18:53:03 METAR KPSP 010253Z 16003KT 10SM OVC017 13/10 A2988 RMK AO2 SLP118 T01330100 58016 (GG)
0216722868931382023010103327+33822-116504FM-16+0137KPSP V0209999C000052200059N0160935N5+01335+01005999999ADDGA1045+004275999GD12991+0042759GE19AGL   +99999+99999GF104995999999004271999999MA1101125099485REMMET09112/31/22 19:32:03 SPECI KPSP 010332Z 00000KT 10SM SCT014 13/10 A2986 RMK AO2 T01330100 (GG)EQDD01      0ADE726
0233722868931382023010103537+33822-116504FM-15+0137KPSP V0209999C000052200059N0144845N5+01335+01005101135ADDAA101000095GA1045+003965999GD12991+0039659GE19AGL   +99999+99999GF104995999999003961999999MA1101125099485REMMET09712/31/22 19:53:03 METAR KPSP 010353Z 00000KT 9SM SCT013 13/10 A2986 RMK AO2 SLP113 T01330100 (GG)EQDD01      0ADE726
0234722868931382023010104377+33822-116504FM-16+0137KPSP V0209999C00005004575MN0112655N5+01285+01005999999ADDGA1075+004575999GA2075+021345999GD13991+0045759GD23991+0213459GE19AGL   +99999+99999GF199999999999004571999999MA1101125099485REMMET09712/31/22 20:37:03 SPECI KPSP 010437Z 00000KT 7SM BKN015 BKN070 13/10 A2986 RMK AO2 T01280100 (GG)
0234722868931382023010104537+33822-116504FM-15+0137KPSP V0209999C00005004575MN0080475N5+01285+01065101105ADDAA101000095AU100001015AW1105GA1085+004575999GD14991+0045759GE19AGL   +99999+99999GF199999999999004571999999MA1101085099455REMMET10012/31/22 20:53:03 METAR KPSP 010453Z 00000KT 5SM BR OVC015 13/11 A2985 RMK AO2 SLP110 T01280106 (GG)
0222722868931382023010105137+33822-116504FM-16+0137KPSP V0209999C00005004275MN0096565N5+01285+01005999999ADDAU100007015AW1051GA1085+004275999GD14991+0042759GE19AGL   +99999+99999GF199999999999004271999999MA1101055099425MW1055REMMET09312/31/22 21:13:03 SPECI KPSP 010513Z 00000KT 6SM HZ OVC014 13/10 A2984 RMK AO2 T01280100 (GG)
0183722868931382023010105516+33822-116504FM-16+0137KPSP V0200205N00265003965MN0112655N5+01305+01005999999ADDGA1075+003965999GA2085+018295999GD13991+0039659GD24991+0182959MA1101025099385REMMET09412/31/22 21:51:03 SPECI KPSP 010551Z 02005KT 7SM BKN013 OVC060 13/10 A2983 RMK AO2 $ FIBI (GG)
0312722868931382023010105537+33822-116504FM-15+0137KPSP V0200205N00265003965MN0112655N5+01285+01005101025ADDAA101000095GA1075+003965999GA2085+018295999GD13991+0039659GD24991+0182959GE19AGL   +99999+99999GF199999999999003961999999KA1060M+01391KA2060N+01281MA1101025099385MD1890169+9999REMMET12412/31/22 21:53:03 METAR KPSP 010553Z 02005KT 7SM BKN013 OVC060 13/10 A2983 RMK AO2 SLP102 T01280100 10139 20128 58016 $ (GG)
0236722868931382023010106007+33822-116504FM-16+0137KPSP V0203505N00215018295MN0112655N5+01285+01005999999ADDGA1045+003965999GA2085+018295999GD12991+0039659GD24991+0182959GE19AGL   +99999+99999GF199999999999003961999999MA1101025099385REMMET09912/31/22 22:00:03 SPECI KPSP 010600Z 35004KT 7SM SCT013 OVC060 13/10 A2983 RMK AO2 T01280100 $ (GG)
0236722868931382023010106117+33822-116504FM-16+0137KPSP V0203605N00365004575MN0112655N5+01285+01005999999ADDGA1075+004575999GA2085+018295999GD13991+0045759GD24991+0182959GE19AGL   +99999+99999GF199999999999004571999999MA1100985099355REMMET09912/31/22 22:11:03 SPECI KPSP 010611Z 36007KT 7SM BKN015 OVC060 13/10 A2982 RMK AO2 T01280100 $ (GG)
0211722868931382023010106537+33822-116504FM-15+0137KPSP V0209999C00005004575MN0128755N5+01335+01065100905ADDAA101000095GA1085+004575999GD14991+0045759GE19AGL   +99999+99999GF199999999999004571999999MA1100885099255REMMET09412/31/22 22:53:03 METAR KPSP 010653Z 00000KT 8SM OVC015 13/11 A2979 RMK AO2 SLP090 T01330106 $
0193722868931382023010107257+33822-116504FM-16+0137KPSP V0209999C00005004275MN0112655N5+01285+01065999999ADDGA1085+004275999GD14991+0042759GE19AGL   +99999+99999GF199999999999004271999999MA1100815099185REMMET08712/31/22 23:25:03 SPECI KPSP 010725Z 00000KT 7SM OVC014 13/11 A2977 RMK AO2 T01280106 $
0247722868931382023010107537+33822-116504FM-15+0137KPSP V0203105N00265004575MN0112655N5+01335+01065100725ADDAA101000095GA1085+004575999GD14991+0045759GE19AGL   +99999+99999GF199999999999004571999999KA1240M+01391KA2240N+00941MA1100715099085REMMET10412/31/22 23:53:03 METAR KPSP 010753Z 31005KT 7SM OVC015 13/11 A2974 RMK AO2 SLP072 T01330106 401390094 $
0946722868931382023010107596+33822-116504SOD  +0137KPSP V020999999999999999999999999999+99999+99999999999ADDAA124000095AT1AU01FG  5AT2AU13BR  5AT3AU08HZ  5AX1016246AX2026246AX3086246KA1240M+01395KA2240N+00945MG1099754100714OE11240067110099995OE22240053609099995OE33240018399999995REMSOD71124 HR PRECIPITATION (IN): 0.00 WEATHER(CODE):128  24 HR MAX TEMP (F): 5724 HR MIN TEMP (F): 49AVERAGE STATION PRESSURE:29.455 MINIMUM SEA LEVEL PRESSURE:29.74 TIME OF OCCURRENCE:2359 PEAK WIND SPEED (MPH): 15 PEAK WIND DIR (DEG):100 PEAK WIND TIME (LST):      FASTEST 2MIN SPEED (MPH): 12FASTEST 2MIN DIR (DEG): 90 FASTEST 2MIN TIME (LST):     AVERAGE WIND SPEED (MPH): 4.1 24 HR AVG TEMP (F): 53DEPART FROM NORMAL: -5  HEATING DEGREE DAYS: 12 COOLING DEGREE DAYS:  0 LATEST DAY MAX TEMP (0700-1900 LST):57  LATEST NIGHT MIN TEMP(1900-0800 LST):49 HOURLY INCREMENTAL PRECIPITATION VALUES (IN):.00 0.00 0.00 0.00 0.00 0.00 0.00 0.00 0.00 0.00 0.00 0.00 0.00 0.00 0.00 0.00 0.00 0.00 0.00 0.00 0.00 0.00 0.00 0.00EQDR01   1287AXW090R02   1287AXW090R03   1287AXW090
1262722868931382023010107596+33822-116504SOM  +0137KPSP V020999999999999999999999999999+99999+99999999999ADDAB10006196AD10005891111999999995AE1025015005005AH1005000591114105AH2010001091114105AH3015001391114105AH4020001391114105AH5030001591114285AH6045001891114455AI1060002391114285AI2080002891114285AI3100003091115085AI4120003891114105AI5150004691114285AI6180005191115085KB1744N+07945KB2744M+20285KB3744A+14115KC1N9+00381917135KC2M9+02832499995KD1744H02375KD2744C00075KE1006005005005MH1100204101864MK1102712010045100713123595REMSOM798PCP MTOT:0.24 PCP GT 24HRS:0.23 DATE(S):11 DAYS W/PCP >=.01:2  DAYS W/PCP >=.10:1  DAYS W/ PCP >=.50:0 DAYS W/PCP >=1.00:0 MSDP AMTS W/DATE-TIME TAGS:MIN:5 0.02  11/1410 MIN:10 0.04  11/1410 MIN:15 0.05  11/1410 MIN:20 0.05  11/1410 MIN:30 0.06  11/1428 MIN:45 0.07  11/1445 MIN:60 0.09  11/1428 MIN:80 0.11  11/1428 MIN:100 0.12  11/1508 MIN:120 0.15  11/1410 MIN:150 0.18  11/1428 MIN:180 0.20  11/1508 AVG DLY MIN:46.3  AVG DLY MAX:68.5  AVG MLY TMP:57.4  MIN TMP:39 DATE(S):19 17 13 MAX TMP:83  DATE(S):24 DAYS MAX <=32:0 DAYS MAX >=90:0  DAYS MIN <=32:0  DAYS MIN  <=0:0  AVG STP:29.590 LWST SLP:29.74 DATE/TIME:312359 HGST SLP:30.33 DATE/TIME:201004 HDD MTH TOT:237 DEP NORM:-2553 SEASON(JUL 1-JUN 30):321 DEP NORM:-25536 CDD MTH TOT:7 DEP NORM:-2553 SEASON(JAN 1-DEC 31):5153 DEP NORM:-25536EQDR01  0.247ABP070R02     07KE1032
0193722868931382023010108037+33822-116504FM-16+0137KPSP V0203505N00315004275MN0128755N5+01335+01065999999ADDGA1085+004275999GD14991+0042759GE19AGL   +99999+99999GF199999999999004271999999MA1100715099085REMMET08701/01/23 00:03:02 SPECI KPSP 010803Z 35006KT 8SM OVC014 13/11 A2974 RMK AO2 T01330106 $
0328722868931382023010108517+33822-116504FM-16+0137KPSP V0203105N00215005185MN0064375N5+01405+01205999999ADDAA101001031AU120020015AU200001015AW1105AW2625GA1075+005185999GA2075+013415999GA3085+021345999GD13991+0051859GD23991+0134159GD34991+0213459GE19AGL   +99999+99999GF199999999999005181999999MA1100715099085MW1655REMMET10901/01/23 00:51:02 SPECI KPSP 010851Z 31004KT 4SM RA BR BKN017 BKN044 OVC070 14/12 A2974 RMK AO2 RAB19 P0004 $
0401722868931382023010108537+33822-116504FM-15+0137KPSP V0209999V00155013415MN0064375N5+01395+01175100715ADDAA101001396AA203001092AU120020015AU200001015AW1105AW2625GA1045+005185999GA2075+013415999GA3085+021345999GD12991+0051859GD23991+0134159GD34991+0213459GE19AGL   +99999+99999GF199999999999005181999999MA1100715099085MD1690179+9999MW1655REMMET13801/01/23 00:53:02 METAR KPSP 010853Z VRB03KT 4SM RA BR SCT017 BKN044 OVC070 14/12 A2974 RMK AO2 RAB19 SLP071 P0004 60004 T01390117 56017 $EQDQ01  00108PRCP03
0333722868931382023010109167+33822-116504FM-16+0137KPSP V0203205N00265005185MN0064375N5+01395+01175999999ADDAA101001031AU110020015AU200001015AW1105AW2615GA1075+005185999GA2075+018295999GA3085+022865999GD13991+0051859GD23991+0182959GD34991+0228659GE19AGL   +99999+99999GF199999999999005181999999MA1100755099125MW1615REMMET11401/01/23 01:16:02 SPECI KPSP 010916Z 32005KT 4SM -RA BR BKN017 BKN060 OVC075 14/12 A2975 RMK AO2 P0004 T01390117 $
0301722868931382023010109537+33822-116504FM-15+0137KPSP V0209999C00005004275MN0048285N5+01335+01225100705ADDAA101003095AU120020015AU200001015AW1105AW2625GA1075+004275999GA2085+018295999GD13991+0042759GD24991+0182959GE19AGL   +99999+99999GF199999999999004271999999MA1100715099085MW1655REMMET11301/01/23 01:53:02 METAR KPSP 010953Z 00000KT 3SM RA BR BKN014 OVC060 13/12 A2974 RMK AO2 SLP070 P0012 T01330122 $
0336722868931382023010109567+33822-116504FM-16+0137KPSP V0209999C00005003665MN0040235N5+01335+01225999999ADDAA101000231AU120020015AU200001015AW1105AW2625GA1075+003665999GA2075+005185999GA3085+015245999GD13991+0036659GD23991+0051859GD34991+0152459GE19AGL   +99999+99999GF199999999999003661999999MA1100715099085MW1655REMMET11701/01/23 01:56:02 SPECI KPSP 010956Z 00000KT 2 1/2SM RA BR BKN012 BKN017 OVC050 13/12 A2974 RMK AO2 P0001 T01330122 $
0298722868931382023010110257+33822-116504FM-16+0137KPSP V0209999C00005002445MN0040235N5+01335+01225999999ADDAA101002231AU120020015AU200001015AW1105AW2625GA1075+002445999GA2085+004275999GD13991+0024459GD24991+0042759GE19AGL   +99999+99999GF199999999999002441999999MA1100685099055MW1655REMMET11001/01/23 02:25:02 SPECI KPSP 011025Z 00000KT 2 1/2SM RA BR BKN008 OVC014 13/12 A2973 RMK AO2 P0009 T01330122 $
0263722868931382023010110537+33822-116504FM-15+0137KPSP V0209999C00005001835MN0032195N5+01335+01225100625ADDAA101003895AU120020015AU200001015AW1105AW2625GA1085+001835999GD14991+0018359GE19AGL   +99999+99999GF199999999999001831999999MA1100645099025MW1655REMMET10601/01/23 02:53:02 METAR KPSP 011053Z 00000KT 2SM RA BR OVC006 13/12 A2972 RMK AO2 SLP062 P0015 T01330122 $
0295722868931382023010111107+33822-116504FM-16+0137KPSP V0201205N00215001525MN0048285N5+01285+01175999999ADDAA101000731AU110020015AU200001015AW1105AW2615GA1075+001525999GA2085+016765999GD13991+0015259GD24991+0167659GE19AGL   +99999+99999GF199999999999001521999999MA1100585098955MW1615REMMET10701/01/23 03:10:02 SPECI KPSP 011110Z 12004KT 3SM -RA BR BKN005 OVC055 13/12 A2970 RMK AO2 P0003 T01280117 $
0336722868931382023010111227+33822-116504FM-16+0137KPSP V0201005N00415005495MN0040235N5+01285+01175999999ADDAA101001231AU120020015AU200001015AW1105AW2625GA1045+001525999GA2075+005495999GA3085+021345999GD12991+0015259GD23991+0054959GD34991+0213459GE19AGL   +99999+99999GF199999999999001521999999MA1100545098925MW1655REMMET11701/01/23 03:22:02 SPECI KPSP 011122Z 10008KT 2 1/2SM RA BR SCT005 BKN018 OVC070 13/12 A2969 RMK AO2 P0005 T01280117 $
0333722868931382023010111357+33822-116504FM-16+0137KPSP V0201405N00315016765MN0048285N5+01285+01225999999ADDAA101001731AU110020015AU200001015AW1105AW2615GA1025+005185999GA2075+016765999GA3085+021345999GD11991+0051859GD23991+0167659GD34991+0213459GE19AGL   +99999+99999GF199999999999005181999999MA1100515098885MW1615REMMET11401/01/23 03:35:02 SPECI KPSP 011135Z 14006KT 3SM -RA BR FEW017 BKN055 OVC070 13/12 A2968 RMK AO2 P0007 T01280122 $
0323722868931382023010111507+33822-116504FM-16+0137KPSP V0203205N00365007625MN0048285N5+01305+01305999999ADDAA101002031AU110020015AU200001015AW1105AW2615GA1045+001225999GA2075+007625999GA3085+022865999GD12991+0012259GD23991+0076259GD34991+0228659GE19AGL   +99999+99999GF199999999999001221999999MA1100475098855MW1615REMMET10401/01/23 03:50:02 SPECI KPSP 011150Z 32007KT 3SM -RA BR SCT004 BKN025 OVC075 13/13 A2967 RMK AO2 P0008 $
0467722868931382023010111517+33822-116504FM-15+0137KPSP V0203205N00415007625MN0048285N5+01285+01225100485ADDAA101001895AA206009991AA324009991AU110020015AU200001015AW1105AW2615GA1045+001225999GA2075+007625999GA3085+022865999GD12991+0012259GD23991+0076259GD34991+0228659GE19AGL   +99999+99999GF199999999999001221999999KA1060M+01391KA2060N+01281MA1100475098855MD1890239+9999MW1615REMMET15101/01/23 03:51:02 METAR KPSP 011151Z 32008KT 3SM -RA BR SCT004 BKN025 OVC075 13/12 A2967 RMK AO2 SLP048 P0008 60039 70039 T01280122 10139 20128 58023 $EQDQ01  00998PRCP06Q02  00998PRCP24
0333722868931382023010112007+33822-116504FM-16+0137KPSP V0209999V00215018295MN0096565N5+01285+01225999999ADDAA101000021AU110020015AU200001015AW1105AW2615GA1045+001835999GA2075+018295999GA3085+024385999GD12991+0018359GD23991+0182959GD34991+0243859GE19AGL   +99999+99999GF199999999999001831999999MA1100475098855MW1615REMMET11401/01/23 04:00:02 SPECI KPSP 011200Z VRB04KT 6SM -RA BR SCT006 BKN060 OVC080 13/12 A2967 RMK AO2 P0000 T01280122 $
0320722868931382023010112537+33822-116504FM-15+0137KPSP V0203405N00215021345MN0128755N5+01335+01285100485ADDAA101000595AU110020015AW1615GA1025+005185999GA2075+021345999GA3085+024385999GD11991+0051859GD23991+0213459GD34991+0243859GE19AGL   +99999+99999GF199999999999005181999999MA1100475098855MW1615REMMET11801/01/23 04:53:02 METAR KPSP 011253Z 34004KT 8SM -RA FEW017 BKN070 OVC080 13/13 A2967 RMK AO2 SLP048 P0002 T01330128 $
0305722868931382023010113537+33822-116504FM-15+0137KPSP V0203505N00215015245MN0160935N5+01285+01225100515ADDAA101000025GA1045+010675999GA2075+015245999GA3075+021345999GD12991+0106759GD23991+0152459GD33991+0213459GE19AGL   +99999+99999GF199999999999010671999999MA1100515098885REMMET12601/01/23 05:53:02 METAR KPSP 011353Z 35004KT 10SM SCT035 BKN050 BKN070 13/12 A2968 RMK AO2 RAE17 SLP051 P0000 T01280122 $ (DD)
0275722868931382023010114027+33822-116504FM-16+0137KPSP V0203205N00155010675MN0160935N5+01285+01225999999ADDGA1025+005795999GA2075+010675999GA3085+021345999GD11991+0057959GD23991+0106759GD34991+0213459GE19AGL   +99999+99999GF199999999999005791999999MA1100515098885REMMET10701/01/23 06:02:02 SPECI KPSP 011402Z 32003KT 10SM FEW019 BKN035 OVC070 13/12 A2968 RMK AO2 T01280122 $ (DD)
0253722868931382023010114537+33822-116504FM-15+0137KPSP V0209999C00005010065MN0144845N5+01285+01225100535ADDAA101000095AA203000591GA1075+010065999GD13991+0100659GE19AGL   +99999+99999GF199999999999010061999999MA1100545098925MD1390059+9999REMMET11101/01/23 06:53:02 METAR KPSP 011453Z 00000KT 9SM BKN033 13/12 A2969 RMK AO2 SLP053 60002 T01280122 53005 $ (DD)
0221722868931382023010115516+33822-116504FM-16+0137KPSP V0200405N003152200059N0128755N5+01305+01205999999ADDGA1025+007625999GA2045+013415999GA3045+016765999GD11991+0076259GD22991+0134159GD32991+0167659MA1100475098855REMMET10101/01/23 07:51:02 SPECI KPSP 011551Z 04006KT 8SM FEW025 SCT044 SCT055 13/12 A2967 RMK AO2 $ FIBI (DD)
0292722868931382023010115537+33822-116504FM-15+0137KPSP V0200605N00315016765MN0128755N5+01335+01175100485ADDAA101000095GA1025+006105999GA2045+007625999GA3075+016765999GD11991+0061059GD22991+0076259GD33991+0167659GE19AGL   +99999+99999GF199999999999006101999999MA1100475098855REMMET11301/01/23 07:53:02 METAR KPSP 011553Z 06006KT 8SM FEW020 SCT025 BKN055 13/12 A2967 RMK AO2 SLP048 T01330117 $ (DD)
0274722868931382023010116537+33822-116504FM-15+0137KPSP V0202005N001552200059N0160935N5+01395+01115100545ADDAA101000095GA1025+007015999GA2045+014025999GD11991+0070159GD22991+0140259GE19AGL   +99999+99999GF104995999999007011999999MA1100545098925REMMET10701/01/23 08:53:02 METAR KPSP 011653Z 20003KT 10SM FEW023 SCT046 14/11 A2969 RMK AO2 SLP054 T01390111 $ (DD)EQDD01      0ADE726
0267722868931382023010117537+33822-116504FM-15+0137KPSP V0209999C000052200059N0160935N5+01615+00945100595ADDAA101000095AA206000591GA1005+999999999GD10991+9999999GF100991999999999999999999KA1060M+01611KA2060N+01221MA1100585098955MD1390059+9999REMMET12101/01/23 09:53:02 METAR KPSP 011753Z 00000KT 10SM CLR 16/09 A2970 RMK AO2 SLP059 60002 T01610094 10161 20122 53005 $ (DD)
0236722868931382023010118537+33822-116504FM-15+0137KPSP V0201005N005152200059N0160935N5+01725+00945100505ADDAA101000095GA1025+019815999GD11991+0198159GE19AGL   +99999+99999GF102995999999019811999999MA1100515098885REMMET10001/01/23 10:53:02 METAR KPSP 011853Z 10010KT 10SM FEW065 17/09 A2968 RMK AO2 SLP050 T01720094 $ (DD)EQDD01      0ADE726
0217722868931382023010119537+33822-116504FM-15+0137KPSP V0200905N00265027435MN0160935N5+01725+00565100405ADDAA101000095GA1075+027435999GD13991+0274359GE19AGL   +99999+99999GF199999999999027431999999MA1100415098785REMMET10001/01/23 11:53:02 METAR KPSP 011953Z 09005KT 10SM BKN090 17/06 A2965 RMK AO2 SLP040 T01720056 $ (CM)
0324722868931382023010120537+33822-116504FM-15+0137KPSP V0203405N00985018295MN0160935N5+01675+00565100405ADDAA101000095GA1025+014945999GA2075+018295999GA3085+024385999GD11991+0149459GD23991+0182959GD34991+0243859GE19AGL   +99999+99999GF199999999999014941999999MA1100415098785MD1690189+9999OC101185REMMET12301/01/23 12:53:02 METAR KPSP 012053Z 34019G23KT 10SM FEW049 BKN060 OVC080 17/06 A2965 RMK AO2 SLP040 T01670056 56018 $ (CM)
0364722868931382023010121537+33822-116504FM-15+0137KPSP V0202905N00365021345MN0160935N5+01445+00725100455ADDAA101000025AU110020015AW1615GA1025+012805999GA2045+015245999GA3085+021345999GD11991+0128059GD22991+0152459GD34991+0213459GE19AGL   +99999+99999GF199999999999012801999999MA1100475098855MW1615OD149901491340REMMET14801/01/23 13:53:02 METAR KPSP 012153Z 29007KT 10SM -RA FEW042 SCT050 OVC070 14/07 A2967 RMK AO2 PK WND 34029/2122 RAB13 SLP045 P0000 T01440072 $ (CM)
0241722868931382023010122537+33822-116504FM-15+0137KPSP V0200205N00315022865MN0160935N5+01565+00505100455ADDAA101000025GA1075+022865999GD13991+0228659GE19AGL   +99999+99999GF199999999999022861999999MA1100445098825REMMET12401/01/23 14:53:02 METAR KPSP 012253Z 02006KT 10SM BKN075 16/05 A2966 RMK AO2 LTG DSNT SW RAE01 SLP045 P0000 T01560050 $ (CM)
0246722868931382023010123437+33822-116504FM-16+0137KPSP V0209999V002152200059N0160935N5+01565+00445999999ADDAU147000015AW1121GA1025+025915999GD11991+0259159GE19AGL   +99999+99999GF102995999999025911999999MA1100515098885MV1015REMMET09801/01/23 15:43:02 SPECI KPSP 012343Z VRB04KT 10SM VCTS FEW085 16/04 A2968 RMK AO2 T01560044 $ (CM)EQDD01      0ADE726
0360722868931382023010123537+33822-116504FM-15+0137KPSP V0202905N010352200059N0160935N5+01505+00445100535ADDAA101000095AA206000021GA1025+019815999GA2045+024385999GD11991+0198159GD22991+0243859GE19AGL   +99999+99999GF104995999999019811999999KA1060M+01831KA2060N+01331MA1100545098925MD1390139+9999OC101545REMMET13401/01/23 15:53:02 METAR KPSP 012353Z 29020G30KT 10SM FEW065 SCT080 15/04 A2969 RMK AO2 SLP053 60000 T01500044 10183 20133 53013 $ (CM)EQDD01      0ADE726
0265722868931382023010200537+33822-116504FM-15+0137KPSP V0209999C00005027435MN0160935N5+01395+00675100565ADDAA101000395GA1025+018295999GA2075+027435999GD11991+0182959GD23991+0274359GE19AGL   +99999+99999GF199999999999018291999999MA1100585098955REMMET11701/01/23 16:53:01 METAR KPSP 020053Z 00000KT 10SM FEW060 BKN090 14/07 A2970 RMK AO2 RAB07E24 SLP056 P0001 T01390067 $
0212722868931382023010201537+33822-116504FM-15+0137KPSP V0200805N00265030485MN0160935N5+01335+00675100655ADDAA101000095GA1075+030485999GD13991+0304859GE19AGL   +99999+99999GF199999999999030481999999MA1100645099025REMMET09501/01/23 17:53:01 METAR KPSP 020153Z 08005KT 10SM BKN100 13/07 A2972 RMK AO2 SLP065 T01330067 $
0268722868931382023010202537+33822-116504FM-15+0137KPSP V0203305N002152200059N0160935N5+01335+00565100775ADDAA101000095AA203000391GA1025+018295999GD11991+0182959GE19AGL   +99999+99999GF102995999999018291999999MA1100785099155MD1390239+9999REMMET10701/01/23 18:53:01 METAR KPSP 020253Z 33004KT 10SM FEW060 13/06 A2976 RMK AO2 SLP077 60001 T01330056 53023 $EQDD01      0ADE726
0231722868931382023010203537+33822-116504FM-15+0137KPSP V0200805N001552200059N0160935N5+01225+00615100855ADDAA101000095GA1045+036585999GD12991+0365859GE19AGL   +99999+99999GF104995999999036581999999MA1100855099225REMMET09501/01/23 19:53:02 METAR KPSP 020353Z 08003KT 10SM SCT120 12/06 A2978 RMK AO2 SLP085 T01220061 $EQDD01      0ADE726
0212722868931382023010204537+33822-116504FM-15+0137KPSP V0200305N00215033535MN0160935N5+01225+00675100895ADDAA101000095GA1075+033535999GD13991+0335359GE19AGL   +99999+99999GF199999999999033531999999MA1100885099255REMMET09501/01/23 20:53:02 METAR KPSP 020453Z 03004KT 10SM BKN110 12/07 A2979 RMK AO2 SLP089 T01220067 $
0306722868931382023010205537+33822-116504FM-15+0137KPSP V0209999C000052200059N0160935N5+01175+00615100925ADDAA101000095AA206000391GA1025+033535999GD11991+0335359GE19AGL   +99999+99999GF102995999999033531999999KA1060M+01501KA2060N+01111MA1100915099285MD1190159+9999REMMET11901/01/23 21:53:02 METAR KPSP 020553Z 00000KT 10SM FEW110 12/06 A2980 RMK AO2 SLP092 60001 T01170061 10150 20111 51015 $EQDD01      0ADE726
0187722868931382023010206537+33822-116504FM-15+0137KPSP V0209999C000052200059N0160935N5+01115+00615100945ADDAA101000095GA1005+999999999GD10991+9999999GF100991999999999999999999MA1100955099325REMMET09201/01/23 22:53:02 METAR KPSP 020653Z 00000KT 10SM CLR 11/06 A2981 RMK AO2 SLP094 T01110061 $
0223722868931382023010207537+33822-116504FM-15+0137KPSP V0202805N002152200059N0160935N5+01065+00565100975ADDAA101000095GA1005+999999999GD10991+9999999GF100991999999999999999999KA1240M+01831KA2240N+01001MA1100985099355REMMET10201/01/23 23:53:02 METAR KPSP 020753Z 28004KT 10SM CLR 11/06 A2982 RMK AO2 SLP097 T01060056 401830100 $
0920722868931382023010207596+33822-116504SOD  +0137KPSP V020999999999999999999999999999+99999+99999999999ADDAA124010795AT1AU03TS  5AT2AU16RA  5AT3AU13BR  5AX1016246AX2036246KA1240M+01835KA2240N+01005MG1098984100374OE11240156529099995OE22240125232099995OE33240024699999995REMSOD71024 HR PRECIPITATION (IN): 0.42 WEATHER(CODE):13  24 HR MAX TEMP (F): 6524 HR MIN TEMP (F): 50AVERAGE STATION PRESSURE:29.230 MINIMUM SEA LEVEL PRESSURE:29.64 TIME OF OCCURRENCE:1251 PEAK WIND SPEED (MPH): 35 PEAK WIND DIR (DEG):290 PEAK WIND TIME (LST):      FASTEST 2MIN SPEED (MPH): 28FASTEST 2MIN DIR (DEG):320 FASTEST 2MIN TIME (LST):     AVERAGE WIND SPEED (MPH): 5.5 24 HR AVG TEMP (F): 58DEPART FROM NORMAL:  0  HEATING DEGREE DAYS:  7 COOLING DEGREE DAYS:  0 LATEST DAY MAX TEMP (0700-1900 LST):65  LATEST NIGHT MIN TEMP(1900-0800 LST):54 HOURLY INCREMENTAL PRECIPITATION VALUES (IN):.05 0.12 0.15 0.07 0.02 T    0.00 0.00 0.00 0.00 0.00 0.00 0.00 T    T    0.00 0.01 0.00 0.00 0.00 0.00 0.00 0.00 0.00EQDR01    137AXW093R02    137AXW093
0207722868931382023010208537+33822-116504FM-15+0137KPSP V0202405N001552200059N0160935N5+00895+00615101005ADDAA101000095GA1005+999999999GD10991+9999999GF100991999999999999999999MA1100985099355MD1290089+9999REMMET09801/02/23 00:53:02 METAR KPSP 020853Z 24003KT 10SM CLR 09/06 A2982 RMK AO2 SLP100 T00890061 52008 $
0187722868931382023010209537+33822-116504FM-15+0137KPSP V0203005N002152200059N0160935N5+00945+00565101055ADDAA101000095GA1005+999999999GD10991+9999999GF100991999999999999999999MA1101055099425REMMET09201/02/23 01:53:02 METAR KPSP 020953Z 30004KT 10SM CLR 09/06 A2984 RMK AO2 SLP105 T00940056 $
0187722868931382023010210537+33822-116504FM-15+0137KPSP V0209999C000052200059N0160935N5+00945+00505101085ADDAA101000095GA1005+999999999GD10991+9999999GF100991999999999999999999MA1101085099455REMMET09201/02/23 02:53:02 METAR KPSP 021053Z 00000KT 10SM CLR 09/05 A2985 RMK AO2 SLP108 T00940050 $
0262722868931382023010211537+33822-116504FM-15+0137KPSP V0203405N002652200059N0160935N5+00895+00505101125ADDAA101000095AA224000891GA1005+999999999GD10991+9999999GF100991999999999999999999KA1060M+01171KA2060N+00721MA1101125099485MD1290129+9999REMMET11601/02/23 03:53:02 METAR KPSP 021153Z 34005KT 10SM CLR 09/05 A2986 RMK AO2 SLP112 70003 T00890050 10117 20072 52012 $
0187722868931382023010212537+33822-116504FM-15+0137KPSP V0203105N001552200059N0160935N5+00835+00445101185ADDAA101000095GA1005+999999999GD10991+9999999GF100991999999999999999999MA1101195099555REMMET09201/02/23 04:53:02 METAR KPSP 021253Z 31003KT 10SM CLR 08/04 A2988 RMK AO2 SLP118 T00830044 $
0187722868931382023010213537+33822-116504FM-15+0137KPSP V0209999C000052200059N0160935N5+00725+00395101295ADDAA101000095GA1005+999999999GD10991+9999999GF100991999999999999999999MA1101295099655REMMET09201/02/23 05:53:02 METAR KPSP 021353Z 00000KT 10SM CLR 07/04 A2991 RMK AO2 SLP129 T00720039 $
0212722868931382023010214537+33822-116504FM-15+0137KPSP V0202205N002652200059N0160935N5+00835+00395101345ADDAA101000095GA1005+999999999GD10991+9999999GF100991999999999999999999MA1101325099685MD1190219+9999REMMET10301/02/23 06:53:02 METAR KPSP 021453Z 22005KT 10SM CLR 08/04 A2992 RMK AO2 SLP134 T00830039 51021 $ (DD)
0192722868931382023010215537+33822-116504FM-15+0137KPSP V0209999C000052200059N0160935N5+00945+00445101385ADDAA101000095GA1005+999999999GD10991+9999999GF100991999999999999999999MA1101395099755REMMET09701/02/23 07:53:02 METAR KPSP 021553Z 00000KT 10SM CLR 09/04 A2994 RMK AO2 SLP138 T00940044 $ (CM)
0192722868931382023010216537+33822-116504FM-15+0137KPSP V0209999V002152200059N0160935N5+01225+00445101455ADDAA101000095GA1005+999999999GD10991+9999999GF100991999999999999999999MA1101465099825REMMET09701/02/23 08:53:02 METAR KPSP 021653Z VRB04KT 10SM CLR 12/04 A2996 RMK AO2 SLP145 T01220044 $ (DD)
0250722868931382023010217537+33822-116504FM-15+0137KPSP V0201505N001552200059N0160935N5+01395+00395101505ADDAA101000095GA1005+999999999GD10991+9999999GF100991999999999999999999KA1060M+01391KA2060N+00671MA1101495099855MD1390169+9999REMMET11501/02/23 09:53:02 METAR KPSP 021753Z 15003KT 10SM CLR 14/04 A2997 RMK AO2 SLP150 T01390039 10139 20067 53016 $ (DD)
0192722868931382023010218537+33822-116504FM-15+0137KPSP V0209999C000052200059N0160935N5+01505+00335101505ADDAA101000095GA1005+999999999GD10991+9999999GF100991999999999999999999MA1101495099855REMMET09701/02/23 10:53:02 METAR KPSP 021853Z 00000KT 10SM CLR 15/03 A2997 RMK AO2 SLP150 T01500033 $ (DD)
0192722868931382023010219537+33822-116504FM-15+0137KPSP V0209999V003152200059N0160935N5+01675+00225101415ADDAA101000095GA1005+999999999GD10991+9999999GF100991999999999999999999MA1101425099795REMMET09701/02/23 11:53:02 METAR KPSP 021953Z VRB06KT 10SM CLR 17/02 A2995 RMK AO2 SLP141 T01670022 $ (DD)
0212722868931382023010220537+33822-116504FM-15+0137KPSP V0201305N003152200059N0160935N5+01615+00225101365ADDAA101000095GA1005+999999999GD10991+9999999GF100991999999999999999999MA1101355099725MD1890149+9999REMMET10301/02/23 12:53:02 METAR KPSP 022053Z 13006KT 10SM CLR 16/02 A2993 RMK AO2 SLP136 T01610022 58014 $ (DD)
0192722868931382023010221537+33822-116504FM-15+0137KPSP V0201405N003152200059N0160935N5+01675+00285101365ADDAA101000095GA1005+999999999GD10991+9999999GF100991999999999999999999MA1101355099725REMMET09701/02/23 13:53:02 METAR KPSP 022153Z 14006KT 10SM CLR 17/03 A2993 RMK AO2 SLP136 T01670028 $ (CM)
0236722868931382023010222537+33822-116504FM-15+0137KPSP V0201405N003652200059N0160935N5+01615+00225101365ADDAA101000095GA1025+024385999GD11991+0243859GE19AGL   +99999+99999GF102995999999024381999999MA1101355099725REMMET10001/02/23 14:53:02 METAR KPSP 022253Z 14007KT 10SM FEW080 16/02 A2993 RMK AO2 SLP136 T01610022 $ (CM)EQDD01      0ADE726
0250722868931382023010223537+33822-116504FM-15+0137KPSP V0209999V001552200059N0160935N5+01615+00285101385ADDAA101000095GA1005+999999999GD10991+9999999GF100991999999999999999999KA1060M+01671KA2060N+01391MA1101395099755MD1390029+9999REMMET11501/02/23 15:53:02 METAR KPSP 022353Z VRB03KT 10SM CLR 16/03 A2994 RMK AO2 SLP138 T01610028 10167 20139 53002 $ (CM)
0231722868931382023010300537+33822-116504FM-15+0137KPSP V0209999C000052200059N0160935N5+01565+00285101365ADDAA101000095GA1025+030485999GD11991+0304859GE19AGL   +99999+99999GF102995999999030481999999MA1101355099725REMMET09501/02/23 16:53:01 METAR KPSP 030053Z 00000KT 10SM FEW100 16/03 A2993 RMK AO2 SLP136 T01560028 $EQDD01      0ADE726
0231722868931382023010301537+33822-116504FM-15+0137KPSP V0201505N002152200059N0160935N5+01445+00335101435ADDAA101000095GA1025+024385999GD11991+0243859GE19AGL   +99999+99999GF102995999999024381999999MA1101425099795REMMET09501/02/23 17:53:01 METAR KPSP 030153Z 15004KT 10SM FEW080 14/03 A2995 RMK AO2 SLP143 T01440033 $EQDD01      0ADE726
0207722868931382023010302537+33822-116504FM-15+0137KPSP V0209999V003152200059N0160935N5+01395+00395101425ADDAA101000095GA1005+999999999GD10991+9999999GF100991999999999999999999MA1101425099795MD1390049+9999REMMET09801/02/23 18:53:01 METAR KPSP 030253Z VRB06KT 10SM CLR 14/04 A2995 RMK AO2 SLP142 T01390039 53004 $
0269722868931382023010303537+33822-116504FM-15+0137KPSP V0200205N005752200059N0160935N5+01445+00335101515ADDAA101000095GA1025+021345999GA2045+036585999GD11991+0213459GD22991+0365859GE19AGL   +99999+99999GF104995999999021341999999MA1101495099855REMMET10201/02/23 19:53:01 METAR KPSP 030353Z 02011KT 10SM FEW070 SCT120 14/03 A2997 RMK AO2 SLP151 T01440033 $EQDD01      0ADE726
0212722868931382023010304537+33822-116504FM-15+0137KPSP V0202205N00265027435MN0160935N5+01335+00445101405ADDAA101000095GA1075+027435999GD13991+0274359GE19AGL   +99999+99999GF199999999999027431999999MA1101395099755REMMET09501/02/23 20:53:02 METAR KPSP 030453Z 22005KT 10SM BKN090 13/04 A2994 RMK AO2 SLP140 T01330044 $
0346722868931382023010305537+33822-116504FM-15+0137KPSP V0201705N00215022865MN0160935N5+01225+00505101505ADDAA101000095GA1075+022865999GA2075+027435999GA3085+033535999GD13991+0228659GD23991+0274359GD34991+0335359GE19AGL   +99999+99999GF199999999999022861999999KA1060M+01611KA2060N+01221MA1101495099855MD1390089+9999REMMET12701/02/23 21:53:02 METAR KPSP 030553Z 17004KT 10SM BKN075 BKN090 OVC110 12/05 A2997 RMK AO2 SLP150 T01220050 10161 20122 53008 $
0231722868931382023010306537+33822-116504FM-15+0137KPSP V0201305N002652200059N0160935N5+01225+00505101415ADDAA101000095GA1025+024385999GD11991+0243859GE19AGL   +99999+99999GF102995999999024381999999MA1101425099795REMMET09501/02/23 22:53:02 METAR KPSP 030653Z 13005KT 10SM FEW080 12/05 A2995 RMK AO2 SLP141 T01220050 $EQDD01      0ADE726
0223722868931382023010307537+33822-116504FM-15+0137KPSP V0209999V001552200059N0160935N5+01115+00445101395ADDAA101000095GA1005+999999999GD10991+9999999GF100991999999999999999999KA1240M+01671KA2240N+00671MA1101395099755REMMET10201/02/23 23:53:02 METAR KPSP 030753Z VRB03KT 10SM CLR 11/04 A2994 RMK AO2 SLP139 T01110044 401670067 $
0813722868931382023010307596+33822-116504SOD  +0137KPSP V020999999999999999999999999999+99999+99999999999ADDAA124000095KA1240M+01675KA2240N+00675MG1099714100954OE11240102801099995OE22240071502099995OE33240015699999995REMSOD69224 HR PRECIPITATION (IN): 0.00 24 HR MAX TEMP (F): 6224 HR MIN TEMP (F): 44AVERAGE STATION PRESSURE:29.445 MINIMUM SEA LEVEL PRESSURE:29.81 TIME OF OCCURRENCE:0025 PEAK WIND SPEED (MPH): 23 PEAK WIND DIR (DEG): 10 PEAK WIND TIME (LST):      FASTEST 2MIN SPEED (MPH): 16FASTEST 2MIN DIR (DEG): 20 FASTEST 2MIN TIME (LST):     AVERAGE WIND SPEED (MPH): 3.5 24 HR AVG TEMP (F): 53DEPART FROM NORMAL: -5  HEATING DEGREE DAYS: 12 COOLING DEGREE DAYS:  0 LATEST DAY MAX TEMP (0700-1900 LST):62  LATEST NIGHT MIN TEMP(1900-0800 LST):44 HOURLY INCREMENTAL PRECIPITATION VALUES (IN):.00 0.00 0.00 0.00 0.00 0.00 0.00 0.00 0.00 0.00 0.00 0.00 0.00 0.00 0.00 0.00 0.00 0.00 0.00 0.00 0.00 0.00 0.00 0.00
0251722868931382023010308537+33822-116504FM-15+0137KPSP V0200205N001552200059N0160935N5+01175+00445101365ADDAA101000095GA1025+030485999GD11991+0304859GE19AGL   +99999+99999GF102995999999030481999999MA1101355099725MD1690149+9999REMMET10101/03/23 00:53:02 METAR KPSP 030853Z 02003KT 10SM FEW100 12/04 A2993 RMK AO2 SLP136 T01170044 56014 $EQDD01      0ADE726
0187722868931382023010309537+33822-116504FM-15+0137KPSP V0200605N003652200059N0160935N5+01225+00445101435ADDAA101000095GA1005+999999999GD10991+9999999GF100991999999999999999999MA1101425099795REMMET09201/03/23 01:53:02 METAR KPSP 030953Z 06007KT 10SM CLR 12/04 A2995 RMK AO2 SLP143 T01220044 $
0187722868931382023010310537+33822-116504FM-15+0137KPSP V0203405N002152200059N0160935N5+01005+00445101495ADDAA101000095GA1005+999999999GD10991+9999999GF100991999999999999999999MA1101495099855REMMET09201/03/23 02:53:02 METAR KPSP 031053Z 34004KT 10SM CLR 10/04 A2997 RMK AO2 SLP149 T01000044 $
0245722868931382023010311537+33822-116504FM-15+0137KPSP V0209999C000052200059N0160935N5+00945+00445101465ADDAA101000095GA1005+999999999GD10991+9999999GF100991999999999999999999KA1060M+01281KA2060N+00831MA1101465099825MD1090089+9999REMMET11001/03/23 03:53:02 METAR KPSP 031153Z 00000KT 10SM CLR 09/04 A2996 RMK AO2 SLP146 T00940044 10128 20083 50008 $
0187722868931382023010312537+33822-116504FM-15+0137KPSP V0209999C000052200059N0160935N5+00895+00445101495ADDAA101000095GA1005+999999999GD10991+9999999GF100991999999999999999999MA1101495099855REMMET09201/03/23 04:53:02 METAR KPSP 031253Z 00000KT 10SM CLR 09/04 A2997 RMK AO2 SLP149 T00890044 $
0192722868931382023010313537+33822-116504FM-15+0137KPSP V0203405N002652200059N0160935N5+00945+00395101535ADDAA101000095GA1005+999999999GD10991+9999999GF100991999999999999999999MA1101525099895REMMET09701/03/23 05:53:02 METAR KPSP 031353Z 34005KT 10SM CLR 09/04 A2998 RMK AO2 SLP153 T00940039 $ (DD)
0212722868931382023010314537+33822-116504FM-15+0137KPSP V0209999C000052200059N0160935N5+00835+00395101605ADDAA101000095GA1005+999999999GD10991+9999999GF100991999999999999999999MA1101595099955MD1390149+9999REMMET10301/03/23 06:53:02 METAR KPSP 031453Z 00000KT 10SM CLR 08/04 A3000 RMK AO2 SLP160 T00830039 53014 $ (DD)
0190722868931382023010315537+33822-116504FM-15+0137KPSP V0209999C000052200059N0160935N5+01005+00445101715ADDAA101000095GA1005+999999999GD10991+9999999GF100991999999999999999999MA1101695100055REMMET09501/03/23 07:53:02 METAR KPSP 031553Z 00000KT 10SM CLR 10/04 A3003 RMK AO2 SLP171 T01000044 (DD)
0190722868931382023010316537+33822-116504FM-15+0137KPSP V0201005N001552200059N0160935N5+01225+00505101765ADDAA101000095GA1005+999999999GD10991+9999999GF100991999999999999999999MA1101765100125REMMET09501/03/23 08:53:02 METAR KPSP 031653Z 10003KT 10SM CLR 12/05 A3005 RMK AO2 SLP176 T01220050 (DD)
0292722868931382023010317537+33822-116504FM-15+0137KPSP V0201205N002652200059N0160935N5+01395+00565101835ADDAA101000095GA1045+030485999GD12991+0304859GE19AGL   +99999+99999GF104995999999030481999999KA1060M+01391KA2060N+00721MA1101835100195MD1190249+9999REMMET11601/03/23 09:53:02 METAR KPSP 031753Z 12005KT 10SM SCT100 14/06 A3007 RMK AO2 SLP183 T01390056 10139 20072 51024 (DD)EQDD01      0ADE726
0190722868931382023010318537+33822-116504FM-15+0137KPSP V0201605N002152200059N0160935N5+01565+00615101875ADDAA101000095GA1005+999999999GD10991+9999999GF100991999999999999999999MA1101865100225REMMET09501/03/23 10:53:02 METAR KPSP 031853Z 16004KT 10SM CLR 16/06 A3008 RMK AO2 SLP187 T01560061 (DD)
0190722868931382023010319537+33822-116504FM-15+0137KPSP V0200805N004152200059N0160935N5+01725+00565101785ADDAA101000095GA1005+999999999GD10991+9999999GF100991999999999999999999MA1101795100155REMMET09501/03/23 11:53:02 METAR KPSP 031953Z 08008KT 10SM CLR 17/06 A3006 RMK AO2 SLP178 T01720056 (DD)
0210722868931382023010320537+33822-116504FM-15+0137KPSP V0201105N005152200059N0160935N5+01785+00565101715ADDAA101000095GA1005+999999999GD10991+9999999GF100991999999999999999999MA1101695100055MD1890129+9999REMMET10101/03/23 12:53:02 METAR KPSP 032053Z 11010KT 10SM CLR 18/06 A3003 RMK AO2 SLP171 T01780056 58012 (DD)
0215722868931382023010321537+33822-116504FM-15+0137KPSP V0201405N00315016765MN0160935N5+01725+00565101695ADDAA101000095GA1075+016765999GD13991+0167659GE19AGL   +99999+99999GF199999999999016761999999MA1101695100055REMMET09801/03/23 13:53:02 METAR KPSP 032153Z 14006KT 10SM BKN055 17/06 A3003 RMK AO2 SLP169 T01720056 (DD)
0253722868931382023010322537+33822-116504FM-15+0137KPSP V0201305N00265015245MN0160935N5+01675+00565101725ADDAA101000095GA1045+012195999GA2085+015245999GD12991+0121959GD24991+0152459GE19AGL   +99999+99999GF199999999999012191999999MA1101735100095REMMET10501/03/23 14:53:02 METAR KPSP 032253Z 13005KT 10SM SCT040 OVC050 17/06 A3004 RMK AO2 SLP172 T01670056 (DD)
0349722868931382023010323537+33822-116504FM-15+0137KPSP V0202205N00315015245MN0160935N5+01615+00725101785ADDAA101000095GA1045+011895999GA2075+015245999GA3085+021345999GD12991+0118959GD23991+0152459GD34991+0213459GE19AGL   +99999+99999GF199999999999011891999999KA1060M+01781KA2060N+01391MA1101765100125MD1390069+9999REMMET13001/03/23 15:53:02 METAR KPSP 032353Z 22006KT 10SM SCT039 BKN050 OVC070 16/07 A3005 RMK AO2 SLP178 T01610072 10178 20139 53006 (GG)
0248722868931382023010400537+33822-116504FM-15+0137KPSP V0202205N00515012805MN0160935N5+01505+00785101855ADDAA101000095GA1075+012805999GA2085+015245999GD13991+0128059GD24991+0152459GE19AGL   +99999+99999GF199999999999012801999999MA1101835100195REMMET10001/03/23 16:53:01 METAR KPSP 040053Z 22010KT 10SM BKN042 OVC050 15/08 A3007 RMK AO2 SLP185 T01500078
0210722868931382023010401537+33822-116504FM-15+0137KPSP V0202205N00265012505MN0160935N5+01505+00835101855ADDAA101000095GA1085+012505999GD14991+0125059GE19AGL   +99999+99999GF199999999999012501999999MA1101835100195REMMET09301/03/23 17:53:01 METAR KPSP 040153Z 22005KT 10SM OVC041 15/08 A3007 RMK AO2 SLP185 T01500083
0230722868931382023010402537+33822-116504FM-15+0137KPSP V0203305N00265013115MN0160935N5+01445+00895101955ADDAA101000095GA1085+013115999GD14991+0131159GE19AGL   +99999+99999GF199999999999013111999999MA1101935100295MD1390169+9999REMMET09901/03/23 18:53:01 METAR KPSP 040253Z 33005KT 10SM OVC043 14/09 A3010 RMK AO2 SLP195 T01440089 53016
0210722868931382023010403537+33822-116504FM-15+0137KPSP V0203105N00215013115MN0160935N5+01445+00835101995ADDAA101000095GA1085+013115999GD14991+0131159GE19AGL   +99999+99999GF199999999999013111999999MA1101965100325REMMET09301/03/23 19:53:01 METAR KPSP 040353Z 31004KT 10SM OVC043 14/08 A3011 RMK AO2 SLP199 T01440083
0248722868931382023010404537+33822-116504FM-15+0137KPSP V0203205N00315014025MN0160935N5+01445+00895102015ADDAA101000095GA1075+014025999GA2075+016765999GD13991+0140259GD23991+0167659GE19AGL   +99999+99999GF199999999999014021999999MA1102005100355REMMET10001/03/23 20:53:01 METAR KPSP 040453Z 32006KT 10SM BKN046 BKN055 14/09 A3012 RMK AO2 SLP201 T01440089
0268722868931382023010405537+33822-116504FM-15+0137KPSP V0202705N00155018295MN0160935N5+01445+00895102035ADDAA101000095GA1085+018295999GD14991+0182959GE19AGL   +99999+99999GF199999999999018291999999KA1060M+01611KA2060N+01391MA1102035100395MD1190099+9999REMMET11101/03/23 21:53:01 METAR KPSP 040553Z 27003KT 10SM OVC060 14/09 A3013 RMK AO2 SLP203 T01440089 10161 20139 51009
0210722868931382023010406537+33822-116504FM-15+0137KPSP V0209999C00005016765MN0160935N5+01445+00895102035ADDAA101000095GA1085+016765999GD14991+0167659GE19AGL   +99999+99999GF199999999999016761999999MA1102035100395REMMET09301/03/23 22:53:01 METAR KPSP 040653Z 00000KT 10SM OVC055 14/09 A3013 RMK AO2 SLP203 T01440089
0265722868931382023010407537+33822-116504FM-15+0137KPSP V0203305N001552200059N0160935N5+01395+00895102005ADDAA101000095GA1025+018295999GD11991+0182959GE19AGL   +99999+99999GF102995999999018291999999KA1240M+01781KA2240N+00721MA1102005100355REMMET10301/03/23 23:53:01 METAR KPSP 040753Z 33003KT 10SM FEW060 14/09 A3012 RMK AO2 SLP200 T01390089 401780072EQDD01      0ADE726
0813722868931382023010407596+33822-116504SOD  +0137KPSP V020999999999999999999999999999+99999+99999999999ADDAA124000095KA1240M+01785KA2240N+00725MG1100124101354OE11240067111099995OE22240058101099995OE33240021999999995REMSOD69224 HR PRECIPITATION (IN): 0.00 24 HR MAX TEMP (F): 6424 HR MIN TEMP (F): 45AVERAGE STATION PRESSURE:29.565 MINIMUM SEA LEVEL PRESSURE:29.93 TIME OF OCCURRENCE:0104 PEAK WIND SPEED (MPH): 15 PEAK WIND DIR (DEG):110 PEAK WIND TIME (LST):      FASTEST 2MIN SPEED (MPH): 13FASTEST 2MIN DIR (DEG): 10 FASTEST 2MIN TIME (LST):     AVERAGE WIND SPEED (MPH): 4.9 24 HR AVG TEMP (F): 55DEPART FROM NORMAL: -3  HEATING DEGREE DAYS: 10 COOLING DEGREE DAYS:  0 LATEST DAY MAX TEMP (0700-1900 LST):64  LATEST NIGHT MIN TEMP(1900-0800 LST):45 HOURLY INCREMENTAL PRECIPITATION VALUES (IN):.00 0.00 0.00 0.00 0.00 0.00 0.00 0.00 0.00 0.00 0.00 0.00 0.00 0.00 0.00 0.00 0.00 0.00 0.00 0.00 0.00 0.00 0.00 0.00
0205722868931382023010408537+33822-116504FM-15+0137KPSP V0209999C000052200059N0160935N5+01395+00895101975ADDAA101000095GA1005+999999999GD10991+9999999GF100991999999999999999999MA1101965100325MD1890059+9999REMMET09601/04/23 00:53:02 METAR KPSP 040853Z 00000KT 10SM CLR 14/09 A3011 RMK AO2 SLP197 T01390089 58005
0185722868931382023010409537+33822-116504FM-15+0137KPSP V0209999C000052200059N0160935N5+01335+00895101985ADDAA101000095GA1005+999999999GD10991+9999999GF100991999999999999999999MA1101965100325REMMET09001/04/23 01:53:02 METAR KPSP 040953Z 00000KT 10SM CLR 13/09 A3011 RMK AO2 SLP198 T01330089
0229722868931382023010410537+33822-116504FM-15+0137KPSP V0209999C000052200059N0160935N5+01335+00895101995ADDAA101000095GA1045+013115999GD12991+0131159GE19AGL   +99999+99999GF104995999999013111999999MA1102005100355REMMET09301/04/23 02:53:02 METAR KPSP 041053Z 00000KT 10SM SCT043 13/09 A3012 RMK AO2 SLP199 T01330089EQDD01      0ADE726
0268722868931382023010411537+33822-116504FM-15+0137KPSP V0209999C00005011895MN0160935N5+01285+00945102015ADDAA101000095GA1085+011895999GD14991+0118959GE19AGL   +99999+99999GF199999999999011891999999KA1060M+01441KA2060N+01281MA1102005100355MD1390039+9999REMMET11101/04/23 03:53:02 METAR KPSP 041153Z 00000KT 10SM OVC039 13/09 A3012 RMK AO2 SLP201 T01280094 10144 20128 53003
0185722868931382023010412537+33822-116504FM-15+0137KPSP V0202705N001552200059N0160935N5+01225+00895102005ADDAA101000095GA1005+999999999GD10991+9999999GF100991999999999999999999MA1102005100355REMMET09001/04/23 04:53:02 METAR KPSP 041253Z 27003KT 10SM CLR 12/09 A3012 RMK AO2 SLP200 T01220089
0234722868931382023010413537+33822-116504FM-15+0137KPSP V0209999C000052200059N0160935N5+01285+00895102065ADDAA101000095GA1025+013115999GD11991+0131159GE19AGL   +99999+99999GF102995999999013111999999MA1102075100425REMMET09801/04/23 05:53:02 METAR KPSP 041353Z 00000KT 10SM FEW043 13/09 A3014 RMK AO2 SLP206 T01280089 (DD)EQDD01      0ADE726
0235722868931382023010414537+33822-116504FM-15+0137KPSP V0209999C00005030485MN0160935N5+01175+00895102165ADDAA101000095GA1075+030485999GD13991+0304859GE19AGL   +99999+99999GF199999999999030481999999MA1102175100525MD1390159+9999REMMET10401/04/23 06:53:02 METAR KPSP 041453Z 00000KT 10SM BKN100 12/09 A3017 RMK AO2 SLP216 T01170089 53015 (DD)
0215722868931382023010415537+33822-116504FM-15+0137KPSP V0209999C00005013415MN0160935N5+01285+00895102225ADDAA101000095GA1085+013415999GD14991+0134159GE19AGL   +99999+99999GF199999999999013411999999MA1102205100555REMMET09801/04/23 07:53:02 METAR KPSP 041553Z 00000KT 10SM OVC044 13/09 A3018 RMK AO2 SLP222 T01280089 (DD)
0215722868931382023010416537+33822-116504FM-15+0137KPSP V0203005N00155013115MN0160935N5+01395+00945102285ADDAA101000095GA1085+013115999GD14991+0131159GE19AGL   +99999+99999GF199999999999013111999999MA1102275100625REMMET09801/04/23 08:53:02 METAR KPSP 041653Z 30003KT 10SM OVC043 14/09 A3020 RMK AO2 SLP228 T01390094 (DD)
0235722868931382023010417377+33822-116504FM-16+0137KPSP V0202805N00215012805MN0160935N5+01445+00895999999ADDGA1045+006715999GA2085+012805999GD12991+0067159GD24991+0128059GE19AGL   +99999+99999GF199999999999006711999999MA1102345100695REMMET09801/04/23 09:37:02 SPECI KPSP 041737Z 28004KT 10SM SCT022 OVC042 14/09 A3022 RMK AO2 T01440089 (GG)
0235722868931382023010417467+33822-116504FM-16+0137KPSP V0202905N00155006715MN0160935N5+01445+00895999999ADDGA1075+006715999GA2085+012805999GD13991+0067159GD24991+0128059GE19AGL   +99999+99999GF199999999999006711999999MA1102345100695REMMET09801/04/23 09:46:02 SPECI KPSP 041746Z 29003KT 10SM BKN022 OVC042 14/09 A3022 RMK AO2 T01440089 (GG)
0182722868931382023010417516+33822-116504FM-16+0137KPSP V0203005N00155012805MN0160935N5+01505+00905999999ADDGA1045+006715999GA2085+012805999GD12991+0067159GD24991+0128059MA1102345100695REMMET09301/04/23 09:51:02 SPECI KPSP 041751Z 30003KT 10SM SCT022 OVC042 15/09 A3022 RMK AO2 FIBI (GG)
0311722868931382023010417537+33822-116504FM-15+0137KPSP V0203105N00155012805MN0160935N5+01505+00895102335ADDAA101000095GA1045+006715999GA2085+012805999GD12991+0067159GD24991+0128059GE19AGL   +99999+99999GF199999999999006711999999KA1060M+01501KA2060N+01171MA1102345100695MD1190179+9999REMMET12301/04/23 09:53:02 METAR KPSP 041753Z 31003KT 10SM SCT022 OVC042 15/09 A3022 RMK AO2 SLP233 T01500089 10150 20117 51017 (GG)
0235722868931382023010418207+33822-116504FM-16+0137KPSP V0209999V00155006405MN0160935N5+01565+00895999999ADDGA1075+006405999GA2085+013415999GD13991+0064059GD24991+0134159GE19AGL   +99999+99999GF199999999999006401999999MA1102345100695REMMET09801/04/23 10:20:02 SPECI KPSP 041820Z VRB03KT 10SM BKN021 OVC044 16/09 A3022 RMK AO2 T01560089 (GG)
0253722868931382023010418537+33822-116504FM-15+0137KPSP V0201905N00155012805MN0160935N5+01565+00895102295ADDAA101000095GA1025+006715999GA2085+012805999GD11991+0067159GD24991+0128059GE19AGL   +99999+99999GF199999999999006711999999MA1102305100655REMMET10501/04/23 10:53:02 METAR KPSP 041853Z 19003KT 10SM FEW022 OVC042 16/09 A3021 RMK AO2 SLP229 T01560089 (GG)
0253722868931382023010419537+33822-116504FM-15+0137KPSP V0209999C00005015245MN0160935N5+01615+00945102215ADDAA101000095GA1045+012805999GA2085+015245999GD12991+0128059GD24991+0152459GE19AGL   +99999+99999GF199999999999012801999999MA1102205100555REMMET10501/04/23 11:53:02 METAR KPSP 041953Z 00000KT 10SM SCT042 OVC050 16/09 A3018 RMK AO2 SLP221 T01610094 (GG)
0273722868931382023010420537+33822-116504FM-15+0137KPSP V0209999C00005021345MN0160935N5+01615+00945102125ADDAA101000095GA1025+015245999GA2075+021345999GD11991+0152459GD23991+0213459GE19AGL   +99999+99999GF199999999999015241999999MA1102135100495MD1890219+9999REMMET11101/04/23 12:53:02 METAR KPSP 042053Z 00000KT 10SM FEW050 BKN070 16/09 A3016 RMK AO2 SLP212 T01610094 58021 (GG)
0273722868931382023010421337+33822-116504FM-16+0137KPSP V0200905N00265013415MN0160935N5+01725+00945999999ADDGA1045+008535999GA2075+013415999GA3085+019815999GD12991+0085359GD23991+0134159GD34991+0198159GE19AGL   +99999+99999GF199999999999008531999999MA1102075100425REMMET10501/04/23 13:33:02 SPECI KPSP 042133Z 09005KT 10SM SCT028 BKN044 OVC065 17/09 A3014 RMK AO2 T01720094 (GG)
0235722868931382023010421437+33822-116504FM-16+0137KPSP V0200805N00315008535MN0160935N5+01725+00945999999ADDGA1075+008535999GA2085+013415999GD13991+0085359GD24991+0134159GE19AGL   +99999+99999GF199999999999008531999999MA1102075100425REMMET09801/04/23 13:43:02 SPECI KPSP 042143Z 08006KT 10SM BKN028 OVC044 17/09 A3014 RMK AO2 T01720094 (GG)
0182722868931382023010421516+33822-116504FM-16+0137KPSP V0201205N00215009145MN0160935N5+01705+00905999999ADDGA1075+009145999GA2085+013415999GD13991+0091459GD24991+0134159MA1102075100425REMMET09301/04/23 13:51:02 SPECI KPSP 042151Z 12004KT 10SM BKN030 OVC044 17/09 A3014 RMK AO2 FIBI (GG)
0253722868931382023010421537+33822-116504FM-15+0137KPSP V0201005N00315009145MN0160935N5+01725+00945102055ADDAA101000095GA1075+009145999GA2085+013415999GD13991+0091459GD24991+0134159GE19AGL   +99999+99999GF199999999999009141999999MA1102075100425REMMET10501/04/23 13:53:02 METAR KPSP 042153Z 10006KT 10SM BKN030 OVC044 17/09 A3014 RMK AO2 SLP205 T01720094 (GG)
0235722868931382023010422017+33822-116504FM-16+0137KPSP V0200805N00155008535MN0160935N5+01725+00945999999ADDGA1075+008535999GA2085+013115999GD13991+0085359GD24991+0131159GE19AGL   +99999+99999GF199999999999008531999999MA1102075100425REMMET09801/04/23 14:01:02 SPECI KPSP 042201Z 08003KT 10SM BKN028 OVC043 17/09 A3014 RMK AO2 T01720094 (GG)
0235722868931382023010422117+33822-116504FM-16+0137KPSP V0200705N00155012805MN0160935N5+01725+00945999999ADDGA1025+008535999GA2085+012805999GD11991+0085359GD24991+0128059GE19AGL   +99999+99999GF199999999999008531999999MA1102035100395REMMET09801/04/23 14:11:02 SPECI KPSP 042211Z 07003KT 10SM FEW028 OVC042 17/09 A3013 RMK AO2 T01720094 (GG)
0253722868931382023010422537+33822-116504FM-15+0137KPSP V0209999C00005011895MN0160935N5+01725+00945102025ADDAA101000095GA1045+009145999GA2085+011895999GD12991+0091459GD24991+0118959GE19AGL   +99999+99999GF199999999999009141999999MA1102035100395REMMET10501/04/23 14:53:02 METAR KPSP 042253Z 00000KT 10SM SCT030 OVC039 17/09 A3013 RMK AO2 SLP202 T01720094 (GG)
0273722868931382023010423537+33822-116504FM-15+0137KPSP V0202605N00215012505MN0160935N5+01675+00895102025ADDAA101000095GA1075+012505999GD13991+0125059GE19AGL   +99999+99999GF199999999999012501999999KA1060M+01781KA2060N+01501MA1102035100395MD1590099+9999REMMET11601/04/23 15:53:02 METAR KPSP 042353Z 26004KT 10SM BKN041 17/09 A3013 RMK AO2 SLP202 T01670089 10178 20150 55009 (GG)
0229722868931382023010500537+33822-116504FM-15+0137KPSP V0209999C000052200059N0160935N5+01615+00895102015ADDAA101000095GA1025+022865999GD11991+0228659GE19AGL   +99999+99999GF102995999999022861999999MA1102005100355REMMET09301/04/23 16:53:01 METAR KPSP 050053Z 00000KT 10SM FEW075 16/09 A3012 RMK AO2 SLP201 T01610089EQDD01      0ADE726
0248722868931382023010501537+33822-116504FM-15+0137KPSP V0203605N00215016765MN0160935N5+01565+01005102035ADDAA101000095GA1025+014025999GA2075+016765999GD11991+0140259GD23991+0167659GE19AGL   +99999+99999GF199999999999014021999999MA1102035100395REMMET10001/04/23 17:53:01 METAR KPSP 050153Z 36004KT 10SM FEW046 BKN055 16/10 A3013 RMK AO2 SLP203 T01560100
0230722868931382023010502537+33822-116504FM-15+0137KPSP V0209999C00005016765MN0160935N5+01505+00945102045ADDAA101000095GA1075+016765999GD13991+0167659GE19AGL   +99999+99999GF199999999999016761999999MA1102035100395MD1390019+9999REMMET09901/04/23 18:53:01 METAR KPSP 050253Z 00000KT 10SM BKN055 15/09 A3013 RMK AO2 SLP204 T01500094 53001
0248722868931382023010503537+33822-116504FM-15+0137KPSP V0209999C00005027435MN0160935N5+01505+00945102065ADDAA101000095GA1045+015245999GA2075+027435999GD12991+0152459GD23991+0274359GE19AGL   +99999+99999GF199999999999015241999999MA1102075100425REMMET10001/04/23 19:53:01 METAR KPSP 050353Z 00000KT 10SM SCT050 BKN090 15/09 A3014 RMK AO2 SLP206 T01500094
0210722868931382023010504537+33822-116504FM-15+0137KPSP V0209999C00005024385MN0160935N5+01445+00945102015ADDAA101000095GA1075+024385999GD13991+0243859GE19AGL   +99999+99999GF199999999999024381999999MA1102005100355REMMET09301/04/23 20:53:02 METAR KPSP 050453Z 00000KT 10SM BKN080 14/09 A3012 RMK AO2 SLP201 T01440094
0287722868931382023010505537+33822-116504FM-15+0137KPSP V0203205N002652200059N0160935N5+01335+00945101995ADDAA101000095GA1025+022865999GD11991+0228659GE19AGL   +99999+99999GF102995999999022861999999KA1060M+01671KA2060N+01331MA1102005100355MD1890059+9999REMMET11101/04/23 21:53:02 METAR KPSP 050553Z 32005KT 10SM FEW075 13/09 A3012 RMK AO2 SLP199 T01330094 10167 20133 58005EQDD01      0ADE726
0229722868931382023010506537+33822-116504FM-15+0137KPSP V0203305N003652200059N0160935N5+01285+00895101975ADDAA101000095GA1025+021345999GD11991+0213459GE19AGL   +99999+99999GF102995999999021341999999MA1101965100325REMMET09301/04/23 22:53:02 METAR KPSP 050653Z 33007KT 10SM FEW070 13/09 A3011 RMK AO2 SLP197 T01280089EQDD01      0ADE726
0221722868931382023010507537+33822-116504FM-15+0137KPSP V0203005N001552200059N0160935N5+01225+00835101925ADDAA101000095GA1005+999999999GD10991+9999999GF100991999999999999999999KA1240M+01781KA2240N+01171MA1101935100295REMMET10001/04/23 23:53:02 METAR KPSP 050753Z 30003KT 10SM CLR 12/08 A3010 RMK AO2 SLP192 T01220083 401780117
0813722868931382023010507596+33822-116504SOD  +0137KPSP V020999999999999999999999999999+99999+99999999999ADDAA124000095KA1240M+01785KA2240N+01175MG1100424101934OE11240044733099995OE22240040233099995OE33240009499999995REMSOD69224 HR PRECIPITATION (IN): 0.00 24 HR MAX TEMP (F): 6424 HR MIN TEMP (F): 53AVERAGE STATION PRESSURE:29.655 MINIMUM SEA LEVEL PRESSURE:30.10 TIME OF OCCURRENCE:2359 PEAK WIND SPEED (MPH): 10 PEAK WIND DIR (DEG):330 PEAK WIND TIME (LST):      FASTEST 2MIN SPEED (MPH):  9FASTEST 2MIN DIR (DEG):330 FASTEST 2MIN TIME (LST):     AVERAGE WIND SPEED (MPH): 2.1 24 HR AVG TEMP (F): 59DEPART FROM NORMAL:  1  HEATING DEGREE DAYS:  6 COOLING DEGREE DAYS:  0 LATEST DAY MAX TEMP (0700-1900 LST):64  LATEST NIGHT MIN TEMP(1900-0800 LST):53 HOURLY INCREMENTAL PRECIPITATION VALUES (IN):.00 0.00 0.00 0.00 0.00 0.00 0.00 0.00 0.00 0.00 0.00 0.00 0.00 0.00 0.00 0.00 0.00 0.00 0.00 0.00 0.00 0.00 0.00 0.00
0249722868931382023010508537+33822-116504FM-15+0137KPSP V0203205N002652200059N0160935N5+01225+00785101905ADDAA101000095GA1025+021345999GD11991+0213459GE19AGL   +99999+99999GF102995999999021341999999MA1101905100255MD1890099+9999REMMET09901/05/23 00:53:02 METAR KPSP 050853Z 32005KT 10SM FEW070 12/08 A3009 RMK AO2 SLP190 T01220078 58009EQDD01      0ADE726
0229722868931382023010509537+33822-116504FM-15+0137KPSP V0202805N001552200059N0160935N5+01285+00725101915ADDAA101000095GA1045+022865999GD12991+0228659GE19AGL   +99999+99999GF104995999999022861999999MA1101905100255REMMET09301/05/23 01:53:02 METAR KPSP 050953Z 28003KT 10SM SCT075 13/07 A3009 RMK AO2 SLP191 T01280072EQDD01      0ADE726
0210722868931382023010510537+33822-116504FM-15+0137KPSP V0203305N00265024385MN0160935N5+01115+00725101945ADDAA101000095GA1075+024385999GD13991+0243859GE19AGL   +99999+99999GF199999999999024381999999MA1101935100295REMMET09301/05/23 02:53:02 METAR KPSP 051053Z 33005KT 10SM BKN080 11/07 A3010 RMK AO2 SLP194 T01110072
0243722868931382023010511537+33822-116504FM-15+0137KPSP V0202405N001552200059N0160935N5+01115+00785101925ADDAA101000095GA1005+999999999GD10991+9999999GF100991999999999999999999KA1060M+01331KA2060N+01061MA1101935100295MD1090029+9999REMMET10801/05/23 03:53:02 METAR KPSP 051153Z 24003KT 10SM CLR 11/08 A3010 RMK AO2 SLP192 T01110078 10133 20106 50002
0286722868931382023010512537+33822-116504FM-15+0137KPSP V0201605N00155027435MN0160935N5+01335+00785101725ADDAA101000095GA1025+021345999GA2075+027435999GA3075+033535999GD11991+0213459GD23991+0274359GD33991+0335359GE19AGL   +99999+99999GF199999999999021341999999MA1101735100095REMMET10701/05/23 04:53:02 METAR KPSP 051253Z 16003KT 10SM FEW070 BKN090 BKN110 13/08 A3004 RMK AO2 SLP172 T01330078
0215722868931382023010513537+33822-116504FM-15+0137KPSP V0203005N00215021345MN0160935N5+01225+00835101765ADDAA101000095GA1085+021345999GD14991+0213459GE19AGL   +99999+99999GF199999999999021341999999MA1101765100125REMMET09801/05/23 05:53:02 METAR KPSP 051353Z 30004KT 10SM OVC070 12/08 A3005 RMK AO2 SLP176 T01220083 (DD)
0348722868931382023010514537+33822-116504FM-15+0137KPSP V0209999C00005018295MN0160935N5+01285+00895101795ADDAA101000025AA203000021AU110020015AW1615GA1025+010975999GA2085+018295999GD11991+0109759GD24991+0182959GE19AGL   +99999+99999GF199999999999010971999999MA1101795100155MD1590139+9999MW1615REMMET13301/05/23 06:53:02 METAR KPSP 051453Z 00000KT 10SM -RA FEW036 OVC060 13/09 A3006 RMK AO2 RAB50 SLP179 P0000 60000 T01280089 55013 (DD)EQDQ01  00008PRCP03
0295722868931382023010515537+33822-116504FM-15+0137KPSP V0202705N00155018295MN0160935N5+01335+00945101845ADDAA101000025AU110020015AW1615GA1025+010065999GA2085+018295999GD11991+0100659GD24991+0182959GE19AGL   +99999+99999GF199999999999010061999999MA1101835100195MW1615REMMET12401/05/23 07:53:02 METAR KPSP 051553Z 27003KT 10SM -RA FEW033 OVC060 13/09 A3007 RMK AO2 RAE05B45 SLP184 P0000 T01330094 (DD)
0229722868931382023010516537+33822-116504FM-15+0137KPSP V0209999C00005016765MN0160935N5+01395+01005101855ADDAA101000095GA1085+016765999GD14991+0167659GE19AGL   +99999+99999GF199999999999016761999999MA1101865100225REMMET11201/05/23 08:53:02 METAR KPSP 051653Z 00000KT 10SM OVC055 14/10 A3008 RMK AO2 RAE1555 SLP185 P0000 T01390100 (DD)
0328722868931382023010517537+33822-116504FM-15+0137KPSP V0209999V00265015245MN0160935N5+01505+01065101895ADDAA101000095AA206000021GA1025+009755999GA2085+015245999GD11991+0097559GD24991+0152459GE19AGL   +99999+99999GF199999999999009751999999KA1060M+01501KA2060N+01111MA1101905100255MD1190099+9999REMMET12901/05/23 09:53:02 METAR KPSP 051753Z VRB05KT 10SM FEW032 OVC050 15/11 A3009 RMK AO2 SLP189 60000 T01500106 10150 20111 51009 (DD)
0258722868931382023010518516+33822-116504FM-16+0137KPSP V0203205N00265014635MN0112655N5+01505+01005999999ADDAU110020015AW1615GA1025+006405999GA2075+014635999GA3085+021345999GD11991+0064059GD23991+0146359GD34991+0213459MA1101865100225MW1615REMMET11501/05/23 10:51:02 SPECI KPSP 051851Z 32005KT 7SM -RA FEW021 BKN048 OVC070 15/10 A3008 RMK AO2 RAB42 P0000 FIBI (DD)
0329722868931382023010518537+33822-116504FM-15+0137KPSP V0203105N00315014635MN0112655N5+01505+01065101865ADDAA101000025AU110020015AW1615GA1025+006405999GA2075+014635999GA3085+021345999GD11991+0064059GD23991+0146359GD34991+0213459GE19AGL   +99999+99999GF199999999999006401999999MA1101865100225MW1615REMMET12701/05/23 10:53:02 METAR KPSP 051853Z 31006KT 7SM -RA FEW021 BKN048 OVC070 15/11 A3008 RMK AO2 RAB42 SLP186 P0000 T01500106 (DD)
0285722868931382023010519157+33822-116504FM-16+0137KPSP V0203105N00215005795MN0144845N5+01445+01115999999ADDAA101000231AU110020015AW1615GA1075+005795999GA2085+010065999GD13991+0057959GD24991+0100659GE19AGL   +99999+99999GF199999999999005791999999MA1101765100125MW1615REMMET11401/05/23 11:15:02 SPECI KPSP 051915Z 31004KT 9SM -RA BKN019 OVC033 14/11 A3005 RMK AO2 PRESFR P0001 T01440111 (DD)
0285722868931382023010519537+33822-116504FM-15+0137KPSP V0203005N00315007325MN0080475N5+01395+01065101755ADDAA101000895AU110020015AW1615GA1025+003965999GA2085+007325999GD11991+0039659GD24991+0073259GE19AGL   +99999+99999GF199999999999003961999999MA1101765100125MW1615REMMET11401/05/23 11:53:02 METAR KPSP 051953Z 30006KT 5SM -RA FEW013 OVC024 14/11 A3005 RMK AO2 SLP175 P0001 T01390106 (DD)
0288722868931382023010520517+33822-116504FM-16+0137KPSP V0203005N00265009755MN0080475N5+01405+01205999999ADDAA101001231AU110020015AU200001015AW1105AW2615GA1045+007325999GA2085+009755999GD12991+0073259GD24991+0097559GE19AGL   +99999+99999GF199999999999007321999999MA1101695100055MW1615REMMET10001/05/23 12:51:02 SPECI KPSP 052051Z 30005KT 5SM -RA BR SCT024 OVC032 14/12 A3003 RMK AO2 P0005 (DD)
0361722868931382023010520537+33822-116504FM-15+0137KPSP V0202905N00215009755MN0096565N5+01395+01175101675ADDAA101000895AA203001591AU110020015AU200001015AW1105AW2615GA1025+007325999GA2085+009755999GD11991+0073259GD24991+0097559GE19AGL   +99999+99999GF199999999999007321999999MA1101665100025MD1690199+9999MW1615REMMET12901/05/23 12:53:02 METAR KPSP 052053Z 29004KT 6SM -RA BR FEW024 OVC032 14/12 A3002 RMK AO2 SLP167 P0005 60006 T01390117 56019 (DD)EQDQ01  00158PRCP03
0303722868931382023010521537+33822-116504FM-15+0137KPSP V0203205N00465013115MN0160935N5+01445+01175101715ADDAA101000595GA1025+008535999GA2075+013115999GA3085+016765999GD11991+0085359GD23991+0131159GD34991+0167659GE19AGL   +99999+99999GF199999999999008531999999MA1101695100055REMMET12401/05/23 13:53:02 METAR KPSP 052153Z 32009KT 10SM FEW028 BKN043 OVC055 14/12 A3003 RMK AO2 RAE47 SLP171 P0002 T01440117 (DD)
0286722868931382023010522537+33822-116504FM-15+0137KPSP V0202205N00215018295MN0160935N5+01505+01115101705ADDAA101000095GA1025+013415999GA2075+018295999GA3085+024385999GD11991+0134159GD23991+0182959GD34991+0243859GE19AGL   +99999+99999GF199999999999013411999999MA1101695100055REMMET10701/05/23 14:53:02 METAR KPSP 052253Z 22004KT 10SM FEW044 BKN060 OVC080 15/11 A3003 RMK AO2 SLP170 T01500111
0309722868931382023010523537+33822-116504FM-15+0137KPSP V0202605N003152200059N0160935N5+01505+01065101695ADDAA101000095AA206002091GA1045+021345999GD12991+0213459GE19AGL   +99999+99999GF104995999999021341999999KA1060M+01561KA2060N+01331MA1101695100055MD1090019+9999REMMET12201/05/23 15:53:02 METAR KPSP 052353Z 26006KT 10SM SCT070 15/11 A3003 RMK AO2 SLP169 60008 T01500106 10156 20133 50001 (GG)EQDD01      0ADE726
0229722868931382023010600537+33822-116504FM-15+0137KPSP V0203505N004152200059N0160935N5+01505+01065101685ADDAA101000095GA1045+024385999GD12991+0243859GE19AGL   +99999+99999GF104995999999024381999999MA1101695100055REMMET09301/05/23 16:53:01 METAR KPSP 060053Z 35008KT 10SM SCT080 15/11 A3003 RMK AO2 SLP168 T01500106EQDD01      0ADE726
0185722868931382023010601537+33822-116504FM-15+0137KPSP V0201605N002652200059N0160935N5+01335+01005101795ADDAA101000095GA1005+999999999GD10991+9999999GF100991999999999999999999MA1101795100155REMMET09001/05/23 17:53:01 METAR KPSP 060153Z 16005KT 10SM CLR 13/10 A3006 RMK AO2 SLP179 T01330100
0205722868931382023010602537+33822-116504FM-15+0137KPSP V0201005N004652200059N0160935N5+01335+00945101795ADDAA101000095GA1005+999999999GD10991+9999999GF100991999999999999999999MA1101795100155MD1390109+9999REMMET09601/05/23 18:53:01 METAR KPSP 060253Z 10009KT 10SM CLR 13/09 A3006 RMK AO2 SLP179 T01330094 53010
0185722868931382023010603537+33822-116504FM-15+0137KPSP V0201005N002152200059N0160935N5+01445+00675101795ADDAA101000095GA1005+999999999GD10991+9999999GF100991999999999999999999MA1101795100155REMMET09001/05/23 19:53:02 METAR KPSP 060353Z 10004KT 10SM CLR 14/07 A3006 RMK AO2 SLP179 T01440067
0167722868931382023010604107+33822-116504FM-16+0137KPSP V0201005N004152200059N0160935N5+01505+00615999999ADDGA1005+999999999GD10991+9999999GF100991999999999999999999MA1101795100155REMMET08301/05/23 20:10:02 SPECI KPSP 060410Z 10008KT 10SM CLR 15/06 A3006 RMK AO2 T01500061
0185722868931382023010604537+33822-116504FM-15+0137KPSP V0209999C000052200059N0160935N5+01335+00675101805ADDAA101000095GA1005+999999999GD10991+9999999GF100991999999999999999999MA1101795100155REMMET09001/05/23 20:53:02 METAR KPSP 060453Z 00000KT 10SM CLR 13/07 A3006 RMK AO2 SLP180 T01330067
0243722868931382023010605537+33822-116504FM-15+0137KPSP V0209999C000052200059N0160935N5+01225+00615101845ADDAA101000095GA1005+999999999GD10991+9999999GF100991999999999999999999KA1060M+01501KA2060N+01221MA1101835100195MD1390059+9999REMMET10801/05/23 21:53:02 METAR KPSP 060553Z 00000KT 10SM CLR 12/06 A3007 RMK AO2 SLP184 T01220061 10150 20122 53005
0185722868931382023010606537+33822-116504FM-15+0137KPSP V0209999C000052200059N0160935N5+01175+00615101935ADDAA101000095GA1005+999999999GD10991+9999999GF100991999999999999999999MA1101935100295REMMET09001/05/23 22:53:02 METAR KPSP 060653Z 00000KT 10SM CLR 12/06 A3010 RMK AO2 SLP193 T01170061
0221722868931382023010607537+33822-116504FM-15+0137KPSP V0201405N001552200059N0160935N5+01115+00565101985ADDAA101000095GA1005+999999999GD10991+9999999GF100991999999999999999999KA1240M+01561KA2240N+01061MA1101965100325REMMET10001/05/23 23:53:02 METAR KPSP 060753Z 14003KT 10SM CLR 11/06 A3011 RMK AO2 SLP198 T01110056 401560106
0863722868931382023010607596+33822-116504SOD  +0137KPSP V020999999999999999999999999999+99999+99999999999ADDAA124002095AT1AU16RA  5AT2AU13BR  5AX1015245KA1240M+01565KA2240N+01065MG1100174101664OE11240084908099995OE22240067109099995OE33240022499999995REMSOD70924 HR PRECIPITATION (IN): 0.08 WEATHER(CODE):1  24 HR MAX TEMP (F): 6024 HR MIN TEMP (F): 51AVERAGE STATION PRESSURE:29.580 MINIMUM SEA LEVEL PRESSURE:30.02 TIME OF OCCURRENCE:1639 PEAK WIND SPEED (MPH): 19 PEAK WIND DIR (DEG): 80 PEAK WIND TIME (LST):      FASTEST 2MIN SPEED (MPH): 15FASTEST 2MIN DIR (DEG): 90 FASTEST 2MIN TIME (LST):     AVERAGE WIND SPEED (MPH): 5.0 24 HR AVG TEMP (F): 56DEPART FROM NORMAL: -2  HEATING DEGREE DAYS:  9 COOLING DEGREE DAYS:  0 LATEST DAY MAX TEMP (0700-1900 LST):60  LATEST NIGHT MIN TEMP(1900-0800 LST):51 HOURLY INCREMENTAL PRECIPITATION VALUES (IN):.00 0.00 0.00 0.00 0.00 0.00 T    T    0.00 0.00 T    0.03 0.03 0.02 0.00 0.00 0.00 0.00 0.00 0.00 0.00 0.00 0.00 0.00
0205722868931382023010608537+33822-116504FM-15+0137KPSP V0203505N001552200059N0160935N5+01065+00565102025ADDAA101000095GA1005+999999999GD10991+9999999GF100991999999999999999999MA1102005100355MD1190169+9999REMMET09601/06/23 00:53:02 METAR KPSP 060853Z 35003KT 10SM CLR 11/06 A3012 RMK AO2 SLP202 T01060056 51016
0185722868931382023010609537+33822-116504FM-15+0137KPSP V0209999C000052200059N0160935N5+01065+00565102065ADDAA101000095GA1005+999999999GD10991+9999999GF100991999999999999999999MA1102075100425REMMET09001/06/23 01:53:02 METAR KPSP 060953Z 00000KT 10SM CLR 11/06 A3014 RMK AO2 SLP206 T01060056
0185722868931382023010610537+33822-116504FM-15+0137KPSP V0209999C000052200059N0160935N5+01005+00505102105ADDAA101000095GA1005+999999999GD10991+9999999GF100991999999999999999999MA1102105100455REMMET09001/06/23 02:53:02 METAR KPSP 061053Z 00000KT 10SM CLR 10/05 A3015 RMK AO2 SLP210 T01000050
0260722868931382023010611537+33822-116504FM-15+0137KPSP V0202905N001552200059N0160935N5+01115+00445102115ADDAA101000095AA224002091GA1005+999999999GD10991+9999999GF100991999999999999999999KA1060M+01331KA2060N+00941MA1102105100455MD1190109+9999REMMET11401/06/23 03:53:02 METAR KPSP 061153Z 29003KT 10SM CLR 11/04 A3015 RMK AO2 SLP211 70008 T01110044 10133 20094 51010
0185722868931382023010612537+33822-116504FM-15+0137KPSP V0209999C000052200059N0160935N5+01005+00395102125ADDAA101000095GA1005+999999999GD10991+9999999GF100991999999999999999999MA1102105100455REMMET09001/06/23 04:53:02 METAR KPSP 061253Z 00000KT 10SM CLR 10/04 A3015 RMK AO2 SLP212 T01000039
0190722868931382023010613537+33822-116504FM-15+0137KPSP V0202005N002652200059N0160935N5+00725+00395102185ADDAA101000095GA1005+999999999GD10991+9999999GF100991999999999999999999MA1102175100525REMMET09501/06/23 05:53:02 METAR KPSP 061353Z 20005KT 10SM CLR 07/04 A3017 RMK AO2 SLP218 T00720039 (CP)
0210722868931382023010614537+33822-116504FM-15+0137KPSP V0209999C000052200059N0160935N5+00835+00335102295ADDAA101000095GA1005+999999999GD10991+9999999GF100991999999999999999999MA1102275100625MD1390169+9999REMMET10101/06/23 06:53:02 METAR KPSP 061453Z 00000KT 10SM CLR 08/03 A3020 RMK AO2 SLP229 T00830033 53016 (CP)
0190722868931382023010615537+33822-116504FM-15+0137KPSP V0209999C000052200059N0160935N5+01005+00335102365ADDAA101000095GA1005+999999999GD10991+9999999GF100991999999999999999999MA1102345100695REMMET09501/06/23 07:53:02 METAR KPSP 061553Z 00000KT 10SM CLR 10/03 A3022 RMK AO2 SLP236 T01000033 (CP)
0190722868931382023010616537+33822-116504FM-15+0137KPSP V0202505N002152200059N0160935N5+01225+00395102435ADDAA101000095GA1005+999999999GD10991+9999999GF100991999999999999999999MA1102405100755REMMET09501/06/23 08:53:02 METAR KPSP 061653Z 25004KT 10SM CLR 12/04 A3024 RMK AO2 SLP243 T01220039 (CP)
0248722868931382023010617537+33822-116504FM-15+0137KPSP V0209999C000052200059N0160935N5+01505+00505102465ADDAA101000095GA1005+999999999GD10991+9999999GF100991999999999999999999KA1060M+01501KA2060N+00671MA1102475100825MD1190189+9999REMMET11301/06/23 09:53:02 METAR KPSP 061753Z 00000KT 10SM CLR 15/05 A3026 RMK AO2 SLP246 T01500050 10150 20067 51018 (CP)
0190722868931382023010618537+33822-116504FM-15+0137KPSP V0209999C000052200059N0160935N5+01725+00565102445ADDAA101000095GA1005+999999999GD10991+9999999GF100991999999999999999999MA1102445100795REMMET09501/06/23 10:53:02 METAR KPSP 061853Z 00000KT 10SM CLR 17/06 A3025 RMK AO2 SLP244 T01720056 (KS)
0190722868931382023010619537+33822-116504FM-15+0137KPSP V0209999C000052200059N0160935N5+01785+00395102355ADDAA101000095GA1005+999999999GD10991+9999999GF100991999999999999999999MA1102345100695REMMET09501/06/23 11:53:02 METAR KPSP 061953Z 00000KT 10SM CLR 18/04 A3022 RMK AO2 SLP235 T01780039 (KS)
0210722868931382023010620537+33822-116504FM-15+0137KPSP V0201305N002652200059N0160935N5+01945+00335102275ADDAA101000095GA1005+999999999GD10991+9999999GF100991999999999999999999MA1102275100625MD1890199+9999REMMET10101/06/23 12:53:02 METAR KPSP 062053Z 13005KT 10SM CLR 19/03 A3020 RMK AO2 SLP227 T01940033 58019 (KS)
0191722868931382023010621537+33822-116504FM-15+0137KPSP V0202105N001552200059N0160935N5+02005-00065102235ADDAA101000095GA1005+999999999GD10991+9999999GF100991999999999999999999MA1102245100595REMMET09601/06/23 13:53:02 METAR KPSP 062153Z 21003KT 10SM CLR 20/M01 A3019 RMK AO2 SLP223 T02001006 (KS)
0191722868931382023010622537+33822-116504FM-15+0137KPSP V0201605N002152200059N0160935N5+02065-00115102215ADDAA101000095GA1005+999999999GD10991+9999999GF100991999999999999999999MA1102205100555REMMET09601/06/23 14:53:02 METAR KPSP 062253Z 16004KT 10SM CLR 21/M01 A3018 RMK AO2 SLP221 T02061011 (KS)
0249722868931382023010623537+33822-116504FM-15+0137KPSP V0209999C000052200059N0160935N5+02005-00065102255ADDAA101000095GA1005+999999999GD10991+9999999GF100991999999999999999999KA1060M+02061KA2060N+01501MA1102245100595MD1590029+9999REMMET11401/06/23 15:53:02 METAR KPSP 062353Z 00000KT 10SM CLR 20/M01 A3019 RMK AO2 SLP225 T02001006 10206 20150 55002 (KS)
0185722868931382023010700537+33822-116504FM-15+0137KPSP V0202605N002152200059N0160935N5+01725+00225102305ADDAA101000095GA1005+999999999GD10991+9999999GF100991999999999999999999MA1102305100655REMMET09001/06/23 16:53:01 METAR KPSP 070053Z 26004KT 10SM CLR 17/02 A3021 RMK AO2 SLP230 T01720022
0185722868931382023010701537+33822-116504FM-15+0137KPSP V0202405N003152200059N0160935N5+01615+00285102345ADDAA101000095GA1005+999999999GD10991+9999999GF100991999999999999999999MA1102345100695REMMET09001/06/23 17:53:01 METAR KPSP 070153Z 24006KT 10SM CLR 16/03 A3022 RMK AO2 SLP234 T01610028
0205722868931382023010702537+33822-116504FM-15+0137KPSP V0202905N002652200059N0160935N5+01565+00175102375ADDAA101000095GA1005+999999999GD10991+9999999GF100991999999999999999999MA1102345100695MD1190109+9999REMMET09601/06/23 18:53:01 METAR KPSP 070253Z 29005KT 10SM CLR 16/02 A3022 RMK AO2 SLP237 T01560017 51010
0185722868931382023010703537+33822-116504FM-15+0137KPSP V0203005N003152200059N0160935N5+01445+00175102385ADDAA101000095GA1005+999999999GD10991+9999999GF100991999999999999999999MA1102375100725REMMET09001/06/23 19:53:02 METAR KPSP 070353Z 30006KT 10SM CLR 14/02 A3023 RMK AO2 SLP238 T01440017
0185722868931382023010704537+33822-116504FM-15+0137KPSP V0202905N002152200059N0160935N5+01395+00175102395ADDAA101000095GA1005+999999999GD10991+9999999GF100991999999999999999999MA1102375100725REMMET09001/06/23 20:53:02 METAR KPSP 070453Z 29004KT 10SM CLR 14/02 A3023 RMK AO2 SLP239 T01390017
0243722868931382023010705537+33822-116504FM-15+0137KPSP V0202705N003152200059N0160935N5+01335+00115102375ADDAA101000095GA1005+999999999GD10991+9999999GF100991999999999999999999KA1060M+02061KA2060N+01221MA1102375100725MD1090029+9999REMMET10801/06/23 21:53:02 METAR KPSP 070553Z 27006KT 10SM CLR 13/01 A3023 RMK AO2 SLP237 T01330011 10206 20122 50002
0185722868931382023010706537+33822-116504FM-15+0137KPSP V0202505N002652200059N0160935N5+01285+00065102355ADDAA101000095GA1005+999999999GD10991+9999999GF100991999999999999999999MA1102345100695REMMET09001/06/23 22:53:02 METAR KPSP 070653Z 25005KT 10SM CLR 13/01 A3022 RMK AO2 SLP235 T01280006
0221722868931382023010707537+33822-116504FM-15+0137KPSP V0203205N003152200059N0160935N5+01065+00285102345ADDAA101000095GA1005+999999999GD10991+9999999GF100991999999999999999999KA1240M+02061KA2240N+00671MA1102345100695REMMET10001/06/23 23:53:02 METAR KPSP 070753Z 32006KT 10SM CLR 11/03 A3022 RMK AO2 SLP234 T01060028 402060067
0813722868931382023010707596+33822-116504SOD  +0137KPSP V020999999999999999999999999999+99999+99999999999ADDAA124000095KA1240M+02065KA2240N+00675MG1100634101964OE11240044723099995OE22240035832099995OE33240014899999995REMSOD69224 HR PRECIPITATION (IN): 0.00 24 HR MAX TEMP (F): 6924 HR MIN TEMP (F): 44AVERAGE STATION PRESSURE:29.715 MINIMUM SEA LEVEL PRESSURE:30.11 TIME OF OCCURRENCE:0028 PEAK WIND SPEED (MPH): 10 PEAK WIND DIR (DEG):230 PEAK WIND TIME (LST):      FASTEST 2MIN SPEED (MPH):  8FASTEST 2MIN DIR (DEG):320 FASTEST 2MIN TIME (LST):     AVERAGE WIND SPEED (MPH): 3.3 24 HR AVG TEMP (F): 57DEPART FROM NORMAL: -1  HEATING DEGREE DAYS:  8 COOLING DEGREE DAYS:  0 LATEST DAY MAX TEMP (0700-1900 LST):69  LATEST NIGHT MIN TEMP(1900-0800 LST):44 HOURLY INCREMENTAL PRECIPITATION VALUES (IN):.00 0.00 0.00 0.00 0.00 0.00 0.00 0.00 0.00 0.00 0.00 0.00 0.00 0.00 0.00 0.00 0.00 0.00 0.00 0.00 0.00 0.00 0.00 0.00
0205722868931382023010708537+33822-116504FM-15+0137KPSP V0203205N002652200059N0160935N5+00945+00285102325ADDAA101000095GA1005+999999999GD10991+9999999GF100991999999999999999999MA1102305100655MD1890069+9999REMMET09601/07/23 00:53:02 METAR KPSP 070853Z 32005KT 10SM CLR 09/03 A3021 RMK AO2 SLP232 T00940028 58006
0185722868931382023010709537+33822-116504FM-15+0137KPSP V0203105N003152200059N0160935N5+01005+00175102335ADDAA101000095GA1005+999999999GD10991+9999999GF100991999999999999999999MA1102345100695REMMET09001/07/23 01:53:02 METAR KPSP 070953Z 31006KT 10SM CLR 10/02 A3022 RMK AO2 SLP233 T01000017
0185722868931382023010710537+33822-116504FM-15+0137KPSP V0203005N003152200059N0160935N5+01065+00115102315ADDAA101000095GA1005+999999999GD10991+9999999GF100991999999999999999999MA1102305100655REMMET09001/07/23 02:53:02 METAR KPSP 071053Z 30006KT 10SM CLR 11/01 A3021 RMK AO2 SLP231 T01060011
0243722868931382023010711537+33822-116504FM-15+0137KPSP V0203305N003152200059N0160935N5+00835+00175102285ADDAA101000095GA1005+999999999GD10991+9999999GF100991999999999999999999KA1060M+01331KA2060N+00781MA1102275100625MD1890049+9999REMMET10801/07/23 03:53:02 METAR KPSP 071153Z 33006KT 10SM CLR 08/02 A3020 RMK AO2 SLP228 T00830017 10133 20078 58004
0185722868931382023010712537+33822-116504FM-15+0137KPSP V0203405N003652200059N0160935N5+00785+00175102275ADDAA101000095GA1005+999999999GD10991+9999999GF100991999999999999999999MA1102275100625REMMET09001/07/23 04:53:02 METAR KPSP 071253Z 34007KT 10SM CLR 08/02 A3020 RMK AO2 SLP227 T00780017
0190722868931382023010713537+33822-116504FM-15+0137KPSP V0203305N003652200059N0160935N5+00675+00225102295ADDAA101000095GA1005+999999999GD10991+9999999GF100991999999999999999999MA1102275100625REMMET09501/07/23 05:53:02 METAR KPSP 071353Z 33007KT 10SM CLR 07/02 A3020 RMK AO2 SLP229 T00670022 (LO)
0210722868931382023010714537+33822-116504FM-15+0137KPSP V0203305N003152200059N0160935N5+00895+00175102325ADDAA101000095GA1005+999999999GD10991+9999999GF100991999999999999999999MA1102305100655MD1390039+9999REMMET10101/07/23 06:53:02 METAR KPSP 071453Z 33006KT 10SM CLR 09/02 A3021 RMK AO2 SLP232 T00890017 53003 (LO)
0190722868931382023010715537+33822-116504FM-15+0137KPSP V0203505N002152200059N0160935N5+00945+00285102385ADDAA101000095GA1005+999999999GD10991+9999999GF100991999999999999999999MA1102375100725REMMET09501/07/23 07:53:02 METAR KPSP 071553Z 35004KT 10SM CLR 09/03 A3023 RMK AO2 SLP238 T00940028 (LO)
0190722868931382023010716537+33822-116504FM-15+0137KPSP V0203405N002652200059N0160935N5+01115+00395102425ADDAA101000095GA1005+999999999GD10991+9999999GF100991999999999999999999MA1102405100755REMMET09501/07/23 08:53:02 METAR KPSP 071653Z 34005KT 10SM CLR 11/04 A3024 RMK AO2 SLP242 T01110039 (LO)
0248722868931382023010717537+33822-116504FM-15+0137KPSP V0203405N002152200059N0160935N5+01565+00225102415ADDAA101000095GA1005+999999999GD10991+9999999GF100991999999999999999999KA1060M+01561KA2060N+00671MA1102405100755MD1190109+9999REMMET11301/07/23 09:53:02 METAR KPSP 071753Z 34004KT 10SM CLR 16/02 A3024 RMK AO2 SLP241 T01560022 10156 20067 51010 (LO)
0190722868931382023010718537+33822-116504FM-15+0137KPSP V0209999C000052200059N0160935N5+01785+00115102395ADDAA101000095GA1005+999999999GD10991+9999999GF100991999999999999999999MA1102375100725REMMET09501/07/23 10:53:02 METAR KPSP 071853Z 00000KT 10SM CLR 18/01 A3023 RMK AO2 SLP239 T01780011 (LO)
0191722868931382023010719537+33822-116504FM-15+0137KPSP V0209999C000052200059N0160935N5+01895-00065102285ADDAA101000095GA1005+999999999GD10991+9999999GF100991999999999999999999MA1102275100625REMMET09601/07/23 11:53:02 METAR KPSP 071953Z 00000KT 10SM CLR 19/M01 A3020 RMK AO2 SLP228 T01891006 (LO)
0210722868931382023010720537+33822-116504FM-15+0137KPSP V0209999C000052200059N0160935N5+01895+00005102205ADDAA101000095GA1005+999999999GD10991+9999999GF100991999999999999999999MA1102205100555MD1890219+9999REMMET10101/07/23 12:53:02 METAR KPSP 072053Z 00000KT 10SM CLR 19/00 A3018 RMK AO2 SLP220 T01890000 58021 (KS)
0191722868931382023010721537+33822-116504FM-15+0137KPSP V0209999V002152200059N0160935N5+02065-00115102145ADDAA101000095GA1005+999999999GD10991+9999999GF100991999999999999999999MA1102135100495REMMET09601/07/23 13:53:02 METAR KPSP 072153Z VRB04KT 10SM CLR 21/M01 A3016 RMK AO2 SLP214 T02061011 (KS)
0191722868931382023010722537+33822-116504FM-15+0137KPSP V0209999C000052200059N0160935N5+02005-00175102125ADDAA101000095GA1005+999999999GD10991+9999999GF100991999999999999999999MA1102135100495REMMET09601/07/23 14:53:02 METAR KPSP 072253Z 00000KT 10SM CLR 20/M02 A3016 RMK AO2 SLP212 T02001017 (KS)
0249722868931382023010723537+33822-116504FM-15+0137KPSP V0201005N001552200059N0160935N5+01945-00115102125ADDAA101000095GA1005+999999999GD10991+9999999GF100991999999999999999999KA1060M+02061KA2060N+01561MA1102105100455MD1690089+9999REMMET11401/07/23 15:53:02 METAR KPSP 072353Z 10003KT 10SM CLR 19/M01 A3015 RMK AO2 SLP212 T01941011 10206 20156 56008 (KS)
0185722868931382023010800537+33822-116504FM-15+0137KPSP V0200305N001552200059N0160935N5+01835+00115102135ADDAA101000095GA1005+999999999GD10991+9999999GF100991999999999999999999MA1102135100495REMMET09001/07/23 16:53:01 METAR KPSP 080053Z 03003KT 10SM CLR 18/01 A3016 RMK AO2 SLP213 T01830011
0185722868931382023010801537+33822-116504FM-15+0137KPSP V0202605N001552200059N0160935N5+01675+00225102155ADDAA101000095GA1005+999999999GD10991+9999999GF100991999999999999999999MA1102135100495REMMET09001/07/23 17:53:01 METAR KPSP 080153Z 26003KT 10SM CLR 17/02 A3016 RMK AO2 SLP215 T01670022
0205722868931382023010802537+33822-116504FM-15+0137KPSP V0203405N002652200059N0160935N5+01505+00565102185ADDAA101000095GA1005+999999999GD10991+9999999GF100991999999999999999999MA1102175100525MD1390059+9999REMMET09601/07/23 18:53:01 METAR KPSP 080253Z 34005KT 10SM CLR 15/06 A3017 RMK AO2 SLP218 T01500056 53005
0185722868931382023010803537+33822-116504FM-15+0137KPSP V0203105N002652200059N0160935N5+01505+00395102195ADDAA101000095GA1005+999999999GD10991+9999999GF100991999999999999999999MA1102175100525REMMET09001/07/23 19:53:02 METAR KPSP 080353Z 31005KT 10SM CLR 15/04 A3017 RMK AO2 SLP219 T01500039
0185722868931382023010804537+33822-116504FM-15+0137KPSP V0203305N002152200059N0160935N5+01335+00615102225ADDAA101000095GA1005+999999999GD10991+9999999GF100991999999999999999999MA1102205100555REMMET09001/07/23 20:53:02 METAR KPSP 080453Z 33004KT 10SM CLR 13/06 A3018 RMK AO2 SLP222 T01330061
0243722868931382023010805537+33822-116504FM-15+0137KPSP V0203305N002652200059N0160935N5+01335+00445102255ADDAA101000095GA1005+999999999GD10991+9999999GF100991999999999999999999KA1060M+01941KA2060N+01281MA1102245100595MD1390089+9999REMMET10801/07/23 21:53:02 METAR KPSP 080553Z 33005KT 10SM CLR 13/04 A3019 RMK AO2 SLP225 T01330044 10194 20128 53008
0229722868931382023010806537+33822-116504FM-15+0137KPSP V0209999C000052200059N0160935N5+01395+00395102235ADDAA101000095GA1025+036585999GD11991+0365859GE19AGL   +99999+99999GF102995999999036581999999MA1102245100595REMMET09301/07/23 22:53:02 METAR KPSP 080653Z 00000KT 10SM FEW120 14/04 A3019 RMK AO2 SLP223 T01390039EQDD01      0ADE726
0221722868931382023010807537+33822-116504FM-15+0137KPSP V0209999C000052200059N0160935N5+01335+00445102235ADDAA101000095GA1005+999999999GD10991+9999999GF100991999999999999999999KA1240M+02061KA2240N+00671MA1102245100595REMMET10001/07/23 23:53:02 METAR KPSP 080753Z 00000KT 10SM CLR 13/04 A3019 RMK AO2 SLP223 T01330044 402060067
0813722868931382023010807596+33822-116504SOD  +0137KPSP V020999999999999999999999999999+99999+99999999999ADDAA124000095KA1240M+02065KA2240N+00675MG1100594102104OE11240058131099995OE22240040232099995OE33240018899999995REMSOD69224 HR PRECIPITATION (IN): 0.00 24 HR MAX TEMP (F): 6924 HR MIN TEMP (F): 44AVERAGE STATION PRESSURE:29.705 MINIMUM SEA LEVEL PRESSURE:30.15 TIME OF OCCURRENCE:1611 PEAK WIND SPEED (MPH): 13 PEAK WIND DIR (DEG):310 PEAK WIND TIME (LST):      FASTEST 2MIN SPEED (MPH):  9FASTEST 2MIN DIR (DEG):320 FASTEST 2MIN TIME (LST):     AVERAGE WIND SPEED (MPH): 4.2 24 HR AVG TEMP (F): 57DEPART FROM NORMAL: -1  HEATING DEGREE DAYS:  8 COOLING DEGREE DAYS:  0 LATEST DAY MAX TEMP (0700-1900 LST):69  LATEST NIGHT MIN TEMP(1900-0800 LST):44 HOURLY INCREMENTAL PRECIPITATION VALUES (IN):.00 0.00 0.00 0.00 0.00 0.00 0.00 0.00 0.00 0.00 0.00 0.00 0.00 0.00 0.00 0.00 0.00 0.00 0.00 0.00 0.00 0.00 0.00 0.00
0205722868931382023010808537+33822-116504FM-15+0137KPSP V0203405N002652200059N0160935N5+01225+00505102215ADDAA101000095GA1005+999999999GD10991+9999999GF100991999999999999999999MA1102205100555MD1690059+9999REMMET09601/08/23 00:53:02 METAR KPSP 080853Z 34005KT 10SM CLR 12/05 A3018 RMK AO2 SLP221 T01220050 56005
0185722868931382023010809537+33822-116504FM-15+0137KPSP V0203205N002652200059N0160935N5+01225+00285102205ADDAA101000095GA1005+999999999GD10991+9999999GF100991999999999999999999MA1102205100555REMMET09001/08/23 01:53:02 METAR KPSP 080953Z 32005KT 10SM CLR 12/03 A3018 RMK AO2 SLP220 T01220028
0185722868931382023010810537+33822-116504FM-15+0137KPSP V0203205N003152200059N0160935N5+01175+00285102105ADDAA101000095GA1005+999999999GD10991+9999999GF100991999999999999999999MA1102105100455REMMET09001/08/23 02:53:02 METAR KPSP 081053Z 32006KT 10SM CLR 12/03 A3015 RMK AO2 SLP210 T01170028
0243722868931382023010811537+33822-116504FM-15+0137KPSP V0203405N002652200059N0160935N5+01175+00285102055ADDAA101000095GA1005+999999999GD10991+9999999GF100991999999999999999999KA1060M+01441KA2060N+01111MA1102075100425MD1890159+9999REMMET10801/08/23 03:53:02 METAR KPSP 081153Z 34005KT 10SM CLR 12/03 A3014 RMK AO2 SLP205 T01170028 10144 20111 58015
0185722868931382023010812537+33822-116504FM-15+0137KPSP V0203005N002152200059N0160935N5+01065+00285102065ADDAA101000095GA1005+999999999GD10991+9999999GF100991999999999999999999MA1102075100425REMMET09001/08/23 04:53:02 METAR KPSP 081253Z 30004KT 10SM CLR 11/03 A3014 RMK AO2 SLP206 T01060028
0190722868931382023010813537+33822-116504FM-15+0137KPSP V0209999C000052200059N0160935N5+01115+00225102095ADDAA101000095GA1005+999999999GD10991+9999999GF100991999999999999999999MA1102105100455REMMET09501/08/23 05:53:02 METAR KPSP 081353Z 00000KT 10SM CLR 11/02 A3015 RMK AO2 SLP209 T01110022 (TF)
0210722868931382023010814537+33822-116504FM-15+0137KPSP V0203305N003152200059N0160935N5+00945+00335102165ADDAA101000095GA1005+999999999GD10991+9999999GF100991999999999999999999MA1102135100495MD1390099+9999REMMET10101/08/23 06:53:02 METAR KPSP 081453Z 33006KT 10SM CLR 09/03 A3016 RMK AO2 SLP216 T00940033 53009 (TF)
0190722868931382023010815537+33822-116504FM-15+0137KPSP V0203505N003152200059N0160935N5+01005+00285102215ADDAA101000095GA1005+999999999GD10991+9999999GF100991999999999999999999MA1102205100555REMMET09501/08/23 07:53:02 METAR KPSP 081553Z 35006KT 10SM CLR 10/03 A3018 RMK AO2 SLP221 T01000028 (TF)
0190722868931382023010816537+33822-116504FM-15+0137KPSP V0201905N001552200059N0160935N5+01225+00335102265ADDAA101000095GA1005+999999999GD10991+9999999GF100991999999999999999999MA1102245100595REMMET09501/08/23 08:53:02 METAR KPSP 081653Z 19003KT 10SM CLR 12/03 A3019 RMK AO2 SLP226 T01220033 (TF)
0248722868931382023010817537+33822-116504FM-15+0137KPSP V0209999C000052200059N0160935N5+01505+00445102305ADDAA101000095GA1005+999999999GD10991+9999999GF100991999999999999999999KA1060M+01501KA2060N+00891MA1102305100655MD1190159+9999REMMET11301/08/23 09:53:02 METAR KPSP 081753Z 00000KT 10SM CLR 15/04 A3021 RMK AO2 SLP230 T01500044 10150 20089 51015 (TF)
0190722868931382023010818537+33822-116504FM-15+0137KPSP V0200205N001552200059N0160935N5+01785+00225102265ADDAA101000095GA1005+999999999GD10991+9999999GF100991999999999999999999MA1102275100625REMMET09501/08/23 10:53:02 METAR KPSP 081853Z 02003KT 10SM CLR 18/02 A3020 RMK AO2 SLP226 T01780022 (TF)
0190722868931382023010819537+33822-116504FM-15+0137KPSP V0209999C000052200059N0160935N5+01895+00115102105ADDAA101000095GA1005+999999999GD10991+9999999GF100991999999999999999999MA1102105100455REMMET09501/08/23 11:53:02 METAR KPSP 081953Z 00000KT 10SM CLR 19/01 A3015 RMK AO2 SLP210 T01890011 (TF)
0210722868931382023010820537+33822-116504FM-15+0137KPSP V0200605N002152200059N0160935N5+02065+00115102025ADDAA101000095GA1005+999999999GD10991+9999999GF100991999999999999999999MA1102035100395MD1890279+9999REMMET10101/08/23 12:53:02 METAR KPSP 082053Z 06004KT 10SM CLR 21/01 A3013 RMK AO2 SLP202 T02060011 58027 (TF)
0190722868931382023010821537+33822-116504FM-15+0137KPSP V0201505N002652200059N0160935N5+02065+00065101985ADDAA101000095GA1005+999999999GD10991+9999999GF100991999999999999999999MA1102005100355REMMET09501/08/23 13:53:02 METAR KPSP 082153Z 15005KT 10SM CLR 21/01 A3012 RMK AO2 SLP198 T02060006 (TF)
0185722868931382023010822537+33822-116504FM-15+0137KPSP V0201605N002152200059N0160935N5+02115+00005101945ADDAA101000095GA1005+999999999GD10991+9999999GF100991999999999999999999MA1101965100325REMMET09001/08/23 14:53:02 METAR KPSP 082253Z 16004KT 10SM CLR 21/00 A3011 RMK AO2 SLP194 T02110000
0248722868931382023010823537+33822-116504FM-15+0137KPSP V0209999C000052200059N0160935N5+02115+00005101935ADDAA101000095GA1005+999999999GD10991+9999999GF100991999999999999999999KA1060M+02111KA2060N+01501MA1101935100295MD1690089+9999REMMET11301/08/23 15:53:02 METAR KPSP 082353Z 00000KT 10SM CLR 21/00 A3010 RMK AO2 SLP193 T02110000 10211 20150 56008 (WM)
0185722868931382023010900537+33822-116504FM-15+0137KPSP V0201805N002152200059N0160935N5+01895+00115101955ADDAA101000095GA1005+999999999GD10991+9999999GF100991999999999999999999MA1101965100325REMMET09001/08/23 16:53:01 METAR KPSP 090053Z 18004KT 10SM CLR 19/01 A3011 RMK AO2 SLP195 T01890011
0185722868931382023010901537+33822-116504FM-15+0137KPSP V0202505N001552200059N0160935N5+01725+00285101985ADDAA101000095GA1005+999999999GD10991+9999999GF100991999999999999999999MA1101965100325REMMET09001/08/23 17:53:01 METAR KPSP 090153Z 25003KT 10SM CLR 17/03 A3011 RMK AO2 SLP198 T01720028
0205722868931382023010902537+33822-116504FM-15+0137KPSP V0203405N002152200059N0160935N5+01615+00395102075ADDAA101000095GA1005+999999999GD10991+9999999GF100991999999999999999999MA1102075100425MD1390119+9999REMMET09601/08/23 18:53:01 METAR KPSP 090253Z 34004KT 10SM CLR 16/04 A3014 RMK AO2 SLP207 T01610039 53011
0185722868931382023010903537+33822-116504FM-15+0137KPSP V0203205N002152200059N0160935N5+01445+00565102115ADDAA101000095GA1005+999999999GD10991+9999999GF100991999999999999999999MA1102105100455REMMET09001/08/23 19:53:01 METAR KPSP 090353Z 32004KT 10SM CLR 14/06 A3015 RMK AO2 SLP211 T01440056
0185722868931382023010904537+33822-116504FM-15+0137KPSP V0209999C000052200059N0160935N5+01395+00505102085ADDAA101000095GA1005+999999999GD10991+9999999GF100991999999999999999999MA1102075100425REMMET09001/08/23 20:53:02 METAR KPSP 090453Z 00000KT 10SM CLR 14/05 A3014 RMK AO2 SLP208 T01390050
0243722868931382023010905537+33822-116504FM-15+0137KPSP V0203205N002652200059N0160935N5+01285+00565102115ADDAA101000095GA1005+999999999GD10991+9999999GF100991999999999999999999KA1060M+02111KA2060N+01221MA1102105100455MD1190059+9999REMMET10801/08/23 21:53:02 METAR KPSP 090553Z 32005KT 10SM CLR 13/06 A3015 RMK AO2 SLP211 T01280056 10211 20122 51005
0185722868931382023010906537+33822-116504FM-15+0137KPSP V0203305N002152200059N0160935N5+01285+00505102115ADDAA101000095GA1005+999999999GD10991+9999999GF100991999999999999999999MA1102105100455REMMET09001/08/23 22:53:02 METAR KPSP 090653Z 33004KT 10SM CLR 13/05 A3015 RMK AO2 SLP211 T01280050
0221722868931382023010907537+33822-116504FM-15+0137KPSP V0202905N001552200059N0160935N5+01225+00505102085ADDAA101000095GA1005+999999999GD10991+9999999GF100991999999999999999999KA1240M+02111KA2240N+00891MA1102075100425REMMET10001/08/23 23:53:02 METAR KPSP 090753Z 29003KT 10SM CLR 12/05 A3014 RMK AO2 SLP208 T01220050 402110089
0813722868931382023010907596+33822-116504SOD  +0137KPSP V020999999999999999999999999999+99999+99999999999ADDAA124000095KA1240M+02115KA2240N+00895MG1100444101934OE11240053633099995OE22240053633099995OE33240017999999995REMSOD69224 HR PRECIPITATION (IN): 0.00 24 HR MAX TEMP (F): 7024 HR MIN TEMP (F): 48AVERAGE STATION PRESSURE:29.660 MINIMUM SEA LEVEL PRESSURE:30.10 TIME OF OCCURRENCE:1730 PEAK WIND SPEED (MPH): 12 PEAK WIND DIR (DEG):330 PEAK WIND TIME (LST):      FASTEST 2MIN SPEED (MPH): 12FASTEST 2MIN DIR (DEG):330 FASTEST 2MIN TIME (LST):     AVERAGE WIND SPEED (MPH): 4.0 24 HR AVG TEMP (F): 59DEPART FROM NORMAL:  1  HEATING DEGREE DAYS:  6 COOLING DEGREE DAYS:  0 LATEST DAY MAX TEMP (0700-1900 LST):70  LATEST NIGHT MIN TEMP(1900-0800 LST):48 HOURLY INCREMENTAL PRECIPITATION VALUES (IN):.00 0.00 0.00 0.00 0.00 0.00 0.00 0.00 0.00 0.00 0.00 0.00 0.00 0.00 0.00 0.00 0.00 0.00 0.00 0.00 0.00 0.00 0.00 0.00
0205722868931382023010908537+33822-116504FM-15+0137KPSP V0209999C000052200059N0160935N5+01175+00445102035ADDAA101000095GA1005+999999999GD10991+9999999GF100991999999999999999999MA1102035100395MD1890089+9999REMMET09601/09/23 00:53:02 METAR KPSP 090853Z 00000KT 10SM CLR 12/04 A3013 RMK AO2 SLP203 T01170044 58008
0185722868931382023010909537+33822-116504FM-15+0137KPSP V0203505N002152200059N0160935N5+01175+00505102045ADDAA101000095GA1005+999999999GD10991+9999999GF100991999999999999999999MA1102035100395REMMET09001/09/23 01:53:02 METAR KPSP 090953Z 35004KT 10SM CLR 12/05 A3013 RMK AO2 SLP204 T01170050
0185722868931382023010910537+33822-116504FM-15+0137KPSP V0203405N002652200059N0160935N5+01225+00445101995ADDAA101000095GA1005+999999999GD10991+9999999GF100991999999999999999999MA1102005100355REMMET09001/09/23 02:53:02 METAR KPSP 091053Z 34005KT 10SM CLR 12/04 A3012 RMK AO2 SLP199 T01220044
0243722868931382023010911537+33822-116504FM-15+0137KPSP V0209999C000052200059N0160935N5+01115+00445101975ADDAA101000095GA1005+999999999GD10991+9999999GF100991999999999999999999KA1060M+01331KA2060N+01061MA1101965100325MD1890069+9999REMMET10801/09/23 03:53:02 METAR KPSP 091153Z 00000KT 10SM CLR 11/04 A3011 RMK AO2 SLP197 T01110044 10133 20106 58006
0185722868931382023010912537+33822-116504FM-15+0137KPSP V0209999C000052200059N0160935N5+01005+00505102005ADDAA101000095GA1005+999999999GD10991+9999999GF100991999999999999999999MA1102005100355REMMET09001/09/23 04:53:02 METAR KPSP 091253Z 00000KT 10SM CLR 10/05 A3012 RMK AO2 SLP200 T01000050
0190722868931382023010913537+33822-116504FM-15+0137KPSP V0203405N003152200059N0160935N5+01005+00505102045ADDAA101000095GA1005+999999999GD10991+9999999GF100991999999999999999999MA1102035100395REMMET09501/09/23 05:53:02 METAR KPSP 091353Z 34006KT 10SM CLR 10/05 A3013 RMK AO2 SLP204 T01000050 (DD)
0254722868931382023010914537+33822-116504FM-15+0137KPSP V0203505N002152200059N0160935N5+01115+00395102085ADDAA101000095GA1045+027435999GD12991+0274359GE19AGL   +99999+99999GF104995999999027431999999MA1102075100425MD1390119+9999REMMET10401/09/23 06:53:02 METAR KPSP 091453Z 35004KT 10SM SCT090 11/04 A3014 RMK AO2 SLP208 T01110039 53011 (DD)EQDD01      0ADE726
0234722868931382023010915537+33822-116504FM-15+0137KPSP V0202605N001552200059N0160935N5+01225+00395102125ADDAA101000095GA1045+021345999GD12991+0213459GE19AGL   +99999+99999GF104995999999021341999999MA1102105100455REMMET09801/09/23 07:53:02 METAR KPSP 091553Z 26003KT 10SM SCT070 12/04 A3015 RMK AO2 SLP212 T01220039 (DD)EQDD01      0ADE726
0267722868931382023010916537+33822-116504FM-15+0137KPSP V0209999C000052200059N0160935N5+01285+00505102215ADDAA101000095GA1025+022865999GA2045+027435999GD11991+0228659GD22991+0274359GE19AGL   +99999+99999GF104995999999022861999999MA1102205100555REMMET10001/09/23 08:53:02 METAR KPSP 091653Z 00000KT 10SM FEW075 SCT090 13/05 A3018 RMK AO2 SLP221 T01280050EQDD01      0ADE726
0287722868931382023010917537+33822-116504FM-15+0137KPSP V0209999V001552200059N0160935N5+01395+00395102275ADDAA101000095GA1025+027435999GD11991+0274359GE19AGL   +99999+99999GF102995999999027431999999KA1060M+01391KA2060N+01001MA1102275100625MD1390189+9999REMMET11101/09/23 09:53:02 METAR KPSP 091753Z VRB03KT 10SM FEW090 14/04 A3020 RMK AO2 SLP227 T01390039 10139 20100 53018EQDD01      0ADE726
0210722868931382023010918537+33822-116504FM-15+0137KPSP V0209999V00215030485MN0160935N5+01505+00335102205ADDAA101000095GA1085+030485999GD14991+0304859GE19AGL   +99999+99999GF199999999999030481999999MA1102205100555REMMET09301/09/23 10:53:02 METAR KPSP 091853Z VRB04KT 10SM OVC100 15/03 A3018 RMK AO2 SLP220 T01500033
0210722868931382023010919537+33822-116504FM-15+0137KPSP V0209999V00155027435MN0160935N5+01505+00285102075ADDAA101000095GA1085+027435999GD14991+0274359GE19AGL   +99999+99999GF199999999999027431999999MA1102075100425REMMET09301/09/23 11:53:02 METAR KPSP 091953Z VRB03KT 10SM OVC090 15/03 A3014 RMK AO2 SLP207 T01500028
0230722868931382023010920537+33822-116504FM-15+0137KPSP V0201805N00215027435MN0160935N5+01615+00395101975ADDAA101000095GA1075+027435999GD13991+0274359GE19AGL   +99999+99999GF199999999999027431999999MA1101965100325MD1890309+9999REMMET09901/09/23 12:53:02 METAR KPSP 092053Z 18004KT 10SM BKN090 16/04 A3011 RMK AO2 SLP197 T01610039 58030
0248722868931382023010921537+33822-116504FM-15+0137KPSP V0201805N00215024385MN0160935N5+01565+00565101915ADDAA101000095GA1075+024385999GA2085+027435999GD13991+0243859GD24991+0274359GE19AGL   +99999+99999GF199999999999024381999999MA1101905100255REMMET10001/09/23 13:53:02 METAR KPSP 092153Z 18004KT 10SM BKN080 OVC090 16/06 A3009 RMK AO2 SLP191 T01560056
0210722868931382023010922537+33822-116504FM-15+0137KPSP V0209999V00155025915MN0160935N5+01675+00565101885ADDAA101000095GA1085+025915999GD14991+0259159GE19AGL   +99999+99999GF199999999999025911999999MA1101865100225REMMET09301/09/23 14:53:02 METAR KPSP 092253Z VRB03KT 10SM OVC085 17/06 A3008 RMK AO2 SLP188 T01670056
0268722868931382023010923537+33822-116504FM-15+0137KPSP V0209999C00005024385MN0160935N5+01675+00445101895ADDAA101000095GA1085+024385999GD14991+0243859GE19AGL   +99999+99999GF199999999999024381999999KA1060M+01671KA2060N+01441MA1101905100255MD1590089+9999REMMET11101/09/23 15:53:02 METAR KPSP 092353Z 00000KT 10SM OVC080 17/04 A3009 RMK AO2 SLP189 T01670044 10167 20144 55008
0210722868931382023011000537+33822-116504FM-15+0137KPSP V0201705N00155024385MN0160935N5+01615+00445101845ADDAA101000095GA1085+024385999GD14991+0243859GE19AGL   +99999+99999GF199999999999024381999999MA1101835100195REMMET09301/09/23 16:53:01 METAR KPSP 100053Z 17003KT 10SM OVC080 16/04 A3007 RMK AO2 SLP184 T01610044
0210722868931382023011001537+33822-116504FM-15+0137KPSP V0202405N00155022865MN0160935N5+01505+00565101875ADDAA101000095GA1085+022865999GD14991+0228659GE19AGL   +99999+99999GF199999999999022861999999MA1101865100225REMMET09301/09/23 17:53:01 METAR KPSP 100153Z 24003KT 10SM OVC075 15/06 A3008 RMK AO2 SLP187 T01500056
0230722868931382023011002537+33822-116504FM-15+0137KPSP V0202405N00155021345MN0160935N5+01505+00565101855ADDAA101000095GA1085+021345999GD14991+0213459GE19AGL   +99999+99999GF199999999999021341999999MA1101865100225MD1690049+9999REMMET09901/09/23 18:53:01 METAR KPSP 100253Z 24003KT 10SM OVC070 15/06 A3008 RMK AO2 SLP185 T01500056 56004
0210722868931382023011003537+33822-116504FM-15+0137KPSP V0201305N00155019815MN0160935N5+01505+00505101875ADDAA101000095GA1085+019815999GD14991+0198159GE19AGL   +99999+99999GF199999999999019811999999MA1101865100225REMMET09301/09/23 19:53:01 METAR KPSP 100353Z 13003KT 10SM OVC065 15/05 A3008 RMK AO2 SLP187 T01500050
0210722868931382023011004537+33822-116504FM-15+0137KPSP V0209999C00005019815MN0160935N5+01445+00505101865ADDAA101000095GA1085+019815999GD14991+0198159GE19AGL   +99999+99999GF199999999999019811999999MA1101865100225REMMET09301/09/23 20:53:01 METAR KPSP 100453Z 00000KT 10SM OVC065 14/05 A3008 RMK AO2 SLP186 T01440050
0268722868931382023011005537+33822-116504FM-15+0137KPSP V0202405N00215021345MN0160935N5+01395+00505101855ADDAA101000095GA1085+021345999GD14991+0213459GE19AGL   +99999+99999GF199999999999021341999999KA1060M+01671KA2060N+01391MA1101865100225MD1090009+9999REMMET11101/09/23 21:53:01 METAR KPSP 100553Z 24004KT 10SM OVC070 14/05 A3008 RMK AO2 SLP185 T01390050 10167 20139 50000
0210722868931382023011006537+33822-116504FM-15+0137KPSP V0202105N00265022865MN0160935N5+01335+00505101765ADDAA101000095GA1085+022865999GD14991+0228659GE19AGL   +99999+99999GF199999999999022861999999MA1101765100125REMMET09301/09/23 22:53:01 METAR KPSP 100653Z 21005KT 10SM OVC075 13/05 A3005 RMK AO2 SLP176 T01330050
0246722868931382023011007537+33822-116504FM-15+0137KPSP V0202305N00215021345MN0160935N5+01445+00505101735ADDAA101000095GA1085+021345999GD14991+0213459GE19AGL   +99999+99999GF199999999999021341999999KA1240M+01671KA2240N+01001MA1101735100095REMMET10301/09/23 23:53:01 METAR KPSP 100753Z 23004KT 10SM OVC070 14/05 A3004 RMK AO2 SLP173 T01440050 401670100
0817722868931382023011007596+33822-116504SOD  +0137KPSP V020999999999999999999999999999+99999+99999999999ADDAA124000095KA1240M+01675KA2240N+01005MG1100324101734OE11240049226099995OE22240040225099995OE33240012599999995REMSOD69624 HR PRECIPITATION (IN): 0.00 24 HR MAX TEMP (F): 6224 HR MIN TEMP (F): 50AVERAGE STATION PRESSURE(D):29.626 MINIMUM SEA LEVEL PRESSURE:30.04 TIME OF OCCURRENCE:2359 PEAK WIND SPEED (MPH): 11 PEAK WIND DIR (DEG):260 PEAK WIND TIME (LST):      FASTEST 2MIN SPEED (MPH):  9FASTEST 2MIN DIR (DEG):250 FASTEST 2MIN TIME (LST):     AVERAGE WIND SPEED (MPH): 2.8 24 HR AVG TEMP (F): 56DEPART FROM NORMAL: -3  HEATING DEGREE DAYS:  9 COOLING DEGREE DAYS:  0 LATEST DAY MAX TEMP (0700-1900 LST): 62 LATEST NIGHT MIN TEMP(1900-0800 LST):50 HOURLY INCREMENTAL PRECIPITATION VALUES (IN):0.00 0.00 0.00 0.00 0.00 0.00 0.00 0.00 0.00 0.00 0.00 0.00 0.00 0.00 0.00 0.00 0.00 0.00 0.00 0.00 0.00 0.00 0.00 0.00
0230722868931382023011008537+33822-116504FM-15+0137KPSP V0209999C00005021345MN0160935N5+01335+00615101765ADDAA101000095GA1085+021345999GD14991+0213459GE19AGL   +99999+99999GF199999999999021341999999MA1101765100125MD1590099+9999REMMET09901/10/23 00:53:02 METAR KPSP 100853Z 00000KT 10SM OVC070 13/06 A3005 RMK AO2 SLP176 T01330061 55009
0210722868931382023011009537+33822-116504FM-15+0137KPSP V0209999C00005018295MN0160935N5+01395+00615101785ADDAA101000095GA1085+018295999GD14991+0182959GE19AGL   +99999+99999GF199999999999018291999999MA1101795100155REMMET09301/10/23 01:53:02 METAR KPSP 100953Z 00000KT 10SM OVC060 14/06 A3006 RMK AO2 SLP178 T01390061
0248722868931382023011010537+33822-116504FM-15+0137KPSP V0209999C00005018295MN0160935N5+01285+00615101735ADDAA101000095GA1075+018295999GA2085+021345999GD13991+0182959GD24991+0213459GE19AGL   +99999+99999GF199999999999018291999999MA1101735100095REMMET10001/10/23 02:53:02 METAR KPSP 101053Z 00000KT 10SM BKN060 OVC070 13/06 A3004 RMK AO2 SLP173 T01280061
