0190722868931382022010100537+33822-116504FM-15+0137KPSP V0202005N001552200059N0160935N5+01615+00785100105ADDAA101000095GA1005+999999999GD10991+9999999GF100991999999999999999999MA1100105098485REMMET09512/31/21 16:53:03 METAR KPSP 010053Z 20003KT 10SM CLR 16/08 A2956 RMK AO2 SLP010 T01610078 (CP)
0190722868931382022010101537+33822-116504FM-15+0137KPSP V0203505N001552200059N0160935N5+01675+00675100175ADDAA101000095GA1005+999999999GD10991+9999999GF100991999999999999999999MA1100175098555REMMET09512/31/21 17:53:03 METAR KPSP 010153Z 35003KT 10SM CLR 17/07 A2958 RMK AO2 SLP017 T01670067 (CP)
0210722868931382022010102537+33822-116504FM-15+0137KPSP V0209999C000052200059N0160935N5+01505+00725100245ADDAA101000095GA1005+999999999GD10991+9999999GF100991999999999999999999MA1100245098625MD1390129+9999REMMET10112/31/21 18:53:03 METAR KPSP 010253Z 00000KT 10SM CLR 15/07 A2960 RMK AO2 SLP024 T01500072 53012 (CP)
0190722868931382022010103537+33822-116504FM-15+0137KPSP V0201905N002152200059N0160935N5+01445+00445100275ADDAA101000095GA1005+999999999GD10991+9999999GF100991999999999999999999MA1100275098655REMMET09512/31/21 19:53:03 METAR KPSP 010353Z 19004KT 10SM CLR 14/04 A2961 RMK AO2 SLP027 T01440044 (AG)
0190722868931382022010104537+33822-116504FM-15+0137KPSP V0209999N999992200059N0160935N5+01565+00175100385ADDAA101000095GA1005+999999999GD10991+9999999GF100991999999999999999999MA1100375098755REMMET09512/31/21 20:53:03 METAR KPSP 010453Z      KT 10SM CLR 16/02 A2964 RMK AO2 SLP038 T01560017 (AG)
0172722868931382022010104567+33822-116504FM-16+0137KPSP V0203205N007752200059N0160935N5+01505+00175999999ADDGA1005+999999999GD10991+9999999GF100991999999999999999999MA1100415098785REMMET08812/31/21 20:56:03 SPECI KPSP 010456Z 32015KT 10SM CLR 15/02 A2965 RMK AO2 T01500017 (AG)
0280722868931382022010105537+33822-116504FM-15+0137KPSP V0202105N002652200059N0160935N5+01565+00175100585ADDAA101000095GA1005+999999999GD10991+9999999GF100991999999999999999999KA1060M+01781KA2060N+01391MA1100585098955MD1390359+9999OD149902211320REMMET13112/31/21 21:53:03 METAR KPSP 010553Z 21005KT 10SM CLR 16/02 A2970 RMK AO2 PK WND 32043/0523 SLP058 T01560017 10178 20139 53035 (AG)
0192722868931382022010106537+33822-116504FM-15+0137KPSP V0209999N999992200059N0160935N5+01565+00115100775ADDAA101000095GA1005+999999999GD10991+9999999GF100991999999999999999999MA1100785099155REMMET09712/31/21 22:53:03 METAR KPSP 010653Z      KT 10SM CLR 16/01 A2976 RMK AO2 PRESRR SLP077 T01560011
0232722868931382022010107537+33822-116504FM-15+0137KPSP V0203205N007752200059N0160935N5+01565+00005100855ADDAA101000095GA1005+999999999GD10991+9999999GF100991999999999999999999KA1240M+01941KA2240N+00831MA1100855099225OC100985REMMET10312/31/21 23:53:03 METAR KPSP 010753Z 32015G19KT 10SM CLR 16/00 A2978 RMK AO2 SLP085 T01560000 401940083
0825722868931382022010107596+33822-116504SOD  +0137KPSP V020999999999999999999999999999+99999+99999999999ADDAA124000025AT1AU16RA  5KA1240M+01945KA2240N+00835MG1098904100104OE11240107336099995OE22240089434099995OE33240018899999995REMSOD69224 HR PRECIPITATION (IN):    T 24 HR MAX TEMP (F): 6724 HR MIN TEMP (F): 47AVERAGE STATION PRESSURE:29.205 MINIMUM SEA LEVEL PRESSURE:29.56 TIME OF OCCURRENCE:1720 PEAK WIND SPEED (MPH): 24 PEAK WIND DIR (DEG):360 PEAK WIND TIME (LST):      FASTEST 2MIN SPEED (MPH): 20FASTEST 2MIN DIR (DEG):340 FASTEST 2MIN TIME (LST):     AVERAGE WIND SPEED (MPH): 4.2 24 HR AVG TEMP (F): 57DEPART FROM NORMAL: -1  HEATING DEGREE DAYS:  8 COOLING DEGREE DAYS:  0 LATEST DAY MAX TEMP (0700-1900 LST):67  LATEST NIGHT MIN TEMP(1900-0800 LST):47 HOURLY INCREMENTAL PRECIPITATION VALUES (IN):.00 0.00 T    T    0.00 0.00 0.00 0.00 0.00 0.00 0.00 0.00 0.00 0.00 0.00 0.00 0.00 0.00 0.00 0.00 0.00 0.00 0.00 0.00
1308722868931382022010107596+33822-116504SOM  +0137KPSP V020999999999999999999999999999+99999+99999999999ADDAB10032896AD10025492324999999996AE1026026015005AH1005000892408495AH2010001392408495AH3015002092408455AH4020002592408495AH5030003392408535AH6045003692409005AI1060003892409135AI2080004892409005AI3100005392409135AI4120005392409406AI5150006992323585AI6180008492400045KB1744N+08835KB2744M+20835KB3744A+14835KC1N9+00271699995KC2M9+03270199995KD1744H02215KD2744C00345KE1005015005005MH1099974101634MK1102571109245100103117205REMSOM796PCP MTOT:1.29 PCP GT 24HRS:1.00 DATE(S):23-24 DAYS W/PCP >=.01:2  DAYS W/PCP >=.10:2  DAYS W/ PCP >=.50:1 DAYS W/PCP >=1.00:0 MSDP AMTS W/DATE-TIME TAGS:MIN:5 0.03  24/0849 MIN:10 0.05  24/0849 MIN:15 0.08  24/0845 MIN:20 0.10  24/0849 MIN:30 0.13  24/0853 MIN:45 0.14  24/0900 MIN:60 0.15  24/0913 MIN:80 0.19  24/0900 MIN:100 0.21  24/0913 MIN:120 0.21  24/0940 MIN:150 0.27  23/2358 MIN:180 0.33  24/0004 AVG DLY MIN:47.9  AVG DLY MAX:69.5  AVG MLY TMP:58.7  MIN TMP:37 DATE(S):16 MAX TMP:91  DATE(S):01 DAYS MAX <=32:0 DAYS MAX >=90:1  DAYS MIN <=32:0  DAYS MIN  <=0:0  AVG STP:29.520 LWST SLP:29.56 DATE/TIME:311720 HGST SLP:30.29 DATE/TIME:110924 HDD MTH TOT:221 DEP NORM:-2553 SEASON(JUL 1-JUN 30):223 DEP NORM:-25536 CDD MTH TOT:34 DEP NORM:-2553 SEASON(JAN 1-DEC 31):5041 DEP NORM:-25536EQDR01  1.297ABP070R02  1.007ADP081R03     27AE1100R04     17AE2103R05  0.217A10078
0216722868931382022010108537+33822-116504FM-15+0137KPSP V0203205N008852200059N0160935N5+01395+00175101025ADDAA101000095GA1005+999999999GD10991+9999999GF100991999999999999999999MA1101025099385MD1190439+9999OC101085REMMET09901/01/22 00:53:02 METAR KPSP 010853Z 32017G21KT 10SM CLR 14/02 A2983 RMK AO2 SLP102 T01390017 51043
0196722868931382022010109537+33822-116504FM-15+0137KPSP V0203305N007752200059N0160935N5+01335+00225101155ADDAA101000095GA1005+999999999GD10991+9999999GF100991999999999999999999MA1101155099525OC101085REMMET09301/01/22 01:53:02 METAR KPSP 010953Z 33015G21KT 10SM CLR 13/02 A2987 RMK AO2 SLP115 T01330022
0185722868931382022010110537+33822-116504FM-15+0137KPSP V0203505N007252200059N0160935N5+01285+00225101275ADDAA101000095GA1005+999999999GD10991+9999999GF100991999999999999999999MA1101255099625REMMET09001/01/22 02:53:02 METAR KPSP 011053Z 35014KT 10SM CLR 13/02 A2990 RMK AO2 SLP127 T01280022
0243722868931382022010111537+33822-116504FM-15+0137KPSP V0203405N005152200059N0160935N5+01285+00115101395ADDAA101000095GA1005+999999999GD10991+9999999GF100991999999999999999999KA1060M+01671KA2060N+01171MA1101395099755MD1190379+9999REMMET10801/01/22 03:53:02 METAR KPSP 011153Z 34010KT 10SM CLR 13/01 A2994 RMK AO2 SLP139 T01280011 10167 20117 51037
0185722868931382022010112537+33822-116504FM-15+0137KPSP V0203105N004152200059N0160935N5+01225+00115101515ADDAA101000095GA1005+999999999GD10991+9999999GF100991999999999999999999MA1101525099895REMMET09001/01/22 04:53:02 METAR KPSP 011253Z 31008KT 10SM CLR 12/01 A2998 RMK AO2 SLP151 T01220011
0222722868931382022010113537+33822-116504FM-15+0137KPSP V0203205N00265016765MN0160935N5+01175+00005101695ADDAA101000095GA1075+016765999GD13991+0167659GE19AGL   +99999+99999GF199999999999016761999999MA1101695100055REMMET10501/01/22 05:53:02 METAR KPSP 011353Z 32005KT 10SM BKN055 12/00 A3003 RMK AO2 PRESRR SLP169 T01170000 (CM)
0235722868931382022010114537+33822-116504FM-15+0137KPSP V0202705N00265016765MN0160935N5+01115+00115101885ADDAA101000095GA1085+016765999GD14991+0167659GE19AGL   +99999+99999GF199999999999016761999999MA1101865100225MD1390489+9999REMMET10401/01/22 06:53:02 METAR KPSP 011453Z 27005KT 10SM OVC055 11/01 A3008 RMK AO2 SLP188 T01110011 53048 (TF)
0216722868931382022010115537+33822-116504FM-15+0137KPSP V0203605N00265018295MN0160935N5+01335-01005102005ADDAA101000095GA1075+018295999GD13991+0182959GE19AGL   +99999+99999GF199999999999018291999999MA1102005100355REMMET09901/01/22 07:53:02 METAR KPSP 011553Z 36005KT 10SM BKN060 13/M10 A3012 RMK AO2 SLP200 T01331100 (TF)
0235722868931382022010116537+33822-116504FM-15+0137KPSP V0200305N004152200059N0160935N5+01395-01115102135ADDAA101000095GA1025+018295999GD11991+0182959GE19AGL   +99999+99999GF102995999999018291999999MA1102135100495REMMET09901/01/22 08:53:02 METAR KPSP 011653Z 03008KT 10SM FEW060 14/M11 A3016 RMK AO2 SLP213 T01391111 (TF)EQDD01      0ADE726
0249722868931382022010117537+33822-116504FM-15+0137KPSP V0200105N003652200059N0160935N5+01505-01175102245ADDAA101000095GA1005+999999999GD10991+9999999GF100991999999999999999999KA1060M+01501KA2060N+01111MA1102245100595MD1190369+9999REMMET11401/01/22 09:53:02 METAR KPSP 011753Z 01007KT 10SM CLR 15/M12 A3019 RMK AO2 SLP224 T01501117 10150 20111 51036 (TF)
0191722868931382022010118537+33822-116504FM-15+0137KPSP V0209999V001552200059N0160935N5+01505-01065102245ADDAA101000095GA1005+999999999GD10991+9999999GF100991999999999999999999MA1102245100595REMMET09601/01/22 10:53:02 METAR KPSP 011853Z VRB03KT 10SM CLR 15/M11 A3019 RMK AO2 SLP224 T01501106 (TF)
0191722868931382022010119537+33822-116504FM-15+0137KPSP V0209999V003152200059N0160935N5+01565-00945102205ADDAA101000095GA1005+999999999GD10991+9999999GF100991999999999999999999MA1102205100555REMMET09601/01/22 11:53:02 METAR KPSP 011953Z VRB06KT 10SM CLR 16/M09 A3018 RMK AO2 SLP220 T01561094 (TF)
0211722868931382022010120537+33822-116504FM-15+0137KPSP V0209999C000052200059N0160935N5+01615-01225102185ADDAA101000095GA1005+999999999GD10991+9999999GF100991999999999999999999MA1102175100525MD1890069+9999REMMET10201/01/22 12:53:02 METAR KPSP 012053Z 00000KT 10SM CLR 16/M12 A3017 RMK AO2 SLP218 T01611122 58006 (TF)
0202722868931382022010121537+33822-116504FM-15+0137KPSP V0203605N003152200059N0160935N5+01785-01445102215ADDAA101000095GA1005+999999999GD10991+9999999GF100991999999999999999999MA1102205100555OC100825REMMET09901/01/22 13:53:02 METAR KPSP 012153Z 36006G16KT 10SM CLR 18/M14 A3018 RMK AO2 SLP221 T01781144 (TF)
0191722868931382022010122537+33822-116504FM-15+0137KPSP V0200105N001552200059N0160935N5+01785-01565102255ADDAA101000095GA1005+999999999GD10991+9999999GF100991999999999999999999MA1102275100625REMMET09601/01/22 14:53:02 METAR KPSP 012253Z 01003KT 10SM CLR 18/M16 A3020 RMK AO2 SLP225 T01781156 (TF)
0249722868931382022010123537+33822-116504FM-15+0137KPSP V0203505N002652200059N0160935N5+01725-01505102315ADDAA101000095GA1005+999999999GD10991+9999999GF100991999999999999999999KA1060M+01781KA2060N+01501MA1102305100655MD1390129+9999REMMET11401/01/22 15:53:02 METAR KPSP 012353Z 35005KT 10SM CLR 17/M15 A3021 RMK AO2 SLP231 T01721150 10178 20150 53012 (AG)
0186722868931382022010200537+33822-116504FM-15+0137KPSP V0209999C000052200059N0160935N5+01505-01335102405ADDAA101000095GA1005+999999999GD10991+9999999GF100991999999999999999999MA1102405100755REMMET09101/01/22 16:53:01 METAR KPSP 020053Z 00000KT 10SM CLR 15/M13 A3024 RMK AO2 SLP240 T01501133
0186722868931382022010201537+33822-116504FM-15+0137KPSP V0202305N002652200059N0160935N5+01335-01115102505ADDAA101000095GA1005+999999999GD10991+9999999GF100991999999999999999999MA1102475100825REMMET09101/01/22 17:53:01 METAR KPSP 020153Z 23005KT 10SM CLR 13/M11 A3026 RMK AO2 SLP250 T01331111
0206722868931382022010202537+33822-116504FM-15+0137KPSP V0202405N003152200059N0160935N5+01175-00945102595ADDAA101000095GA1005+999999999GD10991+9999999GF100991999999999999999999MA1102575100925MD1190279+9999REMMET09701/01/22 18:53:01 METAR KPSP 020253Z 24006KT 10SM CLR 12/M09 A3029 RMK AO2 SLP259 T01171094 51027
0186722868931382022010203537+33822-116504FM-15+0137KPSP V0202605N002152200059N0160935N5+01065-00675102685ADDAA101000095GA1005+999999999GD10991+9999999GF100991999999999999999999MA1102685101025REMMET09101/01/22 19:53:01 METAR KPSP 020353Z 26004KT 10SM CLR 11/M07 A3032 RMK AO2 SLP268 T01061067
0186722868931382022010204537+33822-116504FM-15+0137KPSP V0202905N002652200059N0160935N5+01065-00675102775ADDAA101000095GA1005+999999999GD10991+9999999GF100991999999999999999999MA1102745101095REMMET09101/01/22 20:53:02 METAR KPSP 020453Z 29005KT 10SM CLR 11/M07 A3034 RMK AO2 SLP277 T01061067
0244722868931382022010205537+33822-116504FM-15+0137KPSP V0203405N001552200059N0160935N5+00945-00785102865ADDAA101000095GA1005+999999999GD10991+9999999GF100991999999999999999999KA1060M+01721KA2060N+00891MA1102845101195MD1190269+9999REMMET10901/01/22 21:53:02 METAR KPSP 020553Z 34003KT 10SM CLR 09/M08 A3037 RMK AO2 SLP286 T00941078 10172 20089 51026
0186722868931382022010206537+33822-116504FM-15+0137KPSP V0202605N001552200059N0160935N5+00895-00725102905ADDAA101000095GA1005+999999999GD10991+9999999GF100991999999999999999999MA1102885101225REMMET09101/01/22 22:53:02 METAR KPSP 020653Z 26003KT 10SM CLR 09/M07 A3038 RMK AO2 SLP290 T00891072
0222722868931382022010207537+33822-116504FM-15+0137KPSP V0203405N001552200059N0160935N5+00675-00445102915ADDAA101000095GA1005+999999999GD10991+9999999GF100991999999999999999999KA1240M+01781KA2240N+00671MA1102885101225REMMET10101/01/22 23:53:02 METAR KPSP 020753Z 34003KT 10SM CLR 07/M04 A3038 RMK AO2 SLP291 T00671044 401780067
0813722868931382022010207596+33822-116504SOD  +0137KPSP V020999999999999999999999999999+99999+99999999999ADDAA124000095KA1240M+01785KA2240N+00675MG1100524100884OE11240116233099995OE22240093932099995OE33240030099999995REMSOD69224 HR PRECIPITATION (IN): 0.00 24 HR MAX TEMP (F): 6424 HR MIN TEMP (F): 44AVERAGE STATION PRESSURE:29.685 MINIMUM SEA LEVEL PRESSURE:29.79 TIME OF OCCURRENCE:0004 PEAK WIND SPEED (MPH): 26 PEAK WIND DIR (DEG):330 PEAK WIND TIME (LST):      FASTEST 2MIN SPEED (MPH): 21FASTEST 2MIN DIR (DEG):320 FASTEST 2MIN TIME (LST):     AVERAGE WIND SPEED (MPH): 6.7 24 HR AVG TEMP (F): 54DEPART FROM NORMAL: -4  HEATING DEGREE DAYS: 11 COOLING DEGREE DAYS:  0 LATEST DAY MAX TEMP (0700-1900 LST):64  LATEST NIGHT MIN TEMP(1900-0800 LST):52 HOURLY INCREMENTAL PRECIPITATION VALUES (IN):.00 0.00 0.00 0.00 0.00 0.00 0.00 0.00 0.00 0.00 0.00 0.00 0.00 0.00 0.00 0.00 0.00 0.00 0.00 0.00 0.00 0.00 0.00 0.00
0206722868931382022010208537+33822-116504FM-15+0137KPSP V0203205N002652200059N0160935N5+00675-00395102895ADDAA101000095GA1005+999999999GD10991+9999999GF100991999999999999999999MA1102885101225MD1090039+9999REMMET09701/02/22 00:53:02 METAR KPSP 020853Z 32005KT 10SM CLR 07/M04 A3038 RMK AO2 SLP289 T00671039 50003
0186722868931382022010209537+33822-116504FM-15+0137KPSP V0202805N001552200059N0160935N5+00785-00725102925ADDAA101000095GA1005+999999999GD10991+9999999GF100991999999999999999999MA1102915101265REMMET09101/02/22 01:53:02 METAR KPSP 020953Z 28003KT 10SM CLR 08/M07 A3039 RMK AO2 SLP292 T00781072
0186722868931382022010210537+33822-116504FM-15+0137KPSP V0203005N002152200059N0160935N5+00615-00565102915ADDAA101000095GA1005+999999999GD10991+9999999GF100991999999999999999999MA1102885101225REMMET09101/02/22 02:53:02 METAR KPSP 021053Z 30004KT 10SM CLR 06/M06 A3038 RMK AO2 SLP291 T00611056
0244722868931382022010211537+33822-116504FM-15+0137KPSP V0209999V001552200059N0160935N5+00675-00675102885ADDAA101000095GA1005+999999999GD10991+9999999GF100991999999999999999999KA1060M+00941KA2060N+00561MA1102885101225MD1890029+9999REMMET10901/02/22 03:53:02 METAR KPSP 021153Z VRB03KT 10SM CLR 07/M07 A3038 RMK AO2 SLP288 T00671067 10094 20056 58002
0186722868931382022010212537+33822-116504FM-15+0137KPSP V0203205N002652200059N0160935N5+00615-00785102875ADDAA101000095GA1005+999999999GD10991+9999999GF100991999999999999999999MA1102845101195REMMET09101/02/22 04:53:02 METAR KPSP 021253Z 32005KT 10SM CLR 06/M08 A3037 RMK AO2 SLP287 T00611078
0186722868931382022010213537+33822-116504FM-15+0137KPSP V0209999C000052200059N0160935N5+00395-00445102925ADDAA101000095GA1005+999999999GD10991+9999999GF100991999999999999999999MA1102885101225REMMET09101/02/22 05:53:02 METAR KPSP 021353Z 00000KT 10SM CLR 04/M04 A3038 RMK AO2 SLP292 T00391044
0211722868931382022010214537+33822-116504FM-15+0137KPSP V0203105N001552200059N0160935N5+00505-00675102975ADDAA101000095GA1005+999999999GD10991+9999999GF100991999999999999999999MA1102955101295MD1390089+9999REMMET10201/02/22 06:53:02 METAR KPSP 021453Z 31003KT 10SM CLR 05/M07 A3040 RMK AO2 SLP297 T00501067 53008 (ZP)
0191722868931382022010215537+33822-116504FM-15+0137KPSP V0203005N001552200059N0160935N5+00675-00675103035ADDAA101000095GA1005+999999999GD10991+9999999GF100991999999999999999999MA1103015101365REMMET09601/02/22 07:53:02 METAR KPSP 021553Z 30003KT 10SM CLR 07/M07 A3042 RMK AO2 SLP303 T00671067 (ZP)
0191722868931382022010216537+33822-116504FM-15+0137KPSP V0203305N002152200059N0160935N5+00835-00725103075ADDAA101000095GA1005+999999999GD10991+9999999GF100991999999999999999999MA1103055101395REMMET09601/02/22 08:53:02 METAR KPSP 021653Z 33004KT 10SM CLR 08/M07 A3043 RMK AO2 SLP307 T00831072 (ZP)
0249722868931382022010217537+33822-116504FM-15+0137KPSP V0209999C000052200059N0160935N5+01225-01175103075ADDAA101000095GA1005+999999999GD10991+9999999GF100991999999999999999999KA1060M+01221KA2060N+00281MA1103055101395MD1190109+9999REMMET11401/02/22 09:53:02 METAR KPSP 021753Z 00000KT 10SM CLR 12/M12 A3043 RMK AO2 SLP307 T01221117 10122 20028 51010 (ZP)
0191722868931382022010218537+33822-116504FM-15+0137KPSP V0209999V001552200059N0160935N5+01225-01175103005ADDAA101000095GA1005+999999999GD10991+9999999GF100991999999999999999999MA1102985101325REMMET09601/02/22 10:53:02 METAR KPSP 021853Z VRB03KT 10SM CLR 12/M12 A3041 RMK AO2 SLP300 T01221117 (ZP)
0191722868931382022010219537+33822-116504FM-15+0137KPSP V0209999C000052200059N0160935N5+01395-01175102865ADDAA101000095GA1005+999999999GD10991+9999999GF100991999999999999999999MA1102845101195REMMET09601/02/22 11:53:02 METAR KPSP 021953Z 00000KT 10SM CLR 14/M12 A3037 RMK AO2 SLP286 T01391117 (ZP)
0211722868931382022010220537+33822-116504FM-15+0137KPSP V0209999V002652200059N0160935N5+01445-01285102735ADDAA101000095GA1005+999999999GD10991+9999999GF100991999999999999999999MA1102715101065MD1890339+9999REMMET10201/02/22 12:53:02 METAR KPSP 022053Z VRB05KT 10SM CLR 14/M13 A3033 RMK AO2 SLP273 T01441128 58033 (AG)
0191722868931382022010221537+33822-116504FM-15+0137KPSP V0209999V002152200059N0160935N5+01505-01335102655ADDAA101000095GA1005+999999999GD10991+9999999GF100991999999999999999999MA1102645100995REMMET09601/02/22 13:53:02 METAR KPSP 022153Z VRB04KT 10SM CLR 15/M13 A3031 RMK AO2 SLP265 T01501133 (AG)
0191722868931382022010222537+33822-116504FM-15+0137KPSP V0200905N002152200059N0160935N5+01565-01285102605ADDAA101000095GA1005+999999999GD10991+9999999GF100991999999999999999999MA1102575100925REMMET09601/02/22 14:53:02 METAR KPSP 022253Z 09004KT 10SM CLR 16/M13 A3029 RMK AO2 SLP260 T01561128 (AG)
0249722868931382022010223537+33822-116504FM-15+0137KPSP V0201405N001552200059N0160935N5+01505-01285102565ADDAA101000095GA1005+999999999GD10991+9999999GF100991999999999999999999KA1060M+01561KA2060N+01171MA1102545100895MD1690179+9999REMMET11401/02/22 15:53:02 METAR KPSP 022353Z 14003KT 10SM CLR 15/M13 A3028 RMK AO2 SLP256 T01501128 10156 20117 56017 (AG)
0186722868931382022010300537+33822-116504FM-15+0137KPSP V0209999C000052200059N0160935N5+01335-01065102545ADDAA101000095GA1005+999999999GD10991+9999999GF100991999999999999999999MA1102545100895REMMET09101/02/22 16:53:01 METAR KPSP 030053Z 00000KT 10SM CLR 13/M11 A3028 RMK AO2 SLP254 T01331106
0186722868931382022010301537+33822-116504FM-15+0137KPSP V0209999C000052200059N0160935N5+01115-00785102545ADDAA101000095GA1005+999999999GD10991+9999999GF100991999999999999999999MA1102515100855REMMET09101/02/22 17:53:01 METAR KPSP 030153Z 00000KT 10SM CLR 11/M08 A3027 RMK AO2 SLP254 T01111078
0206722868931382022010302537+33822-116504FM-15+0137KPSP V0203305N003152200059N0160935N5+01005-00505102565ADDAA101000095GA1005+999999999GD10991+9999999GF100991999999999999999999MA1102545100895MD1590019+9999REMMET09701/02/22 18:53:01 METAR KPSP 030253Z 33006KT 10SM CLR 10/M05 A3028 RMK AO2 SLP256 T01001050 55001
0186722868931382022010303537+33822-116504FM-15+0137KPSP V0203205N003152200059N0160935N5+01005-00675102575ADDAA101000095GA1005+999999999GD10991+9999999GF100991999999999999999999MA1102545100895REMMET09101/02/22 19:53:01 METAR KPSP 030353Z 32006KT 10SM CLR 10/M07 A3028 RMK AO2 SLP257 T01001067
0186722868931382022010304537+33822-116504FM-15+0137KPSP V0203305N001552200059N0160935N5+00895-00725102585ADDAA101000095GA1005+999999999GD10991+9999999GF100991999999999999999999MA1102545100895REMMET09101/02/22 20:53:02 METAR KPSP 030453Z 33003KT 10SM CLR 09/M07 A3028 RMK AO2 SLP258 T00891072
0244722868931382022010305537+33822-116504FM-15+0137KPSP V0203305N002652200059N0160935N5+00725-00505102585ADDAA101000095GA1005+999999999GD10991+9999999GF100991999999999999999999KA1060M+01501KA2060N+00721MA1102575100925MD1290039+9999REMMET10901/02/22 21:53:02 METAR KPSP 030553Z 33005KT 10SM CLR 07/M05 A3029 RMK AO2 SLP258 T00721050 10150 20072 52003
0186722868931382022010306537+33822-116504FM-15+0137KPSP V0203205N002152200059N0160935N5+00785-00615102585ADDAA101000095GA1005+999999999GD10991+9999999GF100991999999999999999999MA1102575100925REMMET09101/02/22 22:53:02 METAR KPSP 030653Z 32004KT 10SM CLR 08/M06 A3029 RMK AO2 SLP258 T00781061
0222722868931382022010307537+33822-116504FM-15+0137KPSP V0203405N003652200059N0160935N5+00565-00445102545ADDAA101000095GA1005+999999999GD10991+9999999GF100991999999999999999999KA1240M+01561KA2240N+00281MA1102515100855REMMET10101/02/22 23:53:02 METAR KPSP 030753Z 34007KT 10SM CLR 06/M04 A3027 RMK AO2 SLP254 T00561044 401560028
0813722868931382022010307596+33822-116504SOD  +0137KPSP V020999999999999999999999999999+99999+99999999999ADDAA124000095KA1240M+01565KA2240N+00285MG1101084102544OE11240053627099995OE22240040212099995OE33240017099999995REMSOD69224 HR PRECIPITATION (IN): 0.00 24 HR MAX TEMP (F): 6024 HR MIN TEMP (F): 37AVERAGE STATION PRESSURE:29.850 MINIMUM SEA LEVEL PRESSURE:30.28 TIME OF OCCURRENCE:2359 PEAK WIND SPEED (MPH): 12 PEAK WIND DIR (DEG):270 PEAK WIND TIME (LST):      FASTEST 2MIN SPEED (MPH):  9FASTEST 2MIN DIR (DEG):120 FASTEST 2MIN TIME (LST):     AVERAGE WIND SPEED (MPH): 3.8 24 HR AVG TEMP (F): 49DEPART FROM NORMAL: -9  HEATING DEGREE DAYS: 16 COOLING DEGREE DAYS:  0 LATEST DAY MAX TEMP (0700-1900 LST):60  LATEST NIGHT MIN TEMP(1900-0800 LST):37 HOURLY INCREMENTAL PRECIPITATION VALUES (IN):.00 0.00 0.00 0.00 0.00 0.00 0.00 0.00 0.00 0.00 0.00 0.00 0.00 0.00 0.00 0.00 0.00 0.00 0.00 0.00 0.00 0.00 0.00 0.00
0206722868931382022010308537+33822-116504FM-15+0137KPSP V0203305N003152200059N0160935N5+00505-00445102495ADDAA101000095GA1005+999999999GD10991+9999999GF100991999999999999999999MA1102475100825MD1890099+9999REMMET09701/03/22 00:53:02 METAR KPSP 030853Z 33006KT 10SM CLR 05/M04 A3026 RMK AO2 SLP249 T00501044 58009
0186722868931382022010309537+33822-116504FM-15+0137KPSP V0203305N003652200059N0160935N5+00445-00445102455ADDAA101000095GA1005+999999999GD10991+9999999GF100991999999999999999999MA1102445100795REMMET09101/03/22 01:53:02 METAR KPSP 030953Z 33007KT 10SM CLR 04/M04 A3025 RMK AO2 SLP245 T00441044
0186722868931382022010310537+33822-116504FM-15+0137KPSP V0203505N003652200059N0160935N5+00395-00505102455ADDAA101000095GA1005+999999999GD10991+9999999GF100991999999999999999999MA1102445100795REMMET09101/03/22 02:53:02 METAR KPSP 031053Z 35007KT 10SM CLR 04/M05 A3025 RMK AO2 SLP245 T00391050
0244722868931382022010311537+33822-116504FM-15+0137KPSP V0203305N003152200059N0160935N5+00395-00565102385ADDAA101000095GA1005+999999999GD10991+9999999GF100991999999999999999999KA1060M+00781KA2060N+00281MA1102375100725MD1890129+9999REMMET10901/03/22 03:53:02 METAR KPSP 031153Z 33006KT 10SM CLR 04/M06 A3023 RMK AO2 SLP238 T00391056 10078 20028 58012
0186722868931382022010312537+33822-116504FM-15+0137KPSP V0203205N003152200059N0160935N5+00395-00565102375ADDAA101000095GA1005+999999999GD10991+9999999GF100991999999999999999999MA1102345100695REMMET09101/03/22 04:53:02 METAR KPSP 031253Z 32006KT 10SM CLR 04/M06 A3022 RMK AO2 SLP237 T00391056
0186722868931382022010313537+33822-116504FM-15+0137KPSP V0203305N001552200059N0160935N5+00285-00445102435ADDAA101000095GA1005+999999999GD10991+9999999GF100991999999999999999999MA1102405100755REMMET09101/03/22 05:53:02 METAR KPSP 031353Z 33003KT 10SM CLR 03/M04 A3024 RMK AO2 SLP243 T00281044
0211722868931382022010314537+33822-116504FM-15+0137KPSP V0203405N002652200059N0160935N5+00285-00505102425ADDAA101000095GA1005+999999999GD10991+9999999GF100991999999999999999999MA1102375100725MD1090039+9999REMMET10201/03/22 06:53:02 METAR KPSP 031453Z 34005KT 10SM CLR 03/M05 A3023 RMK AO2 SLP242 T00281050 50003 (ZP)
0191722868931382022010315537+33822-116504FM-15+0137KPSP V0203205N002652200059N0160935N5+00565-00615102475ADDAA101000095GA1005+999999999GD10991+9999999GF100991999999999999999999MA1102445100795REMMET09601/03/22 07:53:02 METAR KPSP 031553Z 32005KT 10SM CLR 06/M06 A3025 RMK AO2 SLP247 T00561061 (AG)
0191722868931382022010316537+33822-116504FM-15+0137KPSP V0209999C000052200059N0160935N5+00895-00445102515ADDAA101000095GA1005+999999999GD10991+9999999GF100991999999999999999999MA1102515100855REMMET09601/03/22 08:53:02 METAR KPSP 031653Z 00000KT 10SM CLR 09/M04 A3027 RMK AO2 SLP251 T00891044 (AG)
0316722868931382022010317537+33822-116504FM-15+0137KPSP V0209999C000052200059N0160935N5+01225-00835102525ADDAA101000025AA206000021GA1005+999999999GD10991+9999999GF100991999999999999999999KA1060M+01281KA2060N+00171MA1102515100855MD1190129+9999REMMET13501/03/22 09:53:02 METAR KPSP 031753Z 00000KT 10SM CLR 12/M08 A3027 RMK AO2 RAB03E18 SLP252 P0000 60000 T01221083 10128 20017 51012 (AG)EQDQ01  00002PRCP06Q02  00008PRCP06
0191722868931382022010318537+33822-116504FM-15+0137KPSP V0209999C000052200059N0160935N5+01445-01115102455ADDAA101000095GA1005+999999999GD10991+9999999GF100991999999999999999999MA1102445100795REMMET09601/03/22 10:53:02 METAR KPSP 031853Z 00000KT 10SM CLR 14/M11 A3025 RMK AO2 SLP245 T01441111 (AG)
0191722868931382022010319537+33822-116504FM-15+0137KPSP V0209999C000052200059N0160935N5+01505-01335102325ADDAA101000095GA1005+999999999GD10991+9999999GF100991999999999999999999MA1102305100655REMMET09601/03/22 11:53:02 METAR KPSP 031953Z 00000KT 10SM CLR 15/M13 A3021 RMK AO2 SLP232 T01501133 (AG)
0213722868931382022010320537+33822-116504FM-15+0137KPSP V0209999C000052200059N0160935N5+01675-01395102245ADDAA101000095GA1005+999999999GD10991+9999999GF100991999999999999999999MA1102245100595MD1890289+9999REMMET10401/03/22 12:53:02 METAR KPSP 032053Z 00000KT 10SM CLR 17/M14 A3019 RMK AO2 SLP224 T01671139 58028 $ (AG)
0191722868931382022010321537+33822-116504FM-15+0137KPSP V0209999C000052200059N0160935N5+01785-01445102155ADDAA101000095GA1005+999999999GD10991+9999999GF100991999999999999999999MA1102135100495REMMET09601/03/22 13:53:02 METAR KPSP 032153Z 00000KT 10SM CLR 18/M14 A3016 RMK AO2 SLP215 T01781144 (OL)
0191722868931382022010322537+33822-116504FM-15+0137KPSP V0200805N001552200059N0160935N5+01785-01335102135ADDAA101000095GA1005+999999999GD10991+9999999GF100991999999999999999999MA1102135100495REMMET09601/03/22 14:53:02 METAR KPSP 032253Z 08003KT 10SM CLR 18/M13 A3016 RMK AO2 SLP213 T01781133 (OL)
0249722868931382022010323537+33822-116504FM-15+0137KPSP V0201205N001552200059N0160935N5+01785-01285102145ADDAA101000095GA1005+999999999GD10991+9999999GF100991999999999999999999KA1060M+01831KA2060N+01221MA1102135100495MD1590099+9999REMMET11401/03/22 15:53:02 METAR KPSP 032353Z 12003KT 10SM CLR 18/M13 A3016 RMK AO2 SLP214 T01781128 10183 20122 55009 (OL)
0186722868931382022010400537+33822-116504FM-15+0137KPSP V0209999C000052200059N0160935N5+01565-00895102145ADDAA101000095GA1005+999999999GD10991+9999999GF100991999999999999999999MA1102135100495REMMET09101/03/22 16:53:01 METAR KPSP 040053Z 00000KT 10SM CLR 16/M09 A3016 RMK AO2 SLP214 T01561089
0186722868931382022010401537+33822-116504FM-15+0137KPSP V0209999C000052200059N0160935N5+01285-00565102215ADDAA101000095GA1005+999999999GD10991+9999999GF100991999999999999999999MA1102205100555REMMET09101/03/22 17:53:01 METAR KPSP 040153Z 00000KT 10SM CLR 13/M06 A3018 RMK AO2 SLP221 T01281056
0206722868931382022010402537+33822-116504FM-15+0137KPSP V0203205N002652200059N0160935N5+01225-00675102245ADDAA101000095GA1005+999999999GD10991+9999999GF100991999999999999999999MA1102205100555MD1390089+9999REMMET09701/03/22 18:53:01 METAR KPSP 040253Z 32005KT 10SM CLR 12/M07 A3018 RMK AO2 SLP224 T01221067 53008
0186722868931382022010403537+33822-116504FM-15+0137KPSP V0203405N003152200059N0160935N5+01065-00615102305ADDAA101000095GA1005+999999999GD10991+9999999GF100991999999999999999999MA1102275100625REMMET09101/03/22 19:53:02 METAR KPSP 040353Z 34006KT 10SM CLR 11/M06 A3020 RMK AO2 SLP230 T01061061
0186722868931382022010404537+33822-116504FM-15+0137KPSP V0203305N001552200059N0160935N5+00945-00615102335ADDAA101000095GA1005+999999999GD10991+9999999GF100991999999999999999999MA1102305100655REMMET09101/03/22 20:53:02 METAR KPSP 040453Z 33003KT 10SM CLR 09/M06 A3021 RMK AO2 SLP233 T00941061
0244722868931382022010405537+33822-116504FM-15+0137KPSP V0203205N002152200059N0160935N5+00895-00505102325ADDAA101000095GA1005+999999999GD10991+9999999GF100991999999999999999999KA1060M+01781KA2060N+00891MA1102305100655MD1090099+9999REMMET10901/03/22 21:53:02 METAR KPSP 040553Z 32004KT 10SM CLR 09/M05 A3021 RMK AO2 SLP232 T00891050 10178 20089 50009
0186722868931382022010406537+33822-116504FM-15+0137KPSP V0209999C000052200059N0160935N5+00725-00335102275ADDAA101000095GA1005+999999999GD10991+9999999GF100991999999999999999999MA1102275100625REMMET09101/03/22 22:53:02 METAR KPSP 040653Z 00000KT 10SM CLR 07/M03 A3020 RMK AO2 SLP227 T00721033
0222722868931382022010407537+33822-116504FM-15+0137KPSP V0209999V001552200059N0160935N5+00785-00565102255ADDAA101000095GA1005+999999999GD10991+9999999GF100991999999999999999999KA1240M+01831KA2240N+00171MA1102245100595REMMET10101/03/22 23:53:02 METAR KPSP 040753Z VRB03KT 10SM CLR 08/M06 A3019 RMK AO2 SLP225 T00781056 401830017
0813722868931382022010407596+33822-116504SOD  +0137KPSP V020999999999999999999999999999+99999+99999999999ADDAA124000025KA1240M+01835KA2240N+00175MG1100664102104OE11240053630099995OE22240044733099995OE33240015699999995REMSOD69224 HR PRECIPITATION (IN):    T 24 HR MAX TEMP (F): 6524 HR MIN TEMP (F): 35AVERAGE STATION PRESSURE:29.725 MINIMUM SEA LEVEL PRESSURE:30.15 TIME OF OCCURRENCE:1519 PEAK WIND SPEED (MPH): 12 PEAK WIND DIR (DEG):300 PEAK WIND TIME (LST):      FASTEST 2MIN SPEED (MPH): 10FASTEST 2MIN DIR (DEG):330 FASTEST 2MIN TIME (LST):     AVERAGE WIND SPEED (MPH): 3.5 24 HR AVG TEMP (F): 50DEPART FROM NORMAL: -8  HEATING DEGREE DAYS: 15 COOLING DEGREE DAYS:  0 LATEST DAY MAX TEMP (0700-1900 LST):65  LATEST NIGHT MIN TEMP(1900-0800 LST):35 HOURLY INCREMENTAL PRECIPITATION VALUES (IN):.00 0.00 0.00 0.00 0.00 0.00 0.00 0.00 0.00 T    0.00 0.00 0.00 0.00 0.00 0.00 0.00 0.00 0.00 0.00 0.00 0.00 0.00 0.00
0206722868931382022010408537+33822-116504FM-15+0137KPSP V0209999C000052200059N0160935N5+00675-00505102225ADDAA101000095GA1005+999999999GD10991+9999999GF100991999999999999999999MA1102205100555MD1690109+9999REMMET09701/04/22 00:53:02 METAR KPSP 040853Z 00000KT 10SM CLR 07/M05 A3018 RMK AO2 SLP222 T00671050 56010
0186722868931382022010409537+33822-116504FM-15+0137KPSP V0209999C000052200059N0160935N5+00615-00395102215ADDAA101000095GA1005+999999999GD10991+9999999GF100991999999999999999999MA1102205100555REMMET09101/04/22 01:53:02 METAR KPSP 040953Z 00000KT 10SM CLR 06/M04 A3018 RMK AO2 SLP221 T00611039
0186722868931382022010410537+33822-116504FM-15+0137KPSP V0209999C000052200059N0160935N5+00675-00505102195ADDAA101000095GA1005+999999999GD10991+9999999GF100991999999999999999999MA1102175100525REMMET09101/04/22 02:53:02 METAR KPSP 041053Z 00000KT 10SM CLR 07/M05 A3017 RMK AO2 SLP219 T00671050
0244722868931382022010411537+33822-116504FM-15+0137KPSP V0209999C000052200059N0160935N5+00505-00395102145ADDAA101000095GA1005+999999999GD10991+9999999GF100991999999999999999999KA1060M+00941KA2060N+00441MA1102135100495MD1890089+9999REMMET10901/04/22 03:53:02 METAR KPSP 041153Z 00000KT 10SM CLR 05/M04 A3016 RMK AO2 SLP214 T00501039 10094 20044 58008
0186722868931382022010412537+33822-116504FM-15+0137KPSP V0209999C000052200059N0160935N5+00615-00505102115ADDAA101000095GA1005+999999999GD10991+9999999GF100991999999999999999999MA1102105100455REMMET09101/04/22 04:53:02 METAR KPSP 041253Z 00000KT 10SM CLR 06/M05 A3015 RMK AO2 SLP211 T00611050
0191722868931382022010413537+33822-116504FM-15+0137KPSP V0202505N001552200059N0160935N5+00505-00395102175ADDAA101000095GA1005+999999999GD10991+9999999GF100991999999999999999999MA1102135100495REMMET09601/04/22 05:53:02 METAR KPSP 041353Z 25003KT 10SM CLR 05/M04 A3016 RMK AO2 SLP217 T00501039 (ZP)
0211722868931382022010414537+33822-116504FM-15+0137KPSP V0209999C000052200059N0160935N5+00565-00445102235ADDAA101000095GA1005+999999999GD10991+9999999GF100991999999999999999999MA1102205100555MD1390079+9999REMMET10201/04/22 06:53:02 METAR KPSP 041453Z 00000KT 10SM CLR 06/M04 A3018 RMK AO2 SLP223 T00561044 53007 (AG)
0191722868931382022010415537+33822-116504FM-15+0137KPSP V0209999C000052200059N0160935N5+00675-00285102315ADDAA101000095GA1005+999999999GD10991+9999999GF100991999999999999999999MA1102275100625REMMET09601/04/22 07:53:02 METAR KPSP 041553Z 00000KT 10SM CLR 07/M03 A3020 RMK AO2 SLP231 T00671028 (AG)
0191722868931382022010416537+33822-116504FM-15+0137KPSP V0209999C000052200059N0160935N5+01115-00565102405ADDAA101000095GA1005+999999999GD10991+9999999GF100991999999999999999999MA1102375100725REMMET09601/04/22 08:53:02 METAR KPSP 041653Z 00000KT 10SM CLR 11/M06 A3023 RMK AO2 SLP240 T01111056 (AG)
0249722868931382022010417537+33822-116504FM-15+0137KPSP V0209999C000052200059N0160935N5+01285-00895102495ADDAA101000095GA1005+999999999GD10991+9999999GF100991999999999999999999KA1060M+01281KA2060N+00391MA1102475100825MD1390279+9999REMMET11401/04/22 09:53:02 METAR KPSP 041753Z 00000KT 10SM CLR 13/M09 A3026 RMK AO2 SLP249 T01281089 10128 20039 53027 (AG)
0191722868931382022010418537+33822-116504FM-15+0137KPSP V0209999C000052200059N0160935N5+01505-00895102495ADDAA101000095GA1005+999999999GD10991+9999999GF100991999999999999999999MA1102475100825REMMET09601/04/22 10:53:02 METAR KPSP 041853Z 00000KT 10SM CLR 15/M09 A3026 RMK AO2 SLP249 T01501089 (AG)
0191722868931382022010419537+33822-116504FM-15+0137KPSP V0209999C000052200059N0160935N5+01615-00945102385ADDAA101000095GA1005+999999999GD10991+9999999GF100991999999999999999999MA1102375100725REMMET09601/04/22 11:53:02 METAR KPSP 041953Z 00000KT 10SM CLR 16/M09 A3023 RMK AO2 SLP238 T01611094 (AG)
0211722868931382022010420537+33822-116504FM-15+0137KPSP V0209999C000052200059N0160935N5+01785-00945102265ADDAA101000095GA1005+999999999GD10991+9999999GF100991999999999999999999MA1102245100595MD1890239+9999REMMET10201/04/22 12:53:02 METAR KPSP 042053Z 00000KT 10SM CLR 18/M09 A3019 RMK AO2 SLP226 T01781094 58023 (AG)
0191722868931382022010421537+33822-116504FM-15+0137KPSP V0209999C000052200059N0160935N5+01895-01005102205ADDAA101000095GA1005+999999999GD10991+9999999GF100991999999999999999999MA1102205100555REMMET09601/04/22 13:53:02 METAR KPSP 042153Z 00000KT 10SM CLR 19/M10 A3018 RMK AO2 SLP220 T01891100 (AG)
0191722868931382022010422537+33822-116504FM-15+0137KPSP V0209999C000052200059N0160935N5+01945-00895102145ADDAA101000095GA1005+999999999GD10991+9999999GF100991999999999999999999MA1102135100495REMMET09601/04/22 14:53:02 METAR KPSP 042253Z 00000KT 10SM CLR 19/M09 A3016 RMK AO2 SLP214 T01941089 (KS)
0249722868931382022010423537+33822-116504FM-15+0137KPSP V0209999C000052200059N0160935N5+01895-00835102135ADDAA101000095GA1005+999999999GD10991+9999999GF100991999999999999999999KA1060M+01941KA2060N+01281MA1102135100495MD1690129+9999REMMET11401/04/22 15:53:02 METAR KPSP 042353Z 00000KT 10SM CLR 19/M08 A3016 RMK AO2 SLP213 T01891083 10194 20128 56012 (KS)
0186722868931382022010500537+33822-116504FM-15+0137KPSP V0202305N001552200059N0160935N5+01615-00505102135ADDAA101000095GA1005+999999999GD10991+9999999GF100991999999999999999999MA1102105100455REMMET09101/04/22 16:53:01 METAR KPSP 050053Z 23003KT 10SM CLR 16/M05 A3015 RMK AO2 SLP213 T01611050
0186722868931382022010501537+33822-116504FM-15+0137KPSP V0203205N001552200059N0160935N5+01505-00285102145ADDAA101000095GA1005+999999999GD10991+9999999GF100991999999999999999999MA1102135100495REMMET09101/04/22 17:53:01 METAR KPSP 050153Z 32003KT 10SM CLR 15/M03 A3016 RMK AO2 SLP214 T01501028
0206722868931382022010502537+33822-116504FM-15+0137KPSP V0203305N003152200059N0160935N5+01285-00225102155ADDAA101000095GA1005+999999999GD10991+9999999GF100991999999999999999999MA1102135100495MD1390019+9999REMMET09701/04/22 18:53:01 METAR KPSP 050253Z 33006KT 10SM CLR 13/M02 A3016 RMK AO2 SLP215 T01281022 53001
0186722868931382022010503537+33822-116504FM-15+0137KPSP V0203305N003152200059N0160935N5+01175-00175102155ADDAA101000095GA1005+999999999GD10991+9999999GF100991999999999999999999MA1102135100495REMMET09101/04/22 19:53:02 METAR KPSP 050353Z 33006KT 10SM CLR 12/M02 A3016 RMK AO2 SLP215 T01171017
0186722868931382022010504537+33822-116504FM-15+0137KPSP V0203305N002652200059N0160935N5+01115-00225102195ADDAA101000095GA1005+999999999GD10991+9999999GF100991999999999999999999MA1102175100525REMMET09101/04/22 20:53:02 METAR KPSP 050453Z 33005KT 10SM CLR 11/M02 A3017 RMK AO2 SLP219 T01111022
0244722868931382022010505537+33822-116504FM-15+0137KPSP V0202405N001552200059N0160935N5+00945-00065102235ADDAA101000095GA1005+999999999GD10991+9999999GF100991999999999999999999KA1060M+01891KA2060N+00941MA1102205100555MD1390099+9999REMMET10901/04/22 21:53:02 METAR KPSP 050553Z 24003KT 10SM CLR 09/M01 A3018 RMK AO2 SLP223 T00941006 10189 20094 53009
0186722868931382022010506537+33822-116504FM-15+0137KPSP V0203405N002152200059N0160935N5+00895-00115102235ADDAA101000095GA1005+999999999GD10991+9999999GF100991999999999999999999MA1102205100555REMMET09101/04/22 22:53:02 METAR KPSP 050653Z 34004KT 10SM CLR 09/M01 A3018 RMK AO2 SLP223 T00891011
0221722868931382022010507537+33822-116504FM-15+0137KPSP V0203205N001552200059N0160935N5+00835+00005102175ADDAA101000095GA1005+999999999GD10991+9999999GF100991999999999999999999KA1240M+01941KA2240N+00391MA1102175100525REMMET10001/04/22 23:53:02 METAR KPSP 050753Z 32003KT 10SM CLR 08/00 A3017 RMK AO2 SLP217 T00830000 401940039
0813722868931382022010507596+33822-116504SOD  +0137KPSP V020999999999999999999999999999+99999+99999999999ADDAA124000095KA1240M+01945KA2240N+00395MG1100584102104OE11240049234099995OE22240040234099995OE33240007699999995REMSOD69224 HR PRECIPITATION (IN): 0.00 24 HR MAX TEMP (F): 6724 HR MIN TEMP (F): 39AVERAGE STATION PRESSURE:29.700 MINIMUM SEA LEVEL PRESSURE:30.15 TIME OF OCCURRENCE:1543 PEAK WIND SPEED (MPH): 11 PEAK WIND DIR (DEG):340 PEAK WIND TIME (LST):      FASTEST 2MIN SPEED (MPH):  9FASTEST 2MIN DIR (DEG):340 FASTEST 2MIN TIME (LST):     AVERAGE WIND SPEED (MPH): 1.7 24 HR AVG TEMP (F): 53DEPART FROM NORMAL: -5  HEATING DEGREE DAYS: 12 COOLING DEGREE DAYS:  0 LATEST DAY MAX TEMP (0700-1900 LST):67  LATEST NIGHT MIN TEMP(1900-0800 LST):39 HOURLY INCREMENTAL PRECIPITATION VALUES (IN):.00 0.00 0.00 0.00 0.00 0.00 0.00 0.00 0.00 0.00 0.00 0.00 0.00 0.00 0.00 0.00 0.00 0.00 0.00 0.00 0.00 0.00 0.00 0.00
0205722868931382022010508537+33822-116504FM-15+0137KPSP V0200105N002152200059N0160935N5+00785+00005102165ADDAA101000095GA1005+999999999GD10991+9999999GF100991999999999999999999MA1102135100495MD1890079+9999REMMET09601/05/22 00:53:02 METAR KPSP 050853Z 01004KT 10SM CLR 08/00 A3016 RMK AO2 SLP216 T00780000 58007
0186722868931382022010509537+33822-116504FM-15+0137KPSP V0200105N002152200059N0160935N5+00785-00065102115ADDAA101000095GA1005+999999999GD10991+9999999GF100991999999999999999999MA1102105100455REMMET09101/05/22 01:53:02 METAR KPSP 050953Z 01004KT 10SM CLR 08/M01 A3015 RMK AO2 SLP211 T00781006
0186722868931382022010510537+33822-116504FM-15+0137KPSP V0203405N003652200059N0160935N5+00835-00065102115ADDAA101000095GA1005+999999999GD10991+9999999GF100991999999999999999999MA1102105100455REMMET09101/05/22 02:53:02 METAR KPSP 051053Z 34007KT 10SM CLR 08/M01 A3015 RMK AO2 SLP211 T00831006
0243722868931382022010511537+33822-116504FM-15+0137KPSP V0203405N003152200059N0160935N5+00785+00005102085ADDAA101000095GA1005+999999999GD10991+9999999GF100991999999999999999999KA1060M+01001KA2060N+00671MA1102075100425MD1690079+9999REMMET10801/05/22 03:53:02 METAR KPSP 051153Z 34006KT 10SM CLR 08/00 A3014 RMK AO2 SLP208 T00780000 10100 20067 56007
0185722868931382022010512537+33822-116504FM-15+0137KPSP V0209999C000052200059N0160935N5+00725+00005102085ADDAA101000095GA1005+999999999GD10991+9999999GF100991999999999999999999MA1102075100425REMMET09001/05/22 04:53:02 METAR KPSP 051253Z 00000KT 10SM CLR 07/00 A3014 RMK AO2 SLP208 T00720000
0190722868931382022010513537+33822-116504FM-15+0137KPSP V0203405N002152200059N0160935N5+00725+00005102115ADDAA101000095GA1005+999999999GD10991+9999999GF100991999999999999999999MA1102105100455REMMET09501/05/22 05:53:02 METAR KPSP 051353Z 34004KT 10SM CLR 07/00 A3015 RMK AO2 SLP211 T00720000 (ZP)
0210722868931382022010514537+33822-116504FM-15+0137KPSP V0203305N003652200059N0160935N5+00675+00005102125ADDAA101000095GA1005+999999999GD10991+9999999GF100991999999999999999999MA1102105100455MD1390039+9999REMMET10101/05/22 06:53:02 METAR KPSP 051453Z 33007KT 10SM CLR 07/00 A3015 RMK AO2 SLP212 T00670000 53003 (ZP)
0190722868931382022010515537+33822-116504FM-15+0137KPSP V0203505N002152200059N0160935N5+00835+00065102125ADDAA101000095GA1005+999999999GD10991+9999999GF100991999999999999999999MA1102105100455REMMET09501/05/22 07:53:02 METAR KPSP 051553Z 35004KT 10SM CLR 08/01 A3015 RMK AO2 SLP212 T00830006 (ZP)
0190722868931382022010516537+33822-116504FM-15+0137KPSP V0203405N002152200059N0160935N5+01285+00115102195ADDAA101000095GA1005+999999999GD10991+9999999GF100991999999999999999999MA1102175100525REMMET09501/05/22 08:53:02 METAR KPSP 051653Z 34004KT 10SM CLR 13/01 A3017 RMK AO2 SLP219 T01280011 (ZP)
0248722868931382022010517537+33822-116504FM-15+0137KPSP V0209999C000052200059N0160935N5+01725+00065102195ADDAA101000095GA1005+999999999GD10991+9999999GF100991999999999999999999KA1060M+01721KA2060N+00611MA1102205100555MD1390089+9999REMMET11301/05/22 09:53:02 METAR KPSP 051753Z 00000KT 10SM CLR 17/01 A3018 RMK AO2 SLP219 T01720006 10172 20061 53008 (OL)
0191722868931382022010518537+33822-116504FM-15+0137KPSP V0209999C000052200059N0160935N5+01945-00225102105ADDAA101000095GA1005+999999999GD10991+9999999GF100991999999999999999999MA1102105100455REMMET09601/05/22 10:53:02 METAR KPSP 051853Z 00000KT 10SM CLR 19/M02 A3015 RMK AO2 SLP210 T01941022 (OL)
0191722868931382022010519537+33822-116504FM-15+0137KPSP V0209999V001552200059N0160935N5+02005-00225101995ADDAA101000095GA1005+999999999GD10991+9999999GF100991999999999999999999MA1102005100355REMMET09601/05/22 11:53:02 METAR KPSP 051953Z VRB03KT 10SM CLR 20/M02 A3012 RMK AO2 SLP199 T02001022 (OL)
0211722868931382022010520537+33822-116504FM-15+0137KPSP V0201205N002652200059N0160935N5+02115-00335101875ADDAA101000095GA1005+999999999GD10991+9999999GF100991999999999999999999MA1101865100225MD1890319+9999REMMET10201/05/22 12:53:02 METAR KPSP 052053Z 12005KT 10SM CLR 21/M03 A3008 RMK AO2 SLP187 T02111033 58031 (OL)
0191722868931382022010521537+33822-116504FM-15+0137KPSP V0209999V002152200059N0160935N5+02175-00285101815ADDAA101000095GA1005+999999999GD10991+9999999GF100991999999999999999999MA1101795100155REMMET09601/05/22 13:53:02 METAR KPSP 052153Z VRB04KT 10SM CLR 22/M03 A3006 RMK AO2 SLP181 T02171028 (OL)
0191722868931382022010522537+33822-116504FM-15+0137KPSP V0201205N001552200059N0160935N5+02175-00225101785ADDAA101000095GA1005+999999999GD10991+9999999GF100991999999999999999999MA1101795100155REMMET09601/05/22 14:53:02 METAR KPSP 052253Z 12003KT 10SM CLR 22/M02 A3006 RMK AO2 SLP178 T02171022 (GG)
0249722868931382022010523537+33822-116504FM-15+0137KPSP V0200805N002152200059N0160935N5+02175-00335101775ADDAA101000095GA1005+999999999GD10991+9999999GF100991999999999999999999KA1060M+02221KA2060N+01721MA1101765100125MD1690109+9999REMMET11401/05/22 15:53:02 METAR KPSP 052353Z 08004KT 10SM CLR 22/M03 A3005 RMK AO2 SLP177 T02171033 10222 20172 56010 (GG)
0186722868931382022010600537+33822-116504FM-15+0137KPSP V0200905N001552200059N0160935N5+01945-00225101785ADDAA101000095GA1005+999999999GD10991+9999999GF100991999999999999999999MA1101795100155REMMET09101/05/22 16:53:01 METAR KPSP 060053Z 09003KT 10SM CLR 19/M02 A3006 RMK AO2 SLP178 T01941022
0185722868931382022010601537+33822-116504FM-15+0137KPSP V0209999C000052200059N0160935N5+01675+00065101815ADDAA101000095GA1005+999999999GD10991+9999999GF100991999999999999999999MA1101795100155REMMET09001/05/22 17:53:01 METAR KPSP 060153Z 00000KT 10SM CLR 17/01 A3006 RMK AO2 SLP181 T01670006
0205722868931382022010602537+33822-116504FM-15+0137KPSP V0203305N002652200059N0160935N5+01445+00175101845ADDAA101000095GA1005+999999999GD10991+9999999GF100991999999999999999999MA1101835100195MD1390069+9999REMMET09601/05/22 18:53:01 METAR KPSP 060253Z 33005KT 10SM CLR 14/02 A3007 RMK AO2 SLP184 T01440017 53006
0185722868931382022010603537+33822-116504FM-15+0137KPSP V0209999C000052200059N0160935N5+01285+00175101845ADDAA101000095GA1005+999999999GD10991+9999999GF100991999999999999999999MA1101835100195REMMET09001/05/22 19:53:01 METAR KPSP 060353Z 00000KT 10SM CLR 13/02 A3007 RMK AO2 SLP184 T01280017
0185722868931382022010604537+33822-116504FM-15+0137KPSP V0203605N001552200059N0160935N5+01225+00115101845ADDAA101000095GA1005+999999999GD10991+9999999GF100991999999999999999999MA1101835100195REMMET09001/05/22 20:53:02 METAR KPSP 060453Z 36003KT 10SM CLR 12/01 A3007 RMK AO2 SLP184 T01220011
0262722868931382022010605537+33822-116504FM-15+0137KPSP V0209999C000052200059N0160935N5+01225+00115101845ADDAA101000095GA1005+999999999GD10991+9999999GF100991999999999999999999KA1060M+02171KA2060N+01111MA1101835100195MD1190009+9999REMMET10801/05/22 21:53:02 METAR KPSP 060553Z 00000KT 10SM CLR 12/01 A3007 RMK AO2 SLP184 T01220011 10217 20111 51000EQDQ011     3APCTEN
0185722868931382022010606537+33822-116504FM-15+0137KPSP V0203205N001552200059N0160935N5+01175+00175101845ADDAA101000095GA1005+999999999GD10991+9999999GF100991999999999999999999MA1101835100195REMMET09001/05/22 22:53:02 METAR KPSP 060653Z 32003KT 10SM CLR 12/02 A3007 RMK AO2 SLP184 T01170017
0221722868931382022010607537+33822-116504FM-15+0137KPSP V0203205N003652200059N0160935N5+01065+00115101795ADDAA101000095GA1005+999999999GD10991+9999999GF100991999999999999999999KA1240M+02221KA2240N+00611MA1101795100155REMMET10001/05/22 23:53:02 METAR KPSP 060753Z 32007KT 10SM CLR 11/01 A3006 RMK AO2 SLP179 T01060011 402220061
0813722868931382022010607596+33822-116504SOD  +0137KPSP V020999999999999999999999999999+99999+99999999999ADDAA124000095KA1240M+02225KA2240N+00615MG1100304101764OE11240049232099995OE22240044732099995OE33240016199999995REMSOD69224 HR PRECIPITATION (IN): 0.00 24 HR MAX TEMP (F): 7224 HR MIN TEMP (F): 43AVERAGE STATION PRESSURE:29.620 MINIMUM SEA LEVEL PRESSURE:30.05 TIME OF OCCURRENCE:1651 PEAK WIND SPEED (MPH): 11 PEAK WIND DIR (DEG):320 PEAK WIND TIME (LST):      FASTEST 2MIN SPEED (MPH): 10FASTEST 2MIN DIR (DEG):320 FASTEST 2MIN TIME (LST):     AVERAGE WIND SPEED (MPH): 3.6 24 HR AVG TEMP (F): 58DEPART FROM NORMAL:  0  HEATING DEGREE DAYS:  7 COOLING DEGREE DAYS:  0 LATEST DAY MAX TEMP (0700-1900 LST):72  LATEST NIGHT MIN TEMP(1900-0800 LST):43 HOURLY INCREMENTAL PRECIPITATION VALUES (IN):.00 0.00 0.00 0.00 0.00 0.00 0.00 0.00 0.00 0.00 0.00 0.00 0.00 0.00 0.00 0.00 0.00 0.00 0.00 0.00 0.00 0.00 0.00 0.00
0207722868931382022010608537+33822-116504FM-15+0137KPSP V0203105N002152200059N0160935N5+01005+00065101755ADDAA101000095GA1005+999999999GD10991+9999999GF100991999999999999999999MA1101765100125MD1890089+9999REMMET09801/06/22 00:53:02 METAR KPSP 060853Z 31004KT 10SM CLR 10/01 A3005 RMK AO2 SLP175 T01000006 58008 $
0187722868931382022010609537+33822-116504FM-15+0137KPSP V0203405N001552200059N0160935N5+00945+00175101725ADDAA101000095GA1005+999999999GD10991+9999999GF100991999999999999999999MA1101735100095REMMET09201/06/22 01:53:02 METAR KPSP 060953Z 34003KT 10SM CLR 09/02 A3004 RMK AO2 SLP172 T00940017 $
0187722868931382022010610537+33822-116504FM-15+0137KPSP V0209999C000052200059N0160935N5+01005+00115101715ADDAA101000095GA1005+999999999GD10991+9999999GF100991999999999999999999MA1101735100095REMMET09201/06/22 02:53:02 METAR KPSP 061053Z 00000KT 10SM CLR 10/01 A3004 RMK AO2 SLP171 T01000011 $
0245722868931382022010611537+33822-116504FM-15+0137KPSP V0200205N001552200059N0160935N5+00895+00175101715ADDAA101000095GA1005+999999999GD10991+9999999GF100991999999999999999999KA1060M+01221KA2060N+00831MA1101735100095MD1690049+9999REMMET11001/06/22 03:53:02 METAR KPSP 061153Z 02003KT 10SM CLR 09/02 A3004 RMK AO2 SLP171 T00890017 10122 20083 56004 $
0187722868931382022010612537+33822-116504FM-15+0137KPSP V0203105N001552200059N0160935N5+01005+00065101725ADDAA101000095GA1005+999999999GD10991+9999999GF100991999999999999999999MA1101735100095REMMET09201/06/22 04:53:02 METAR KPSP 061253Z 31003KT 10SM CLR 10/01 A3004 RMK AO2 SLP172 T01000006 $
0192722868931382022010613537+33822-116504FM-15+0137KPSP V0202905N002152200059N0160935N5+00835+00175101755ADDAA101000095GA1005+999999999GD10991+9999999GF100991999999999999999999MA1101735100095REMMET09701/06/22 05:53:02 METAR KPSP 061353Z 29004KT 10SM CLR 08/02 A3004 RMK AO2 SLP175 T00830017 $ (WM)
0212722868931382022010614537+33822-116504FM-15+0137KPSP V0203205N002652200059N0160935N5+00945+00115101755ADDAA101000095GA1005+999999999GD10991+9999999GF100991999999999999999999MA1101735100095MD1190039+9999REMMET10301/06/22 06:53:02 METAR KPSP 061453Z 32005KT 10SM CLR 09/01 A3004 RMK AO2 SLP175 T00940011 51003 $ (WM)
0185722868931382022010615537+33822-116504FM-15+0137KPSP V0203305N002652200059N0160935N5+01065+00225101765ADDAA101000095GA1005+999999999GD10991+9999999GF100991999999999999999999MA1101765100125REMMET09001/06/22 07:53:02 METAR KPSP 061553Z 33005KT 10SM CLR 11/02 A3005 RMK AO2 SLP176 T01060022
0185722868931382022010616537+33822-116504FM-15+0137KPSP V0203105N001552200059N0160935N5+01445+00175101795ADDAA101000095GA1005+999999999GD10991+9999999GF100991999999999999999999MA1101795100155REMMET09001/06/22 08:53:02 METAR KPSP 061653Z 31003KT 10SM CLR 14/02 A3006 RMK AO2 SLP179 T01440017
0223722868931382022010617537+33822-116504FM-15+0137KPSP V0209999C000052200059N0160935N5+01895+00285101805ADDAA101000095GA1005+999999999GD10991+9999999GF100991999999999999999999KA1060M+01891KA2060N+00671MA1101795100155REMMET10201/06/22 09:53:02 METAR KPSP 061753Z 00000KT 10SM CLR 19/03 A3006 RMK AO2 SLP180 T01890028 10189 20067
0191722868931382022010618537+33822-116504FM-15+0137KPSP V0209999C000052200059N0160935N5+02065-00065101725ADDAA101000095GA1005+999999999GD10991+9999999GF100991999999999999999999MA1101735100095REMMET09601/06/22 10:53:02 METAR KPSP 061853Z 00000KT 10SM CLR 21/M01 A3004 RMK AO2 SLP172 T02061006 (CM)
0191722868931382022010619537+33822-116504FM-15+0137KPSP V0201305N002152200059N0160935N5+02175-00175101595ADDAA101000095GA1005+999999999GD10991+9999999GF100991999999999999999999MA1101595099955REMMET09601/06/22 11:53:02 METAR KPSP 061953Z 13004KT 10SM CLR 22/M02 A3000 RMK AO2 SLP159 T02171017 (LO)
0211722868931382022010620537+33822-116504FM-15+0137KPSP V0201505N003152200059N0160935N5+02285-00225101455ADDAA101000095GA1005+999999999GD10991+9999999GF100991999999999999999999MA1101465099825MD1890349+9999REMMET10201/06/22 12:53:02 METAR KPSP 062053Z 15006KT 10SM CLR 23/M02 A2996 RMK AO2 SLP145 T02281022 58034 (CM)
0191722868931382022010621537+33822-116504FM-15+0137KPSP V0200905N002152200059N0160935N5+02285-00115101405ADDAA101000095GA1005+999999999GD10991+9999999GF100991999999999999999999MA1101395099755REMMET09601/06/22 13:53:02 METAR KPSP 062153Z 09004KT 10SM CLR 23/M01 A2994 RMK AO2 SLP140 T02281011 (AG)
0191722868931382022010622537+33822-116504FM-15+0137KPSP V0201005N001552200059N0160935N5+02335-00175101345ADDAA101000095GA1005+999999999GD10991+9999999GF100991999999999999999999MA1101355099725REMMET09601/06/22 14:53:02 METAR KPSP 062253Z 10003KT 10SM CLR 23/M02 A2993 RMK AO2 SLP134 T02331017 (AG)
0249722868931382022010623537+33822-116504FM-15+0137KPSP V0200905N001552200059N0160935N5+02285-00065101345ADDAA101000095GA1005+999999999GD10991+9999999GF100991999999999999999999KA1060M+02331KA2060N+01891MA1101355099725MD1690119+9999REMMET11401/06/22 15:53:02 METAR KPSP 062353Z 09003KT 10SM CLR 23/M01 A2993 RMK AO2 SLP134 T02281006 10233 20189 56011 (AG)
0185722868931382022010700537+33822-116504FM-15+0137KPSP V0209999C000052200059N0160935N5+02005+00115101335ADDAA101000095GA1005+999999999GD10991+9999999GF100991999999999999999999MA1101325099685REMMET09001/06/22 16:53:01 METAR KPSP 070053Z 00000KT 10SM CLR 20/01 A2992 RMK AO2 SLP133 T02000011
0185722868931382022010701537+33822-116504FM-15+0137KPSP V0209999C000052200059N0160935N5+01785+00335101355ADDAA101000095GA1005+999999999GD10991+9999999GF100991999999999999999999MA1101355099725REMMET09001/06/22 17:53:01 METAR KPSP 070153Z 00000KT 10SM CLR 18/03 A2993 RMK AO2 SLP135 T01780033
0205722868931382022010702537+33822-116504FM-15+0137KPSP V0203305N002652200059N0160935N5+01615+00285101375ADDAA101000095GA1005+999999999GD10991+9999999GF100991999999999999999999MA1101355099725MD1390029+9999REMMET09601/06/22 18:53:01 METAR KPSP 070253Z 33005KT 10SM CLR 16/03 A2993 RMK AO2 SLP137 T01610028 53002
0185722868931382022010703537+33822-116504FM-15+0137KPSP V0203305N002652200059N0160935N5+01505+00285101385ADDAA101000095GA1005+999999999GD10991+9999999GF100991999999999999999999MA1101355099725REMMET09001/06/22 19:53:01 METAR KPSP 070353Z 33005KT 10SM CLR 15/03 A2993 RMK AO2 SLP138 T01500028
0185722868931382022010704537+33822-116504FM-15+0137KPSP V0203405N002652200059N0160935N5+01335+00285101385ADDAA101000095GA1005+999999999GD10991+9999999GF100991999999999999999999MA1101395099755REMMET09001/06/22 20:53:02 METAR KPSP 070453Z 34005KT 10SM CLR 13/03 A2994 RMK AO2 SLP138 T01330028
0243722868931382022010705537+33822-116504FM-15+0137KPSP V0203305N003652200059N0160935N5+01285+00285101385ADDAA101000095GA1005+999999999GD10991+9999999GF100991999999999999999999KA1060M+02281KA2060N+01221MA1101395099755MD1190029+9999REMMET10801/06/22 21:53:02 METAR KPSP 070553Z 33007KT 10SM CLR 13/03 A2994 RMK AO2 SLP138 T01280028 10228 20122 51002
0185722868931382022010706537+33822-116504FM-15+0137KPSP V0209999C000052200059N0160935N5+01225+00285101375ADDAA101000095GA1005+999999999GD10991+9999999GF100991999999999999999999MA1101395099755REMMET09001/06/22 22:53:02 METAR KPSP 070653Z 00000KT 10SM CLR 12/03 A2994 RMK AO2 SLP137 T01220028
0221722868931382022010707537+33822-116504FM-15+0137KPSP V0203305N002152200059N0160935N5+01175+00285101345ADDAA101000095GA1005+999999999GD10991+9999999GF100991999999999999999999KA1240M+02331KA2240N+00671MA1101355099725REMMET10001/06/22 23:53:02 METAR KPSP 070753Z 33004KT 10SM CLR 12/03 A2993 RMK AO2 SLP134 T01170028 402330067
0813722868931382022010707596+33822-116504SOD  +0137KPSP V020999999999999999999999999999+99999+99999999999ADDAA124000095KA1240M+02335KA2240N+00675MG1099904101324OE11240049234099995OE22240040233099995OE33240016199999995REMSOD69224 HR PRECIPITATION (IN): 0.00 24 HR MAX TEMP (F): 7424 HR MIN TEMP (F): 44AVERAGE STATION PRESSURE:29.500 MINIMUM SEA LEVEL PRESSURE:29.92 TIME OF OCCURRENCE:2350 PEAK WIND SPEED (MPH): 11 PEAK WIND DIR (DEG):340 PEAK WIND TIME (LST):      FASTEST 2MIN SPEED (MPH):  9FASTEST 2MIN DIR (DEG):330 FASTEST 2MIN TIME (LST):     AVERAGE WIND SPEED (MPH): 3.6 24 HR AVG TEMP (F): 59DEPART FROM NORMAL:  1  HEATING DEGREE DAYS:  6 COOLING DEGREE DAYS:  0 LATEST DAY MAX TEMP (0700-1900 LST):74  LATEST NIGHT MIN TEMP(1900-0800 LST):44 HOURLY INCREMENTAL PRECIPITATION VALUES (IN):.00 0.00 0.00 0.00 0.00 0.00 0.00 0.00 0.00 0.00 0.00 0.00 0.00 0.00 0.00 0.00 0.00 0.00 0.00 0.00 0.00 0.00 0.00 0.00
0205722868931382022010708537+33822-116504FM-15+0137KPSP V0209999C000052200059N0160935N5+00945+00395101325ADDAA101000095GA1005+999999999GD10991+9999999GF100991999999999999999999MA1101325099685MD1890069+9999REMMET09601/07/22 00:53:02 METAR KPSP 070853Z 00000KT 10SM CLR 09/04 A2992 RMK AO2 SLP132 T00940039 58006
0187722868931382022010709537+33822-116504FM-15+0137KPSP V0203305N002652200059N0160935N5+01065+00285101315ADDAA101000095GA1005+999999999GD10991+9999999GF100991999999999999999999MA1101325099685REMMET09201/07/22 01:53:02 METAR KPSP 070953Z 33005KT 10SM CLR 11/03 A2992 RMK AO2 SLP131 T01060028 $
0187722868931382022010710537+33822-116504FM-15+0137KPSP V0203305N003152200059N0160935N5+01065+00285101275ADDAA101000095GA1005+999999999GD10991+9999999GF100991999999999999999999MA1101295099655REMMET09201/07/22 02:53:02 METAR KPSP 071053Z 33006KT 10SM CLR 11/03 A2991 RMK AO2 SLP127 T01060028 $
0245722868931382022010711537+33822-116504FM-15+0137KPSP V0203205N003152200059N0160935N5+01005+00285101215ADDAA101000095GA1005+999999999GD10991+9999999GF100991999999999999999999KA1060M+01331KA2060N+00941MA1101225099585MD1890109+9999REMMET11001/07/22 03:53:02 METAR KPSP 071153Z 32006KT 10SM CLR 10/03 A2989 RMK AO2 SLP121 T01000028 10133 20094 58010 $
0187722868931382022010712537+33822-116504FM-15+0137KPSP V0209999C000052200059N0160935N5+00835+00335101215ADDAA101000095GA1005+999999999GD10991+9999999GF100991999999999999999999MA1101225099585REMMET09201/07/22 04:53:02 METAR KPSP 071253Z 00000KT 10SM CLR 08/03 A2989 RMK AO2 SLP121 T00830033 $
0192722868931382022010713537+33822-116504FM-15+0137KPSP V0203305N004652200059N0160935N5+00895+00285101265ADDAA101000095GA1005+999999999GD10991+9999999GF100991999999999999999999MA1101255099625REMMET09701/07/22 05:53:02 METAR KPSP 071353Z 33009KT 10SM CLR 09/03 A2990 RMK AO2 SLP126 T00890028 $ (LO)
0212722868931382022010714537+33822-116504FM-15+0137KPSP V0203305N002652200059N0160935N5+00945+00285101305ADDAA101000095GA1005+999999999GD10991+9999999GF100991999999999999999999MA1101295099655MD1390079+9999REMMET10301/07/22 06:53:02 METAR KPSP 071453Z 33005KT 10SM CLR 09/03 A2991 RMK AO2 SLP130 T00940028 53007 $ (LO)
0174722868931382022010715437+33822-116504FM-16+0137KPSP V0203405N003652200059N0160935N5+01005+00285999999ADDGA1005+999999999GD10991+9999999GF100991999999999999999999MA1101325099685REMMET09001/07/22 07:43:02 SPECI KPSP 071543Z 34007KT 10SM CLR 10/03 A2992 RMK AO2 T01000028 $ (LO)
0190722868931382022010715537+33822-116504FM-15+0137KPSP V0203305N002652200059N0160935N5+01065+00285101345ADDAA101000095GA1005+999999999GD10991+9999999GF100991999999999999999999MA1101325099685REMMET09501/07/22 07:53:02 METAR KPSP 071553Z 33005KT 10SM CLR 11/03 A2992 RMK AO2 SLP134 T01060028 (LO)
0190722868931382022010716537+33822-116504FM-15+0137KPSP V0209999C000052200059N0160935N5+01505+00285101375ADDAA101000095GA1005+999999999GD10991+9999999GF100991999999999999999999MA1101395099755REMMET09501/07/22 08:53:02 METAR KPSP 071653Z 00000KT 10SM CLR 15/03 A2994 RMK AO2 SLP137 T01500028 (CM)
0228722868931382022010717537+33822-116504FM-15+0137KPSP V0209999C000052200059N0160935N5+01785+00285101355ADDAA101000095GA1005+999999999GD10991+9999999GF100991999999999999999999KA1060M+01781KA2060N+00831MA1101355099725REMMET10701/07/22 09:53:02 METAR KPSP 071753Z 00000KT 10SM CLR 18/03 A2993 RMK AO2 SLP135 T01780028 10178 20083 (CM)
0190722868931382022010718537+33822-116504FM-15+0137KPSP V0209999C000052200059N0160935N5+01945+00175101305ADDAA101000095GA1005+999999999GD10991+9999999GF100991999999999999999999MA1101295099655REMMET09501/07/22 10:53:02 METAR KPSP 071853Z 00000KT 10SM CLR 19/02 A2991 RMK AO2 SLP130 T01940017 (KS)
0190722868931382022010719537+33822-116504FM-15+0137KPSP V0201305N002152200059N0160935N5+02065+00175101205ADDAA101000095GA1005+999999999GD10991+9999999GF100991999999999999999999MA1101195099555REMMET09501/07/22 11:53:02 METAR KPSP 071953Z 13004KT 10SM CLR 21/02 A2988 RMK AO2 SLP120 T02060017 (KS)
0212722868931382022010720537+33822-116504FM-15+0137KPSP V0201005N004152200059N0160935N5+02175+00065101075ADDAA101000095GA1005+999999999GD10991+9999999GF100991999999999999999999MA1101085099455MD1890289+9999REMMET10301/07/22 12:53:02 METAR KPSP 072053Z 10008KT 10SM CLR 22/01 A2985 RMK AO2 SLP107 T02170006 58028 $ (KS)
0192722868931382022010721537+33822-116504FM-15+0137KPSP V0201305N003652200059N0160935N5+02175+00065101025ADDAA101000095GA1005+999999999GD10991+9999999GF100991999999999999999999MA1101025099385REMMET09701/07/22 13:53:02 METAR KPSP 072153Z 13007KT 10SM CLR 22/01 A2983 RMK AO2 SLP102 T02170006 $ (KS)
0190722868931382022010722537+33822-116504FM-15+0137KPSP V0201005N003652200059N0160935N5+02225+00065100975ADDAA101000095GA1005+999999999GD10991+9999999GF100991999999999999999999MA1100985099355REMMET09501/07/22 14:53:02 METAR KPSP 072253Z 10007KT 10SM CLR 22/01 A2982 RMK AO2 SLP097 T02220006 (KS)
0248722868931382022010723537+33822-116504FM-15+0137KPSP V0200905N003652200059N0160935N5+02115+00115100975ADDAA101000095GA1005+999999999GD10991+9999999GF100991999999999999999999KA1060M+02221KA2060N+01831MA1100985099355MD1690109+9999REMMET11301/07/22 15:53:02 METAR KPSP 072353Z 09007KT 10SM CLR 21/01 A2982 RMK AO2 SLP097 T02110011 10222 20183 56010 (KS)
0185722868931382022010800537+33822-116504FM-15+0137KPSP V0201205N003152200059N0160935N5+01945+00005100995ADDAA101000095GA1005+999999999GD10991+9999999GF100991999999999999999999MA1100985099355REMMET09001/07/22 16:53:01 METAR KPSP 080053Z 12006KT 10SM CLR 19/00 A2982 RMK AO2 SLP099 T01940000
0185722868931382022010801537+33822-116504FM-15+0137KPSP V0200805N001552200059N0160935N5+01785+00115101045ADDAA101000095GA1005+999999999GD10991+9999999GF100991999999999999999999MA1101055099425REMMET09001/07/22 17:53:01 METAR KPSP 080153Z 08003KT 10SM CLR 18/01 A2984 RMK AO2 SLP104 T01780011
0205722868931382022010802537+33822-116504FM-15+0137KPSP V0201605N001552200059N0160935N5+01615+00005101075ADDAA101000095GA1005+999999999GD10991+9999999GF100991999999999999999999MA1101055099425MD1190089+9999REMMET09601/07/22 18:53:01 METAR KPSP 080253Z 16003KT 10SM CLR 16/00 A2984 RMK AO2 SLP107 T01610000 51008
0167722868931382022010803297+33822-116504FM-16+0137KPSP V0209999C000052200059N0160935N5+01615+00115999999ADDGA1005+999999999GD10991+9999999GF100991999999999999999999MA1101125099485REMMET08301/07/22 19:29:01 SPECI KPSP 080329Z 00000KT 10SM CLR 16/01 A2986 RMK AO2 T01610011
0185722868931382022010803537+33822-116504FM-15+0137KPSP V0202305N002152200059N0160935N5+01505+00175101105ADDAA101000095GA1005+999999999GD10991+9999999GF100991999999999999999999MA1101085099455REMMET09001/07/22 19:53:02 METAR KPSP 080353Z 23004KT 10SM CLR 15/02 A2985 RMK AO2 SLP110 T01500017
0185722868931382022010804537+33822-116504FM-15+0137KPSP V0203005N001552200059N0160935N5+01565+00335101105ADDAA101000095GA1005+999999999GD10991+9999999GF100991999999999999999999MA1101125099485REMMET09001/07/22 20:53:02 METAR KPSP 080453Z 30003KT 10SM CLR 16/03 A2986 RMK AO2 SLP110 T01560033
0243722868931382022010805537+33822-116504FM-15+0137KPSP V0202505N002152200059N0160935N5+01505+00335101075ADDAA101000095GA1005+999999999GD10991+9999999GF100991999999999999999999KA1060M+02111KA2060N+01441MA1101085099455MD1090029+9999REMMET10801/07/22 21:53:02 METAR KPSP 080553Z 25004KT 10SM CLR 15/03 A2985 RMK AO2 SLP107 T01500033 10211 20144 50002
0185722868931382022010806537+33822-116504FM-15+0137KPSP V0209999C000052200059N0160935N5+01445+00395101065ADDAA101000095GA1005+999999999GD10991+9999999GF100991999999999999999999MA1101085099455REMMET09001/07/22 22:53:02 METAR KPSP 080653Z 00000KT 10SM CLR 14/04 A2985 RMK AO2 SLP106 T01440039
0221722868931382022010807537+33822-116504FM-15+0137KPSP V0203005N001552200059N0160935N5+01565+00565101045ADDAA101000095GA1005+999999999GD10991+9999999GF100991999999999999999999KA1240M+02221KA2240N+00831MA1101055099425REMMET10001/07/22 23:53:02 METAR KPSP 080753Z 30003KT 10SM CLR 16/06 A2984 RMK AO2 SLP104 T01560056 402220083
0813722868931382022010807596+33822-116504SOD  +0137KPSP V020999999999999999999999999999+99999+99999999999ADDAA124000095KA1240M+02225KA2240N+00835MG1099514100954OE11240067136099995OE22240040209099995OE33240020699999995REMSOD69224 HR PRECIPITATION (IN): 0.00 24 HR MAX TEMP (F): 7224 HR MIN TEMP (F): 47AVERAGE STATION PRESSURE:29.385 MINIMUM SEA LEVEL PRESSURE:29.81 TIME OF OCCURRENCE:1547 PEAK WIND SPEED (MPH): 15 PEAK WIND DIR (DEG):360 PEAK WIND TIME (LST):      FASTEST 2MIN SPEED (MPH):  9FASTEST 2MIN DIR (DEG): 90 FASTEST 2MIN TIME (LST):     AVERAGE WIND SPEED (MPH): 4.6 24 HR AVG TEMP (F): 60DEPART FROM NORMAL:  2  HEATING DEGREE DAYS:  5 COOLING DEGREE DAYS:  0 LATEST DAY MAX TEMP (0700-1900 LST):72  LATEST NIGHT MIN TEMP(1900-0800 LST):47 HOURLY INCREMENTAL PRECIPITATION VALUES (IN):.00 0.00 0.00 0.00 0.00 0.00 0.00 0.00 0.00 0.00 0.00 0.00 0.00 0.00 0.00 0.00 0.00 0.00 0.00 0.00 0.00 0.00 0.00 0.00
0205722868931382022010808537+33822-116504FM-15+0137KPSP V0209999C000052200059N0160935N5+01445+00445101035ADDAA101000095GA1005+999999999GD10991+9999999GF100991999999999999999999MA1101055099425MD1890049+9999REMMET09601/08/22 00:53:02 METAR KPSP 080853Z 00000KT 10SM CLR 14/04 A2984 RMK AO2 SLP103 T01440044 58004
0185722868931382022010809537+33822-116504FM-15+0137KPSP V0209999C000052200059N0160935N5+01335+00505101045ADDAA101000095GA1005+999999999GD10991+9999999GF100991999999999999999999MA1101055099425REMMET09001/08/22 01:53:02 METAR KPSP 080953Z 00000KT 10SM CLR 13/05 A2984 RMK AO2 SLP104 T01330050
0185722868931382022010810537+33822-116504FM-15+0137KPSP V0202305N001552200059N0160935N5+01115+00445101105ADDAA101000095GA1005+999999999GD10991+9999999GF100991999999999999999999MA1101125099485REMMET09001/08/22 02:53:02 METAR KPSP 081053Z 23003KT 10SM CLR 11/04 A2986 RMK AO2 SLP110 T01110044
0243722868931382022010811537+33822-116504FM-15+0137KPSP V0202505N002152200059N0160935N5+01395+00395101175ADDAA101000095GA1005+999999999GD10991+9999999GF100991999999999999999999KA1060M+01561KA2060N+01111MA1101195099555MD1390149+9999REMMET10801/08/22 03:53:02 METAR KPSP 081153Z 25004KT 10SM CLR 14/04 A2988 RMK AO2 SLP117 T01390039 10156 20111 53014
0185722868931382022010812537+33822-116504FM-15+0137KPSP V0202905N003152200059N0160935N5+01285+00335101205ADDAA101000095GA1005+999999999GD10991+9999999GF100991999999999999999999MA1101195099555REMMET09001/08/22 04:53:02 METAR KPSP 081253Z 29006KT 10SM CLR 13/03 A2988 RMK AO2 SLP120 T01280033
0190722868931382022010813537+33822-116504FM-15+0137KPSP V0202505N001552200059N0160935N5+01335+00395101335ADDAA101000095GA1005+999999999GD10991+9999999GF100991999999999999999999MA1101325099685REMMET09501/08/22 05:53:02 METAR KPSP 081353Z 25003KT 10SM CLR 13/04 A2992 RMK AO2 SLP133 T01330039 (CM)
0210722868931382022010814537+33822-116504FM-15+0137KPSP V0202605N002152200059N0160935N5+01115+00335101455ADDAA101000095GA1005+999999999GD10991+9999999GF100991999999999999999999MA1101465099825MD1390269+9999REMMET10101/08/22 06:53:02 METAR KPSP 081453Z 26004KT 10SM CLR 11/03 A2996 RMK AO2 SLP145 T01110033 53026 (CM)
0190722868931382022010815537+33822-116504FM-15+0137KPSP V0209999C000052200059N0160935N5+01175+00335101555ADDAA101000095GA1005+999999999GD10991+9999999GF100991999999999999999999MA1101565099925REMMET09501/08/22 07:53:02 METAR KPSP 081553Z 00000KT 10SM CLR 12/03 A2999 RMK AO2 SLP155 T01170033 (CM)
0190722868931382022010816537+33822-116504FM-15+0137KPSP V0209999C000052200059N0160935N5+01615+00395101615ADDAA101000095GA1005+999999999GD10991+9999999GF100991999999999999999999MA1101635099995REMMET09501/08/22 08:53:02 METAR KPSP 081653Z 00000KT 10SM CLR 16/04 A3001 RMK AO2 SLP161 T01610039 (CM)
0248722868931382022010817537+33822-116504FM-15+0137KPSP V0209999C000052200059N0160935N5+01835+00335101675ADDAA101000095GA1005+999999999GD10991+9999999GF100991999999999999999999KA1060M+01831KA2060N+01001MA1101695100055MD1190239+9999REMMET11301/08/22 09:53:02 METAR KPSP 081753Z 00000KT 10SM CLR 18/03 A3003 RMK AO2 SLP167 T01830033 10183 20100 51023 (CM)
0190722868931382022010818537+33822-116504FM-15+0137KPSP V0203205N001552200059N0160935N5+02005+00285101655ADDAA101000095GA1005+999999999GD10991+9999999GF100991999999999999999999MA1101665100025REMMET09501/08/22 10:53:02 METAR KPSP 081853Z 32003KT 10SM CLR 20/03 A3002 RMK AO2 SLP165 T02000028 (CM)
0190722868931382022010819537+33822-116504FM-15+0137KPSP V0209999V003152200059N0160935N5+02175+00285101575ADDAA101000095GA1005+999999999GD10991+9999999GF100991999999999999999999MA1101595099955REMMET09501/08/22 11:53:02 METAR KPSP 081953Z VRB06KT 10SM CLR 22/03 A3000 RMK AO2 SLP157 T02170028 (ZP)
0210722868931382022010820537+33822-116504FM-15+0137KPSP V0202005N001552200059N0160935N5+02225+00225101525ADDAA101000095GA1005+999999999GD10991+9999999GF100991999999999999999999MA1101525099895MD1890159+9999REMMET10101/08/22 12:53:02 METAR KPSP 082053Z 20003KT 10SM CLR 22/02 A2998 RMK AO2 SLP152 T02220022 58015 (ZP)
0190722868931382022010821537+33822-116504FM-15+0137KPSP V0209999V001552200059N0160935N5+02395+00005101515ADDAA101000095GA1005+999999999GD10991+9999999GF100991999999999999999999MA1101525099895REMMET09501/08/22 13:53:02 METAR KPSP 082153Z VRB03KT 10SM CLR 24/00 A2998 RMK AO2 SLP151 T02390000 (ZP)
0191722868931382022010822537+33822-116504FM-15+0137KPSP V0202605N002652200059N0160935N5+02395-00225101515ADDAA101000095GA1005+999999999GD10991+9999999GF100991999999999999999999MA1101525099895REMMET09601/08/22 14:53:02 METAR KPSP 082253Z 26005KT 10SM CLR 24/M02 A2998 RMK AO2 SLP151 T02391022 (ZP)
0249722868931382022010823537+33822-116504FM-15+0137KPSP V0202805N001552200059N0160935N5+02335-00285101565ADDAA101000095GA1005+999999999GD10991+9999999GF100991999999999999999999KA1060M+02441KA2060N+01831MA1101565099925MD1390039+9999REMMET11401/08/22 15:53:02 METAR KPSP 082353Z 28003KT 10SM CLR 23/M03 A2999 RMK AO2 SLP156 T02331028 10244 20183 53003 (ZP)
0186722868931382022010900537+33822-116504FM-15+0137KPSP V0203505N004152200059N0160935N5+02175-00505101645ADDAA101000095GA1005+999999999GD10991+9999999GF100991999999999999999999MA1101665100025REMMET09101/08/22 16:53:01 METAR KPSP 090053Z 35008KT 10SM CLR 22/M05 A3002 RMK AO2 SLP164 T02171050
0186722868931382022010901537+33822-116504FM-15+0137KPSP V0203105N003152200059N0160935N5+02115-00505101765ADDAA101000095GA1005+999999999GD10991+9999999GF100991999999999999999999MA1101765100125REMMET09101/08/22 17:53:01 METAR KPSP 090153Z 31006KT 10SM CLR 21/M05 A3005 RMK AO2 SLP176 T02111050
0206722868931382022010902537+33822-116504FM-15+0137KPSP V0203205N001552200059N0160935N5+01945-00445101885ADDAA101000095GA1005+999999999GD10991+9999999GF100991999999999999999999MA1101865100225MD1390309+9999REMMET09701/08/22 18:53:01 METAR KPSP 090253Z 32003KT 10SM CLR 19/M04 A3008 RMK AO2 SLP188 T01941044 53030
0185722868931382022010903537+33822-116504FM-15+0137KPSP V0209999C000052200059N0160935N5+01615+00225101975ADDAA101000095GA1005+999999999GD10991+9999999GF100991999999999999999999MA1101965100325REMMET09001/08/22 19:53:02 METAR KPSP 090353Z 00000KT 10SM CLR 16/02 A3011 RMK AO2 SLP197 T01610022
0185722868931382022010904537+33822-116504FM-15+0137KPSP V0202605N001552200059N0160935N5+01445+00115102075ADDAA101000095GA1005+999999999GD10991+9999999GF100991999999999999999999MA1102075100425REMMET09001/08/22 20:53:02 METAR KPSP 090453Z 26003KT 10SM CLR 14/01 A3014 RMK AO2 SLP207 T01440011
0244722868931382022010905537+33822-116504FM-15+0137KPSP V0202905N002152200059N0160935N5+01445-00175102145ADDAA101000095GA1005+999999999GD10991+9999999GF100991999999999999999999KA1060M+02331KA2060N+01391MA1102135100495MD1190279+9999REMMET10901/08/22 21:53:02 METAR KPSP 090553Z 29004KT 10SM CLR 14/M02 A3016 RMK AO2 SLP214 T01441017 10233 20139 51027
0186722868931382022010906537+33822-116504FM-15+0137KPSP V0202705N002152200059N0160935N5+01505-00175102195ADDAA101000095GA1005+999999999GD10991+9999999GF100991999999999999999999MA1102205100555REMMET09101/08/22 22:53:02 METAR KPSP 090653Z 27004KT 10SM CLR 15/M02 A3018 RMK AO2 SLP219 T01501017
0222722868931382022010907537+33822-116504FM-15+0137KPSP V0203505N003152200059N0160935N5+01225-00115102235ADDAA101000095GA1005+999999999GD10991+9999999GF100991999999999999999999KA1240M+02441KA2240N+01001MA1102245100595REMMET10101/08/22 23:53:02 METAR KPSP 090753Z 35006KT 10SM CLR 12/M01 A3019 RMK AO2 SLP223 T01221011 402440100
0813722868931382022010907596+33822-116504SOD  +0137KPSP V020999999999999999999999999999+99999+99999999999ADDAA124000095KA1240M+02445KA2240N+01005MG1099984101024OE11240093930099995OE22240062629099995OE33240016599999995REMSOD69224 HR PRECIPITATION (IN): 0.00 24 HR MAX TEMP (F): 7624 HR MIN TEMP (F): 50AVERAGE STATION PRESSURE:29.525 MINIMUM SEA LEVEL PRESSURE:29.83 TIME OF OCCURRENCE:0131 PEAK WIND SPEED (MPH): 21 PEAK WIND DIR (DEG):300 PEAK WIND TIME (LST):      FASTEST 2MIN SPEED (MPH): 14FASTEST 2MIN DIR (DEG):290 FASTEST 2MIN TIME (LST):     AVERAGE WIND SPEED (MPH): 3.7 24 HR AVG TEMP (F): 63DEPART FROM NORMAL:  5  HEATING DEGREE DAYS:  2 COOLING DEGREE DAYS:  0 LATEST DAY MAX TEMP (0700-1900 LST):76  LATEST NIGHT MIN TEMP(1900-0800 LST):50 HOURLY INCREMENTAL PRECIPITATION VALUES (IN):.00 0.00 0.00 0.00 0.00 0.00 0.00 0.00 0.00 0.00 0.00 0.00 0.00 0.00 0.00 0.00 0.00 0.00 0.00 0.00 0.00 0.00 0.00 0.00
0206722868931382022010908537+33822-116504FM-15+0137KPSP V0203305N003652200059N0160935N5+01175-00115102265ADDAA101000095GA1005+999999999GD10991+9999999GF100991999999999999999999MA1102275100625MD1190119+9999REMMET09701/09/22 00:53:02 METAR KPSP 090853Z 33007KT 10SM CLR 12/M01 A3020 RMK AO2 SLP226 T01171011 51011
0186722868931382022010909537+33822-116504FM-15+0137KPSP V0202605N003152200059N0160935N5+01395-00335102295ADDAA101000095GA1005+999999999GD10991+9999999GF100991999999999999999999MA1102305100655REMMET09101/09/22 01:53:02 METAR KPSP 090953Z 26006KT 10SM CLR 14/M03 A3021 RMK AO2 SLP229 T01391033
0186722868931382022010910537+33822-116504FM-15+0137KPSP V0202805N002652200059N0160935N5+01395-00335102325ADDAA101000095GA1005+999999999GD10991+9999999GF100991999999999999999999MA1102345100695REMMET09101/09/22 02:53:02 METAR KPSP 091053Z 28005KT 10SM CLR 14/M03 A3022 RMK AO2 SLP232 T01391033
0244722868931382022010911537+33822-116504FM-15+0137KPSP V0202605N003152200059N0160935N5+01395-00285102335ADDAA101000095GA1005+999999999GD10991+9999999GF100991999999999999999999KA1060M+01561KA2060N+01171MA1102345100695MD1190079+9999REMMET10901/09/22 03:53:02 METAR KPSP 091153Z 26006KT 10SM CLR 14/M03 A3022 RMK AO2 SLP233 T01391028 10156 20117 51007
0186722868931382022010912537+33822-116504FM-15+0137KPSP V0209999V002152200059N0160935N5+01285-00175102375ADDAA101000095GA1005+999999999GD10991+9999999GF100991999999999999999999MA1102375100725REMMET09101/09/22 04:53:02 METAR KPSP 091253Z VRB04KT 10SM CLR 13/M02 A3023 RMK AO2 SLP237 T01281017
0191722868931382022010913537+33822-116504FM-15+0137KPSP V0202705N002652200059N0160935N5+01395-00225102475ADDAA101000095GA1005+999999999GD10991+9999999GF100991999999999999999999MA1102475100825REMMET09601/09/22 05:53:02 METAR KPSP 091353Z 27005KT 10SM CLR 14/M02 A3026 RMK AO2 SLP247 T01391022 (TF)
0211722868931382022010914537+33822-116504FM-15+0137KPSP V0202705N002652200059N0160935N5+01225-00175102575ADDAA101000095GA1005+999999999GD10991+9999999GF100991999999999999999999MA1102575100925MD1390239+9999REMMET10201/09/22 06:53:02 METAR KPSP 091453Z 27005KT 10SM CLR 12/M02 A3029 RMK AO2 SLP257 T01221017 53023 (TF)
0191722868931382022010915537+33822-116504FM-15+0137KPSP V0202905N002152200059N0160935N5+01505-00225102655ADDAA101000095GA1005+999999999GD10991+9999999GF100991999999999999999999MA1102645100995REMMET09601/09/22 07:53:02 METAR KPSP 091553Z 29004KT 10SM CLR 15/M02 A3031 RMK AO2 SLP265 T01501022 (TF)
0191722868931382022010916537+33822-116504FM-15+0137KPSP V0202505N002652200059N0160935N5+01785-00175102715ADDAA101000095GA1005+999999999GD10991+9999999GF100991999999999999999999MA1102715101065REMMET09601/09/22 08:53:02 METAR KPSP 091653Z 25005KT 10SM CLR 18/M02 A3033 RMK AO2 SLP271 T01781017 (TF)
0249722868931382022010917537+33822-116504FM-15+0137KPSP V0209999V003152200059N0160935N5+02115-00565102765ADDAA101000095GA1005+999999999GD10991+9999999GF100991999999999999999999KA1060M+02111KA2060N+01001MA1102785101125MD1190199+9999REMMET11401/09/22 09:53:02 METAR KPSP 091753Z VRB06KT 10SM CLR 21/M06 A3035 RMK AO2 SLP276 T02111056 10211 20100 51019 (AG)
0191722868931382022010918537+33822-116504FM-15+0137KPSP V0202905N002652200059N0160935N5+02225-00565102755ADDAA101000095GA1005+999999999GD10991+9999999GF100991999999999999999999MA1102745101095REMMET09601/09/22 10:53:02 METAR KPSP 091853Z 29005KT 10SM CLR 22/M06 A3034 RMK AO2 SLP275 T02221056 (AG)
0191722868931382022010919537+33822-116504FM-15+0137KPSP V0202205N002652200059N0160935N5+02285-00615102675ADDAA101000095GA1005+999999999GD10991+9999999GF100991999999999999999999MA1102685101025REMMET09601/09/22 11:53:02 METAR KPSP 091953Z 22005KT 10SM CLR 23/M06 A3032 RMK AO2 SLP267 T02281061 (AG)
0211722868931382022010920537+33822-116504FM-15+0137KPSP V0202205N002152200059N0160935N5+02285-00615102605ADDAA101000095GA1005+999999999GD10991+9999999GF100991999999999999999999MA1102615100955MD1890159+9999REMMET10201/09/22 12:53:02 METAR KPSP 092053Z 22004KT 10SM CLR 23/M06 A3030 RMK AO2 SLP260 T02281061 58015 (AG)
0191722868931382022010921537+33822-116504FM-15+0137KPSP V0209999V002152200059N0160935N5+02395-00565102555ADDAA101000095GA1005+999999999GD10991+9999999GF100991999999999999999999MA1102575100925REMMET09601/09/22 13:53:02 METAR KPSP 092153Z VRB04KT 10SM CLR 24/M06 A3029 RMK AO2 SLP255 T02391056 (AG)
0191722868931382022010922537+33822-116504FM-15+0137KPSP V0209999V001552200059N0160935N5+02335-00505102585ADDAA101000095GA1005+999999999GD10991+9999999GF100991999999999999999999MA1102575100925REMMET09601/09/22 14:53:02 METAR KPSP 092253Z VRB03KT 10SM CLR 23/M05 A3029 RMK AO2 SLP258 T02331050 (CM)
0249722868931382022010923537+33822-116504FM-15+0137KPSP V0201805N002152200059N0160935N5+02335-00445102615ADDAA101000095GA1005+999999999GD10991+9999999GF100991999999999999999999KA1060M+02391KA2060N+02111MA1102615100955MD1390019+9999REMMET11401/09/22 15:53:02 METAR KPSP 092353Z 18004KT 10SM CLR 23/M04 A3030 RMK AO2 SLP261 T02331044 10239 20211 53001 (AG)
0186722868931382022011000537+33822-116504FM-15+0137KPSP V0209999C000052200059N0160935N5+02065-00285102675ADDAA101000095GA1005+999999999GD10991+9999999GF100991999999999999999999MA1102685101025REMMET09101/09/22 16:53:01 METAR KPSP 100053Z 00000KT 10SM CLR 21/M03 A3032 RMK AO2 SLP267 T02061028
0186722868931382022011001537+33822-116504FM-15+0137KPSP V0202905N003152200059N0160935N5+01945-00175102745ADDAA101000095GA1005+999999999GD10991+9999999GF100991999999999999999999MA1102745101095REMMET09101/09/22 17:53:01 METAR KPSP 100153Z 29006KT 10SM CLR 19/M02 A3034 RMK AO2 SLP274 T01941017
0206722868931382022011002537+33822-116504FM-15+0137KPSP V0202905N002152200059N0160935N5+01835-00225102815ADDAA101000095GA1005+999999999GD10991+9999999GF100991999999999999999999MA1102815101165MD1390199+9999REMMET09701/09/22 18:53:01 METAR KPSP 100253Z 29004KT 10SM CLR 18/M02 A3036 RMK AO2 SLP281 T01831022 53019
0186722868931382022011003537+33822-116504FM-15+0137KPSP V0202605N003152200059N0160935N5+01725-00175102875ADDAA101000095GA1005+999999999GD10991+9999999GF100991999999999999999999MA1102885101225REMMET09101/09/22 19:53:01 METAR KPSP 100353Z 26006KT 10SM CLR 17/M02 A3038 RMK AO2 SLP287 T01721017
0186722868931382022011004537+33822-116504FM-15+0137KPSP V0202805N003152200059N0160935N5+01675-00225102915ADDAA101000095GA1005+999999999GD10991+9999999GF100991999999999999999999MA1102915101265REMMET09101/09/22 20:53:02 METAR KPSP 100453Z 28006KT 10SM CLR 17/M02 A3039 RMK AO2 SLP291 T01671022
0244722868931382022011005537+33822-116504FM-15+0137KPSP V0202605N002652200059N0160935N5+01615-00225102935ADDAA101000095GA1005+999999999GD10991+9999999GF100991999999999999999999KA1060M+02331KA2060N+01611MA1102955101295MD1190139+9999REMMET10901/09/22 21:53:02 METAR KPSP 100553Z 26005KT 10SM CLR 16/M02 A3040 RMK AO2 SLP293 T01611022 10233 20161 51013
0186722868931382022011006537+33822-116504FM-15+0137KPSP V0202705N002652200059N0160935N5+01615-00225102935ADDAA101000095GA1005+999999999GD10991+9999999GF100991999999999999999999MA1102955101295REMMET09101/09/22 22:53:02 METAR KPSP 100653Z 27005KT 10SM CLR 16/M02 A3040 RMK AO2 SLP293 T01611022
0222722868931382022011007537+33822-116504FM-15+0137KPSP V0202405N003152200059N0160935N5+01615-00285102915ADDAA101000095GA1005+999999999GD10991+9999999GF100991999999999999999999KA1240M+02391KA2240N+01001MA1102915101265REMMET10101/09/22 23:53:02 METAR KPSP 100753Z 24006KT 10SM CLR 16/M03 A3039 RMK AO2 SLP291 T01611028 402390100
0813722868931382022011007596+33822-116504SOD  +0137KPSP V020999999999999999999999999999+99999+99999999999ADDAA124000095KA1240M+02395KA2240N+01005MG1101004102244OE11240062629099995OE22240040215099995OE33240025099999995REMSOD69224 HR PRECIPITATION (IN): 0.00 24 HR MAX TEMP (F): 7524 HR MIN TEMP (F): 50AVERAGE STATION PRESSURE:29.825 MINIMUM SEA LEVEL PRESSURE:30.19 TIME OF OCCURRENCE:0047 PEAK WIND SPEED (MPH): 14 PEAK WIND DIR (DEG):290 PEAK WIND TIME (LST):      FASTEST 2MIN SPEED (MPH):  9FASTEST 2MIN DIR (DEG):150 FASTEST 2MIN TIME (LST):     AVERAGE WIND SPEED (MPH): 5.6 24 HR AVG TEMP (F): 63DEPART FROM NORMAL:  4  HEATING DEGREE DAYS:  2 COOLING DEGREE DAYS:  0 LATEST DAY MAX TEMP (0700-1900 LST):75  LATEST NIGHT MIN TEMP(1900-0800 LST):50 HOURLY INCREMENTAL PRECIPITATION VALUES (IN):.00 0.00 0.00 0.00 0.00 0.00 0.00 0.00 0.00 0.00 0.00 0.00 0.00 0.00 0.00 0.00 0.00 0.00 0.00 0.00 0.00 0.00 0.00 0.00
0206722868931382022011008537+33822-116504FM-15+0137KPSP V0202505N003152200059N0160935N5+01505-00225102905ADDAA101000095GA1005+999999999GD10991+9999999GF100991999999999999999999MA1102915101265MD1890039+9999REMMET09701/10/22 00:53:02 METAR KPSP 100853Z 25006KT 10SM CLR 15/M02 A3039 RMK AO2 SLP290 T01501022 58003
0186722868931382022011009537+33822-116504FM-15+0137KPSP V0202605N003152200059N0160935N5+01505-00225102915ADDAA101000095GA1005+999999999GD10991+9999999GF100991999999999999999999MA1102915101265REMMET09101/10/22 01:53:02 METAR KPSP 100953Z 26006KT 10SM CLR 15/M02 A3039 RMK AO2 SLP291 T01501022
0186722868931382022011010537+33822-116504FM-15+0137KPSP V0202605N003652200059N0160935N5+01505-00285102895ADDAA101000095GA1005+999999999GD10991+9999999GF100991999999999999999999MA1102885101225REMMET09101/10/22 02:53:02 METAR KPSP 101053Z 26007KT 10SM CLR 15/M03 A3038 RMK AO2 SLP289 T01501028
0244722868931382022011011537+33822-116504FM-15+0137KPSP V0202605N003152200059N0160935N5+01445-00285102875ADDAA101000095GA1005+999999999GD10991+9999999GF100991999999999999999999KA1060M+01611KA2060N+01281MA1102885101225MD1890039+9999REMMET10901/10/22 03:53:02 METAR KPSP 101153Z 26006KT 10SM CLR 14/M03 A3038 RMK AO2 SLP287 T01441028 10161 20128 58003
0186722868931382022011012537+33822-116504FM-15+0137KPSP V0202605N002152200059N0160935N5+01395-00285102875ADDAA101000095GA1005+999999999GD10991+9999999GF100991999999999999999999MA1102885101225REMMET09101/10/22 04:53:02 METAR KPSP 101253Z 26004KT 10SM CLR 14/M03 A3038 RMK AO2 SLP287 T01391028
0186722868931382022011013537+33822-116504FM-15+0137KPSP V0202605N003652200059N0160935N5+01565-00395102935ADDAA101000095GA1005+999999999GD10991+9999999GF100991999999999999999999MA1102955101295REMMET09101/10/22 05:53:02 METAR KPSP 101353Z 26007KT 10SM CLR 16/M04 A3040 RMK AO2 SLP293 T01561039
0211722868931382022011014537+33822-116504FM-15+0137KPSP V0202605N002652200059N0160935N5+01395-00335102995ADDAA101000095GA1005+999999999GD10991+9999999GF100991999999999999999999MA1102985101325MD1390119+9999REMMET10201/10/22 06:53:02 METAR KPSP 101453Z 26005KT 10SM CLR 14/M03 A3041 RMK AO2 SLP299 T01391033 53011 (ZP)
0191722868931382022011015537+33822-116504FM-15+0137KPSP V0202605N002652200059N0160935N5+01505-00335103005ADDAA101000095GA1005+999999999GD10991+9999999GF100991999999999999999999MA1103015101365REMMET09601/10/22 07:53:02 METAR KPSP 101553Z 26005KT 10SM CLR 15/M03 A3042 RMK AO2 SLP300 T01501033 (ZP)
0191722868931382022011016537+33822-116504FM-15+0137KPSP V0202605N002652200059N0160935N5+01725-00285103035ADDAA101000095GA1005+999999999GD10991+9999999GF100991999999999999999999MA1103055101395REMMET09601/10/22 08:53:02 METAR KPSP 101653Z 26005KT 10SM CLR 17/M03 A3043 RMK AO2 SLP303 T01721028 (ZP)
0249722868931382022011017537+33822-116504FM-15+0137KPSP V0202505N002152200059N0160935N5+01895-00225103025ADDAA101000095GA1005+999999999GD10991+9999999GF100991999999999999999999KA1060M+01891KA2060N+01391MA1103015101365MD1090039+9999REMMET11401/10/22 09:53:02 METAR KPSP 101753Z 25004KT 10SM CLR 19/M02 A3042 RMK AO2 SLP302 T01891022 10189 20139 50003 (ZP)
0191722868931382022011018537+33822-116504FM-15+0137KPSP V0202205N002152200059N0160935N5+02005-00285102955ADDAA101000095GA1005+999999999GD10991+9999999GF100991999999999999999999MA1102955101295REMMET09601/10/22 10:53:02 METAR KPSP 101853Z 22004KT 10SM CLR 20/M03 A3040 RMK AO2 SLP295 T02001028 (ZP)
0191722868931382022011019537+33822-116504FM-15+0137KPSP V0202405N001552200059N0160935N5+02115-00505102855ADDAA101000095GA1005+999999999GD10991+9999999GF100991999999999999999999MA1102845101195REMMET09601/10/22 11:53:02 METAR KPSP 101953Z 24003KT 10SM CLR 21/M05 A3037 RMK AO2 SLP285 T02111050 (CM)
0211722868931382022011020537+33822-116504FM-15+0137KPSP V0209999C000052200059N0160935N5+02115-00675102725ADDAA101000095GA1005+999999999GD10991+9999999GF100991999999999999999999MA1102715101065MD1890299+9999REMMET10201/10/22 12:53:02 METAR KPSP 102053Z 00000KT 10SM CLR 21/M07 A3033 RMK AO2 SLP272 T02111067 58029 (CM)
0191722868931382022011021537+33822-116504FM-15+0137KPSP V0209999C000052200059N0160935N5+02285-00675102645ADDAA101000095GA1005+999999999GD10991+9999999GF100991999999999999999999MA1102645100995REMMET09601/10/22 13:53:02 METAR KPSP 102153Z 00000KT 10SM CLR 23/M07 A3031 RMK AO2 SLP264 T02281067 (CM)
0191722868931382022011022537+33822-116504FM-15+0137KPSP V0201805N001552200059N0160935N5+02225-00675102595ADDAA101000095GA1005+999999999GD10991+9999999GF100991999999999999999999MA1102615100955REMMET09601/10/22 14:53:02 METAR KPSP 102253Z 18003KT 10SM CLR 22/M07 A3030 RMK AO2 SLP259 T02221067 (CM)
0249722868931382022011023537+33822-116504FM-15+0137KPSP V0209999V002152200059N0160935N5+02225-00335102595ADDAA101000095GA1005+999999999GD10991+9999999GF100991999999999999999999KA1060M+02281KA2060N+01891MA1102615100955MD1690129+9999REMMET11401/10/22 15:53:02 METAR KPSP 102353Z VRB04KT 10SM CLR 22/M03 A3030 RMK AO2 SLP259 T02221033 10228 20189 56012 (WM)
0186722868931382022011100537+33822-116504FM-15+0137KPSP V0203005N002152200059N0160935N5+02005-00285102615ADDAA101000095GA1005+999999999GD10991+9999999GF100991999999999999999999MA1102615100955REMMET09101/10/22 16:53:01 METAR KPSP 110053Z 30004KT 10SM CLR 20/M03 A3030 RMK AO2 SLP261 T02001028
0186722868931382022011101537+33822-116504FM-15+0137KPSP V0203105N003652200059N0160935N5+01945-00615102655ADDAA101000095GA1005+999999999GD10991+9999999GF100991999999999999999999MA1102685101025REMMET09101/10/22 17:53:01 METAR KPSP 110153Z 31007KT 10SM CLR 19/M06 A3032 RMK AO2 SLP265 T01941061
0206722868931382022011102537+33822-116504FM-15+0137KPSP V0202705N002152200059N0160935N5+01835-00335102735ADDAA101000095GA1005+999999999GD10991+9999999GF100991999999999999999999MA1102715101065MD1390129+9999REMMET09701/10/22 18:53:01 METAR KPSP 110253Z 27004KT 10SM CLR 18/M03 A3033 RMK AO2 SLP273 T01831033 53012
0186722868931382022011103537+33822-116504FM-15+0137KPSP V0202605N002652200059N0160935N5+01785-00395102785ADDAA101000095GA1005+999999999GD10991+9999999GF100991999999999999999999MA1102785101125REMMET09101/10/22 19:53:02 METAR KPSP 110353Z 26005KT 10SM CLR 18/M04 A3035 RMK AO2 SLP278 T01781039
0188722868931382022011104537+33822-116504FM-15+0137KPSP V0202605N002652200059N0160935N5+01675-00335102785ADDAA101000095GA1005+999999999GD10991+9999999GF100991999999999999999999MA1102785101125REMMET09301/10/22 20:53:02 METAR KPSP 110453Z 26005KT 10SM CLR 17/M03 A3035 RMK AO2 SLP278 T01671033 $
0226722868931382022011105537+33822-116504FM-15+0137KPSP V0202705N002652200059N0160935N5+01565-00335102805ADDAA101000095GA1005+999999999GD10991+9999999GF100991999999999999999999KA1060M+02221KA2060N+01561MA1102815101165REMMET10501/10/22 21:53:02 METAR KPSP 110553Z 27005KT 10SM CLR 16/M03 A3036 RMK AO2 SLP280 T01561033 10222 20156 $
0188722868931382022011106537+33822-116504FM-15+0137KPSP V0202805N002652200059N0160935N5+01565-00395102805ADDAA101000095GA1005+999999999GD10991+9999999GF100991999999999999999999MA1102815101165REMMET09301/10/22 22:53:02 METAR KPSP 110653Z 28005KT 10SM CLR 16/M04 A3036 RMK AO2 SLP280 T01561039 $
0224722868931382022011107537+33822-116504FM-15+0137KPSP V0202605N003152200059N0160935N5+01565-00445102785ADDAA101000095GA1005+999999999GD10991+9999999GF100991999999999999999999KA1240M+02281KA2240N+01281MA1102785101125REMMET10301/10/22 23:53:02 METAR KPSP 110753Z 26006KT 10SM CLR 16/M04 A3035 RMK AO2 SLP278 T01561044 402280128 $
0813722868931382022011107596+33822-116504SOD  +0137KPSP V020999999999999999999999999999+99999+99999999999ADDAA124000095KA1240M+02285KA2240N+01285MG1101154102574OE11240062629099995OE22240040226099995OE33240022899999995REMSOD69224 HR PRECIPITATION (IN): 0.00 24 HR MAX TEMP (F): 7324 HR MIN TEMP (F): 55AVERAGE STATION PRESSURE:29.870 MINIMUM SEA LEVEL PRESSURE:30.29 TIME OF OCCURRENCE:1614 PEAK WIND SPEED (MPH): 14 PEAK WIND DIR (DEG):290 PEAK WIND TIME (LST):      FASTEST 2MIN SPEED (MPH):  9FASTEST 2MIN DIR (DEG):260 FASTEST 2MIN TIME (LST):     AVERAGE WIND SPEED (MPH): 5.1 24 HR AVG TEMP (F): 64DEPART FROM NORMAL:  5  HEATING DEGREE DAYS:  1 COOLING DEGREE DAYS:  0 LATEST DAY MAX TEMP (0700-1900 LST):73  LATEST NIGHT MIN TEMP(1900-0800 LST):55 HOURLY INCREMENTAL PRECIPITATION VALUES (IN):.00 0.00 0.00 0.00 0.00 0.00 0.00 0.00 0.00 0.00 0.00 0.00 0.00 0.00 0.00 0.00 0.00 0.00 0.00 0.00 0.00 0.00 0.00 0.00
0208722868931382022011108537+33822-116504FM-15+0137KPSP V0202605N002652200059N0160935N5+01565-00395102765ADDAA101000095GA1005+999999999GD10991+9999999GF100991999999999999999999MA1102785101125MD1890049+9999REMMET09901/11/22 00:53:02 METAR KPSP 110853Z 26005KT 10SM CLR 16/M04 A3035 RMK AO2 SLP276 T01561039 58004 $
0188722868931382022011109537+33822-116504FM-15+0137KPSP V0202605N002652200059N0160935N5+01615-00395102765ADDAA101000095GA1005+999999999GD10991+9999999GF100991999999999999999999MA1102785101125REMMET09301/11/22 01:53:02 METAR KPSP 110953Z 26005KT 10SM CLR 16/M04 A3035 RMK AO2 SLP276 T01611039 $
0188722868931382022011110537+33822-116504FM-15+0137KPSP V0202905N004152200059N0160935N5+01835-00785102735ADDAA101000095GA1005+999999999GD10991+9999999GF100991999999999999999999MA1102745101095REMMET09301/11/22 02:53:02 METAR KPSP 111053Z 29008KT 10SM CLR 18/M08 A3034 RMK AO2 SLP273 T01831078 $
0246722868931382022011111537+33822-116504FM-15+0137KPSP V0202905N003152200059N0160935N5+01835-00835102715ADDAA101000095GA1005+999999999GD10991+9999999GF100991999999999999999999KA1060M+01831KA2060N+01501MA1102745101095MD1890049+9999REMMET11101/11/22 03:53:02 METAR KPSP 111153Z 29006KT 10SM CLR 18/M08 A3034 RMK AO2 SLP271 T01831083 10183 20150 58004 $
0188722868931382022011112537+33822-116504FM-15+0137KPSP V0202405N003152200059N0160935N5+01675-00445102665ADDAA101000095GA1005+999999999GD10991+9999999GF100991999999999999999999MA1102685101025REMMET09301/11/22 04:53:02 METAR KPSP 111253Z 24006KT 10SM CLR 17/M04 A3032 RMK AO2 SLP266 T01671044 $
0188722868931382022011113537+33822-116504FM-15+0137KPSP V0202605N003152200059N0160935N5+01675-00445102655ADDAA101000095GA1005+999999999GD10991+9999999GF100991999999999999999999MA1102685101025REMMET09301/11/22 05:53:02 METAR KPSP 111353Z 26006KT 10SM CLR 17/M04 A3032 RMK AO2 SLP265 T01671044 $
0248722868931382022011114537+33822-116504FM-15+0137KPSP V0203205N004152200059N0160935N5+01335-00395102735ADDAA101000095GA1005+999999999GD10991+9999999GF100991999999999999999999MA1102745101095MD1390009+9999REMMET10401/11/22 06:53:02 METAR KPSP 111453Z 32008KT 10SM CLR 13/M04 A3034 RMK AO2 SLP273 T01331039 53000 $ (ZP)EQDQ010     3APC3  Q023     3APCTEN
0173722868931382022011115107+33822-116504FM-16+0137KPSP V0202805N002152200059N0160935N5+01335-00395999999ADDGA1005+999999999GD10991+9999999GF100991999999999999999999MA1102745101095REMMET08901/11/22 07:10:02 SPECI KPSP 111510Z 28004KT 10SM CLR 13/M04 A3034 RMK AO2 T01331039 (OL)
0191722868931382022011115537+33822-116504FM-15+0137KPSP V0203305N003152200059N0160935N5+01335-00395102765ADDAA101000095GA1005+999999999GD10991+9999999GF100991999999999999999999MA1102745101095REMMET09601/11/22 07:53:02 METAR KPSP 111553Z 33006KT 10SM CLR 13/M04 A3034 RMK AO2 SLP276 T01331039 (OL)
0191722868931382022011116537+33822-116504FM-15+0137KPSP V0209999C000052200059N0160935N5+01835-00225102835ADDAA101000095GA1005+999999999GD10991+9999999GF100991999999999999999999MA1102845101195REMMET09601/11/22 08:53:02 METAR KPSP 111653Z 00000KT 10SM CLR 18/M02 A3037 RMK AO2 SLP283 T01831022 (OL)
0229722868931382022011117537+33822-116504FM-15+0137KPSP V0202905N003652200059N0160935N5+02175-00785102905ADDAA101000095GA1005+999999999GD10991+9999999GF100991999999999999999999KA1060M+02171KA2060N+01221MA1102915101265REMMET10801/11/22 09:53:02 METAR KPSP 111753Z 29007KT 10SM CLR 22/M08 A3039 RMK AO2 SLP290 T02171078 10217 20122 (OL)
0191722868931382022011118537+33822-116504FM-15+0137KPSP V0203505N003652200059N0160935N5+02395-00835102835ADDAA101000095GA1005+999999999GD10991+9999999GF100991999999999999999999MA1102845101195REMMET09601/11/22 10:53:02 METAR KPSP 111853Z 35007KT 10SM CLR 24/M08 A3037 RMK AO2 SLP283 T02391083 (OL)
0191722868931382022011119537+33822-116504FM-15+0137KPSP V0209999C000052200059N0160935N5+02395-00785102695ADDAA101000095GA1005+999999999GD10991+9999999GF100991999999999999999999MA1102715101065REMMET09601/11/22 11:53:02 METAR KPSP 111953Z 00000KT 10SM CLR 24/M08 A3033 RMK AO2 SLP269 T02391078 (OL)
0211722868931382022011120537+33822-116504FM-15+0137KPSP V0202305N001552200059N0160935N5+02445-00785102535ADDAA101000095GA1005+999999999GD10991+9999999GF100991999999999999999999MA1102545100895MD1890359+9999REMMET10201/11/22 12:53:02 METAR KPSP 112053Z 23003KT 10SM CLR 24/M08 A3028 RMK AO2 SLP253 T02441078 58035 (OL)
0191722868931382022011121537+33822-116504FM-15+0137KPSP V0202105N003152200059N0160935N5+02445-00725102395ADDAA101000095GA1005+999999999GD10991+9999999GF100991999999999999999999MA1102405100755REMMET09601/11/22 13:53:02 METAR KPSP 112153Z 21006KT 10SM CLR 24/M07 A3024 RMK AO2 SLP239 T02441072 (OL)
0191722868931382022011122537+33822-116504FM-15+0137KPSP V0209999C000052200059N0160935N5+02505-00725102355ADDAA101000095GA1005+999999999GD10991+9999999GF100991999999999999999999MA1102375100725REMMET09601/11/22 14:53:02 METAR KPSP 112253Z 00000KT 10SM CLR 25/M07 A3023 RMK AO2 SLP235 T02501072 (WM)
0249722868931382022011123537+33822-116504FM-15+0137KPSP V0209999C000052200059N0160935N5+02445-00675102345ADDAA101000095GA1005+999999999GD10991+9999999GF100991999999999999999999KA1060M+02501KA2060N+02171MA1102375100725MD1690189+9999REMMET11401/11/22 15:53:02 METAR KPSP 112353Z 00000KT 10SM CLR 24/M07 A3023 RMK AO2 SLP234 T02441067 10250 20217 56018 (WM)
0186722868931382022011200537+33822-116504FM-15+0137KPSP V0202405N002652200059N0160935N5+02115-00335102415ADDAA101000095GA1005+999999999GD10991+9999999GF100991999999999999999999MA1102445100795REMMET09101/11/22 16:53:01 METAR KPSP 120053Z 24005KT 10SM CLR 21/M03 A3025 RMK AO2 SLP241 T02111033
0186722868931382022011201537+33822-116504FM-15+0137KPSP V0202605N003652200059N0160935N5+02005-00335102515ADDAA101000095GA1005+999999999GD10991+9999999GF100991999999999999999999MA1102515100855REMMET09101/11/22 17:53:01 METAR KPSP 120153Z 26007KT 10SM CLR 20/M03 A3027 RMK AO2 SLP251 T02001033
0206722868931382022011202537+33822-116504FM-15+0137KPSP V0202805N001552200059N0160935N5+01835-00395102635ADDAA101000095GA1005+999999999GD10991+9999999GF100991999999999999999999MA1102645100995MD1390279+9999REMMET09701/11/22 18:53:01 METAR KPSP 120253Z 28003KT 10SM CLR 18/M04 A3031 RMK AO2 SLP263 T01831039 53027
0186722868931382022011203537+33822-116504FM-15+0137KPSP V0202605N003152200059N0160935N5+01785-00505102685ADDAA101000095GA1005+999999999GD10991+9999999GF100991999999999999999999MA1102685101025REMMET09101/11/22 19:53:02 METAR KPSP 120353Z 26006KT 10SM CLR 18/M05 A3032 RMK AO2 SLP268 T01781050
0186722868931382022011204537+33822-116504FM-15+0137KPSP V0203605N002652200059N0160935N5+01615-00565102685ADDAA101000095GA1005+999999999GD10991+9999999GF100991999999999999999999MA1102685101025REMMET09101/11/22 20:53:02 METAR KPSP 120453Z 36005KT 10SM CLR 16/M06 A3032 RMK AO2 SLP268 T01611056
0244722868931382022011205537+33822-116504FM-15+0137KPSP V0203405N003652200059N0160935N5+01395-00725102725ADDAA101000095GA1005+999999999GD10991+9999999GF100991999999999999999999KA1060M+02441KA2060N+01391MA1102715101065MD1190099+9999REMMET10901/11/22 21:53:02 METAR KPSP 120553Z 34007KT 10SM CLR 14/M07 A3033 RMK AO2 SLP272 T01391072 10244 20139 51009
0186722868931382022011206537+33822-116504FM-15+0137KPSP V0203105N002152200059N0160935N5+01505-00895102705ADDAA101000095GA1005+999999999GD10991+9999999GF100991999999999999999999MA1102715101065REMMET09101/11/22 22:53:02 METAR KPSP 120653Z 31004KT 10SM CLR 15/M09 A3033 RMK AO2 SLP270 T01501089
0222722868931382022011207537+33822-116504FM-15+0137KPSP V0203205N002152200059N0160935N5+01225-00675102685ADDAA101000095GA1005+999999999GD10991+9999999GF100991999999999999999999KA1240M+02501KA2240N+01221MA1102685101025REMMET10101/11/22 23:53:02 METAR KPSP 120753Z 32004KT 10SM CLR 12/M07 A3032 RMK AO2 SLP268 T01221067 402500122
0813722868931382022011207596+33822-116504SOD  +0137KPSP V020999999999999999999999999999+99999+99999999999ADDAA124000095KA1240M+02505KA2240N+01225MG1101024102344OE11240058128099995OE22240044732099995OE33240024699999995REMSOD69224 HR PRECIPITATION (IN): 0.00 24 HR MAX TEMP (F): 7724 HR MIN TEMP (F): 54AVERAGE STATION PRESSURE:29.830 MINIMUM SEA LEVEL PRESSURE:30.22 TIME OF OCCURRENCE:1607 PEAK WIND SPEED (MPH): 13 PEAK WIND DIR (DEG):280 PEAK WIND TIME (LST):      FASTEST 2MIN SPEED (MPH): 10FASTEST 2MIN DIR (DEG):320 FASTEST 2MIN TIME (LST):     AVERAGE WIND SPEED (MPH): 5.5 24 HR AVG TEMP (F): 66DEPART FROM NORMAL:  7  HEATING DEGREE DAYS:  0 COOLING DEGREE DAYS:  1 LATEST DAY MAX TEMP (0700-1900 LST):77  LATEST NIGHT MIN TEMP(1900-0800 LST):54 HOURLY INCREMENTAL PRECIPITATION VALUES (IN):.00 0.00 0.00 0.00 0.00 0.00 0.00 0.00 0.00 0.00 0.00 0.00 0.00 0.00 0.00 0.00 0.00 0.00 0.00 0.00 0.00 0.00 0.00 0.00
0206722868931382022011208537+33822-116504FM-15+0137KPSP V0203305N002652200059N0160935N5+01115-00615102635ADDAA101000095GA1005+999999999GD10991+9999999GF100991999999999999999999MA1102645100995MD1890089+9999REMMET09701/12/22 00:53:02 METAR KPSP 120853Z 33005KT 10SM CLR 11/M06 A3031 RMK AO2 SLP263 T01111061 58008
0186722868931382022011209537+33822-116504FM-15+0137KPSP V0202605N002652200059N0160935N5+01225-00785102635ADDAA101000095GA1005+999999999GD10991+9999999GF100991999999999999999999MA1102645100995REMMET09101/12/22 01:53:02 METAR KPSP 120953Z 26005KT 10SM CLR 12/M08 A3031 RMK AO2 SLP263 T01221078
0186722868931382022011210537+33822-116504FM-15+0137KPSP V0203405N003652200059N0160935N5+01065-00675102585ADDAA101000095GA1005+999999999GD10991+9999999GF100991999999999999999999MA1102615100955REMMET09101/12/22 02:53:02 METAR KPSP 121053Z 34007KT 10SM CLR 11/M07 A3030 RMK AO2 SLP258 T01061067
0244722868931382022011211537+33822-116504FM-15+0137KPSP V0203205N003652200059N0160935N5+01335-01005102585ADDAA101000095GA1005+999999999GD10991+9999999GF100991999999999999999999KA1060M+01561KA2060N+01001MA1102575100925MD1890059+9999REMMET10901/12/22 03:53:02 METAR KPSP 121153Z 32007KT 10SM CLR 13/M10 A3029 RMK AO2 SLP258 T01331100 10156 20100 58005
0186722868931382022011212537+33822-116504FM-15+0137KPSP V0203505N003152200059N0160935N5+01115-00725102575ADDAA101000095GA1005+999999999GD10991+9999999GF100991999999999999999999MA1102575100925REMMET09101/12/22 04:53:02 METAR KPSP 121253Z 35006KT 10SM CLR 11/M07 A3029 RMK AO2 SLP257 T01111072
0191722868931382022011213537+33822-116504FM-15+0137KPSP V0203305N003152200059N0160935N5+01115-00725102615ADDAA101000095GA1005+999999999GD10991+9999999GF100991999999999999999999MA1102615100955REMMET09601/12/22 05:53:02 METAR KPSP 121353Z 33006KT 10SM CLR 11/M07 A3030 RMK AO2 SLP261 T01111072 (ZP)
0211722868931382022011214537+33822-116504FM-15+0137KPSP V0203305N003652200059N0160935N5+01065-00565102635ADDAA101000095GA1005+999999999GD10991+9999999GF100991999999999999999999MA1102645100995MD1390049+9999REMMET10201/12/22 06:53:02 METAR KPSP 121453Z 33007KT 10SM CLR 11/M06 A3031 RMK AO2 SLP263 T01061056 53004 (ZP)
