0190723820231822020010100537+34629-118083FM-15+0787KPMD V0201005N002652200059N0160935N5+00895+00115102035ADDAA101000095GA1005+999999999GD10991+9999999GF100991999999999999999999MA1102005092845REMMET09512/31/19 16:53:03 METAR KPMD 010053Z 10005KT 10SM CLR 09/01 A3012 RMK AO2 SLP203 T00890011 (DG)
0190723820231822020010101537+34629-118083FM-15+0787KPMD V0200605N001552200059N0160935N5+00835+00065102085ADDAA101000095GA1005+999999999GD10991+9999999GF100991999999999999999999MA1102035092875REMMET09512/31/19 17:53:03 METAR KPMD 010153Z 06003KT 10SM CLR 08/01 A3013 RMK AO2 SLP208 T00830006 (DG)
0210723820231822020010102537+34629-118083FM-15+0787KPMD V0209999C000052200059N0160935N5+00725+00005102125ADDAA101000095GA1005+999999999GD10991+9999999GF100991999999999999999999MA1102075092905MD1390079+9999REMMET10112/31/19 18:53:03 METAR KPMD 010253Z 00000KT 10SM CLR 07/00 A3014 RMK AO2 SLP212 T00720000 53007 (DG)
0191723820231822020010103537+34629-118083FM-15+0787KPMD V0209999C000052200059N0160935N5+00505-00065102205ADDAA101000095GA1005+999999999GD10991+9999999GF100991999999999999999999MA1102105092935REMMET09612/31/19 19:53:03 METAR KPMD 010353Z 00000KT 10SM CLR 05/M01 A3015 RMK AO2 SLP220 T00501006 (DG)
0191723820231822020010104537+34629-118083FM-15+0787KPMD V0201805N002152200059N0160935N5+00175-00065102215ADDAA101000095GA1005+999999999GD10991+9999999GF100991999999999999999999MA1102135092965REMMET09612/31/19 20:53:03 METAR KPMD 010453Z 18004KT 10SM CLR 02/M01 A3016 RMK AO2 SLP221 T00171006 (DG)
0248723820231822020010105537+34629-118083FM-15+0787KPMD V0201905N002152200059N0128755N5+00115-00115102215ADDAA101000095GA1005+999999999GD10991+9999999GF100991999999999999999999KA1060M+01221KA2060N+00111MA1102175093005MD1190099+9999REMMET11312/31/19 21:53:03 METAR KPMD 010553Z 19004KT 8SM CLR 01/M01 A3017 RMK AO2 SLP221 T00111011 10122 20011 51009 (DG)
0186723820231822020010106537+34629-118083FM-15+0787KPMD V0201805N004152200059N0160935N5+00115-00115102165ADDAA101000095GA1005+999999999GD10991+9999999GF100991999999999999999999MA1102135092965REMMET09112/31/19 22:53:03 METAR KPMD 010653Z 18008KT 10SM CLR 01/M01 A3016 RMK AO2 SLP216 T00111011
0221723820231822020010107537+34629-118083FM-15+0787KPMD V0202005N003152200059N0144845N5+00065-00175102055ADDAA101000095GA1005+999999999GD10991+9999999GF100991999999999999999999KA1240M+01331KA2240N-00111MA1102035092875REMMET10012/31/19 23:53:03 METAR KPMD 010753Z 20006KT 9SM CLR 01/M02 A3013 RMK AO2 SLP205 T00061017 401331011
0899723820231822020010107596+34629-118083SOD  +0787KPMD V020999999999999999999999999999+99999+99999999999ADDAA124000095AJ100009599999999AL12400095AN1024000095KA1240M+01335KA2240N-00105MG1092914101934OE11240093907099995OE22240076006099995OE33240026899999995REMSOD73924 HR PRECIPITATION (IN): 0.00 SNOW DEPTH (IN):0     24 HR SNOWFALL (IN):0.0  24 HR MAX TEMP (F): 5624 HR MIN TEMP (F): 30AVERAGE STATION PRESSURE:27.435 MINIMUM SEA LEVEL PRESSURE:30.10 TIME OF OCCURRENCE:0144 PEAK WIND SPEED (MPH): 21 PEAK WIND DIR (DEG): 70 PEAK WIND TIME (LST):      FASTEST 2MIN SPEED (MPH): 17FASTEST 2MIN DIR (DEG): 60 FASTEST 2MIN TIME (LST):     AVERAGE WIND SPEED (MPH): 6.0 24 HR AVG TEMP (F): 43DEPART FROM NORMAL: -1  HEATING DEGREE DAYS: 22 COOLING DEGREE DAYS:  0 LATEST DAY MAX TEMP (0700-1900 LST):56  LATEST NIGHT MIN TEMP(1900-0800 LST):30 HOURLY INCREMENTAL PRECIPITATION VALUES (IN):.00 0.00 0.00 0.00 0.00 0.00 0.00 0.00 0.00 0.00 0.00 0.00 0.00 0.00 0.00 0.00 0.00 0.00 0.00 0.00 0.00 0.00 0.00 0.00
1305723820231822020010107596+34629-118083SOM  +0787KPMD V020999999999999999999999999999+99999+99999999999ADDAB10066596AD10032092626999999995AE1056016016006AH1005025792609385AH2010025792609385AH3015025792609385AH4020025792609385AH5030025992609575AH6045025992609575AI1060025992609575AI2080025992609575AI3100026492611105AI4120026992611325AI5150027292611515AI6180027292611515KB1744N+01115KB2744M+12065KB3744A+06615KC1N9-00502799995KC2M9+02381399995KD1744H06515KD2744C00005KE1005005135005MH1092794101964MK1103281708225100752605185REMSOM793PCP MTOT:2.62 PCP GT 24HRS:1.26 DATE(S):26 DAYS W/PCP >=.01:5  DAYS W/PCP >=.10:1  DAYS W/ PCP >=.50:1 DAYS W/PCP >=1.00:0 MSDP AMTS W/DATE-TIME TAGS:MIN:5 1.01  26/0938 MIN:10 1.01  26/0938 MIN:15 1.01  26/0938 MIN:20 1.01  26/0938 MIN:30 1.02  26/0957 MIN:45 1.02  26/0957 MIN:60 1.02  26/0957 MIN:80 1.02  26/0957 MIN:100 1.04  26/1110 MIN:120 1.06  26/1132 MIN:150 1.07  26/1151 MIN:180 1.07  26/1151 AVG DLY MIN:34.0  AVG DLY MAX:53.7  AVG MLY TMP:43.9  MIN TMP:23 DATE(S):27 MAX TMP:75  DATE(S):13 DAYS MAX <=32:0 DAYS MAX >=90:0  DAYS MIN <=32:13 DAYS MIN  <=0:0  AVG STP:27.400 LWST SLP:29.75 DATE/TIME:260518 HGST SLP:30.50 DATE/TIME:170822 HDD MTH TOT:651 DEP NORM:-2553 SEASON(JUL 1-JUN 30):1130 DEP NORM:-25536 CDD MTH TOT:0 DEP NORM:-2553 SEASON(JAN 1-DEC 31):1874 DEP NORM:-25536EQDR01  2.627ABP070R02     57AE1100R03     17AE2103R04     17AE3106R05     07AE4109
0207723820231822020010108537+34629-118083FM-15+0787KPMD V0202905N001552200059N0160935N5-00065-00225102005ADDAA101000095GA1005+999999999GD10991+9999999GF100991999999999999999999MA1102005092845MD1890169+9999REMMET09801/01/20 00:53:02 METAR KPMD 010853Z 29003KT 10SM CLR M01/M02 A3012 RMK AO2 SLP200 T10061022 58016
0205723820231822020010109537+34629-118083FM-15+0787KPMD V0202705N002152200059N0096565N5+00005-00115102135ADDAA101000095AU100001015AW1105GA1005+999999999GD10991+9999999GF100991999999999999999999MA1102135092965REMMET09301/01/20 01:53:02 METAR KPMD 010953Z 27004KT 6SM BR CLR 00/M01 A3016 RMK AO2 SLP213 T00001011
0186723820231822020010110537+34629-118083FM-15+0787KPMD V0201405N004152200059N0160935N5+00005-00175102105ADDAA101000095GA1005+999999999GD10991+9999999GF100991999999999999999999MA1102105092935REMMET09101/01/20 02:53:02 METAR KPMD 011053Z 14008KT 10SM CLR 00/M02 A3015 RMK AO2 SLP210 T00001017
0176723820231822020010111534+34629-118085FM-15+077599999V0202001N002612200019N016093199+00061-00171101951ADDGF100991999999999999999999KA1060M+00171KA2060N-00061MA1101961999999REMMET097METAR KPMD 011153Z AUTO 20005KT 10SM CLR 01/M02 A3011 RMK AO2 SLP195 T00061017 10017 21006 58003=
0132723820231822020010112534+34629-118085FM-15+077599999V0202501N002612200019N016093199+00111-00171102011ADDGF100991999999999999999999MA1101961999999REMMET079METAR KPMD 011253Z AUTO 25005KT 10SM CLR 01/M02 A3011 RMK AO2 SLP201 T00111017=
0187723820231822020010113537+34629-118083FM-15+0787KPMD V0201205N002652200059N0160935N5-00065-00285101975ADDAA101000095GA1005+999999999GD10991+9999999GF100991999999999999999999MA1101935092785REMMET09201/01/20 05:53:02 METAR KPMD 011353Z 12005KT 10SM CLR M01/M03 A3010 RMK AO2 SLP197 T10061028
0133723820231822020010114534+34629-118085FM-15+077599999V0200901N001512200019N016093199+00001-00221101961ADDGF100991999999999999999999MA1101901999999REMMET080METAR KPMD 011453Z 09003KT 10SM CLR 00/M02 A3009 RMK AO2 SLP196 T00001022 58005=
0186723820231822020010115537+34629-118083FM-15+0787KPMD V0203105N002652200059N0160935N5+00065-00175101925ADDAA101000095GA1005+999999999GD10991+9999999GF100991999999999999999999MA1101835092685REMMET09101/01/20 07:53:02 METAR KPMD 011553Z 31005KT 10SM CLR 01/M02 A3007 RMK AO2 SLP192 T00061017
0186723820231822020010116537+34629-118083FM-15+0787KPMD V0203105N002152200059N0160935N5+00285-00065102095ADDAA101000095GA1005+999999999GD10991+9999999GF100991999999999999999999MA1102005092845REMMET09101/01/20 08:53:02 METAR KPMD 011653Z 31004KT 10SM CLR 03/M01 A3012 RMK AO2 SLP209 T00281006
0243723820231822020010117537+34629-118083FM-15+0787KPMD V0209999C000052200059N0160935N5+00505+00005101985ADDAA101000095GA1005+999999999GD10991+9999999GF100991999999999999999999KA1060M+00501KA2060N-00111MA1101905092745MD1090019+9999REMMET10801/01/20 09:53:02 METAR KPMD 011753Z 00000KT 10SM CLR 05/00 A3009 RMK AO2 SLP198 T00500000 10050 21011 50001
0185723820231822020010118537+34629-118083FM-15+0787KPMD V0203505N002152200059N0160935N5+00945+00005101845ADDAA101000095GA1005+999999999GD10991+9999999GF100991999999999999999999MA1101835092685REMMET09001/01/20 10:53:02 METAR KPMD 011853Z 35004KT 10SM CLR 09/00 A3007 RMK AO2 SLP184 T00940000
0133723820231822020010119534+34629-118085FM-15+077599999V0201901N002112200019N016093199+01171+00061101581ADDGF100991999999999999999999MA1101561999999REMMET080METAR KPMD 011953Z 19004KT 10SM CLR 12/01 A2999 RMK AO2 PRESFR SLP158 T01170006=
0143723820231822020010120534+34629-118085FM-15+077599999V0202601N003612200019N016093199+01671+00001101371ADDGF100991999999999999999999MA1101391999999OC100721REMMET082METAR KPMD 012053Z 26007G14KT 10SM CLR 17/00 A2994 RMK AO2 SLP137 T01670000 58047=
0185723820231822020010121537+34629-118083FM-15+0787KPMD V0202605N010852200059N0160935N5+01786+00005101385ADDAA101000095GA1005+999999999GD10991+9999999GF100991999999999999999999MA1101425092315REMMET09001/01/20 13:53:02 METAR KPMD 012153Z 26021KT 10SM CLR 18/00 A2995 RMK AO2 SLP138 T01780000
0234723820231822020010122537+34629-118083FM-15+0787KPMD V0202605N008252200059N0160935N5+01725-00115101425ADDAA101000095GA1005+999999999GD10991+9999999GF100991999999999999999999MA1101465092345OC101295OD149901441290REMMET11701/01/20 14:53:02 METAR KPMD 012253Z 26016G25KT 10SM CLR 17/M01 A2996 RMK AO2 PK WND 29028/2230 SLP142 T01721011 (DG)
0259723820231822020010123537+34629-118083FM-15+0787KPMD V0202705N008852200059N0160935N5+01505+00005101505ADDAA101000095GA1005+999999999GD10991+9999999GF100991999999999999999999KA1060M+01831KA2060N+00561MA1101525092405MD1390119+9999OC101295REMMET11601/01/20 15:53:02 METAR KPMD 012353Z 27017G25KT 10SM CLR 15/00 A2998 RMK AO2 SLP150 T01500000 10183 20056 53011 (DG)
0228723820231822020010200537+34629-118083FM-15+0787KPMD V0202605N008252200059N0160935N5+01395+00065101465ADDAA101000095GA1005+999999999GD10991+9999999GF100991999999999999999999MA1101495092375OC101395OD149901391270REMMET11101/01/20 16:53:01 METAR KPMD 020053Z 26016G27KT 10SM CLR 14/01 A2997 RMK AO2 PK WND 27027/0048 SLP146 T01390006
0217723820231822020010201537+34629-118083FM-15+0787KPMD V0202705N010852200059N0160935N5+01225+00005101455ADDAA101000095GA1005+999999999GD10991+9999999GF100991999999999999999999MA1101425092315OD149901441270REMMET10801/01/20 17:53:01 METAR KPMD 020153Z 27021KT 10SM CLR 12/00 A2995 RMK AO2 PK WND 27028/0130 SLP145 T01220000
0248723820231822020010202537+34629-118083FM-15+0787KPMD V0202505N010852200059N0160935N5+01225+00065101385ADDAA101000095GA1005+999999999GD10991+9999999GF100991999999999999999999MA1101395092275MD1890149+9999OC101345OD149901541260REMMET11701/01/20 18:53:01 METAR KPMD 020253Z 25021G26KT 10SM CLR 12/01 A2994 RMK AO2 PK WND 26030/0212 SLP138 T01220006 58014
0217723820231822020010203537+34629-118083FM-15+0787KPMD V0202505N005152200059N0160935N5+01115+00115101475ADDAA101000095GA1005+999999999GD10991+9999999GF100991999999999999999999MA1101465092345OD149901441250REMMET10801/01/20 19:53:01 METAR KPMD 020353Z 25010KT 10SM CLR 11/01 A2996 RMK AO2 PK WND 25028/0256 SLP147 T01110011
0185723820231822020010204537+34629-118083FM-15+0787KPMD V0200305N002152200059N0160935N5+01065+00065101505ADDAA101000095GA1005+999999999GD10991+9999999GF100991999999999999999999MA1101495092375REMMET09001/01/20 20:53:02 METAR KPMD 020453Z 03004KT 10SM CLR 11/01 A2997 RMK AO2 SLP150 T01060006
0243723820231822020010205537+34629-118083FM-15+0787KPMD V0201905N004652200059N0160935N5+00725+00115101535ADDAA101000095GA1005+999999999GD10991+9999999GF100991999999999999999999KA1060M+01501KA2060N+00721MA1101525092405MD1190139+9999REMMET10801/01/20 21:53:02 METAR KPMD 020553Z 19009KT 10SM CLR 07/01 A2998 RMK AO2 SLP153 T00720011 10150 20072 51013
0185723820231822020010206537+34629-118083FM-15+0787KPMD V0201905N004152200059N0160935N5+00785+00175101475ADDAA101000095GA1005+999999999GD10991+9999999GF100991999999999999999999MA1101495092375REMMET09001/01/20 22:53:02 METAR KPMD 020653Z 19008KT 10SM CLR 08/02 A2997 RMK AO2 SLP147 T00780017
0221723820231822020010207537+34629-118083FM-15+0787KPMD V0202405N003652200059N0160935N5+00615+00175101405ADDAA101000095GA1005+999999999GD10991+9999999GF100991999999999999999999KA1240M+01831KA2240N-00111MA1101425092315REMMET10001/01/20 23:53:02 METAR KPMD 020753Z 24007KT 10SM CLR 06/02 A2995 RMK AO2 SLP140 T00610017 401831011
0906723820231822020010207596+34629-118083SOD  +0787KPMD V020999999999999999999999999999+99999+99999999999ADDAA124000095AJ100009599999999AL12400095AN1024000095AT1AU13BR  5AX1015245KA1240M+01835KA2240N-00105MG1999999101324OE11240156526099995OE22240134126099995OE33240044399999995REMSOD72524 HR PRECIPITATION (IN): 0.00 SNOW DEPTH (IN):0     24 HR SNOWFALL (IN):0.0  WEATHER(CODE):1  24 HR MAX TEMP (F): 6524 HR MIN TEMP (F): 30MINIMUM SEA LEVEL PRESSURE:29.92 TIME OF OCCURRENCE:1910 PEAK WIND SPEED (MPH): 35 PEAK WIND DIR (DEG):260 PEAK WIND TIME (LST):      FASTEST 2MIN SPEED (MPH): 30FASTEST 2MIN DIR (DEG):260 FASTEST 2MIN TIME (LST):     AVERAGE WIND SPEED (MPH): 9.9 24 HR AVG TEMP (F): 48DEPART FROM NORMAL:  4  HEATING DEGREE DAYS: 17 COOLING DEGREE DAYS:  0 LATEST DAY MAX TEMP (0700-1900 LST): 65 LATEST NIGHT MIN TEMP(1900-0800 LST):30 HOURLY INCREMENTAL PRECIPITATION VALUES (IN):0.00 0.00 0.00 0.00 0.00 0.00 0.00 0.00 0.00 0.00 0.00 0.00 0.00 0.00 0.00 0.00 0.00 0.00 0.00 0.00 0.00 0.00 0.00 0.00
0205723820231822020010208537+34629-118083FM-15+0787KPMD V0202705N004652200059N0160935N5+00835+00225101355ADDAA101000095GA1005+999999999GD10991+9999999GF100991999999999999999999MA1101465092345MD1590069+9999REMMET09601/02/20 00:53:02 METAR KPMD 020853Z 27009KT 10SM CLR 08/02 A2996 RMK AO2 SLP135 T00830022 55006
0185723820231822020010209537+34629-118083FM-15+0787KPMD V0202705N005152200059N0160935N5+00835+00225101335ADDAA101000095GA1005+999999999GD10991+9999999GF100991999999999999999999MA1101465092345REMMET09001/02/20 01:53:02 METAR KPMD 020953Z 27010KT 10SM CLR 08/02 A2996 RMK AO2 SLP133 T00830022
0185723820231822020010210537+34629-118083FM-15+0787KPMD V0202805N006252200059N0160935N5+00835+00335101415ADDAA101000095GA1005+999999999GD10991+9999999GF100991999999999999999999MA1101525092405REMMET09001/02/20 02:53:02 METAR KPMD 021053Z 28012KT 10SM CLR 08/03 A2998 RMK AO2 SLP141 T00830033
0243723820231822020010211537+34629-118083FM-15+0787KPMD V0202605N003652200059N0160935N5+00615+00225101465ADDAA101000095GA1005+999999999GD10991+9999999GF100991999999999999999999KA1060M+00941KA2060N+00561MA1101525092405MD1390079+9999REMMET10801/02/20 03:53:02 METAR KPMD 021153Z 26007KT 10SM CLR 06/02 A2998 RMK AO2 SLP146 T00610022 10094 20056 53007
0185723820231822020010212537+34629-118083FM-15+0787KPMD V0201805N002652200059N0160935N5+00395+00115101485ADDAA101000095GA1005+999999999GD10991+9999999GF100991999999999999999999MA1101525092405REMMET09001/02/20 04:53:02 METAR KPMD 021253Z 18005KT 10SM CLR 04/01 A2998 RMK AO2 SLP148 T00390011
0185723820231822020010213537+34629-118083FM-15+0787KPMD V0202005N002652200059N0160935N5+00335+00065101575ADDAA101000095GA1005+999999999GD10991+9999999GF100991999999999999999999MA1101595092465REMMET09001/02/20 05:53:02 METAR KPMD 021353Z 20005KT 10SM CLR 03/01 A3000 RMK AO2 SLP157 T00330006
0210723820231822020010214537+34629-118083FM-15+0787KPMD V0202705N004652200059N0160935N5+00615+00225101625ADDAA101000095GA1005+999999999GD10991+9999999GF100991999999999999999999MA1101665092535MD1390139+9999REMMET10101/02/20 06:53:02 METAR KPMD 021453Z 27009KT 10SM CLR 06/02 A3002 RMK AO2 SLP162 T00610022 53013 (EC)
0190723820231822020010215537+34629-118083FM-15+0787KPMD V0202205N001552200059N0160935N5+00565+00225101725ADDAA101000095GA1005+999999999GD10991+9999999GF100991999999999999999999MA1101765092625REMMET09501/02/20 07:53:02 METAR KPMD 021553Z 22003KT 10SM CLR 06/02 A3005 RMK AO2 SLP172 T00560022 (EC)
0215723820231822020010216537+34629-118083FM-15+0787KPMD V0209999C000052200059N0048285N5+00895+00395101795ADDAA101000095AU100007015AW1051GA1005+999999999GD10991+9999999GF100991999999999999999999MA1101835092685MW1055REMMET09701/02/20 08:53:02 METAR KPMD 021653Z 00000KT 3SM HZ CLR 09/04 A3007 RMK AO2 SLP179 T00890039 (EC)
0248723820231822020010217537+34629-118083FM-15+0787KPMD V0209999C000052200059N0160935N5+01115+00285101825ADDAA101000095GA1005+999999999GD10991+9999999GF100991999999999999999999KA1060M+01111KA2060N+00281MA1101865092715MD1190189+9999REMMET11301/02/20 09:53:02 METAR KPMD 021753Z 00000KT 10SM CLR 11/03 A3008 RMK AO2 SLP182 T01110028 10111 20028 51018 (EC)
0190723820231822020010218537+34629-118083FM-15+0787KPMD V0200105N003152200059N0160935N5+01225+00285101835ADDAA101000095GA1005+999999999GD10991+9999999GF100991999999999999999999MA1101865092715REMMET09501/02/20 10:53:02 METAR KPMD 021853Z 01006KT 10SM CLR 12/03 A3008 RMK AO2 SLP183 T01220028 (EC)
0190723820231822020010219537+34629-118083FM-15+0787KPMD V0200405N004152200059N0160935N5+01445+00115101735ADDAA101000095GA1005+999999999GD10991+9999999GF100991999999999999999999MA1101795092655REMMET09501/02/20 11:53:02 METAR KPMD 021953Z 04008KT 10SM CLR 14/01 A3006 RMK AO2 SLP173 T01440011 (EC)
0210723820231822020010220537+34629-118083FM-15+0787KPMD V0200105N003652200059N0160935N5+01505+00175101655ADDAA101000095GA1005+999999999GD10991+9999999GF100991999999999999999999MA1101735092595MD1890129+9999REMMET10101/02/20 12:53:02 METAR KPMD 022053Z 01007KT 10SM CLR 15/02 A3004 RMK AO2 SLP165 T01500017 58012 (AD)
0190723820231822020010221537+34629-118083FM-15+0787KPMD V0200205N003652200059N0160935N5+01505+00115101635ADDAA101000095GA1005+999999999GD10991+9999999GF100991999999999999999999MA1101695092565REMMET09501/02/20 13:53:02 METAR KPMD 022153Z 02007KT 10SM CLR 15/01 A3003 RMK AO2 SLP163 T01500011 (AD)
0190723820231822020010222537+34629-118083FM-15+0787KPMD V0200405N003652200059N0160935N5+01565+00005101645ADDAA101000095GA1005+999999999GD10991+9999999GF100991999999999999999999MA1101735092595REMMET09501/02/20 14:53:02 METAR KPMD 022253Z 04007KT 10SM CLR 16/00 A3004 RMK AO2 SLP164 T01560000 (AD)
0248723820231822020010223537+34629-118083FM-15+0787KPMD V0200205N003652200059N0160935N5+01395+00005101735ADDAA101000095GA1005+999999999GD10991+9999999GF100991999999999999999999KA1060M+01561KA2060N+01111MA1101765092625MD1390049+9999REMMET11301/02/20 15:53:02 METAR KPMD 022353Z 02007KT 10SM CLR 14/00 A3005 RMK AO2 SLP173 T01390000 10156 20111 53004 (AD)
0185723820231822020010300537+34629-118083FM-15+0787KPMD V0203605N002652200059N0160935N5+01225+00115101845ADDAA101000095GA1005+999999999GD10991+9999999GF100991999999999999999999MA1101865092715REMMET09001/02/20 16:53:01 METAR KPMD 030053Z 36005KT 10SM CLR 12/01 A3008 RMK AO2 SLP184 T01220011
0185723820231822020010301537+34629-118083FM-15+0787KPMD V0209999C000052200059N0160935N5+01065+00115101955ADDAA101000095GA1005+999999999GD10991+9999999GF100991999999999999999999MA1101965092815REMMET09001/02/20 17:53:01 METAR KPMD 030153Z 00000KT 10SM CLR 11/01 A3011 RMK AO2 SLP195 T01060011
0205723820231822020010302537+34629-118083FM-15+0787KPMD V0209999V001552200059N0160935N5+00675+00175102045ADDAA101000095GA1005+999999999GD10991+9999999GF100991999999999999999999MA1102035092875MD1190249+9999REMMET09601/02/20 18:53:01 METAR KPMD 030253Z VRB03KT 10SM CLR 07/02 A3013 RMK AO2 SLP204 T00670017 51024
0185723820231822020010303537+34629-118083FM-15+0787KPMD V0209999C000052200059N0160935N5+00725+00175102125ADDAA101000095GA1005+999999999GD10991+9999999GF100991999999999999999999MA1102105092935REMMET09001/02/20 19:53:01 METAR KPMD 030353Z 00000KT 10SM CLR 07/02 A3015 RMK AO2 SLP212 T00720017
0185723820231822020010304537+34629-118083FM-15+0787KPMD V0201905N003152200059N0160935N5+00505+00175102185ADDAA101000095GA1005+999999999GD10991+9999999GF100991999999999999999999MA1102175093005REMMET09001/02/20 20:53:02 METAR KPMD 030453Z 19006KT 10SM CLR 05/02 A3017 RMK AO2 SLP218 T00500017
0243723820231822020010305537+34629-118083FM-15+0787KPMD V0209999C000052200059N0160935N5+00395+00115102215ADDAA101000095GA1005+999999999GD10991+9999999GF100991999999999999999999KA1060M+01391KA2060N+00331MA1102245093065MD1190179+9999REMMET10801/02/20 21:53:02 METAR KPMD 030553Z 00000KT 10SM CLR 04/01 A3019 RMK AO2 SLP221 T00390011 10139 20033 51017
0185723820231822020010306537+34629-118083FM-15+0787KPMD V0209999C000052200059N0160935N5+00335+00065102265ADDAA101000095GA1005+999999999GD10991+9999999GF100991999999999999999999MA1102275093095REMMET09001/02/20 22:53:02 METAR KPMD 030653Z 00000KT 10SM CLR 03/01 A3020 RMK AO2 SLP226 T00330006
0221723820231822020010307537+34629-118083FM-15+0787KPMD V0201805N002152200059N0160935N5+00335+00065102265ADDAA101000095GA1005+999999999GD10991+9999999GF100991999999999999999999KA1240M+01561KA2240N+00281MA1102305093125REMMET10001/02/20 23:53:02 METAR KPMD 030753Z 18004KT 10SM CLR 03/01 A3021 RMK AO2 SLP226 T00330006 401560028
0937723820231822020010307596+34629-118083SOD  +0787KPMD V020999999999999999999999999999+99999+99999999999ADDAA124000095AJ100009599999999AL12400095AN1024000095AT1AU08HZ  5AX1085245KA1240M+01565KA2240N+00285MG1092694101294OE11240102828099995OE22240080527099995OE33240025999999995REMSOD75624 HR PRECIPITATION (IN): 0.00 SNOW DEPTH (IN):0     24 HR SNOWFALL (IN):0.0  WEATHER(CODE):8  24 HR MAX TEMP (F): 6024 HR MIN TEMP (F): 37AVERAGE STATION PRESSURE:27.370 MINIMUM SEA LEVEL PRESSURE:29.91 TIME OF OCCURRENCE:0142 PEAK WIND SPEED (MPH): 23 PEAK WIND DIR (DEG):280 PEAK WIND TIME (LST):      FASTEST 2MIN SPEED (MPH): 18FASTEST 2MIN DIR (DEG):270 FASTEST 2MIN TIME (LST):     AVERAGE WIND SPEED (MPH): 5.8 24 HR AVG TEMP (F): 49DEPART FROM NORMAL:  5  HEATING DEGREE DAYS: 16 COOLING DEGREE DAYS:  0 LATEST DAY MAX TEMP (0700-1900 LST):60  LATEST NIGHT MIN TEMP(1900-0800 LST):37 HOURLY INCREMENTAL PRECIPITATION VALUES (IN):.00 0.00 0.00 0.00 0.00 0.00 0.00 0.00 0.00 0.00 0.00 0.00 0.00 0.00 0.00 0.00 0.00 0.00 0.00 0.00 0.00 0.00 0.00 0.00
0205723820231822020010308537+34629-118083FM-15+0787KPMD V0202205N002152200059N0160935N5+00285+00065102285ADDAA101000095GA1005+999999999GD10991+9999999GF100991999999999999999999MA1102305093125MD1190079+9999REMMET09601/03/20 00:53:02 METAR KPMD 030853Z 22004KT 10SM CLR 03/01 A3021 RMK AO2 SLP228 T00280006 51007
0185723820231822020010309537+34629-118083FM-15+0787KPMD V0202605N002152200059N0160935N5+00285+00065102325ADDAA101000095GA1005+999999999GD10991+9999999GF100991999999999999999999MA1102345093155REMMET09001/03/20 01:53:02 METAR KPMD 030953Z 26004KT 10SM CLR 03/01 A3022 RMK AO2 SLP232 T00280006
0185723820231822020010310537+34629-118083FM-15+0787KPMD V0209999C000052200059N0160935N5+00285+00005102315ADDAA101000095GA1005+999999999GD10991+9999999GF100991999999999999999999MA1102345093155REMMET09001/03/20 02:53:02 METAR KPMD 031053Z 00000KT 10SM CLR 03/00 A3022 RMK AO2 SLP231 T00280000
0244723820231822020010311537+34629-118083FM-15+0787KPMD V0209999C000052200059N0160935N5+00115-00065102365ADDAA101000095GA1005+999999999GD10991+9999999GF100991999999999999999999KA1060M+00391KA2060N+00111MA1102375093185MD1190069+9999REMMET10901/03/20 03:53:02 METAR KPMD 031153Z 00000KT 10SM CLR 01/M01 A3023 RMK AO2 SLP236 T00111006 10039 20011 51006
0186723820231822020010312537+34629-118083FM-15+0787KPMD V0209999C000052200059N0160935N5+00175-00065102455ADDAA101000095GA1005+999999999GD10991+9999999GF100991999999999999999999MA1102445093255REMMET09101/03/20 04:53:02 METAR KPMD 031253Z 00000KT 10SM CLR 02/M01 A3025 RMK AO2 SLP245 T00171006
0191723820231822020010313537+34629-118083FM-15+0787KPMD V0201605N001552200059N0160935N5+00065-00115102555ADDAA101000095GA1005+999999999GD10991+9999999GF100991999999999999999999MA1102515093315REMMET09601/03/20 05:53:02 METAR KPMD 031353Z 16003KT 10SM CLR 01/M01 A3027 RMK AO2 SLP255 T00061011 (DG)
0211723820231822020010314537+34629-118083FM-15+0787KPMD V0202305N002652200059N0160935N5+00115-00115102655ADDAA101000095GA1005+999999999GD10991+9999999GF100991999999999999999999MA1102575093375MD1190209+9999REMMET10201/03/20 06:53:02 METAR KPMD 031453Z 23005KT 10SM CLR 01/M01 A3029 RMK AO2 SLP265 T00111011 51020 (DG)
0191723820231822020010315537+34629-118083FM-15+0787KPMD V0203005N002652200059N0160935N5+00175-00065102755ADDAA101000095GA1005+999999999GD10991+9999999GF100991999999999999999999MA1102685093475REMMET09601/03/20 07:53:02 METAR KPMD 031553Z 30005KT 10SM CLR 02/M01 A3032 RMK AO2 SLP275 T00171006 (DG)
0190723820231822020010316537+34629-118083FM-15+0787KPMD V0209999C000052200059N0160935N5+00505+00115102835ADDAA101000095GA1005+999999999GD10991+9999999GF100991999999999999999999MA1102785093565REMMET09501/03/20 08:53:02 METAR KPMD 031653Z 00000KT 10SM CLR 05/01 A3035 RMK AO2 SLP283 T00500011 (DG)
0248723820231822020010317537+34629-118083FM-15+0787KPMD V0203305N001552200059N0160935N5+00945+00225102825ADDAA101000095GA1005+999999999GD10991+9999999GF100991999999999999999999KA1060M+00941KA2060N+00001MA1102815093595MD1190219+9999REMMET11301/03/20 09:53:02 METAR KPMD 031753Z 33003KT 10SM CLR 09/02 A3036 RMK AO2 SLP282 T00940022 10094 20000 51021 (DG)
0190723820231822020010318537+34629-118083FM-15+0787KPMD V0209999C000052200059N0160935N5+01115+00175102775ADDAA101000095GA1005+999999999GD10991+9999999GF100991999999999999999999MA1102745093535REMMET09501/03/20 10:53:02 METAR KPMD 031853Z 00000KT 10SM CLR 11/02 A3034 RMK AO2 SLP277 T01110017 (DG)
0190723820231822020010319537+34629-118083FM-15+0787KPMD V0202805N002652200059N0160935N5+01335+00115102685ADDAA101000095GA1005+999999999GD10991+9999999GF100991999999999999999999MA1102685093475REMMET09501/03/20 11:53:02 METAR KPMD 031953Z 28005KT 10SM CLR 13/01 A3032 RMK AO2 SLP268 T01330011 (DG)
0210723820231822020010320537+34629-118083FM-15+0787KPMD V0203205N001552200059N0160935N5+01445+00115102605ADDAA101000095GA1005+999999999GD10991+9999999GF100991999999999999999999MA1102615093405MD1890179+9999REMMET10101/03/20 12:53:02 METAR KPMD 032053Z 32003KT 10SM CLR 14/01 A3030 RMK AO2 SLP260 T01440011 58017 (KC)
0190723820231822020010321537+34629-118083FM-15+0787KPMD V0209999C000052200059N0160935N5+01505+00065102575ADDAA101000095GA1005+999999999GD10991+9999999GF100991999999999999999999MA1102575093375REMMET09501/03/20 13:53:02 METAR KPMD 032153Z 00000KT 10SM CLR 15/01 A3029 RMK AO2 SLP257 T01500006 (KC)
0190723820231822020010322537+34629-118083FM-15+0787KPMD V0209999C000052200059N0160935N5+01615+00005102555ADDAA101000095GA1005+999999999GD10991+9999999GF100991999999999999999999MA1102575093375REMMET09501/03/20 14:53:02 METAR KPMD 032253Z 00000KT 10SM CLR 16/00 A3029 RMK AO2 SLP255 T01610000 (KC)
0248723820231822020010323537+34629-118083FM-15+0787KPMD V0209999C000052200059N0160935N5+01615+00005102555ADDAA101000095GA1005+999999999GD10991+9999999GF100991999999999999999999KA1060M+01671KA2060N+00941MA1102575093375MD1690049+9999REMMET11301/03/20 15:53:02 METAR KPMD 032353Z 00000KT 10SM CLR 16/00 A3029 RMK AO2 SLP255 T01610000 10167 20094 56004 (KC)
0185723820231822020010400537+34629-118083FM-15+0787KPMD V0200805N001552200059N0160935N5+01335+00175102585ADDAA101000095GA1005+999999999GD10991+9999999GF100991999999999999999999MA1102575093375REMMET09001/03/20 16:53:01 METAR KPMD 040053Z 08003KT 10SM CLR 13/02 A3029 RMK AO2 SLP258 T01330017
0185723820231822020010401537+34629-118083FM-15+0787KPMD V0201405N002152200059N0160935N5+00945+00285102645ADDAA101000095GA1005+999999999GD10991+9999999GF100991999999999999999999MA1102575093375REMMET09001/03/20 17:53:01 METAR KPMD 040153Z 14004KT 10SM CLR 09/03 A3029 RMK AO2 SLP264 T00940028
0205723820231822020010402537+34629-118083FM-15+0787KPMD V0202005N003652200059N0160935N5+00785+00225102685ADDAA101000095GA1005+999999999GD10991+9999999GF100991999999999999999999MA1102615093405MD1390049+9999REMMET09601/03/20 18:53:01 METAR KPMD 040253Z 20007KT 10SM CLR 08/02 A3030 RMK AO2 SLP268 T00780022 53004
0185723820231822020010403537+34629-118083FM-15+0787KPMD V0201905N002652200059N0160935N5+00615+00175102775ADDAA101000095GA1005+999999999GD10991+9999999GF100991999999999999999999MA1102685093475REMMET09001/03/20 19:53:01 METAR KPMD 040353Z 19005KT 10SM CLR 06/02 A3032 RMK AO2 SLP277 T00610017
0185723820231822020010404537+34629-118083FM-15+0787KPMD V0202005N002652200059N0160935N5+00565+00175102785ADDAA101000095GA1005+999999999GD10991+9999999GF100991999999999999999999MA1102745093535REMMET09001/03/20 20:53:02 METAR KPMD 040453Z 20005KT 10SM CLR 06/02 A3034 RMK AO2 SLP278 T00560017
0243723820231822020010405537+34629-118083FM-15+0787KPMD V0202505N002652200059N0160935N5+00675+00175102765ADDAA101000095GA1005+999999999GD10991+9999999GF100991999999999999999999KA1060M+01611KA2060N+00501MA1102785093565MD1190149+9999REMMET10801/03/20 21:53:02 METAR KPMD 040553Z 25005KT 10SM CLR 07/02 A3035 RMK AO2 SLP276 T00670017 10161 20050 51014
0185723820231822020010406537+34629-118083FM-15+0787KPMD V0209999C000052200059N0160935N5+00445+00115102795ADDAA101000095GA1005+999999999GD10991+9999999GF100991999999999999999999MA1102785093565REMMET09001/03/20 22:53:02 METAR KPMD 040653Z 00000KT 10SM CLR 04/01 A3035 RMK AO2 SLP279 T00440011
0221723820231822020010407537+34629-118083FM-15+0787KPMD V0201805N003652200059N0160935N5+00335+00065102745ADDAA101000095GA1005+999999999GD10991+9999999GF100991999999999999999999KA1240M+01671KA2240N+00001MA1102745093535REMMET10001/03/20 23:53:02 METAR KPMD 040753Z 18007KT 10SM CLR 03/01 A3034 RMK AO2 SLP274 T00330006 401670000
0899723820231822020010407596+34629-118083SOD  +0787KPMD V020999999999999999999999999999+99999+99999999999ADDAA124000095AJ100009599999999AL12400095AN1024000095KA1240M+01675KA2240N+00005MG1093414102244OE11240040219099995OE22240040219099995OE33240014899999995REMSOD73924 HR PRECIPITATION (IN): 0.00 SNOW DEPTH (IN):0     24 HR SNOWFALL (IN):0.0  24 HR MAX TEMP (F): 6224 HR MIN TEMP (F): 32AVERAGE STATION PRESSURE:27.585 MINIMUM SEA LEVEL PRESSURE:30.19 TIME OF OCCURRENCE:0026 PEAK WIND SPEED (MPH):  9 PEAK WIND DIR (DEG):190 PEAK WIND TIME (LST):      FASTEST 2MIN SPEED (MPH):  9FASTEST 2MIN DIR (DEG):190 FASTEST 2MIN TIME (LST):     AVERAGE WIND SPEED (MPH): 3.3 24 HR AVG TEMP (F): 47DEPART FROM NORMAL:  3  HEATING DEGREE DAYS: 18 COOLING DEGREE DAYS:  0 LATEST DAY MAX TEMP (0700-1900 LST):62  LATEST NIGHT MIN TEMP(1900-0800 LST):32 HOURLY INCREMENTAL PRECIPITATION VALUES (IN):.00 0.00 0.00 0.00 0.00 0.00 0.00 0.00 0.00 0.00 0.00 0.00 0.00 0.00 0.00 0.00 0.00 0.00 0.00 0.00 0.00 0.00 0.00 0.00
0205723820231822020010408537+34629-118083FM-15+0787KPMD V0201705N002652200059N0160935N5+00285+00065102665ADDAA101000095GA1005+999999999GD10991+9999999GF100991999999999999999999MA1102685093475MD1890079+9999REMMET09601/04/20 00:53:02 METAR KPMD 040853Z 17005KT 10SM CLR 03/01 A3032 RMK AO2 SLP266 T00280006 58007
0185723820231822020010409537+34629-118083FM-15+0787KPMD V0209999C000052200059N0160935N5+00395+00065102645ADDAA101000095GA1005+999999999GD10991+9999999GF100991999999999999999999MA1102685093475REMMET09001/04/20 01:53:02 METAR KPMD 040953Z 00000KT 10SM CLR 04/01 A3032 RMK AO2 SLP264 T00390006
0185723820231822020010410537+34629-118083FM-15+0787KPMD V0209999C000052200059N0160935N5+00675+00065102565ADDAA101000095GA1005+999999999GD10991+9999999GF100991999999999999999999MA1102645093445REMMET09001/04/20 02:53:02 METAR KPMD 041053Z 00000KT 10SM CLR 07/01 A3031 RMK AO2 SLP256 T00670006
0243723820231822020010411537+34629-118083FM-15+0787KPMD V0209999C000052200059N0160935N5+00675+00065102525ADDAA101000095GA1005+999999999GD10991+9999999GF100991999999999999999999KA1060M+00721KA2060N+00221MA1102575093375MD1890099+9999REMMET10801/04/20 03:53:02 METAR KPMD 041153Z 00000KT 10SM CLR 07/01 A3029 RMK AO2 SLP252 T00670006 10072 20022 58009
0186723820231822020010412537+34629-118083FM-15+0787KPMD V0203305N004152200059N0160935N5+00335-00065102565ADDAA101000095GA1005+999999999GD10991+9999999GF100991999999999999999999MA1102575093375REMMET09101/04/20 04:53:02 METAR KPMD 041253Z 33008KT 10SM CLR 03/M01 A3029 RMK AO2 SLP256 T00331006
0101723820231822020010413274+34629-118085FM-15+077599999V0209999C000012200019N016093199+00301+00001999999ADDGF100991999999999999999999MA1102611999999REMMET048METAR KPMD 041327Z 00000KT 10SM CLR 03/00 A3030=
0191723820231822020010413537+34629-118083FM-15+0787KPMD V0201405N001552200059N0160935N5+00225-00065102655ADDAA101000095GA1005+999999999GD10991+9999999GF100991999999999999999999MA1102615093405REMMET09601/04/20 05:53:02 METAR KPMD 041353Z 14003KT 10SM CLR 02/M01 A3030 RMK AO2 SLP265 T00221006 (DG)
0211723820231822020010414537+34629-118083FM-15+0787KPMD V0202105N006752200059N0160935N5+01065-00175102615ADDAA101000095GA1005+999999999GD10991+9999999GF100991999999999999999999MA1102645093445MD1390059+9999REMMET10201/04/20 06:53:02 METAR KPMD 041453Z 21013KT 10SM CLR 11/M02 A3031 RMK AO2 SLP261 T01061017 53005 (DG)
0191723820231822020010415537+34629-118083FM-15+0787KPMD V0202505N002652200059N0160935N5+01115-00175102705ADDAA101000095GA1005+999999999GD10991+9999999GF100991999999999999999999MA1102715093505REMMET09601/04/20 07:53:02 METAR KPMD 041553Z 25005KT 10SM CLR 11/M02 A3033 RMK AO2 SLP270 T01111017 (DG)
0190723820231822020010416537+34629-118083FM-15+0787KPMD V0203005N003152200059N0160935N5+01335+00005102785ADDAA101000095GA1005+999999999GD10991+9999999GF100991999999999999999999MA1102815093595REMMET09501/04/20 08:53:02 METAR KPMD 041653Z 30006KT 10SM CLR 13/00 A3036 RMK AO2 SLP278 T01330000 (DG)
0249723820231822020010417537+34629-118083FM-15+0787KPMD V0202205N006252200059N0160935N5+01675-00175102785ADDAA101000095GA1005+999999999GD10991+9999999GF100991999999999999999999KA1060M+01671KA2060N+00171MA1102845093625MD1190189+9999REMMET11401/04/20 09:53:02 METAR KPMD 041753Z 22012KT 10SM CLR 17/M02 A3037 RMK AO2 SLP278 T01671017 10167 20017 51018 (DG)
0191723820231822020010418537+34629-118083FM-15+0787KPMD V0202205N006752200059N0160935N5+01725-00225102725ADDAA101000095GA1005+999999999GD10991+9999999GF100991999999999999999999MA1102785093565REMMET09601/04/20 10:53:02 METAR KPMD 041853Z 22013KT 10SM CLR 17/M02 A3035 RMK AO2 SLP272 T01721022 (DG)
0191723820231822020010419537+34629-118083FM-15+0787KPMD V0202205N004152200059N0160935N5+01785-00285102645ADDAA101000095GA1005+999999999GD10991+9999999GF100991999999999999999999MA1102685093475REMMET09601/04/20 11:53:02 METAR KPMD 041953Z 22008KT 10SM CLR 18/M03 A3032 RMK AO2 SLP264 T01781028 (DG)
0211723820231822020010420537+34629-118083FM-15+0787KPMD V0202205N005152200059N0160935N5+01895-00285102545ADDAA101000095GA1005+999999999GD10991+9999999GF100991999999999999999999MA1102575093375MD1890229+9999REMMET10201/04/20 12:53:02 METAR KPMD 042053Z 22010KT 10SM CLR 19/M03 A3029 RMK AO2 SLP254 T01891028 58022 (DG)
0191723820231822020010421537+34629-118083FM-15+0787KPMD V0202405N004152200059N0160935N5+01895-00225102505ADDAA101000095GA1005+999999999GD10991+9999999GF100991999999999999999999MA1102575093375REMMET09601/04/20 13:53:02 METAR KPMD 042153Z 24008KT 10SM CLR 19/M02 A3029 RMK AO2 SLP250 T01891022 (BO)
0191723820231822020010422537+34629-118083FM-15+0787KPMD V0202505N003652200059N0160935N5+01895-00115102475ADDAA101000095GA1005+999999999GD10991+9999999GF100991999999999999999999MA1102545093345REMMET09601/04/20 14:53:02 METAR KPMD 042253Z 25007KT 10SM CLR 19/M01 A3028 RMK AO2 SLP247 T01891011 (BO)
0249723820231822020010423537+34629-118083FM-15+0787KPMD V0202305N004652200059N0160935N5+01785-00065102475ADDAA101000095GA1005+999999999GD10991+9999999GF100991999999999999999999KA1060M+01941KA2060N+01611MA1102545093345MD1690059+9999REMMET11401/04/20 15:53:02 METAR KPMD 042353Z 23009KT 10SM CLR 18/M01 A3028 RMK AO2 SLP247 T01781006 10194 20161 56005 (BO)
0186723820231822020010500537+34629-118083FM-15+0787KPMD V0202005N002652200059N0160935N5+01395-00065102505ADDAA101000095GA1005+999999999GD10991+9999999GF100991999999999999999999MA1102515093315REMMET09101/04/20 16:53:01 METAR KPMD 050053Z 20005KT 10SM CLR 14/M01 A3027 RMK AO2 SLP250 T01391006
0186723820231822020010501537+34629-118083FM-15+0787KPMD V0201505N003152200059N0160935N5+01225-00065102585ADDAA101000095GA1005+999999999GD10991+9999999GF100991999999999999999999MA1102575093375REMMET09101/04/20 17:53:01 METAR KPMD 050153Z 15006KT 10SM CLR 12/M01 A3029 RMK AO2 SLP258 T01221006
0205723820231822020010502537+34629-118083FM-15+0787KPMD V0200205N001552200059N0160935N5+00835+00005102625ADDAA101000095GA1005+999999999GD10991+9999999GF100991999999999999999999MA1102645093445MD1390099+9999REMMET09601/04/20 18:53:01 METAR KPMD 050253Z 02003KT 10SM CLR 08/00 A3031 RMK AO2 SLP262 T00830000 53009
0186723820231822020010503537+34629-118083FM-15+0787KPMD V0202605N002152200059N0160935N5+00835-00065102655ADDAA101000095GA1005+999999999GD10991+9999999GF100991999999999999999999MA1102685093475REMMET09101/04/20 19:53:01 METAR KPMD 050353Z 26004KT 10SM CLR 08/M01 A3032 RMK AO2 SLP265 T00831006
0185723820231822020010504537+34629-118083FM-15+0787KPMD V0209999C000052200059N0160935N5+00505+00065102755ADDAA101000095GA1005+999999999GD10991+9999999GF100991999999999999999999MA1102785093565REMMET09001/04/20 20:53:02 METAR KPMD 050453Z 00000KT 10SM CLR 05/01 A3035 RMK AO2 SLP275 T00500006
0243723820231822020010505537+34629-118083FM-15+0787KPMD V0201805N002652200059N0160935N5+00505+00005102785ADDAA101000095GA1005+999999999GD10991+9999999GF100991999999999999999999KA1060M+01781KA2060N+00391MA1102845093625MD1390189+9999REMMET10801/04/20 21:53:02 METAR KPMD 050553Z 18005KT 10SM CLR 05/00 A3037 RMK AO2 SLP278 T00500000 10178 20039 53018
0185723820231822020010506537+34629-118083FM-15+0787KPMD V0202005N003652200059N0160935N5+00565+00065102745ADDAA101000095GA1005+999999999GD10991+9999999GF100991999999999999999999MA1102815093595REMMET09001/04/20 22:53:02 METAR KPMD 050653Z 20007KT 10SM CLR 06/01 A3036 RMK AO2 SLP274 T00560006
0222723820231822020010507537+34629-118083FM-15+0787KPMD V0202005N001552200059N0160935N5+00285-00065102735ADDAA101000095GA1005+999999999GD10991+9999999GF100991999999999999999999KA1240M+01941KA2240N+00171MA1102785093565REMMET10101/04/20 23:53:02 METAR KPMD 050753Z 20003KT 10SM CLR 03/M01 A3035 RMK AO2 SLP273 T00281006 401940017
0899723820231822020010507596+34629-118083SOD  +0787KPMD V020999999999999999999999999999+99999+99999999999ADDAA124000095AJ100009599999999AL12400095AN1024000095KA1240M+01945KA2240N+00175MG1093484102444OE11240098323099995OE22240076022099995OE33240030099999995REMSOD73924 HR PRECIPITATION (IN): 0.00 SNOW DEPTH (IN):0     24 HR SNOWFALL (IN):0.0  24 HR MAX TEMP (F): 6724 HR MIN TEMP (F): 35AVERAGE STATION PRESSURE:27.605 MINIMUM SEA LEVEL PRESSURE:30.25 TIME OF OCCURRENCE:1627 PEAK WIND SPEED (MPH): 22 PEAK WIND DIR (DEG):230 PEAK WIND TIME (LST):      FASTEST 2MIN SPEED (MPH): 17FASTEST 2MIN DIR (DEG):220 FASTEST 2MIN TIME (LST):     AVERAGE WIND SPEED (MPH): 6.7 24 HR AVG TEMP (F): 51DEPART FROM NORMAL:  7  HEATING DEGREE DAYS: 14 COOLING DEGREE DAYS:  0 LATEST DAY MAX TEMP (0700-1900 LST):67  LATEST NIGHT MIN TEMP(1900-0800 LST):35 HOURLY INCREMENTAL PRECIPITATION VALUES (IN):.00 0.00 0.00 0.00 0.00 0.00 0.00 0.00 0.00 0.00 0.00 0.00 0.00 0.00 0.00 0.00 0.00 0.00 0.00 0.00 0.00 0.00 0.00 0.00
0206723820231822020010508537+34629-118083FM-15+0787KPMD V0202005N003652200059N0160935N5+00335-00115102685ADDAA101000095GA1005+999999999GD10991+9999999GF100991999999999999999999MA1102745093535MD1890099+9999REMMET09701/05/20 00:53:02 METAR KPMD 050853Z 20007KT 10SM CLR 03/M01 A3034 RMK AO2 SLP268 T00331011 58009
0186723820231822020010509537+34629-118083FM-15+0787KPMD V0201805N003652200059N0160935N5+00225-00115102655ADDAA101000095GA1005+999999999GD10991+9999999GF100991999999999999999999MA1102715093505REMMET09101/05/20 01:53:02 METAR KPMD 050953Z 18007KT 10SM CLR 02/M01 A3033 RMK AO2 SLP265 T00221011
0186723820231822020010510537+34629-118083FM-15+0787KPMD V0202905N001552200059N0160935N5+00225-00115102645ADDAA101000095GA1005+999999999GD10991+9999999GF100991999999999999999999MA1102685093475REMMET09101/05/20 02:53:02 METAR KPMD 051053Z 29003KT 10SM CLR 02/M01 A3032 RMK AO2 SLP264 T00221011
0244723820231822020010511537+34629-118083FM-15+0787KPMD V0209999C000052200059N0160935N5+00115-00175102655ADDAA101000095GA1005+999999999GD10991+9999999GF100991999999999999999999KA1060M+00561KA2060N+00111MA1102685093475MD1690069+9999REMMET10901/05/20 03:53:02 METAR KPMD 051153Z 00000KT 10SM CLR 01/M02 A3032 RMK AO2 SLP265 T00111017 10056 20011 56006
0186723820231822020010512537+34629-118083FM-15+0787KPMD V0209999C000052200059N0160935N5+00115-00225102695ADDAA101000095GA1005+999999999GD10991+9999999GF100991999999999999999999MA1102685093475REMMET09101/05/20 04:53:02 METAR KPMD 051253Z 00000KT 10SM CLR 01/M02 A3032 RMK AO2 SLP269 T00111022
0102723820231822020010513384+34629-118085FM-15+077599999V0209999C000012200019N016093199+00101-00201999999ADDGF100991999999999999999999MA1102711999999REMMET049METAR KPMD 051338Z 00000KT 10SM CLR 01/M02 A3033=
0191723820231822020010513537+34629-118083FM-15+0787KPMD V0201805N003652200059N0160935N5+00005-00225102725ADDAA101000095GA1005+999999999GD10991+9999999GF100991999999999999999999MA1102685093475REMMET09601/05/20 05:53:02 METAR KPMD 051353Z 18007KT 10SM CLR 00/M02 A3032 RMK AO2 SLP272 T00001022 (BO)
0211723820231822020010514537+34629-118083FM-15+0787KPMD V0202005N002152200059N0160935N5+00115-00225102815ADDAA101000095GA1005+999999999GD10991+9999999GF100991999999999999999999MA1102745093535MD1390089+9999REMMET10201/05/20 06:53:02 METAR KPMD 051453Z 20004KT 10SM CLR 01/M02 A3034 RMK AO2 SLP281 T00111022 53008 (BO)
0189723820231822020010515537+34629-118083FM-15+0787KPMD V0202705N005752200059N0144845N5+00725+00175102875ADDAA101000095GA1005+999999999GD10991+9999999GF100991999999999999999999MA1102885093655REMMET09401/05/20 07:53:02 METAR KPMD 051553Z 27011KT 9SM CLR 07/02 A3038 RMK AO2 SLP287 T00720017 (BO)
0190723820231822020010516537+34629-118083FM-15+0787KPMD V0209999V001552200059N0160935N5+00785+00175102985ADDAA101000095GA1005+999999999GD10991+9999999GF100991999999999999999999MA1102955093725REMMET09501/05/20 08:53:02 METAR KPMD 051653Z VRB03KT 10SM CLR 08/02 A3040 RMK AO2 SLP298 T00780017 (BO)
0248723820231822020010517537+34629-118083FM-15+0787KPMD V0202905N008252200059N0160935N5+01115+00335102955ADDAA101000095GA1005+999999999GD10991+9999999GF100991999999999999999999KA1060M+01111KA2060N-00061MA1102955093725MD1090189+9999REMMET11301/05/20 09:53:02 METAR KPMD 051753Z 29016KT 10SM CLR 11/03 A3040 RMK AO2 SLP295 T01110033 10111 21006 50018 (BO)
0190723820231822020010518537+34629-118083FM-15+0787KPMD V0209999C000052200059N0160935N5+01225+00175102825ADDAA101000095GA1005+999999999GD10991+9999999GF100991999999999999999999MA1102845093625REMMET09501/05/20 10:53:02 METAR KPMD 051853Z 00000KT 10SM CLR 12/02 A3037 RMK AO2 SLP282 T01220017 (BO)
0190723820231822020010519537+34629-118083FM-15+0787KPMD V0202805N008252200059N0160935N5+01445+00175102725ADDAA101000095GA1005+999999999GD10991+9999999GF100991999999999999999999MA1102745093535REMMET09501/05/20 11:53:02 METAR KPMD 051953Z 28016KT 10SM CLR 14/02 A3034 RMK AO2 SLP272 T01440017 (BO)
0210723820231822020010520537+34629-118083FM-15+0787KPMD V0202805N008852200059N0160935N5+01395+00175102695ADDAA101000095GA1005+999999999GD10991+9999999GF100991999999999999999999MA1102715093505MD1690239+9999REMMET10101/05/20 12:53:02 METAR KPMD 052053Z 28017KT 10SM CLR 14/02 A3033 RMK AO2 SLP269 T01390017 56023 (BO)
0190723820231822020010521537+34629-118083FM-15+0787KPMD V0203005N006752200059N0160935N5+01445+00115102715ADDAA101000095GA1005+999999999GD10991+9999999GF100991999999999999999999MA1102715093505REMMET09501/05/20 13:53:02 METAR KPMD 052153Z 30013KT 10SM CLR 14/01 A3033 RMK AO2 SLP271 T01440011 (BO)
0190723820231822020010522537+34629-118083FM-15+0787KPMD V0202905N004152200059N0160935N5+01395+00225102725ADDAA101000095GA1005+999999999GD10991+9999999GF100991999999999999999999MA1102715093505REMMET09501/05/20 14:53:02 METAR KPMD 052253Z 29008KT 10SM CLR 14/02 A3033 RMK AO2 SLP272 T01390022 (TJ)
0248723820231822020010523537+34629-118083FM-15+0787KPMD V0203005N005752200059N0160935N5+01175+00175102795ADDAA101000095GA1005+999999999GD10991+9999999GF100991999999999999999999KA1060M+01441KA2060N+01111MA1102785093565MD1390059+9999REMMET11301/05/20 15:53:02 METAR KPMD 052353Z 30011KT 10SM CLR 12/02 A3035 RMK AO2 SLP279 T01170017 10144 20111 53005 (TJ)
0185723820231822020010600537+34629-118083FM-15+0787KPMD V0203005N007752200059N0160935N5+00895+00175102875ADDAA101000095GA1005+999999999GD10991+9999999GF100991999999999999999999MA1102815093595REMMET09001/05/20 16:53:01 METAR KPMD 060053Z 30015KT 10SM CLR 09/02 A3036 RMK AO2 SLP287 T00890017
0185723820231822020010601537+34629-118083FM-15+0787KPMD V0203005N005152200059N0160935N5+00725+00175102945ADDAA101000095GA1005+999999999GD10991+9999999GF100991999999999999999999MA1102885093655REMMET09001/05/20 17:53:01 METAR KPMD 060153Z 30010KT 10SM CLR 07/02 A3038 RMK AO2 SLP294 T00720017
0205723820231822020010602537+34629-118083FM-15+0787KPMD V0202005N001552200059N0160935N5+00615+00175102995ADDAA101000095GA1005+999999999GD10991+9999999GF100991999999999999999999MA1102915093695MD1190139+9999REMMET09601/05/20 18:53:01 METAR KPMD 060253Z 20003KT 10SM CLR 06/02 A3039 RMK AO2 SLP299 T00610017 51013
0185723820231822020010603537+34629-118083FM-15+0787KPMD V0202305N001552200059N0160935N5+00445+00115102955ADDAA101000095GA1005+999999999GD10991+9999999GF100991999999999999999999MA1102915093695REMMET09001/05/20 19:53:01 METAR KPMD 060353Z 23003KT 10SM CLR 04/01 A3039 RMK AO2 SLP295 T00440011
0185723820231822020010604537+34629-118083FM-15+0787KPMD V0201805N003152200059N0160935N5+00335+00065103025ADDAA101000095GA1005+999999999GD10991+9999999GF100991999999999999999999MA1102985093755REMMET09001/05/20 20:53:02 METAR KPMD 060453Z 18006KT 10SM CLR 03/01 A3041 RMK AO2 SLP302 T00330006
0244723820231822020010605537+34629-118083FM-15+0787KPMD V0209999C000052200059N0160935N5+00175-00065103055ADDAA101000095GA1005+999999999GD10991+9999999GF100991999999999999999999KA1060M+01171KA2060N+00171MA1103015093785MD1390119+9999REMMET10901/05/20 21:53:02 METAR KPMD 060553Z 00000KT 10SM CLR 02/M01 A3042 RMK AO2 SLP305 T00171006 10117 20017 53011
0186723820231822020010606537+34629-118083FM-15+0787KPMD V0202605N001552200059N0160935N5+00115-00115103105ADDAA101000095GA1005+999999999GD10991+9999999GF100991999999999999999999MA1103085093845REMMET09101/05/20 22:53:02 METAR KPMD 060653Z 26003KT 10SM CLR 01/M01 A3044 RMK AO2 SLP310 T00111011
0222723820231822020010607537+34629-118083FM-15+0787KPMD V0209999C000052200059N0160935N5+00065-00175103035ADDAA101000095GA1005+999999999GD10991+9999999GF100991999999999999999999KA1240M+01441KA2240N-00061MA1103015093785REMMET10101/05/20 23:53:02 METAR KPMD 060753Z 00000KT 10SM CLR 01/M02 A3042 RMK AO2 SLP303 T00061017 401441006
0944723820231822020010607596+34629-118083SOD  +0787KPMD V020999999999999999999999999999+99999+99999999999ADDAA124000095AJ100009599999999AL12400095AN1024000095AX1086246KA1240M+01445KA2240N-00055MG1093624102614OE11240116227099995OE22240098328099995OE33240034999999995REMSOD75624 HR PRECIPITATION (IN): 0.00 SNOW DEPTH (IN):0     24 HR SNOWFALL (IN):0.0  WEATHER(CODE):8  24 HR MAX TEMP (F): 5824 HR MIN TEMP (F): 31AVERAGE STATION PRESSURE:27.645 MINIMUM SEA LEVEL PRESSURE:30.30 TIME OF OCCURRENCE:0311 PEAK WIND SPEED (MPH): 26 PEAK WIND DIR (DEG):270 PEAK WIND TIME (LST):      FASTEST 2MIN SPEED (MPH): 22FASTEST 2MIN DIR (DEG):280 FASTEST 2MIN TIME (LST):     AVERAGE WIND SPEED (MPH): 7.8 24 HR AVG TEMP (F): 45DEPART FROM NORMAL:  1  HEATING DEGREE DAYS: 20 COOLING DEGREE DAYS:  0 LATEST DAY MAX TEMP (0700-1900 LST):58  LATEST NIGHT MIN TEMP(1900-0800 LST):31 HOURLY INCREMENTAL PRECIPITATION VALUES (IN):.00 0.00 0.00 0.00 0.00 0.00 0.00 0.00 0.00 0.00 0.00 0.00 0.00 0.00 0.00 0.00 0.00 0.00 0.00 0.00 0.00 0.00 0.00 0.00EQDR01     87AXW093
0206723820231822020010608537+34629-118083FM-15+0787KPMD V0203205N002152200059N0160935N5+00225-00065103035ADDAA101000095GA1005+999999999GD10991+9999999GF100991999999999999999999MA1103015093785MD1090009+9999REMMET09701/06/20 00:53:02 METAR KPMD 060853Z 32004KT 10SM CLR 02/M01 A3042 RMK AO2 SLP303 T00221006 50000
0187723820231822020010609537+34629-118083FM-15+0787KPMD V0209999C000052200059N0160935N5-00065-00285103125ADDAA101000095GA1005+999999999GD10991+9999999GF100991999999999999999999MA1103125093875REMMET09201/06/20 01:53:02 METAR KPMD 060953Z 00000KT 10SM CLR M01/M03 A3045 RMK AO2 SLP312 T10061028
0187723820231822020010610537+34629-118083FM-15+0787KPMD V0201405N003652200059N0160935N5-00115-00225103105ADDAA101000095GA1005+999999999GD10991+9999999GF100991999999999999999999MA1103085093845REMMET09201/06/20 02:53:02 METAR KPMD 061053Z 14007KT 10SM CLR M01/M02 A3044 RMK AO2 SLP310 T10111022
0244723820231822020010611537+34629-118083FM-15+0787KPMD V0209999C000052200059N0160935N5+00005-00175103105ADDAA101000095GA1005+999999999GD10991+9999999GF100991999999999999999999KA1060M+00281KA2060N-00171MA1103085093845MD1090039+9999REMMET10901/06/20 03:53:02 METAR KPMD 061153Z 00000KT 10SM CLR 00/M02 A3044 RMK AO2 SLP310 T00001017 10028 21017 50003
0187723820231822020010612537+34629-118083FM-15+0787KPMD V0201705N002152200059N0160935N5-00175-00335103135ADDAA101000095GA1005+999999999GD10991+9999999GF100991999999999999999999MA1103055093815REMMET09201/06/20 04:53:02 METAR KPMD 061253Z 17004KT 10SM CLR M02/M03 A3043 RMK AO2 SLP313 T10171033
0192723820231822020010613537+34629-118083FM-15+0787KPMD V0203005N003152200059N0160935N5-00065-00225103225ADDAA101000095GA1005+999999999GD10991+9999999GF100991999999999999999999MA1103125093875REMMET09701/06/20 05:53:02 METAR KPMD 061353Z 30006KT 10SM CLR M01/M02 A3045 RMK AO2 SLP322 T10061022 (BO)
0211723820231822020010614537+34629-118083FM-15+0787KPMD V0202105N002652200059N0144845N5-00115-00285103315ADDAA101000095GA1005+999999999GD10991+9999999GF100991999999999999999999MA1103225093975MD1390139+9999REMMET10201/06/20 06:53:02 METAR KPMD 061453Z 21005KT 9SM CLR M01/M03 A3048 RMK AO2 SLP331 T10111028 53013 (BO)
0190723820231822020010615537+34629-118083FM-15+0787KPMD V0201705N002152200059N0128755N5+00005-00175103375ADDAA101000095GA1005+999999999GD10991+9999999GF100991999999999999999999MA1103255094005REMMET09501/06/20 07:53:02 METAR KPMD 061553Z 17004KT 8SM CLR 00/M02 A3049 RMK AO2 SLP337 T00001017 (BO)
0190723820231822020010616537+34629-118083FM-15+0787KPMD V0209999C000052200059N0160935N5+00395+00065103395ADDAA101000095GA1005+999999999GD10991+9999999GF100991999999999999999999MA1103325094065REMMET09501/06/20 08:53:02 METAR KPMD 061653Z 00000KT 10SM CLR 04/01 A3051 RMK AO2 SLP339 T00390006 (BO)
0248723820231822020010617537+34629-118083FM-15+0787KPMD V0203505N003152200059N0160935N5+00675+00005103405ADDAA101000095GA1005+999999999GD10991+9999999GF100991999999999999999999KA1060M+00671KA2060N-00221MA1103325094065MD1190119+9999REMMET11301/06/20 09:53:02 METAR KPMD 061753Z 35006KT 10SM CLR 07/00 A3051 RMK AO2 SLP340 T00670000 10067 21022 51011 (BO)
0190723820231822020010618537+34629-118083FM-15+0787KPMD V0203405N003152200059N0160935N5+00835+00005103335ADDAA101000095GA1005+999999999GD10991+9999999GF100991999999999999999999MA1103255094005REMMET09501/06/20 10:53:02 METAR KPMD 061853Z 34006KT 10SM CLR 08/00 A3049 RMK AO2 SLP333 T00830000 (BO)
0190723820231822020010619537+34629-118083FM-15+0787KPMD V0203505N004652200059N0160935N5+01115+00005103185ADDAA101000095GA1005+999999999GD10991+9999999GF100991999999999999999999MA1103155093915REMMET09501/06/20 11:53:02 METAR KPMD 061953Z 35009KT 10SM CLR 11/00 A3046 RMK AO2 SLP318 T01110000 (BO)
0211723820231822020010620537+34629-118083FM-15+0787KPMD V0200105N004652200059N0160935N5+01395-00115103035ADDAA101000095GA1005+999999999GD10991+9999999GF100991999999999999999999MA1103015093785MD1890279+9999REMMET10201/06/20 12:53:02 METAR KPMD 062053Z 01009KT 10SM CLR 14/M01 A3042 RMK AO2 SLP303 T01391011 58027 (KC)
0191723820231822020010621537+34629-118083FM-15+0787KPMD V0200305N006752200059N0160935N5+01615-00505102965ADDAA101000095GA1005+999999999GD10991+9999999GF100991999999999999999999MA1102955093725REMMET09601/06/20 13:53:02 METAR KPMD 062153Z 03013KT 10SM CLR 16/M05 A3040 RMK AO2 SLP296 T01611050 (KC)
0191723820231822020010622537+34629-118083FM-15+0787KPMD V0200205N005752200059N0160935N5+01615-00505102915ADDAA101000095GA1005+999999999GD10991+9999999GF100991999999999999999999MA1102915093695REMMET09601/06/20 14:53:02 METAR KPMD 062253Z 02011KT 10SM CLR 16/M05 A3039 RMK AO2 SLP291 T01611050 (KC)
0249723820231822020010623537+34629-118083FM-15+0787KPMD V0203605N004652200059N0160935N5+01505-00505102905ADDAA101000095GA1005+999999999GD10991+9999999GF100991999999999999999999KA1060M+01611KA2060N+00671MA1102885093655MD1690139+9999REMMET11401/06/20 15:53:02 METAR KPMD 062353Z 36009KT 10SM CLR 15/M05 A3038 RMK AO2 SLP290 T01501050 10161 20067 56013 (KC)
0186723820231822020010700537+34629-118083FM-15+0787KPMD V0203605N003152200059N0160935N5+01225-00445102915ADDAA101000095GA1005+999999999GD10991+9999999GF100991999999999999999999MA1102885093655REMMET09101/06/20 16:53:01 METAR KPMD 070053Z 36006KT 10SM CLR 12/M04 A3038 RMK AO2 SLP291 T01221044
0186723820231822020010701537+34629-118083FM-15+0787KPMD V0203605N002152200059N0160935N5+00895-00335102985ADDAA101000095GA1005+999999999GD10991+9999999GF100991999999999999999999MA1102915093695REMMET09101/06/20 17:53:01 METAR KPMD 070153Z 36004KT 10SM CLR 09/M03 A3039 RMK AO2 SLP298 T00891033
0206723820231822020010702537+34629-118083FM-15+0787KPMD V0201705N002152200059N0160935N5+00445-00175103035ADDAA101000095GA1005+999999999GD10991+9999999GF100991999999999999999999MA1102915093695MD1390029+9999REMMET09701/06/20 18:53:01 METAR KPMD 070253Z 17004KT 10SM CLR 04/M02 A3039 RMK AO2 SLP303 T00441017 53002
0186723820231822020010703537+34629-118083FM-15+0787KPMD V0202005N002652200059N0160935N5+00445-00225103015ADDAA101000095GA1005+999999999GD10991+9999999GF100991999999999999999999MA1102915093695REMMET09101/06/20 19:53:01 METAR KPMD 070353Z 20005KT 10SM CLR 04/M02 A3039 RMK AO2 SLP301 T00441022
0186723820231822020010704537+34629-118083FM-15+0787KPMD V0201905N003652200059N0160935N5+00285-00225103015ADDAA101000095GA1005+999999999GD10991+9999999GF100991999999999999999999MA1102915093695REMMET09101/06/20 20:53:02 METAR KPMD 070453Z 19007KT 10SM CLR 03/M02 A3039 RMK AO2 SLP301 T00281022
0244723820231822020010705537+34629-118083FM-15+0787KPMD V0203005N001552200059N0160935N5+00175-00225103015ADDAA101000095GA1005+999999999GD10991+9999999GF100991999999999999999999KA1060M+01501KA2060N+00171MA1102955093725MD1390039+9999REMMET10901/06/20 21:53:02 METAR KPMD 070553Z 30003KT 10SM CLR 02/M02 A3040 RMK AO2 SLP301 T00171022 10150 20017 53003
0186723820231822020010706537+34629-118083FM-15+0787KPMD V0209999C000052200059N0160935N5+00175-00285102965ADDAA101000095GA1005+999999999GD10991+9999999GF100991999999999999999999MA1102915093695REMMET09101/06/20 22:53:02 METAR KPMD 070653Z 00000KT 10SM CLR 02/M03 A3039 RMK AO2 SLP296 T00171028
0222723820231822020010707537+34629-118083FM-15+0787KPMD V0209999C000052200059N0160935N5+00065-00335102915ADDAA101000095GA1005+999999999GD10991+9999999GF100991999999999999999999KA1240M+01611KA2240N-00221MA1102885093655REMMET10101/06/20 23:53:02 METAR KPMD 070753Z 00000KT 10SM CLR 01/M03 A3038 RMK AO2 SLP291 T00061033 401611022
0899723820231822020010707596+34629-118083SOD  +0787KPMD V020999999999999999999999999999+99999+99999999999ADDAA124000095AJ100009599999999AL12400095AN1024000095KA1240M+01615KA2240N-00215MG1093804102884OE11240080503099995OE22240067102099995OE33240025999999995REMSOD73924 HR PRECIPITATION (IN): 0.00 SNOW DEPTH (IN):0     24 HR SNOWFALL (IN):0.0  24 HR MAX TEMP (F): 6124 HR MIN TEMP (F): 28AVERAGE STATION PRESSURE:27.700 MINIMUM SEA LEVEL PRESSURE:30.38 TIME OF OCCURRENCE:1617 PEAK WIND SPEED (MPH): 18 PEAK WIND DIR (DEG): 30 PEAK WIND TIME (LST):      FASTEST 2MIN SPEED (MPH): 15FASTEST 2MIN DIR (DEG): 20 FASTEST 2MIN TIME (LST):     AVERAGE WIND SPEED (MPH): 5.8 24 HR AVG TEMP (F): 45DEPART FROM NORMAL:  1  HEATING DEGREE DAYS: 20 COOLING DEGREE DAYS:  0 LATEST DAY MAX TEMP (0700-1900 LST):61  LATEST NIGHT MIN TEMP(1900-0800 LST):28 HOURLY INCREMENTAL PRECIPITATION VALUES (IN):.00 0.00 0.00 0.00 0.00 0.00 0.00 0.00 0.00 0.00 0.00 0.00 0.00 0.00 0.00 0.00 0.00 0.00 0.00 0.00 0.00 0.00 0.00 0.00
0206723820231822020010708537+34629-118083FM-15+0787KPMD V0202505N001552200059N0160935N5+00065-00335102875ADDAA101000095GA1005+999999999GD10991+9999999GF100991999999999999999999MA1102885093655MD1690079+9999REMMET09701/07/20 00:53:02 METAR KPMD 070853Z 25003KT 10SM CLR 01/M03 A3038 RMK AO2 SLP287 T00061033 56007
0187723820231822020010709537+34629-118083FM-15+0787KPMD V0202005N002152200059N0160935N5-00065-00395102845ADDAA101000095GA1005+999999999GD10991+9999999GF100991999999999999999999MA1102845093625REMMET09201/07/20 01:53:02 METAR KPMD 070953Z 20004KT 10SM CLR M01/M04 A3037 RMK AO2 SLP284 T10061039
0187723820231822020010710537+34629-118083FM-15+0787KPMD V0202005N003152200059N0160935N5-00065-00395102805ADDAA101000095GA1005+999999999GD10991+9999999GF100991999999999999999999MA1102815093595REMMET09201/07/20 02:53:02 METAR KPMD 071053Z 20006KT 10SM CLR M01/M04 A3036 RMK AO2 SLP280 T10061039
0245723820231822020010711537+34629-118083FM-15+0787KPMD V0202005N002152200059N0160935N5-00115-00445102765ADDAA101000095GA1005+999999999GD10991+9999999GF100991999999999999999999KA1060M+00441KA2060N-00171MA1102745093535MD1890109+9999REMMET11001/07/20 03:53:02 METAR KPMD 071153Z 20004KT 10SM CLR M01/M04 A3034 RMK AO2 SLP276 T10111044 10044 21017 58010
0187723820231822020010712537+34629-118083FM-15+0787KPMD V0202005N003152200059N0160935N5-00115-00445102725ADDAA101000095GA1005+999999999GD10991+9999999GF100991999999999999999999MA1102685093475REMMET09201/07/20 04:53:02 METAR KPMD 071253Z 20006KT 10SM CLR M01/M04 A3032 RMK AO2 SLP272 T10111044
0192723820231822020010713537+34629-118083FM-15+0787KPMD V0202005N001552200059N0160935N5-00225-00505102735ADDAA101000095GA1005+999999999GD10991+9999999GF100991999999999999999999MA1102645093445REMMET09701/07/20 05:53:02 METAR KPMD 071353Z 20003KT 10SM CLR M02/M05 A3031 RMK AO2 SLP273 T10221050 (TJ)
0212723820231822020010714537+34629-118083FM-15+0787KPMD V0201905N002652200059N0160935N5-00225-00505102795ADDAA101000095GA1005+999999999GD10991+9999999GF100991999999999999999999MA1102645093445MD1590089+9999REMMET10301/07/20 06:53:02 METAR KPMD 071453Z 19005KT 10SM CLR M02/M05 A3031 RMK AO2 SLP279 T10221050 55008 (TJ)
0191723820231822020010715537+34629-118083FM-15+0787KPMD V0201805N002652200059N0160935N5+00005-00335102775ADDAA101000095GA1005+999999999GD10991+9999999GF100991999999999999999999MA1102685093475REMMET09601/07/20 07:53:02 METAR KPMD 071553Z 18005KT 10SM CLR 00/M03 A3032 RMK AO2 SLP277 T00001033 (TJ)
0191723820231822020010716537+34629-118083FM-15+0787KPMD V0209999C000052200059N0160935N5+00445-00175102745ADDAA101000095GA1005+999999999GD10991+9999999GF100991999999999999999999MA1102685093475REMMET09601/07/20 08:53:02 METAR KPMD 071653Z 00000KT 10SM CLR 04/M02 A3032 RMK AO2 SLP274 T00441017 (TJ)
0249723820231822020010717537+34629-118083FM-15+0787KPMD V0209999C000052200059N0160935N5+00725-00285102705ADDAA101000095GA1005+999999999GD10991+9999999GF100991999999999999999999KA1060M+00721KA2060N-00221MA1102645093445MD1890029+9999REMMET11401/07/20 09:53:02 METAR KPMD 071753Z 00000KT 10SM CLR 07/M03 A3031 RMK AO2 SLP270 T00721028 10072 21022 58002 (TJ)
0191723820231822020010718537+34629-118083FM-15+0787KPMD V0209999V001552200059N0160935N5+00895-00395102575ADDAA101000095GA1005+999999999GD10991+9999999GF100991999999999999999999MA1102545093345REMMET09601/07/20 10:53:02 METAR KPMD 071853Z VRB03KT 10SM CLR 09/M04 A3028 RMK AO2 SLP257 T00891039 (TJ)
0191723820231822020010719537+34629-118083FM-15+0787KPMD V0203005N002152200059N0160935N5+01115-00505102415ADDAA101000095GA1005+999999999GD10991+9999999GF100991999999999999999999MA1102375093185REMMET09601/07/20 11:53:02 METAR KPMD 071953Z 30004KT 10SM CLR 11/M05 A3023 RMK AO2 SLP241 T01111050 (TJ)
0211723820231822020010720537+34629-118083FM-15+0787KPMD V0209999C000052200059N0160935N5+01335-00615102245ADDAA101000095GA1005+999999999GD10991+9999999GF100991999999999999999999MA1102245093065MD1890379+9999REMMET10201/07/20 12:53:02 METAR KPMD 072053Z 00000KT 10SM CLR 13/M06 A3019 RMK AO2 SLP224 T01331061 58037 (TJ)
0102723820231822020010721004+34629-118085FM-15+077599999V0202601N001512200019N016093199+01301-00501999999ADDGF100991999999999999999999MA1102231999999REMMET049METAR KPMD 072100Z 26003KT 10SM CLR 13/M05 A3019=
0102723820231822020010721444+34629-118085FM-15+077599999V0209999C000012200019N016093199+01401-00601999999ADDGF100991999999999999999999MA1102131999999REMMET049METAR KPMD 072144Z 00000KT 10SM CLR 14/M06 A3016=
0191723820231822020010721537+34629-118083FM-15+0787KPMD V0209999C000052200059N0160935N5+01395-00675102155ADDAA101000095GA1005+999999999GD10991+9999999GF100991999999999999999999MA1102135092965REMMET09601/07/20 13:53:02 METAR KPMD 072153Z 00000KT 10SM CLR 14/M07 A3016 RMK AO2 SLP215 T01391067 (TJ)
0186723820231822020010722537+34629-118083FM-15+0787KPMD V0209999C000052200059N0160935N5+01445-00675102065ADDAA101000095GA1005+999999999GD10991+9999999GF100991999999999999999999MA1102075092905REMMET09101/07/20 14:53:02 METAR KPMD 072253Z 00000KT 10SM CLR 14/M07 A3014 RMK AO2 SLP206 T01441067
0244723820231822020010723537+34629-118083FM-15+0787KPMD V0209999C000052200059N0160935N5+01395-00615102025ADDAA101000095GA1005+999999999GD10991+9999999GF100991999999999999999999KA1060M+01501KA2060N+00721MA1102005092845MD1690219+9999REMMET10901/07/20 15:53:02 METAR KPMD 072353Z 00000KT 10SM CLR 14/M06 A3012 RMK AO2 SLP202 T01391061 10150 20072 56021
0186723820231822020010800537+34629-118083FM-15+0787KPMD V0209999C000052200059N0160935N5+01225-00445101995ADDAA101000095GA1005+999999999GD10991+9999999GF100991999999999999999999MA1101965092815REMMET09101/07/20 16:53:01 METAR KPMD 080053Z 00000KT 10SM CLR 12/M04 A3011 RMK AO2 SLP199 T01221044
0186723820231822020010801537+34629-118083FM-15+0787KPMD V0209999C000052200059N0160935N5+01005-00445101995ADDAA101000095GA1005+999999999GD10991+9999999GF100991999999999999999999MA1101935092785REMMET09101/07/20 17:53:01 METAR KPMD 080153Z 00000KT 10SM CLR 10/M04 A3010 RMK AO2 SLP199 T01001044
0206723820231822020010802537+34629-118083FM-15+0787KPMD V0202405N002652200059N0160935N5+00675-00225102025ADDAA101000095GA1005+999999999GD10991+9999999GF100991999999999999999999MA1101935092785MD1690079+9999REMMET09701/07/20 18:53:01 METAR KPMD 080253Z 24005KT 10SM CLR 07/M02 A3010 RMK AO2 SLP202 T00671022 56007
0186723820231822020010803537+34629-118083FM-15+0787KPMD V0201705N003152200059N0160935N5+00505-00225101965ADDAA101000095GA1005+999999999GD10991+9999999GF100991999999999999999999MA1101905092745REMMET09101/07/20 19:53:01 METAR KPMD 080353Z 17006KT 10SM CLR 05/M02 A3009 RMK AO2 SLP196 T00501022
0186723820231822020010804537+34629-118083FM-15+0787KPMD V0202905N002652200059N0160935N5+00395-00285101915ADDAA101000095GA1005+999999999GD10991+9999999GF100991999999999999999999MA1101865092715REMMET09101/07/20 20:53:02 METAR KPMD 080453Z 29005KT 10SM CLR 04/M03 A3008 RMK AO2 SLP191 T00391028
0244723820231822020010805537+34629-118083FM-15+0787KPMD V0201805N002152200059N0160935N5+00225-00285101885ADDAA101000095GA1005+999999999GD10991+9999999GF100991999999999999999999KA1060M+01391KA2060N+00221MA1101865092715MD1690079+9999REMMET10901/07/20 21:53:02 METAR KPMD 080553Z 18004KT 10SM CLR 02/M03 A3008 RMK AO2 SLP188 T00221028 10139 20022 56007
0186723820231822020010806537+34629-118083FM-15+0787KPMD V0209999C000052200059N0160935N5+00395-00285101795ADDAA101000095GA1005+999999999GD10991+9999999GF100991999999999999999999MA1101795092655REMMET09101/07/20 22:53:02 METAR KPMD 080653Z 00000KT 10SM CLR 04/M03 A3006 RMK AO2 SLP179 T00391028
0222723820231822020010807537+34629-118083FM-15+0787KPMD V0201505N004152200059N0160935N5+00395-00225101615ADDAA101000095GA1005+999999999GD10991+9999999GF100991999999999999999999KA1240M+01501KA2240N-00221MA1101635092495REMMET10101/07/20 23:53:02 METAR KPMD 080753Z 15008KT 10SM CLR 04/M02 A3001 RMK AO2 SLP161 T00391022 401501022
0899723820231822020010807596+34629-118083SOD  +0787KPMD V020999999999999999999999999999+99999+99999999999ADDAA124000095AJ100009599999999AL12400095AN1024000095KA1240M+01505KA2240N-00215MG1093114101594OE11240053617099995OE22240040215099995OE33240015299999995REMSOD73924 HR PRECIPITATION (IN): 0.00 SNOW DEPTH (IN):0     24 HR SNOWFALL (IN):0.0  24 HR MAX TEMP (F): 5924 HR MIN TEMP (F): 28AVERAGE STATION PRESSURE:27.495 MINIMUM SEA LEVEL PRESSURE:30.00 TIME OF OCCURRENCE:2359 PEAK WIND SPEED (MPH): 12 PEAK WIND DIR (DEG):170 PEAK WIND TIME (LST):      FASTEST 2MIN SPEED (MPH):  9FASTEST 2MIN DIR (DEG):150 FASTEST 2MIN TIME (LST):     AVERAGE WIND SPEED (MPH): 3.4 24 HR AVG TEMP (F): 44DEPART FROM NORMAL:  0  HEATING DEGREE DAYS: 21 COOLING DEGREE DAYS:  0 LATEST DAY MAX TEMP (0700-1900 LST):59  LATEST NIGHT MIN TEMP(1900-0800 LST):28 HOURLY INCREMENTAL PRECIPITATION VALUES (IN):.00 0.00 0.00 0.00 0.00 0.00 0.00 0.00 0.00 0.00 0.00 0.00 0.00 0.00 0.00 0.00 0.00 0.00 0.00 0.00 0.00 0.00 0.00 0.00
0206723820231822020010808537+34629-118083FM-15+0787KPMD V0202605N003652200059N0160935N5+00285-00225101615ADDAA101000095GA1005+999999999GD10991+9999999GF100991999999999999999999MA1101635092495MD1590209+9999REMMET09701/08/20 00:53:02 METAR KPMD 080853Z 26007KT 10SM CLR 03/M02 A3001 RMK AO2 SLP161 T00281022 55020
0186723820231822020010809537+34629-118083FM-15+0787KPMD V0209999C000052200059N0160935N5+00725-00505101545ADDAA101000095GA1005+999999999GD10991+9999999GF100991999999999999999999MA1101595092465REMMET09101/08/20 01:53:02 METAR KPMD 080953Z 00000KT 10SM CLR 07/M05 A3000 RMK AO2 SLP154 T00721050
0186723820231822020010810537+34629-118083FM-15+0787KPMD V0202905N007252200059N0160935N5+00785-00565101505ADDAA101000095GA1005+999999999GD10991+9999999GF100991999999999999999999MA1101565092435REMMET09101/08/20 02:53:02 METAR KPMD 081053Z 29014KT 10SM CLR 08/M06 A2999 RMK AO2 SLP150 T00781056
0244723820231822020010811537+34629-118083FM-15+0787KPMD V0202805N008852200059N0160935N5+00835-00285101455ADDAA101000095GA1005+999999999GD10991+9999999GF100991999999999999999999KA1060M+00891KA2060N+00171MA1101525092405MD1890109+9999REMMET10901/08/20 03:53:02 METAR KPMD 081153Z 28017KT 10SM CLR 08/M03 A2998 RMK AO2 SLP145 T00831028 10089 20017 58010
0186723820231822020010812537+34629-118083FM-15+0787KPMD V0202905N007752200059N0160935N5+00835-00505101425ADDAA101000095GA1005+999999999GD10991+9999999GF100991999999999999999999MA1101495092375REMMET09101/08/20 04:53:02 METAR KPMD 081253Z 29015KT 10SM CLR 08/M05 A2997 RMK AO2 SLP142 T00831050
0191723820231822020010813537+34629-118083FM-15+0787KPMD V0202805N005752200059N0160935N5+00675-00395101485ADDAA101000095GA1005+999999999GD10991+9999999GF100991999999999999999999MA1101525092405REMMET09601/08/20 05:53:02 METAR KPMD 081353Z 28011KT 10SM CLR 07/M04 A2998 RMK AO2 SLP148 T00671039 (TJ)
0254723820231822020010814537+34629-118083FM-15+0787KPMD V0202805N011852200059N0160935N5+00675-00175101465ADDAA101000095GA1005+999999999GD10991+9999999GF100991999999999999999999MA1101465092345MD1890069+9999OC101545OD149901541280REMMET12301/08/20 06:53:02 METAR KPMD 081453Z 28023G30KT 10SM CLR 07/M02 A2996 RMK AO2 PK WND 28030/1452 SLP146 T00671017 58006 (TJ)
0223723820231822020010815537+34629-118083FM-15+0787KPMD V0202905N008852200059N0160935N5+00725-00335101535ADDAA101000095GA1005+999999999GD10991+9999999GF100991999999999999999999MA1101525092405OD149901541300REMMET11401/08/20 07:53:02 METAR KPMD 081553Z 29017KT 10SM CLR 07/M03 A2998 RMK AO2 PK WND 30030/1515 SLP153 T00721033 (TJ)
0191723820231822020010816537+34629-118083FM-15+0787KPMD V0202705N006252200059N0160935N5+01005-00395101615ADDAA101000095GA1005+999999999GD10991+9999999GF100991999999999999999999MA1101635092495REMMET09601/08/20 08:53:02 METAR KPMD 081653Z 27012KT 10SM CLR 10/M04 A3001 RMK AO2 SLP161 T01001039 (TJ)
0249723820231822020010817537+34629-118083FM-15+0787KPMD V0202905N007752200059N0160935N5+01115-00505101755ADDAA101000095GA1005+999999999GD10991+9999999GF100991999999999999999999KA1060M+01171KA2060N+00501MA1101765092625MD1390279+9999REMMET11401/08/20 09:53:02 METAR KPMD 081753Z 29015KT 10SM CLR 11/M05 A3005 RMK AO2 SLP175 T01111050 10117 20050 53027 (TJ)
0191723820231822020010818537+34629-118083FM-15+0787KPMD V0202905N005152200059N0160935N5+01175-00335101705ADDAA101000095GA1005+999999999GD10991+9999999GF100991999999999999999999MA1101695092565REMMET09601/08/20 10:53:02 METAR KPMD 081853Z 29010KT 10SM CLR 12/M03 A3003 RMK AO2 SLP170 T01171033 (TJ)
0191723820231822020010819537+34629-118083FM-15+0787KPMD V0202805N005752200059N0160935N5+01225-00225101485ADDAA101000095GA1005+999999999GD10991+9999999GF100991999999999999999999MA1101525092405REMMET09601/08/20 11:53:02 METAR KPMD 081953Z 28011KT 10SM CLR 12/M02 A2998 RMK AO2 SLP148 T01221022 (TJ)
0211723820231822020010820537+34629-118083FM-15+0787KPMD V0202905N009352200059N0160935N5+01395-00395101425ADDAA101000095GA1005+999999999GD10991+9999999GF100991999999999999999999MA1101465092345MD1890279+9999REMMET10201/08/20 12:53:02 METAR KPMD 082053Z 29018KT 10SM CLR 14/M04 A2996 RMK AO2 SLP142 T01391039 58027 (TJ)
0191723820231822020010821537+34629-118083FM-15+0787KPMD V0202805N011352200059N0160935N5+01335-00335101285ADDAA101000095GA1005+999999999GD10991+9999999GF100991999999999999999999MA1101355092245REMMET09601/08/20 13:53:02 METAR KPMD 082153Z 28022KT 10SM CLR 13/M03 A2993 RMK AO2 SLP128 T01331033 (TJ)
0234723820231822020010822537+34629-118083FM-15+0787KPMD V0202805N011852200059N0160935N5+01175-00175101305ADDAA101000095GA1005+999999999GD10991+9999999GF100991999999999999999999MA1101355092245OC101495OD149901591280REMMET11701/08/20 14:53:02 METAR KPMD 082253Z 28023G29KT 10SM CLR 12/M02 A2993 RMK AO2 PK WND 28031/2236 SLP130 T01171017 (DG)
0292723820231822020010823537+34629-118083FM-15+0787KPMD V0202805N014452200059N0160935N5+00895-00115101395ADDAA101000095GA1005+999999999GD10991+9999999GF100991999999999999999999KA1060M+01441KA2060N+00891MA1101425092315MD1590029+9999OC101755OD149901751280REMMET13501/08/20 15:53:02 METAR KPMD 082353Z 28028G34KT 10SM CLR 09/M01 A2995 RMK AO2 PK WND 28034/2353 SLP139 T00891011 10144 20089 55002 (DG)
0218723820231822020010900537+34629-118083FM-15+0787KPMD V0202905N010852200059N0160935N5+00725-00065101515ADDAA101000095GA1005+999999999GD10991+9999999GF100991999999999999999999MA1101525092405OD149901751280REMMET10901/08/20 16:53:01 METAR KPMD 090053Z 29021KT 10SM CLR 07/M01 A2998 RMK AO2 PK WND 28034/2354 SLP151 T00721006
0218723820231822020010901537+34629-118083FM-15+0787KPMD V0202705N011352200059N0160935N5+00565-00065101625ADDAA101000095GA1005+999999999GD10991+9999999GF100991999999999999999999MA1101595092465OD149901641280REMMET10901/08/20 17:53:01 METAR KPMD 090153Z 27022KT 10SM CLR 06/M01 A3000 RMK AO2 PK WND 28032/0117 SLP162 T00561006
0238723820231822020010902537+34629-118083FM-15+0787KPMD V0202705N007752200059N0160935N5+00565-00115101585ADDAA101000095GA1005+999999999GD10991+9999999GF100991999999999999999999MA1101565092435MD1090139+9999OD149901331280REMMET11501/08/20 18:53:01 METAR KPMD 090253Z 27015KT 10SM CLR 06/M01 A2999 RMK AO2 PK WND 28026/0204 SLP158 T00561011 50013
0186723820231822020010903537+34629-118083FM-15+0787KPMD V0202705N005152200059N0160935N5+00565-00175101525ADDAA101000095GA1005+999999999GD10991+9999999GF100991999999999999999999MA1101525092405REMMET09101/08/20 19:53:01 METAR KPMD 090353Z 27010KT 10SM CLR 06/M02 A2998 RMK AO2 SLP152 T00561017
0197723820231822020010904537+34629-118083FM-15+0787KPMD V0202705N009352200059N0160935N5+00725-00445101475ADDAA101000095GA1005+999999999GD10991+9999999GF100991999999999999999999MA1101525092405OC101085REMMET09401/08/20 20:53:02 METAR KPMD 090453Z 27018G21KT 10SM CLR 07/M04 A2998 RMK AO2 SLP147 T00721044
0287723820231822020010905537+34629-118083FM-15+0787KPMD V0202805N009352200059N0160935N5+00615-00225101545ADDAA101000095GA1005+999999999GD10991+9999999GF100991999999999999999999KA1060M+00891KA2060N+00441MA1101595092465MD1390019+9999OC101655OD149901641280REMMET13001/08/20 21:53:02 METAR KPMD 090553Z 28018G32KT 10SM CLR 06/M02 A3000 RMK AO2 PK WND 28032/0545 SLP154 T00611022 10089 20044 53001
0218723820231822020010906537+34629-118083FM-15+0787KPMD V0202705N008852200059N0160935N5+00615-00225101475ADDAA101000095GA1005+999999999GD10991+9999999GF100991999999999999999999MA1101525092405OD149901641270REMMET10901/08/20 22:53:02 METAR KPMD 090653Z 27017KT 10SM CLR 06/M02 A2998 RMK AO2 PK WND 27032/0631 SLP147 T00611022
0222723820231822020010907537+34629-118083FM-15+0787KPMD V0202705N006252200059N0160935N5+00615-00285101445ADDAA101000095GA1005+999999999GD10991+9999999GF100991999999999999999999KA1240M+01441KA2240N+00221MA1101495092375REMMET10101/08/20 23:53:02 METAR KPMD 090753Z 27012KT 10SM CLR 06/M03 A2997 RMK AO2 SLP144 T00611028 401440022
0899723820231822020010907596+34629-118083SOD  +0787KPMD V020999999999999999999999999999+99999+99999999999ADDAA124000095AJ100009599999999AL12400095AN1024000095KA1240M+01445KA2240N+00225MG1092434101254OE11240178828099995OE22240156528099995OE33240080599999995REMSOD73924 HR PRECIPITATION (IN): 0.00 SNOW DEPTH (IN):0     24 HR SNOWFALL (IN):0.0  24 HR MAX TEMP (F): 5824 HR MIN TEMP (F): 36AVERAGE STATION PRESSURE:27.295 MINIMUM SEA LEVEL PRESSURE:29.90 TIME OF OCCURRENCE:1428 PEAK WIND SPEED (MPH): 40 PEAK WIND DIR (DEG):280 PEAK WIND TIME (LST):      FASTEST 2MIN SPEED (MPH): 35FASTEST 2MIN DIR (DEG):280 FASTEST 2MIN TIME (LST):     AVERAGE WIND SPEED (MPH):18.0 24 HR AVG TEMP (F): 47DEPART FROM NORMAL:  3  HEATING DEGREE DAYS: 18 COOLING DEGREE DAYS:  0 LATEST DAY MAX TEMP (0700-1900 LST):58  LATEST NIGHT MIN TEMP(1900-0800 LST):35 HOURLY INCREMENTAL PRECIPITATION VALUES (IN):.00 0.00 0.00 0.00 0.00 0.00 0.00 0.00 0.00 0.00 0.00 0.00 0.00 0.00 0.00 0.00 0.00 0.00 0.00 0.00 0.00 0.00 0.00 0.00
0238723820231822020010908537+34629-118083FM-15+0787KPMD V0202805N008852200059N0160935N5+00615-00285101415ADDAA101000095GA1005+999999999GD10991+9999999GF100991999999999999999999MA1101465092345MD1690109+9999OD149901591270REMMET11501/09/20 00:53:02 METAR KPMD 090853Z 28017KT 10SM CLR 06/M03 A2996 RMK AO2 PK WND 27031/0827 SLP141 T00611028 56010
0197723820231822020010909537+34629-118083FM-15+0787KPMD V0202905N004152200059N0160935N5+00615-00285101445ADDAA101000095GA1005+999999999GD10991+9999999GF100991999999999999999999MA1101495092375OC100885REMMET09401/09/20 01:53:02 METAR KPMD 090953Z 29008G17KT 10SM CLR 06/M03 A2997 RMK AO2 SLP144 T00611028
0218723820231822020010910537+34629-118083FM-15+0787KPMD V0202805N005752200059N0160935N5+00505-00285101385ADDAA101000095GA1005+999999999GD10991+9999999GF100991999999999999999999MA1101425092315OD149901591280REMMET10901/09/20 02:53:02 METAR KPMD 091053Z 28011KT 10SM CLR 05/M03 A2995 RMK AO2 PK WND 28031/1013 SLP138 T00501028
0244723820231822020010911537+34629-118083FM-15+0787KPMD V0200305N002152200059N0160935N5+00445-00285101375ADDAA101000095GA1005+999999999GD10991+9999999GF100991999999999999999999KA1060M+00671KA2060N+00331MA1101395092275MD1890089+9999REMMET10901/09/20 03:53:02 METAR KPMD 091153Z 03004KT 10SM CLR 04/M03 A2994 RMK AO2 SLP137 T00441028 10067 20033 58008
0186723820231822020010912537+34629-118083FM-15+0787KPMD V0209999C000052200059N0160935N5+00225-00335101315ADDAA101000095GA1005+999999999GD10991+9999999GF100991999999999999999999MA1101295092185REMMET09101/09/20 04:53:02 METAR KPMD 091253Z 00000KT 10SM CLR 02/M03 A2991 RMK AO2 SLP131 T00221033
0186723820231822020010913537+34629-118083FM-15+0787KPMD V0200705N002652200059N0160935N5+00175-00395101405ADDAA101000095GA1005+999999999GD10991+9999999GF100991999999999999999999MA1101355092245REMMET09101/09/20 05:53:02 METAR KPMD 091353Z 07005KT 10SM CLR 02/M04 A2993 RMK AO2 SLP140 T00171039
0206723820231822020010914537+34629-118083FM-15+0787KPMD V0203005N003152200059N0160935N5+00395-00445101435ADDAA101000095GA1005+999999999GD10991+9999999GF100991999999999999999999MA1101395092275MD1390039+9999REMMET09701/09/20 06:53:02 METAR KPMD 091453Z 30006KT 10SM CLR 04/M04 A2994 RMK AO2 SLP143 T00391044 53003
0191723820231822020010915537+34629-118083FM-15+0787KPMD V0202505N003152200059N0160935N5+00445-00285101425ADDAA101000095GA1005+999999999GD10991+9999999GF100991999999999999999999MA1101395092275REMMET09601/09/20 07:53:02 METAR KPMD 091553Z 25006KT 10SM CLR 04/M03 A2994 RMK AO2 SLP142 T00441028 (EC)
0191723820231822020010916537+34629-118083FM-15+0787KPMD V0203205N002652200059N0160935N5+00835-00285101395ADDAA101000095GA1005+999999999GD10991+9999999GF100991999999999999999999MA1101425092315REMMET09601/09/20 08:53:02 METAR KPMD 091653Z 32005KT 10SM CLR 08/M03 A2995 RMK AO2 SLP139 T00831028 (EC)
0249723820231822020010917537+34629-118083FM-15+0787KPMD V0202205N007752200059N0160935N5+00945-00115101405ADDAA101000095GA1005+999999999GD10991+9999999GF100991999999999999999999KA1060M+00941KA2060N+00061MA1101425092315MD1390029+9999REMMET11401/09/20 09:53:02 METAR KPMD 091753Z 22015KT 10SM CLR 09/M01 A2995 RMK AO2 SLP140 T00941011 10094 20006 53002 (EC)
0191723820231822020010918537+34629-118083FM-15+0787KPMD V0202305N008252200059N0160935N5+01115-00065101265ADDAA101000095GA1005+999999999GD10991+9999999GF100991999999999999999999MA1101295092185REMMET09601/09/20 10:53:02 METAR KPMD 091853Z 23016KT 10SM CLR 11/M01 A2991 RMK AO2 SLP126 T01111006 (EC)
0234723820231822020010919537+34629-118083FM-15+0787KPMD V0202605N011852200059N0160935N5+01175-00065101175ADDAA101000095GA1005+999999999GD10991+9999999GF100991999999999999999999MA1101225092125OC101495OD149901491260REMMET11701/09/20 11:53:02 METAR KPMD 091953Z 26023G29KT 10SM CLR 12/M01 A2989 RMK AO2 PK WND 26029/1917 SLP117 T01171006 (EC)
0253723820231822020010920537+34629-118083FM-15+0787KPMD V0202405N006752200059N0160935N5+01175+00065101115ADDAA101000095GA1005+999999999GD10991+9999999GF100991999999999999999999MA1101155092055MD1690249+9999OC101035OD149901541270REMMET12201/09/20 12:53:02 METAR KPMD 092053Z 24013G20KT 10SM CLR 12/01 A2987 RMK AO2 PK WND 27030/2000 SLP111 T01170006 56024 (AD)
0271723820231822020010921537+34629-118083FM-15+0787KPMD V0202405N00775021345MN0160935N5+01065+00175101105ADDAA101000095GA1025+012195999GA2075+021345999GD11991+0121959GD23991+0213459GE19MSL   +99999+99999GF199999999999012191999999MA1101155092055REMMET12301/09/20 13:53:02 METAR KPMD 092153Z 24015KT 10SM FEW040 BKN070 11/02 A2987 RMK AO2 PK WND 26026/2135 SLP110 T01060017 (AD)
0266723820231822020010922537+34629-118083FM-15+0787KPMD V0202605N008852200059N0160935N5+01115+00115101155ADDAA101000095GA1025+036585999GD11991+0365859GE19MSL   +99999+99999GF102995999999036581999999MA1101195092095OD149901391260REMMET11601/09/20 14:53:02 METAR KPMD 092253Z 26017KT 10SM FEW120 11/01 A2988 RMK AO2 PK WND 26027/2223 SLP115 T01110011 (AD)EQDD01      0ADE726
0280723820231822020010923537+34629-118083FM-15+0787KPMD V0202805N008252200059N0160935N5+00895+00065101315ADDAA101000095GA1005+999999999GD10991+9999999GF100991999999999999999999KA1060M+01221KA2060N+00891MA1101325092215MD1390159+9999OD149901331280REMMET13101/09/20 15:53:02 METAR KPMD 092353Z 28016KT 10SM CLR 09/01 A2992 RMK AO2 PK WND 28026/2315 SLP131 T00890006 10122 20089 53015 (AD)
0185723820231822020011000537+34629-118083FM-15+0787KPMD V0202905N006752200059N0160935N5+00725+00115101455ADDAA101000095GA1005+999999999GD10991+9999999GF100991999999999999999999MA1101425092315REMMET09001/09/20 16:53:01 METAR KPMD 100053Z 29013KT 10SM CLR 07/01 A2995 RMK AO2 SLP145 T00720011
0185723820231822020011001537+34629-118083FM-15+0787KPMD V0202805N005152200059N0160935N5+00565+00065101615ADDAA101000095GA1005+999999999GD10991+9999999GF100991999999999999999999MA1101565092435REMMET09001/09/20 17:53:01 METAR KPMD 100153Z 28010KT 10SM CLR 06/01 A2999 RMK AO2 SLP161 T00560006
0205723820231822020011002537+34629-118083FM-15+0787KPMD V0202805N004152200059N0160935N5+00505+00065101675ADDAA101000095GA1005+999999999GD10991+9999999GF100991999999999999999999MA1101635092495MD1190289+9999REMMET09601/09/20 18:53:01 METAR KPMD 100253Z 28008KT 10SM CLR 05/01 A3001 RMK AO2 SLP167 T00500006 51028
0185723820231822020011003537+34629-118083FM-15+0787KPMD V0203105N001552200059N0160935N5+00505+00005101755ADDAA101000095GA1005+999999999GD10991+9999999GF100991999999999999999999MA1101735092595REMMET09001/09/20 19:53:01 METAR KPMD 100353Z 31003KT 10SM CLR 05/00 A3004 RMK AO2 SLP175 T00500000
0186723820231822020011004537+34629-118083FM-15+0787KPMD V0209999C000052200059N0160935N5+00335-00065101785ADDAA101000095GA1005+999999999GD10991+9999999GF100991999999999999999999MA1101765092625REMMET09101/09/20 20:53:02 METAR KPMD 100453Z 00000KT 10SM CLR 03/M01 A3005 RMK AO2 SLP178 T00331006
0244723820231822020011005537+34629-118083FM-15+0787KPMD V0201905N002652200059N0160935N5+00175-00115101865ADDAA101000095GA1005+999999999GD10991+9999999GF100991999999999999999999KA1060M+00891KA2060N+00111MA1101835092685MD1190209+9999REMMET10901/09/20 21:53:02 METAR KPMD 100553Z 19005KT 10SM CLR 02/M01 A3007 RMK AO2 SLP186 T00171011 10089 20011 51020
0186723820231822020011006537+34629-118083FM-15+0787KPMD V0202505N001552200059N0160935N5+00115-00115101965ADDAA101000095GA1005+999999999GD10991+9999999GF100991999999999999999999MA1101935092785REMMET09101/09/20 22:53:02 METAR KPMD 100653Z 25003KT 10SM CLR 01/M01 A3010 RMK AO2 SLP196 T00111011
0223723820231822020011007537+34629-118083FM-15+0787KPMD V0202105N002652200059N0160935N5-00065-00285102055ADDAA101000095GA1005+999999999GD10991+9999999GF100991999999999999999999KA1240M+01221KA2240N-00061MA1102035092875REMMET10201/09/20 23:53:02 METAR KPMD 100753Z 21005KT 10SM CLR M01/M03 A3013 RMK AO2 SLP205 T10061028 401221006
0899723820231822020011007596+34629-118083SOD  +0787KPMD V020999999999999999999999999999+99999+99999999999ADDAA124000095AJ100009599999999AL12400095AN1024000095KA1240M+01225KA2240N-00055MG1092354101054OE11240160928099995OE22240138628099995OE33240047899999995REMSOD73924 HR PRECIPITATION (IN): 0.00 SNOW DEPTH (IN):0     24 HR SNOWFALL (IN):0.0  24 HR MAX TEMP (F): 5424 HR MIN TEMP (F): 31AVERAGE STATION PRESSURE:27.270 MINIMUM SEA LEVEL PRESSURE:29.84 TIME OF OCCURRENCE:1312 PEAK WIND SPEED (MPH): 36 PEAK WIND DIR (DEG):280 PEAK WIND TIME (LST):      FASTEST 2MIN SPEED (MPH): 31FASTEST 2MIN DIR (DEG):280 FASTEST 2MIN TIME (LST):     AVERAGE WIND SPEED (MPH):10.7 24 HR AVG TEMP (F): 43DEPART FROM NORMAL: -1  HEATING DEGREE DAYS: 22 COOLING DEGREE DAYS:  0 LATEST DAY MAX TEMP (0700-1900 LST):54  LATEST NIGHT MIN TEMP(1900-0800 LST):33 HOURLY INCREMENTAL PRECIPITATION VALUES (IN):.00 0.00 0.00 0.00 0.00 0.00 0.00 0.00 0.00 0.00 0.00 0.00 0.00 0.00 0.00 0.00 0.00 0.00 0.00 0.00 0.00 0.00 0.00 0.00
0206723820231822020011008537+34629-118083FM-15+0787KPMD V0201905N003652200059N0160935N5+00005-00285102085ADDAA101000095GA1005+999999999GD10991+9999999GF100991999999999999999999MA1102075092905MD1190219+9999REMMET09701/10/20 00:53:02 METAR KPMD 100853Z 19007KT 10SM CLR 00/M03 A3014 RMK AO2 SLP208 T00001028 51021
0187723820231822020011009537+34629-118083FM-15+0787KPMD V0201905N003152200059N0160935N5-00065-00335102205ADDAA101000095GA1005+999999999GD10991+9999999GF100991999999999999999999MA1102175093005REMMET09201/10/20 01:53:02 METAR KPMD 100953Z 19006KT 10SM CLR M01/M03 A3017 RMK AO2 SLP220 T10061033
0187723820231822020011010537+34629-118083FM-15+0787KPMD V0202305N002152200059N0160935N5-00065-00335102185ADDAA101000095GA1005+999999999GD10991+9999999GF100991999999999999999999MA1102175093005REMMET09201/10/20 02:53:02 METAR KPMD 101053Z 23004KT 10SM CLR M01/M03 A3017 RMK AO2 SLP218 T10061033
0245723820231822020011011537+34629-118083FM-15+0787KPMD V0201805N003652200059N0160935N5-00065-00335102215ADDAA101000095GA1005+999999999GD10991+9999999GF100991999999999999999999KA1060M+00281KA2060N-00221MA1102175093005MD1090089+9999REMMET11001/10/20 03:53:02 METAR KPMD 101153Z 18007KT 10SM CLR M01/M03 A3017 RMK AO2 SLP221 T10061033 10028 21022 50008
0187723820231822020011012537+34629-118083FM-15+0787KPMD V0202405N001552200059N0160935N5-00225-00395102295ADDAA101000095GA1005+999999999GD10991+9999999GF100991999999999999999999MA1102205093035REMMET09201/10/20 04:53:02 METAR KPMD 101253Z 24003KT 10SM CLR M02/M04 A3018 RMK AO2 SLP229 T10221039
0192723820231822020011013537+34629-118083FM-15+0787KPMD V0201805N002652200059N0160935N5-00115-00335102415ADDAA101000095GA1005+999999999GD10991+9999999GF100991999999999999999999MA1102305093125REMMET09701/10/20 05:53:02 METAR KPMD 101353Z 18005KT 10SM CLR M01/M03 A3021 RMK AO2 SLP241 T10111033 (DG)
0212723820231822020011014537+34629-118083FM-15+0787KPMD V0209999C000052200059N0160935N5-00225-00445102485ADDAA101000095GA1005+999999999GD10991+9999999GF100991999999999999999999MA1102375093185MD1290219+9999REMMET10301/10/20 06:53:02 METAR KPMD 101453Z 00000KT 10SM CLR M02/M04 A3023 RMK AO2 SLP248 T10221044 52021 (DG)
0191723820231822020011015537+34629-118083FM-15+0787KPMD V0209999C000052200059N0160935N5+00005-00225102545ADDAA101000095GA1005+999999999GD10991+9999999GF100991999999999999999999MA1102445093255REMMET09601/10/20 07:53:02 METAR KPMD 101553Z 00000KT 10SM CLR 00/M02 A3025 RMK AO2 SLP254 T00001022 (DG)
0190723820231822020011016537+34629-118083FM-15+0787KPMD V0201205N001552200059N0160935N5+00445+00115102595ADDAA101000095GA1005+999999999GD10991+9999999GF100991999999999999999999MA1102515093315REMMET09501/10/20 08:53:02 METAR KPMD 101653Z 12003KT 10SM CLR 04/01 A3027 RMK AO2 SLP259 T00440011 (DG)
0248723820231822020011017537+34629-118083FM-15+0787KPMD V0203105N001552200059N0160935N5+00675+00005102695ADDAA101000095GA1005+999999999GD10991+9999999GF100991999999999999999999KA1060M+00671KA2060N-00221MA1102645093445MD1390249+9999REMMET11301/10/20 09:53:02 METAR KPMD 101753Z 31003KT 10SM CLR 07/00 A3031 RMK AO2 SLP269 T00670000 10067 21022 53024 (DG)
0190723820231822020011018537+34629-118083FM-15+0787KPMD V0209999V001552200059N0160935N5+00835+00005102665ADDAA101000095GA1005+999999999GD10991+9999999GF100991999999999999999999MA1102615093405REMMET09501/10/20 10:53:02 METAR KPMD 101853Z VRB03KT 10SM CLR 08/00 A3030 RMK AO2 SLP266 T00830000 (DG)
0191723820231822020011019537+34629-118083FM-15+0787KPMD V0203605N001552200059N0160935N5+01005-00175102605ADDAA101000095GA1005+999999999GD10991+9999999GF100991999999999999999999MA1102545093345REMMET09601/10/20 11:53:02 METAR KPMD 101953Z 36003KT 10SM CLR 10/M02 A3028 RMK AO2 SLP260 T01001017 (DG)
0211723820231822020011020537+34629-118083FM-15+0787KPMD V0200405N002152200059N0160935N5+01115-00175102465ADDAA101000095GA1005+999999999GD10991+9999999GF100991999999999999999999MA1102445093255MD1890189+9999REMMET10201/10/20 12:53:02 METAR KPMD 102053Z 04004KT 10SM CLR 11/M02 A3025 RMK AO2 SLP246 T01111017 58018 (KC)
0191723820231822020011021537+34629-118083FM-15+0787KPMD V0209999V001552200059N0160935N5+01175-00285102455ADDAA101000095GA1005+999999999GD10991+9999999GF100991999999999999999999MA1102405093225REMMET09601/10/20 13:53:02 METAR KPMD 102153Z VRB03KT 10SM CLR 12/M03 A3024 RMK AO2 SLP245 T01171028 (KC)
0191723820231822020011022537+34629-118083FM-15+0787KPMD V0203405N002152200059N0160935N5+01285-00225102455ADDAA101000095GA1005+999999999GD10991+9999999GF100991999999999999999999MA1102405093225REMMET09601/10/20 14:53:02 METAR KPMD 102253Z 34004KT 10SM CLR 13/M02 A3024 RMK AO2 SLP245 T01281022 (KC)
0249723820231822020011023537+34629-118083FM-15+0787KPMD V0200105N002652200059N0160935N5+01225-00175102485ADDAA101000095GA1005+999999999GD10991+9999999GF100991999999999999999999KA1060M+01281KA2060N+00671MA1102445093255MD1390029+9999REMMET11401/10/20 15:53:02 METAR KPMD 102353Z 01005KT 10SM CLR 12/M02 A3025 RMK AO2 SLP248 T01221017 10128 20067 53002 (KC)
0186723820231822020011100537+34629-118083FM-15+0787KPMD V0203405N002152200059N0160935N5+01005-00065102515ADDAA101000095GA1005+999999999GD10991+9999999GF100991999999999999999999MA1102445093255REMMET09101/10/20 16:53:01 METAR KPMD 110053Z 34004KT 10SM CLR 10/M01 A3025 RMK AO2 SLP251 T01001006
0186723820231822020011101537+34629-118083FM-15+0787KPMD V0203405N002152200059N0160935N5+00835-00115102525ADDAA101000095GA1005+999999999GD10991+9999999GF100991999999999999999999MA1102445093255REMMET09101/10/20 17:53:01 METAR KPMD 110153Z 34004KT 10SM CLR 08/M01 A3025 RMK AO2 SLP252 T00831011
0206723820231822020011102537+34629-118083FM-15+0787KPMD V0202105N002652200059N0160935N5+00445-00065102605ADDAA101000095GA1005+999999999GD10991+9999999GF100991999999999999999999MA1102475093285MD1390029+9999REMMET09701/10/20 18:53:01 METAR KPMD 110253Z 21005KT 10SM CLR 04/M01 A3026 RMK AO2 SLP260 T00441006 53002
0186723820231822020011103537+34629-118083FM-15+0787KPMD V0201905N004152200059N0160935N5+00395-00115102575ADDAA101000095GA1005+999999999GD10991+9999999GF100991999999999999999999MA1102475093285REMMET09101/10/20 19:53:01 METAR KPMD 110353Z 19008KT 10SM CLR 04/M01 A3026 RMK AO2 SLP257 T00391011
0186723820231822020011104537+34629-118083FM-15+0787KPMD V0202005N004152200059N0160935N5+00335-00175102545ADDAA101000095GA1005+999999999GD10991+9999999GF100991999999999999999999MA1102475093285REMMET09101/10/20 20:53:02 METAR KPMD 110453Z 20008KT 10SM CLR 03/M02 A3026 RMK AO2 SLP254 T00331017
0244723820231822020011105537+34629-118083FM-15+0787KPMD V0202205N001552200059N0160935N5+00175-00175102525ADDAA101000095GA1005+999999999GD10991+9999999GF100991999999999999999999KA1060M+01221KA2060N+00171MA1102475093285MD1890019+9999REMMET10901/10/20 21:53:02 METAR KPMD 110553Z 22003KT 10SM CLR 02/M02 A3026 RMK AO2 SLP252 T00171017 10122 20017 58001
0186723820231822020011106537+34629-118083FM-15+0787KPMD V0202005N002152200059N0160935N5+00115-00225102425ADDAA101000095GA1005+999999999GD10991+9999999GF100991999999999999999999MA1102375093185REMMET09101/10/20 22:53:02 METAR KPMD 110653Z 20004KT 10SM CLR 01/M02 A3023 RMK AO2 SLP242 T00111022
0222723820231822020011107537+34629-118083FM-15+0787KPMD V0201805N003652200059N0160935N5+00115-00225102315ADDAA101000095GA1005+999999999GD10991+9999999GF100991999999999999999999KA1240M+01281KA2240N-00221MA1102275093095REMMET10101/10/20 23:53:02 METAR KPMD 110753Z 18007KT 10SM CLR 01/M02 A3020 RMK AO2 SLP231 T00111022 401281022
0899723820231822020011107596+34629-118083SOD  +0787KPMD V020999999999999999999999999999+99999+99999999999ADDAA124000095AJ100009599999999AL12400095AN1024000095KA1240M+01285KA2240N-00215MG1093214102004OE11240049219099995OE22240044719099995OE33240021999999995REMSOD73924 HR PRECIPITATION (IN): 0.00 SNOW DEPTH (IN):0     24 HR SNOWFALL (IN):0.0  24 HR MAX TEMP (F): 5524 HR MIN TEMP (F): 28AVERAGE STATION PRESSURE:27.525 MINIMUM SEA LEVEL PRESSURE:30.12 TIME OF OCCURRENCE:0012 PEAK WIND SPEED (MPH): 11 PEAK WIND DIR (DEG):190 PEAK WIND TIME (LST):      FASTEST 2MIN SPEED (MPH): 10FASTEST 2MIN DIR (DEG):190 FASTEST 2MIN TIME (LST):     AVERAGE WIND SPEED (MPH): 4.9 24 HR AVG TEMP (F): 42DEPART FROM NORMAL: -3  HEATING DEGREE DAYS: 23 COOLING DEGREE DAYS:  0 LATEST DAY MAX TEMP (0700-1900 LST):55  LATEST NIGHT MIN TEMP(1900-0800 LST):28 HOURLY INCREMENTAL PRECIPITATION VALUES (IN):.00 0.00 0.00 0.00 0.00 0.00 0.00 0.00 0.00 0.00 0.00 0.00 0.00 0.00 0.00 0.00 0.00 0.00 0.00 0.00 0.00 0.00 0.00 0.00
0206723820231822020011108537+34629-118083FM-15+0787KPMD V0201905N002152200059N0160935N5+00115-00285102235ADDAA101000095GA1005+999999999GD10991+9999999GF100991999999999999999999MA1102205093035MD1690229+9999REMMET09701/11/20 00:53:02 METAR KPMD 110853Z 19004KT 10SM CLR 01/M03 A3018 RMK AO2 SLP223 T00111028 56022
0186723820231822020011109537+34629-118083FM-15+0787KPMD V0202205N002152200059N0160935N5+00335-00445102155ADDAA101000095GA1005+999999999GD10991+9999999GF100991999999999999999999MA1102175093005REMMET09101/11/20 01:53:02 METAR KPMD 110953Z 22004KT 10SM CLR 03/M04 A3017 RMK AO2 SLP215 T00331044
0186723820231822020011110537+34629-118083FM-15+0787KPMD V0202205N004652200059N0160935N5+00725-00505102015ADDAA101000095GA1005+999999999GD10991+9999999GF100991999999999999999999MA1102075092905REMMET09101/11/20 02:53:02 METAR KPMD 111053Z 22009KT 10SM CLR 07/M05 A3014 RMK AO2 SLP201 T00721050
0244723820231822020011111537+34629-118083FM-15+0787KPMD V0209999C000052200059N0160935N5+00615-00445102015ADDAA101000095GA1005+999999999GD10991+9999999GF100991999999999999999999KA1060M+01001KA2060N+00061MA1102075092905MD1690159+9999REMMET10901/11/20 03:53:02 METAR KPMD 111153Z 00000KT 10SM CLR 06/M04 A3014 RMK AO2 SLP201 T00611044 10100 20006 56015
0186723820231822020011112537+34629-118083FM-15+0787KPMD V0202305N008252200059N0160935N5+01005-00445101965ADDAA101000095GA1005+999999999GD10991+9999999GF100991999999999999999999MA1102005092845REMMET09101/11/20 04:53:02 METAR KPMD 111253Z 23016KT 10SM CLR 10/M04 A3012 RMK AO2 SLP196 T01001044
0165723820231822020011113536+34629-118083FM-15+0787KPMD V0202305N006752200059N0160935N5+00945-00445101965ADDAA101000095GA1005+999999999GD10991+9999999MA1102005092845REMMET09601/11/20 05:53:02 METAR KPMD 111353Z 23013KT 10SM CLR 09/M04 A3012 RMK AO2 SLP196 T00941044 (DG)
0211723820231822020011114537+34629-118083FM-15+0787KPMD V0202405N004652200059N0160935N5+00835-00395102005ADDAA101000095GA1005+999999999GD10991+9999999GF100991999999999999999999MA1102005092845MD1590059+9999REMMET10201/11/20 06:53:02 METAR KPMD 111453Z 24009KT 10SM CLR 08/M04 A3012 RMK AO2 SLP200 T00831039 55005 (DG)
0165723820231822020011115536+34629-118083FM-15+0787KPMD V0202205N008852200059N0160935N5+01065-00395101995ADDAA101000095GA1005+999999999GD10991+9999999MA1102005092845REMMET09601/11/20 07:53:02 METAR KPMD 111553Z 22017KT 10SM CLR 11/M04 A3012 RMK AO2 SLP199 T01061039 (DG)
0191723820231822020011116537+34629-118083FM-15+0787KPMD V0202305N007752200059N0160935N5+01225-00285102015ADDAA101000095GA1005+999999999GD10991+9999999GF100991999999999999999999MA1102035092875REMMET09601/11/20 08:53:02 METAR KPMD 111653Z 23015KT 10SM CLR 12/M03 A3013 RMK AO2 SLP201 T01221028 (DG)
0249723820231822020011117537+34629-118083FM-15+0787KPMD V0202505N008252200059N0160935N5+01335-00115102055ADDAA101000095GA1005+999999999GD10991+9999999GF100991999999999999999999KA1060M+01391KA2060N+00561MA1102075092905MD1390069+9999REMMET11401/11/20 09:53:02 METAR KPMD 111753Z 25016KT 10SM CLR 13/M01 A3014 RMK AO2 SLP205 T01331011 10139 20056 53006 (DG)
0183723820231822020011118536+34629-118083FM-15+0787KPMD V0202205N011852200059N0160935N5+01335-00175101945ADDAA101000095GA1005+999999999GD10991+9999999MA1101935092785REMMET11401/11/20 10:53:02 METAR KPMD 111853Z 22023KT 10SM CLR 13/M02 A3010 RMK AO2 PK WND 22026/1852 SLP194 T01331017 (DG)
0230723820231822020011119537+34629-118083FM-15+0787KPMD V0202305N009852200059N0160935N5+01445-00115101765ADDAA101000095GA1005+999999999GD10991+9999999GF100991999999999999999999MA1101765092625OD149901331220REMMET12101/11/20 11:53:02 METAR KPMD 111953Z 23019KT 10SM CLR 14/M01 A3005 RMK AO2 PK WND 22026/1908 PRESFR SLP176 T01441011 (DG)
0254723820231822020011120537+34629-118083FM-15+0787KPMD V0202605N011852200059N0160935N5+01445-00335101805ADDAA101000095GA1005+999999999GD10991+9999999GF100991999999999999999999MA1101795092655MD1590239+9999OC101495OD149901491260REMMET12301/11/20 12:53:02 METAR KPMD 112053Z 26023G29KT 10SM CLR 14/M03 A3006 RMK AO2 PK WND 26029/2052 SLP180 T01441033 55023 (BO)
0233723820231822020011121537+34629-118083FM-15+0787KPMD V0202705N015452200059N0128755N5+01395-00565101685ADDAA101000095GA1005+999999999GD10991+9999999GF100991999999999999999999MA1101695092565OC101755OD149901801270REMMET11601/11/20 13:53:02 METAR KPMD 112153Z 27030G34KT 8SM CLR 14/M06 A3003 RMK AO2 PK WND 27035/2125 SLP168 T01391056 (BO)
0299723820231822020011122327+34629-118083FM-16+0787KPMD V0202705N018552200059N0028165V5+01285-00175999999ADDAU100007015AW1051GA1025+000615999GD11991+0006159GE19AGL   +99999+99999GF102995999999000611999999MA1101635092495MW1055OC102215OD149902211280REMMET12901/11/20 14:32:02 SPECI KPMD 112232Z 27036G43KT 1 3/4SM HZ FEW002 13/M02 A3001 RMK AO2 PK WND 28043/2220 VIS 1/2V5 T01281017 (BO)EQDD01      0ADE726
0271723820231822020011122427+34629-118083FM-16+0787KPMD V0202705N017052200059N0064375N5+01285-00225999999ADDAU100007015AW1051GA1025+000305999GD11991+0003059GE19AGL   +99999+99999GF102995999999000301999999MA1101635092495MW1055OC102015REMMET11501/11/20 14:42:02 SPECI KPMD 112242Z 27033G39KT 4SM HZ FEW001 13/M02 A3001 RMK AO2 PK WND 28043/2220 T01281022 (BO)EQDD01      0ADE726
0278723820231822020011122537+34629-118083FM-15+0787KPMD V0202705N017552200059N0160935N5+01285-00285101575ADDAA101000095GA1025+000305999GD11991+0003059GE19AGL   +99999+99999GF102995999999000301999999MA1101635092495OC102015OD149902211280REMMET12001/11/20 14:53:02 METAR KPMD 112253Z 27034G39KT 10SM FEW001 13/M03 A3001 RMK AO2 PK WND 28043/2220 SLP157 T01281028 (BO)EQDD01      0ADE726
0292723820231822020011123537+34629-118083FM-15+0787KPMD V0202805N009852200059N0160935N5+01065-00225101735ADDAA101000095GA1005+999999999GD10991+9999999GF100991999999999999999999KA1060M+01501KA2060N+01061MA1101765092625MD1590069+9999OC101605OD149902001280REMMET13501/11/20 15:53:02 METAR KPMD 112353Z 28019G31KT 10SM CLR 11/M02 A3005 RMK AO2 PK WND 28039/2314 SLP173 T01061022 10150 20106 55006 (BO)
0229723820231822020011200537+34629-118083FM-15+0787KPMD V0202705N011852200059N0160935N5+00895-00285101685ADDAA101000095GA1005+999999999GD10991+9999999GF100991999999999999999999MA1101735092595OC101755OD149902001270REMMET11201/11/20 16:53:01 METAR KPMD 120053Z 27023G34KT 10SM CLR 09/M03 A3004 RMK AO2 PK WND 27039/0029 SLP168 T00891028
0229723820231822020011201537+34629-118083FM-15+0787KPMD V0202705N012952200059N0160935N5+00785-00225101705ADDAA101000095GA1005+999999999GD10991+9999999GF100991999999999999999999MA1101735092595OC101545OD149901541270REMMET11201/11/20 17:53:01 METAR KPMD 120153Z 27025G30KT 10SM CLR 08/M02 A3004 RMK AO2 PK WND 27030/0054 SLP170 T00781022
0238723820231822020011202537+34629-118083FM-15+0787KPMD V0202605N006752200059N0160935N5+00725-00175101735ADDAA101000095GA1005+999999999GD10991+9999999GF100991999999999999999999MA1101735092595MD1590019+9999OD149901591270REMMET11501/11/20 18:53:01 METAR KPMD 120253Z 26013KT 10SM CLR 07/M02 A3004 RMK AO2 PK WND 27031/0155 SLP173 T00721017 55001
0186723820231822020011203537+34629-118083FM-15+0787KPMD V0202705N004152200059N0160935N5+00675-00115101845ADDAA101000095GA1005+999999999GD10991+9999999GF100991999999999999999999MA1101865092715REMMET09101/11/20 19:53:01 METAR KPMD 120353Z 27008KT 10SM CLR 07/M01 A3008 RMK AO2 SLP184 T00671011
0186723820231822020011204537+34629-118083FM-15+0787KPMD V0202705N004652200059N0160935N5+00565-00115101825ADDAA101000095GA1005+999999999GD10991+9999999GF100991999999999999999999MA1101865092715REMMET09101/11/20 20:53:02 METAR KPMD 120453Z 27009KT 10SM CLR 06/M01 A3008 RMK AO2 SLP182 T00561011
0244723820231822020011205537+34629-118083FM-15+0787KPMD V0203105N004152200059N0160935N5+00445-00065101975ADDAA101000095GA1005+999999999GD10991+9999999GF100991999999999999999999KA1060M+01061KA2060N+00441MA1102005092845MD1390249+9999REMMET10901/11/20 21:53:02 METAR KPMD 120553Z 31008KT 10SM CLR 04/M01 A3012 RMK AO2 SLP197 T00441006 10106 20044 53024
0185723820231822020011206537+34629-118083FM-15+0787KPMD V0202805N005752200059N0160935N5+00445+00005101995ADDAA101000095GA1005+999999999GD10991+9999999GF100991999999999999999999MA1102035092875REMMET09001/11/20 22:53:02 METAR KPMD 120653Z 28011KT 10SM CLR 04/00 A3013 RMK AO2 SLP199 T00440000
0222723820231822020011207537+34629-118083FM-15+0787KPMD V0202405N002652200059N0160935N5+00285-00065101985ADDAA101000095GA1005+999999999GD10991+9999999GF100991999999999999999999KA1240M+01501KA2240N+00061MA1102005092845REMMET10101/11/20 23:53:02 METAR KPMD 120753Z 24005KT 10SM CLR 03/M01 A3012 RMK AO2 SLP198 T00281006 401500006
