0233723820231822022010100537+34629-118083FM-15+0787KPMD V0202905N011352200059N0160935N5+00615+00005100555ADDAA101000095GA1005+999999999GD10991+9999999GF100991999999999999999999MA1100515091465OC101445OD149901691290REMMET11612/31/21 16:53:03 METAR KPMD 010053Z 29022G28KT 10SM CLR 06/00 A2968 RMK AO2 PK WND 29033/0015 SLP055 T00610000 (AD)
0223723820231822022010101537+34629-118083FM-15+0787KPMD V0202805N010352200059N0160935N5+00615-00065100595ADDAA101000095GA1005+999999999GD10991+9999999GF100991999999999999999999MA1100585091525OD149901491300REMMET11412/31/21 17:53:03 METAR KPMD 010153Z 28020KT 10SM CLR 06/M01 A2970 RMK AO2 PK WND 30029/0121 SLP059 T00611006 (AD)
0254723820231822022010102537+34629-118083FM-15+0787KPMD V0202505N009352200059N0160935N5+00565-00065100675ADDAA101000095GA1005+999999999GD10991+9999999GF100991999999999999999999MA1100685091625MD1390149+9999OC101605OD149902051270REMMET12312/31/21 18:53:03 METAR KPMD 010253Z 25018G31KT 10SM CLR 06/M01 A2973 RMK AO2 PK WND 27040/0227 SLP067 T00561006 53014 (AD)
0233723820231822022010103537+34629-118083FM-15+0787KPMD V0202705N013452200059N0160935N5+00505+00005100805ADDAA101000095GA1005+999999999GD10991+9999999GF100991999999999999999999MA1100815091745OC101805OD149902311270REMMET11612/31/21 19:53:03 METAR KPMD 010353Z 27026G35KT 10SM CLR 05/00 A2977 RMK AO2 PK WND 27045/0315 SLP080 T00500000 (AD)
0223723820231822022010104537+34629-118083FM-15+0787KPMD V0202605N008852200059N0160935N5+00445-00115100925ADDAA101000095GA1005+999999999GD10991+9999999GF100991999999999999999999MA1100955091875OD149901591280REMMET11412/31/21 20:53:03 METAR KPMD 010453Z 26017KT 10SM CLR 04/M01 A2981 RMK AO2 PK WND 28031/0414 SLP092 T00441011 (AD)
0281723820231822022010105537+34629-118083FM-15+0787KPMD V0202705N007752200059N0160935N5+00395-00175101015ADDAA101000095GA1005+999999999GD10991+9999999GF100991999999999999999999KA1060M+00721KA2060N+00391MA1101025091935MD1190319+9999OD149901331250REMMET13212/31/21 21:53:03 METAR KPMD 010553Z 27015KT 10SM CLR 04/M02 A2983 RMK AO2 PK WND 25026/0458 SLP101 T00391017 10072 20039 51031 (AD)
0218723820231822022010106537+34629-118083FM-15+0787KPMD V0202605N005152200059N0160935N5+00395-00175101145ADDAA101000095GA1005+999999999GD10991+9999999GF100991999999999999999999MA1101155092055OD149901391290REMMET10912/31/21 22:53:03 METAR KPMD 010653Z 26010KT 10SM CLR 04/M02 A2987 RMK AO2 PK WND 29027/0601 SLP114 T00391017
0222723820231822022010107537+34629-118083FM-15+0787KPMD V0209999C000052200059N0160935N5+00395-00175101235ADDAA101000095GA1005+999999999GD10991+9999999GF100991999999999999999999KA1240M+01061KA2240N+00171MA1101255092155REMMET10112/31/21 23:53:03 METAR KPMD 010753Z 00000KT 10SM CLR 04/M02 A2990 RMK AO2 SLP123 T00391017 401060017
0851723820231822022010107596+34629-118083SOD  +0787KPMD V020999999999999999999999999999+99999+99999999999ADDAA124000095AT1AU13BR  5AX1015245KA1240M+01065KA2240N+00175MG1091674100414OE11240232527099995OE22240196727099995OE33240071599999995REMSOD70924 HR PRECIPITATION (IN): 0.00 WEATHER(CODE):1  24 HR MAX TEMP (F): 5124 HR MIN TEMP (F): 35AVERAGE STATION PRESSURE:27.070 MINIMUM SEA LEVEL PRESSURE:29.65 TIME OF OCCURRENCE:1445 PEAK WIND SPEED (MPH): 52 PEAK WIND DIR (DEG):270 PEAK WIND TIME (LST):      FASTEST 2MIN SPEED (MPH): 44FASTEST 2MIN DIR (DEG):270 FASTEST 2MIN TIME (LST):     AVERAGE WIND SPEED (MPH):16.0 24 HR AVG TEMP (F): 43DEPART FROM NORMAL: -1  HEATING DEGREE DAYS: 22 COOLING DEGREE DAYS:  0 LATEST DAY MAX TEMP (0700-1900 LST):51  LATEST NIGHT MIN TEMP(1900-0800 LST):35 HOURLY INCREMENTAL PRECIPITATION VALUES (IN):.00 0.00 0.00 0.00 0.00 0.00 0.00 0.00 0.00 0.00 0.00 0.00 0.00 0.00 0.00 0.00 0.00 0.00 0.00 0.00 0.00 0.00 0.00 0.00
1276723820231822022010107596+34629-118083SOM  +0787KPMD V020999999999999999999999999999+99999+99999999999ADDAB10059996AD10022192930999999996AE1085045035005AH1005001392523275AH2010001892523295AH3015002092523345AH4020002591416175AH5030003092523455AH6045003692523455AI1060004391407455AI2080004891407455AI3100005191407455AI4120005393008156AI5150006693008245AI6180007993008445KB1744N+01285KB2744M+14005KB3744A+07675KC1N9-00501211995KC2M9+02440199995KD1744H05905KD2744C00005KE1005005105005MH1092574101694MK1102841809135100371411475REMSOM796PCP MTOT:2.36 PCP GT 24HRS:0.87 DATE(S):29-30 DAYS W/PCP >=.01:8  DAYS W/PCP >=.10:4  DAYS W/ PCP >=.50:3 DAYS W/PCP >=1.00:0 MSDP AMTS W/DATE-TIME TAGS:MIN:5 0.05  25/2327 MIN:10 0.07  25/2329 MIN:15 0.08  25/2334 MIN:20 0.10  14/1617 MIN:30 0.12  25/2345 MIN:45 0.14  25/2345 MIN:60 0.17  14/0745 MIN:80 0.19  14/0745 MIN:100 0.20  14/0745 MIN:120 0.21  30/0815 MIN:150 0.26  30/0824 MIN:180 0.31  30/0844 AVG DLY MIN:34.3  AVG DLY MAX:57.2  AVG MLY TMP:45.8  MIN TMP:23 DATE(S):12 11 MAX TMP:76  DATE(S):01 DAYS MAX <=32:0 DAYS MAX >=90:0  DAYS MIN <=32:10 DAYS MIN  <=0:0  AVG STP:27.335 LWST SLP:29.64 DATE/TIME:141147 HGST SLP:30.37 DATE/TIME:180913 HDD MTH TOT:590 DEP NORM:-2553 SEASON(JUL 1-JUN 30):744 DEP NORM:-25536 CDD MTH TOT:0 DEP NORM:-2553 SEASON(JAN 1-DEC 31):11 DEP NORM:-25536EQDR01  2.367ABP070R02  0.877ADP081R03  0.217A10078
0206723820231822022010108537+34629-118083FM-15+0787KPMD V0201805N001552200059N0160935N5+00065-00175101365ADDAA101000095GA1005+999999999GD10991+9999999GF100991999999999999999999MA1101355092245MD1190319+9999REMMET09701/01/22 00:53:02 METAR KPMD 010853Z 18003KT 10SM CLR 01/M02 A2993 RMK AO2 SLP136 T00061017 51031
0186723820231822022010109537+34629-118083FM-15+0787KPMD V0200305N005152200059N0160935N5+00395-00335101435ADDAA101000095GA1005+999999999GD10991+9999999GF100991999999999999999999MA1101425092315REMMET09101/01/22 01:53:02 METAR KPMD 010953Z 03010KT 10SM CLR 04/M03 A2995 RMK AO2 SLP143 T00391033
0186723820231822022010110537+34629-118083FM-15+0787KPMD V0201205N003152200059N0160935N5+00065-00285101575ADDAA101000095GA1005+999999999GD10991+9999999GF100991999999999999999999MA1101525092405REMMET09101/01/22 02:53:02 METAR KPMD 011053Z 12006KT 10SM CLR 01/M03 A2998 RMK AO2 SLP157 T00061028
0244723820231822022010111537+34629-118083FM-15+0787KPMD V0209999C000052200059N0160935N5+00115-00225101635ADDAA101000095GA1005+999999999GD10991+9999999GF100991999999999999999999KA1060M+00441KA2060N+00001MA1101595092465MD1190229+9999REMMET10901/01/22 03:53:02 METAR KPMD 011153Z 00000KT 10SM CLR 01/M02 A3000 RMK AO2 SLP163 T00111022 10044 20000 51022
0187723820231822022010112537+34629-118083FM-15+0787KPMD V0201405N002652200059N0160935N5-00115-00285101735ADDAA101000095GA1005+999999999GD10991+9999999GF100991999999999999999999MA1101665092535REMMET09201/01/22 04:53:02 METAR KPMD 011253Z 14005KT 10SM CLR M01/M03 A3002 RMK AO2 SLP173 T10111028
0187723820231822022010113537+34629-118083FM-15+0787KPMD V0201605N001552200059N0160935N5-00115-00285101875ADDAA101000095GA1005+999999999GD10991+9999999GF100991999999999999999999MA1101795092655REMMET09201/01/22 05:53:02 METAR KPMD 011353Z 16003KT 10SM CLR M01/M03 A3006 RMK AO2 SLP187 T10111028
0207723820231822022010114537+34629-118083FM-15+0787KPMD V0209999C000052200059N0160935N5-00115-00335102035ADDAA101000095GA1005+999999999GD10991+9999999GF100991999999999999999999MA1101935092785MD1390339+9999REMMET09801/01/22 06:53:02 METAR KPMD 011453Z 00000KT 10SM CLR M01/M03 A3010 RMK AO2 SLP203 T10111033 53033
0186723820231822022010115537+34629-118083FM-15+0787KPMD V0209999C000052200059N0128755N5-00065-00175102145ADDAA101000095GA1005+999999999GD10991+9999999GF100991999999999999999999MA1102075092905REMMET09101/01/22 07:53:02 METAR KPMD 011553Z 00000KT 8SM CLR M01/M02 A3014 RMK AO2 SLP214 T10061017
0186723820231822022010116537+34629-118083FM-15+0787KPMD V0200505N002652200059N0160935N5+00225-00115102245ADDAA101000095GA1005+999999999GD10991+9999999GF100991999999999999999999MA1102175093005REMMET09101/01/22 08:53:02 METAR KPMD 011653Z 05005KT 10SM CLR 02/M01 A3017 RMK AO2 SLP224 T00221011
0244723820231822022010117537+34629-118083FM-15+0787KPMD V0200705N005752200059N0160935N5+00505-00505102325ADDAA101000095GA1005+999999999GD10991+9999999GF100991999999999999999999KA1060M+00501KA2060N-00171MA1102275093095MD1190299+9999REMMET10901/01/22 09:53:02 METAR KPMD 011753Z 07011KT 10SM CLR 05/M05 A3020 RMK AO2 SLP232 T00501050 10050 21017 51029
0186723820231822022010118537+34629-118083FM-15+0787KPMD V0200605N008852200059N0160935N5+00675-00675102305ADDAA101000095GA1005+999999999GD10991+9999999GF100991999999999999999999MA1102275093095REMMET09101/01/22 10:53:02 METAR KPMD 011853Z 06017KT 10SM CLR 07/M07 A3020 RMK AO2 SLP230 T00671067
0186723820231822022010119537+34629-118083FM-15+0787KPMD V0200705N007752200059N0160935N5+00725-00675102265ADDAA101000095GA1005+999999999GD10991+9999999GF100991999999999999999999MA1102245093065REMMET09101/01/22 11:53:02 METAR KPMD 011953Z 07015KT 10SM CLR 07/M07 A3019 RMK AO2 SLP226 T00721067
0206723820231822022010120537+34629-118083FM-15+0787KPMD V0200605N007252200059N0160935N5+00835-00675102245ADDAA101000095GA1005+999999999GD10991+9999999GF100991999999999999999999MA1102175093005MD1890079+9999REMMET09701/01/22 12:53:02 METAR KPMD 012053Z 06014KT 10SM CLR 08/M07 A3017 RMK AO2 SLP224 T00831067 58007
0186723820231822022010121537+34629-118083FM-15+0787KPMD V0200705N006752200059N0160935N5+00785-00835102215ADDAA101000095GA1005+999999999GD10991+9999999GF100991999999999999999999MA1102205093035REMMET09101/01/22 13:53:02 METAR KPMD 012153Z 07013KT 10SM CLR 08/M08 A3018 RMK AO2 SLP221 T00781083
0191723820231822022010122537+34629-118083FM-15+0787KPMD V0200405N006752200059N0160935N5+00835-00835102305ADDAA101000095GA1005+999999999GD10991+9999999GF100991999999999999999999MA1102245093065REMMET09601/01/22 14:53:02 METAR KPMD 012253Z 04013KT 10SM CLR 08/M08 A3019 RMK AO2 SLP230 T00831083 (AD)
0249723820231822022010123537+34629-118083FM-15+0787KPMD V0200505N007252200059N0160935N5+00835-00945102335ADDAA101000095GA1005+999999999GD10991+9999999GF100991999999999999999999KA1060M+00891KA2060N+00501MA1102275093095MD1390109+9999REMMET11401/01/22 15:53:02 METAR KPMD 012353Z 05014KT 10SM CLR 08/M09 A3020 RMK AO2 SLP233 T00831094 10089 20050 53010 (AD)
0186723820231822022010200537+34629-118083FM-15+0787KPMD V0200305N006252200059N0160935N5+00675-00835102455ADDAA101000095GA1005+999999999GD10991+9999999GF100991999999999999999999MA1102375093185REMMET09101/01/22 16:53:01 METAR KPMD 020053Z 03012KT 10SM CLR 07/M08 A3023 RMK AO2 SLP245 T00671083
0186723820231822022010201537+34629-118083FM-15+0787KPMD V0200305N006252200059N0160935N5+00505-00725102525ADDAA101000095GA1005+999999999GD10991+9999999GF100991999999999999999999MA1102405093225REMMET09101/01/22 17:53:01 METAR KPMD 020153Z 03012KT 10SM CLR 05/M07 A3024 RMK AO2 SLP252 T00501072
0206723820231822022010202537+34629-118083FM-15+0787KPMD V0200905N002652200059N0160935N5+00225-00675102675ADDAA101000095GA1005+999999999GD10991+9999999GF100991999999999999999999MA1102545093345MD1390239+9999REMMET09701/01/22 18:53:01 METAR KPMD 020253Z 09005KT 10SM CLR 02/M07 A3028 RMK AO2 SLP267 T00221067 53023
0186723820231822022010203537+34629-118083FM-15+0787KPMD V0209999C000052200059N0160935N5+00335-00835102745ADDAA101000095GA1005+999999999GD10991+9999999GF100991999999999999999999MA1102645093445REMMET09101/01/22 19:53:01 METAR KPMD 020353Z 00000KT 10SM CLR 03/M08 A3031 RMK AO2 SLP274 T00331083
0186723820231822022010204537+34629-118083FM-15+0787KPMD V0209999C000052200059N0160935N5+00065-00565102815ADDAA101000095GA1005+999999999GD10991+9999999GF100991999999999999999999MA1102715093505REMMET09101/01/22 20:53:02 METAR KPMD 020453Z 00000KT 10SM CLR 01/M06 A3033 RMK AO2 SLP281 T00061056
0245723820231822022010205537+34629-118083FM-15+0787KPMD V0203105N001552200059N0160935N5-00065-00505102865ADDAA101000095GA1005+999999999GD10991+9999999GF100991999999999999999999KA1060M+00831KA2060N-00061MA1102745093535MD1190219+9999REMMET11001/01/22 21:53:02 METAR KPMD 020553Z 31003KT 10SM CLR M01/M05 A3034 RMK AO2 SLP286 T10061050 10083 21006 51021
0186723820231822022010206537+34629-118083FM-15+0787KPMD V0203305N001552200059N0160935N5+00005-00565102865ADDAA101000095GA1005+999999999GD10991+9999999GF100991999999999999999999MA1102785093565REMMET09101/01/22 22:53:02 METAR KPMD 020653Z 33003KT 10SM CLR 00/M06 A3035 RMK AO2 SLP286 T00001056
0223723820231822022010207537+34629-118083FM-15+0787KPMD V0201605N001552200059N0160935N5-00115-00565102865ADDAA101000095GA1005+999999999GD10991+9999999GF100991999999999999999999KA1240M+00891KA2240N-00171MA1102785093565REMMET10201/01/22 23:53:02 METAR KPMD 020753Z 16003KT 10SM CLR M01/M06 A3035 RMK AO2 SLP286 T10111056 400891017
0813723820231822022010207596+34629-118083SOD  +0787KPMD V020999999999999999999999999999+99999+99999999999ADDAA124000095KA1240M+00895KA2240N-00215MG1093044101294OE11240111807099995OE22240098307099995OE33240035899999995REMSOD69224 HR PRECIPITATION (IN): 0.00 24 HR MAX TEMP (F): 4824 HR MIN TEMP (F): 28AVERAGE STATION PRESSURE:27.475 MINIMUM SEA LEVEL PRESSURE:29.91 TIME OF OCCURRENCE:0032 PEAK WIND SPEED (MPH): 25 PEAK WIND DIR (DEG): 70 PEAK WIND TIME (LST):      FASTEST 2MIN SPEED (MPH): 22FASTEST 2MIN DIR (DEG): 70 FASTEST 2MIN TIME (LST):     AVERAGE WIND SPEED (MPH): 8.0 24 HR AVG TEMP (F): 38DEPART FROM NORMAL: -7  HEATING DEGREE DAYS: 27 COOLING DEGREE DAYS:  0 LATEST DAY MAX TEMP (0700-1900 LST):48  LATEST NIGHT MIN TEMP(1900-0800 LST):29 HOURLY INCREMENTAL PRECIPITATION VALUES (IN):.00 0.00 0.00 0.00 0.00 0.00 0.00 0.00 0.00 0.00 0.00 0.00 0.00 0.00 0.00 0.00 0.00 0.00 0.00 0.00 0.00 0.00 0.00 0.00
0207723820231822022010208537+34629-118083FM-15+0787KPMD V0203005N002652200059N0160935N5-00175-00565102855ADDAA101000095GA1005+999999999GD10991+9999999GF100991999999999999999999MA1102785093565MD1090019+9999REMMET09801/02/22 00:53:02 METAR KPMD 020853Z 30005KT 10SM CLR M02/M06 A3035 RMK AO2 SLP285 T10171056 50001
0187723820231822022010209537+34629-118083FM-15+0787KPMD V0202905N002152200059N0160935N5-00175-00615102895ADDAA101000095GA1005+999999999GD10991+9999999GF100991999999999999999999MA1102815093595REMMET09201/02/22 01:53:02 METAR KPMD 020953Z 29004KT 10SM CLR M02/M06 A3036 RMK AO2 SLP289 T10171061
0187723820231822022010210537+34629-118083FM-15+0787KPMD V0209999C000052200059N0160935N5-00285-00565102895ADDAA101000095GA1005+999999999GD10991+9999999GF100991999999999999999999MA1102815093595REMMET09201/02/22 02:53:02 METAR KPMD 021053Z 00000KT 10SM CLR M03/M06 A3036 RMK AO2 SLP289 T10281056
0245723820231822022010211537+34629-118083FM-15+0787KPMD V0201905N002152200059N0160935N5-00335-00615102885ADDAA101000095GA1005+999999999GD10991+9999999GF100991999999999999999999KA1060M+00061KA2060N-00331MA1102785093565MD1090029+9999REMMET11001/02/22 03:53:02 METAR KPMD 021153Z 19004KT 10SM CLR M03/M06 A3035 RMK AO2 SLP288 T10331061 10006 21033 50002
0187723820231822022010212537+34629-118083FM-15+0787KPMD V0202005N001552200059N0160935N5-00335-00615102885ADDAA101000095GA1005+999999999GD10991+9999999GF100991999999999999999999MA1102785093565REMMET09201/02/22 04:53:02 METAR KPMD 021253Z 20003KT 10SM CLR M03/M06 A3035 RMK AO2 SLP288 T10331061
0187723820231822022010213537+34629-118083FM-15+0787KPMD V0202705N002152200059N0160935N5-00335-00675102925ADDAA101000095GA1005+999999999GD10991+9999999GF100991999999999999999999MA1102785093565REMMET09201/02/22 05:53:02 METAR KPMD 021353Z 27004KT 10SM CLR M03/M07 A3035 RMK AO2 SLP292 T10331067
0207723820231822022010214537+34629-118083FM-15+0787KPMD V0202705N002152200059N0160935N5-00335-00675102995ADDAA101000095GA1005+999999999GD10991+9999999GF100991999999999999999999MA1102815093595MD1390049+9999REMMET09801/02/22 06:53:02 METAR KPMD 021453Z 27004KT 10SM CLR M03/M07 A3036 RMK AO2 SLP299 T10331067 53004
0187723820231822022010215537+34629-118083FM-15+0787KPMD V0209999C000052200059N0160935N5-00225-00505103005ADDAA101000095GA1005+999999999GD10991+9999999GF100991999999999999999999MA1102845093625REMMET09201/02/22 07:53:02 METAR KPMD 021553Z 00000KT 10SM CLR M02/M05 A3037 RMK AO2 SLP300 T10221050
0186723820231822022010216537+34629-118083FM-15+0787KPMD V0209999C000052200059N0160935N5+00115-00505103045ADDAA101000095GA1005+999999999GD10991+9999999GF100991999999999999999999MA1102915093695REMMET09101/02/22 08:53:02 METAR KPMD 021653Z 00000KT 10SM CLR 01/M05 A3039 RMK AO2 SLP304 T00111050
0244723820231822022010217537+34629-118083FM-15+0787KPMD V0209999C000052200059N0160935N5+00285-00615103065ADDAA101000095GA1005+999999999GD10991+9999999GF100991999999999999999999KA1060M+00281KA2060N-00391MA1102915093695MD1190099+9999REMMET10901/02/22 09:53:02 METAR KPMD 021753Z 00000KT 10SM CLR 03/M06 A3039 RMK AO2 SLP306 T00281061 10028 21039 51009
0186723820231822022010218537+34629-118083FM-15+0787KPMD V0203405N001552200059N0160935N5+00445-00725103005ADDAA101000095GA1005+999999999GD10991+9999999GF100991999999999999999999MA1102885093655REMMET09101/02/22 10:53:02 METAR KPMD 021853Z 34003KT 10SM CLR 04/M07 A3038 RMK AO2 SLP300 T00441072
0186723820231822022010219537+34629-118083FM-15+0787KPMD V0209999V002152200059N0160935N5+00565-00785102865ADDAA101000095GA1005+999999999GD10991+9999999GF100991999999999999999999MA1102745093535REMMET09101/02/22 11:53:02 METAR KPMD 021953Z VRB04KT 10SM CLR 06/M08 A3034 RMK AO2 SLP286 T00561078
0211723820231822022010220537+34629-118083FM-15+0787KPMD V0200105N002652200059N0160935N5+00675-00675102725ADDAA101000095GA1005+999999999GD10991+9999999GF100991999999999999999999MA1102615093405MD1890289+9999REMMET10201/02/22 12:53:02 METAR KPMD 022053Z 01005KT 10SM CLR 07/M07 A3030 RMK AO2 SLP272 T00671067 58028 (AD)
0191723820231822022010221537+34629-118083FM-15+0787KPMD V0200105N003152200059N0160935N5+00785-00615102645ADDAA101000095GA1005+999999999GD10991+9999999GF100991999999999999999999MA1102545093345REMMET09601/02/22 13:53:02 METAR KPMD 022153Z 01006KT 10SM CLR 08/M06 A3028 RMK AO2 SLP264 T00781061 (AD)
0191723820231822022010222537+34629-118083FM-15+0787KPMD V0200405N002652200059N0160935N5+00835-00785102605ADDAA101000095GA1005+999999999GD10991+9999999GF100991999999999999999999MA1102515093315REMMET09601/02/22 14:53:02 METAR KPMD 022253Z 04005KT 10SM CLR 08/M08 A3027 RMK AO2 SLP260 T00831078 (AD)
0249723820231822022010223537+34629-118083FM-15+0787KPMD V0200305N003652200059N0160935N5+00835-00835102575ADDAA101000095GA1005+999999999GD10991+9999999GF100991999999999999999999KA1060M+00831KA2060N+00221MA1102475093285MD1690149+9999REMMET11401/02/22 15:53:02 METAR KPMD 022353Z 03007KT 10SM CLR 08/M08 A3026 RMK AO2 SLP257 T00831083 10083 20022 56014 (AD)
0186723820231822022010300537+34629-118083FM-15+0787KPMD V0203505N002652200059N0160935N5+00615-00725102565ADDAA101000095GA1005+999999999GD10991+9999999GF100991999999999999999999MA1102445093255REMMET09101/02/22 16:53:01 METAR KPMD 030053Z 35005KT 10SM CLR 06/M07 A3025 RMK AO2 SLP256 T00611072
0186723820231822022010301537+34629-118083FM-15+0787KPMD V0209999C000052200059N0160935N5+00335-00565102575ADDAA101000095GA1005+999999999GD10991+9999999GF100991999999999999999999MA1102445093255REMMET09101/02/22 17:53:01 METAR KPMD 030153Z 00000KT 10SM CLR 03/M06 A3025 RMK AO2 SLP257 T00331056
0206723820231822022010302537+34629-118083FM-15+0787KPMD V0202805N002652200059N0160935N5+00225-00565102585ADDAA101000095GA1005+999999999GD10991+9999999GF100991999999999999999999MA1102445093255MD1690059+9999REMMET09701/02/22 18:53:01 METAR KPMD 030253Z 28005KT 10SM CLR 02/M06 A3025 RMK AO2 SLP258 T00221056 56005
0186723820231822022010303537+34629-118083FM-15+0787KPMD V0202705N002152200059N0160935N5+00225-00565102625ADDAA101000095GA1005+999999999GD10991+9999999GF100991999999999999999999MA1102475093285REMMET09101/02/22 19:53:02 METAR KPMD 030353Z 27004KT 10SM CLR 02/M06 A3026 RMK AO2 SLP262 T00221056
0186723820231822022010304537+34629-118083FM-15+0787KPMD V0202805N002652200059N0160935N5+00115-00505102615ADDAA101000095GA1005+999999999GD10991+9999999GF100991999999999999999999MA1102475093285REMMET09101/02/22 20:53:02 METAR KPMD 030453Z 28005KT 10SM CLR 01/M05 A3026 RMK AO2 SLP261 T00111050
0244723820231822022010305537+34629-118083FM-15+0787KPMD V0202005N002152200059N0160935N5+00005-00445102605ADDAA101000095GA1005+999999999GD10991+9999999GF100991999999999999999999KA1060M+00831KA2060N-00061MA1102515093315MD1190069+9999REMMET10901/02/22 21:53:02 METAR KPMD 030553Z 20004KT 10SM CLR 00/M04 A3027 RMK AO2 SLP260 T00001044 10083 21006 51006
0187723820231822022010306537+34629-118083FM-15+0787KPMD V0201905N002652200059N0160935N5-00115-00445102605ADDAA101000095GA1005+999999999GD10991+9999999GF100991999999999999999999MA1102515093315REMMET09201/02/22 22:53:02 METAR KPMD 030653Z 19005KT 10SM CLR M01/M04 A3027 RMK AO2 SLP260 T10111044
0223723820231822022010307537+34629-118083FM-15+0787KPMD V0202405N002152200059N0160935N5-00115-00505102595ADDAA101000095GA1005+999999999GD10991+9999999GF100991999999999999999999KA1240M+00831KA2240N-00391MA1102515093315REMMET10201/02/22 23:53:02 METAR KPMD 030753Z 24004KT 10SM CLR M01/M05 A3027 RMK AO2 SLP259 T10111050 400831039
0813723820231822022010307596+34629-118083SOD  +0787KPMD V020999999999999999999999999999+99999+99999999999ADDAA124000095KA1240M+00835KA2240N-00385MG1093454102544OE11240053603099995OE22240040201099995OE33240018399999995REMSOD69224 HR PRECIPITATION (IN): 0.00 24 HR MAX TEMP (F): 4724 HR MIN TEMP (F): 25AVERAGE STATION PRESSURE:27.595 MINIMUM SEA LEVEL PRESSURE:30.28 TIME OF OCCURRENCE:1702 PEAK WIND SPEED (MPH): 12 PEAK WIND DIR (DEG): 30 PEAK WIND TIME (LST):      FASTEST 2MIN SPEED (MPH):  9FASTEST 2MIN DIR (DEG): 10 FASTEST 2MIN TIME (LST):     AVERAGE WIND SPEED (MPH): 4.1 24 HR AVG TEMP (F): 36DEPART FROM NORMAL: -9  HEATING DEGREE DAYS: 29 COOLING DEGREE DAYS:  0 LATEST DAY MAX TEMP (0700-1900 LST):47  LATEST NIGHT MIN TEMP(1900-0800 LST):25 HOURLY INCREMENTAL PRECIPITATION VALUES (IN):.00 0.00 0.00 0.00 0.00 0.00 0.00 0.00 0.00 0.00 0.00 0.00 0.00 0.00 0.00 0.00 0.00 0.00 0.00 0.00 0.00 0.00 0.00 0.00
0207723820231822022010308537+34629-118083FM-15+0787KPMD V0209999C000052200059N0160935N5-00175-00505102625ADDAA101000095GA1005+999999999GD10991+9999999GF100991999999999999999999MA1102545093345MD1390039+9999REMMET09801/03/22 00:53:02 METAR KPMD 030853Z 00000KT 10SM CLR M02/M05 A3028 RMK AO2 SLP262 T10171050 53003
0187723820231822022010309537+34629-118083FM-15+0787KPMD V0209999C000052200059N0160935N5-00225-00565102545ADDAA101000095GA1005+999999999GD10991+9999999GF100991999999999999999999MA1102445093255REMMET09201/03/22 01:53:02 METAR KPMD 030953Z 00000KT 10SM CLR M02/M06 A3025 RMK AO2 SLP254 T10221056
0187723820231822022010310537+34629-118083FM-15+0787KPMD V0202605N002652200059N0160935N5-00225-00615102515ADDAA101000095GA1005+999999999GD10991+9999999GF100991999999999999999999MA1102445093255REMMET09201/03/22 02:53:02 METAR KPMD 031053Z 26005KT 10SM CLR M02/M06 A3025 RMK AO2 SLP251 T10221061
0245723820231822022010311537+34629-118083FM-15+0787KPMD V0209999C000052200059N0160935N5-00285-00675102505ADDAA101000095GA1005+999999999GD10991+9999999GF100991999999999999999999KA1060M+00001KA2060N-00281MA1102405093225MD1690109+9999REMMET11001/03/22 03:53:02 METAR KPMD 031153Z 00000KT 10SM CLR M03/M07 A3024 RMK AO2 SLP250 T10281067 10000 21028 56010
0187723820231822022010312537+34629-118083FM-15+0787KPMD V0202005N002152200059N0160935N5-00395-00615102485ADDAA101000095GA1005+999999999GD10991+9999999GF100991999999999999999999MA1102375093185REMMET09201/03/22 04:53:02 METAR KPMD 031253Z 20004KT 10SM CLR M04/M06 A3023 RMK AO2 SLP248 T10391061
0192723820231822022010313537+34629-118083FM-15+0787KPMD V0203005N001552200059N0160935N5-00395-00675102535ADDAA101000095GA1005+999999999GD10991+9999999GF100991999999999999999999MA1102405093225REMMET09701/03/22 05:53:02 METAR KPMD 031353Z 30003KT 10SM CLR M04/M07 A3024 RMK AO2 SLP253 T10391067 (AD)
0212723820231822022010314537+34629-118083FM-15+0787KPMD V0201905N002152200059N0160935N5-00395-00675102565ADDAA101000095GA1005+999999999GD10991+9999999GF100991999999999999999999MA1102405093225MD1590009+9999REMMET10301/03/22 06:53:02 METAR KPMD 031453Z 19004KT 10SM CLR M04/M07 A3024 RMK AO2 SLP256 T10391067 55000 (AD)
0192723820231822022010315537+34629-118083FM-15+0787KPMD V0209999C000052200059N0160935N5-00225-00565102555ADDAA101000095GA1005+999999999GD10991+9999999GF100991999999999999999999MA1102405093225REMMET09701/03/22 07:53:02 METAR KPMD 031553Z 00000KT 10SM CLR M02/M06 A3024 RMK AO2 SLP255 T10221056 (AD)
0191723820231822022010316537+34629-118083FM-15+0787KPMD V0209999C000052200059N0160935N5+00065-00615102635ADDAA101000095GA1005+999999999GD10991+9999999GF100991999999999999999999MA1102515093315REMMET09601/03/22 08:53:02 METAR KPMD 031653Z 00000KT 10SM CLR 01/M06 A3027 RMK AO2 SLP263 T00061061 (AD)
0249723820231822022010317537+34629-118083FM-15+0787KPMD V0209999C000052200059N0160935N5+00285-00565102635ADDAA101000095GA1005+999999999GD10991+9999999GF100991999999999999999999KA1060M+00281KA2060N-00441MA1102515093315MD1390109+9999REMMET11401/03/22 09:53:02 METAR KPMD 031753Z 00000KT 10SM CLR 03/M06 A3027 RMK AO2 SLP263 T00281056 10028 21044 53010 (AD)
0191723820231822022010318537+34629-118083FM-15+0787KPMD V0209999V001552200059N0160935N5+00505-00675102555ADDAA101000095GA1005+999999999GD10991+9999999GF100991999999999999999999MA1102445093255REMMET09601/03/22 10:53:02 METAR KPMD 031853Z VRB03KT 10SM CLR 05/M07 A3025 RMK AO2 SLP255 T00501067 (AD)
0191723820231822022010319537+34629-118083FM-15+0787KPMD V0203505N001552200059N0160935N5+00675-00835102405ADDAA101000095GA1005+999999999GD10991+9999999GF100991999999999999999999MA1102305093125REMMET09601/03/22 11:53:02 METAR KPMD 031953Z 35003KT 10SM CLR 07/M08 A3021 RMK AO2 SLP240 T00671083 (AD)
0211723820231822022010320537+34629-118083FM-15+0787KPMD V0209999C000052200059N0160935N5+00785-00785102295ADDAA101000095GA1005+999999999GD10991+9999999GF100991999999999999999999MA1102205093035MD1890289+9999REMMET10201/03/22 12:53:02 METAR KPMD 032053Z 00000KT 10SM CLR 08/M08 A3018 RMK AO2 SLP229 T00781078 58028 (AD)
0191723820231822022010321537+34629-118083FM-15+0787KPMD V0209999C000052200059N0160935N5+00945-00725102225ADDAA101000095GA1005+999999999GD10991+9999999GF100991999999999999999999MA1102135092965REMMET09601/03/22 13:53:02 METAR KPMD 032153Z 00000KT 10SM CLR 09/M07 A3016 RMK AO2 SLP222 T00941072 (KC)
0191723820231822022010322537+34629-118083FM-15+0787KPMD V0209999C000052200059N0160935N5+01005-00565102195ADDAA101000095GA1005+999999999GD10991+9999999GF100991999999999999999999MA1102135092965REMMET09601/03/22 14:53:02 METAR KPMD 032253Z 00000KT 10SM CLR 10/M06 A3016 RMK AO2 SLP219 T01001056 (KC)
0249723820231822022010323537+34629-118083FM-15+0787KPMD V0200305N001552200059N0160935N5+01005-00395102185ADDAA101000095GA1005+999999999GD10991+9999999GF100991999999999999999999KA1060M+01111KA2060N+00281MA1102105092935MD1690109+9999REMMET11401/03/22 15:53:02 METAR KPMD 032353Z 03003KT 10SM CLR 10/M04 A3015 RMK AO2 SLP218 T01001039 10111 20028 56010 (KC)
0186723820231822022010400537+34629-118083FM-15+0787KPMD V0209999C000052200059N0160935N5+00785-00225102235ADDAA101000095GA1005+999999999GD10991+9999999GF100991999999999999999999MA1102135092965REMMET09101/03/22 16:53:01 METAR KPMD 040053Z 00000KT 10SM CLR 08/M02 A3016 RMK AO2 SLP223 T00781022
0186723820231822022010401537+34629-118083FM-15+0787KPMD V0209999C000052200059N0160935N5+00725-00395102285ADDAA101000095GA1005+999999999GD10991+9999999GF100991999999999999999999MA1102175093005REMMET09101/03/22 17:53:01 METAR KPMD 040153Z 00000KT 10SM CLR 07/M04 A3017 RMK AO2 SLP228 T00721039
0206723820231822022010402537+34629-118083FM-15+0787KPMD V0202605N002652200059N0160935N5+00725-00445102355ADDAA101000095GA1005+999999999GD10991+9999999GF100991999999999999999999MA1102245093065MD1390129+9999REMMET09701/03/22 18:53:01 METAR KPMD 040253Z 26005KT 10SM CLR 07/M04 A3019 RMK AO2 SLP235 T00721044 53012
0186723820231822022010403537+34629-118083FM-15+0787KPMD V0202005N004652200059N0160935N5+00395-00335102395ADDAA101000095GA1005+999999999GD10991+9999999GF100991999999999999999999MA1102275093095REMMET09101/03/22 19:53:02 METAR KPMD 040353Z 20009KT 10SM CLR 04/M03 A3020 RMK AO2 SLP239 T00391033
0186723820231822022010404537+34629-118083FM-15+0787KPMD V0202105N002652200059N0160935N5+00445-00395102355ADDAA101000095GA1005+999999999GD10991+9999999GF100991999999999999999999MA1102275093095REMMET09101/03/22 20:53:02 METAR KPMD 040453Z 21005KT 10SM CLR 04/M04 A3020 RMK AO2 SLP235 T00441039
0244723820231822022010405537+34629-118083FM-15+0787KPMD V0202805N003652200059N0160935N5+00395-00445102355ADDAA101000095GA1005+999999999GD10991+9999999GF100991999999999999999999KA1060M+01001KA2060N+00281MA1102275093095MD1190039+9999REMMET10901/03/22 21:53:02 METAR KPMD 040553Z 28007KT 10SM CLR 04/M04 A3020 RMK AO2 SLP235 T00391044 10100 20028 51003
0186723820231822022010406537+34629-118083FM-15+0787KPMD V0202505N003652200059N0160935N5+00395-00445102345ADDAA101000095GA1005+999999999GD10991+9999999GF100991999999999999999999MA1102275093095REMMET09101/03/22 22:53:02 METAR KPMD 040653Z 25007KT 10SM CLR 04/M04 A3020 RMK AO2 SLP234 T00391044
0222723820231822022010407537+34629-118083FM-15+0787KPMD V0201905N005152200059N0160935N5+00285-00395102315ADDAA101000095GA1005+999999999GD10991+9999999GF100991999999999999999999KA1240M+01111KA2240N-00441MA1102275093095REMMET10101/03/22 23:53:02 METAR KPMD 040753Z 19010KT 10SM CLR 03/M04 A3020 RMK AO2 SLP231 T00281039 401111044
0813723820231822022010407596+34629-118083SOD  +0787KPMD V020999999999999999999999999999+99999+99999999999ADDAA124000095KA1240M+01115KA2240N-00435MG1093134102134OE11240058120099995OE22240058120099995OE33240014899999995REMSOD69224 HR PRECIPITATION (IN): 0.00 24 HR MAX TEMP (F): 5224 HR MIN TEMP (F): 24AVERAGE STATION PRESSURE:27.500 MINIMUM SEA LEVEL PRESSURE:30.16 TIME OF OCCURRENCE:1537 PEAK WIND SPEED (MPH): 13 PEAK WIND DIR (DEG):200 PEAK WIND TIME (LST):      FASTEST 2MIN SPEED (MPH): 13FASTEST 2MIN DIR (DEG):200 FASTEST 2MIN TIME (LST):     AVERAGE WIND SPEED (MPH): 3.3 24 HR AVG TEMP (F): 38DEPART FROM NORMAL: -7  HEATING DEGREE DAYS: 27 COOLING DEGREE DAYS:  0 LATEST DAY MAX TEMP (0700-1900 LST):52  LATEST NIGHT MIN TEMP(1900-0800 LST):24 HOURLY INCREMENTAL PRECIPITATION VALUES (IN):.00 0.00 0.00 0.00 0.00 0.00 0.00 0.00 0.00 0.00 0.00 0.00 0.00 0.00 0.00 0.00 0.00 0.00 0.00 0.00 0.00 0.00 0.00 0.00
0206723820231822022010408537+34629-118083FM-15+0787KPMD V0202205N005752200059N0160935N5+00615-00565102245ADDAA101000095GA1005+999999999GD10991+9999999GF100991999999999999999999MA1102245093065MD1890039+9999REMMET09701/04/22 00:53:02 METAR KPMD 040853Z 22011KT 10SM CLR 06/M06 A3019 RMK AO2 SLP224 T00611056 58003
0186723820231822022010409537+34629-118083FM-15+0787KPMD V0202705N003652200059N0160935N5+00445-00565102295ADDAA101000095GA1005+999999999GD10991+9999999GF100991999999999999999999MA1102275093095REMMET09101/04/22 01:53:02 METAR KPMD 040953Z 27007KT 10SM CLR 04/M06 A3020 RMK AO2 SLP229 T00441056
0186723820231822022010410537+34629-118083FM-15+0787KPMD V0209999V001552200059N0160935N5+00785-00615102265ADDAA101000095GA1005+999999999GD10991+9999999GF100991999999999999999999MA1102275093095REMMET09101/04/22 02:53:02 METAR KPMD 041053Z VRB03KT 10SM CLR 08/M06 A3020 RMK AO2 SLP226 T00781061
0244723820231822022010411537+34629-118083FM-15+0787KPMD V0209999N999992200059N0160935N5+00835-00285102235ADDAA101000095GA1005+999999999GD10991+9999999GF100991999999999999999999KA1060M+00891KA2060N+00171MA1102275093095MD1090029+9999REMMET10901/04/22 03:53:02 METAR KPMD 041153Z      KT 10SM CLR 08/M03 A3020 RMK AO2 SLP223 T00831028 10089 20017 50002
0186723820231822022010412537+34629-118083FM-15+0787KPMD V0202605N007252200059N0160935N5+00725-00285102245ADDAA101000095GA1005+999999999GD10991+9999999GF100991999999999999999999MA1102245093065REMMET09101/04/22 04:53:02 METAR KPMD 041253Z 26014KT 10SM CLR 07/M03 A3019 RMK AO2 SLP224 T00721028
0191723820231822022010413537+34629-118083FM-15+0787KPMD V0209999V001552200059N0160935N5+00725-00505102325ADDAA101000095GA1005+999999999GD10991+9999999GF100991999999999999999999MA1102305093125REMMET09601/04/22 05:53:02 METAR KPMD 041353Z VRB03KT 10SM CLR 07/M05 A3021 RMK AO2 SLP232 T00721050 (AD)
0222723820231822022010414537+34629-118083FM-15+0787KPMD V0202805N004652200059N0160935N5+00835-00115102375ADDAA101000095GA1005+999999999GD10991+9999999GF100991999999999999999999MA1102375093185MD1390119+9999OC100885REMMET10501/04/22 06:53:02 METAR KPMD 041453Z 28009G17KT 10SM CLR 08/M01 A3023 RMK AO2 SLP237 T00831011 53011 (AD)
0190723820231822022010415537+34629-118083FM-15+0787KPMD V0202905N007752200059N0160935N5+00895+00065102445ADDAA101000095GA1005+999999999GD10991+9999999GF100991999999999999999999MA1102405093225REMMET09501/04/22 07:53:02 METAR KPMD 041553Z 29015KT 10SM CLR 09/01 A3024 RMK AO2 SLP244 T00890006 (AD)
0201723820231822022010416537+34629-118083FM-15+0787KPMD V0202905N008852200059N0160935N5+01005+00175102455ADDAA101000095GA1005+999999999GD10991+9999999GF100991999999999999999999MA1102445093255OC101135REMMET09801/04/22 08:53:02 METAR KPMD 041653Z 29017G22KT 10SM CLR 10/02 A3025 RMK AO2 SLP245 T01000017 (AD)
0248723820231822022010417537+34629-118083FM-15+0787KPMD V0202905N008252200059N0160935N5+01175+00225102495ADDAA101000095GA1005+999999999GD10991+9999999GF100991999999999999999999KA1060M+01171KA2060N+00671MA1102515093315MD1390119+9999REMMET11301/04/22 09:53:02 METAR KPMD 041753Z 29016KT 10SM CLR 12/02 A3027 RMK AO2 SLP249 T01170022 10117 20067 53011 (AD)
0190723820231822022010418537+34629-118083FM-15+0787KPMD V0202905N008252200059N0160935N5+01335+00175102465ADDAA101000095GA1005+999999999GD10991+9999999GF100991999999999999999999MA1102475093285REMMET09501/04/22 10:53:02 METAR KPMD 041853Z 29016KT 10SM CLR 13/02 A3026 RMK AO2 SLP246 T01330017 (AD)
0190723820231822022010419537+34629-118083FM-15+0787KPMD V0203005N006752200059N0160935N5+01505+00175102345ADDAA101000095GA1005+999999999GD10991+9999999GF100991999999999999999999MA1102375093185REMMET09501/04/22 11:53:02 METAR KPMD 041953Z 30013KT 10SM CLR 15/02 A3023 RMK AO2 SLP234 T01500017 (AD)
0210723820231822022010420537+34629-118083FM-15+0787KPMD V0203105N005752200059N0160935N5+01615+00065102205ADDAA101000095GA1005+999999999GD10991+9999999GF100991999999999999999999MA1102275093095MD1890229+9999REMMET10101/04/22 12:53:02 METAR KPMD 042053Z 31011KT 10SM CLR 16/01 A3020 RMK AO2 SLP220 T01610006 58022 (AD)
0190723820231822022010421537+34629-118083FM-15+0787KPMD V0202905N007752200059N0160935N5+01675+00005102175ADDAA101000095GA1005+999999999GD10991+9999999GF100991999999999999999999MA1102205093035REMMET09501/04/22 13:53:02 METAR KPMD 042153Z 29015KT 10SM CLR 17/00 A3018 RMK AO2 SLP217 T01670000 (AD)
0190723820231822022010422537+34629-118083FM-15+0787KPMD V0202805N008252200059N0160935N5+01615+00005102125ADDAA101000095GA1005+999999999GD10991+9999999GF100991999999999999999999MA1102205093035REMMET09501/04/22 14:53:02 METAR KPMD 042253Z 28016KT 10SM CLR 16/00 A3018 RMK AO2 SLP212 T01610000 (DG)
0249723820231822022010423537+34629-118083FM-15+0787KPMD V0202805N006252200059N0160935N5+01565-00065102125ADDAA101000095GA1005+999999999GD10991+9999999GF100991999999999999999999KA1060M+01671KA2060N+01171MA1102205093035MD1690059+9999REMMET11401/04/22 15:53:02 METAR KPMD 042353Z 28012KT 10SM CLR 16/M01 A3018 RMK AO2 SLP212 T01561006 10167 20117 56005 (DG)
0185723820231822022010500537+34629-118083FM-15+0787KPMD V0203005N004652200059N0160935N5+01335+00005102165ADDAA101000095GA1005+999999999GD10991+9999999GF100991999999999999999999MA1102205093035REMMET09001/04/22 16:53:01 METAR KPMD 050053Z 30009KT 10SM CLR 13/00 A3018 RMK AO2 SLP216 T01330000
0185723820231822022010501537+34629-118083FM-15+0787KPMD V0202905N005752200059N0160935N5+01115+00065102195ADDAA101000095GA1005+999999999GD10991+9999999GF100991999999999999999999MA1102245093065REMMET09001/04/22 17:53:01 METAR KPMD 050153Z 29011KT 10SM CLR 11/01 A3019 RMK AO2 SLP219 T01110006
0205723820231822022010502537+34629-118083FM-15+0787KPMD V0202905N006252200059N0160935N5+01005+00175102225ADDAA101000095GA1005+999999999GD10991+9999999GF100991999999999999999999MA1102245093065MD1390059+9999REMMET09601/04/22 18:53:01 METAR KPMD 050253Z 29012KT 10SM CLR 10/02 A3019 RMK AO2 SLP222 T01000017 53005
0185723820231822022010503537+34629-118083FM-15+0787KPMD V0202605N005752200059N0160935N5+00895+00175102265ADDAA101000095GA1005+999999999GD10991+9999999GF100991999999999999999999MA1102275093095REMMET09001/04/22 19:53:02 METAR KPMD 050353Z 26011KT 10SM CLR 09/02 A3020 RMK AO2 SLP226 T00890017
0185723820231822022010504537+34629-118083FM-15+0787KPMD V0202805N002152200059N0160935N5+00895+00115102325ADDAA101000095GA1005+999999999GD10991+9999999GF100991999999999999999999MA1102345093155REMMET09001/04/22 20:53:02 METAR KPMD 050453Z 28004KT 10SM CLR 09/01 A3022 RMK AO2 SLP232 T00890011
0230723820231822022010505537+34629-118083FM-15+0787KPMD V0209999N999992200059N0160935N5+00675+00285102375ADDAA101000095GA1005+999999999GD10991+9999999GF100991999999999999999999KA1060M+01561MA1102405093225MD1390149+9999REMMET10801/04/22 21:53:02 METAR KPMD 050553Z      KT 10SM CLR 07/03 A3024 RMK AO2 SLP237 T00670028 10156 20044 53014
0185723820231822022010506537+34629-118083FM-15+0787KPMD V0202505N004652200059N0160935N5+00675+00225102355ADDAA101000095GA1005+999999999GD10991+9999999GF100991999999999999999999MA1102405093225REMMET09001/04/22 22:53:02 METAR KPMD 050653Z 25009KT 10SM CLR 07/02 A3024 RMK AO2 SLP235 T00670022
0221723820231822022010507537+34629-118083FM-15+0787KPMD V0202205N003652200059N0160935N5+00675+00175102295ADDAA101000095GA1005+999999999GD10991+9999999GF100991999999999999999999KA1240M+01671KA2240N+00221MA1102345093155REMMET10001/04/22 23:53:02 METAR KPMD 050753Z 22007KT 10SM CLR 07/02 A3022 RMK AO2 SLP229 T00670017 401670022
0813723820231822022010507596+34629-118083SOD  +0787KPMD V020999999999999999999999999999+99999+99999999999ADDAA124000095KA1240M+01675KA2240N+00225MG1093144102134OE11240129627099995OE22240111827099995OE33240056399999995REMSOD69224 HR PRECIPITATION (IN): 0.00 24 HR MAX TEMP (F): 6224 HR MIN TEMP (F): 36AVERAGE STATION PRESSURE:27.505 MINIMUM SEA LEVEL PRESSURE:30.16 TIME OF OCCURRENCE:1629 PEAK WIND SPEED (MPH): 29 PEAK WIND DIR (DEG):270 PEAK WIND TIME (LST):      FASTEST 2MIN SPEED (MPH): 25FASTEST 2MIN DIR (DEG):270 FASTEST 2MIN TIME (LST):     AVERAGE WIND SPEED (MPH):12.6 24 HR AVG TEMP (F): 49DEPART FROM NORMAL:  4  HEATING DEGREE DAYS: 16 COOLING DEGREE DAYS:  0 LATEST DAY MAX TEMP (0700-1900 LST):62  LATEST NIGHT MIN TEMP(1900-0800 LST):35 HOURLY INCREMENTAL PRECIPITATION VALUES (IN):.00 0.00 0.00 0.00 0.00 0.00 0.00 0.00 0.00 0.00 0.00 0.00 0.00 0.00 0.00 0.00 0.00 0.00 0.00 0.00 0.00 0.00 0.00 0.00
0205723820231822022010508537+34629-118083FM-15+0787KPMD V0202105N002152200059N0160935N5+00395+00065102255ADDAA101000095GA1005+999999999GD10991+9999999GF100991999999999999999999MA1102305093125MD1890109+9999REMMET09601/05/22 00:53:02 METAR KPMD 050853Z 21004KT 10SM CLR 04/01 A3021 RMK AO2 SLP225 T00390006 58010
0185723820231822022010509537+34629-118083FM-15+0787KPMD V0202205N002652200059N0160935N5+00335+00065102225ADDAA101000095GA1005+999999999GD10991+9999999GF100991999999999999999999MA1102275093095REMMET09001/05/22 01:53:02 METAR KPMD 050953Z 22005KT 10SM CLR 03/01 A3020 RMK AO2 SLP222 T00330006
0185723820231822022010510537+34629-118083FM-15+0787KPMD V0201905N002152200059N0160935N5+00335+00005102235ADDAA101000095GA1005+999999999GD10991+9999999GF100991999999999999999999MA1102275093095REMMET09001/05/22 02:53:02 METAR KPMD 051053Z 19004KT 10SM CLR 03/00 A3020 RMK AO2 SLP223 T00330000
0244723820231822022010511537+34629-118083FM-15+0787KPMD V0202205N002652200059N0160935N5+00225-00065102215ADDAA101000095GA1005+999999999GD10991+9999999GF100991999999999999999999KA1060M+00891KA2060N+00221MA1102245093065MD1890059+9999REMMET10901/05/22 03:53:02 METAR KPMD 051153Z 22005KT 10SM CLR 02/M01 A3019 RMK AO2 SLP221 T00221006 10089 20022 58005
0185723820231822022010512537+34629-118083FM-15+0787KPMD V0202405N003652200059N0160935N5+00335+00005102205ADDAA101000095GA1005+999999999GD10991+9999999GF100991999999999999999999MA1102205093035REMMET09001/05/22 04:53:02 METAR KPMD 051253Z 24007KT 10SM CLR 03/00 A3018 RMK AO2 SLP220 T00330000
0185723820231822022010513537+34629-118083FM-15+0787KPMD V0202805N001552200059N0160935N5+00445+00065102255ADDAA101000095GA1005+999999999GD10991+9999999GF100991999999999999999999MA1102275093095REMMET09001/05/22 05:53:02 METAR KPMD 051353Z 28003KT 10SM CLR 04/01 A3020 RMK AO2 SLP225 T00440006
0211723820231822022010514537+34629-118083FM-15+0787KPMD V0201805N002152200059N0160935N5+00065-00115102295ADDAA101000095GA1005+999999999GD10991+9999999GF100991999999999999999999MA1102275093095MD1390029+9999REMMET10201/05/22 06:53:02 METAR KPMD 051453Z 18004KT 10SM CLR 01/M01 A3020 RMK AO2 SLP229 T00061011 53002 (EC)
0190723820231822022010515537+34629-118083FM-15+0787KPMD V0202205N003152200059N0160935N5+00395+00065102335ADDAA101000095GA1005+999999999GD10991+9999999GF100991999999999999999999MA1102305093125REMMET09501/05/22 07:53:02 METAR KPMD 051553Z 22006KT 10SM CLR 04/01 A3021 RMK AO2 SLP233 T00390006 (EC)
0190723820231822022010516537+34629-118083FM-15+0787KPMD V0209999C000052200059N0160935N5+00565+00225102415ADDAA101000095GA1005+999999999GD10991+9999999GF100991999999999999999999MA1102405093225REMMET09501/05/22 08:53:02 METAR KPMD 051653Z 00000KT 10SM CLR 06/02 A3024 RMK AO2 SLP241 T00560022 (EC)
0248723820231822022010517537+34629-118083FM-15+0787KPMD V0202905N002152200059N0160935N5+00945+00395102425ADDAA101000095GA1005+999999999GD10991+9999999GF100991999999999999999999KA1060M+00941KA2060N+00061MA1102445093255MD1190169+9999REMMET11301/05/22 09:53:02 METAR KPMD 051753Z 29004KT 10SM CLR 09/04 A3025 RMK AO2 SLP242 T00940039 10094 20006 51016 (EC)
0190723820231822022010518537+34629-118083FM-15+0787KPMD V0209999C000052200059N0160935N5+01115+00335102375ADDAA101000095GA1005+999999999GD10991+9999999GF100991999999999999999999MA1102405093225REMMET09501/05/22 10:53:02 METAR KPMD 051853Z 00000KT 10SM CLR 11/03 A3024 RMK AO2 SLP237 T01110033 (EC)
0190723820231822022010519537+34629-118083FM-15+0787KPMD V0203205N001552200059N0160935N5+01225+00285102225ADDAA101000095GA1005+999999999GD10991+9999999GF100991999999999999999999MA1102245093065REMMET09501/05/22 11:53:02 METAR KPMD 051953Z 32003KT 10SM CLR 12/03 A3019 RMK AO2 SLP222 T01220028 (EC)
0210723820231822022010520537+34629-118083FM-15+0787KPMD V0200605N002152200059N0160935N5+01445+00285102105ADDAA101000095GA1005+999999999GD10991+9999999GF100991999999999999999999MA1102135092965MD1890279+9999REMMET10101/05/22 12:53:02 METAR KPMD 052053Z 06004KT 10SM CLR 14/03 A3016 RMK AO2 SLP210 T01440028 58027 (EC)
0190723820231822022010521537+34629-118083FM-15+0787KPMD V0200605N002652200059N0160935N5+01505+00225102035ADDAA101000095GA1005+999999999GD10991+9999999GF100991999999999999999999MA1102075092905REMMET09501/05/22 13:53:02 METAR KPMD 052153Z 06005KT 10SM CLR 15/02 A3014 RMK AO2 SLP203 T01500022 (EC)
0190723820231822022010522537+34629-118083FM-15+0787KPMD V0200305N002652200059N0160935N5+01565+00175102005ADDAA101000095GA1005+999999999GD10991+9999999GF100991999999999999999999MA1102035092875REMMET09501/05/22 14:53:02 METAR KPMD 052253Z 03005KT 10SM CLR 16/02 A3013 RMK AO2 SLP200 T01560017 (EC)
0243723820231822022010523537+34629-118083FM-15+0787KPMD V0200205N003152200059N0160935N5+01565+00065102005ADDAA101000095GA1005+999999999GD10991+9999999GF100991999999999999999999KA1060M+01561KA2060N+01001MA1102035092875MD1690109+9999REMMET10801/05/22 15:53:02 METAR KPMD 052353Z 02006KT 10SM CLR 16/01 A3013 RMK AO2 SLP200 T01560006 10156 20100 56010
0185723820231822022010600537+34629-118083FM-15+0787KPMD V0200305N002152200059N0160935N5+01335+00005102015ADDAA101000095GA1005+999999999GD10991+9999999GF100991999999999999999999MA1102035092875REMMET09001/05/22 16:53:01 METAR KPMD 060053Z 03004KT 10SM CLR 13/00 A3013 RMK AO2 SLP201 T01330000
0185723820231822022010601537+34629-118083FM-15+0787KPMD V0200505N001552200059N0160935N5+00945+00065102075ADDAA101000095GA1005+999999999GD10991+9999999GF100991999999999999999999MA1102075092905REMMET09001/05/22 17:53:01 METAR KPMD 060153Z 05003KT 10SM CLR 09/01 A3014 RMK AO2 SLP207 T00940006
0205723820231822022010602537+34629-118083FM-15+0787KPMD V0202705N002652200059N0160935N5+00725+00175102175ADDAA101000095GA1005+999999999GD10991+9999999GF100991999999999999999999MA1102105092935MD1390079+9999REMMET09601/05/22 18:53:01 METAR KPMD 060253Z 27005KT 10SM CLR 07/02 A3015 RMK AO2 SLP217 T00720017 53007
0185723820231822022010603537+34629-118083FM-15+0787KPMD V0201905N001552200059N0160935N5+00565+00225102135ADDAA101000095GA1005+999999999GD10991+9999999GF100991999999999999999999MA1102105092935REMMET09001/05/22 19:53:01 METAR KPMD 060353Z 19003KT 10SM CLR 06/02 A3015 RMK AO2 SLP213 T00560022
0185723820231822022010604537+34629-118083FM-15+0787KPMD V0201905N003152200059N0160935N5+00445+00175102135ADDAA101000095GA1005+999999999GD10991+9999999GF100991999999999999999999MA1102105092935REMMET09001/05/22 20:53:02 METAR KPMD 060453Z 19006KT 10SM CLR 04/02 A3015 RMK AO2 SLP213 T00440017
0243723820231822022010605537+34629-118083FM-15+0787KPMD V0201905N003652200059N0160935N5+00445+00225102115ADDAA101000095GA1005+999999999GD10991+9999999GF100991999999999999999999KA1060M+01561KA2060N+00391MA1102105092935MD1390019+9999REMMET10801/05/22 21:53:02 METAR KPMD 060553Z 19007KT 10SM CLR 04/02 A3015 RMK AO2 SLP211 T00440022 10156 20039 53001
0185723820231822022010606537+34629-118083FM-15+0787KPMD V0202005N002152200059N0160935N5+00335+00115102085ADDAA101000095GA1005+999999999GD10991+9999999GF100991999999999999999999MA1102105092935REMMET09001/05/22 22:53:02 METAR KPMD 060653Z 20004KT 10SM CLR 03/01 A3015 RMK AO2 SLP208 T00330011
0221723820231822022010607537+34629-118083FM-15+0787KPMD V0202205N001552200059N0160935N5+00335+00115102045ADDAA101000095GA1005+999999999GD10991+9999999GF100991999999999999999999KA1240M+01561KA2240N+00061MA1102075092905REMMET10001/05/22 23:53:02 METAR KPMD 060753Z 22003KT 10SM CLR 03/01 A3014 RMK AO2 SLP204 T00330011 401560006
0813723820231822022010607596+34629-118083SOD  +0787KPMD V020999999999999999999999999999+99999+99999999999ADDAA124000095KA1240M+01565KA2240N+00065MG1093014102004OE11240049202099995OE22240040219099995OE33240021599999995REMSOD69224 HR PRECIPITATION (IN): 0.00 24 HR MAX TEMP (F): 6024 HR MIN TEMP (F): 33AVERAGE STATION PRESSURE:27.465 MINIMUM SEA LEVEL PRESSURE:30.12 TIME OF OCCURRENCE:1656 PEAK WIND SPEED (MPH): 11 PEAK WIND DIR (DEG): 20 PEAK WIND TIME (LST):      FASTEST 2MIN SPEED (MPH):  9FASTEST 2MIN DIR (DEG):190 FASTEST 2MIN TIME (LST):     AVERAGE WIND SPEED (MPH): 4.8 24 HR AVG TEMP (F): 47DEPART FROM NORMAL:  2  HEATING DEGREE DAYS: 18 COOLING DEGREE DAYS:  0 LATEST DAY MAX TEMP (0700-1900 LST):60  LATEST NIGHT MIN TEMP(1900-0800 LST):33 HOURLY INCREMENTAL PRECIPITATION VALUES (IN):.00 0.00 0.00 0.00 0.00 0.00 0.00 0.00 0.00 0.00 0.00 0.00 0.00 0.00 0.00 0.00 0.00 0.00 0.00 0.00 0.00 0.00 0.00 0.00
0205723820231822022010608537+34629-118083FM-15+0787KPMD V0202305N001552200059N0160935N5+00285+00115102005ADDAA101000095GA1005+999999999GD10991+9999999GF100991999999999999999999MA1102035092875MD1890089+9999REMMET09601/06/22 00:53:02 METAR KPMD 060853Z 23003KT 10SM CLR 03/01 A3013 RMK AO2 SLP200 T00280011 58008
0185723820231822022010609537+34629-118083FM-15+0787KPMD V0202005N001552200059N0160935N5+00445+00115101965ADDAA101000095GA1005+999999999GD10991+9999999GF100991999999999999999999MA1102005092845REMMET09001/06/22 01:53:02 METAR KPMD 060953Z 20003KT 10SM CLR 04/01 A3012 RMK AO2 SLP196 T00440011
0185723820231822022010610537+34629-118083FM-15+0787KPMD V0201605N001552200059N0160935N5+00225+00005101935ADDAA101000095GA1005+999999999GD10991+9999999GF100991999999999999999999MA1101965092815REMMET09001/06/22 02:53:02 METAR KPMD 061053Z 16003KT 10SM CLR 02/00 A3011 RMK AO2 SLP193 T00220000
0243723820231822022010611537+34629-118083FM-15+0787KPMD V0202905N002652200059N0160935N5+00285+00065101915ADDAA101000095GA1005+999999999GD10991+9999999GF100991999999999999999999KA1060M+00501KA2060N+00171MA1101965092815MD1690079+9999REMMET10801/06/22 03:53:02 METAR KPMD 061153Z 29005KT 10SM CLR 03/01 A3011 RMK AO2 SLP191 T00280006 10050 20017 56007
0185723820231822022010612537+34629-118083FM-15+0787KPMD V0201505N002152200059N0160935N5+00175+00065101975ADDAA101000095GA1005+999999999GD10991+9999999GF100991999999999999999999MA1102005092845REMMET09001/06/22 04:53:02 METAR KPMD 061253Z 15004KT 10SM CLR 02/01 A3012 RMK AO2 SLP197 T00170006
0190723820231822022010613537+34629-118083FM-15+0787KPMD V0202605N001552200059N0160935N5+00175+00005102015ADDAA101000095GA1005+999999999GD10991+9999999GF100991999999999999999999MA1102005092845REMMET09501/06/22 05:53:02 METAR KPMD 061353Z 26003KT 10SM CLR 02/00 A3012 RMK AO2 SLP201 T00170000 (DG)
0210723820231822022010614537+34629-118083FM-15+0787KPMD V0209999C000052200059N0160935N5+00115+00005102065ADDAA101000095GA1005+999999999GD10991+9999999GF100991999999999999999999MA1102005092845MD1190059+9999REMMET10101/06/22 06:53:02 METAR KPMD 061453Z 00000KT 10SM CLR 01/00 A3012 RMK AO2 SLP206 T00110000 51005 (DG)
0190723820231822022010615537+34629-118083FM-15+0787KPMD V0203405N002652200059N0160935N5+00285+00065102035ADDAA101000095GA1005+999999999GD10991+9999999GF100991999999999999999999MA1102005092845REMMET09501/06/22 07:53:02 METAR KPMD 061553Z 34005KT 10SM CLR 03/01 A3012 RMK AO2 SLP203 T00280006 (DG)
0190723820231822022010616537+34629-118083FM-15+0787KPMD V0209999C000052200059N0160935N5+00565+00285102055ADDAA101000095GA1005+999999999GD10991+9999999GF100991999999999999999999MA1102035092875REMMET09501/06/22 08:53:02 METAR KPMD 061653Z 00000KT 10SM CLR 06/03 A3013 RMK AO2 SLP205 T00560028 (DG)
0248723820231822022010617537+34629-118083FM-15+0787KPMD V0209999C000052200059N0160935N5+00895+00395102045ADDAA101000095GA1005+999999999GD10991+9999999GF100991999999999999999999KA1060M+00891KA2060N+00061MA1102035092875MD1390039+9999REMMET11301/06/22 09:53:02 METAR KPMD 061753Z 00000KT 10SM CLR 09/04 A3013 RMK AO2 SLP204 T00890039 10089 20006 53003 (DG)
0190723820231822022010618537+34629-118083FM-15+0787KPMD V0209999C000052200059N0160935N5+01175+00445101935ADDAA101000095GA1005+999999999GD10991+9999999GF100991999999999999999999MA1101935092785REMMET09501/06/22 10:53:02 METAR KPMD 061853Z 00000KT 10SM CLR 12/04 A3010 RMK AO2 SLP193 T01170044 (DG)
0190723820231822022010619537+34629-118083FM-15+0787KPMD V0203605N002152200059N0160935N5+01395+00445101795ADDAA101000095GA1005+999999999GD10991+9999999GF100991999999999999999999MA1101835092685REMMET09501/06/22 11:53:02 METAR KPMD 061953Z 36004KT 10SM CLR 14/04 A3007 RMK AO2 SLP179 T01390044 (DG)
0210723820231822022010620537+34629-118083FM-15+0787KPMD V0209999C000052200059N0160935N5+01565+00175101655ADDAA101000095GA1005+999999999GD10991+9999999GF100991999999999999999999MA1101695092565MD1890329+9999REMMET10101/06/22 12:53:02 METAR KPMD 062053Z 00000KT 10SM CLR 16/02 A3003 RMK AO2 SLP165 T01560017 58032 (DG)
0190723820231822022010621537+34629-118083FM-15+0787KPMD V0209999C000052200059N0160935N5+01675+00285101515ADDAA101000095GA1005+999999999GD10991+9999999GF100991999999999999999999MA1101565092435REMMET09501/06/22 13:53:02 METAR KPMD 062153Z 00000KT 10SM CLR 17/03 A2999 RMK AO2 SLP151 T01670028 (DG)
0185723820231822022010622537+34629-118083FM-15+0787KPMD V0209999C000052200059N0160935N5+01675+00225101465ADDAA101000095GA1005+999999999GD10991+9999999GF100991999999999999999999MA1101495092375REMMET09001/06/22 14:53:02 METAR KPMD 062253Z 00000KT 10SM CLR 17/02 A2997 RMK AO2 SLP146 T01670022
0248723820231822022010623537+34629-118083FM-15+0787KPMD V0209999C000052200059N0160935N5+01785+00115101415ADDAA101000095GA1005+999999999GD10991+9999999GF100991999999999999999999KA1060M+01781KA2060N+00831MA1101465092345MD1690209+9999REMMET11301/06/22 15:53:02 METAR KPMD 062353Z 00000KT 10SM CLR 18/01 A2996 RMK AO2 SLP141 T01780011 10178 20083 56020 (EC)
0185723820231822022010700537+34629-118083FM-15+0787KPMD V0209999C000052200059N0160935N5+01505+00225101415ADDAA101000095GA1005+999999999GD10991+9999999GF100991999999999999999999MA1101425092315REMMET09001/06/22 16:53:01 METAR KPMD 070053Z 00000KT 10SM CLR 15/02 A2995 RMK AO2 SLP141 T01500022
0185723820231822022010701537+34629-118083FM-15+0787KPMD V0209999C000052200059N0160935N5+01335+00175101435ADDAA101000095GA1005+999999999GD10991+9999999GF100991999999999999999999MA1101465092345REMMET09001/06/22 17:53:01 METAR KPMD 070153Z 00000KT 10SM CLR 13/02 A2996 RMK AO2 SLP143 T01330017
0205723820231822022010702537+34629-118083FM-15+0787KPMD V0202005N002152200059N0160935N5+00895+00335101455ADDAA101000095GA1005+999999999GD10991+9999999GF100991999999999999999999MA1101425092315MD1690059+9999REMMET09601/06/22 18:53:01 METAR KPMD 070253Z 20004KT 10SM CLR 09/03 A2995 RMK AO2 SLP145 T00890033 56005
0185723820231822022010703537+34629-118083FM-15+0787KPMD V0209999C000052200059N0160935N5+00675+00335101465ADDAA101000095GA1005+999999999GD10991+9999999GF100991999999999999999999MA1101425092315REMMET09001/06/22 19:53:01 METAR KPMD 070353Z 00000KT 10SM CLR 07/03 A2995 RMK AO2 SLP146 T00670033
0185723820231822022010704537+34629-118083FM-15+0787KPMD V0202905N002152200059N0160935N5+00725+00335101435ADDAA101000095GA1005+999999999GD10991+9999999GF100991999999999999999999MA1101425092315REMMET09001/06/22 20:53:02 METAR KPMD 070453Z 29004KT 10SM CLR 07/03 A2995 RMK AO2 SLP143 T00720033
0243723820231822022010705537+34629-118083FM-15+0787KPMD V0209999C000052200059N0160935N5+00895+00335101415ADDAA101000095GA1005+999999999GD10991+9999999GF100991999999999999999999KA1060M+01781KA2060N+00611MA1101465092345MD1390029+9999REMMET10801/06/22 21:53:02 METAR KPMD 070553Z 00000KT 10SM CLR 09/03 A2996 RMK AO2 SLP141 T00890033 10178 20061 53002
0185723820231822022010706537+34629-118083FM-15+0787KPMD V0201705N001552200059N0160935N5+00505+00225101395ADDAA101000095GA1005+999999999GD10991+9999999GF100991999999999999999999MA1101425092315REMMET09001/06/22 22:53:02 METAR KPMD 070653Z 17003KT 10SM CLR 05/02 A2995 RMK AO2 SLP139 T00500022
0221723820231822022010707537+34629-118083FM-15+0787KPMD V0201805N002152200059N0160935N5+00565+00225101335ADDAA101000095GA1005+999999999GD10991+9999999GF100991999999999999999999KA1240M+01781KA2240N+00061MA1101395092275REMMET10001/06/22 23:53:02 METAR KPMD 070753Z 18004KT 10SM CLR 06/02 A2994 RMK AO2 SLP133 T00560022 401780006
0813723820231822022010707596+34629-118083SOD  +0787KPMD V020999999999999999999999999999+99999+99999999999ADDAA124000095KA1240M+01785KA2240N+00065MG1092574101324OE11240040218099995OE22240035828099995OE33240009899999995REMSOD69224 HR PRECIPITATION (IN): 0.00 24 HR MAX TEMP (F): 6424 HR MIN TEMP (F): 33AVERAGE STATION PRESSURE:27.335 MINIMUM SEA LEVEL PRESSURE:29.92 TIME OF OCCURRENCE:2359 PEAK WIND SPEED (MPH):  9 PEAK WIND DIR (DEG):180 PEAK WIND TIME (LST):      FASTEST 2MIN SPEED (MPH):  8FASTEST 2MIN DIR (DEG):280 FASTEST 2MIN TIME (LST):     AVERAGE WIND SPEED (MPH): 2.2 24 HR AVG TEMP (F): 49DEPART FROM NORMAL:  4  HEATING DEGREE DAYS: 16 COOLING DEGREE DAYS:  0 LATEST DAY MAX TEMP (0700-1900 LST):64  LATEST NIGHT MIN TEMP(1900-0800 LST):33 HOURLY INCREMENTAL PRECIPITATION VALUES (IN):.00 0.00 0.00 0.00 0.00 0.00 0.00 0.00 0.00 0.00 0.00 0.00 0.00 0.00 0.00 0.00 0.00 0.00 0.00 0.00 0.00 0.00 0.00 0.00
0205723820231822022010708537+34629-118083FM-15+0787KPMD V0209999C000052200059N0160935N5+00615+00225101275ADDAA101000095GA1005+999999999GD10991+9999999GF100991999999999999999999MA1101355092245MD1890099+9999REMMET09601/07/22 00:53:02 METAR KPMD 070853Z 00000KT 10SM CLR 06/02 A2993 RMK AO2 SLP127 T00610022 58009
0185723820231822022010709537+34629-118083FM-15+0787KPMD V0209999V001552200059N0160935N5+00675+00225101245ADDAA101000095GA1005+999999999GD10991+9999999GF100991999999999999999999MA1101325092215REMMET09001/07/22 01:53:02 METAR KPMD 070953Z VRB03KT 10SM CLR 07/02 A2992 RMK AO2 SLP124 T00670022
0185723820231822022010710537+34629-118083FM-15+0787KPMD V0209999C000052200059N0160935N5+00675+00115101205ADDAA101000095GA1005+999999999GD10991+9999999GF100991999999999999999999MA1101295092185REMMET09001/07/22 02:53:02 METAR KPMD 071053Z 00000KT 10SM CLR 07/01 A2991 RMK AO2 SLP120 T00670011
0244723820231822022010711537+34629-118083FM-15+0787KPMD V0203105N001552200059N0160935N5+00615-00065101155ADDAA101000095GA1005+999999999GD10991+9999999GF100991999999999999999999KA1060M+00891KA2060N+00501MA1101255092155MD1890099+9999REMMET10901/07/22 03:53:02 METAR KPMD 071153Z 31003KT 10SM CLR 06/M01 A2990 RMK AO2 SLP115 T00611006 10089 20050 58009
0186723820231822022010712537+34629-118083FM-15+0787KPMD V0209999C000052200059N0160935N5+00835-00115101165ADDAA101000095GA1005+999999999GD10991+9999999GF100991999999999999999999MA1101255092155REMMET09101/07/22 04:53:02 METAR KPMD 071253Z 00000KT 10SM CLR 08/M01 A2990 RMK AO2 SLP116 T00831011
0191723820231822022010713537+34629-118083FM-15+0787KPMD V0202205N006252200059N0160935N5+01225-00175101175ADDAA101000095GA1005+999999999GD10991+9999999GF100991999999999999999999MA1101295092185REMMET09601/07/22 05:53:02 METAR KPMD 071353Z 22012KT 10SM CLR 12/M02 A2991 RMK AO2 SLP117 T01221017 (DG)
0211723820231822022010714537+34629-118083FM-15+0787KPMD V0202405N005752200059N0160935N5+01225-00225101215ADDAA101000095GA1005+999999999GD10991+9999999GF100991999999999999999999MA1101295092185MD1190039+9999REMMET10201/07/22 06:53:02 METAR KPMD 071453Z 24011KT 10SM CLR 12/M02 A2991 RMK AO2 SLP121 T01221022 51003 (DG)
0191723820231822022010715537+34629-118083FM-15+0787KPMD V0203305N002652200059N0160935N5+01005-00065101255ADDAA101000095GA1005+999999999GD10991+9999999GF100991999999999999999999MA1101295092185REMMET09601/07/22 07:53:02 METAR KPMD 071553Z 33005KT 10SM CLR 10/M01 A2991 RMK AO2 SLP125 T01001006 (DG)
0190723820231822022010716537+34629-118083FM-15+0787KPMD V0202405N005152200059N0160935N5+01505+00005101265ADDAA101000095GA1005+999999999GD10991+9999999GF100991999999999999999999MA1101325092215REMMET09501/07/22 08:53:02 METAR KPMD 071653Z 24010KT 10SM CLR 15/00 A2992 RMK AO2 SLP126 T01500000 (DG)
0249723820231822022010717537+34629-118083FM-15+0787KPMD V0202205N007252200059N0160935N5+01835-00115101215ADDAA101000095GA1005+999999999GD10991+9999999GF100991999999999999999999KA1060M+01831KA2060N+00561MA1101325092215MD1090059+9999REMMET11401/07/22 09:53:02 METAR KPMD 071753Z 22014KT 10SM CLR 18/M01 A2992 RMK AO2 SLP121 T01831011 10183 20056 50005 (DG)
0191723820231822022010718537+34629-118083FM-15+0787KPMD V0202105N006752200059N0160935N5+01945-00285101195ADDAA101000095GA1005+999999999GD10991+9999999GF100991999999999999999999MA1101295092185REMMET09601/07/22 10:53:02 METAR KPMD 071853Z 21013KT 10SM CLR 19/M03 A2991 RMK AO2 SLP119 T01941028 (DG)
0202723820231822022010719537+34629-118083FM-15+0787KPMD V0202305N008852200059N0160935N5+01945-00395101105ADDAA101000095GA1005+999999999GD10991+9999999GF100991999999999999999999MA1101195092095OC101135REMMET09901/07/22 11:53:02 METAR KPMD 071953Z 23017G22KT 10SM CLR 19/M04 A2988 RMK AO2 SLP110 T01941039 (DG)
0211723820231822022010720537+34629-118083FM-15+0787KPMD V0202105N008252200059N0160935N5+01945-00445100995ADDAA101000095GA1005+999999999GD10991+9999999GF100991999999999999999999MA1101085091995MD1890219+9999REMMET10201/07/22 12:53:02 METAR KPMD 072053Z 21016KT 10SM CLR 19/M04 A2985 RMK AO2 SLP099 T01941044 58021 (DG)
0191723820231822022010721537+34629-118083FM-15+0787KPMD V0202205N008252200059N0160935N5+01835-00445100975ADDAA101000095GA1005+999999999GD10991+9999999GF100991999999999999999999MA1101085091995REMMET09601/07/22 13:53:02 METAR KPMD 072153Z 22016KT 10SM CLR 18/M04 A2985 RMK AO2 SLP097 T01831044 (DG)
0186723820231822022010722537+34629-118083FM-15+0787KPMD V0202205N006752200059N0160935N5+01785-00505100965ADDAA101000095GA1005+999999999GD10991+9999999GF100991999999999999999999MA1101055091965REMMET09101/07/22 14:53:02 METAR KPMD 072253Z 22013KT 10SM CLR 18/M05 A2984 RMK AO2 SLP096 T01781050
0243723820231822022010723537+34629-118083FM-15+0787KPMD V0202805N006252200059N0160935N5+01615+00115101025ADDAA101000095GA1005+999999999GD10991+9999999GF100991999999999999999999KA1060M+02001KA2060N+01611MA1101085091995MD1590009+9999REMMET10801/07/22 15:53:02 METAR KPMD 072353Z 28012KT 10SM CLR 16/01 A2985 RMK AO2 SLP102 T01610011 10200 20161 55000
0186723820231822022010800537+34629-118083FM-15+0787KPMD V0202405N005152200059N0160935N5+01395-00115101045ADDAA101000095GA1005+999999999GD10991+9999999GF100991999999999999999999MA1101125092025REMMET09101/07/22 16:53:01 METAR KPMD 080053Z 24010KT 10SM CLR 14/M01 A2986 RMK AO2 SLP104 T01391011
0186723820231822022010801537+34629-118083FM-15+0787KPMD V0202405N004652200059N0160935N5+01285-00065101025ADDAA101000095GA1005+999999999GD10991+9999999GF100991999999999999999999MA1101125092025REMMET09101/07/22 17:53:01 METAR KPMD 080153Z 24009KT 10SM CLR 13/M01 A2986 RMK AO2 SLP102 T01281006
0205723820231822022010802537+34629-118083FM-15+0787KPMD V0202205N003152200059N0160935N5+01175+00115101075ADDAA101000095GA1005+999999999GD10991+9999999GF100991999999999999999999MA1101155092055MD1390069+9999REMMET09601/07/22 18:53:01 METAR KPMD 080253Z 22006KT 10SM CLR 12/01 A2987 RMK AO2 SLP107 T01170011 53006
0186723820231822022010803537+34629-118083FM-15+0787KPMD V0202305N006252200059N0160935N5+01335-00065101065ADDAA101000095GA1005+999999999GD10991+9999999GF100991999999999999999999MA1101155092055REMMET09101/07/22 19:53:02 METAR KPMD 080353Z 23012KT 10SM CLR 13/M01 A2987 RMK AO2 SLP106 T01331006
0185723820231822022010804537+34629-118083FM-15+0787KPMD V0202905N007752200059N0160935N5+01225+00225101085ADDAA101000095GA1005+999999999GD10991+9999999GF100991999999999999999999MA1101195092095REMMET09001/07/22 20:53:02 METAR KPMD 080453Z 29015KT 10SM CLR 12/02 A2988 RMK AO2 SLP108 T01220022
0243723820231822022010805537+34629-118083FM-15+0787KPMD V0202405N006752200059N0160935N5+01115+00335101145ADDAA101000095GA1005+999999999GD10991+9999999GF100991999999999999999999KA1060M+01611KA2060N+01061MA1101295092185MD1390119+9999REMMET10801/07/22 21:53:02 METAR KPMD 080553Z 24013KT 10SM CLR 11/03 A2991 RMK AO2 SLP114 T01110033 10161 20106 53011
0185723820231822022010806537+34629-118083FM-15+0787KPMD V0202305N004652200059N0160935N5+01005+00175101125ADDAA101000095GA1005+999999999GD10991+9999999GF100991999999999999999999MA1101255092155REMMET09001/07/22 22:53:02 METAR KPMD 080653Z 23009KT 10SM CLR 10/02 A2990 RMK AO2 SLP112 T01000017
0221723820231822022010807537+34629-118083FM-15+0787KPMD V0202605N006752200059N0160935N5+01065+00445101145ADDAA101000095GA1005+999999999GD10991+9999999GF100991999999999999999999KA1240M+02001KA2240N+00501MA1101295092185REMMET10001/07/22 23:53:02 METAR KPMD 080753Z 26013KT 10SM CLR 11/04 A2991 RMK AO2 SLP114 T01060044 402000050
0813723820231822022010807596+34629-118083SOD  +0787KPMD V020999999999999999999999999999+99999+99999999999ADDAA124000095KA1240M+02005KA2240N+00505MG1092134100954OE11240129622099995OE22240102822099995OE33240049699999995REMSOD69224 HR PRECIPITATION (IN): 0.00 24 HR MAX TEMP (F): 6824 HR MIN TEMP (F): 41AVERAGE STATION PRESSURE:27.205 MINIMUM SEA LEVEL PRESSURE:29.81 TIME OF OCCURRENCE:1531 PEAK WIND SPEED (MPH): 29 PEAK WIND DIR (DEG):220 PEAK WIND TIME (LST):      FASTEST 2MIN SPEED (MPH): 23FASTEST 2MIN DIR (DEG):220 FASTEST 2MIN TIME (LST):     AVERAGE WIND SPEED (MPH):11.1 24 HR AVG TEMP (F): 55DEPART FROM NORMAL: 10  HEATING DEGREE DAYS: 10 COOLING DEGREE DAYS:  0 LATEST DAY MAX TEMP (0700-1900 LST):68  LATEST NIGHT MIN TEMP(1900-0800 LST):41 HOURLY INCREMENTAL PRECIPITATION VALUES (IN):.00 0.00 0.00 0.00 0.00 0.00 0.00 0.00 0.00 0.00 0.00 0.00 0.00 0.00 0.00 0.00 0.00 0.00 0.00 0.00 0.00 0.00 0.00 0.00
0205723820231822022010808537+34629-118083FM-15+0787KPMD V0202405N005152200059N0160935N5+00945+00445101195ADDAA101000095GA1005+999999999GD10991+9999999GF100991999999999999999999MA1101325092215MD1390049+9999REMMET09601/08/22 00:53:02 METAR KPMD 080853Z 24010KT 10SM CLR 09/04 A2992 RMK AO2 SLP119 T00940044 53004
0196723820231822022010809537+34629-118083FM-15+0787KPMD V0202705N006752200059N0160935N5+00945+00395101245ADDAA101000095GA1005+999999999GD10991+9999999GF100991999999999999999999MA1101355092245OC101035REMMET09301/08/22 01:53:02 METAR KPMD 080953Z 27013G20KT 10SM CLR 09/04 A2993 RMK AO2 SLP124 T00940039
0185723820231822022010810537+34629-118083FM-15+0787KPMD V0202605N009352200059N0160935N5+00835+00395101305ADDAA101000095GA1005+999999999GD10991+9999999GF100991999999999999999999MA1101425092315REMMET09001/08/22 02:53:02 METAR KPMD 081053Z 26018KT 10SM CLR 08/04 A2995 RMK AO2 SLP130 T00830039
0243723820231822022010811537+34629-118083FM-15+0787KPMD V0202605N007252200059N0160935N5+00785+00335101345ADDAA101000095GA1005+999999999GD10991+9999999GF100991999999999999999999KA1060M+01111KA2060N+00781MA1101425092315MD1190109+9999REMMET10801/08/22 03:53:02 METAR KPMD 081153Z 26014KT 10SM CLR 08/03 A2995 RMK AO2 SLP134 T00780033 10111 20078 51010
0185723820231822022010812537+34629-118083FM-15+0787KPMD V0202605N007752200059N0160935N5+00725+00285101455ADDAA101000095GA1005+999999999GD10991+9999999GF100991999999999999999999MA1101525092405REMMET09001/08/22 04:53:02 METAR KPMD 081253Z 26015KT 10SM CLR 07/03 A2998 RMK AO2 SLP145 T00720028
0185723820231822022010813537+34629-118083FM-15+0787KPMD V0202505N002152200059N0160935N5+00675+00175101575ADDAA101000095GA1005+999999999GD10991+9999999GF100991999999999999999999MA1101635092495REMMET09001/08/22 05:53:02 METAR KPMD 081353Z 25004KT 10SM CLR 07/02 A3001 RMK AO2 SLP157 T00670017
0205723820231822022010814537+34629-118083FM-15+0787KPMD V0202605N003152200059N0160935N5+00675+00175101645ADDAA101000095GA1005+999999999GD10991+9999999GF100991999999999999999999MA1101695092565MD1190239+9999REMMET09601/08/22 06:53:02 METAR KPMD 081453Z 26006KT 10SM CLR 07/02 A3003 RMK AO2 SLP164 T00670017 51023
0185723820231822022010815537+34629-118083FM-15+0787KPMD V0202805N005752200059N0160935N5+00725+00175101715ADDAA101000095GA1005+999999999GD10991+9999999GF100991999999999999999999MA1101765092625REMMET09001/08/22 07:53:02 METAR KPMD 081553Z 28011KT 10SM CLR 07/02 A3005 RMK AO2 SLP171 T00720017
0185723820231822022010816537+34629-118083FM-15+0787KPMD V0202705N003152200059N0160935N5+01005+00225101775ADDAA101000095GA1005+999999999GD10991+9999999GF100991999999999999999999MA1101835092685REMMET09001/08/22 08:53:02 METAR KPMD 081653Z 27006KT 10SM CLR 10/02 A3007 RMK AO2 SLP177 T01000022
0243723820231822022010817537+34629-118083FM-15+0787KPMD V0202605N001552200059N0160935N5+01065+00115101845ADDAA101000095GA1005+999999999GD10991+9999999GF100991999999999999999999KA1060M+01061KA2060N+00561MA1101905092745MD1190219+9999REMMET10801/08/22 09:53:02 METAR KPMD 081753Z 26003KT 10SM CLR 11/01 A3009 RMK AO2 SLP184 T01060011 10106 20056 51021
0185723820231822022010818537+34629-118083FM-15+0787KPMD V0203205N003152200059N0160935N5+01225+00115101845ADDAA101000095GA1005+999999999GD10991+9999999GF100991999999999999999999MA1101905092745REMMET09001/08/22 10:53:02 METAR KPMD 081853Z 32006KT 10SM CLR 12/01 A3009 RMK AO2 SLP184 T01220011
0185723820231822022010819537+34629-118083FM-15+0787KPMD V0200605N002152200059N0160935N5+01395+00005101775ADDAA101000095GA1005+999999999GD10991+9999999GF100991999999999999999999MA1101865092715REMMET09001/08/22 11:53:02 METAR KPMD 081953Z 06004KT 10SM CLR 14/00 A3008 RMK AO2 SLP177 T01390000
0205723820231822022010820537+34629-118083FM-15+0787KPMD V0200505N002152200059N0160935N5+01445+00005101725ADDAA101000095GA1005+999999999GD10991+9999999GF100991999999999999999999MA1101795092655MD1890109+9999REMMET09601/08/22 12:53:02 METAR KPMD 082053Z 05004KT 10SM CLR 14/00 A3006 RMK AO2 SLP172 T01440000 58010
0191723820231822022010821537+34629-118083FM-15+0787KPMD V0200205N004152200059N0160935N5+01505-00065101705ADDAA101000095GA1005+999999999GD10991+9999999GF100991999999999999999999MA1101795092655REMMET09601/08/22 13:53:02 METAR KPMD 082153Z 02008KT 10SM CLR 15/M01 A3006 RMK AO2 SLP170 T01501006 (AD)
0190723820231822022010822537+34629-118083FM-15+0787KPMD V0200605N004152200059N0160935N5+01565+00005101675ADDAA101000095GA1005+999999999GD10991+9999999GF100991999999999999999999MA1101765092625REMMET09501/08/22 14:53:02 METAR KPMD 082253Z 06008KT 10SM CLR 16/00 A3005 RMK AO2 SLP167 T01560000 (AD)
0249723820231822022010823537+34629-118083FM-15+0787KPMD V0200405N006252200059N0160935N5+01505-00175101725ADDAA101000095GA1005+999999999GD10991+9999999GF100991999999999999999999KA1060M+01561KA2060N+01111MA1101795092655MD1590019+9999REMMET11401/08/22 15:53:02 METAR KPMD 082353Z 04012KT 10SM CLR 15/M02 A3006 RMK AO2 SLP172 T01501017 10156 20111 55001 (AD)
0186723820231822022010900537+34629-118083FM-15+0787KPMD V0200705N004652200059N0160935N5+01115-00115101835ADDAA101000095GA1005+999999999GD10991+9999999GF100991999999999999999999MA1101865092715REMMET09101/08/22 16:53:01 METAR KPMD 090053Z 07009KT 10SM CLR 11/M01 A3008 RMK AO2 SLP183 T01111011
0186723820231822022010901537+34629-118083FM-15+0787KPMD V0200805N002652200059N0160935N5+00785-00065101965ADDAA101000095GA1005+999999999GD10991+9999999GF100991999999999999999999MA1101965092815REMMET09101/08/22 17:53:01 METAR KPMD 090153Z 08005KT 10SM CLR 08/M01 A3011 RMK AO2 SLP196 T00781006
0206723820231822022010902537+34629-118083FM-15+0787KPMD V0201105N003152200059N0160935N5+00675-00065102075ADDAA101000095GA1005+999999999GD10991+9999999GF100991999999999999999999MA1102075092905MD1390249+9999REMMET09701/08/22 18:53:01 METAR KPMD 090253Z 11006KT 10SM CLR 07/M01 A3014 RMK AO2 SLP207 T00671006 53024
0186723820231822022010903537+34629-118083FM-15+0787KPMD V0201105N002152200059N0160935N5+00445-00115102155ADDAA101000095GA1005+999999999GD10991+9999999GF100991999999999999999999MA1102135092965REMMET09101/08/22 19:53:02 METAR KPMD 090353Z 11004KT 10SM CLR 04/M01 A3016 RMK AO2 SLP215 T00441011
0186723820231822022010904537+34629-118083FM-15+0787KPMD V0201105N003652200059N0160935N5+00395-00115102215ADDAA101000095GA1005+999999999GD10991+9999999GF100991999999999999999999MA1102205093035REMMET09101/08/22 20:53:02 METAR KPMD 090453Z 11007KT 10SM CLR 04/M01 A3018 RMK AO2 SLP221 T00391011
0244723820231822022010905537+34629-118083FM-15+0787KPMD V0203405N001552200059N0160935N5+00335-00175102315ADDAA101000095GA1005+999999999GD10991+9999999GF100991999999999999999999KA1060M+01501KA2060N+00281MA1102305093125MD1390229+9999REMMET10901/08/22 21:53:02 METAR KPMD 090553Z 34003KT 10SM CLR 03/M02 A3021 RMK AO2 SLP231 T00331017 10150 20028 53022
0186723820231822022010906537+34629-118083FM-15+0787KPMD V0202705N001552200059N0160935N5+00285-00175102375ADDAA101000095GA1005+999999999GD10991+9999999GF100991999999999999999999MA1102375093185REMMET09101/08/22 22:53:02 METAR KPMD 090653Z 27003KT 10SM CLR 03/M02 A3023 RMK AO2 SLP237 T00281017
0222723820231822022010907537+34629-118083FM-15+0787KPMD V0202905N001552200059N0160935N5+00285-00175102395ADDAA101000095GA1005+999999999GD10991+9999999GF100991999999999999999999KA1240M+01561KA2240N+00221MA1102405093225REMMET10101/08/22 23:53:02 METAR KPMD 090753Z 29003KT 10SM CLR 03/M02 A3024 RMK AO2 SLP239 T00281017 401560022
0813723820231822022010907596+34629-118083SOD  +0787KPMD V020999999999999999999999999999+99999+99999999999ADDAA124000095KA1240M+01565KA2240N+00225MG1092704101154OE11240120727099995OE22240107328099995OE33240038999999995REMSOD69224 HR PRECIPITATION (IN): 0.00 24 HR MAX TEMP (F): 6024 HR MIN TEMP (F): 36AVERAGE STATION PRESSURE:27.375 MINIMUM SEA LEVEL PRESSURE:29.87 TIME OF OCCURRENCE:0043 PEAK WIND SPEED (MPH): 27 PEAK WIND DIR (DEG):270 PEAK WIND TIME (LST):      FASTEST 2MIN SPEED (MPH): 24FASTEST 2MIN DIR (DEG):280 FASTEST 2MIN TIME (LST):     AVERAGE WIND SPEED (MPH): 8.7 24 HR AVG TEMP (F): 48DEPART FROM NORMAL:  3  HEATING DEGREE DAYS: 17 COOLING DEGREE DAYS:  0 LATEST DAY MAX TEMP (0700-1900 LST):60  LATEST NIGHT MIN TEMP(1900-0800 LST):42 HOURLY INCREMENTAL PRECIPITATION VALUES (IN):.00 0.00 0.00 0.00 0.00 0.00 0.00 0.00 0.00 0.00 0.00 0.00 0.00 0.00 0.00 0.00 0.00 0.00 0.00 0.00 0.00 0.00 0.00 0.00
0206723820231822022010908537+34629-118083FM-15+0787KPMD V0202405N001552200059N0160935N5+00225-00175102425ADDAA101000095GA1005+999999999GD10991+9999999GF100991999999999999999999MA1102445093255MD1190129+9999REMMET09701/09/22 00:53:02 METAR KPMD 090853Z 24003KT 10SM CLR 02/M02 A3025 RMK AO2 SLP242 T00221017 51012
0186723820231822022010909537+34629-118083FM-15+0787KPMD V0209999C000052200059N0160935N5+00065-00225102475ADDAA101000095GA1005+999999999GD10991+9999999GF100991999999999999999999MA1102475093285REMMET09101/09/22 01:53:02 METAR KPMD 090953Z 00000KT 10SM CLR 01/M02 A3026 RMK AO2 SLP247 T00061022
0186723820231822022010910537+34629-118083FM-15+0787KPMD V0202605N001552200059N0160935N5+00005-00285102515ADDAA101000095GA1005+999999999GD10991+9999999GF100991999999999999999999MA1102515093315REMMET09101/09/22 02:53:02 METAR KPMD 091053Z 26003KT 10SM CLR 00/M03 A3027 RMK AO2 SLP251 T00001028
0245723820231822022010911537+34629-118083FM-15+0787KPMD V0209999C000052200059N0160935N5-00065-00335102545ADDAA101000095GA1005+999999999GD10991+9999999GF100991999999999999999999KA1060M+00501KA2060N-00061MA1102545093345MD1190099+9999REMMET11001/09/22 03:53:02 METAR KPMD 091153Z 00000KT 10SM CLR M01/M03 A3028 RMK AO2 SLP254 T10061033 10050 21006 51009
0187723820231822022010912537+34629-118083FM-15+0787KPMD V0202005N002652200059N0160935N5-00065-00335102625ADDAA101000095GA1005+999999999GD10991+9999999GF100991999999999999999999MA1102575093375REMMET09201/09/22 04:53:02 METAR KPMD 091253Z 20005KT 10SM CLR M01/M03 A3029 RMK AO2 SLP262 T10061033
0187723820231822022010913537+34629-118083FM-15+0787KPMD V0209999C000052200059N0160935N5-00065-00335102745ADDAA101000095GA1005+999999999GD10991+9999999GF100991999999999999999999MA1102685093475REMMET09201/09/22 05:53:02 METAR KPMD 091353Z 00000KT 10SM CLR M01/M03 A3032 RMK AO2 SLP274 T10061033
0207723820231822022010914537+34629-118083FM-15+0787KPMD V0209999C000052200059N0160935N5-00175-00395102835ADDAA101000095GA1005+999999999GD10991+9999999GF100991999999999999999999MA1102745093535MD1390199+9999REMMET09801/09/22 06:53:02 METAR KPMD 091453Z 00000KT 10SM CLR M02/M04 A3034 RMK AO2 SLP283 T10171039 53019
0186723820231822022010915537+34629-118083FM-15+0787KPMD V0209999C000052200059N0160935N5+00115-00285102905ADDAA101000095GA1005+999999999GD10991+9999999GF100991999999999999999999MA1102815093595REMMET09101/09/22 07:53:02 METAR KPMD 091553Z 00000KT 10SM CLR 01/M03 A3036 RMK AO2 SLP290 T00111028
0186723820231822022010916537+34629-118083FM-15+0787KPMD V0209999C000052200059N0160935N5+00395-00175102975ADDAA101000095GA1005+999999999GD10991+9999999GF100991999999999999999999MA1102885093655REMMET09101/09/22 08:53:02 METAR KPMD 091653Z 00000KT 10SM CLR 04/M02 A3038 RMK AO2 SLP297 T00391017
0244723820231822022010917537+34629-118083FM-15+0787KPMD V0203405N002152200059N0160935N5+00725-00225102985ADDAA101000095GA1005+999999999GD10991+9999999GF100991999999999999999999KA1060M+00721KA2060N-00171MA1102955093725MD1190199+9999REMMET10901/09/22 09:53:02 METAR KPMD 091753Z 34004KT 10SM CLR 07/M02 A3040 RMK AO2 SLP298 T00721022 10072 21017 51019
0186723820231822022010918537+34629-118083FM-15+0787KPMD V0203405N002152200059N0160935N5+01005-00285102975ADDAA101000095GA1005+999999999GD10991+9999999GF100991999999999999999999MA1102955093725REMMET09101/09/22 10:53:02 METAR KPMD 091853Z 34004KT 10SM CLR 10/M03 A3040 RMK AO2 SLP297 T01001028
0191723820231822022010919537+34629-118083FM-15+0787KPMD V0200205N005752200059N0160935N5+01285-00225102865ADDAA101000095GA1005+999999999GD10991+9999999GF100991999999999999999999MA1102845093625REMMET09601/09/22 11:53:02 METAR KPMD 091953Z 02011KT 10SM CLR 13/M02 A3037 RMK AO2 SLP286 T01281022 (AD)
0222723820231822022010920537+34629-118083FM-15+0787KPMD V0200505N008252200059N0160935N5+01565-00615102755ADDAA101000095GA1005+999999999GD10991+9999999GF100991999999999999999999MA1102745093535MD1890169+9999OC101135REMMET10501/09/22 12:53:02 METAR KPMD 092053Z 05016G22KT 10SM CLR 16/M06 A3034 RMK AO2 SLP275 T01561061 58016 (AD)
0191723820231822022010921537+34629-118083FM-15+0787KPMD V0200405N006752200059N0160935N5+01565-00675102725ADDAA101000095GA1005+999999999GD10991+9999999GF100991999999999999999999MA1102715093505REMMET09601/09/22 13:53:02 METAR KPMD 092153Z 04013KT 10SM CLR 16/M07 A3033 RMK AO2 SLP272 T01561067 (AD)
0191723820231822022010922537+34629-118083FM-15+0787KPMD V0200505N006752200059N0160935N5+01615-00675102755ADDAA101000095GA1005+999999999GD10991+9999999GF100991999999999999999999MA1102745093535REMMET09601/09/22 14:53:02 METAR KPMD 092253Z 05013KT 10SM CLR 16/M07 A3034 RMK AO2 SLP275 T01611067 (AD)
0249723820231822022010923537+34629-118083FM-15+0787KPMD V0200505N006752200059N0160935N5+01565-00785102795ADDAA101000095GA1005+999999999GD10991+9999999GF100991999999999999999999KA1060M+01611KA2060N+00721MA1102785093565MD1390029+9999REMMET11401/09/22 15:53:02 METAR KPMD 092353Z 05013KT 10SM CLR 16/M08 A3035 RMK AO2 SLP279 T01561078 10161 20072 53002 (AD)
0186723820231822022011000537+34629-118083FM-15+0787KPMD V0200605N004152200059N0160935N5+01115-00675102875ADDAA101000095GA1005+999999999GD10991+9999999GF100991999999999999999999MA1102815093595REMMET09101/09/22 16:53:01 METAR KPMD 100053Z 06008KT 10SM CLR 11/M07 A3036 RMK AO2 SLP287 T01111067
0186723820231822022011001537+34629-118083FM-15+0787KPMD V0201205N002152200059N0160935N5+00835-00615102985ADDAA101000095GA1005+999999999GD10991+9999999GF100991999999999999999999MA1102915093695REMMET09101/09/22 17:53:01 METAR KPMD 100153Z 12004KT 10SM CLR 08/M06 A3039 RMK AO2 SLP298 T00831061
0206723820231822022011002537+34629-118083FM-15+0787KPMD V0203605N002652200059N0160935N5+00725-00565103085ADDAA101000095GA1005+999999999GD10991+9999999GF100991999999999999999999MA1102985093755MD1390189+9999REMMET09701/09/22 18:53:01 METAR KPMD 100253Z 36005KT 10SM CLR 07/M06 A3041 RMK AO2 SLP308 T00721056 53018
0186723820231822022011003537+34629-118083FM-15+0787KPMD V0203105N001552200059N0160935N5+00565-00505103155ADDAA101000095GA1005+999999999GD10991+9999999GF100991999999999999999999MA1103055093815REMMET09101/09/22 19:53:01 METAR KPMD 100353Z 31003KT 10SM CLR 06/M05 A3043 RMK AO2 SLP315 T00561050
0186723820231822022011004537+34629-118083FM-15+0787KPMD V0202805N002152200059N0160935N5+00445-00505103205ADDAA101000095GA1005+999999999GD10991+9999999GF100991999999999999999999MA1103125093875REMMET09101/09/22 20:53:02 METAR KPMD 100453Z 28004KT 10SM CLR 04/M05 A3045 RMK AO2 SLP320 T00441050
0244723820231822022011005537+34629-118083FM-15+0787KPMD V0202805N002152200059N0160935N5+00395-00445103195ADDAA101000095GA1005+999999999GD10991+9999999GF100991999999999999999999KA1060M+01561KA2060N+00331MA1103155093915MD1190159+9999REMMET10901/09/22 21:53:02 METAR KPMD 100553Z 28004KT 10SM CLR 04/M04 A3046 RMK AO2 SLP319 T00391044 10156 20033 51015
0186723820231822022011006537+34629-118083FM-15+0787KPMD V0202705N003152200059N0160935N5+00225-00445103215ADDAA101000095GA1005+999999999GD10991+9999999GF100991999999999999999999MA1103185093945REMMET09101/09/22 22:53:02 METAR KPMD 100653Z 27006KT 10SM CLR 02/M04 A3047 RMK AO2 SLP321 T00221044
0222723820231822022011007537+34629-118083FM-15+0787KPMD V0202805N003652200059N0160935N5+00175-00445103205ADDAA101000095GA1005+999999999GD10991+9999999GF100991999999999999999999KA1240M+01611KA2240N-00171MA1103185093945REMMET10101/09/22 23:53:02 METAR KPMD 100753Z 28007KT 10SM CLR 02/M04 A3047 RMK AO2 SLP320 T00171044 401611017
0813723820231822022011007596+34629-118083SOD  +0787KPMD V020999999999999999999999999999+99999+99999999999ADDAA124000095KA1240M+01615KA2240N-00165MG1093624102404OE11240120704099995OE22240098305099995OE33240026899999995REMSOD69224 HR PRECIPITATION (IN): 0.00 24 HR MAX TEMP (F): 6124 HR MIN TEMP (F): 29AVERAGE STATION PRESSURE:27.645 MINIMUM SEA LEVEL PRESSURE:30.24 TIME OF OCCURRENCE:0051 PEAK WIND SPEED (MPH): 27 PEAK WIND DIR (DEG): 40 PEAK WIND TIME (LST):      FASTEST 2MIN SPEED (MPH): 22FASTEST 2MIN DIR (DEG): 50 FASTEST 2MIN TIME (LST):     AVERAGE WIND SPEED (MPH): 6.0 24 HR AVG TEMP (F): 45DEPART FROM NORMAL:  0  HEATING DEGREE DAYS: 20 COOLING DEGREE DAYS:  0 LATEST DAY MAX TEMP (0700-1900 LST):61  LATEST NIGHT MIN TEMP(1900-0800 LST):29 HOURLY INCREMENTAL PRECIPITATION VALUES (IN):.00 0.00 0.00 0.00 0.00 0.00 0.00 0.00 0.00 0.00 0.00 0.00 0.00 0.00 0.00 0.00 0.00 0.00 0.00 0.00 0.00 0.00 0.00 0.00
0206723820231822022011008537+34629-118083FM-15+0787KPMD V0202605N001552200059N0160935N5+00225-00445103165ADDAA101000095GA1005+999999999GD10991+9999999GF100991999999999999999999MA1103185093945MD1090029+9999REMMET09701/10/22 00:53:02 METAR KPMD 100853Z 26003KT 10SM CLR 02/M04 A3047 RMK AO2 SLP316 T00221044 50002
0186723820231822022011009537+34629-118083FM-15+0787KPMD V0201205N002152200059N0160935N5+00005-00395103155ADDAA101000095GA1005+999999999GD10991+9999999GF100991999999999999999999MA1103155093915REMMET09101/10/22 01:53:02 METAR KPMD 100953Z 12004KT 10SM CLR 00/M04 A3046 RMK AO2 SLP315 T00001039
0186723820231822022011010537+34629-118083FM-15+0787KPMD V0202505N002152200059N0160935N5+00005-00395103145ADDAA101000095GA1005+999999999GD10991+9999999GF100991999999999999999999MA1103155093915REMMET09101/10/22 02:53:02 METAR KPMD 101053Z 25004KT 10SM CLR 00/M04 A3046 RMK AO2 SLP314 T00001039
0244723820231822022011011537+34629-118083FM-15+0787KPMD V0202805N002652200059N0160935N5+00175-00505103125ADDAA101000095GA1005+999999999GD10991+9999999GF100991999999999999999999KA1060M+00441KA2060N-00061MA1103125093875MD1690049+9999REMMET10901/10/22 03:53:02 METAR KPMD 101153Z 28005KT 10SM CLR 02/M05 A3045 RMK AO2 SLP312 T00171050 10044 21006 56004
0187723820231822022011012537+34629-118083FM-15+0787KPMD V0209999C000052200059N0160935N5-00065-00395103175ADDAA101000095GA1005+999999999GD10991+9999999GF100991999999999999999999MA1103125093875REMMET09201/10/22 04:53:02 METAR KPMD 101253Z 00000KT 10SM CLR M01/M04 A3045 RMK AO2 SLP317 T10061039
0191723820231822022011013537+34629-118083FM-15+0787KPMD V0209999C000052200059N0160935N5+00065-00445103245ADDAA101000095GA1005+999999999GD10991+9999999GF100991999999999999999999MA1103185093945REMMET09601/10/22 05:53:02 METAR KPMD 101353Z 00000KT 10SM CLR 01/M04 A3047 RMK AO2 SLP324 T00061044 (AD)
0211723820231822022011014537+34629-118083FM-15+0787KPMD V0209999C000052200059N0160935N5+00115-00445103275ADDAA101000095GA1005+999999999GD10991+9999999GF100991999999999999999999MA1103185093945MD1390069+9999REMMET10201/10/22 06:53:02 METAR KPMD 101453Z 00000KT 10SM CLR 01/M04 A3047 RMK AO2 SLP327 T00111044 53006 (AD)
0191723820231822022011015537+34629-118083FM-15+0787KPMD V0209999C000052200059N0160935N5+00065-00335103335ADDAA101000095GA1005+999999999GD10991+9999999GF100991999999999999999999MA1103255094005REMMET09601/10/22 07:53:02 METAR KPMD 101553Z 00000KT 10SM CLR 01/M03 A3049 RMK AO2 SLP333 T00061033 (AD)
0191723820231822022011016537+34629-118083FM-15+0787KPMD V0209999C000052200059N0160935N5+00335-00175103375ADDAA101000095GA1005+999999999GD10991+9999999GF100991999999999999999999MA1103285094035REMMET09601/10/22 08:53:02 METAR KPMD 101653Z 00000KT 10SM CLR 03/M02 A3050 RMK AO2 SLP337 T00331017 (AD)
0249723820231822022011017537+34629-118083FM-15+0787KPMD V0203305N001552200059N0160935N5+00615-00395103385ADDAA101000095GA1005+999999999GD10991+9999999GF100991999999999999999999KA1060M+00671KA2060N-00061MA1103325094065MD1190129+9999REMMET11401/10/22 09:53:02 METAR KPMD 101753Z 33003KT 10SM CLR 06/M04 A3051 RMK AO2 SLP338 T00611039 10067 21006 51012 (AD)
0191723820231822022011018537+34629-118083FM-15+0787KPMD V0200605N001552200059N0160935N5+00835-00445103325ADDAA101000095GA1005+999999999GD10991+9999999GF100991999999999999999999MA1103285094035REMMET09601/10/22 10:53:02 METAR KPMD 101853Z 06003KT 10SM CLR 08/M04 A3050 RMK AO2 SLP332 T00831044 (AD)
0191723820231822022011019537+34629-118083FM-15+0787KPMD V0200405N002152200059N0160935N5+01005-00395103185ADDAA101000095GA1005+999999999GD10991+9999999GF100991999999999999999999MA1103155093915REMMET09601/10/22 11:53:02 METAR KPMD 101953Z 04004KT 10SM CLR 10/M04 A3046 RMK AO2 SLP318 T01001039 (EC)
0211723820231822022011020537+34629-118083FM-15+0787KPMD V0200605N001552200059N0160935N5+01065-00335103055ADDAA101000095GA1005+999999999GD10991+9999999GF100991999999999999999999MA1103015093785MD1890279+9999REMMET10201/10/22 12:53:02 METAR KPMD 102053Z 06003KT 10SM CLR 11/M03 A3042 RMK AO2 SLP305 T01061033 58027 (EC)
0191723820231822022011021537+34629-118083FM-15+0787KPMD V0200405N003652200059N0160935N5+01285-00505102955ADDAA101000095GA1005+999999999GD10991+9999999GF100991999999999999999999MA1102915093695REMMET09601/10/22 13:53:02 METAR KPMD 102153Z 04007KT 10SM CLR 13/M05 A3039 RMK AO2 SLP295 T01281050 (EC)
0191723820231822022011022537+34629-118083FM-15+0787KPMD V0200605N004152200059N0160935N5+01335-00505102925ADDAA101000095GA1005+999999999GD10991+9999999GF100991999999999999999999MA1102885093655REMMET09601/10/22 14:53:02 METAR KPMD 102253Z 06008KT 10SM CLR 13/M05 A3038 RMK AO2 SLP292 T01331050 (EC)
0249723820231822022011023537+34629-118083FM-15+0787KPMD V0200505N004152200059N0160935N5+01395-00565102885ADDAA101000095GA1005+999999999GD10991+9999999GF100991999999999999999999KA1060M+01441KA2060N+00611MA1102885093655MD1690159+9999REMMET11401/10/22 15:53:02 METAR KPMD 102353Z 05008KT 10SM CLR 14/M06 A3038 RMK AO2 SLP288 T01391056 10144 20061 56015 (KC)
0186723820231822022011100537+34629-118083FM-15+0787KPMD V0200405N003152200059N0160935N5+01115-00505102915ADDAA101000095GA1005+999999999GD10991+9999999GF100991999999999999999999MA1102885093655REMMET09101/10/22 16:53:01 METAR KPMD 110053Z 04006KT 10SM CLR 11/M05 A3038 RMK AO2 SLP291 T01111050
0186723820231822022011101537+34629-118083FM-15+0787KPMD V0200705N004152200059N0160935N5+00785-00285103005ADDAA101000095GA1005+999999999GD10991+9999999GF100991999999999999999999MA1102915093695REMMET09101/10/22 17:53:01 METAR KPMD 110153Z 07008KT 10SM CLR 08/M03 A3039 RMK AO2 SLP300 T00781028
0206723820231822022011102537+34629-118083FM-15+0787KPMD V0200505N004652200059N0160935N5+00895-00615103065ADDAA101000095GA1005+999999999GD10991+9999999GF100991999999999999999999MA1103015093785MD1390139+9999REMMET09701/10/22 18:53:01 METAR KPMD 110253Z 05009KT 10SM CLR 09/M06 A3042 RMK AO2 SLP306 T00891061 53013
0186723820231822022011103537+34629-118083FM-15+0787KPMD V0200605N001552200059N0160935N5+00615-00505103115ADDAA101000095GA1005+999999999GD10991+9999999GF100991999999999999999999MA1103015093785REMMET09101/10/22 19:53:02 METAR KPMD 110353Z 06003KT 10SM CLR 06/M05 A3042 RMK AO2 SLP311 T00611050
0186723820231822022011104537+34629-118083FM-15+0787KPMD V0203605N002152200059N0160935N5+00445-00565103165ADDAA101000095GA1005+999999999GD10991+9999999GF100991999999999999999999MA1103085093845REMMET09101/10/22 20:53:02 METAR KPMD 110453Z 36004KT 10SM CLR 04/M06 A3044 RMK AO2 SLP316 T00441056
0244723820231822022011105537+34629-118083FM-15+0787KPMD V0203605N002152200059N0160935N5+00395-00505103165ADDAA101000095GA1005+999999999GD10991+9999999GF100991999999999999999999KA1060M+01391KA2060N+00281MA1103125093875MD1390099+9999REMMET10901/10/22 21:53:02 METAR KPMD 110553Z 36004KT 10SM CLR 04/M05 A3045 RMK AO2 SLP316 T00391050 10139 20028 53009
0186723820231822022011106537+34629-118083FM-15+0787KPMD V0209999C000052200059N0160935N5+00395-00445103175ADDAA101000095GA1005+999999999GD10991+9999999GF100991999999999999999999MA1103125093875REMMET09101/10/22 22:53:02 METAR KPMD 110653Z 00000KT 10SM CLR 04/M04 A3045 RMK AO2 SLP317 T00391044
0222723820231822022011107537+34629-118083FM-15+0787KPMD V0201705N002152200059N0160935N5+00065-00445103185ADDAA101000095GA1005+999999999GD10991+9999999GF100991999999999999999999KA1240M+01441KA2240N-00061MA1103125093875REMMET10101/10/22 23:53:02 METAR KPMD 110753Z 17004KT 10SM CLR 01/M04 A3045 RMK AO2 SLP318 T00061044 401441006
0813723820231822022011107596+34629-118083SOD  +0787KPMD V020999999999999999999999999999+99999+99999999999ADDAA124000095KA1240M+01445KA2240N-00055MG1093854102884OE11240058105099995OE22240053605099995OE33240019299999995REMSOD69224 HR PRECIPITATION (IN): 0.00 24 HR MAX TEMP (F): 5824 HR MIN TEMP (F): 31AVERAGE STATION PRESSURE:27.715 MINIMUM SEA LEVEL PRESSURE:30.38 TIME OF OCCURRENCE:1644 PEAK WIND SPEED (MPH): 13 PEAK WIND DIR (DEG): 50 PEAK WIND TIME (LST):      FASTEST 2MIN SPEED (MPH): 12FASTEST 2MIN DIR (DEG): 50 FASTEST 2MIN TIME (LST):     AVERAGE WIND SPEED (MPH): 4.3 24 HR AVG TEMP (F): 45DEPART FROM NORMAL:  0  HEATING DEGREE DAYS: 20 COOLING DEGREE DAYS:  0 LATEST DAY MAX TEMP (0700-1900 LST):58  LATEST NIGHT MIN TEMP(1900-0800 LST):31 HOURLY INCREMENTAL PRECIPITATION VALUES (IN):.00 0.00 0.00 0.00 0.00 0.00 0.00 0.00 0.00 0.00 0.00 0.00 0.00 0.00 0.00 0.00 0.00 0.00 0.00 0.00 0.00 0.00 0.00 0.00
0206723820231822022011108537+34629-118083FM-15+0787KPMD V0201705N003152200059N0160935N5+00115-00445103115ADDAA101000095GA1005+999999999GD10991+9999999GF100991999999999999999999MA1103085093845MD1890039+9999REMMET09701/11/22 00:53:02 METAR KPMD 110853Z 17006KT 10SM CLR 01/M04 A3044 RMK AO2 SLP311 T00111044 58003
0186723820231822022011109537+34629-118083FM-15+0787KPMD V0203305N002652200059N0160935N5+00115-00505103105ADDAA101000095GA1005+999999999GD10991+9999999GF100991999999999999999999MA1103085093845REMMET09101/11/22 01:53:02 METAR KPMD 110953Z 33005KT 10SM CLR 01/M05 A3044 RMK AO2 SLP310 T00111050
0187723820231822022011110537+34629-118083FM-15+0787KPMD V0202005N002152200059N0160935N5-00175-00505103055ADDAA101000095GA1005+999999999GD10991+9999999GF100991999999999999999999MA1103015093785REMMET09201/11/22 02:53:02 METAR KPMD 111053Z 20004KT 10SM CLR M02/M05 A3042 RMK AO2 SLP305 T10171050
0244723820231822022011111537+34629-118083FM-15+0787KPMD V0209999C000052200059N0160935N5+00005-00565102975ADDAA101000095GA1005+999999999GD10991+9999999GF100991999999999999999999KA1060M+00441KA2060N-00171MA1102955093725MD1890119+9999REMMET10901/11/22 03:53:02 METAR KPMD 111153Z 00000KT 10SM CLR 00/M06 A3040 RMK AO2 SLP297 T00001056 10044 21017 58011
0186723820231822022011112537+34629-118083FM-15+0787KPMD V0202505N002152200059N0160935N5+00005-00615102955ADDAA101000095GA1005+999999999GD10991+9999999GF100991999999999999999999MA1102915093695REMMET09101/11/22 04:53:02 METAR KPMD 111253Z 25004KT 10SM CLR 00/M06 A3039 RMK AO2 SLP295 T00001061
0192723820231822022011113537+34629-118083FM-15+0787KPMD V0202805N002152200059N0160935N5-00065-00615103085ADDAA101000095GA1005+999999999GD10991+9999999GF100991999999999999999999MA1103015093785REMMET09701/11/22 05:53:02 METAR KPMD 111353Z 28004KT 10SM CLR M01/M06 A3042 RMK AO2 SLP308 T10061061 (AD)
0212723820231822022011114537+34629-118083FM-15+0787KPMD V0201805N003152200059N0160935N5-00225-00615103205ADDAA101000095GA1005+999999999GD10991+9999999GF100991999999999999999999MA1103125093875MD1390149+9999REMMET10301/11/22 06:53:02 METAR KPMD 111453Z 18006KT 10SM CLR M02/M06 A3045 RMK AO2 SLP320 T10221061 53014 (AD)
0191723820231822022011115537+34629-118083FM-15+0787KPMD V0202205N002152200059N0160935N5+00005-00445103235ADDAA101000095GA1005+999999999GD10991+9999999GF100991999999999999999999MA1103155093915REMMET09601/11/22 07:53:02 METAR KPMD 111553Z 22004KT 10SM CLR 00/M04 A3046 RMK AO2 SLP323 T00001044 (AD)
0191723820231822022011116537+34629-118083FM-15+0787KPMD V0209999C000052200059N0160935N5+00615-00335103255ADDAA101000095GA1005+999999999GD10991+9999999GF100991999999999999999999MA1103185093945REMMET09601/11/22 08:53:02 METAR KPMD 111653Z 00000KT 10SM CLR 06/M03 A3047 RMK AO2 SLP325 T00611033 (AD)
0249723820231822022011117537+34629-118083FM-15+0787KPMD V0200205N003152200059N0160935N5+00895-00565103235ADDAA101000095GA1005+999999999GD10991+9999999GF100991999999999999999999KA1060M+00891KA2060N-00281MA1103185093945MD1190089+9999REMMET11401/11/22 09:53:02 METAR KPMD 111753Z 02006KT 10SM CLR 09/M06 A3047 RMK AO2 SLP323 T00891056 10089 21028 51008 (AD)
0191723820231822022011118537+34629-118083FM-15+0787KPMD V0203505N004152200059N0160935N5+01005-00505103185ADDAA101000095GA1005+999999999GD10991+9999999GF100991999999999999999999MA1103155093915REMMET09601/11/22 10:53:02 METAR KPMD 111853Z 35008KT 10SM CLR 10/M05 A3046 RMK AO2 SLP318 T01001050 (EC)
0191723820231822022011119537+34629-118083FM-15+0787KPMD V0203605N003652200059N0160935N5+01285-00505103045ADDAA101000095GA1005+999999999GD10991+9999999GF100991999999999999999999MA1103015093785REMMET09601/11/22 11:53:02 METAR KPMD 111953Z 36007KT 10SM CLR 13/M05 A3042 RMK AO2 SLP304 T01281050 (EC)
0211723820231822022011120537+34629-118083FM-15+0787KPMD V0200105N003652200059N0160935N5+01445-00615102855ADDAA101000095GA1005+999999999GD10991+9999999GF100991999999999999999999MA1102845093625MD1890339+9999REMMET10201/11/22 12:53:02 METAR KPMD 112053Z 01007KT 10SM CLR 14/M06 A3037 RMK AO2 SLP285 T01441061 58033 (EC)
0191723820231822022011121537+34629-118083FM-15+0787KPMD V0200105N004152200059N0160935N5+01505-00675102775ADDAA101000095GA1005+999999999GD10991+9999999GF100991999999999999999999MA1102785093565REMMET09601/11/22 13:53:02 METAR KPMD 112153Z 01008KT 10SM CLR 15/M07 A3035 RMK AO2 SLP277 T01501067 (EC)
0191723820231822022011122537+34629-118083FM-15+0787KPMD V0200305N002652200059N0160935N5+01615-00785102745ADDAA101000095GA1005+999999999GD10991+9999999GF100991999999999999999999MA1102715093505REMMET09601/11/22 14:53:02 METAR KPMD 112253Z 03005KT 10SM CLR 16/M08 A3033 RMK AO2 SLP274 T01611078 (EC)
0249723820231822022011123537+34629-118083FM-15+0787KPMD V0200405N003652200059N0160935N5+01615-00785102715ADDAA101000095GA1005+999999999GD10991+9999999GF100991999999999999999999KA1060M+01671KA2060N+00891MA1102715093505MD1690129+9999REMMET11401/11/22 15:53:02 METAR KPMD 112353Z 04007KT 10SM CLR 16/M08 A3033 RMK AO2 SLP271 T01611078 10167 20089 56012 (DG)
0186723820231822022011200537+34629-118083FM-15+0787KPMD V0200305N003652200059N0160935N5+01285-00675102795ADDAA101000095GA1005+999999999GD10991+9999999GF100991999999999999999999MA1102785093565REMMET09101/11/22 16:53:01 METAR KPMD 120053Z 03007KT 10SM CLR 13/M07 A3035 RMK AO2 SLP279 T01281067
0186723820231822022011201537+34629-118083FM-15+0787KPMD V0200505N002652200059N0160935N5+00945-00675102925ADDAA101000095GA1005+999999999GD10991+9999999GF100991999999999999999999MA1102845093625REMMET09101/11/22 17:53:01 METAR KPMD 120153Z 05005KT 10SM CLR 09/M07 A3037 RMK AO2 SLP292 T00941067
0206723820231822022011202537+34629-118083FM-15+0787KPMD V0201205N002152200059N0160935N5+00615-00565102995ADDAA101000095GA1005+999999999GD10991+9999999GF100991999999999999999999MA1102885093655MD1190159+9999REMMET09701/11/22 18:53:01 METAR KPMD 120253Z 12004KT 10SM CLR 06/M06 A3038 RMK AO2 SLP299 T00611056 51015
0186723820231822022011203537+34629-118083FM-15+0787KPMD V0209999C000052200059N0160935N5+00725-00615102975ADDAA101000095GA1005+999999999GD10991+9999999GF100991999999999999999999MA1102885093655REMMET09101/11/22 19:53:02 METAR KPMD 120353Z 00000KT 10SM CLR 07/M06 A3038 RMK AO2 SLP297 T00721061
0186723820231822022011204537+34629-118083FM-15+0787KPMD V0202505N002152200059N0160935N5+00615-00615103005ADDAA101000095GA1005+999999999GD10991+9999999GF100991999999999999999999MA1102955093725REMMET09101/11/22 20:53:02 METAR KPMD 120453Z 25004KT 10SM CLR 06/M06 A3040 RMK AO2 SLP300 T00611061
0244723820231822022011205537+34629-118083FM-15+0787KPMD V0202105N001552200059N0160935N5+00395-00505103015ADDAA101000095GA1005+999999999GD10991+9999999GF100991999999999999999999KA1060M+01611KA2060N+00221MA1102985093755MD1390099+9999REMMET10901/11/22 21:53:02 METAR KPMD 120553Z 21003KT 10SM CLR 04/M05 A3041 RMK AO2 SLP301 T00391050 10161 20022 53009
0186723820231822022011206537+34629-118083FM-15+0787KPMD V0209999C000052200059N0160935N5+00285-00445103015ADDAA101000095GA1005+999999999GD10991+9999999GF100991999999999999999999MA1102985093755REMMET09101/11/22 22:53:02 METAR KPMD 120653Z 00000KT 10SM CLR 03/M04 A3041 RMK AO2 SLP301 T00281044
0222723820231822022011207537+34629-118083FM-15+0787KPMD V0209999C000052200059N0160935N5+00225-00445103015ADDAA101000095GA1005+999999999GD10991+9999999GF100991999999999999999999KA1240M+01671KA2240N-00281MA1103015093785REMMET10101/11/22 23:53:02 METAR KPMD 120753Z 00000KT 10SM CLR 02/M04 A3042 RMK AO2 SLP301 T00221044 401671028
0813723820231822022011207596+34629-118083SOD  +0787KPMD V020999999999999999999999999999+99999+99999999999ADDAA124000095KA1240M+01675KA2240N-00275MG1093724102714OE11240071503099995OE22240058135099995OE33240022499999995REMSOD69224 HR PRECIPITATION (IN): 0.00 24 HR MAX TEMP (F): 6224 HR MIN TEMP (F): 27AVERAGE STATION PRESSURE:27.675 MINIMUM SEA LEVEL PRESSURE:30.33 TIME OF OCCURRENCE:1607 PEAK WIND SPEED (MPH): 16 PEAK WIND DIR (DEG): 30 PEAK WIND TIME (LST):      FASTEST 2MIN SPEED (MPH): 13FASTEST 2MIN DIR (DEG):350 FASTEST 2MIN TIME (LST):     AVERAGE WIND SPEED (MPH): 5.0 24 HR AVG TEMP (F): 45DEPART FROM NORMAL: -1  HEATING DEGREE DAYS: 20 COOLING DEGREE DAYS:  0 LATEST DAY MAX TEMP (0700-1900 LST):62  LATEST NIGHT MIN TEMP(1900-0800 LST):27 HOURLY INCREMENTAL PRECIPITATION VALUES (IN):.00 0.00 0.00 0.00 0.00 0.00 0.00 0.00 0.00 0.00 0.00 0.00 0.00 0.00 0.00 0.00 0.00 0.00 0.00 0.00 0.00 0.00 0.00 0.00
0206723820231822022011208537+34629-118083FM-15+0787KPMD V0202805N002152200059N0160935N5+00175-00445102955ADDAA101000095GA1005+999999999GD10991+9999999GF100991999999999999999999MA1102955093725MD1890039+9999REMMET09701/12/22 00:53:02 METAR KPMD 120853Z 28004KT 10SM CLR 02/M04 A3040 RMK AO2 SLP295 T00171044 58003
0186723820231822022011209537+34629-118083FM-15+0787KPMD V0203105N001552200059N0160935N5+00335-00565102915ADDAA101000095GA1005+999999999GD10991+9999999GF100991999999999999999999MA1102955093725REMMET09101/12/22 01:53:02 METAR KPMD 120953Z 31003KT 10SM CLR 03/M06 A3040 RMK AO2 SLP291 T00331056
0186723820231822022011210537+34629-118083FM-15+0787KPMD V0203005N002152200059N0160935N5+00225-00565102885ADDAA101000095GA1005+999999999GD10991+9999999GF100991999999999999999999MA1102915093695REMMET09101/12/22 02:53:02 METAR KPMD 121053Z 30004KT 10SM CLR 02/M06 A3039 RMK AO2 SLP288 T00221056
0244723820231822022011211537+34629-118083FM-15+0787KPMD V0209999C000052200059N0160935N5+00285-00615102825ADDAA101000095GA1005+999999999GD10991+9999999GF100991999999999999999999KA1060M+00441KA2060N+00061MA1102845093625MD1890109+9999REMMET10901/12/22 03:53:02 METAR KPMD 121153Z 00000KT 10SM CLR 03/M06 A3037 RMK AO2 SLP282 T00281061 10044 20006 58010
0187723820231822022011212537+34629-118083FM-15+0787KPMD V0209999C000052200059N0160935N5-00065-00505102865ADDAA101000095GA1005+999999999GD10991+9999999GF100991999999999999999999MA1102845093625REMMET09201/12/22 04:53:02 METAR KPMD 121253Z 00000KT 10SM CLR M01/M05 A3037 RMK AO2 SLP286 T10061050
0186723820231822022011213537+34629-118083FM-15+0787KPMD V0209999C000052200059N0160935N5+00005-00505102915ADDAA101000095GA1005+999999999GD10991+9999999GF100991999999999999999999MA1102885093655REMMET09101/12/22 05:53:02 METAR KPMD 121353Z 00000KT 10SM CLR 00/M05 A3038 RMK AO2 SLP291 T00001050
0212723820231822022011214537+34629-118083FM-15+0787KPMD V0201705N002152200059N0160935N5-00175-00505103005ADDAA101000095GA1005+999999999GD10991+9999999GF100991999999999999999999MA1102885093655MD1390049+9999REMMET10301/12/22 06:53:02 METAR KPMD 121453Z 17004KT 10SM CLR M02/M05 A3038 RMK AO2 SLP300 T10171050 53004 (EC)
0191723820231822022011215537+34629-118083FM-15+0787KPMD V0201705N002652200059N0160935N5+00005-00395103025ADDAA101000095GA1005+999999999GD10991+9999999GF100991999999999999999999MA1102955093725REMMET09601/12/22 07:53:02 METAR KPMD 121553Z 17005KT 10SM CLR 00/M04 A3040 RMK AO2 SLP302 T00001039 (EC)
0191723820231822022011216537+34629-118083FM-15+0787KPMD V0209999C000052200059N0160935N5+00615-00285103025ADDAA101000095GA1005+999999999GD10991+9999999GF100991999999999999999999MA1102985093755REMMET09601/12/22 08:53:02 METAR KPMD 121653Z 00000KT 10SM CLR 06/M03 A3041 RMK AO2 SLP302 T00611028 (EC)
0249723820231822022011217537+34629-118083FM-15+0787KPMD V0209999C000052200059N0160935N5+00835-00505103075ADDAA101000095GA1005+999999999GD10991+9999999GF100991999999999999999999KA1060M+00891KA2060N-00221MA1103055093815MD1190149+9999REMMET11401/12/22 09:53:02 METAR KPMD 121753Z 00000KT 10SM CLR 08/M05 A3043 RMK AO2 SLP307 T00831050 10089 21022 51014 (EC)
0191723820231822022011218537+34629-118083FM-15+0787KPMD V0209999C000052200059N0160935N5+01005-00565103025ADDAA101000095GA1005+999999999GD10991+9999999GF100991999999999999999999MA1102985093755REMMET09601/12/22 10:53:02 METAR KPMD 121853Z 00000KT 10SM CLR 10/M06 A3041 RMK AO2 SLP302 T01001056 (EC)
