0186723820231822019010100537+34629-118083FM-15+0787KPMD V0200805N006752200059N0160935N5+00675-01565101275ADDAA101000095GA1005+999999999GD10991+9999999GF100991999999999999999999MA1101255092155REMMET09112/31/18 16:53:01 METAR KPMD 010053Z 08013KT 10SM CLR 07/M16 A2990 RMK AO2 SLP127 T00671156
0186723820231822019010101537+34629-118083FM-15+0787KPMD V0200905N006252200059N0160935N5+00445-01565101395ADDAA101000095GA1005+999999999GD10991+9999999GF100991999999999999999999MA1101355092245REMMET09112/31/18 17:53:01 METAR KPMD 010153Z 09012KT 10SM CLR 04/M16 A2993 RMK AO2 SLP139 T00441156
0206723820231822019010102537+34629-118083FM-15+0787KPMD V0201105N005752200059N0160935N5+00285-01395101455ADDAA101000095GA1005+999999999GD10991+9999999GF100991999999999999999999MA1101425092315MD1390169+9999REMMET09712/31/18 18:53:01 METAR KPMD 010253Z 11011KT 10SM CLR 03/M14 A2995 RMK AO2 SLP145 T00281139 53016
0191723820231822019010103537+34629-118083FM-15+0787KPMD V0201305N004652200059N0160935N5+00115-01335101545ADDAA101000095GA1005+999999999GD10991+9999999GF100991999999999999999999MA1101495092375REMMET09612/31/18 19:53:03 METAR KPMD 010353Z 13009KT 10SM CLR 01/M13 A2997 RMK AO2 SLP154 T00111133 (EC)
0187723820231822019010104537+34629-118083FM-15+0787KPMD V0201005N003152200059N0160935N5-00115-01285101655ADDAA101000095GA1005+999999999GD10991+9999999GF100991999999999999999999MA1101595092465REMMET09212/31/18 20:53:02 METAR KPMD 010453Z 10006KT 10SM CLR M01/M13 A3000 RMK AO2 SLP165 T10111128
0245723820231822019010105537+34629-118083FM-15+0787KPMD V0200905N003152200059N0160935N5-00065-01335101745ADDAA101000095GA1005+999999999GD10991+9999999GF100991999999999999999999KA1060M+00891KA2060N-00111MA1101695092565MD1390269+9999REMMET11012/31/18 21:53:02 METAR KPMD 010553Z 09006KT 10SM CLR M01/M13 A3003 RMK AO2 SLP174 T10061133 10089 21011 53026
0187723820231822019010106537+34629-118083FM-15+0787KPMD V0200605N004652200059N0160935N5-00065-01395101825ADDAA101000095GA1005+999999999GD10991+9999999GF100991999999999999999999MA1101765092625REMMET09212/31/18 22:53:02 METAR KPMD 010653Z 06009KT 10SM CLR M01/M14 A3005 RMK AO2 SLP182 T10061139
0233723820231822019010107537+34629-118083FM-15+0787KPMD V0200905N006752200059N0160935N5+00115-01395101795ADDAA101000095GA1005+999999999GD10991+9999999GF100991999999999999999999KA1240M+01001KA2240N-00111MA1101765092625OC100985REMMET10412/31/18 23:53:02 METAR KPMD 010753Z 09013G19KT 10SM CLR 01/M14 A3005 RMK AO2 SLP179 T00111139 401001011
0899723820231822019010107596+34629-118083SOD  +0787KPMD V020999999999999999999999999999+99999+99999999999ADDAA124000095AJ100009599999999AL12400095AN1024000095KA1240M+01005KA2240N-00105MG1092234100954OE11240138604099995OE22240116206099995OE33240062199999995REMSOD73924 HR PRECIPITATION (IN): 0.00 SNOW DEPTH (IN):0     24 HR SNOWFALL (IN):0.0  24 HR MAX TEMP (F): 5024 HR MIN TEMP (F): 30AVERAGE STATION PRESSURE:27.235 MINIMUM SEA LEVEL PRESSURE:29.81 TIME OF OCCURRENCE:0226 PEAK WIND SPEED (MPH): 31 PEAK WIND DIR (DEG): 40 PEAK WIND TIME (LST):      FASTEST 2MIN SPEED (MPH): 26FASTEST 2MIN DIR (DEG): 60 FASTEST 2MIN TIME (LST):     AVERAGE WIND SPEED (MPH):13.9 24 HR AVG TEMP (F): 40DEPART FROM NORMAL: -4  HEATING DEGREE DAYS: 25 COOLING DEGREE DAYS:  0 LATEST DAY MAX TEMP (0700-1900 LST):50  LATEST NIGHT MIN TEMP(1900-0800 LST):40 HOURLY INCREMENTAL PRECIPITATION VALUES (IN):.00 0.00 0.00 0.00 0.00 0.00 0.00 0.00 0.00 0.00 0.00 0.00 0.00 0.00 0.00 0.00 0.00 0.00 0.00 0.00 0.00 0.00 0.00 0.00
1257723820231822019010107596+34629-118083SOM  +0787KPMD V020999999999999999999999999999+99999+99999999999ADDAB10040696AD10038190506999999996AE1035025015015AH1005001090611025AH2010001890611045AH3015002090611125AH4020002590611165AH5030003390611225AH6045004690611125AI1060005890611225AI2080007690608285AI3100008990611225AI4120010490608285AI5150011990608495AI6180012790609045KB1744N+01615KB2744M+14285KB3744A+07945KC1N9-00442999995KC2M9+02272199995KD1744H05705KD2744C00005KE1005005085005MH1092844102004MK1103082909285100752513075REMSOM793PCP MTOT:1.60 PCP GT 24HRS:1.50 DATE(S):5-6 DAYS W/PCP >=.01:3  DAYS W/PCP >=.10:2  DAYS W/ PCP >=.50:1 DAYS W/PCP >=1.00:1 MSDP AMTS W/DATE-TIME TAGS:MIN:5 0.04  06/1102 MIN:10 0.07  06/1104 MIN:15 0.08  06/1112 MIN:20 0.10  06/1116 MIN:30 0.13  06/1122 MIN:45 0.18  06/1112 MIN:60 0.23  06/1122 MIN:80 0.30  06/0828 MIN:100 0.35  06/1122 MIN:120 0.41  06/0828 MIN:150 0.47  06/0849 MIN:180 0.50  06/0904 AVG DLY MIN:34.9  AVG DLY MAX:57.7  AVG MLY TMP:46.3  MIN TMP:24 DATE(S):29 MAX TMP:73  DATE(S):21 DAYS MAX <=32:0 DAYS MAX >=90:0  DAYS MIN <=32:8  DAYS MIN  <=0:0  AVG STP:27.415 LWST SLP:29.75 DATE/TIME:251307 HGST SLP:30.44 DATE/TIME:290928 HDD MTH TOT:570 DEP NORM:-2553 SEASON(JUL 1-JUN 30):941 DEP NORM:-25536 CDD MTH TOT:0 DEP NORM:-2553 SEASON(JAN 1-DEC 31):2316 DEP NORM:-25536EQDR01  1.607ABP070R02  1.507ADP081
0206723820231822019010108537+34629-118083FM-15+0787KPMD V0200805N008252200059N0160935N5+00005-01395101815ADDAA101000095GA1005+999999999GD10991+9999999GF100991999999999999999999MA1101765092625MD1190089+9999REMMET09701/01/19 00:53:02 METAR KPMD 010853Z 08016KT 10SM CLR 00/M14 A3005 RMK AO2 SLP181 T00001139 51008
0187723820231822019010109537+34629-118083FM-15+0787KPMD V0201205N004152200059N0160935N5-00065-01445101925ADDAA101000095GA1005+999999999GD10991+9999999GF100991999999999999999999MA1101865092715REMMET09201/01/19 01:53:02 METAR KPMD 010953Z 12008KT 10SM CLR M01/M14 A3008 RMK AO2 SLP192 T10061144
0186723820231822019010110537+34629-118083FM-15+0787KPMD V0200905N003152200059N0160935N5+00005-01445101975ADDAA101000095GA1005+999999999GD10991+9999999GF100991999999999999999999MA1101935092785REMMET09101/01/19 02:53:02 METAR KPMD 011053Z 09006KT 10SM CLR 00/M14 A3010 RMK AO2 SLP197 T00001144
0245723820231822019010111537+34629-118083FM-15+0787KPMD V0201105N004652200059N0160935N5-00225-01395101975ADDAA101000095GA1005+999999999GD10991+9999999GF100991999999999999999999KA1060M+00221KA2060N-00281MA1101905092745MD1090129+9999REMMET11001/01/19 03:53:02 METAR KPMD 011153Z 11009KT 10SM CLR M02/M14 A3009 RMK AO2 SLP197 T10221139 10022 21028 50012
0187723820231822019010112537+34629-118083FM-15+0787KPMD V0201205N007752200059N0160935N5-00175-01395102015ADDAA101000095GA1005+999999999GD10991+9999999GF100991999999999999999999MA1101935092785REMMET09201/01/19 04:53:02 METAR KPMD 011253Z 12015KT 10SM CLR M02/M14 A3010 RMK AO2 SLP201 T10171139
0187723820231822019010113537+34629-118083FM-15+0787KPMD V0201205N007252200059N0160935N5-00065-01445102095ADDAA101000095GA1005+999999999GD10991+9999999GF100991999999999999999999MA1102005092845REMMET09201/01/19 05:53:02 METAR KPMD 011353Z 12014KT 10SM CLR M01/M14 A3012 RMK AO2 SLP209 T10061144
0207723820231822019010114537+34629-118083FM-15+0787KPMD V0201105N003152200059N0160935N5-00175-01445102245ADDAA101000095GA1005+999999999GD10991+9999999GF100991999999999999999999MA1102105092935MD1390209+9999REMMET09801/01/19 06:53:02 METAR KPMD 011453Z 11006KT 10SM CLR M02/M14 A3015 RMK AO2 SLP224 T10171144 53020
0187723820231822019010115537+34629-118083FM-15+0787KPMD V0203505N002652200059N0160935N5-00065-01395102375ADDAA101000095GA1005+999999999GD10991+9999999GF100991999999999999999999MA1102245093065REMMET09201/01/19 07:53:02 METAR KPMD 011553Z 35005KT 10SM CLR M01/M14 A3019 RMK AO2 SLP237 T10061139
0179723820231822019010116437+34629-118083FM-16+0787KPMD V0200805N008852200059N0160935N5+00395-01445999999ADDGA1005+999999999GD10991+9999999GF100991999999999999999999MA1102275093095REMMET09501/01/19 08:43:02 SPECI KPMD 011643Z 08017KT 10SM CLR 04/M14 A3020 RMK AO2 WSHFT 1623 T00391144
0197723820231822019010116537+34629-118083FM-15+0787KPMD V0200805N009352200059N0160935N5+00395-01445102395ADDAA101000095GA1005+999999999GD10991+9999999GF100991999999999999999999MA1102275093095REMMET10201/01/19 08:53:02 METAR KPMD 011653Z 08018KT 10SM CLR 04/M14 A3020 RMK AO2 WSHFT 1623 SLP239 T00391144
0276723820231822019010117537+34629-118083FM-15+0787KPMD V0200605N010352200059N0160935N5+00505-01445102445ADDAA101000095GA1005+999999999GD10991+9999999GF100991999999999999999999KA1060M+00501KA2060N-00281MA1102345093155MD1190219+9999OD149901391080REMMET12701/01/19 09:53:02 METAR KPMD 011753Z 06020KT 10SM CLR 05/M14 A3022 RMK AO2 PK WND 08027/1712 SLP244 T00501144 10050 21028 51021
0218723820231822019010118537+34629-118083FM-15+0787KPMD V0200705N011352200059N0160935N5+00675-01505102345ADDAA101000095GA1005+999999999GD10991+9999999GF100991999999999999999999MA1102275093095OD149901391060REMMET10901/01/19 10:53:02 METAR KPMD 011853Z 07022KT 10SM CLR 07/M15 A3020 RMK AO2 PK WND 06027/1843 SLP234 T00671150
0197723820231822019010119537+34629-118083FM-15+0787KPMD V0200805N009352200059N0160935N5+00725-01505102225ADDAA101000095GA1005+999999999GD10991+9999999GF100991999999999999999999MA1102175093005OC101135REMMET09401/01/19 11:53:02 METAR KPMD 011953Z 08018G22KT 10SM CLR 07/M15 A3017 RMK AO2 SLP222 T00721150
0249723820231822019010120537+34629-118083FM-15+0787KPMD V0200805N009352200059N0160935N5+00785-01565102145ADDAA101000095GA1005+999999999GD10991+9999999GF100991999999999999999999MA1102075092905MD1890249+9999OC101185OD149901391090REMMET11801/01/19 12:53:02 METAR KPMD 012053Z 08018G23KT 10SM CLR 08/M16 A3014 RMK AO2 PK WND 09027/2024 SLP214 T00781156 58024
0229723820231822019010121537+34629-118083FM-15+0787KPMD V0200605N009352200059N0160935N5+00835-01615102125ADDAA101000095GA1005+999999999GD10991+9999999GF100991999999999999999999MA1102075092905OC101185OD149901441060REMMET11201/01/19 13:53:02 METAR KPMD 012153Z 06018G23KT 10SM CLR 08/M16 A3014 RMK AO2 PK WND 06028/2116 SLP212 T00831161
0197723820231822019010122537+34629-118083FM-15+0787KPMD V0200705N009352200059N0160935N5+00835-01675102095ADDAA101000095GA1005+999999999GD10991+9999999GF100991999999999999999999MA1102035092875OC101185REMMET09401/01/19 14:53:02 METAR KPMD 012253Z 07018G23KT 10SM CLR 08/M17 A3013 RMK AO2 SLP209 T00831167
0244723820231822019010123537+34629-118083FM-15+0787KPMD V0200805N006252200059N0160935N5+00785-01675102165ADDAA101000095GA1005+999999999GD10991+9999999GF100991999999999999999999KA1060M+00891KA2060N+00501MA1102075092905MD1590009+9999REMMET10901/01/19 15:53:02 METAR KPMD 012353Z 08012KT 10SM CLR 08/M17 A3014 RMK AO2 SLP216 T00781167 10089 20050 55000
0186723820231822019010200537+34629-118083FM-15+0787KPMD V0200905N005752200059N0160935N5+00445-01565102185ADDAA101000095GA1005+999999999GD10991+9999999GF100991999999999999999999MA1102075092905REMMET09101/01/19 16:53:01 METAR KPMD 020053Z 09011KT 10SM CLR 04/M16 A3014 RMK AO2 SLP218 T00441156
0186723820231822019010201537+34629-118083FM-15+0787KPMD V0201005N004652200059N0160935N5+00225-01615102265ADDAA101000095GA1005+999999999GD10991+9999999GF100991999999999999999999MA1102135092965REMMET09101/01/19 17:53:01 METAR KPMD 020153Z 10009KT 10SM CLR 02/M16 A3016 RMK AO2 SLP226 T00221161
0206723820231822019010202537+34629-118083FM-15+0787KPMD V0201405N001552200059N0160935N5+00335-01615102305ADDAA101000095GA1005+999999999GD10991+9999999GF100991999999999999999999MA1102175093005MD1390099+9999REMMET09701/01/19 18:53:01 METAR KPMD 020253Z 14003KT 10SM CLR 03/M16 A3017 RMK AO2 SLP230 T00331161 53009
0186723820231822019010203537+34629-118083FM-15+0787KPMD V0201105N003152200059N0160935N5+00115-01615102345ADDAA101000095GA1005+999999999GD10991+9999999GF100991999999999999999999MA1102205093035REMMET09101/01/19 19:53:02 METAR KPMD 020353Z 11006KT 10SM CLR 01/M16 A3018 RMK AO2 SLP234 T00111161
0187723820231822019010204537+34629-118083FM-15+0787KPMD V0200805N003652200059N0160935N5-00285-01445102355ADDAA101000095GA1005+999999999GD10991+9999999GF100991999999999999999999MA1102245093065REMMET09201/01/19 20:53:02 METAR KPMD 020453Z 08007KT 10SM CLR M03/M14 A3019 RMK AO2 SLP235 T10281144
0245723820231822019010205537+34629-118083FM-15+0787KPMD V0209999C000052200059N0160935N5-00115-01505102315ADDAA101000095GA1005+999999999GD10991+9999999GF100991999999999999999999KA1060M+00781KA2060N-00331MA1102245093065MD1190049+9999REMMET11001/01/19 21:53:02 METAR KPMD 020553Z 00000KT 10SM CLR M01/M15 A3019 RMK AO2 SLP231 T10111150 10078 21033 51004
0186723820231822019010206537+34629-118083FM-15+0787KPMD V0203005N003652200059N0160935N5+00005-01445102325ADDAA101000095GA1005+999999999GD10991+9999999GF100991999999999999999999MA1102245093065REMMET09101/01/19 22:53:02 METAR KPMD 020653Z 30007KT 10SM CLR 00/M14 A3019 RMK AO2 SLP232 T00001144
0222723820231822019010207537+34629-118083FM-15+0787KPMD V0203005N001552200059N0160935N5+00005-01395102375ADDAA101000095GA1005+999999999GD10991+9999999GF100991999999999999999999KA1240M+00891KA2240N-00331MA1102305093125REMMET10101/01/19 23:53:02 METAR KPMD 020753Z 30003KT 10SM CLR 00/M14 A3021 RMK AO2 SLP237 T00001139 400891033
0903723820231822019010207596+34629-118083SOD  +0787KPMD V020999999999999999999999999999+99999+99999999999ADDAA124000095AJ100009599999999AL12400095AN1024000095KA1240M+00895KA2240N-00325MG1092954101764OE11240143106099995OE22240125206099995OE33240057799999995REMSOD74324 HR PRECIPITATION (IN): 0.00 SNOW DEPTH (IN):0     24 HR SNOWFALL (IN):0.0  24 HR MAX TEMP (F): 4824 HR MIN TEMP (F): 26AVERAGE STATION PRESSURE(D):27.447 MINIMUM SEA LEVEL PRESSURE:30.05 TIME OF OCCURRENCE:0006 PEAK WIND SPEED (MPH): 32 PEAK WIND DIR (DEG): 60 PEAK WIND TIME (LST):      FASTEST 2MIN SPEED (MPH): 28FASTEST 2MIN DIR (DEG): 60 FASTEST 2MIN TIME (LST):     AVERAGE WIND SPEED (MPH):12.9 24 HR AVG TEMP (F): 37DEPART FROM NORMAL: -7  HEATING DEGREE DAYS: 28 COOLING DEGREE DAYS:  0 LATEST DAY MAX TEMP (0700-1900 LST): 48 LATEST NIGHT MIN TEMP(1900-0800 LST):27 HOURLY INCREMENTAL PRECIPITATION VALUES (IN):0.00 0.00 0.00 0.00 0.00 0.00 0.00 0.00 0.00 0.00 0.00 0.00 0.00 0.00 0.00 0.00 0.00 0.00 0.00 0.00 0.00 0.00 0.00 0.00
0207723820231822019010208537+34629-118083FM-15+0787KPMD V0201705N001552200059N0160935N5-00115-01335102345ADDAA101000095GA1005+999999999GD10991+9999999GF100991999999999999999999MA1102275093095MD1090049+9999REMMET09801/02/19 00:53:02 METAR KPMD 020853Z 17003KT 10SM CLR M01/M13 A3020 RMK AO2 SLP234 T10111133 50004
0187723820231822019010209537+34629-118083FM-15+0787KPMD V0209999C000052200059N0160935N5-00285-01225102345ADDAA101000095GA1005+999999999GD10991+9999999GF100991999999999999999999MA1102275093095REMMET09201/02/19 01:53:02 METAR KPMD 020953Z 00000KT 10SM CLR M03/M12 A3020 RMK AO2 SLP234 T10281122
0187723820231822019010210537+34629-118083FM-15+0787KPMD V0209999C000052200059N0160935N5-00225-01285102325ADDAA101000095GA1005+999999999GD10991+9999999GF100991999999999999999999MA1102245093065REMMET09201/02/19 02:53:02 METAR KPMD 021053Z 00000KT 10SM CLR M02/M13 A3019 RMK AO2 SLP232 T10221128
0245723820231822019010211537+34629-118083FM-15+0787KPMD V0203205N001552200059N0160935N5-00285-01285102305ADDAA101000095GA1005+999999999GD10991+9999999GF100991999999999999999999KA1060M+00061KA2060N-00331MA1102245093065MD1890049+9999REMMET11001/02/19 03:53:02 METAR KPMD 021153Z 32003KT 10SM CLR M03/M13 A3019 RMK AO2 SLP230 T10281128 10006 21033 58004
0187723820231822019010212537+34629-118083FM-15+0787KPMD V0202905N002152200059N0160935N5-00395-01285102385ADDAA101000095GA1005+999999999GD10991+9999999GF100991999999999999999999MA1102245093065REMMET09201/02/19 04:53:02 METAR KPMD 021253Z 29004KT 10SM CLR M04/M13 A3019 RMK AO2 SLP238 T10391128
0187723820231822019010213537+34629-118083FM-15+0787KPMD V0209999C000052200059N0160935N5-00445-01285102485ADDAA101000095GA1005+999999999GD10991+9999999GF100991999999999999999999MA1102305093125REMMET09201/02/19 05:53:02 METAR KPMD 021353Z 00000KT 10SM CLR M04/M13 A3021 RMK AO2 SLP248 T10441128
0207723820231822019010214537+34629-118083FM-15+0787KPMD V0209999C000052200059N0160935N5-00335-01335102575ADDAA101000095GA1005+999999999GD10991+9999999GF100991999999999999999999MA1102445093255MD1390209+9999REMMET09801/02/19 06:53:02 METAR KPMD 021453Z 00000KT 10SM CLR M03/M13 A3025 RMK AO2 SLP257 T10331133 53020
0187723820231822019010215537+34629-118083FM-15+0787KPMD V0203005N001552200059N0160935N5-00225-01225102635ADDAA101000095GA1005+999999999GD10991+9999999GF100991999999999999999999MA1102475093285REMMET09201/02/19 07:53:02 METAR KPMD 021553Z 30003KT 10SM CLR M02/M12 A3026 RMK AO2 SLP263 T10221122
0186723820231822019010216537+34629-118083FM-15+0787KPMD V0203205N003652200059N0160935N5+00065-01285102695ADDAA101000095GA1005+999999999GD10991+9999999GF100991999999999999999999MA1102545093345REMMET09101/02/19 08:53:02 METAR KPMD 021653Z 32007KT 10SM CLR 01/M13 A3028 RMK AO2 SLP269 T00061128
0244723820231822019010217537+34629-118083FM-15+0787KPMD V0203505N003152200059N0160935N5+00335-01335102675ADDAA101000095GA1005+999999999GD10991+9999999GF100991999999999999999999KA1060M+00331KA2060N-00441MA1102545093345MD1190119+9999REMMET10901/02/19 09:53:02 METAR KPMD 021753Z 35006KT 10SM CLR 03/M13 A3028 RMK AO2 SLP267 T00331133 10033 21044 51011
0186723820231822019010218537+34629-118083FM-15+0787KPMD V0200305N005752200059N0160935N5+00675-01395102545ADDAA101000095GA1005+999999999GD10991+9999999GF100991999999999999999999MA1102445093255REMMET09101/02/19 10:53:02 METAR KPMD 021853Z 03011KT 10SM CLR 07/M14 A3025 RMK AO2 SLP254 T00671139
0186723820231822019010219537+34629-118083FM-15+0787KPMD V0200405N005752200059N0160935N5+00895-01505102425ADDAA101000095GA1005+999999999GD10991+9999999GF100991999999999999999999MA1102345093155REMMET09101/02/19 11:53:02 METAR KPMD 021953Z 04011KT 10SM CLR 09/M15 A3022 RMK AO2 SLP242 T00891150
0206723820231822019010220537+34629-118083FM-15+0787KPMD V0200705N006752200059N0160935N5+01005-01505102315ADDAA101000095GA1005+999999999GD10991+9999999GF100991999999999999999999MA1102245093065MD1890279+9999REMMET09701/02/19 12:53:02 METAR KPMD 022053Z 07013KT 10SM CLR 10/M15 A3019 RMK AO2 SLP231 T01001150 58027
0197723820231822019010221537+34629-118083FM-15+0787KPMD V0200605N007752200059N0160935N5+01065-01395102315ADDAA101000095GA1005+999999999GD10991+9999999GF100991999999999999999999MA1102245093065OC101035REMMET09401/02/19 13:53:02 METAR KPMD 022153Z 06015G20KT 10SM CLR 11/M14 A3019 RMK AO2 SLP231 T01061139
0186723820231822019010222537+34629-118083FM-15+0787KPMD V0200405N005152200059N0160935N5+01065-01335102325ADDAA101000095GA1005+999999999GD10991+9999999GF100991999999999999999999MA1102275093095REMMET09101/02/19 14:53:02 METAR KPMD 022253Z 04010KT 10SM CLR 11/M13 A3020 RMK AO2 SLP232 T01061133
0244723820231822019010223537+34629-118083FM-15+0787KPMD V0200205N006252200059N0160935N5+01005-01335102375ADDAA101000095GA1005+999999999GD10991+9999999GF100991999999999999999999KA1060M+01061KA2060N+00331MA1102305093125MD1390059+9999REMMET10901/02/19 15:53:02 METAR KPMD 022353Z 02012KT 10SM CLR 10/M13 A3021 RMK AO2 SLP237 T01001133 10106 20033 53005
0186723820231822019010300537+34629-118083FM-15+0787KPMD V0200205N005152200059N0160935N5+00785-01335102445ADDAA101000095GA1005+999999999GD10991+9999999GF100991999999999999999999MA1102345093155REMMET09101/02/19 16:53:01 METAR KPMD 030053Z 02010KT 10SM CLR 08/M13 A3022 RMK AO2 SLP244 T00781133
0186723820231822019010301537+34629-118083FM-15+0787KPMD V0200405N006252200059N0160935N5+00675-01285102515ADDAA101000095GA1005+999999999GD10991+9999999GF100991999999999999999999MA1102375093185REMMET09101/02/19 17:53:01 METAR KPMD 030153Z 04012KT 10SM CLR 07/M13 A3023 RMK AO2 SLP251 T00671128
0206723820231822019010302537+34629-118083FM-15+0787KPMD V0200505N004652200059N0160935N5+00505-01285102615ADDAA101000095GA1005+999999999GD10991+9999999GF100991999999999999999999MA1102475093285MD1390169+9999REMMET09701/02/19 18:53:02 METAR KPMD 030253Z 05009KT 10SM CLR 05/M13 A3026 RMK AO2 SLP261 T00501128 53016
0186723820231822019010303537+34629-118083FM-15+0787KPMD V0209999C000052200059N0160935N5+00335-01225102725ADDAA101000095GA1005+999999999GD10991+9999999GF100991999999999999999999MA1102575093375REMMET09101/02/19 19:53:02 METAR KPMD 030353Z 00000KT 10SM CLR 03/M12 A3029 RMK AO2 SLP272 T00331122
0186723820231822019010304537+34629-118083FM-15+0787KPMD V0209999C000052200059N0160935N5+00175-01175102715ADDAA101000095GA1005+999999999GD10991+9999999GF100991999999999999999999MA1102575093375REMMET09101/02/19 20:53:02 METAR KPMD 030453Z 00000KT 10SM CLR 02/M12 A3029 RMK AO2 SLP271 T00171117
0245723820231822019010305537+34629-118083FM-15+0787KPMD V0203005N003652200059N0160935N5-00065-01115102665ADDAA101000095GA1005+999999999GD10991+9999999GF100991999999999999999999KA1060M+00941KA2060N-00061MA1102545093345MD1090079+9999REMMET11001/02/19 21:53:02 METAR KPMD 030553Z 30007KT 10SM CLR M01/M11 A3028 RMK AO2 SLP266 T10061111 10094 21006 50007
0187723820231822019010306537+34629-118083FM-15+0787KPMD V0203005N003152200059N0160935N5-00065-01175102615ADDAA101000095GA1005+999999999GD10991+9999999GF100991999999999999999999MA1102545093345REMMET09201/02/19 22:53:02 METAR KPMD 030653Z 30006KT 10SM CLR M01/M12 A3028 RMK AO2 SLP261 T10061117
0222723820231822019010307537+34629-118083FM-15+0787KPMD V0203005N001552200059N0160935N5+00005-01175102605ADDAA101000095GA1005+999999999GD10991+9999999GF100991999999999999999999KA1240M+01061KA2240N-00441MA1102545093345REMMET10101/02/19 23:53:02 METAR KPMD 030753Z 30003KT 10SM CLR 00/M12 A3028 RMK AO2 SLP260 T00001117 401061044
0903723820231822019010307596+34629-118083SOD  +0787KPMD V020999999999999999999999999999+99999+99999999999ADDAA124000095AJ100009599999999AL12400095AN1024000095KA1240M+01065KA2240N-00435MG1093204102274OE11240107307099995OE22240080506099995OE33240030899999995REMSOD74324 HR PRECIPITATION (IN): 0.00 SNOW DEPTH (IN):0     24 HR SNOWFALL (IN):0.0  24 HR MAX TEMP (F): 5124 HR MIN TEMP (F): 24AVERAGE STATION PRESSURE(D):27.522 MINIMUM SEA LEVEL PRESSURE:30.20 TIME OF OCCURRENCE:1431 PEAK WIND SPEED (MPH): 24 PEAK WIND DIR (DEG): 70 PEAK WIND TIME (LST):      FASTEST 2MIN SPEED (MPH): 18FASTEST 2MIN DIR (DEG): 60 FASTEST 2MIN TIME (LST):     AVERAGE WIND SPEED (MPH): 6.9 24 HR AVG TEMP (F): 38DEPART FROM NORMAL: -6  HEATING DEGREE DAYS: 27 COOLING DEGREE DAYS:  0 LATEST DAY MAX TEMP (0700-1900 LST): 51 LATEST NIGHT MIN TEMP(1900-0800 LST):24 HOURLY INCREMENTAL PRECIPITATION VALUES (IN):0.00 0.00 0.00 0.00 0.00 0.00 0.00 0.00 0.00 0.00 0.00 0.00 0.00 0.00 0.00 0.00 0.00 0.00 0.00 0.00 0.00 0.00 0.00 0.00
0207723820231822019010308537+34629-118083FM-15+0787KPMD V0209999C000052200059N0160935N5-00175-01115102605ADDAA101000095GA1005+999999999GD10991+9999999GF100991999999999999999999MA1102545093345MD1690019+9999REMMET09801/03/19 00:53:02 METAR KPMD 030853Z 00000KT 10SM CLR M02/M11 A3028 RMK AO2 SLP260 T10171111 56001
0187723820231822019010309537+34629-118083FM-15+0787KPMD V0202005N001552200059N0160935N5-00285-01065102645ADDAA101000095GA1005+999999999GD10991+9999999GF100991999999999999999999MA1102575093375REMMET09201/03/19 01:53:02 METAR KPMD 030953Z 20003KT 10SM CLR M03/M11 A3029 RMK AO2 SLP264 T10281106
0187723820231822019010310537+34629-118083FM-15+0787KPMD V0209999C000052200059N0160935N5-00335-01065102655ADDAA101000095GA1005+999999999GD10991+9999999GF100991999999999999999999MA1102575093375REMMET09201/03/19 02:53:02 METAR KPMD 031053Z 00000KT 10SM CLR M03/M11 A3029 RMK AO2 SLP265 T10331106
0245723820231822019010311537+34629-118083FM-15+0787KPMD V0202005N002152200059N0160935N5-00335-01065102615ADDAA101000095GA1005+999999999GD10991+9999999GF100991999999999999999999KA1060M+00111KA2060N-00331MA1102545093345MD1890019+9999REMMET11001/03/19 03:53:02 METAR KPMD 031153Z 20004KT 10SM CLR M03/M11 A3028 RMK AO2 SLP261 T10331106 10011 21033 58001
0187723820231822019010312537+34629-118083FM-15+0787KPMD V0203105N002152200059N0160935N5-00285-01115102605ADDAA101000095GA1005+999999999GD10991+9999999GF100991999999999999999999MA1102515093315REMMET09201/03/19 04:53:02 METAR KPMD 031253Z 31004KT 10SM CLR M03/M11 A3027 RMK AO2 SLP260 T10281111
0187723820231822019010313537+34629-118083FM-15+0787KPMD V0202205N002152200059N0160935N5-00335-01115102645ADDAA101000095GA1005+999999999GD10991+9999999GF100991999999999999999999MA1102545093345REMMET09201/03/19 05:53:02 METAR KPMD 031353Z 22004KT 10SM CLR M03/M11 A3028 RMK AO2 SLP264 T10331111
0207723820231822019010314537+34629-118083FM-15+0787KPMD V0209999C000052200059N0160935N5-00395-01115102675ADDAA101000095GA1005+999999999GD10991+9999999GF100991999999999999999999MA1102545093345MD1390019+9999REMMET09801/03/19 06:53:02 METAR KPMD 031453Z 00000KT 10SM CLR M04/M11 A3028 RMK AO2 SLP267 T10391111 53001
0187723820231822019010315537+34629-118083FM-15+0787KPMD V0201605N001552200059N0160935N5-00175-00945102725ADDAA101000095GA1005+999999999GD10991+9999999GF100991999999999999999999MA1102615093405REMMET09201/03/19 07:53:02 METAR KPMD 031553Z 16003KT 10SM CLR M02/M09 A3030 RMK AO2 SLP272 T10171094
0186723820231822019010316537+34629-118083FM-15+0787KPMD V0209999C000052200059N0160935N5+00285-01115102755ADDAA101000095GA1005+999999999GD10991+9999999GF100991999999999999999999MA1102645093445REMMET09101/03/19 08:53:02 METAR KPMD 031653Z 00000KT 10SM CLR 03/M11 A3031 RMK AO2 SLP275 T00281111
0244723820231822019010317537+34629-118083FM-15+0787KPMD V0209999C000052200059N0160935N5+00505-01115102765ADDAA101000095GA1005+999999999GD10991+9999999GF100991999999999999999999KA1060M+00501KA2060N-00441MA1102645093445MD1190129+9999REMMET10901/03/19 09:53:02 METAR KPMD 031753Z 00000KT 10SM CLR 05/M11 A3031 RMK AO2 SLP276 T00501111 10050 21044 51012
0186723820231822019010318537+34629-118083FM-15+0787KPMD V0209999C000052200059N0160935N5+00675-01115102645ADDAA101000095GA1005+999999999GD10991+9999999GF100991999999999999999999MA1102575093375REMMET09101/03/19 10:53:02 METAR KPMD 031853Z 00000KT 10SM CLR 07/M11 A3029 RMK AO2 SLP264 T00671111
0186723820231822019010319537+34629-118083FM-15+0787KPMD V0200605N002152200059N0160935N5+00895-01175102485ADDAA101000095GA1005+999999999GD10991+9999999GF100991999999999999999999MA1102405093225REMMET09101/03/19 11:53:02 METAR KPMD 031953Z 06004KT 10SM CLR 09/M12 A3024 RMK AO2 SLP248 T00891117
0206723820231822019010320537+34629-118083FM-15+0787KPMD V0200405N001552200059N0160935N5+01005-01065102345ADDAA101000095GA1005+999999999GD10991+9999999GF100991999999999999999999MA1102275093095MD1890359+9999REMMET09701/03/19 12:53:02 METAR KPMD 032053Z 04003KT 10SM CLR 10/M11 A3020 RMK AO2 SLP234 T01001106 58035
0186723820231822019010321537+34629-118083FM-15+0787KPMD V0209999V002152200059N0160935N5+01175-01005102265ADDAA101000095GA1005+999999999GD10991+9999999GF100991999999999999999999MA1102205093035REMMET09101/03/19 13:53:02 METAR KPMD 032153Z VRB04KT 10SM CLR 12/M10 A3018 RMK AO2 SLP226 T01171100
0186723820231822019010322537+34629-118083FM-15+0787KPMD V0203605N001552200059N0160935N5+01175-01005102215ADDAA101000095GA1005+999999999GD10991+9999999GF100991999999999999999999MA1102135092965REMMET09101/03/19 14:53:02 METAR KPMD 032253Z 36003KT 10SM CLR 12/M10 A3016 RMK AO2 SLP221 T01171100
0244723820231822019010323537+34629-118083FM-15+0787KPMD V0203405N003652200059N0160935N5+01175-01005102195ADDAA101000095GA1005+999999999GD10991+9999999GF100991999999999999999999KA1060M+01221KA2060N+00441MA1102135092965MD1690149+9999REMMET10901/03/19 15:53:02 METAR KPMD 032353Z 34007KT 10SM CLR 12/M10 A3016 RMK AO2 SLP219 T01171100 10122 20044 56014
0186723820231822019010400537+34629-118083FM-15+0787KPMD V0203605N002152200059N0160935N5+00945-00945102205ADDAA101000095GA1005+999999999GD10991+9999999GF100991999999999999999999MA1102135092965REMMET09101/03/19 16:53:01 METAR KPMD 040053Z 36004KT 10SM CLR 09/M09 A3016 RMK AO2 SLP220 T00941094
0186723820231822019010401537+34629-118083FM-15+0787KPMD V0209999C000052200059N0160935N5+00725-00945102275ADDAA101000095GA1005+999999999GD10991+9999999GF100991999999999999999999MA1102175093005REMMET09101/03/19 17:53:01 METAR KPMD 040153Z 00000KT 10SM CLR 07/M09 A3017 RMK AO2 SLP227 T00721094
0206723820231822019010402537+34629-118083FM-15+0787KPMD V0202005N003152200059N0160935N5+00395-00895102355ADDAA101000095GA1005+999999999GD10991+9999999GF100991999999999999999999MA1102205093035MD1390079+9999REMMET09701/03/19 18:53:01 METAR KPMD 040253Z 20006KT 10SM CLR 04/M09 A3018 RMK AO2 SLP235 T00391089 53007
0186723820231822019010403537+34629-118083FM-15+0787KPMD V0202005N003652200059N0160935N5+00225-00835102375ADDAA101000095GA1005+999999999GD10991+9999999GF100991999999999999999999MA1102245093065REMMET09101/03/19 19:53:02 METAR KPMD 040353Z 20007KT 10SM CLR 02/M08 A3019 RMK AO2 SLP237 T00221083
0186723820231822019010404537+34629-118083FM-15+0787KPMD V0202205N002652200059N0160935N5+00115-00835102335ADDAA101000095GA1005+999999999GD10991+9999999GF100991999999999999999999MA1102245093065REMMET09101/03/19 20:53:02 METAR KPMD 040453Z 22005KT 10SM CLR 01/M08 A3019 RMK AO2 SLP233 T00111083
0244723820231822019010405537+34629-118083FM-15+0787KPMD V0202005N003652200059N0160935N5+00115-00785102285ADDAA101000095GA1005+999999999GD10991+9999999GF100991999999999999999999KA1060M+01171KA2060N+00111MA1102205093035MD1090009+9999REMMET10901/03/19 21:53:02 METAR KPMD 040553Z 20007KT 10SM CLR 01/M08 A3018 RMK AO2 SLP228 T00111078 10117 20011 50000
0186723820231822019010406537+34629-118083FM-15+0787KPMD V0202105N003152200059N0160935N5+00005-00785102265ADDAA101000095GA1005+999999999GD10991+9999999GF100991999999999999999999MA1102205093035REMMET09101/03/19 22:53:03 METAR KPMD 040653Z 21006KT 10SM CLR 00/M08 A3018 RMK AO2 SLP226 T00001078
0223723820231822019010407537+34629-118083FM-15+0787KPMD V0202105N003152200059N0160935N5-00115-00785102235ADDAA101000095GA1005+999999999GD10991+9999999GF100991999999999999999999KA1240M+01221KA2240N-00441MA1102175093005REMMET10201/03/19 23:53:03 METAR KPMD 040753Z 21006KT 10SM CLR M01/M08 A3017 RMK AO2 SLP223 T10111078 401221044
0948723820231822019010407596+34629-118083SOD  +0787KPMD V020999999999999999999999999999+99999+99999999999ADDAA124000095AJ100009599999999AL12400095AN1024000095AX1086246KA1240M+01225KA2240N-00435MG1093194102174OE11240049235099995OE22240040236099995OE33240017099999995REMSOD76024 HR PRECIPITATION (IN): 0.00 SNOW DEPTH (IN):0     24 HR SNOWFALL (IN):0.0  WEATHER(CODE):8  24 HR MAX TEMP (F): 5424 HR MIN TEMP (F): 24AVERAGE STATION PRESSURE(D):27.519 MINIMUM SEA LEVEL PRESSURE:30.17 TIME OF OCCURRENCE:1618 PEAK WIND SPEED (MPH): 11 PEAK WIND DIR (DEG):350 PEAK WIND TIME (LST):      FASTEST 2MIN SPEED (MPH):  9FASTEST 2MIN DIR (DEG):360 FASTEST 2MIN TIME (LST):     AVERAGE WIND SPEED (MPH): 3.8 24 HR AVG TEMP (F): 39DEPART FROM NORMAL: -5  HEATING DEGREE DAYS: 26 COOLING DEGREE DAYS:  0 LATEST DAY MAX TEMP (0700-1900 LST): 54 LATEST NIGHT MIN TEMP(1900-0800 LST):24 HOURLY INCREMENTAL PRECIPITATION VALUES (IN):0.00 0.00 0.00 0.00 0.00 0.00 0.00 0.00 0.00 0.00 0.00 0.00 0.00 0.00 0.00 0.00 0.00 0.00 0.00 0.00 0.00 0.00 0.00 0.00EQDR01     87AXW093
0207723820231822019010408537+34629-118083FM-15+0787KPMD V0202105N002652200059N0160935N5-00175-00785102175ADDAA101000095GA1005+999999999GD10991+9999999GF100991999999999999999999MA1102105092935MD1890099+9999REMMET09801/04/19 00:53:02 METAR KPMD 040853Z 21005KT 10SM CLR M02/M08 A3015 RMK AO2 SLP217 T10171078 58009
0187723820231822019010409537+34629-118083FM-15+0787KPMD V0209999C000052200059N0160935N5-00115-00835102115ADDAA101000095GA1005+999999999GD10991+9999999GF100991999999999999999999MA1102105092935REMMET09201/04/19 01:53:02 METAR KPMD 040953Z 00000KT 10SM CLR M01/M08 A3015 RMK AO2 SLP211 T10111083
0187723820231822019010410537+34629-118083FM-15+0787KPMD V0209999C000052200059N0160935N5-00175-00835102065ADDAA101000095GA1005+999999999GD10991+9999999GF100991999999999999999999MA1102035092875REMMET09201/04/19 02:53:02 METAR KPMD 041053Z 00000KT 10SM CLR M02/M08 A3013 RMK AO2 SLP206 T10171083
0245723820231822019010411537+34629-118083FM-15+0787KPMD V0209999C000052200059N0160935N5-00335-00895102045ADDAA101000095GA1005+999999999GD10991+9999999GF100991999999999999999999KA1060M+00111KA2060N-00331MA1102005092845MD1890119+9999REMMET11001/04/19 03:53:02 METAR KPMD 041153Z 00000KT 10SM CLR M03/M09 A3012 RMK AO2 SLP204 T10331089 10011 21033 58011
0187723820231822019010412537+34629-118083FM-15+0787KPMD V0201805N001552200059N0160935N5-00335-00835101995ADDAA101000095GA1005+999999999GD10991+9999999GF100991999999999999999999MA1101935092785REMMET09201/04/19 04:53:02 METAR KPMD 041253Z 18003KT 10SM CLR M03/M08 A3010 RMK AO2 SLP199 T10331083
0187723820231822019010413537+34629-118083FM-15+0787KPMD V0203005N002152200059N0160935N5-00285-00835102045ADDAA101000095GA1005+999999999GD10991+9999999GF100991999999999999999999MA1101965092815REMMET09201/04/19 05:53:02 METAR KPMD 041353Z 30004KT 10SM CLR M03/M08 A3011 RMK AO2 SLP204 T10281083
0207723820231822019010414537+34629-118083FM-15+0787KPMD V0209999C000052200059N0160935N5-00285-00895102145ADDAA101000095GA1005+999999999GD10991+9999999GF100991999999999999999999MA1102005092845MD1390029+9999REMMET09801/04/19 06:53:02 METAR KPMD 041453Z 00000KT 10SM CLR M03/M09 A3012 RMK AO2 SLP214 T10281089 53002
0187723820231822019010415537+34629-118083FM-15+0787KPMD V0202205N001552200059N0160935N5-00115-00725102205ADDAA101000095GA1005+999999999GD10991+9999999GF100991999999999999999999MA1102075092905REMMET09201/04/19 07:53:02 METAR KPMD 041553Z 22003KT 10SM CLR M01/M07 A3014 RMK AO2 SLP220 T10111072
0186723820231822019010416537+34629-118083FM-15+0787KPMD V0209999C000052200059N0160935N5+00225-00725102215ADDAA101000095GA1005+999999999GD10991+9999999GF100991999999999999999999MA1102105092935REMMET09101/04/19 08:53:02 METAR KPMD 041653Z 00000KT 10SM CLR 02/M07 A3015 RMK AO2 SLP221 T00221072
0244723820231822019010417537+34629-118083FM-15+0787KPMD V0203605N001552200059N0160935N5+00445-00675102175ADDAA101000095GA1005+999999999GD10991+9999999GF100991999999999999999999KA1060M+00441KA2060N-00391MA1102105092935MD1090079+9999REMMET10901/04/19 09:53:02 METAR KPMD 041753Z 36003KT 10SM CLR 04/M07 A3015 RMK AO2 SLP217 T00441067 10044 21039 50007
0186723820231822019010418537+34629-118083FM-15+0787KPMD V0203205N002152200059N0160935N5+00675-00785102095ADDAA101000095GA1005+999999999GD10991+9999999GF100991999999999999999999MA1102035092875REMMET09101/04/19 10:53:02 METAR KPMD 041853Z 32004KT 10SM CLR 07/M08 A3013 RMK AO2 SLP209 T00671078
0186723820231822019010419537+34629-118083FM-15+0787KPMD V0209999V001552200059N0160935N5+00895-00785101965ADDAA101000095GA1005+999999999GD10991+9999999GF100991999999999999999999MA1101905092745REMMET09101/04/19 11:53:02 METAR KPMD 041953Z VRB03KT 10SM CLR 09/M08 A3009 RMK AO2 SLP196 T00891078
0206723820231822019010420537+34629-118083FM-15+0787KPMD V0200105N002152200059N0160935N5+01065-00835101875ADDAA101000095GA1005+999999999GD10991+9999999GF100991999999999999999999MA1101835092685MD1890259+9999REMMET09701/04/19 12:53:02 METAR KPMD 042053Z 01004KT 10SM CLR 11/M08 A3007 RMK AO2 SLP187 T01061083 58025
0186723820231822019010421537+34629-118083FM-15+0787KPMD V0200405N002152200059N0160935N5+01175-00895101765ADDAA101000095GA1005+999999999GD10991+9999999GF100991999999999999999999MA1101735092595REMMET09101/04/19 13:53:02 METAR KPMD 042153Z 04004KT 10SM CLR 12/M09 A3004 RMK AO2 SLP176 T01171089
0186723820231822019010422537+34629-118083FM-15+0787KPMD V0209999C000052200059N0160935N5+01175-00835101735ADDAA101000095GA1005+999999999GD10991+9999999GF100991999999999999999999MA1101695092565REMMET09101/04/19 14:53:02 METAR KPMD 042253Z 00000KT 10SM CLR 12/M08 A3003 RMK AO2 SLP173 T01171083
0244723820231822019010423537+34629-118083FM-15+0787KPMD V0209999C000052200059N0160935N5+01115-00835101745ADDAA101000095GA1005+999999999GD10991+9999999GF100991999999999999999999KA1060M+01221KA2060N+00441MA1101695092565MD1690139+9999REMMET10901/04/19 15:53:02 METAR KPMD 042353Z 00000KT 10SM CLR 11/M08 A3003 RMK AO2 SLP174 T01111083 10122 20044 56013
0186723820231822019010500537+34629-118083FM-15+0787KPMD V0209999C000052200059N0160935N5+01065-00895101735ADDAA101000095GA1005+999999999GD10991+9999999GF100991999999999999999999MA1101665092535REMMET09101/04/19 16:53:01 METAR KPMD 050053Z 00000KT 10SM CLR 11/M09 A3002 RMK AO2 SLP173 T01061089
0186723820231822019010501537+34629-118083FM-15+0787KPMD V0201205N001552200059N0160935N5+00725-00785101735ADDAA101000095GA1005+999999999GD10991+9999999GF100991999999999999999999MA1101635092495REMMET09101/04/19 17:53:01 METAR KPMD 050153Z 12003KT 10SM CLR 07/M08 A3001 RMK AO2 SLP173 T00721078
0206723820231822019010502537+34629-118083FM-15+0787KPMD V0202105N003152200059N0160935N5+00395-00725101795ADDAA101000095GA1005+999999999GD10991+9999999GF100991999999999999999999MA1101665092535MD1590019+9999REMMET09701/04/19 18:53:02 METAR KPMD 050253Z 21006KT 10SM CLR 04/M07 A3002 RMK AO2 SLP179 T00391072 55001
0186723820231822019010503537+34629-118083FM-15+0787KPMD V0202205N003152200059N0160935N5+00285-00725101795ADDAA101000095GA1005+999999999GD10991+9999999GF100991999999999999999999MA1101665092535REMMET09101/04/19 19:53:02 METAR KPMD 050353Z 22006KT 10SM CLR 03/M07 A3002 RMK AO2 SLP179 T00281072
0186723820231822019010504537+34629-118083FM-15+0787KPMD V0202205N003152200059N0160935N5+00335-00675101765ADDAA101000095GA1005+999999999GD10991+9999999GF100991999999999999999999MA1101695092565REMMET09101/04/19 20:53:02 METAR KPMD 050453Z 22006KT 10SM CLR 03/M07 A3003 RMK AO2 SLP176 T00331067
0244723820231822019010505537+34629-118083FM-15+0787KPMD V0209999C000052200059N0160935N5+00285-00675101705ADDAA101000095GA1005+999999999GD10991+9999999GF100991999999999999999999KA1060M+01171KA2060N+00281MA1101635092495MD1890029+9999REMMET10901/04/19 21:53:02 METAR KPMD 050553Z 00000KT 10SM CLR 03/M07 A3001 RMK AO2 SLP170 T00281067 10117 20028 58002
0186723820231822019010506537+34629-118083FM-15+0787KPMD V0202305N001552200059N0160935N5+00285-00615101645ADDAA101000095GA1005+999999999GD10991+9999999GF100991999999999999999999MA1101635092495REMMET09101/04/19 22:53:02 METAR KPMD 050653Z 23003KT 10SM CLR 03/M06 A3001 RMK AO2 SLP164 T00281061
0222723820231822019010507537+34629-118083FM-15+0787KPMD V0201905N001552200059N0160935N5+00175-00675101605ADDAA101000095GA1005+999999999GD10991+9999999GF100991999999999999999999KA1240M+01221KA2240N-00391MA1101595092465REMMET10101/04/19 23:53:02 METAR KPMD 050753Z 19003KT 10SM CLR 02/M07 A3000 RMK AO2 SLP160 T00171067 401221039
0903723820231822019010507596+34629-118083SOD  +0787KPMD V020999999999999999999999999999+99999+99999999999ADDAA124000095AJ100009599999999AL12400095AN1024000095KA1240M+01225KA2240N-00385MG1092704101594OE11240040222099995OE22240040221099995OE33240013099999995REMSOD74324 HR PRECIPITATION (IN): 0.00 SNOW DEPTH (IN):0     24 HR SNOWFALL (IN):0.0  24 HR MAX TEMP (F): 5424 HR MIN TEMP (F): 25AVERAGE STATION PRESSURE(D):27.375 MINIMUM SEA LEVEL PRESSURE:30.00 TIME OF OCCURRENCE:2359 PEAK WIND SPEED (MPH):  9 PEAK WIND DIR (DEG):220 PEAK WIND TIME (LST):      FASTEST 2MIN SPEED (MPH):  9FASTEST 2MIN DIR (DEG):210 FASTEST 2MIN TIME (LST):     AVERAGE WIND SPEED (MPH): 2.9 24 HR AVG TEMP (F): 40DEPART FROM NORMAL: -4  HEATING DEGREE DAYS: 25 COOLING DEGREE DAYS:  0 LATEST DAY MAX TEMP (0700-1900 LST): 54 LATEST NIGHT MIN TEMP(1900-0800 LST):25 HOURLY INCREMENTAL PRECIPITATION VALUES (IN):0.00 0.00 0.00 0.00 0.00 0.00 0.00 0.00 0.00 0.00 0.00 0.00 0.00 0.00 0.00 0.00 0.00 0.00 0.00 0.00 0.00 0.00 0.00 0.00
0206723820231822019010508537+34629-118083FM-15+0787KPMD V0209999C000052200059N0160935N5+00175-00675101605ADDAA101000095GA1005+999999999GD10991+9999999GF100991999999999999999999MA1101595092465MD1590049+9999REMMET09701/05/19 00:53:02 METAR KPMD 050853Z 00000KT 10SM CLR 02/M07 A3000 RMK AO2 SLP160 T00171067 55004
0186723820231822019010509537+34629-118083FM-15+0787KPMD V0202205N002152200059N0160935N5+00115-00615101565ADDAA101000095GA1005+999999999GD10991+9999999GF100991999999999999999999MA1101565092435REMMET09101/05/19 01:53:02 METAR KPMD 050953Z 22004KT 10SM CLR 01/M06 A2999 RMK AO2 SLP156 T00111061
0186723820231822019010510537+34629-118083FM-15+0787KPMD V0202305N002152200059N0160935N5+00115-00615101535ADDAA101000095GA1005+999999999GD10991+9999999GF100991999999999999999999MA1101525092405REMMET09101/05/19 02:53:02 METAR KPMD 051053Z 23004KT 10SM CLR 01/M06 A2998 RMK AO2 SLP153 T00111061
0244723820231822019010511537+34629-118083FM-15+0787KPMD V0209999C000052200059N0160935N5+00065-00615101405ADDAA101000095GA1005+999999999GD10991+9999999GF100991999999999999999999KA1060M+00391KA2060N+00061MA1101395092275MD1890189+9999REMMET10901/05/19 03:53:02 METAR KPMD 051153Z 00000KT 10SM CLR 01/M06 A2994 RMK AO2 SLP140 T00061061 10039 20006 58018
0186723820231822019010512537+34629-118083FM-15+0787KPMD V0202805N001552200059N0160935N5+00115-00615101395ADDAA101000095GA1005+999999999GD10991+9999999GF100991999999999999999999MA1101395092275REMMET09101/05/19 04:53:02 METAR KPMD 051253Z 28003KT 10SM CLR 01/M06 A2994 RMK AO2 SLP139 T00111061
0186723820231822019010513537+34629-118083FM-15+0787KPMD V0209999C000052200059N0160935N5+00115-00615101435ADDAA101000095GA1005+999999999GD10991+9999999GF100991999999999999999999MA1101395092275REMMET09101/05/19 05:53:02 METAR KPMD 051353Z 00000KT 10SM CLR 01/M06 A2994 RMK AO2 SLP143 T00111061
0206723820231822019010514537+34629-118083FM-15+0787KPMD V0209999C000052200059N0160935N5+00115-00615101495ADDAA101000095GA1005+999999999GD10991+9999999GF100991999999999999999999MA1101425092315MD1390029+9999REMMET09701/05/19 06:53:02 METAR KPMD 051453Z 00000KT 10SM CLR 01/M06 A2995 RMK AO2 SLP149 T00111061 53002
0186723820231822019010515537+34629-118083FM-15+0787KPMD V0201105N002152200059N0160935N5+00175-00505101555ADDAA101000095GA1005+999999999GD10991+9999999GF100991999999999999999999MA1101465092345REMMET09101/05/19 07:53:02 METAR KPMD 051553Z 11004KT 10SM CLR 02/M05 A2996 RMK AO2 SLP155 T00171050
0186723820231822019010516537+34629-118083FM-15+0787KPMD V0202205N001552200059N0160935N5+00335-00615101645ADDAA101000095GA1005+999999999GD10991+9999999GF100991999999999999999999MA1101565092435REMMET09101/05/19 08:53:02 METAR KPMD 051653Z 22003KT 10SM CLR 03/M06 A2999 RMK AO2 SLP164 T00331061
0244723820231822019010517537+34629-118083FM-15+0787KPMD V0209999C000052200059N0160935N5+00565-00725101645ADDAA101000095GA1005+999999999GD10991+9999999GF100991999999999999999999KA1060M+00561KA2060N+00061MA1101595092465MD1190169+9999REMMET10901/05/19 09:53:02 METAR KPMD 051753Z 00000KT 10SM CLR 06/M07 A3000 RMK AO2 SLP164 T00561072 10056 20006 51016
0186723820231822019010518537+34629-118083FM-15+0787KPMD V0203605N002152200059N0160935N5+00785-00785101525ADDAA101000095GA1005+999999999GD10991+9999999GF100991999999999999999999MA1101495092375REMMET09101/05/19 10:53:02 METAR KPMD 051853Z 36004KT 10SM CLR 08/M08 A2997 RMK AO2 SLP152 T00781078
0186723820231822019010519537+34629-118083FM-15+0787KPMD V0200305N003652200059N0160935N5+00895-00785101405ADDAA101000095GA1005+999999999GD10991+9999999GF100991999999999999999999MA1101395092275REMMET09101/05/19 11:53:02 METAR KPMD 051953Z 03007KT 10SM CLR 09/M08 A2994 RMK AO2 SLP140 T00891078
0250723820231822019010520537+34629-118083FM-15+0787KPMD V0203405N002652200059N0160935N5+00835-00945101425ADDAA101000095GA1025+030485999GD11991+0304859GE19AGL   +99999+99999GF102995999999030481999999MA1101395092275MD1590189+9999REMMET10001/05/19 12:53:02 METAR KPMD 052053Z 34005KT 10SM FEW100 08/M09 A2994 RMK AO2 SLP142 T00831094 55018EQDD01      0ADE726
0186723820231822019010521537+34629-118083FM-15+0787KPMD V0200305N002652200059N0160935N5+00895-00945101375ADDAA101000095GA1005+999999999GD10991+9999999GF100991999999999999999999MA1101355092245REMMET09101/05/19 13:53:02 METAR KPMD 052153Z 03005KT 10SM CLR 09/M09 A2993 RMK AO2 SLP137 T00891094
0211723820231822019010522537+34629-118083FM-15+0787KPMD V0201105N00215022865MN0160935N5+00895-00835101335ADDAA101000095GA1085+022865999GD14991+0228659GE19AGL   +99999+99999GF199999999999022861999999MA1101325092215REMMET09401/05/19 14:53:02 METAR KPMD 052253Z 11004KT 10SM OVC075 09/M08 A2992 RMK AO2 SLP133 T00891083
0307723820231822019010523537+34629-118083FM-15+0787KPMD V0202005N00315021345MN0160935N5+00945-00835101335ADDAA101000095GA1075+021345999GA2075+025915999GD13991+0213459GD23991+0259159GE19AGL   +99999+99999GF199999999999021341999999KA1060M+00941KA2060N+00561MA1101325092215MD1690089+9999REMMET11901/05/19 15:53:02 METAR KPMD 052353Z 20006KT 10SM BKN070 BKN085 09/M08 A2992 RMK AO2 SLP133 T00941083 10094 20056 56008
0211723820231822019010600537+34629-118083FM-15+0787KPMD V0202205N00575015245MN0160935N5+01005-00395101365ADDAA101000095GA1085+015245999GD14991+0152459GE19AGL   +99999+99999GF199999999999015241999999MA1101355092245REMMET09401/05/19 16:53:01 METAR KPMD 060053Z 22011KT 10SM OVC050 10/M04 A2993 RMK AO2 SLP136 T01001039
0210723820231822019010601537+34629-118083FM-15+0787KPMD V0202205N00675011585MN0160935N5+00895+00065101375ADDAA101000095GA1085+011585999GD14991+0115859GE19AGL   +99999+99999GF199999999999011581999999MA1101355092245REMMET09301/05/19 17:53:01 METAR KPMD 060153Z 22013KT 10SM OVC038 09/01 A2993 RMK AO2 SLP137 T00890006
0269723820231822019010602537+34629-118083FM-15+0787KPMD V0201605N00265019815MN0160935N5+00785-00225101395ADDAA101000095GA1045+014335999GA2085+019815999GD12991+0143359GD24991+0198159GE19AGL   +99999+99999GF199999999999014331999999MA1101355092245MD1090039+9999REMMET10701/05/19 18:53:01 METAR KPMD 060253Z 16005KT 10SM SCT047 OVC065 08/M02 A2993 RMK AO2 SLP139 T00781022 50003
0264723820231822019010603537+34629-118083FM-15+0787KPMD V0200705N00415019815MN0160935N5+00615-00335101425ADDAA101000025GA1025+014335999GA2085+019815999GD11991+0143359GD24991+0198159GE19AGL   +99999+99999GF199999999999014331999999MA1101355092245REMMET11601/05/19 19:53:02 METAR KPMD 060353Z 07008KT 10SM FEW047 OVC065 06/M03 A2993 RMK AO2 RAB28E47 SLP142 P0000 T00611033
0290723820231822019010604537+34629-118083FM-15+0787KPMD V0209999C00005010975MN0160935N5+00565-00065101535ADDAA101000025AU110020015AW1615GA1075+010975999GA2085+014025999GD13991+0109759GD24991+0140259GE19AGL   +99999+99999GF199999999999010971999999MA1101495092375MW1615REMMET11901/05/19 20:53:02 METAR KPMD 060453Z 00000KT 10SM -RA BKN036 OVC046 06/M01 A2997 RMK AO2 RAB0356 SLP153 P0000 T00561006
0234723820231822019010605387+34629-118083FM-16+0787KPMD V0202405N00365008535MN0096565N5+00505+00005999999ADDAA101001031AU120020015AW1625GA1085+008535999GD14991+0085359GE19AGL   +99999+99999GF199999999999008531999999MA1101635092495MW1655REMMET09401/05/19 21:38:02 SPECI KPMD 060538Z 24007KT 6SM RA OVC028 05/00 A3001 RMK AO2 P0004 T00500000
0335723820231822019010605537+34629-118083FM-15+0787KPMD V0201905N00365008235MN0096565N5+00395+00065101655ADDAA101002096AA206001892AU120020015AW1625GA1085+008235999GD14991+0082359GE19AGL   +99999+99999GF199999999999008231999999KA1060M+01061KA2060N+00391MA1101635092495MD1390269+9999MW1655REMMET12501/05/19 21:53:02 METAR KPMD 060553Z 19007KT 6SM RA OVC027 04/01 A3001 RMK AO2 SLP165 P0007 60007 T00390006 10106 20039 53026EQDQ01  00178PRCP06
0273723820231822019010606077+34629-118083FM-16+0787KPMD V0201505N00365010675MN0112655N5+00395+00065999999ADDAA101000531AU110020015AW1615GA1045+007925999GA2085+010675999GD12991+0079259GD24991+0106759GE19AGL   +99999+99999GF199999999999007921999999MA1101565092435MW1615REMMET10201/05/19 22:07:02 SPECI KPMD 060607Z 15007KT 7SM -RA SCT026 OVC035 04/01 A2999 RMK AO2 P0002 T00390006
0281723820231822019010606537+34629-118083FM-15+0787KPMD V0201305N00465021345MN0160935N5+00395+00115101405ADDAA101000895AU110020015AW1615GA1075+021345999GA2085+027435999GD13991+0213459GD24991+0274359GE19AGL   +99999+99999GF199999999999021341999999MA1101395092275MW1615REMMET11001/05/19 22:53:02 METAR KPMD 060653Z 13009KT 10SM -RA BKN070 OVC090 04/01 A2994 RMK AO2 SLP140 P0004 T00390011
0260723820231822019010607537+34629-118083FM-15+0787KPMD V0209999C00005012505MN0160935N5+00445+00175101395ADDAA101000095GA1085+012505999GD14991+0125059GE19AGL   +99999+99999GF199999999999012501999999KA1240M+01061KA2240N+00061MA1101395092275REMMET11701/05/19 23:53:02 METAR KPMD 060753Z 00000KT 10SM OVC041 04/02 A2994 RMK AO2 RAE0656 SLP139 P0000 T00440017 401060006
0912723820231822019010607596+34629-118083SOD  +0787KPMD V020999999999999999999999999999+99999+99999999999ADDAA124002895AJ100009599999999AT1AU16RA  5AX1016246KA1240M+01065KA2240N+00065MG1092334101324OE11240098320099995OE22240089419099995OE33240021999999995REMSOD73424 HR PRECIPITATION (IN): 0.11 SNOW DEPTH (IN):0    WEATHER(CODE):1  24 HR MAX TEMP (F): 5124 HR MIN TEMP (F): 33AVERAGE STATION PRESSURE(D):27.265 MINIMUM SEA LEVEL PRESSURE:29.92 TIME OF OCCURRENCE:1600 PEAK WIND SPEED (MPH): 22 PEAK WIND DIR (DEG):200 PEAK WIND TIME (LST):      FASTEST 2MIN SPEED (MPH): 20FASTEST 2MIN DIR (DEG):190 FASTEST 2MIN TIME (LST):     AVERAGE WIND SPEED (MPH): 4.9 24 HR AVG TEMP (F): 42DEPART FROM NORMAL: -2  HEATING DEGREE DAYS: 23 COOLING DEGREE DAYS:  0 LATEST DAY MAX TEMP (0700-1900 LST): 51 LATEST NIGHT MIN TEMP(1900-0800 LST):33 HOURLY INCREMENTAL PRECIPITATION VALUES (IN):0.00 0.00 0.00 0.00 0.00 0.00 0.00 0.00 0.00 0.00 0.00 0.00 0.00 0.00 0.00 0.00 0.00 0.00 0.00T    T     0.08 0.03 0.00EQDR01     17AXW093
0266723820231822019010608537+34629-118083FM-15+0787KPMD V0209999C000052200059N0160935N5+00395+00225101385ADDAA101000095AA203001091GA1025+011895999GD11991+0118959GE19AGL   +99999+99999GF102995999999011891999999MA1101395092275MD1690239+9999REMMET10501/06/19 00:53:02 METAR KPMD 060853Z 00000KT 10SM FEW039 04/02 A2994 RMK AO2 SLP138 60004 T00390022 56023EQDD01      0ADE726
0210723820231822019010609537+34629-118083FM-15+0787KPMD V0203005N00315024385MN0160935N5+00335+00225101475ADDAA101000095GA1075+024385999GD13991+0243859GE19AGL   +99999+99999GF199999999999024381999999MA1101465092345REMMET09301/06/19 01:53:02 METAR KPMD 060953Z 30006KT 10SM BKN080 03/02 A2996 RMK AO2 SLP147 T00330022
0286723820231822019010610537+34629-118083FM-15+0787KPMD V0202005N00215014335MN0128755N5+00395+00225101485ADDAA101000025AU110020015AW1615GA1025+010065999GA2085+014335999GD11991+0100659GD24991+0143359GE19AGL   +99999+99999GF199999999999010061999999MA1101495092375MW1615REMMET11501/06/19 02:53:02 METAR KPMD 061053Z 20004KT 8SM -RA FEW033 OVC047 04/02 A2997 RMK AO2 RAB53 SLP148 P0000 T00390022
0425723820231822019010611537+34629-118083FM-15+0787KPMD V0209999C00005024385MN0160935N5+00445+00285101465ADDAA101000025AA206001091AA324002891GA1045+014335999GA2075+024385999GA3085+033535999GD12991+0143359GD23991+0243859GD34991+0335359GE19AGL   +99999+99999GF199999999999014331999999KA1060M+00441KA2060N+00331MA1101465092345MD1090089+9999REMMET14901/06/19 03:53:02 METAR KPMD 061153Z 00000KT 10SM SCT047 BKN080 OVC110 04/03 A2996 RMK AO2 RAE21 SLP146 P0000 60004 70011 T00440028 10044 20033 50008EQDQ01  00108PRCP06Q02  00278PRCP24
0301723820231822019010612537+34629-118083FM-15+0787KPMD V0202205N00365024385MN0160935N5+00565+00225101445ADDAA101000025GA1025+012805999GA2075+024385999GA3075+033535999GD11991+0128059GD23991+0243859GD33991+0335359GE19AGL   +99999+99999GF199999999999012801999999MA1101465092345REMMET12201/06/19 04:53:02 METAR KPMD 061253Z 22007KT 10SM FEW042 BKN080 BKN110 06/02 A2996 RMK AO2 RAB07E19 SLP144 P0000 T00560022
0185723820231822019010613537+34629-118083FM-15+0787KPMD V0202205N005152200059N0160935N5+00505+00175101465ADDAA101000095GA1005+999999999GD10991+9999999GF100991999999999999999999MA1101465092345REMMET09001/06/19 05:53:02 METAR KPMD 061353Z 22010KT 10SM CLR 05/02 A2996 RMK AO2 SLP146 T00500017
0222723820231822019010614537+34629-118083FM-15+0787KPMD V0202205N004652200059N0160935N5+00395+00115101605ADDAA101000095AA203000021GA1005+999999999GD10991+9999999GF100991999999999999999999MA1101595092465MD1390129+9999REMMET10201/06/19 06:53:02 METAR KPMD 061453Z 22009KT 10SM CLR 04/01 A3000 RMK AO2 SLP160 60000 T00390011 53012
0185723820231822019010615537+34629-118083FM-15+0787KPMD V0202105N005152200059N0160935N5+00565+00225101665ADDAA101000095GA1005+999999999GD10991+9999999GF100991999999999999999999MA1101665092535REMMET09001/06/19 07:53:02 METAR KPMD 061553Z 21010KT 10SM CLR 06/02 A3002 RMK AO2 SLP166 T00560022
0185723820231822019010616537+34629-118083FM-15+0787KPMD V0202505N004152200059N0160935N5+00785+00285101805ADDAA101000095GA1005+999999999GD10991+9999999GF100991999999999999999999MA1101795092655REMMET09001/06/19 08:53:02 METAR KPMD 061653Z 25008KT 10SM CLR 08/03 A3006 RMK AO2 SLP180 T00780028
0260723820231822019010617537+34629-118083FM-15+0787KPMD V0202505N002652200059N0160935N5+00835+00335101855ADDAA101000095AA206000021GA1005+999999999GD10991+9999999GF100991999999999999999999KA1060M+00831KA2060N+00331MA1101835092685MD1190229+9999REMMET11401/06/19 09:53:02 METAR KPMD 061753Z 25005KT 10SM CLR 08/03 A3007 RMK AO2 SLP185 60000 T00830033 10083 20033 51022
0185723820231822019010618537+34629-118083FM-15+0787KPMD V0202305N005752200059N0160935N5+01005+00335101825ADDAA101000095GA1005+999999999GD10991+9999999GF100991999999999999999999MA1101835092685REMMET09001/06/19 10:53:02 METAR KPMD 061853Z 23011KT 10SM CLR 10/03 A3007 RMK AO2 SLP182 T01000033
0185723820231822019010619537+34629-118083FM-15+0787KPMD V0202205N007752200059N0160935N5+01005+00285101795ADDAA101000095GA1005+999999999GD10991+9999999GF100991999999999999999999MA1101795092655REMMET09001/06/19 11:53:02 METAR KPMD 061953Z 22015KT 10SM CLR 10/03 A3006 RMK AO2 SLP179 T01000028
0205723820231822019010620537+34629-118083FM-15+0787KPMD V0202105N008252200059N0160935N5+01115+00175101675ADDAA101000095GA1005+999999999GD10991+9999999GF100991999999999999999999MA1101695092565MD1890149+9999REMMET09601/06/19 12:53:02 METAR KPMD 062053Z 21016KT 10SM CLR 11/02 A3003 RMK AO2 SLP167 T01110017 58014
0185723820231822019010621537+34629-118083FM-15+0787KPMD V0202305N007252200059N0160935N5+01115+00115101695ADDAA101000095GA1005+999999999GD10991+9999999GF100991999999999999999999MA1101695092565REMMET09001/06/19 13:53:02 METAR KPMD 062153Z 23014KT 10SM CLR 11/01 A3003 RMK AO2 SLP169 T01110011
0196723820231822019010622537+34629-118083FM-15+0787KPMD V0202405N006752200059N0160935N5+01065+00285101735ADDAA101000095GA1005+999999999GD10991+9999999GF100991999999999999999999MA1101735092595OC100935REMMET09301/06/19 14:53:02 METAR KPMD 062253Z 24013G18KT 10SM CLR 11/03 A3004 RMK AO2 SLP173 T01060028
0254723820231822019010623537+34629-118083FM-15+0787KPMD V0202305N007752200059N0160935N5+01005+00175101765ADDAA101000095GA1005+999999999GD10991+9999999GF100991999999999999999999KA1060M+01111KA2060N+00831MA1101765092625MD1390089+9999OC101085REMMET11101/06/19 15:53:02 METAR KPMD 062353Z 23015G21KT 10SM CLR 10/02 A3005 RMK AO2 SLP176 T01000017 10111 20083 53008
0240723820231822019010700537+34629-118083FM-15+0787KPMD V0202305N007752200059N0160935N5+00895+00175101755ADDAA101000095GA1025+011285999GD11991+0112859GE19AGL   +99999+99999GF102995999999011281999999MA1101765092625OC101035REMMET09601/06/19 16:53:01 METAR KPMD 070053Z 23015G20KT 10SM FEW037 09/02 A3005 RMK AO2 SLP175 T00890017EQDD01      0ADE726
0196723820231822019010701537+34629-118083FM-15+0787KPMD V0202605N004652200059N0160935N5+00835+00115101775ADDAA101000095GA1005+999999999GD10991+9999999GF100991999999999999999999MA1101765092625OC100825REMMET09301/06/19 17:53:01 METAR KPMD 070153Z 26009G16KT 10SM CLR 08/01 A3005 RMK AO2 SLP177 T00830011
0311723820231822019010702537+34629-118083FM-15+0787KPMD V0202605N00725010065MN0160935N5+00835+00225101905ADDAA101000095GA1075+010065999GA2085+033535999GD13991+0100659GD24991+0335359GE19AGL   +99999+99999GF199999999999010061999999MA1101905092745MD1390129+9999OC101245OD149901691220REMMET12701/06/19 18:53:02 METAR KPMD 070253Z 26014G24KT 10SM BKN033 OVC110 08/02 A3009 RMK AO2 PK WND 22033/0205 SLP190 T00830022 53012
0259723820231822019010703537+34629-118083FM-15+0787KPMD V0202305N00465010365MN0160935N5+00895+00175101925ADDAA101000095GA1075+010365999GA2075+027435999GD13991+0103659GD23991+0274359GE19AGL   +99999+99999GF199999999999010361999999MA1101935092785OC100825REMMET10301/06/19 19:53:02 METAR KPMD 070353Z 23009G16KT 10SM BKN034 BKN090 09/02 A3010 RMK AO2 SLP192 T00890017
0291723820231822019010704537+34629-118083FM-15+0787KPMD V0202205N00935028965MN0160935N5+00895+00225101925ADDAA101000095GA1025+009145999GA2085+028965999GD11991+0091459GD24991+0289659GE19AGL   +99999+99999GF199999999999009141999999MA1101935092785OC101395OD149901391240REMMET12101/06/19 20:53:02 METAR KPMD 070453Z 22018G27KT 10SM FEW030 OVC095 09/02 A3010 RMK AO2 PK WND 24027/0445 SLP192 T00890022
0311723820231822019010705537+34629-118083FM-15+0787KPMD V0202305V00725030485MN0160935N5+00895+00285101945ADDAA101000095GA1075+030485999GD13991+0304859GE19AGL   +99999+99999GF199999999999030481999999KA1060M+01001KA2060N+00831MA1101965092815MD1190079+9999OC101295OD149901751220REMMET13201/06/19 21:53:02 METAR KPMD 070553Z 23014G25KT 10SM BKN100 09/03 A3011 RMK AO2 PK WND 22034/0522 SLP194 T00890028 10100 20083 51007
0286723820231822019010706537+34629-118083FM-15+0787KPMD V0202505N00675014025MN0160935N5+00835+00335101955ADDAA101000095GA1045+010065999GA2075+014025999GA3075+018295999GD12991+0100659GD23991+0140259GD33991+0182959GE19AGL   +99999+99999GF199999999999010061999999MA1102005092845REMMET10701/06/19 22:53:02 METAR KPMD 070653Z 25013KT 10SM SCT033 BKN046 BKN060 08/03 A3012 RMK AO2 SLP195 T00830033
0273723820231822019010707337+34629-118083FM-16+0787KPMD V0202305N01035008845MN0160935N5+00835+00335999999ADDGA1075+008845999GA2075+012195999GD13991+0088459GD23991+0121959GE19AGL   +99999+99999GF199999999999008841999999MA1101905092745OC101605OD149901591220REMMET11401/06/19 23:33:02 SPECI KPMD 070733Z 23020G31KT 10SM BKN029 BKN040 08/03 A3009 RMK AO2 PK WND 22031/0731 T00830033
0292723820231822019010707457+34629-118083FM-16+0787KPMD V0202505N008252200059N0160935N5+00835+00335999999ADDGA1045+008845999GA2045+012195999GD12991+0088459GD22991+0121959GE19AGL   +99999+99999GF104995999999008841999999MA1101935092785OC101655OD149901641220REMMET11401/06/19 23:45:02 SPECI KPMD 070745Z 25016G32KT 10SM SCT029 SCT040 08/03 A3010 RMK AO2 PK WND 22032/0737 T00830033EQDD01      0ADE726
0335723820231822019010707537+34629-118083FM-15+0787KPMD V0202305N004652200059N0160935N5+00835+00335101885ADDAA101000095GA1025+007015999GA2045+009455999GD11991+0070159GD22991+0094559GE19AGL   +99999+99999GF104995999999007011999999KA1240M+01111KA2240N+00331MA1101935092785OD149901641220REMMET12801/06/19 23:53:02 METAR KPMD 070753Z 23009KT 10SM FEW023 SCT031 08/03 A3010 RMK AO2 PK WND 22032/0737 SLP188 T00830033 401110033EQDD01      0ADE726
0867723820231822019010707596+34629-118083SOD  +0787KPMD V020999999999999999999999999999+99999+99999999999ADDAA124000025AJ100009599999999AT1AU16RA  5KA1240M+01115KA2240N+00335MG1092594101354OE11240174322099995OE22240143122099995OE33240052399999995REMSOD71724 HR PRECIPITATION (IN):    T SNOW DEPTH (IN):0    24 HR MAX TEMP (F): 5224 HR MIN TEMP (F): 38AVERAGE STATION PRESSURE(D):27.343 MINIMUM SEA LEVEL PRESSURE:29.93 TIME OF OCCURRENCE:0056 PEAK WIND SPEED (MPH): 39 PEAK WIND DIR (DEG):220 PEAK WIND TIME (LST):      FASTEST 2MIN SPEED (MPH): 32FASTEST 2MIN DIR (DEG):220 FASTEST 2MIN TIME (LST):     AVERAGE WIND SPEED (MPH):11.7 24 HR AVG TEMP (F): 45DEPART FROM NORMAL:  1  HEATING DEGREE DAYS: 20 COOLING DEGREE DAYS:  0 LATEST DAY MAX TEMP (0700-1900 LST): 52 LATEST NIGHT MIN TEMP(1900-0800 LST):38 HOURLY INCREMENTAL PRECIPITATION VALUES (IN):0.00 0.00T    T    T     0.00 0.00 0.00 0.00 0.00 0.00 0.00 0.00 0.00 0.00 0.00 0.00 0.00 0.00 0.00 0.00 0.00 0.00 0.00
0234723820231822019010708537+34629-118083FM-15+0787KPMD V0202405N008852200059N0160935N5+00895+00395101875ADDAA101000095GA1005+999999999GD10991+9999999GF100991999999999999999999MA1101905092745MD1890059+9999OC101345REMMET11701/07/19 00:53:02 METAR KPMD 070853Z 24017G26KT 10SM CLR 09/04 A3009 RMK AO2 PK WND 24029/0842 SLP187 T00890039 58005
0239723820231822019010709537+34629-118083FM-15+0787KPMD V0202205N016052200059N0080475N5+00895+00395101565ADDAA101000095AU100007015AW1051GA1005+999999999GD10991+9999999GF100991999999999999999999MA1101595092465MW1055OC102325REMMET11301/07/19 01:53:02 METAR KPMD 070953Z 22031G45KT 5SM HZ CLR 09/04 A3000 RMK AO2 PK WND 23045/0951 SLP156 T00890039
0214723820231822019010710537+34629-118083FM-15+0787KPMD V0202205N017052200059N0160935N5+00895+00445101705ADDAA101000095GA1005+999999999GD10991+9999999GF100991999999999999999999MA1101765092625OC102115REMMET11101/07/19 02:53:02 METAR KPMD 071053Z 22033G41KT 10SM CLR 09/04 A3005 RMK AO2 PK WND 22041/1053 SLP170 T00890044
0275723820231822019010711537+34629-118083FM-15+0787KPMD V0202405N008852200059N0160935N5+00895+00445101835ADDAA101000095GA1005+999999999GD10991+9999999GF100991999999999999999999KA1060M+00941KA2060N+00831MA1101865092715MD1590049+9999OD149901951220REMMET12601/07/19 03:53:02 METAR KPMD 071153Z 24017KT 10SM CLR 09/04 A3008 RMK AO2 PK WND 22038/1057 SLP183 T00890044 10094 20083 55004
0214723820231822019010712537+34629-118083FM-15+0787KPMD V0202305N010352200059N0160935N5+01005+00445101845ADDAA101000095GA1005+999999999GD10991+9999999GF100991999999999999999999MA1101905092745OC101495REMMET11101/07/19 04:53:02 METAR KPMD 071253Z 23020G29KT 10SM CLR 10/04 A3009 RMK AO2 PK WND 23029/1247 SLP184 T01000044
0112723820231822019010713384+34629-118085FM-15+077599999V0202301N012912200019N016093199+01001+00401999999ADDGF100991999999999999999999MA1102001999999OC101801REMMET051METAR KPMD 071338Z 23025G35KT 10SM CLR 10/04 A3012=
0201723820231822019010713537+34629-118083FM-15+0787KPMD V0202505N004652200059N0160935N5+00945+00505101965ADDAA101000095GA1005+999999999GD10991+9999999GF100991999999999999999999MA1102005092845OC100935REMMET09801/07/19 05:53:02 METAR KPMD 071353Z 25009G18KT 10SM CLR 09/05 A3012 RMK AO2 SLP196 T00940050 (BO)
0210723820231822019010714537+34629-118083FM-15+0787KPMD V0203105N003152200059N0160935N5+00945+00505102065ADDAA101000095GA1005+999999999GD10991+9999999GF100991999999999999999999MA1102105092935MD1390209+9999REMMET10101/07/19 06:53:02 METAR KPMD 071453Z 31006KT 10SM CLR 09/05 A3015 RMK AO2 SLP206 T00940050 53020 (BO)
0272723820231822019010715537+34629-118083FM-15+0787KPMD V0202605N004152200059N0160935N5+01005+00565102155ADDAA101000095GA1025+008235999GA2025+011285999GD11991+0082359GD21991+0112859GE19AGL   +99999+99999GF102995999999008231999999MA1102205093035REMMET10501/07/19 07:53:02 METAR KPMD 071553Z 26008KT 10SM FEW027 FEW037 10/06 A3018 RMK AO2 SLP215 T01000056 (BO)EQDD01      0ADE726
0190723820231822019010716537+34629-118083FM-15+0787KPMD V0201305N003152200059N0160935N5+00835+00505102295ADDAA101000095GA1005+999999999GD10991+9999999GF100991999999999999999999MA1102305093125REMMET09501/07/19 08:53:02 METAR KPMD 071653Z 13006KT 10SM CLR 08/05 A3021 RMK AO2 SLP229 T00830050 (BO)
0292723820231822019010717537+34629-118083FM-15+0787KPMD V0209999C000052200059N0160935N5+01115+00615102345ADDAA101000095GA1045+010065999GD12991+0100659GE19AGL   +99999+99999GF104995999999010061999999KA1060M+01111KA2060N+00781MA1102375093185MD1190269+9999REMMET11601/07/19 09:53:02 METAR KPMD 071753Z 00000KT 10SM SCT033 11/06 A3023 RMK AO2 SLP234 T01110061 10111 20078 51026 (BO)EQDD01      0ADE726
0190723820231822019010718537+34629-118083FM-15+0787KPMD V0203105N004152200059N0160935N5+01335+00725102265ADDAA101000095GA1005+999999999GD10991+9999999GF100991999999999999999999MA1102305093125REMMET09501/07/19 10:53:02 METAR KPMD 071853Z 31008KT 10SM CLR 13/07 A3021 RMK AO2 SLP226 T01330072 (BO)
0234723820231822019010719537+34629-118083FM-15+0787KPMD V0202205N005152200059N0160935N5+01445+00785102115ADDAA101000095GA1045+008535999GD12991+0085359GE19AGL   +99999+99999GF104995999999008531999999MA1102175093005REMMET09801/07/19 11:53:02 METAR KPMD 071953Z 22010KT 10SM SCT028 14/08 A3017 RMK AO2 SLP211 T01440078 (BO)EQDD01      0ADE726
0227723820231822019010720137+34629-118083FM-16+0787KPMD V0202105N006252200059N0160935N5+01505+00785999999ADDGA1045+008535999GD12991+0085359GE19AGL   +99999+99999GF104995999999008531999999MA1102135092965REMMET10201/07/19 12:13:02 SPECI KPMD 072013Z 21012KT 10SM SCT028 15/08 A3016 RMK AO2 WSHFT 1953 T01500078 (BO)EQDD01      0ADE726
0221723820231822019010720537+34629-118083FM-15+0787KPMD V0202205N005152200059N0160935N5+01505+00725102045ADDAA101000095GA1005+999999999GD10991+9999999GF100991999999999999999999MA1102135092965MD1690239+9999REMMET11201/07/19 12:53:02 METAR KPMD 072053Z 22010KT 10SM CLR 15/07 A3016 RMK AO2 WSHFT 1953 SLP204 T01500072 56023 (BO)
0190723820231822019010721537+34629-118083FM-15+0787KPMD V0202305N005752200059N0160935N5+01565+00725101985ADDAA101000095GA1005+999999999GD10991+9999999GF100991999999999999999999MA1102075092905REMMET09501/07/19 13:53:02 METAR KPMD 072153Z 23011KT 10SM CLR 16/07 A3014 RMK AO2 SLP198 T01560072 (BO)
0190723820231822019010722537+34629-118083FM-15+0787KPMD V0202305N005752200059N0160935N5+01565+00565101995ADDAA101000095GA1005+999999999GD10991+9999999GF100991999999999999999999MA1102075092905REMMET09501/07/19 14:53:02 METAR KPMD 072253Z 23011KT 10SM CLR 16/06 A3014 RMK AO2 SLP199 T01560056 (AD)
0248723820231822019010723537+34629-118083FM-15+0787KPMD V0202405N006252200059N0160935N5+01445+00445102045ADDAA101000095GA1005+999999999GD10991+9999999GF100991999999999999999999KA1060M+01561KA2060N+01111MA1102105092935MD1590019+9999REMMET11301/07/19 15:53:02 METAR KPMD 072353Z 24012KT 10SM CLR 14/04 A3015 RMK AO2 SLP204 T01440044 10156 20111 55001 (AD)
0185723820231822019010800537+34629-118083FM-15+0787KPMD V0202105N007252200059N0160935N5+01175+00615102055ADDAA101000095GA1005+999999999GD10991+9999999GF100991999999999999999999MA1102105092935REMMET09001/07/19 16:53:01 METAR KPMD 080053Z 21014KT 10SM CLR 12/06 A3015 RMK AO2 SLP205 T01170061
0185723820231822019010801537+34629-118083FM-15+0787KPMD V0202205N004152200059N0160935N5+01065+00615102155ADDAA101000095GA1005+999999999GD10991+9999999GF100991999999999999999999MA1102205093035REMMET09001/07/19 17:53:01 METAR KPMD 080153Z 22008KT 10SM CLR 11/06 A3018 RMK AO2 SLP215 T01060061
0205723820231822019010802537+34629-118083FM-15+0787KPMD V0202105N003652200059N0160935N5+01005+00505102225ADDAA101000095GA1005+999999999GD10991+9999999GF100991999999999999999999MA1102275093095MD1390149+9999REMMET09601/07/19 18:53:01 METAR KPMD 080253Z 21007KT 10SM CLR 10/05 A3020 RMK AO2 SLP222 T01000050 53014
0185723820231822019010803537+34629-118083FM-15+0787KPMD V0202005N003652200059N0160935N5+00895+00445102235ADDAA101000095GA1005+999999999GD10991+9999999GF100991999999999999999999MA1102275093095REMMET09001/07/19 19:53:02 METAR KPMD 080353Z 20007KT 10SM CLR 09/04 A3020 RMK AO2 SLP223 T00890044
0185723820231822019010804537+34629-118083FM-15+0787KPMD V0201805N002652200059N0160935N5+00785+00505102335ADDAA101000095GA1005+999999999GD10991+9999999GF100991999999999999999999MA1102345093155REMMET09001/07/19 20:53:02 METAR KPMD 080453Z 18005KT 10SM CLR 08/05 A3022 RMK AO2 SLP233 T00780050
0243723820231822019010805537+34629-118083FM-15+0787KPMD V0201305N003152200059N0160935N5+00675+00445102335ADDAA101000095GA1005+999999999GD10991+9999999GF100991999999999999999999KA1060M+01441KA2060N+00671MA1102375093185MD1390089+9999REMMET10801/07/19 21:53:02 METAR KPMD 080553Z 13006KT 10SM CLR 07/04 A3023 RMK AO2 SLP233 T00670044 10144 20067 53008
0185723820231822019010806537+34629-118083FM-15+0787KPMD V0202505N001552200059N0160935N5+00675+00395102345ADDAA101000095GA1005+999999999GD10991+9999999GF100991999999999999999999MA1102375093185REMMET09001/07/19 22:53:02 METAR KPMD 080653Z 25003KT 10SM CLR 07/04 A3023 RMK AO2 SLP234 T00670039
0221723820231822019010807537+34629-118083FM-15+0787KPMD V0202905N003652200059N0160935N5+00565+00335102375ADDAA101000095GA1005+999999999GD10991+9999999GF100991999999999999999999KA1240M+01561KA2240N+00501MA1102405093225REMMET10001/07/19 23:53:02 METAR KPMD 080753Z 29007KT 10SM CLR 06/03 A3024 RMK AO2 SLP237 T00560033 401560050
0956723820231822019010807596+34629-118083SOD  +0787KPMD V020999999999999999999999999999+99999+99999999999ADDAA124000095AJ100009599999999AL12400095AN1024000095AT1AU08HZ  5AX1085245KA1240M+01565KA2240N+00505MG1092994101524OE11240228023099996OE22240183322099995OE33240056899999995REMSOD75624 HR PRECIPITATION (IN): 0.00 SNOW DEPTH (IN):0     24 HR SNOWFALL (IN):0.0  WEATHER(CODE):8  24 HR MAX TEMP (F): 6024 HR MIN TEMP (F): 41AVERAGE STATION PRESSURE:27.460 MINIMUM SEA LEVEL PRESSURE:29.98 TIME OF OCCURRENCE:0150 PEAK WIND SPEED (MPH): 51 PEAK WIND DIR (DEG):230 PEAK WIND TIME (LST):      FASTEST 2MIN SPEED (MPH): 41FASTEST 2MIN DIR (DEG):220 FASTEST 2MIN TIME (LST):     AVERAGE WIND SPEED (MPH):12.7 24 HR AVG TEMP (F): 51DEPART FROM NORMAL:  7  HEATING DEGREE DAYS: 14 COOLING DEGREE DAYS:  0 LATEST DAY MAX TEMP (0700-1900 LST):60  LATEST NIGHT MIN TEMP(1900-0800 LST):47 HOURLY INCREMENTAL PRECIPITATION VALUES (IN):.00 0.00 0.00 0.00 0.00 0.00 0.00 0.00 0.00 0.00 0.00 0.00 0.00 0.00 0.00 0.00 0.00 0.00 0.00 0.00 0.00 0.00 0.00 0.00EQDR01    517OES063
0205723820231822019010808537+34629-118083FM-15+0787KPMD V0203105N002152200059N0160935N5+00505+00335102385ADDAA101000095GA1005+999999999GD10991+9999999GF100991999999999999999999MA1102405093225MD1190059+9999REMMET09601/08/19 00:53:02 METAR KPMD 080853Z 31004KT 10SM CLR 05/03 A3024 RMK AO2 SLP238 T00500033 51005
0185723820231822019010809537+34629-118083FM-15+0787KPMD V0202805N001552200059N0160935N5+00395+00285102395ADDAA101000095GA1005+999999999GD10991+9999999GF100991999999999999999999MA1102445093255REMMET09001/08/19 01:53:02 METAR KPMD 080953Z 28003KT 10SM CLR 04/03 A3025 RMK AO2 SLP239 T00390028
0185723820231822019010810537+34629-118083FM-15+0787KPMD V0203405N002152200059N0160935N5+00445+00225102395ADDAA101000095GA1005+999999999GD10991+9999999GF100991999999999999999999MA1102445093255REMMET09001/08/19 02:53:02 METAR KPMD 081053Z 34004KT 10SM CLR 04/02 A3025 RMK AO2 SLP239 T00440022
0243723820231822019010811537+34629-118083FM-15+0787KPMD V0209999C000052200059N0160935N5+00335+00175102355ADDAA101000095GA1005+999999999GD10991+9999999GF100991999999999999999999KA1060M+00721KA2060N+00331MA1102375093185MD1890049+9999REMMET10801/08/19 03:53:02 METAR KPMD 081153Z 00000KT 10SM CLR 03/02 A3023 RMK AO2 SLP235 T00330017 10072 20033 58004
0185723820231822019010812537+34629-118083FM-15+0787KPMD V0203105N001552200059N0160935N5+00395+00225102365ADDAA101000095GA1005+999999999GD10991+9999999GF100991999999999999999999MA1102375093185REMMET09001/08/19 04:53:02 METAR KPMD 081253Z 31003KT 10SM CLR 04/02 A3023 RMK AO2 SLP236 T00390022
0190723820231822019010813537+34629-118083FM-15+0787KPMD V0203205N001552200059N0160935N5+00335+00175102355ADDAA101000095GA1005+999999999GD10991+9999999GF100991999999999999999999MA1102345093155REMMET09501/08/19 05:53:02 METAR KPMD 081353Z 32003KT 10SM CLR 03/02 A3022 RMK AO2 SLP235 T00330017 (TJ)
0209723820231822019010814537+34629-118083FM-15+0787KPMD V0202705N002652200059N0128755N5+00285+00115102395ADDAA101000095GA1005+999999999GD10991+9999999GF100991999999999999999999MA1102375093185MD1590009+9999REMMET10001/08/19 06:53:02 METAR KPMD 081453Z 27005KT 8SM CLR 03/01 A3023 RMK AO2 SLP239 T00280011 55000 (TJ)
0190723820231822019010815537+34629-118083FM-15+0787KPMD V0203205N003652200059N0160935N5+00505+00285102395ADDAA101000095GA1005+999999999GD10991+9999999GF100991999999999999999999MA1102375093185REMMET09501/08/19 07:53:02 METAR KPMD 081553Z 32007KT 10SM CLR 05/03 A3023 RMK AO2 SLP239 T00500028 (TJ)
0190723820231822019010816537+34629-118083FM-15+0787KPMD V0203105N002152200059N0160935N5+00615+00285102475ADDAA101000095GA1005+999999999GD10991+9999999GF100991999999999999999999MA1102475093285REMMET09501/08/19 08:53:02 METAR KPMD 081653Z 31004KT 10SM CLR 06/03 A3026 RMK AO2 SLP247 T00610028 (TJ)
0248723820231822019010817537+34629-118083FM-15+0787KPMD V0209999V001552200059N0160935N5+00835+00395102455ADDAA101000095GA1005+999999999GD10991+9999999GF100991999999999999999999KA1060M+00831KA2060N+00221MA1102445093255MD1090079+9999REMMET11301/08/19 09:53:02 METAR KPMD 081753Z VRB03KT 10SM CLR 08/04 A3025 RMK AO2 SLP245 T00830039 10083 20022 50007 (TJ)
0190723820231822019010818537+34629-118083FM-15+0787KPMD V0209999C000052200059N0160935N5+01005+00445102345ADDAA101000095GA1005+999999999GD10991+9999999GF100991999999999999999999MA1102345093155REMMET09501/08/19 10:53:02 METAR KPMD 081853Z 00000KT 10SM CLR 10/04 A3022 RMK AO2 SLP234 T01000044 (TJ)
0164723820231822019010819536+34629-118083FM-15+0787KPMD V0209999C000052200059N0160935N5+01115+00445102205ADDAA101000095GA1005+999999999GD10991+9999999MA1102205093035REMMET09501/08/19 11:53:02 METAR KPMD 081953Z 00000KT 10SM CLR 11/04 A3018 RMK AO2 SLP220 T01110044 (TJ)
0210723820231822019010820537+34629-118083FM-15+0787KPMD V0200605N002652200059N0160935N5+01225+00445102075ADDAA101000095GA1005+999999999GD10991+9999999GF100991999999999999999999MA1102105092935MD1890339+9999REMMET10101/08/19 12:53:02 METAR KPMD 082053Z 06005KT 10SM CLR 12/04 A3015 RMK AO2 SLP207 T01220044 58033 (TJ)
0190723820231822019010821537+34629-118083FM-15+0787KPMD V0200505N002652200059N0160935N5+01335+00445102045ADDAA101000095GA1005+999999999GD10991+9999999GF100991999999999999999999MA1102075092905REMMET09501/08/19 13:53:02 METAR KPMD 082153Z 05005KT 10SM CLR 13/04 A3014 RMK AO2 SLP204 T01330044 (EC)
0190723820231822019010822537+34629-118083FM-15+0787KPMD V0200505N001552200059N0160935N5+01395+00445101985ADDAA101000095GA1005+999999999GD10991+9999999GF100991999999999999999999MA1102035092875REMMET09501/08/19 14:53:02 METAR KPMD 082253Z 05003KT 10SM CLR 14/04 A3013 RMK AO2 SLP198 T01390044 (EC)
0248723820231822019010823537+34629-118083FM-15+0787KPMD V0201405N001552200059N0160935N5+01335+00445101975ADDAA101000095GA1005+999999999GD10991+9999999GF100991999999999999999999KA1060M+01441KA2060N+00781MA1102005092845MD1690109+9999REMMET11301/08/19 15:53:02 METAR KPMD 082353Z 14003KT 10SM CLR 13/04 A3012 RMK AO2 SLP197 T01330044 10144 20078 56010 (EC)
0185723820231822019010900537+34629-118083FM-15+0787KPMD V0209999C000052200059N0160935N5+01285+00445101995ADDAA101000095GA1005+999999999GD10991+9999999GF100991999999999999999999MA1102005092845REMMET09001/08/19 16:53:01 METAR KPMD 090053Z 00000KT 10SM CLR 13/04 A3012 RMK AO2 SLP199 T01280044
0185723820231822019010901537+34629-118083FM-15+0787KPMD V0209999C000052200059N0160935N5+01065+00505101985ADDAA101000095GA1005+999999999GD10991+9999999GF100991999999999999999999MA1101965092815REMMET09001/08/19 17:53:01 METAR KPMD 090153Z 00000KT 10SM CLR 11/05 A3011 RMK AO2 SLP198 T01060050
0205723820231822019010902537+34629-118083FM-15+0787KPMD V0202605N001552200059N0160935N5+00945+00445102055ADDAA101000095GA1005+999999999GD10991+9999999GF100991999999999999999999MA1102035092875MD1390039+9999REMMET09601/08/19 18:53:02 METAR KPMD 090253Z 26003KT 10SM CLR 09/04 A3013 RMK AO2 SLP205 T00940044 53003
0185723820231822019010903537+34629-118083FM-15+0787KPMD V0209999C000052200059N0160935N5+00835+00395102065ADDAA101000095GA1005+999999999GD10991+9999999GF100991999999999999999999MA1102075092905REMMET09001/08/19 19:53:02 METAR KPMD 090353Z 00000KT 10SM CLR 08/04 A3014 RMK AO2 SLP206 T00830039
0185723820231822019010904537+34629-118083FM-15+0787KPMD V0202705N001552200059N0160935N5+00675+00335102095ADDAA101000095GA1005+999999999GD10991+9999999GF100991999999999999999999MA1102105092935REMMET09001/08/19 20:53:02 METAR KPMD 090453Z 27003KT 10SM CLR 07/03 A3015 RMK AO2 SLP209 T00670033
0243723820231822019010905537+34629-118083FM-15+0787KPMD V0202205N001552200059N0160935N5+00615+00285102125ADDAA101000095GA1005+999999999GD10991+9999999GF100991999999999999999999KA1060M+01331KA2060N+00611MA1102135092965MD1390089+9999REMMET10801/08/19 21:53:02 METAR KPMD 090553Z 22003KT 10SM CLR 06/03 A3016 RMK AO2 SLP212 T00610028 10133 20061 53008
0185723820231822019010906537+34629-118083FM-15+0787KPMD V0202805N002652200059N0160935N5+00565+00285102125ADDAA101000095GA1005+999999999GD10991+9999999GF100991999999999999999999MA1102135092965REMMET09001/08/19 22:53:02 METAR KPMD 090653Z 28005KT 10SM CLR 06/03 A3016 RMK AO2 SLP212 T00560028
0221723820231822019010907537+34629-118083FM-15+0787KPMD V0202805N003152200059N0160935N5+00445+00225102135ADDAA101000095GA1005+999999999GD10991+9999999GF100991999999999999999999KA1240M+01441KA2240N+00221MA1102135092965REMMET10001/08/19 23:53:02 METAR KPMD 090753Z 28006KT 10SM CLR 04/02 A3016 RMK AO2 SLP213 T00440022 401440022
0899723820231822019010907596+34629-118083SOD  +0787KPMD V020999999999999999999999999999+99999+99999999999ADDAA124000095AJ100009599999999AL12400095AN1024000095KA1240M+01445KA2240N+00225MG1093044101934OE11240049206099995OE22240040229099995OE33240015699999995REMSOD73924 HR PRECIPITATION (IN): 0.00 SNOW DEPTH (IN):0     24 HR SNOWFALL (IN):0.0  24 HR MAX TEMP (F): 5824 HR MIN TEMP (F): 36AVERAGE STATION PRESSURE:27.475 MINIMUM SEA LEVEL PRESSURE:30.10 TIME OF OCCURRENCE:1720 PEAK WIND SPEED (MPH): 11 PEAK WIND DIR (DEG): 60 PEAK WIND TIME (LST):      FASTEST 2MIN SPEED (MPH):  9FASTEST 2MIN DIR (DEG):290 FASTEST 2MIN TIME (LST):     AVERAGE WIND SPEED (MPH): 3.5 24 HR AVG TEMP (F): 47DEPART FROM NORMAL:  3  HEATING DEGREE DAYS: 18 COOLING DEGREE DAYS:  0 LATEST DAY MAX TEMP (0700-1900 LST):58  LATEST NIGHT MIN TEMP(1900-0800 LST):36 HOURLY INCREMENTAL PRECIPITATION VALUES (IN):.00 0.00 0.00 0.00 0.00 0.00 0.00 0.00 0.00 0.00 0.00 0.00 0.00 0.00 0.00 0.00 0.00 0.00 0.00 0.00 0.00 0.00 0.00 0.00
0205723820231822019010908537+34629-118083FM-15+0787KPMD V0202905N002152200059N0160935N5+00505+00225102115ADDAA101000095GA1005+999999999GD10991+9999999GF100991999999999999999999MA1102135092965MD1090019+9999REMMET09601/09/19 00:53:02 METAR KPMD 090853Z 29004KT 10SM CLR 05/02 A3016 RMK AO2 SLP211 T00500022 50001
0185723820231822019010909537+34629-118083FM-15+0787KPMD V0202705N002652200059N0160935N5+00335+00115102155ADDAA101000095GA1005+999999999GD10991+9999999GF100991999999999999999999MA1102175093005REMMET09001/09/19 01:53:02 METAR KPMD 090953Z 27005KT 10SM CLR 03/01 A3017 RMK AO2 SLP215 T00330011
0185723820231822019010910537+34629-118083FM-15+0787KPMD V0202705N003152200059N0160935N5+00285+00065102185ADDAA101000095GA1005+999999999GD10991+9999999GF100991999999999999999999MA1102205093035REMMET09001/09/19 02:53:02 METAR KPMD 091053Z 27006KT 10SM CLR 03/01 A3018 RMK AO2 SLP218 T00280006
0243723820231822019010911537+34629-118083FM-15+0787KPMD V0209999C000052200059N0160935N5+00335+00115102165ADDAA101000095GA1005+999999999GD10991+9999999GF100991999999999999999999KA1060M+00611KA2060N+00281MA1102175093005MD1090049+9999REMMET10801/09/19 03:53:02 METAR KPMD 091153Z 00000KT 10SM CLR 03/01 A3017 RMK AO2 SLP216 T00330011 10061 20028 50004
0185723820231822019010912537+34629-118083FM-15+0787KPMD V0202205N003652200059N0160935N5+00175+00005102175ADDAA101000095GA1005+999999999GD10991+9999999GF100991999999999999999999MA1102175093005REMMET09001/09/19 04:53:02 METAR KPMD 091253Z 22007KT 10SM CLR 02/00 A3017 RMK AO2 SLP217 T00170000
0190723820231822019010913537+34629-118083FM-15+0787KPMD V0202105N001552200059N0160935N5+00225+00005102185ADDAA101000095GA1005+999999999GD10991+9999999GF100991999999999999999999MA1102175093005REMMET09501/09/19 05:53:02 METAR KPMD 091353Z 21003KT 10SM CLR 02/00 A3017 RMK AO2 SLP218 T00220000 (TJ)
0210723820231822019010914537+34629-118083FM-15+0787KPMD V0202705N001552200059N0160935N5+00285+00065102255ADDAA101000095GA1005+999999999GD10991+9999999GF100991999999999999999999MA1102245093065MD1390059+9999REMMET10101/09/19 06:53:02 METAR KPMD 091453Z 27003KT 10SM CLR 03/01 A3019 RMK AO2 SLP225 T00280006 53005 (TJ)
0190723820231822019010915537+34629-118083FM-15+0787KPMD V0201705N003652200059N0160935N5+00335+00115102275ADDAA101000095GA1005+999999999GD10991+9999999GF100991999999999999999999MA1102245093065REMMET09501/09/19 07:53:02 METAR KPMD 091553Z 17007KT 10SM CLR 03/01 A3019 RMK AO2 SLP227 T00330011 (TJ)
0190723820231822019010916537+34629-118083FM-15+0787KPMD V0209999C000052200059N0160935N5+00785+00335102295ADDAA101000095GA1005+999999999GD10991+9999999GF100991999999999999999999MA1102305093125REMMET09501/09/19 08:53:02 METAR KPMD 091653Z 00000KT 10SM CLR 08/03 A3021 RMK AO2 SLP229 T00780033 (TJ)
0248723820231822019010917537+34629-118083FM-15+0787KPMD V0209999C000052200059N0160935N5+01065+00395102255ADDAA101000095GA1005+999999999GD10991+9999999GF100991999999999999999999KA1060M+01061KA2060N+00111MA1102275093095MD1090039+9999REMMET11301/09/19 09:53:02 METAR KPMD 091753Z 00000KT 10SM CLR 11/04 A3020 RMK AO2 SLP225 T01060039 10106 20011 50003 (TJ)
0190723820231822019010918537+34629-118083FM-15+0787KPMD V0203305N001552200059N0160935N5+01225+00395102135ADDAA101000095GA1005+999999999GD10991+9999999GF100991999999999999999999MA1102175093005REMMET09501/09/19 10:53:02 METAR KPMD 091853Z 33003KT 10SM CLR 12/04 A3017 RMK AO2 SLP213 T01220039 (TJ)
0190723820231822019010919537+34629-118083FM-15+0787KPMD V0209999V001552200059N0160935N5+01285+00395102015ADDAA101000095GA1005+999999999GD10991+9999999GF100991999999999999999999MA1102035092875REMMET09501/09/19 11:53:02 METAR KPMD 091953Z VRB03KT 10SM CLR 13/04 A3013 RMK AO2 SLP201 T01280039 (TJ)
0210723820231822019010920537+34629-118083FM-15+0787KPMD V0209999C000052200059N0160935N5+01445+00395101885ADDAA101000095GA1005+999999999GD10991+9999999GF100991999999999999999999MA1101935092785MD1790319+9999REMMET10101/09/19 12:53:02 METAR KPMD 092053Z 00000KT 10SM CLR 14/04 A3010 RMK AO2 SLP188 T01440039 57031 (TJ)
0190723820231822019010921537+34629-118083FM-15+0787KPMD V0209999C000052200059N0160935N5+01565+00335101865ADDAA101000095GA1005+999999999GD10991+9999999GF100991999999999999999999MA1101905092745REMMET09501/09/19 13:53:02 METAR KPMD 092153Z 00000KT 10SM CLR 16/03 A3009 RMK AO2 SLP186 T01560033 (TJ)
0190723820231822019010922537+34629-118083FM-15+0787KPMD V0209999C000052200059N0160935N5+01565+00335101815ADDAA101000095GA1005+999999999GD10991+9999999GF100991999999999999999999MA1101835092685REMMET09501/09/19 14:53:02 METAR KPMD 092253Z 00000KT 10SM CLR 16/03 A3007 RMK AO2 SLP181 T01560033 (DG)
0248723820231822019010923537+34629-118083FM-15+0787KPMD V0209999C000052200059N0160935N5+01565+00335101885ADDAA101000095GA1005+999999999GD10991+9999999GF100991999999999999999999KA1060M+01671KA2060N+01061MA1101905092745MD1590019+9999REMMET11301/09/19 15:53:02 METAR KPMD 092353Z 00000KT 10SM CLR 16/03 A3009 RMK AO2 SLP188 T01560033 10167 20106 55001 (DG)
0152723820231822019011000516+34629-118083FM-16+0787KPMD V0202905N007752200059N0160935N5+01405+00405999999ADDGA1005+999999999GD10991+9999999MA1102005092845REMMET09401/09/19 16:51:03 SPECI KPMD 100051Z 29015KT 10SM CLR 14/04 A3012 RMK AO2 WSHFT 0036 FIBI (DG)
0196723820231822019011000537+34629-118083FM-15+0787KPMD V0202905N007752200059N0160935N5+01335+00445101985ADDAA101000095GA1005+999999999GD10991+9999999GF100991999999999999999999MA1102005092845REMMET10101/09/19 16:53:01 METAR KPMD 100053Z 29015KT 10SM CLR 13/04 A3012 RMK AO2 WSHFT 0036 SLP198 T01330044
0185723820231822019011001537+34629-118083FM-15+0787KPMD V0202805N006252200059N0160935N5+01225+00395102045ADDAA101000095GA1005+999999999GD10991+9999999GF100991999999999999999999MA1102035092875REMMET09001/09/19 17:53:01 METAR KPMD 100153Z 28012KT 10SM CLR 12/04 A3013 RMK AO2 SLP204 T01220039
0249723820231822019011002537+34629-118083FM-15+0787KPMD V0202905N002652200059N0160935N5+01005+00445102105ADDAA101000095GA1025+036585999GD11991+0365859GE19AGL   +99999+99999GF102995999999036581999999MA1102105092935MD1190169+9999REMMET09901/09/19 18:53:01 METAR KPMD 100253Z 29005KT 10SM FEW120 10/04 A3015 RMK AO2 SLP210 T01000044 51016EQDD01      0ADE726
0267723820231822019011003537+34629-118083FM-15+0787KPMD V0201705N004152200059N0160935N5+01005+00505102055ADDAA101000095GA1045+019815999GA2045+036585999GD12991+0198159GD22991+0365859GE19AGL   +99999+99999GF104995999999019811999999MA1102035092875REMMET10001/09/19 19:53:01 METAR KPMD 100353Z 17008KT 10SM SCT065 SCT120 10/05 A3013 RMK AO2 SLP205 T01000050EQDD01      0ADE726
0210723820231822019011004537+34629-118083FM-15+0787KPMD V0201505N00265036585MN0160935N5+01115+00445102005ADDAA101000095GA1085+036585999GD14991+0365859GE19AGL   +99999+99999GF199999999999036581999999MA1102035092875REMMET09301/09/19 20:53:02 METAR KPMD 100453Z 15005KT 10SM OVC120 11/04 A3013 RMK AO2 SLP200 T01110044
0287723820231822019011005537+34629-118083FM-15+0787KPMD V0202105N002652200059N0160935N5+00895+00445101995ADDAA101000095GA1025+033535999GD11991+0335359GE19AGL   +99999+99999GF102995999999033531999999KA1060M+01611KA2060N+00891MA1102035092875MD1690059+9999REMMET11101/09/19 21:53:02 METAR KPMD 100553Z 21005KT 10SM FEW110 09/04 A3013 RMK AO2 SLP199 T00890044 10161 20089 56005EQDD01      0ADE726
0185723820231822019011006537+34629-118083FM-15+0787KPMD V0201805N003152200059N0160935N5+00945+00445101955ADDAA101000095GA1005+999999999GD10991+9999999GF100991999999999999999999MA1102005092845REMMET09001/09/19 22:53:02 METAR KPMD 100653Z 18006KT 10SM CLR 09/04 A3012 RMK AO2 SLP195 T00940044
0221723820231822019011007537+34629-118083FM-15+0787KPMD V0209999C000052200059N0160935N5+00725+00285101915ADDAA101000095GA1005+999999999GD10991+9999999GF100991999999999999999999KA1240M+01671KA2240N+00111MA1101965092815REMMET10001/09/19 23:53:02 METAR KPMD 100753Z 00000KT 10SM CLR 07/03 A3011 RMK AO2 SLP191 T00720028 401670011
0899723820231822019011007596+34629-118083SOD  +0787KPMD V020999999999999999999999999999+99999+99999999999ADDAA124000095AJ100009599999999AL12400095AN1024000095KA1240M+01675KA2240N+00115MG1092924101794OE11240107330099995OE22240093930099995OE33240020699999995REMSOD73924 HR PRECIPITATION (IN): 0.00 SNOW DEPTH (IN):0     24 HR SNOWFALL (IN):0.0  24 HR MAX TEMP (F): 6224 HR MIN TEMP (F): 34AVERAGE STATION PRESSURE:27.440 MINIMUM SEA LEVEL PRESSURE:30.06 TIME OF OCCURRENCE:1525 PEAK WIND SPEED (MPH): 24 PEAK WIND DIR (DEG):300 PEAK WIND TIME (LST):      FASTEST 2MIN SPEED (MPH): 21FASTEST 2MIN DIR (DEG):300 FASTEST 2MIN TIME (LST):     AVERAGE WIND SPEED (MPH): 4.6 24 HR AVG TEMP (F): 48DEPART FROM NORMAL:  4  HEATING DEGREE DAYS: 17 COOLING DEGREE DAYS:  0 LATEST DAY MAX TEMP (0700-1900 LST):62  LATEST NIGHT MIN TEMP(1900-0800 LST):34 HOURLY INCREMENTAL PRECIPITATION VALUES (IN):.00 0.00 0.00 0.00 0.00 0.00 0.00 0.00 0.00 0.00 0.00 0.00 0.00 0.00 0.00 0.00 0.00 0.00 0.00 0.00 0.00 0.00 0.00 0.00
0205723820231822019011008537+34629-118083FM-15+0787KPMD V0202705N003652200059N0160935N5+00615+00335101985ADDAA101000095GA1005+999999999GD10991+9999999GF100991999999999999999999MA1102035092875MD1590009+9999REMMET09601/10/19 00:53:02 METAR KPMD 100853Z 27007KT 10SM CLR 06/03 A3013 RMK AO2 SLP198 T00610033 55000
0185723820231822019011009537+34629-118083FM-15+0787KPMD V0202105N003152200059N0160935N5+00565+00285102025ADDAA101000095GA1005+999999999GD10991+9999999GF100991999999999999999999MA1102075092905REMMET09001/10/19 01:53:02 METAR KPMD 100953Z 21006KT 10SM CLR 06/03 A3014 RMK AO2 SLP202 T00560028
0185723820231822019011010537+34629-118083FM-15+0787KPMD V0201905N002152200059N0160935N5+00505+00225101975ADDAA101000095GA1005+999999999GD10991+9999999GF100991999999999999999999MA1102035092875REMMET09001/10/19 02:53:02 METAR KPMD 101053Z 19004KT 10SM CLR 05/02 A3013 RMK AO2 SLP197 T00500022
0243723820231822019011011537+34629-118083FM-15+0787KPMD V0201305N001552200059N0160935N5+00335+00115101955ADDAA101000095GA1005+999999999GD10991+9999999GF100991999999999999999999KA1060M+01001KA2060N+00331MA1102005092845MD1890049+9999REMMET10801/10/19 03:53:02 METAR KPMD 101153Z 13003KT 10SM CLR 03/01 A3012 RMK AO2 SLP195 T00330011 10100 20033 58004
0185723820231822019011012537+34629-118083FM-15+0787KPMD V0202005N001552200059N0160935N5+00335+00175101995ADDAA101000095GA1005+999999999GD10991+9999999GF100991999999999999999999MA1102005092845REMMET09001/10/19 04:53:02 METAR KPMD 101253Z 20003KT 10SM CLR 03/02 A3012 RMK AO2 SLP199 T00330017
0190723820231822019011013537+34629-118083FM-15+0787KPMD V0202505N002652200059N0160935N5+00395+00175102065ADDAA101000095GA1005+999999999GD10991+9999999GF100991999999999999999999MA1102075092905REMMET09501/10/19 05:53:02 METAR KPMD 101353Z 25005KT 10SM CLR 04/02 A3014 RMK AO2 SLP206 T00390017 (EC)
0210723820231822019011014537+34629-118083FM-15+0787KPMD V0201905N004152200059N0160935N5+00335+00175102085ADDAA101000095GA1005+999999999GD10991+9999999GF100991999999999999999999MA1102075092905MD1090089+9999REMMET10101/10/19 06:53:02 METAR KPMD 101453Z 19008KT 10SM CLR 03/02 A3014 RMK AO2 SLP208 T00330017 50008 (EC)
0190723820231822019011015537+34629-118083FM-15+0787KPMD V0201905N002152200059N0160935N5+00445+00225102095ADDAA101000095GA1005+999999999GD10991+9999999GF100991999999999999999999MA1102105092935REMMET09501/10/19 07:53:02 METAR KPMD 101553Z 19004KT 10SM CLR 04/02 A3015 RMK AO2 SLP209 T00440022 (EC)
0190723820231822019011016537+34629-118083FM-15+0787KPMD V0209999C000052200059N0160935N5+00835+00445102105ADDAA101000095GA1005+999999999GD10991+9999999GF100991999999999999999999MA1102135092965REMMET09501/10/19 08:53:02 METAR KPMD 101653Z 00000KT 10SM CLR 08/04 A3016 RMK AO2 SLP210 T00830044 (EC)
0248723820231822019011017537+34629-118083FM-15+0787KPMD V0200905N002652200059N0160935N5+01225+00565102105ADDAA101000095GA1005+999999999GD10991+9999999GF100991999999999999999999KA1060M+01221KA2060N+00171MA1102175093005MD1290079+9999REMMET11301/10/19 09:53:02 METAR KPMD 101753Z 09005KT 10SM CLR 12/06 A3017 RMK AO2 SLP210 T01220056 10122 20017 52007 (EC)
0190723820231822019011018537+34629-118083FM-15+0787KPMD V0200505N002152200059N0160935N5+01395+00445102065ADDAA101000095GA1005+999999999GD10991+9999999GF100991999999999999999999MA1102135092965REMMET09501/10/19 10:53:02 METAR KPMD 101853Z 05004KT 10SM CLR 14/04 A3016 RMK AO2 SLP206 T01390044 (EC)
0190723820231822019011019537+34629-118083FM-15+0787KPMD V0209999V002152200059N0160935N5+01445+00335101975ADDAA101000095GA1005+999999999GD10991+9999999GF100991999999999999999999MA1102035092875REMMET09501/10/19 11:53:02 METAR KPMD 101953Z VRB04KT 10SM CLR 14/03 A3013 RMK AO2 SLP197 T01440033 (EC)
0210723820231822019011020537+34629-118083FM-15+0787KPMD V0200305N002652200059N0160935N5+01505+00285101905ADDAA101000095GA1005+999999999GD10991+9999999GF100991999999999999999999MA1101965092815MD1890189+9999REMMET10101/10/19 12:53:02 METAR KPMD 102053Z 03005KT 10SM CLR 15/03 A3011 RMK AO2 SLP190 T01500028 58018 (EC)
0190723820231822019011021537+34629-118083FM-15+0787KPMD V0209999V002652200059N0160935N5+01615+00225101875ADDAA101000095GA1005+999999999GD10991+9999999GF100991999999999999999999MA1101935092785REMMET09501/10/19 13:53:02 METAR KPMD 102153Z VRB05KT 10SM CLR 16/02 A3010 RMK AO2 SLP187 T01610022 (AD)
0190723820231822019011022537+34629-118083FM-15+0787KPMD V0209999C000052200059N0160935N5+01615+00175101885ADDAA101000095GA1005+999999999GD10991+9999999GF100991999999999999999999MA1101935092785REMMET09501/10/19 14:53:02 METAR KPMD 102253Z 00000KT 10SM CLR 16/02 A3010 RMK AO2 SLP188 T01610017 (AD)
0248723820231822019011023537+34629-118083FM-15+0787KPMD V0209999C000052200059N0160935N5+01615+00115101905ADDAA101000095GA1005+999999999GD10991+9999999GF100991999999999999999999KA1060M+01671KA2060N+01221MA1101935092785MD1590019+9999REMMET11301/10/19 15:53:02 METAR KPMD 102353Z 00000KT 10SM CLR 16/01 A3010 RMK AO2 SLP190 T01610011 10167 20122 55001 (AD)
0185723820231822019011100537+34629-118083FM-15+0787KPMD V0200605N002152200059N0160935N5+01395+00115101935ADDAA101000095GA1005+999999999GD10991+9999999GF100991999999999999999999MA1101965092815REMMET09001/10/19 16:53:01 METAR KPMD 110053Z 06004KT 10SM CLR 14/01 A3011 RMK AO2 SLP193 T01390011
0185723820231822019011101537+34629-118083FM-15+0787KPMD V0209999C000052200059N0160935N5+01115+00115101985ADDAA101000095GA1005+999999999GD10991+9999999GF100991999999999999999999MA1102005092845REMMET09001/10/19 17:53:01 METAR KPMD 110153Z 00000KT 10SM CLR 11/01 A3012 RMK AO2 SLP198 T01110011
0205723820231822019011102537+34629-118083FM-15+0787KPMD V0202105N003152200059N0160935N5+00785+00115102025ADDAA101000095GA1005+999999999GD10991+9999999GF100991999999999999999999MA1102005092845MD1090049+9999REMMET09601/10/19 18:53:01 METAR KPMD 110253Z 21006KT 10SM CLR 08/01 A3012 RMK AO2 SLP202 T00780011 50004
0185723820231822019011103537+34629-118083FM-15+0787KPMD V0202005N003652200059N0160935N5+00725+00115102035ADDAA101000095GA1005+999999999GD10991+9999999GF100991999999999999999999MA1102005092845REMMET09001/10/19 19:53:01 METAR KPMD 110353Z 20007KT 10SM CLR 07/01 A3012 RMK AO2 SLP203 T00720011
0185723820231822019011104537+34629-118083FM-15+0787KPMD V0202005N002152200059N0160935N5+00675+00115102035ADDAA101000095GA1005+999999999GD10991+9999999GF100991999999999999999999MA1102035092875REMMET09001/10/19 20:53:01 METAR KPMD 110453Z 20004KT 10SM CLR 07/01 A3013 RMK AO2 SLP203 T00670011
0243723820231822019011105537+34629-118083FM-15+0787KPMD V0202805N001552200059N0160935N5+00615+00115102045ADDAA101000095GA1005+999999999GD10991+9999999GF100991999999999999999999KA1060M+01611KA2060N+00611MA1102075092905MD1390089+9999REMMET10801/10/19 21:53:01 METAR KPMD 110553Z 28003KT 10SM CLR 06/01 A3014 RMK AO2 SLP204 T00610011 10161 20061 53008
0185723820231822019011106537+34629-118083FM-15+0787KPMD V0209999C000052200059N0160935N5+00395+00005102045ADDAA101000095GA1005+999999999GD10991+9999999GF100991999999999999999999MA1102075092905REMMET09001/10/19 22:53:01 METAR KPMD 110653Z 00000KT 10SM CLR 04/00 A3014 RMK AO2 SLP204 T00390000
0221723820231822019011107537+34629-118083FM-15+0787KPMD V0202005N003152200059N0160935N5+00335+00005102005ADDAA101000095GA1005+999999999GD10991+9999999GF100991999999999999999999KA1240M+01671KA2240N+00171MA1102035092875REMMET10001/10/19 23:53:02 METAR KPMD 110753Z 20006KT 10SM CLR 03/00 A3013 RMK AO2 SLP200 T00330000 401670017
0899723820231822019011107596+34629-118083SOD  +0787KPMD V020999999999999999999999999999+99999+99999999999ADDAA124000095AJ100009599999999AL12400095AN1024000095KA1240M+01675KA2240N+00175MG1092874101864OE11240053636099995OE22240053622099995OE33240020199999995REMSOD73924 HR PRECIPITATION (IN): 0.00 SNOW DEPTH (IN):0     24 HR SNOWFALL (IN):0.0  24 HR MAX TEMP (F): 6224 HR MIN TEMP (F): 35AVERAGE STATION PRESSURE:27.425 MINIMUM SEA LEVEL PRESSURE:30.08 TIME OF OCCURRENCE:1540 PEAK WIND SPEED (MPH): 12 PEAK WIND DIR (DEG):360 PEAK WIND TIME (LST):      FASTEST 2MIN SPEED (MPH): 12FASTEST 2MIN DIR (DEG):220 FASTEST 2MIN TIME (LST):     AVERAGE WIND SPEED (MPH): 4.5 24 HR AVG TEMP (F): 49DEPART FROM NORMAL:  4  HEATING DEGREE DAYS: 16 COOLING DEGREE DAYS:  0 LATEST DAY MAX TEMP (0700-1900 LST):62  LATEST NIGHT MIN TEMP(1900-0800 LST):35 HOURLY INCREMENTAL PRECIPITATION VALUES (IN):.00 0.00 0.00 0.00 0.00 0.00 0.00 0.00 0.00 0.00 0.00 0.00 0.00 0.00 0.00 0.00 0.00 0.00 0.00 0.00 0.00 0.00 0.00 0.00
0205723820231822019011108537+34629-118083FM-15+0787KPMD V0202005N003652200059N0160935N5+00335+00005102005ADDAA101000095GA1005+999999999GD10991+9999999GF100991999999999999999999MA1102035092875MD1590039+9999REMMET09601/11/19 00:53:02 METAR KPMD 110853Z 20007KT 10SM CLR 03/00 A3013 RMK AO2 SLP200 T00330000 55003
0186723820231822019011109537+34629-118083FM-15+0787KPMD V0209999C000052200059N0160935N5+00175-00115102045ADDAA101000095GA1005+999999999GD10991+9999999GF100991999999999999999999MA1102075092905REMMET09101/11/19 01:53:02 METAR KPMD 110953Z 00000KT 10SM CLR 02/M01 A3014 RMK AO2 SLP204 T00171011
0186723820231822019011110537+34629-118083FM-15+0787KPMD V0202105N002152200059N0160935N5+00175-00115102005ADDAA101000095GA1005+999999999GD10991+9999999GF100991999999999999999999MA1102035092875REMMET09101/11/19 02:53:02 METAR KPMD 111053Z 21004KT 10SM CLR 02/M01 A3013 RMK AO2 SLP200 T00171011
0244723820231822019011111537+34629-118083FM-15+0787KPMD V0209999C000052200059N0160935N5+00115-00175101955ADDAA101000095GA1005+999999999GD10991+9999999GF100991999999999999999999KA1060M+00671KA2060N+00111MA1102005092845MD1890059+9999REMMET10901/11/19 03:53:02 METAR KPMD 111153Z 00000KT 10SM CLR 01/M02 A3012 RMK AO2 SLP195 T00111017 10067 20011 58005
0186723820231822019011112537+34629-118083FM-15+0787KPMD V0202005N002152200059N0160935N5+00065-00175101985ADDAA101000095GA1005+999999999GD10991+9999999GF100991999999999999999999MA1101965092815REMMET09101/11/19 04:53:02 METAR KPMD 111253Z 20004KT 10SM CLR 01/M02 A3011 RMK AO2 SLP198 T00061017
0191723820231822019011113537+34629-118083FM-15+0787KPMD V0209999C000052200059N0160935N5+00115-00175102005ADDAA101000095GA1005+999999999GD10991+9999999GF100991999999999999999999MA1102005092845REMMET09601/11/19 05:53:02 METAR KPMD 111353Z 00000KT 10SM CLR 01/M02 A3012 RMK AO2 SLP200 T00111017 (DG)
0211723820231822019011114537+34629-118083FM-15+0787KPMD V0202605N001552200059N0160935N5+00065-00175102065ADDAA101000095GA1005+999999999GD10991+9999999GF100991999999999999999999MA1102005092845MD1390029+9999REMMET10201/11/19 06:53:02 METAR KPMD 111453Z 26003KT 10SM CLR 01/M02 A3012 RMK AO2 SLP206 T00061017 53002 (DG)
0190723820231822019011115537+34629-118083FM-15+0787KPMD V0209999C000052200059N0160935N5+00285+00005102075ADDAA101000095GA1005+999999999GD10991+9999999GF100991999999999999999999MA1102035092875REMMET09501/11/19 07:53:02 METAR KPMD 111553Z 00000KT 10SM CLR 03/00 A3013 RMK AO2 SLP207 T00280000 (DG)
0190723820231822019011116537+34629-118083FM-15+0787KPMD V0209999C000052200059N0160935N5+00445+00115102125ADDAA101000095GA1005+999999999GD10991+9999999GF100991999999999999999999MA1102105092935REMMET09501/11/19 08:53:02 METAR KPMD 111653Z 00000KT 10SM CLR 04/01 A3015 RMK AO2 SLP212 T00440011 (DG)
0248723820231822019011117537+34629-118083FM-15+0787KPMD V0209999C000052200059N0160935N5+00565+00175102175ADDAA101000095GA1005+999999999GD10991+9999999GF100991999999999999999999KA1060M+00561KA2060N+00061MA1102135092965MD1390139+9999REMMET11301/11/19 09:53:02 METAR KPMD 111753Z 00000KT 10SM CLR 06/02 A3016 RMK AO2 SLP217 T00560017 10056 20006 53013 (DG)
0190723820231822019011118537+34629-118083FM-15+0787KPMD V0203305N001552200059N0160935N5+00895+00225102095ADDAA101000095GA1005+999999999GD10991+9999999GF100991999999999999999999MA1102075092905REMMET09501/11/19 10:53:02 METAR KPMD 111853Z 33003KT 10SM CLR 09/02 A3014 RMK AO2 SLP209 T00890022 (DG)
0190723820231822019011119537+34629-118083FM-15+0787KPMD V0209999V001552200059N0160935N5+01005+00175101975ADDAA101000095GA1005+999999999GD10991+9999999GF100991999999999999999999MA1101965092815REMMET09501/11/19 11:53:02 METAR KPMD 111953Z VRB03KT 10SM CLR 10/02 A3011 RMK AO2 SLP197 T01000017 (DG)
0210723820231822019011120537+34629-118083FM-15+0787KPMD V0200505N002152200059N0160935N5+01115+00175101815ADDAA101000095GA1005+999999999GD10991+9999999GF100991999999999999999999MA1101835092685MD1890319+9999REMMET10101/11/19 12:53:02 METAR KPMD 112053Z 05004KT 10SM CLR 11/02 A3007 RMK AO2 SLP181 T01110017 58031 (EC)
0190723820231822019011121537+34629-118083FM-15+0787KPMD V0209999C000052200059N0160935N5+01285+00175101795ADDAA101000095GA1005+999999999GD10991+9999999GF100991999999999999999999MA1101795092655REMMET09501/11/19 13:53:02 METAR KPMD 112153Z 00000KT 10SM CLR 13/02 A3006 RMK AO2 SLP179 T01280017 (EC)
0190723820231822019011122537+34629-118083FM-15+0787KPMD V0209999C000052200059N0160935N5+01395+00175101725ADDAA101000095GA1005+999999999GD10991+9999999GF100991999999999999999999MA1101735092595REMMET09501/11/19 14:53:02 METAR KPMD 112253Z 00000KT 10SM CLR 14/02 A3004 RMK AO2 SLP172 T01390017 (EC)
0248723820231822019011123537+34629-118083FM-15+0787KPMD V0209999C000052200059N0160935N5+01335+00175101705ADDAA101000095GA1005+999999999GD10991+9999999GF100991999999999999999999KA1060M+01391KA2060N+00561MA1101695092565MD1890109+9999REMMET11301/11/19 15:53:02 METAR KPMD 112353Z 00000KT 10SM CLR 13/02 A3003 RMK AO2 SLP170 T01330017 10139 20056 58010 (BO)
0185723820231822019011200537+34629-118083FM-15+0787KPMD V0209999C000052200059N0160935N5+01225+00175101675ADDAA101000095GA1005+999999999GD10991+9999999GF100991999999999999999999MA1101665092535REMMET09001/11/19 16:53:01 METAR KPMD 120053Z 00000KT 10SM CLR 12/02 A3002 RMK AO2 SLP167 T01220017
0185723820231822019011201537+34629-118083FM-15+0787KPMD V0209999C000052200059N0160935N5+01065+00175101675ADDAA101000095GA1005+999999999GD10991+9999999GF100991999999999999999999MA1101665092535REMMET09001/11/19 17:53:01 METAR KPMD 120153Z 00000KT 10SM CLR 11/02 A3002 RMK AO2 SLP167 T01060017
0205723820231822019011202537+34629-118083FM-15+0787KPMD V0202205N003152200059N0160935N5+00615+00065101705ADDAA101000095GA1005+999999999GD10991+9999999GF100991999999999999999999MA1101635092495MD1690079+9999REMMET09601/11/19 18:53:01 METAR KPMD 120253Z 22006KT 10SM CLR 06/01 A3001 RMK AO2 SLP170 T00610006 56007
0185723820231822019011203537+34629-118083FM-15+0787KPMD V0202005N003652200059N0160935N5+00615+00065101625ADDAA101000095GA1005+999999999GD10991+9999999GF100991999999999999999999MA1101565092435REMMET09001/11/19 19:53:01 METAR KPMD 120353Z 20007KT 10SM CLR 06/01 A2999 RMK AO2 SLP162 T00610006
