0191723820231822021010100537+34629-118083FM-15+0787KPMD V0202905N004152200059N0160935N5+00835-00065101575ADDAA101000095GA1005+999999999GD10991+9999999GF100991999999999999999999MA1101595092465REMMET09612/31/20 16:53:03 METAR KPMD 010053Z 29008KT 10SM CLR 08/M01 A3000 RMK AO2 SLP157 T00831006 (KC)
0191723820231822021010101537+34629-118083FM-15+0787KPMD V0209999C000052200059N0160935N5+00725-00065101675ADDAA101000095GA1005+999999999GD10991+9999999GF100991999999999999999999MA1101665092535REMMET09612/31/20 17:53:03 METAR KPMD 010153Z 00000KT 10SM CLR 07/M01 A3002 RMK AO2 SLP167 T00721006 (KC)
0211723820231822021010102537+34629-118083FM-15+0787KPMD V0209999C000052200059N0160935N5+00505-00065101775ADDAA101000095GA1005+999999999GD10991+9999999GF100991999999999999999999MA1101765092625MD1390159+9999REMMET10212/31/20 18:53:03 METAR KPMD 010253Z 00000KT 10SM CLR 05/M01 A3005 RMK AO2 SLP177 T00501006 53015 (BO)
0191723820231822021010103537+34629-118083FM-15+0787KPMD V0200805N001552200059N0160935N5+00505-00115101755ADDAA101000095GA1005+999999999GD10991+9999999GF100991999999999999999999MA1101735092595REMMET09612/31/20 19:53:03 METAR KPMD 010353Z 08003KT 10SM CLR 05/M01 A3004 RMK AO2 SLP175 T00501011 (BO)
0191723820231822021010104537+34629-118083FM-15+0787KPMD V0209999C000052200059N0160935N5+00225-00115101795ADDAA101000095GA1005+999999999GD10991+9999999GF100991999999999999999999MA1101765092625REMMET09612/31/20 20:53:03 METAR KPMD 010453Z 00000KT 10SM CLR 02/M01 A3005 RMK AO2 SLP179 T00221011 (BO)
0248723820231822021010105537+34629-118083FM-15+0787KPMD V0201605N001552200059N0144845N5+00175-00175101835ADDAA101000095GA1005+999999999GD10991+9999999GF100991999999999999999999KA1060M+01111KA2060N+00061MA1101795092655MD1390069+9999REMMET11312/31/20 21:53:03 METAR KPMD 010553Z 16003KT 9SM CLR 02/M02 A3006 RMK AO2 SLP183 T00171017 10111 20006 53006 (BO)
0186723820231822021010106537+34629-118083FM-15+0787KPMD V0202705N001552200059N0160935N5+00285-00175101865ADDAA101000095GA1005+999999999GD10991+9999999GF100991999999999999999999MA1101865092715REMMET09112/31/20 22:53:03 METAR KPMD 010653Z 27003KT 10SM CLR 03/M02 A3008 RMK AO2 SLP186 T00281017
0222723820231822021010107537+34629-118083FM-15+0787KPMD V0200805N001552200059N0160935N5+00335-00285101845ADDAA101000095GA1005+999999999GD10991+9999999GF100991999999999999999999KA1240M+01221KA2240N+00061MA1101865092715REMMET10112/31/20 23:53:03 METAR KPMD 010753Z 08003KT 10SM CLR 03/M03 A3008 RMK AO2 SLP184 T00331028 401220006
0813723820231822021010107596+34629-118083SOD  +0787KPMD V020999999999999999999999999999+99999+99999999999ADDAA124000095KA1240M+01225KA2240N+00065MG1092534101494OE11240187828099995OE22240143128099995OE33240046999999995REMSOD69224 HR PRECIPITATION (IN): 0.00 24 HR MAX TEMP (F): 5424 HR MIN TEMP (F): 33AVERAGE STATION PRESSURE:27.325 MINIMUM SEA LEVEL PRESSURE:29.97 TIME OF OCCURRENCE:0742 PEAK WIND SPEED (MPH): 42 PEAK WIND DIR (DEG):280 PEAK WIND TIME (LST):      FASTEST 2MIN SPEED (MPH): 32FASTEST 2MIN DIR (DEG):280 FASTEST 2MIN TIME (LST):     AVERAGE WIND SPEED (MPH):10.5 24 HR AVG TEMP (F): 44DEPART FROM NORMAL:  0  HEATING DEGREE DAYS: 21 COOLING DEGREE DAYS:  0 LATEST DAY MAX TEMP (0700-1900 LST):54  LATEST NIGHT MIN TEMP(1900-0800 LST):36 HOURLY INCREMENTAL PRECIPITATION VALUES (IN):.00 0.00 0.00 0.00 0.00 0.00 0.00 0.00 0.00 0.00 0.00 0.00 0.00 0.00 0.00 0.00 0.00 0.00 0.00 0.00 0.00 0.00 0.00 0.00
1240723820231822021010107596+34629-118083SOM  +0787KPMD V020999999999999999999999999999+99999+99999999999ADDAB10014096AD10013292828999999995AE1025015015005AH1005001592801055AH2010001892801115AH3015002592801155AH4020003092801195AH5030004392801295AH6045005392801445AI1060006692802015AI2080007492802135AI3100007492802135AI4120007492802135AI5150007492802135AI6180007492802135KB1744N-00945KB2744M+15945KB3744A+07505KC1N9-00610499995KC2M9+02222299995KD1744H05975KD2744C00005KE1005005215005MH1093014102174MK1103152410595100782805165REMSOM792PCP MTOT:0.55 PCP GT 24HRS:0.52 DATE(S):28 DAYS W/PCP >=.01:2  DAYS W/PCP >=.10:1  DAYS W/ PCP >=.50:1 DAYS W/PCP >=1.00:0 MSDP AMTS W/DATE-TIME TAGS:MIN:5 0.06  28/0105 MIN:10 0.07  28/0111 MIN:15 0.10  28/0115 MIN:20 0.12  28/0119 MIN:30 0.17  28/0129 MIN:45 0.21  28/0144 MIN:60 0.26  28/0201 MIN:80 0.29  28/0213 MIN:100 0.29  28/0213 MIN:120 0.29  28/0213 MIN:150 0.29  28/0213 MIN:180 0.29  28/0213 AVG DLY MIN:30.3  AVG DLY MAX:60.7  AVG MLY TMP:45.5  MIN TMP:21 DATE(S):04 MAX TMP:72  DATE(S):22 DAYS MAX <=32:0 DAYS MAX >=90:0  DAYS MIN <=32:21 DAYS MIN  <=0:0  AVG STP:27.465 LWST SLP:29.76 DATE/TIME:280516 HGST SLP:30.46 DATE/TIME:241059 HDD MTH TOT:597 DEP NORM:-2553 SEASON(JUL 1-JUN 30):998 DEP NORM:-25536 CDD MTH TOT:0 DEP NORM:-2553 SEASON(JAN 1-DEC 31):2321 DEP NORM:-25536EQDR01  0.557ABP070
0206723820231822021010108537+34629-118083FM-15+0787KPMD V0200605N001552200059N0160935N5+00505-00445101835ADDAA101000095GA1005+999999999GD10991+9999999GF100991999999999999999999MA1101865092715MD1090049+9999REMMET09701/01/21 00:53:02 METAR KPMD 010853Z 06003KT 10SM CLR 05/M04 A3008 RMK AO2 SLP183 T00501044 50004
0186723820231822021010109537+34629-118083FM-15+0787KPMD V0209999C000052200059N0160935N5+00445-00445101875ADDAA101000095GA1005+999999999GD10991+9999999GF100991999999999999999999MA1101905092745REMMET09101/01/21 01:53:02 METAR KPMD 010953Z 00000KT 10SM CLR 04/M04 A3009 RMK AO2 SLP187 T00441044
0186723820231822021010110537+34629-118083FM-15+0787KPMD V0209999V001552200059N0160935N5+00615-00505101905ADDAA101000095GA1005+999999999GD10991+9999999GF100991999999999999999999MA1101935092785REMMET09101/01/21 02:53:02 METAR KPMD 011053Z VRB03KT 10SM CLR 06/M05 A3010 RMK AO2 SLP190 T00611050
0244723820231822021010111537+34629-118083FM-15+0787KPMD V0202805N003152200059N0160935N5+00115-00445101995ADDAA101000095GA1005+999999999GD10991+9999999GF100991999999999999999999KA1060M+00611KA2060N+00061MA1101965092815MD1190119+9999REMMET10901/01/21 03:53:02 METAR KPMD 011153Z 28006KT 10SM CLR 01/M04 A3011 RMK AO2 SLP199 T00111044 10061 20006 51011
0186723820231822021010112537+34629-118083FM-15+0787KPMD V0200405N002652200059N0160935N5+00285-00505102035ADDAA101000095GA1005+999999999GD10991+9999999GF100991999999999999999999MA1102005092845REMMET09101/01/21 04:53:02 METAR KPMD 011253Z 04005KT 10SM CLR 03/M05 A3012 RMK AO2 SLP203 T00281050
0191723820231822021010113537+34629-118083FM-15+0787KPMD V0201805N003152200059N0160935N5+00005-00505102115ADDAA101000095GA1005+999999999GD10991+9999999GF100991999999999999999999MA1102075092905REMMET09601/01/21 05:53:02 METAR KPMD 011353Z 18006KT 10SM CLR 00/M05 A3014 RMK AO2 SLP211 T00001050 (DG)
0212723820231822021010114537+34629-118083FM-15+0787KPMD V0200905N002152200059N0160935N5-00115-00565102225ADDAA101000095GA1005+999999999GD10991+9999999GF100991999999999999999999MA1102135092965MD1390149+9999REMMET10301/01/21 06:53:02 METAR KPMD 011453Z 09004KT 10SM CLR M01/M06 A3016 RMK AO2 SLP222 T10111056 53014 (DG)
0191723820231822021010115537+34629-118083FM-15+0787KPMD V0203605N002152200059N0160935N5+00175-00445102285ADDAA101000095GA1005+999999999GD10991+9999999GF100991999999999999999999MA1102205093035REMMET09601/01/21 07:53:02 METAR KPMD 011553Z 36004KT 10SM CLR 02/M04 A3018 RMK AO2 SLP228 T00171044 (DG)
0191723820231822021010116537+34629-118083FM-15+0787KPMD V0203205N002652200059N0160935N5+00565-00335102375ADDAA101000095GA1005+999999999GD10991+9999999GF100991999999999999999999MA1102305093125REMMET09601/01/21 08:53:02 METAR KPMD 011653Z 32005KT 10SM CLR 06/M03 A3021 RMK AO2 SLP237 T00561033 (DG)
0249723820231822021010117537+34629-118083FM-15+0787KPMD V0203405N001552200059N0160935N5+00785-00395102385ADDAA101000095GA1005+999999999GD10991+9999999GF100991999999999999999999KA1060M+00781KA2060N-00171MA1102345093155MD1190209+9999REMMET11401/01/21 09:53:02 METAR KPMD 011753Z 34003KT 10SM CLR 08/M04 A3022 RMK AO2 SLP238 T00781039 10078 21017 51020 (DG)
0191723820231822021010118537+34629-118083FM-15+0787KPMD V0200305N004152200059N0160935N5+01175-00395102305ADDAA101000095GA1005+999999999GD10991+9999999GF100991999999999999999999MA1102305093125REMMET09601/01/21 10:53:02 METAR KPMD 011853Z 03008KT 10SM CLR 12/M04 A3021 RMK AO2 SLP230 T01171039 (DG)
0202723820231822021010119537+34629-118083FM-15+0787KPMD V0200705N006252200059N0160935N5+01285-00615102195ADDAA101000095GA1005+999999999GD10991+9999999GF100991999999999999999999MA1102205093035OC101035REMMET09901/01/21 11:53:02 METAR KPMD 011953Z 07012G20KT 10SM CLR 13/M06 A3018 RMK AO2 SLP219 T01281061 (DG)
0211723820231822021010120537+34629-118083FM-15+0787KPMD V0200605N006752200059N0160935N5+01335-00675102135ADDAA101000095GA1005+999999999GD10991+9999999GF100991999999999999999999MA1102175093005MD1790169+9999REMMET10201/01/21 12:53:02 METAR KPMD 012053Z 06013KT 10SM CLR 13/M07 A3017 RMK AO2 SLP213 T01331067 57016 (DG)
0191723820231822021010121537+34629-118083FM-15+0787KPMD V0200105N003152200059N0160935N5+01395-00675102145ADDAA101000095GA1005+999999999GD10991+9999999GF100991999999999999999999MA1102175093005REMMET09601/01/21 13:53:02 METAR KPMD 012153Z 01006KT 10SM CLR 14/M07 A3017 RMK AO2 SLP214 T01391067 (DG)
0186723820231822021010122537+34629-118083FM-15+0787KPMD V0200105N003152200059N0160935N5+01335-00725102125ADDAA101000095GA1005+999999999GD10991+9999999GF100991999999999999999999MA1102175093005REMMET09101/01/21 14:53:02 METAR KPMD 012253Z 01006KT 10SM CLR 13/M07 A3017 RMK AO2 SLP212 T01331072
0244723820231822021010123537+34629-118083FM-15+0787KPMD V0203605N003652200059N0160935N5+01285-00725102205ADDAA101000095GA1005+999999999GD10991+9999999GF100991999999999999999999KA1060M+01391KA2060N+00781MA1102205093035MD1390039+9999REMMET10901/01/21 15:53:02 METAR KPMD 012353Z 36007KT 10SM CLR 13/M07 A3018 RMK AO2 SLP220 T01281072 10139 20078 53003
0186723820231822021010200537+34629-118083FM-15+0787KPMD V0200105N001552200059N0160935N5+01065-00675102215ADDAA101000095GA1005+999999999GD10991+9999999GF100991999999999999999999MA1102205093035REMMET09101/01/21 16:53:01 METAR KPMD 020053Z 01003KT 10SM CLR 11/M07 A3018 RMK AO2 SLP221 T01061067
0186723820231822021010201537+34629-118083FM-15+0787KPMD V0209999C000052200059N0160935N5+00785-00395102325ADDAA101000095GA1005+999999999GD10991+9999999GF100991999999999999999999MA1102245093065REMMET09101/01/21 17:53:01 METAR KPMD 020153Z 00000KT 10SM CLR 08/M04 A3019 RMK AO2 SLP232 T00781039
0206723820231822021010202537+34629-118083FM-15+0787KPMD V0201905N004152200059N0160935N5+00445-00335102385ADDAA101000095GA1005+999999999GD10991+9999999GF100991999999999999999999MA1102275093095MD1390069+9999REMMET09701/01/21 18:53:01 METAR KPMD 020253Z 19008KT 10SM CLR 04/M03 A3020 RMK AO2 SLP238 T00441033 53006
0186723820231822021010203537+34629-118083FM-15+0787KPMD V0202105N003652200059N0160935N5+00395-00335102395ADDAA101000095GA1005+999999999GD10991+9999999GF100991999999999999999999MA1102305093125REMMET09101/01/21 19:53:01 METAR KPMD 020353Z 21007KT 10SM CLR 04/M03 A3021 RMK AO2 SLP239 T00391033
0186723820231822021010204537+34629-118083FM-15+0787KPMD V0202005N002152200059N0160935N5+00285-00335102375ADDAA101000095GA1005+999999999GD10991+9999999GF100991999999999999999999MA1102305093125REMMET09101/01/21 20:53:02 METAR KPMD 020453Z 20004KT 10SM CLR 03/M03 A3021 RMK AO2 SLP237 T00281033
0244723820231822021010205537+34629-118083FM-15+0787KPMD V0202705N003152200059N0160935N5+00335-00335102415ADDAA101000095GA1005+999999999GD10991+9999999GF100991999999999999999999KA1060M+01281KA2060N+00221MA1102375093185MD1390109+9999REMMET10901/01/21 21:53:02 METAR KPMD 020553Z 27006KT 10SM CLR 03/M03 A3023 RMK AO2 SLP241 T00331033 10128 20022 53010
0186723820231822021010206537+34629-118083FM-15+0787KPMD V0201905N003652200059N0160935N5+00175-00395102385ADDAA101000095GA1005+999999999GD10991+9999999GF100991999999999999999999MA1102375093185REMMET09101/01/21 22:53:02 METAR KPMD 020653Z 19007KT 10SM CLR 02/M04 A3023 RMK AO2 SLP238 T00171039
0222723820231822021010207537+34629-118083FM-15+0787KPMD V0201705N003652200059N0160935N5+00115-00395102325ADDAA101000095GA1005+999999999GD10991+9999999GF100991999999999999999999KA1240M+01391KA2240N-00171MA1102305093125REMMET10101/01/21 23:53:02 METAR KPMD 020753Z 17007KT 10SM CLR 01/M04 A3021 RMK AO2 SLP232 T00111039 401391017
0813723820231822021010207596+34629-118083SOD  +0787KPMD V020999999999999999999999999999+99999+99999999999ADDAA124000095KA1240M+01395KA2240N-00165MG1093044101834OE11240116203099995OE22240107303099995OE33240028699999995REMSOD69224 HR PRECIPITATION (IN): 0.00 24 HR MAX TEMP (F): 5724 HR MIN TEMP (F): 29AVERAGE STATION PRESSURE:27.475 MINIMUM SEA LEVEL PRESSURE:30.07 TIME OF OCCURRENCE:0127 PEAK WIND SPEED (MPH): 26 PEAK WIND DIR (DEG): 30 PEAK WIND TIME (LST):      FASTEST 2MIN SPEED (MPH): 24FASTEST 2MIN DIR (DEG): 30 FASTEST 2MIN TIME (LST):     AVERAGE WIND SPEED (MPH): 6.4 24 HR AVG TEMP (F): 43DEPART FROM NORMAL: -1  HEATING DEGREE DAYS: 22 COOLING DEGREE DAYS:  0 LATEST DAY MAX TEMP (0700-1900 LST):57  LATEST NIGHT MIN TEMP(1900-0800 LST):29 HOURLY INCREMENTAL PRECIPITATION VALUES (IN):.00 0.00 0.00 0.00 0.00 0.00 0.00 0.00 0.00 0.00 0.00 0.00 0.00 0.00 0.00 0.00 0.00 0.00 0.00 0.00 0.00 0.00 0.00 0.00
0206723820231822021010208537+34629-118083FM-15+0787KPMD V0201905N001552200059N0160935N5+00065-00445102305ADDAA101000095GA1005+999999999GD10991+9999999GF100991999999999999999999MA1102305093125MD1890079+9999REMMET09701/02/21 00:53:02 METAR KPMD 020853Z 19003KT 10SM CLR 01/M04 A3021 RMK AO2 SLP230 T00061044 58007
0186723820231822021010209537+34629-118083FM-15+0787KPMD V0201705N002152200059N0160935N5+00065-00505102245ADDAA101000095GA1005+999999999GD10991+9999999GF100991999999999999999999MA1102245093065REMMET09101/02/21 01:53:02 METAR KPMD 020953Z 17004KT 10SM CLR 01/M05 A3019 RMK AO2 SLP224 T00061050
0186723820231822021010210537+34629-118083FM-15+0787KPMD V0203605N001552200059N0160935N5+00065-00445102245ADDAA101000095GA1005+999999999GD10991+9999999GF100991999999999999999999MA1102245093065REMMET09101/02/21 02:53:02 METAR KPMD 021053Z 36003KT 10SM CLR 01/M04 A3019 RMK AO2 SLP224 T00061044
0244723820231822021010211537+34629-118083FM-15+0787KPMD V0209999C000052200059N0160935N5+00225-00445102185ADDAA101000095GA1005+999999999GD10991+9999999GF100991999999999999999999KA1060M+00331KA2060N+00001MA1102205093035MD1690099+9999REMMET10901/02/21 03:53:02 METAR KPMD 021153Z 00000KT 10SM CLR 02/M04 A3018 RMK AO2 SLP218 T00221044 10033 20000 56009
0186723820231822021010212537+34629-118083FM-15+0787KPMD V0202005N003652200059N0160935N5+00225-00335102265ADDAA101000095GA1005+999999999GD10991+9999999GF100991999999999999999999MA1102245093065REMMET09101/02/21 04:53:02 METAR KPMD 021253Z 20007KT 10SM CLR 02/M03 A3019 RMK AO2 SLP226 T00221033
0186723820231822021010213537+34629-118083FM-15+0787KPMD V0209999C000052200059N0160935N5+00225-00285102375ADDAA101000095GA1005+999999999GD10991+9999999GF100991999999999999999999MA1102345093155REMMET09101/02/21 05:53:02 METAR KPMD 021353Z 00000KT 10SM CLR 02/M03 A3022 RMK AO2 SLP237 T00221028
0206723820231822021010214537+34629-118083FM-15+0787KPMD V0209999C000052200059N0160935N5+00225-00395102465ADDAA101000095GA1005+999999999GD10991+9999999GF100991999999999999999999MA1102375093185MD1190179+9999REMMET09701/02/21 06:53:02 METAR KPMD 021453Z 00000KT 10SM CLR 02/M04 A3023 RMK AO2 SLP246 T00221039 51017
0186723820231822021010215537+34629-118083FM-15+0787KPMD V0200605N002152200059N0160935N5+00395-00285102515ADDAA101000095GA1005+999999999GD10991+9999999GF100991999999999999999999MA1102445093255REMMET09101/02/21 07:53:02 METAR KPMD 021553Z 06004KT 10SM CLR 04/M03 A3025 RMK AO2 SLP251 T00391028
0186723820231822021010216537+34629-118083FM-15+0787KPMD V0201805N001552200059N0160935N5+00615-00285102565ADDAA101000095GA1005+999999999GD10991+9999999GF100991999999999999999999MA1102515093315REMMET09101/02/21 08:53:02 METAR KPMD 021653Z 18003KT 10SM CLR 06/M03 A3027 RMK AO2 SLP256 T00611028
0244723820231822021010217537+34629-118083FM-15+0787KPMD V0201005N001552200059N0160935N5+01065-00445102495ADDAA101000095GA1005+999999999GD10991+9999999GF100991999999999999999999KA1060M+01061KA2060N+00111MA1102475093285MD1090099+9999REMMET10901/02/21 09:53:02 METAR KPMD 021753Z 10003KT 10SM CLR 11/M04 A3026 RMK AO2 SLP249 T01061044 10106 20011 50009
0186723820231822021010218537+34629-118083FM-15+0787KPMD V0209999C000052200059N0160935N5+01445-00445102355ADDAA101000095GA1005+999999999GD10991+9999999GF100991999999999999999999MA1102375093185REMMET09101/02/21 10:53:02 METAR KPMD 021853Z 00000KT 10SM CLR 14/M04 A3023 RMK AO2 SLP235 T01441044
0186723820231822021010219537+34629-118083FM-15+0787KPMD V0202405N006752200059N0160935N5+01675-00615102255ADDAA101000095GA1005+999999999GD10991+9999999GF100991999999999999999999MA1102275093095REMMET09101/02/21 11:53:02 METAR KPMD 021953Z 24013KT 10SM CLR 17/M06 A3020 RMK AO2 SLP225 T01671061
0206723820231822021010220537+34629-118083FM-15+0787KPMD V0202205N006252200059N0160935N5+01675-00615102165ADDAA101000095GA1005+999999999GD10991+9999999GF100991999999999999999999MA1102175093005MD1690279+9999REMMET09701/02/21 12:53:02 METAR KPMD 022053Z 22012KT 10SM CLR 17/M06 A3017 RMK AO2 SLP216 T01671061 56027
0186723820231822021010221537+34629-118083FM-15+0787KPMD V0202505N006752200059N0160935N5+01675-00675102205ADDAA101000095GA1005+999999999GD10991+9999999GF100991999999999999999999MA1102245093065REMMET09101/02/21 13:53:02 METAR KPMD 022153Z 25013KT 10SM CLR 17/M07 A3019 RMK AO2 SLP220 T01671067
0186723820231822021010222537+34629-118083FM-15+0787KPMD V0202605N007252200059N0160935N5+01615-00675102225ADDAA101000095GA1005+999999999GD10991+9999999GF100991999999999999999999MA1102245093065REMMET09101/02/21 14:53:02 METAR KPMD 022253Z 26014KT 10SM CLR 16/M07 A3019 RMK AO2 SLP222 T01611067
0244723820231822021010223537+34629-118083FM-15+0787KPMD V0202405N004152200059N0160935N5+01445-00615102235ADDAA101000095GA1005+999999999GD10991+9999999GF100991999999999999999999KA1060M+01781KA2060N+01061MA1102245093065MD1190069+9999REMMET10901/02/21 15:53:02 METAR KPMD 022353Z 24008KT 10SM CLR 14/M06 A3019 RMK AO2 SLP223 T01441061 10178 20106 51006
0186723820231822021010300537+34629-118083FM-15+0787KPMD V0202505N003152200059N0160935N5+01225-00445102285ADDAA101000095GA1005+999999999GD10991+9999999GF100991999999999999999999MA1102275093095REMMET09101/02/21 16:53:01 METAR KPMD 030053Z 25006KT 10SM CLR 12/M04 A3020 RMK AO2 SLP228 T01221044
0186723820231822021010301537+34629-118083FM-15+0787KPMD V0202105N004152200059N0160935N5+01175-00335102265ADDAA101000095GA1005+999999999GD10991+9999999GF100991999999999999999999MA1102275093095REMMET09101/02/21 17:53:01 METAR KPMD 030153Z 21008KT 10SM CLR 12/M03 A3020 RMK AO2 SLP226 T01171033
0206723820231822021010302537+34629-118083FM-15+0787KPMD V0202105N003652200059N0160935N5+01115-00225102255ADDAA101000095GA1005+999999999GD10991+9999999GF100991999999999999999999MA1102245093065MD1890019+9999REMMET09701/02/21 18:53:01 METAR KPMD 030253Z 21007KT 10SM CLR 11/M02 A3019 RMK AO2 SLP225 T01111022 58001
0186723820231822021010303537+34629-118083FM-15+0787KPMD V0202305N003652200059N0160935N5+01115-00115102185ADDAA101000095GA1005+999999999GD10991+9999999GF100991999999999999999999MA1102205093035REMMET09101/02/21 19:53:01 METAR KPMD 030353Z 23007KT 10SM CLR 11/M01 A3018 RMK AO2 SLP218 T01111011
0196723820231822021010304537+34629-118083FM-15+0787KPMD V0201905V005152200059N0160935N5+01115+00005102225ADDAA101000095GA1005+999999999GD10991+9999999GF100991999999999999999999MA1102245093065OC100985REMMET09301/02/21 20:53:02 METAR KPMD 030453Z 19010G19KT 10SM CLR 11/00 A3019 RMK AO2 SLP222 T01110000
0244723820231822021010305537+34629-118083FM-15+0787KPMD V0202105N002652200059N0160935N5+01005-00115102195ADDAA101000095GA1005+999999999GD10991+9999999GF100991999999999999999999KA1060M+01441KA2060N+00941MA1102245093065MD1590009+9999REMMET10901/02/21 21:53:02 METAR KPMD 030553Z 21005KT 10SM CLR 10/M01 A3019 RMK AO2 SLP219 T01001011 10144 20094 55000
0186723820231822021010306537+34629-118083FM-15+0787KPMD V0201405N002652200059N0160935N5+00725-00065102255ADDAA101000095GA1005+999999999GD10991+9999999GF100991999999999999999999MA1102305093125REMMET09101/02/21 22:53:02 METAR KPMD 030653Z 14005KT 10SM CLR 07/M01 A3021 RMK AO2 SLP225 T00721006
0221723820231822021010307537+34629-118083FM-15+0787KPMD V0202705N006252200059N0160935N5+01115+00115102155ADDAA101000095GA1005+999999999GD10991+9999999GF100991999999999999999999KA1240M+01781KA2240N+00001MA1102275093095REMMET10001/02/21 23:53:02 METAR KPMD 030753Z 27012KT 10SM CLR 11/01 A3020 RMK AO2 SLP215 T01110011 401780000
0813723820231822021010307596+34629-118083SOD  +0787KPMD V020999999999999999999999999999+99999+99999999999ADDAA124000095KA1240M+01785KA2240N+00005MG1093094102134OE11240125227099995OE22240098327099995OE33240031399999995REMSOD69224 HR PRECIPITATION (IN): 0.00 24 HR MAX TEMP (F): 6424 HR MIN TEMP (F): 32AVERAGE STATION PRESSURE:27.490 MINIMUM SEA LEVEL PRESSURE:30.16 TIME OF OCCURRENCE:2359 PEAK WIND SPEED (MPH): 28 PEAK WIND DIR (DEG):270 PEAK WIND TIME (LST):      FASTEST 2MIN SPEED (MPH): 22FASTEST 2MIN DIR (DEG):270 FASTEST 2MIN TIME (LST):     AVERAGE WIND SPEED (MPH): 7.0 24 HR AVG TEMP (F): 48DEPART FROM NORMAL:  4  HEATING DEGREE DAYS: 17 COOLING DEGREE DAYS:  0 LATEST DAY MAX TEMP (0700-1900 LST):64  LATEST NIGHT MIN TEMP(1900-0800 LST):32 HOURLY INCREMENTAL PRECIPITATION VALUES (IN):.00 0.00 0.00 0.00 0.00 0.00 0.00 0.00 0.00 0.00 0.00 0.00 0.00 0.00 0.00 0.00 0.00 0.00 0.00 0.00 0.00 0.00 0.00 0.00
0205723820231822021010308537+34629-118083FM-15+0787KPMD V0202305N002652200059N0160935N5+00785+00065102145ADDAA101000095GA1005+999999999GD10991+9999999GF100991999999999999999999MA1102205093035MD1890029+9999REMMET09601/03/21 00:53:02 METAR KPMD 030853Z 23005KT 10SM CLR 08/01 A3018 RMK AO2 SLP214 T00780006 58002
0185723820231822021010309537+34629-118083FM-15+0787KPMD V0201905N004152200059N0160935N5+00725+00065102145ADDAA101000095GA1005+999999999GD10991+9999999GF100991999999999999999999MA1102245093065REMMET09001/03/21 01:53:02 METAR KPMD 030953Z 19008KT 10SM CLR 07/01 A3019 RMK AO2 SLP214 T00720006
0185723820231822021010310537+34629-118083FM-15+0787KPMD V0202005N004152200059N0160935N5+00675+00065102095ADDAA101000095GA1005+999999999GD10991+9999999GF100991999999999999999999MA1102175093005REMMET09001/03/21 02:53:02 METAR KPMD 031053Z 20008KT 10SM CLR 07/01 A3017 RMK AO2 SLP209 T00670006
0243723820231822021010311537+34629-118083FM-15+0787KPMD V0202405N004152200059N0160935N5+00945+00115102135ADDAA101000095GA1005+999999999GD10991+9999999GF100991999999999999999999KA1060M+01171KA2060N+00611MA1102205093035MD1590019+9999REMMET10801/03/21 03:53:02 METAR KPMD 031153Z 24008KT 10SM CLR 09/01 A3018 RMK AO2 SLP213 T00940011 10117 20061 55001
0185723820231822021010312537+34629-118083FM-15+0787KPMD V0202105N004152200059N0160935N5+00895+00115102095ADDAA101000095GA1005+999999999GD10991+9999999GF100991999999999999999999MA1102135092965REMMET09001/03/21 04:53:02 METAR KPMD 031253Z 21008KT 10SM CLR 09/01 A3016 RMK AO2 SLP209 T00890011
0229723820231822021010313537+34629-118083FM-15+0787KPMD V0202505N001552200059N0160935N5+00785+00065102165ADDAA101000025AU110020015AW1615GA1005+999999999GD10991+9999999GF100991999999999999999999MA1102205093035MW1615REMMET11101/03/21 05:53:02 METAR KPMD 031353Z 25003KT 10SM -RA CLR 08/01 A3018 RMK AO2 RAB50 SLP216 P0000 T00780006 (BO)
0260723820231822021010314537+34629-118083FM-15+0787KPMD V0201105N001552200059N0160935N5+00725+00115102165ADDAA101000095AA203000021GA1005+999999999GD10991+9999999GF100991999999999999999999MA1102205093035MD1690029+9999REMMET12101/03/21 06:53:02 METAR KPMD 031453Z 11003KT 10SM CLR 07/01 A3018 RMK AO2 RAE1356 SLP216 P0000 60000 T00720011 56002 (BO)EQDQ01  00008PRCP03
0190723820231822021010315537+34629-118083FM-15+0787KPMD V0202805N006252200059N0160935N5+01005+00175102225ADDAA101000095GA1005+999999999GD10991+9999999GF100991999999999999999999MA1102275093095REMMET09501/03/21 07:53:02 METAR KPMD 031553Z 28012KT 10SM CLR 10/02 A3020 RMK AO2 SLP222 T01000017 (BO)
0190723820231822021010316537+34629-118083FM-15+0787KPMD V0202005N002652200059N0160935N5+01175+00175102255ADDAA101000095GA1005+999999999GD10991+9999999GF100991999999999999999999MA1102305093125REMMET09501/03/21 08:53:02 METAR KPMD 031653Z 20005KT 10SM CLR 12/02 A3021 RMK AO2 SLP225 T01170017 (BO)
0265723820231822021010317537+34629-118083FM-15+0787KPMD V0202805N004652200059N0160935N5+01395+00285102265ADDAA101000095AA206000021GA1005+999999999GD10991+9999999GF100991999999999999999999KA1060M+01391KA2060N+00721MA1102345093155MD1190139+9999REMMET11901/03/21 09:53:02 METAR KPMD 031753Z 28009KT 10SM CLR 14/03 A3022 RMK AO2 SLP226 60000 T01390028 10139 20072 51013 (BO)
0190723820231822021010318537+34629-118083FM-15+0787KPMD V0203305N004652200059N0160935N5+01505+00285102225ADDAA101000095GA1005+999999999GD10991+9999999GF100991999999999999999999MA1102275093095REMMET09501/03/21 10:53:02 METAR KPMD 031853Z 33009KT 10SM CLR 15/03 A3020 RMK AO2 SLP222 T01500028 (AD)
0190723820231822021010319537+34629-118083FM-15+0787KPMD V0200105N005752200059N0160935N5+01505+00225102105ADDAA101000095GA1005+999999999GD10991+9999999GF100991999999999999999999MA1102205093035REMMET09501/03/21 11:53:02 METAR KPMD 031953Z 01011KT 10SM CLR 15/02 A3018 RMK AO2 SLP210 T01500022 (AD)
0210723820231822021010320537+34629-118083FM-15+0787KPMD V0203405N004152200059N0160935N5+01615+00175102095ADDAA101000095GA1005+999999999GD10991+9999999GF100991999999999999999999MA1102175093005MD1690159+9999REMMET10101/03/21 12:53:02 METAR KPMD 032053Z 34008KT 10SM CLR 16/02 A3017 RMK AO2 SLP209 T01610017 56015 (AD)
0190723820231822021010321537+34629-118083FM-15+0787KPMD V0200305N002152200059N0160935N5+01615+00065102055ADDAA101000095GA1005+999999999GD10991+9999999GF100991999999999999999999MA1102135092965REMMET09501/03/21 13:53:02 METAR KPMD 032153Z 03004KT 10SM CLR 16/01 A3016 RMK AO2 SLP205 T01610006 (AD)
0191723820231822021010322537+34629-118083FM-15+0787KPMD V0203605N002652200059N0160935N5+01565-00065102105ADDAA101000095GA1005+999999999GD10991+9999999GF100991999999999999999999MA1102175093005REMMET09601/03/21 14:53:02 METAR KPMD 032253Z 36005KT 10SM CLR 16/M01 A3017 RMK AO2 SLP210 T01561006 (AD)
0249723820231822021010323537+34629-118083FM-15+0787KPMD V0200205N002152200059N0160935N5+01565-00065102095ADDAA101000095GA1005+999999999GD10991+9999999GF100991999999999999999999KA1060M+01671KA2060N+01391MA1102175093005MD1390019+9999REMMET11401/03/21 15:53:02 METAR KPMD 032353Z 02004KT 10SM CLR 16/M01 A3017 RMK AO2 SLP209 T01561006 10167 20139 53001 (AD)
0186723820231822021010400537+34629-118083FM-15+0787KPMD V0200505N002652200059N0160935N5+01285-00065102135ADDAA101000095GA1005+999999999GD10991+9999999GF100991999999999999999999MA1102205093035REMMET09101/03/21 16:53:01 METAR KPMD 040053Z 05005KT 10SM CLR 13/M01 A3018 RMK AO2 SLP213 T01281006
0186723820231822021010401537+34629-118083FM-15+0787KPMD V0201005N002152200059N0160935N5+01005-00065102185ADDAA101000095GA1005+999999999GD10991+9999999GF100991999999999999999999MA1102205093035REMMET09101/03/21 17:53:01 METAR KPMD 040153Z 10004KT 10SM CLR 10/M01 A3018 RMK AO2 SLP218 T01001006
0206723820231822021010402537+34629-118083FM-15+0787KPMD V0201505N002652200059N0160935N5+00835-00115102175ADDAA101000095GA1005+999999999GD10991+9999999GF100991999999999999999999MA1102175093005MD1890019+9999REMMET09701/03/21 18:53:01 METAR KPMD 040253Z 15005KT 10SM CLR 08/M01 A3017 RMK AO2 SLP217 T00831011 58001
0185723820231822021010403537+34629-118083FM-15+0787KPMD V0202005N001552200059N0160935N5+00835+00005102195ADDAA101000095GA1005+999999999GD10991+9999999GF100991999999999999999999MA1102245093065REMMET09001/03/21 19:53:01 METAR KPMD 040353Z 20003KT 10SM CLR 08/00 A3019 RMK AO2 SLP219 T00830000
0185723820231822021010404537+34629-118083FM-15+0787KPMD V0209999C000052200059N0160935N5+00675+00065102195ADDAA101000095GA1005+999999999GD10991+9999999GF100991999999999999999999MA1102245093065REMMET09001/03/21 20:53:02 METAR KPMD 040453Z 00000KT 10SM CLR 07/01 A3019 RMK AO2 SLP219 T00670006
0243723820231822021010405537+34629-118083FM-15+0787KPMD V0202805N001552200059N0160935N5+00445+00005102225ADDAA101000095GA1005+999999999GD10991+9999999GF100991999999999999999999KA1060M+01561KA2060N+00391MA1102275093095MD1190089+9999REMMET10801/03/21 21:53:02 METAR KPMD 040553Z 28003KT 10SM CLR 04/00 A3020 RMK AO2 SLP222 T00440000 10156 20039 51008
0185723820231822021010406537+34629-118083FM-15+0787KPMD V0209999C000052200059N0160935N5+00445+00005102265ADDAA101000095GA1005+999999999GD10991+9999999GF100991999999999999999999MA1102305093125REMMET09001/03/21 22:53:02 METAR KPMD 040653Z 00000KT 10SM CLR 04/00 A3021 RMK AO2 SLP226 T00440000
0222723820231822021010407537+34629-118083FM-15+0787KPMD V0201805N002152200059N0160935N5+00395-00065102285ADDAA101000095GA1005+999999999GD10991+9999999GF100991999999999999999999KA1240M+01671KA2240N+00331MA1102305093125REMMET10101/03/21 23:53:02 METAR KPMD 040753Z 18004KT 10SM CLR 04/M01 A3021 RMK AO2 SLP228 T00391006 401670033
0825723820231822021010407596+34629-118083SOD  +0787KPMD V020999999999999999999999999999+99999+99999999999ADDAA124000025AT1AU16RA  5KA1240M+01675KA2240N+00335MG1093064102034OE11240080527099995OE22240067101099995OE33240028699999995REMSOD69224 HR PRECIPITATION (IN):    T 24 HR MAX TEMP (F): 6224 HR MIN TEMP (F): 38AVERAGE STATION PRESSURE:27.480 MINIMUM SEA LEVEL PRESSURE:30.13 TIME OF OCCURRENCE:1425 PEAK WIND SPEED (MPH): 18 PEAK WIND DIR (DEG):270 PEAK WIND TIME (LST):      FASTEST 2MIN SPEED (MPH): 15FASTEST 2MIN DIR (DEG): 10 FASTEST 2MIN TIME (LST):     AVERAGE WIND SPEED (MPH): 6.4 24 HR AVG TEMP (F): 50DEPART FROM NORMAL:  6  HEATING DEGREE DAYS: 15 COOLING DEGREE DAYS:  0 LATEST DAY MAX TEMP (0700-1900 LST):62  LATEST NIGHT MIN TEMP(1900-0800 LST):43 HOURLY INCREMENTAL PRECIPITATION VALUES (IN):.00 0.00 0.00 0.00 0.00 T    0.00 0.00 0.00 0.00 0.00 0.00 0.00 0.00 0.00 0.00 0.00 0.00 0.00 0.00 0.00 0.00 0.00 0.00
0206723820231822021010408537+34629-118083FM-15+0787KPMD V0201705N003152200059N0160935N5+00285-00115102225ADDAA101000095GA1005+999999999GD10991+9999999GF100991999999999999999999MA1102245093065MD1890019+9999REMMET09701/04/21 00:53:02 METAR KPMD 040853Z 17006KT 10SM CLR 03/M01 A3019 RMK AO2 SLP222 T00281011 58001
0186723820231822021010409537+34629-118083FM-15+0787KPMD V0202205N001552200059N0160935N5+00335-00115102215ADDAA101000095GA1005+999999999GD10991+9999999GF100991999999999999999999MA1102275093095REMMET09101/04/21 01:53:02 METAR KPMD 040953Z 22003KT 10SM CLR 03/M01 A3020 RMK AO2 SLP221 T00331011
0186723820231822021010410537+34629-118083FM-15+0787KPMD V0202005N002652200059N0160935N5+00225-00115102195ADDAA101000095GA1005+999999999GD10991+9999999GF100991999999999999999999MA1102245093065REMMET09101/04/21 02:53:02 METAR KPMD 041053Z 20005KT 10SM CLR 02/M01 A3019 RMK AO2 SLP219 T00221011
0244723820231822021010411537+34629-118083FM-15+0787KPMD V0209999C000052200059N0160935N5+00175-00175102135ADDAA101000095GA1005+999999999GD10991+9999999GF100991999999999999999999KA1060M+00561KA2060N+00111MA1102175093005MD1890089+9999REMMET10901/04/21 03:53:02 METAR KPMD 041153Z 00000KT 10SM CLR 02/M02 A3017 RMK AO2 SLP213 T00171017 10056 20011 58008
0186723820231822021010412537+34629-118083FM-15+0787KPMD V0209999C000052200059N0160935N5+00175-00175102215ADDAA101000095GA1005+999999999GD10991+9999999GF100991999999999999999999MA1102205093035REMMET09101/04/21 04:53:02 METAR KPMD 041253Z 00000KT 10SM CLR 02/M02 A3018 RMK AO2 SLP221 T00171017
0191723820231822021010413537+34629-118083FM-15+0787KPMD V0201605N002652200059N0160935N5+00005-00285102285ADDAA101000095GA1005+999999999GD10991+9999999GF100991999999999999999999MA1102245093065REMMET09601/04/21 05:53:02 METAR KPMD 041353Z 16005KT 10SM CLR 00/M03 A3019 RMK AO2 SLP228 T00001028 (AD)
0211723820231822021010414537+34629-118083FM-15+0787KPMD V0201805N003152200059N0160935N5+00115-00225102315ADDAA101000095GA1005+999999999GD10991+9999999GF100991999999999999999999MA1102275093095MD1190109+9999REMMET10201/04/21 06:53:02 METAR KPMD 041453Z 18006KT 10SM CLR 01/M02 A3020 RMK AO2 SLP231 T00111022 51010 (AD)
0191723820231822021010415537+34629-118083FM-15+0787KPMD V0209999C000052200059N0160935N5+00285-00115102325ADDAA101000095GA1005+999999999GD10991+9999999GF100991999999999999999999MA1102305093125REMMET09601/04/21 07:53:02 METAR KPMD 041553Z 00000KT 10SM CLR 03/M01 A3021 RMK AO2 SLP232 T00281011 (AD)
0190723820231822021010416537+34629-118083FM-15+0787KPMD V0209999C000052200059N0160935N5+00725+00065102325ADDAA101000095GA1005+999999999GD10991+9999999GF100991999999999999999999MA1102305093125REMMET09501/04/21 08:53:02 METAR KPMD 041653Z 00000KT 10SM CLR 07/01 A3021 RMK AO2 SLP232 T00720006 (AD)
0248723820231822021010417537+34629-118083FM-15+0787KPMD V0200205N001552200059N0160935N5+01115+00065102285ADDAA101000095GA1005+999999999GD10991+9999999GF100991999999999999999999KA1060M+01111KA2060N+00001MA1102275093095MD1090029+9999REMMET11301/04/21 09:53:02 METAR KPMD 041753Z 02003KT 10SM CLR 11/01 A3020 RMK AO2 SLP228 T01110006 10111 20000 50002 (AD)
0190723820231822021010418537+34629-118083FM-15+0787KPMD V0201205N002152200059N0160935N5+01335+00065102145ADDAA101000095GA1005+999999999GD10991+9999999GF100991999999999999999999MA1102175093005REMMET09501/04/21 10:53:02 METAR KPMD 041853Z 12004KT 10SM CLR 13/01 A3017 RMK AO2 SLP214 T01330006 (AD)
0190723820231822021010419537+34629-118083FM-15+0787KPMD V0209999C000052200059N0160935N5+01615+00005101975ADDAA101000095GA1005+999999999GD10991+9999999GF100991999999999999999999MA1102005092845REMMET09501/04/21 11:53:02 METAR KPMD 041953Z 00000KT 10SM CLR 16/00 A3012 RMK AO2 SLP197 T01610000 (AD)
0210723820231822021010420537+34629-118083FM-15+0787KPMD V0203005N002152200059N0160935N5+01835+00005101875ADDAA101000095GA1005+999999999GD10991+9999999GF100991999999999999999999MA1101935092785MD1690339+9999REMMET10101/04/21 12:53:02 METAR KPMD 042053Z 30004KT 10SM CLR 18/00 A3010 RMK AO2 SLP187 T01830000 56033 (AD)
0190723820231822021010421537+34629-118083FM-15+0787KPMD V0202405N006752200059N0160935N5+01895+00005101875ADDAA101000095GA1005+999999999GD10991+9999999GF100991999999999999999999MA1101935092785REMMET09501/04/21 13:53:02 METAR KPMD 042153Z 24013KT 10SM CLR 19/00 A3010 RMK AO2 SLP187 T01890000 (AD)
0223723820231822021010422537+34629-118083FM-15+0787KPMD V0202905N009852200059N0160935N5+01785-00175101945ADDAA101000095GA1005+999999999GD10991+9999999GF100991999999999999999999MA1102005092845OD149901331290REMMET11401/04/21 14:53:02 METAR KPMD 042253Z 29019KT 10SM CLR 18/M02 A3012 RMK AO2 PK WND 29026/2227 SLP194 T01781017 (KC)
0291723820231822021010423537+34629-118083FM-15+0787KPMD V0202705N011852200059N0160935N5+01565+00285102085ADDAA101000095GA1005+999999999GD10991+9999999GF100991999999999999999999KA1060M+01941KA2060N+01111MA1102105092935MD1390179+9999OC101545OD149901641280REMMET13401/04/21 15:53:02 METAR KPMD 042353Z 27023G30KT 10SM CLR 16/03 A3015 RMK AO2 PK WND 28032/2321 SLP208 T01560028 10194 20111 53017 (KC)
0217723820231822021010500537+34629-118083FM-15+0787KPMD V0202705N007252200059N0160935N5+01395+00335102105ADDAA101000095GA1005+999999999GD10991+9999999GF100991999999999999999999MA1102105092935OD149901591260REMMET10801/04/21 16:53:01 METAR KPMD 050053Z 27014KT 10SM CLR 14/03 A3015 RMK AO2 PK WND 26031/2359 SLP210 T01390033
0185723820231822021010501537+34629-118083FM-15+0787KPMD V0202605N004652200059N0160935N5+01225+00445102205ADDAA101000095GA1005+999999999GD10991+9999999GF100991999999999999999999MA1102175093005REMMET09001/04/21 17:53:01 METAR KPMD 050153Z 26009KT 10SM CLR 12/04 A3017 RMK AO2 SLP220 T01220044
0205723820231822021010502537+34629-118083FM-15+0787KPMD V0202405N002652200059N0160935N5+01175+00505102155ADDAA101000095GA1005+999999999GD10991+9999999GF100991999999999999999999MA1102135092965MD1090039+9999REMMET09601/04/21 18:53:01 METAR KPMD 050253Z 24005KT 10SM CLR 12/05 A3016 RMK AO2 SLP215 T01170050 50003
0185723820231822021010503537+34629-118083FM-15+0787KPMD V0202605N004652200059N0160935N5+01115+00505102205ADDAA101000095GA1005+999999999GD10991+9999999GF100991999999999999999999MA1102205093035REMMET09001/04/21 19:53:01 METAR KPMD 050353Z 26009KT 10SM CLR 11/05 A3018 RMK AO2 SLP220 T01110050
0185723820231822021010504537+34629-118083FM-15+0787KPMD V0202405N003652200059N0160935N5+01065+00505102215ADDAA101000095GA1005+999999999GD10991+9999999GF100991999999999999999999MA1102245093065REMMET09001/04/21 20:53:02 METAR KPMD 050453Z 24007KT 10SM CLR 11/05 A3019 RMK AO2 SLP221 T01060050
0243723820231822021010505537+34629-118083FM-15+0787KPMD V0202405N004652200059N0160935N5+01065+00565102075ADDAA101000095GA1005+999999999GD10991+9999999GF100991999999999999999999KA1060M+01561KA2060N+01061MA1102135092965MD1090009+9999REMMET10801/04/21 21:53:02 METAR KPMD 050553Z 24009KT 10SM CLR 11/06 A3016 RMK AO2 SLP207 T01060056 10156 20106 50000
0185723820231822021010506537+34629-118083FM-15+0787KPMD V0202405N002652200059N0160935N5+01005+00505102105ADDAA101000095GA1005+999999999GD10991+9999999GF100991999999999999999999MA1102175093005REMMET09001/04/21 22:53:02 METAR KPMD 050653Z 24005KT 10SM CLR 10/05 A3017 RMK AO2 SLP210 T01000050
0221723820231822021010507537+34629-118083FM-15+0787KPMD V0202505N005752200059N0160935N5+01005+00505102085ADDAA101000095GA1005+999999999GD10991+9999999GF100991999999999999999999KA1240M+01941KA2240N+00001MA1102175093005REMMET10001/04/21 23:53:02 METAR KPMD 050753Z 25011KT 10SM CLR 10/05 A3017 RMK AO2 SLP208 T01000050 401940000
0813723820231822021010507596+34629-118083SOD  +0787KPMD V020999999999999999999999999999+99999+99999999999ADDAA124000095KA1240M+01945KA2240N+00005MG1092994101864OE11240160928099995OE22240138628099995OE33240034499999995REMSOD69224 HR PRECIPITATION (IN): 0.00 24 HR MAX TEMP (F): 6724 HR MIN TEMP (F): 32AVERAGE STATION PRESSURE:27.460 MINIMUM SEA LEVEL PRESSURE:30.08 TIME OF OCCURRENCE:1409 PEAK WIND SPEED (MPH): 36 PEAK WIND DIR (DEG):280 PEAK WIND TIME (LST):      FASTEST 2MIN SPEED (MPH): 31FASTEST 2MIN DIR (DEG):280 FASTEST 2MIN TIME (LST):     AVERAGE WIND SPEED (MPH): 7.7 24 HR AVG TEMP (F): 50DEPART FROM NORMAL:  6  HEATING DEGREE DAYS: 15 COOLING DEGREE DAYS:  0 LATEST DAY MAX TEMP (0700-1900 LST):67  LATEST NIGHT MIN TEMP(1900-0800 LST):32 HOURLY INCREMENTAL PRECIPITATION VALUES (IN):.00 0.00 0.00 0.00 0.00 0.00 0.00 0.00 0.00 0.00 0.00 0.00 0.00 0.00 0.00 0.00 0.00 0.00 0.00 0.00 0.00 0.00 0.00 0.00
0205723820231822021010508537+34629-118083FM-15+0787KPMD V0202405N003152200059N0160935N5+00835+00445102075ADDAA101000095GA1005+999999999GD10991+9999999GF100991999999999999999999MA1102175093005MD1090039+9999REMMET09601/05/21 00:53:02 METAR KPMD 050853Z 24006KT 10SM CLR 08/04 A3017 RMK AO2 SLP207 T00830044 50003
0185723820231822021010509537+34629-118083FM-15+0787KPMD V0202605N001552200059N0160935N5+00895+00395102075ADDAA101000095GA1005+999999999GD10991+9999999GF100991999999999999999999MA1102175093005REMMET09001/05/21 01:53:02 METAR KPMD 050953Z 26003KT 10SM CLR 09/04 A3017 RMK AO2 SLP207 T00890039
0185723820231822021010510537+34629-118083FM-15+0787KPMD V0201805N004652200059N0160935N5+00565+00225102095ADDAA101000095GA1005+999999999GD10991+9999999GF100991999999999999999999MA1102175093005REMMET09001/05/21 02:53:02 METAR KPMD 051053Z 18009KT 10SM CLR 06/02 A3017 RMK AO2 SLP209 T00560022
0243723820231822021010511537+34629-118083FM-15+0787KPMD V0201805N004152200059N0160935N5+00335+00115102035ADDAA101000095GA1005+999999999GD10991+9999999GF100991999999999999999999KA1060M+01111KA2060N+00331MA1102075092905MD1890109+9999REMMET10801/05/21 03:53:02 METAR KPMD 051153Z 18008KT 10SM CLR 03/01 A3014 RMK AO2 SLP203 T00330011 10111 20033 58010
0185723820231822021010512537+34629-118083FM-15+0787KPMD V0201905N003652200059N0160935N5+00505+00115102025ADDAA101000095GA1005+999999999GD10991+9999999GF100991999999999999999999MA1102075092905REMMET09001/05/21 04:53:02 METAR KPMD 051253Z 19007KT 10SM CLR 05/01 A3014 RMK AO2 SLP202 T00500011
0191723820231822021010513537+34629-118083FM-15+0787KPMD V0202605N003652200059N0160935N5+00225-00065102075ADDAA101000095GA1005+999999999GD10991+9999999GF100991999999999999999999MA1102075092905REMMET09601/05/21 05:53:02 METAR KPMD 051353Z 26007KT 10SM CLR 02/M01 A3014 RMK AO2 SLP207 T00221006 (AD)
0211723820231822021010514537+34629-118083FM-15+0787KPMD V0201505N003152200059N0160935N5+00115-00175102165ADDAA101000095GA1005+999999999GD10991+9999999GF100991999999999999999999MA1102135092965MD1390079+9999REMMET10201/05/21 06:53:02 METAR KPMD 051453Z 15006KT 10SM CLR 01/M02 A3016 RMK AO2 SLP216 T00111017 53007 (AD)
0190723820231822021010515537+34629-118083FM-15+0787KPMD V0209999C000052200059N0160935N5+00395+00065102265ADDAA101000095GA1005+999999999GD10991+9999999GF100991999999999999999999MA1102275093095REMMET09501/05/21 07:53:02 METAR KPMD 051553Z 00000KT 10SM CLR 04/01 A3020 RMK AO2 SLP226 T00390006 (AD)
0190723820231822021010516537+34629-118083FM-15+0787KPMD V0201505N002152200059N0160935N5+00785+00225102355ADDAA101000095GA1005+999999999GD10991+9999999GF100991999999999999999999MA1102375093185REMMET09501/05/21 08:53:02 METAR KPMD 051653Z 15004KT 10SM CLR 08/02 A3023 RMK AO2 SLP235 T00780022 (AD)
0248723820231822021010517537+34629-118083FM-15+0787KPMD V0203005N001552200059N0160935N5+01115+00285102385ADDAA101000095GA1005+999999999GD10991+9999999GF100991999999999999999999KA1060M+01111KA2060N+00061MA1102445093255MD1190279+9999REMMET11301/05/21 09:53:02 METAR KPMD 051753Z 30003KT 10SM CLR 11/03 A3025 RMK AO2 SLP238 T01110028 10111 20006 51027 (AD)
0190723820231822021010518537+34629-118083FM-15+0787KPMD V0209999C000052200059N0160935N5+01395+00285102335ADDAA101000095GA1005+999999999GD10991+9999999GF100991999999999999999999MA1102405093225REMMET09501/05/21 10:53:02 METAR KPMD 051853Z 00000KT 10SM CLR 14/03 A3024 RMK AO2 SLP233 T01390028 (AD)
0190723820231822021010519537+34629-118083FM-15+0787KPMD V0200105N002652200059N0160935N5+01505+00065102195ADDAA101000095GA1005+999999999GD10991+9999999GF100991999999999999999999MA1102275093095REMMET09501/05/21 11:53:02 METAR KPMD 051953Z 01005KT 10SM CLR 15/01 A3020 RMK AO2 SLP219 T01500006 (AD)
0210723820231822021010520537+34629-118083FM-15+0787KPMD V0209999V001552200059N0160935N5+01565+00005102135ADDAA101000095GA1005+999999999GD10991+9999999GF100991999999999999999999MA1102205093035MD1890219+9999REMMET10101/05/21 12:53:02 METAR KPMD 052053Z VRB03KT 10SM CLR 16/00 A3018 RMK AO2 SLP213 T01560000 58021 (AD)
0191723820231822021010521537+34629-118083FM-15+0787KPMD V0200605N002152200059N0160935N5+01675-00065102105ADDAA101000095GA1005+999999999GD10991+9999999GF100991999999999999999999MA1102205093035REMMET09601/05/21 13:53:02 METAR KPMD 052153Z 06004KT 10SM CLR 17/M01 A3018 RMK AO2 SLP210 T01671006 (AD)
0190723820231822021010522537+34629-118083FM-15+0787KPMD V0200405N002152200059N0160935N5+01675+00115102125ADDAA101000095GA1005+999999999GD10991+9999999GF100991999999999999999999MA1102175093005REMMET09501/05/21 14:53:02 METAR KPMD 052253Z 04004KT 10SM CLR 17/01 A3017 RMK AO2 SLP212 T01670011 (KC)
0248723820231822021010523537+34629-118083FM-15+0787KPMD V0203605N001552200059N0160935N5+01725+00115102165ADDAA101000095GA1005+999999999GD10991+9999999GF100991999999999999999999KA1060M+01721KA2060N+01061MA1102205093035MD1590009+9999REMMET11301/05/21 15:53:02 METAR KPMD 052353Z 36003KT 10SM CLR 17/01 A3018 RMK AO2 SLP216 T01720011 10172 20106 55000 (KC)
0186723820231822021010600537+34629-118083FM-15+0787KPMD V0200105N002652200059N0160935N5+01395-00175102225ADDAA101000095GA1005+999999999GD10991+9999999GF100991999999999999999999MA1102245093065REMMET09101/05/21 16:53:01 METAR KPMD 060053Z 01005KT 10SM CLR 14/M02 A3019 RMK AO2 SLP222 T01391017
0186723820231822021010601537+34629-118083FM-15+0787KPMD V0200405N003652200059N0160935N5+01225-00175102275ADDAA101000095GA1005+999999999GD10991+9999999GF100991999999999999999999MA1102275093095REMMET09101/05/21 17:53:01 METAR KPMD 060153Z 04007KT 10SM CLR 12/M02 A3020 RMK AO2 SLP227 T01221017
0206723820231822021010602537+34629-118083FM-15+0787KPMD V0201505N002152200059N0160935N5+00675-00115102365ADDAA101000095GA1005+999999999GD10991+9999999GF100991999999999999999999MA1102305093125MD1190079+9999REMMET09701/05/21 18:53:01 METAR KPMD 060253Z 15004KT 10SM CLR 07/M01 A3021 RMK AO2 SLP236 T00671011 51007
0186723820231822021010603537+34629-118083FM-15+0787KPMD V0209999C000052200059N0160935N5+00675-00115102345ADDAA101000095GA1005+999999999GD10991+9999999GF100991999999999999999999MA1102305093125REMMET09101/05/21 19:53:01 METAR KPMD 060353Z 00000KT 10SM CLR 07/M01 A3021 RMK AO2 SLP234 T00671011
0186723820231822021010604537+34629-118083FM-15+0787KPMD V0209999C000052200059N0160935N5+00505-00115102325ADDAA101000095GA1005+999999999GD10991+9999999GF100991999999999999999999MA1102305093125REMMET09101/05/21 20:53:02 METAR KPMD 060453Z 00000KT 10SM CLR 05/M01 A3021 RMK AO2 SLP232 T00501011
0244723820231822021010605537+34629-118083FM-15+0787KPMD V0209999C000052200059N0160935N5+00615-00175102325ADDAA101000095GA1005+999999999GD10991+9999999GF100991999999999999999999KA1060M+01721KA2060N+00391MA1102345093155MD1390059+9999REMMET10901/05/21 21:53:02 METAR KPMD 060553Z 00000KT 10SM CLR 06/M02 A3022 RMK AO2 SLP232 T00611017 10172 20039 53005
0186723820231822021010606537+34629-118083FM-15+0787KPMD V0201905N001552200059N0160935N5+00445-00115102345ADDAA101000095GA1005+999999999GD10991+9999999GF100991999999999999999999MA1102375093185REMMET09101/05/21 22:53:02 METAR KPMD 060653Z 19003KT 10SM CLR 04/M01 A3023 RMK AO2 SLP234 T00441011
0222723820231822021010607537+34629-118083FM-15+0787KPMD V0201905N002652200059N0160935N5+00395-00065102315ADDAA101000095GA1005+999999999GD10991+9999999GF100991999999999999999999KA1240M+01721KA2240N+00061MA1102345093155REMMET10101/05/21 23:53:02 METAR KPMD 060753Z 19005KT 10SM CLR 04/M01 A3022 RMK AO2 SLP231 T00391006 401720006
0813723820231822021010607596+34629-118083SOD  +0787KPMD V020999999999999999999999999999+99999+99999999999ADDAA124000095KA1240M+01725KA2240N+00065MG1093074102004OE11240080525099995OE22240067125099995OE33240020699999995REMSOD69224 HR PRECIPITATION (IN): 0.00 24 HR MAX TEMP (F): 6324 HR MIN TEMP (F): 33AVERAGE STATION PRESSURE:27.485 MINIMUM SEA LEVEL PRESSURE:30.12 TIME OF OCCURRENCE:0521 PEAK WIND SPEED (MPH): 18 PEAK WIND DIR (DEG):250 PEAK WIND TIME (LST):      FASTEST 2MIN SPEED (MPH): 15FASTEST 2MIN DIR (DEG):250 FASTEST 2MIN TIME (LST):     AVERAGE WIND SPEED (MPH): 4.6 24 HR AVG TEMP (F): 48DEPART FROM NORMAL:  4  HEATING DEGREE DAYS: 17 COOLING DEGREE DAYS:  0 LATEST DAY MAX TEMP (0700-1900 LST):63  LATEST NIGHT MIN TEMP(1900-0800 LST):33 HOURLY INCREMENTAL PRECIPITATION VALUES (IN):.00 0.00 0.00 0.00 0.00 0.00 0.00 0.00 0.00 0.00 0.00 0.00 0.00 0.00 0.00 0.00 0.00 0.00 0.00 0.00 0.00 0.00 0.00 0.00
0206723820231822021010608537+34629-118083FM-15+0787KPMD V0202705N001552200059N0160935N5+00505-00065102335ADDAA101000095GA1005+999999999GD10991+9999999GF100991999999999999999999MA1102375093185MD1390039+9999REMMET09701/06/21 00:53:02 METAR KPMD 060853Z 27003KT 10SM CLR 05/M01 A3023 RMK AO2 SLP233 T00501006 53003
0186723820231822021010609537+34629-118083FM-15+0787KPMD V0202405N002152200059N0160935N5+00225-00175102345ADDAA101000095GA1005+999999999GD10991+9999999GF100991999999999999999999MA1102375093185REMMET09101/06/21 01:53:02 METAR KPMD 060953Z 24004KT 10SM CLR 02/M02 A3023 RMK AO2 SLP234 T00221017
0186723820231822021010610537+34629-118083FM-15+0787KPMD V0209999C000052200059N0160935N5+00225-00175102315ADDAA101000095GA1005+999999999GD10991+9999999GF100991999999999999999999MA1102345093155REMMET09101/06/21 02:53:02 METAR KPMD 061053Z 00000KT 10SM CLR 02/M02 A3022 RMK AO2 SLP231 T00221017
0244723820231822021010611537+34629-118083FM-15+0787KPMD V0209999C000052200059N0160935N5+00175-00175102305ADDAA101000095GA1005+999999999GD10991+9999999GF100991999999999999999999KA1060M+00611KA2060N+00171MA1102345093155MD1790049+9999REMMET10901/06/21 03:53:02 METAR KPMD 061153Z 00000KT 10SM CLR 02/M02 A3022 RMK AO2 SLP230 T00171017 10061 20017 57004
0186723820231822021010612537+34629-118083FM-15+0787KPMD V0202605N001552200059N0160935N5+00225-00225102285ADDAA101000095GA1005+999999999GD10991+9999999GF100991999999999999999999MA1102305093125REMMET09101/06/21 04:53:02 METAR KPMD 061253Z 26003KT 10SM CLR 02/M02 A3021 RMK AO2 SLP228 T00221022
0191723820231822021010613537+34629-118083FM-15+0787KPMD V0202405N002152200059N0160935N5+00065-00285102355ADDAA101000095GA1005+999999999GD10991+9999999GF100991999999999999999999MA1102345093155REMMET09601/06/21 05:53:02 METAR KPMD 061353Z 24004KT 10SM CLR 01/M03 A3022 RMK AO2 SLP235 T00061028 (EC)
0211723820231822021010614537+34629-118083FM-15+0787KPMD V0201405N001552200059N0160935N5+00065-00285102465ADDAA101000095GA1005+999999999GD10991+9999999GF100991999999999999999999MA1102405093225MD1390059+9999REMMET10201/06/21 06:53:02 METAR KPMD 061453Z 14003KT 10SM CLR 01/M03 A3024 RMK AO2 SLP246 T00061028 53005 (EC)
0191723820231822021010615537+34629-118083FM-15+0787KPMD V0201505N001552200059N0160935N5+00225-00175102505ADDAA101000095GA1005+999999999GD10991+9999999GF100991999999999999999999MA1102445093255REMMET09601/06/21 07:53:02 METAR KPMD 061553Z 15003KT 10SM CLR 02/M02 A3025 RMK AO2 SLP250 T00221017 (EC)
0190723820231822021010616537+34629-118083FM-15+0787KPMD V0209999C000052200059N0160935N5+00785+00005102455ADDAA101000095GA1005+999999999GD10991+9999999GF100991999999999999999999MA1102445093255REMMET09501/06/21 08:53:02 METAR KPMD 061653Z 00000KT 10SM CLR 08/00 A3025 RMK AO2 SLP245 T00780000 (EC)
0249723820231822021010617537+34629-118083FM-15+0787KPMD V0209999C000052200059N0160935N5+01065-00175102405ADDAA101000095GA1005+999999999GD10991+9999999GF100991999999999999999999KA1060M+01111KA2060N+00061MA1102405093225MD1090029+9999REMMET11401/06/21 09:53:02 METAR KPMD 061753Z 00000KT 10SM CLR 11/M02 A3024 RMK AO2 SLP240 T01061017 10111 20006 50002 (EC)
0191723820231822021010618537+34629-118083FM-15+0787KPMD V0203105N002652200059N0160935N5+01285-00175102335ADDAA101000095GA1005+999999999GD10991+9999999GF100991999999999999999999MA1102345093155REMMET09601/06/21 10:53:02 METAR KPMD 061853Z 31005KT 10SM CLR 13/M02 A3022 RMK AO2 SLP233 T01281017 (EC)
0191723820231822021010619537+34629-118083FM-15+0787KPMD V0209999C000052200059N0160935N5+01445-00505102215ADDAA101000095GA1005+999999999GD10991+9999999GF100991999999999999999999MA1102245093065REMMET09601/06/21 11:53:02 METAR KPMD 061953Z 00000KT 10SM CLR 14/M05 A3019 RMK AO2 SLP221 T01441050 (EC)
0211723820231822021010620537+34629-118083FM-15+0787KPMD V0201405N001552200059N0160935N5+01565-00725102075ADDAA101000095GA1005+999999999GD10991+9999999GF100991999999999999999999MA1102105092935MD1890279+9999REMMET10201/06/21 12:53:02 METAR KPMD 062053Z 14003KT 10SM CLR 16/M07 A3015 RMK AO2 SLP207 T01561072 58027 (EC)
0191723820231822021010621537+34629-118083FM-15+0787KPMD V0209999C000052200059N0160935N5+01615-00895102045ADDAA101000095GA1005+999999999GD10991+9999999GF100991999999999999999999MA1102075092905REMMET09601/06/21 13:53:02 METAR KPMD 062153Z 00000KT 10SM CLR 16/M09 A3014 RMK AO2 SLP204 T01611089 (EC)
0191723820231822021010622537+34629-118083FM-15+0787KPMD V0200705N001552200059N0160935N5+01725-00675102005ADDAA101000095GA1005+999999999GD10991+9999999GF100991999999999999999999MA1102035092875REMMET09601/06/21 14:53:02 METAR KPMD 062253Z 07003KT 10SM CLR 17/M07 A3013 RMK AO2 SLP200 T01721067 (TJ)
0249723820231822021010623537+34629-118083FM-15+0787KPMD V0209999C000052200059N0160935N5+01675-00615102015ADDAA101000095GA1005+999999999GD10991+9999999GF100991999999999999999999KA1060M+01781KA2060N+01061MA1102035092875MD1590069+9999REMMET11401/06/21 15:53:02 METAR KPMD 062353Z 00000KT 10SM CLR 17/M06 A3013 RMK AO2 SLP201 T01671061 10178 20106 55006 (TJ)
0186723820231822021010700537+34629-118083FM-15+0787KPMD V0209999C000052200059N0160935N5+01505-00615102025ADDAA101000095GA1005+999999999GD10991+9999999GF100991999999999999999999MA1102035092875REMMET09101/06/21 16:53:01 METAR KPMD 070053Z 00000KT 10SM CLR 15/M06 A3013 RMK AO2 SLP202 T01501061
0186723820231822021010701537+34629-118083FM-15+0787KPMD V0202805N005152200059N0160935N5+01335-00895102105ADDAA101000095GA1005+999999999GD10991+9999999GF100991999999999999999999MA1102105092935REMMET09101/06/21 17:53:01 METAR KPMD 070153Z 28010KT 10SM CLR 13/M09 A3015 RMK AO2 SLP210 T01331089
0206723820231822021010702537+34629-118083FM-15+0787KPMD V0202605N005152200059N0160935N5+01225-00445102205ADDAA101000095GA1005+999999999GD10991+9999999GF100991999999999999999999MA1102175093005MD1390139+9999REMMET09701/06/21 18:53:01 METAR KPMD 070253Z 26010KT 10SM CLR 12/M04 A3017 RMK AO2 SLP220 T01221044 53013
0186723820231822021010703537+34629-118083FM-15+0787KPMD V0209999C000052200059N0160935N5+00835-00615102225ADDAA101000095GA1005+999999999GD10991+9999999GF100991999999999999999999MA1102205093035REMMET09101/06/21 19:53:01 METAR KPMD 070353Z 00000KT 10SM CLR 08/M06 A3018 RMK AO2 SLP222 T00831061
0186723820231822021010704537+34629-118083FM-15+0787KPMD V0201905N004152200059N0160935N5+00675-00565102185ADDAA101000095GA1005+999999999GD10991+9999999GF100991999999999999999999MA1102175093005REMMET09101/06/21 20:53:02 METAR KPMD 070453Z 19008KT 10SM CLR 07/M06 A3017 RMK AO2 SLP218 T00671056
0244723820231822021010705537+34629-118083FM-15+0787KPMD V0209999V002152200059N0160935N5+00505-00615102155ADDAA101000095GA1005+999999999GD10991+9999999GF100991999999999999999999KA1060M+01671KA2060N+00501MA1102175093005MD1890039+9999REMMET10901/06/21 21:53:02 METAR KPMD 070553Z VRB04KT 10SM CLR 05/M06 A3017 RMK AO2 SLP215 T00501061 10167 20050 58003
0186723820231822021010706537+34629-118083FM-15+0787KPMD V0201905N004152200059N0160935N5+00505-00615102135ADDAA101000095GA1005+999999999GD10991+9999999GF100991999999999999999999MA1102175093005REMMET09101/06/21 22:53:02 METAR KPMD 070653Z 19008KT 10SM CLR 05/M06 A3017 RMK AO2 SLP213 T00501061
0222723820231822021010707537+34629-118083FM-15+0787KPMD V0201805N003652200059N0160935N5+00395-00565102095ADDAA101000095GA1005+999999999GD10991+9999999GF100991999999999999999999KA1240M+01781KA2240N+00061MA1102135092965REMMET10101/06/21 23:53:02 METAR KPMD 070753Z 18007KT 10SM CLR 04/M06 A3016 RMK AO2 SLP209 T00391056 401780006
0813723820231822021010707596+34629-118083SOD  +0787KPMD V020999999999999999999999999999+99999+99999999999ADDAA124000095KA1240M+01785KA2240N+00065MG1093064102004OE11240076028099995OE22240067127099995OE33240016599999995REMSOD69224 HR PRECIPITATION (IN): 0.00 24 HR MAX TEMP (F): 6424 HR MIN TEMP (F): 33AVERAGE STATION PRESSURE:27.480 MINIMUM SEA LEVEL PRESSURE:30.12 TIME OF OCCURRENCE:1701 PEAK WIND SPEED (MPH): 17 PEAK WIND DIR (DEG):280 PEAK WIND TIME (LST):      FASTEST 2MIN SPEED (MPH): 15FASTEST 2MIN DIR (DEG):270 FASTEST 2MIN TIME (LST):     AVERAGE WIND SPEED (MPH): 3.7 24 HR AVG TEMP (F): 49DEPART FROM NORMAL:  5  HEATING DEGREE DAYS: 16 COOLING DEGREE DAYS:  0 LATEST DAY MAX TEMP (0700-1900 LST):64  LATEST NIGHT MIN TEMP(1900-0800 LST):33 HOURLY INCREMENTAL PRECIPITATION VALUES (IN):.00 0.00 0.00 0.00 0.00 0.00 0.00 0.00 0.00 0.00 0.00 0.00 0.00 0.00 0.00 0.00 0.00 0.00 0.00 0.00 0.00 0.00 0.00 0.00
0206723820231822021010708537+34629-118083FM-15+0787KPMD V0201005N002652200059N0160935N5+00225-00565102145ADDAA101000095GA1005+999999999GD10991+9999999GF100991999999999999999999MA1102175093005MD1390019+9999REMMET09701/07/21 00:53:02 METAR KPMD 070853Z 10005KT 10SM CLR 02/M06 A3017 RMK AO2 SLP214 T00221056 53001
0186723820231822021010709537+34629-118083FM-15+0787KPMD V0202405N002152200059N0160935N5+00395-00675102155ADDAA101000095GA1005+999999999GD10991+9999999GF100991999999999999999999MA1102205093035REMMET09101/07/21 01:53:02 METAR KPMD 070953Z 24004KT 10SM CLR 04/M07 A3018 RMK AO2 SLP215 T00391067
0186723820231822021010710537+34629-118083FM-15+0787KPMD V0202105N004152200059N0160935N5+00175-00675102175ADDAA101000095GA1005+999999999GD10991+9999999GF100991999999999999999999MA1102205093035REMMET09101/07/21 02:53:02 METAR KPMD 071053Z 21008KT 10SM CLR 02/M07 A3018 RMK AO2 SLP217 T00171067
0244723820231822021010711537+34629-118083FM-15+0787KPMD V0202205N001552200059N0160935N5+00175-00675102185ADDAA101000095GA1005+999999999GD10991+9999999GF100991999999999999999999KA1060M+00611KA2060N+00171MA1102205093035MD1190059+9999REMMET10901/07/21 03:53:02 METAR KPMD 071153Z 22003KT 10SM CLR 02/M07 A3018 RMK AO2 SLP218 T00171067 10061 20017 51005
0186723820231822021010712537+34629-118083FM-15+0787KPMD V0209999C000052200059N0160935N5+00175-00725102205ADDAA101000095GA1005+999999999GD10991+9999999GF100991999999999999999999MA1102245093065REMMET09101/07/21 04:53:02 METAR KPMD 071253Z 00000KT 10SM CLR 02/M07 A3019 RMK AO2 SLP220 T00171072
0191723820231822021010713537+34629-118083FM-15+0787KPMD V0201905N004152200059N0160935N5+00005-00725102265ADDAA101000095GA1005+999999999GD10991+9999999GF100991999999999999999999MA1102275093095REMMET09601/07/21 05:53:02 METAR KPMD 071353Z 19008KT 10SM CLR 00/M07 A3020 RMK AO2 SLP226 T00001072 (EC)
0211723820231822021010714537+34629-118083FM-15+0787KPMD V0202805N002652200059N0160935N5+00115-00725102315ADDAA101000095GA1005+999999999GD10991+9999999GF100991999999999999999999MA1102305093125MD1390089+9999REMMET10201/07/21 06:53:02 METAR KPMD 071453Z 28005KT 10SM CLR 01/M07 A3021 RMK AO2 SLP231 T00111072 53008 (EC)
0191723820231822021010715537+34629-118083FM-15+0787KPMD V0201805N002152200059N0160935N5+00335-00565102415ADDAA101000095GA1005+999999999GD10991+9999999GF100991999999999999999999MA1102375093185REMMET09601/07/21 07:53:02 METAR KPMD 071553Z 18004KT 10SM CLR 03/M06 A3023 RMK AO2 SLP241 T00331056 (EC)
0191723820231822021010716537+34629-118083FM-15+0787KPMD V0202705N001552200059N0160935N5+00675-00615102465ADDAA101000095GA1005+999999999GD10991+9999999GF100991999999999999999999MA1102445093255REMMET09601/07/21 08:53:02 METAR KPMD 071653Z 27003KT 10SM CLR 07/M06 A3025 RMK AO2 SLP246 T00671061 (EC)
0249723820231822021010717537+34629-118083FM-15+0787KPMD V0203205N002152200059N0160935N5+00785-00565102475ADDAA101000095GA1005+999999999GD10991+9999999GF100991999999999999999999KA1060M+00831KA2060N-00061MA1102475093285MD1190159+9999REMMET11401/07/21 09:53:02 METAR KPMD 071753Z 32004KT 10SM CLR 08/M06 A3026 RMK AO2 SLP247 T00781056 10083 21006 51015 (EC)
0162723820231822021010718537+34629-118083FM-15+0787KPMD V0203105N002659999999N9999997N5+01115-00505102385ADDAA101000095MA1102405093225REMMET08901/07/21 10:53:02 METAR KPMD 071853Z 31005KT 11/M05 A3024 RMK AO2 SLP238 T01111050 $ (EC)EQDR01      7SKY009R02      7GAS009
0188723820231822021010719537+34629-118083FM-15+0787KPMD V0203505N004152200059N0160935N5+01285-00565102255ADDAA101000095GA1005+999999999GD10991+9999999GF100991999999999999999999MA1102275093095REMMET09301/07/21 11:53:02 METAR KPMD 071953Z 35008KT 10SM CLR 13/M06 A3020 RMK AO2 SLP225 T01281056 $
0214723820231822021010720537+34629-118083FM-15+0787KPMD V0203105N003152200059N0160935N5+01445-00565102195ADDAA101000095GA1005+999999999GD10991+9999999GF100991999999999999999999MA1102205093035MD1790239+9999REMMET10501/07/21 12:53:02 METAR KPMD 072053Z 31006KT 10SM CLR 14/M06 A3018 RMK AO2 SLP219 6//// T01441056 57023 $
0188723820231822021010721537+34629-118083FM-15+0787KPMD V0203505N003152200059N0160935N5+01675-00675102105ADDAA101000095GA1005+999999999GD10991+9999999GF100991999999999999999999MA1102135092965REMMET09301/07/21 13:53:02 METAR KPMD 072153Z 35006KT 10SM CLR 17/M07 A3016 RMK AO2 SLP210 T01671067 $
0188723820231822021010722537+34629-118083FM-15+0787KPMD V0200505N004652200059N0160935N5+01615-00945102075ADDAA101000095GA1005+999999999GD10991+9999999GF100991999999999999999999MA1102105092935REMMET09301/07/21 14:53:02 METAR KPMD 072253Z 05009KT 10SM CLR 16/M09 A3015 RMK AO2 SLP207 T01611094 $
0252723820231822021010723537+34629-118083FM-15+0787KPMD V0201105N003152200059N0160935N5+01505-00615102075ADDAA101000095GA1005+999999999GD10991+9999999GF100991999999999999999999KA1060M+01721KA2060N+00781MA1102075092905MD1690119+9999REMMET11701/07/21 15:53:02 METAR KPMD 072353Z 11006KT 10SM CLR 15/M06 A3014 RMK AO2 SLP207 6//// T01501061 10172 20078 56011 $
0186723820231822021010800537+34629-118083FM-15+0787KPMD V0201405N002152200059N0160935N5+01175-00505102075ADDAA101000095GA1005+999999999GD10991+9999999GF100991999999999999999999MA1102075092905REMMET09101/07/21 16:53:01 METAR KPMD 080053Z 14004KT 10SM CLR 12/M05 A3014 RMK AO2 SLP207 T01171050
0186723820231822021010801537+34629-118083FM-15+0787KPMD V0209999C000052200059N0160935N5+00895-00445102165ADDAA101000095GA1005+999999999GD10991+9999999GF100991999999999999999999MA1102105092935REMMET09101/07/21 17:53:01 METAR KPMD 080153Z 00000KT 10SM CLR 09/M04 A3015 RMK AO2 SLP216 T00891044
0206723820231822021010802537+34629-118083FM-15+0787KPMD V0201505N001552200059N0160935N5+00615-00395102165ADDAA101000095GA1005+999999999GD10991+9999999GF100991999999999999999999MA1102105092935MD1390019+9999REMMET09701/07/21 18:53:01 METAR KPMD 080253Z 15003KT 10SM CLR 06/M04 A3015 RMK AO2 SLP216 T00611039 53001
0186723820231822021010803537+34629-118083FM-15+0787KPMD V0202705N002152200059N0160935N5+00335-00395102205ADDAA101000095GA1005+999999999GD10991+9999999GF100991999999999999999999MA1102135092965REMMET09101/07/21 19:53:01 METAR KPMD 080353Z 27004KT 10SM CLR 03/M04 A3016 RMK AO2 SLP220 T00331039
0186723820231822021010804537+34629-118083FM-15+0787KPMD V0209999C000052200059N0160935N5+00445-00505102185ADDAA101000095GA1005+999999999GD10991+9999999GF100991999999999999999999MA1102135092965REMMET09101/07/21 20:53:02 METAR KPMD 080453Z 00000KT 10SM CLR 04/M05 A3016 RMK AO2 SLP218 T00441050
0244723820231822021010805537+34629-118083FM-15+0787KPMD V0201605N001552200059N0160935N5+00175-00505102205ADDAA101000095GA1005+999999999GD10991+9999999GF100991999999999999999999KA1060M+01501KA2060N+00171MA1102175093005MD1190069+9999REMMET10901/07/21 21:53:02 METAR KPMD 080553Z 16003KT 10SM CLR 02/M05 A3017 RMK AO2 SLP220 T00171050 10150 20017 51006
0186723820231822021010806537+34629-118083FM-15+0787KPMD V0209999C000052200059N0160935N5+00175-00615102215ADDAA101000095GA1005+999999999GD10991+9999999GF100991999999999999999999MA1102205093035REMMET09101/07/21 22:53:01 METAR KPMD 080653Z 00000KT 10SM CLR 02/M06 A3018 RMK AO2 SLP221 T00171061
0222723820231822021010807537+34629-118083FM-15+0787KPMD V0202105N003652200059N0160935N5+00115-00615102205ADDAA101000095GA1005+999999999GD10991+9999999GF100991999999999999999999KA1240M+01721KA2240N-00061MA1102205093035REMMET10101/07/21 23:53:01 METAR KPMD 080753Z 21007KT 10SM CLR 01/M06 A3018 RMK AO2 SLP220 T00111061 401721006
0858723820231822021010807596+34629-118083SOD  +0787KPMD V020999999999999999999999999999+99999+99999999999ADDAA124000095AX1086246KA1240M+01725KA2240N-00055MG1093044102034OE11240062606099995OE22240058105099995OE33240022499999995REMSOD70924 HR PRECIPITATION (IN): 0.00 WEATHER(CODE):8  24 HR MAX TEMP (F): 6324 HR MIN TEMP (F): 31AVERAGE STATION PRESSURE:27.475 MINIMUM SEA LEVEL PRESSURE:30.13 TIME OF OCCURRENCE:1646 PEAK WIND SPEED (MPH): 14 PEAK WIND DIR (DEG): 60 PEAK WIND TIME (LST):      FASTEST 2MIN SPEED (MPH): 13FASTEST 2MIN DIR (DEG): 50 FASTEST 2MIN TIME (LST):     AVERAGE WIND SPEED (MPH): 5.0 24 HR AVG TEMP (F): 47DEPART FROM NORMAL:  3  HEATING DEGREE DAYS: 18 COOLING DEGREE DAYS:  0 LATEST DAY MAX TEMP (0700-1900 LST):63  LATEST NIGHT MIN TEMP(1900-0800 LST):31 HOURLY INCREMENTAL PRECIPITATION VALUES (IN):.00 0.00 0.00 0.00 0.00 0.00 0.00 0.00 0.00 0.00 0.00 0.00 0.00 0.00 0.00 0.00 0.00 0.00 0.00 0.00 0.00 0.00 0.00 0.00EQDR01     87AXW093
0206723820231822021010808537+34629-118083FM-15+0787KPMD V0202105N003152200059N0160935N5+00065-00565102155ADDAA101000095GA1005+999999999GD10991+9999999GF100991999999999999999999MA1102175093005MD1090009+9999REMMET09701/08/21 00:53:02 METAR KPMD 080853Z 21006KT 10SM CLR 01/M06 A3017 RMK AO2 SLP215 T00061056 50000
0186723820231822021010809537+34629-118083FM-15+0787KPMD V0202905N001552200059N0160935N5+00285-00615102185ADDAA101000095GA1005+999999999GD10991+9999999GF100991999999999999999999MA1102245093065REMMET09101/08/21 01:53:02 METAR KPMD 080953Z 29003KT 10SM CLR 03/M06 A3019 RMK AO2 SLP218 T00281061
0186723820231822021010810537+34629-118083FM-15+0787KPMD V0201305N001552200059N0160935N5+00225-00565102205ADDAA101000095GA1005+999999999GD10991+9999999GF100991999999999999999999MA1102245093065REMMET09101/08/21 02:53:02 METAR KPMD 081053Z 13003KT 10SM CLR 02/M06 A3019 RMK AO2 SLP220 T00221056
0250723820231822021010811537+34629-118083FM-15+0787KPMD V0201405N001552200059N0160935N5+00065-00505102185ADDAA101000095GA1005+999999999GD10991+9999999GF100991999999999999999999KA1060M+00331KA2060N+00001MA1102205093035MD1090029+9999REMMET11501/08/21 03:53:02 METAR KPMD 081153Z 14003KT 10SM CLR 01/M05 A3018 RMK AO2 SLP218 7//// T00061050 10033 20000 50002
0186723820231822021010812537+34629-118083FM-15+0787KPMD V0209999C000052200059N0160935N5+00175-00505102225ADDAA101000095GA1005+999999999GD10991+9999999GF100991999999999999999999MA1102205093035REMMET09101/08/21 04:53:02 METAR KPMD 081253Z 00000KT 10SM CLR 02/M05 A3018 RMK AO2 SLP222 T00171050
0191723820231822021010813537+34629-118083FM-15+0787KPMD V0202505N002152200059N0160935N5+00005-00565102325ADDAA101000095GA1005+999999999GD10991+9999999GF100991999999999999999999MA1102275093095REMMET09601/08/21 05:53:02 METAR KPMD 081353Z 25004KT 10SM CLR 00/M06 A3020 RMK AO2 SLP232 T00001056 (AD)
0214723820231822021010814537+34629-118083FM-15+0787KPMD V0202105N001552200059N0160935N5-00115-00565102385ADDAA101000095GA1005+999999999GD10991+9999999GF100991999999999999999999MA1102305093125MD1390109+9999REMMET10501/08/21 06:53:02 METAR KPMD 081453Z 21003KT 10SM CLR M01/M06 A3021 RMK AO2 SLP238 T10111056 53010 $ (AD)
0193723820231822021010815537+34629-118083FM-15+0787KPMD V0209999C000052200059N0160935N5+00065-00445102495ADDAA101000095GA1005+999999999GD10991+9999999GF100991999999999999999999MA1102405093225REMMET09801/08/21 07:53:02 METAR KPMD 081553Z 00000KT 10SM CLR 01/M04 A3024 RMK AO2 SLP249 T00061044 $ (AD)
0193723820231822021010816537+34629-118083FM-15+0787KPMD V0201705N002152200059N0160935N5+00615-00335102465ADDAA101000095GA1005+999999999GD10991+9999999GF100991999999999999999999MA1102445093255REMMET09801/08/21 08:53:02 METAR KPMD 081653Z 17004KT 10SM CLR 06/M03 A3025 RMK AO2 SLP246 T00611033 $ (AD)
0251723820231822021010817537+34629-118083FM-15+0787KPMD V0201305N002152200059N0160935N5+01175-00675102405ADDAA101000095GA1005+999999999GD10991+9999999GF100991999999999999999999KA1060M+01171KA2060N-00221MA1102375093185MD1090089+9999REMMET11601/08/21 09:53:02 METAR KPMD 081753Z 13004KT 10SM CLR 12/M07 A3023 RMK AO2 SLP240 T01171067 10117 21022 50008 $ (AD)
0193723820231822021010818537+34629-118083FM-15+0787KPMD V0200105N003152200059N0160935N5+01445-00615102295ADDAA101000095GA1005+999999999GD10991+9999999GF100991999999999999999999MA1102305093125REMMET09801/08/21 10:53:02 METAR KPMD 081853Z 01006KT 10SM CLR 14/M06 A3021 RMK AO2 SLP229 T01441061 $ (AD)
0193723820231822021010819537+34629-118083FM-15+0787KPMD V0209999V002152200059N0160935N5+01505-00675102215ADDAA101000095GA1005+999999999GD10991+9999999GF100991999999999999999999MA1102205093035REMMET09801/08/21 11:53:02 METAR KPMD 081953Z VRB04KT 10SM CLR 15/M07 A3018 RMK AO2 SLP221 T01501067 $ (AD)
0213723820231822021010820537+34629-118083FM-15+0787KPMD V0209999C000052200059N0160935N5+01615-00675102135ADDAA101000095GA1005+999999999GD10991+9999999GF100991999999999999999999MA1102135092965MD1790229+9999REMMET10401/08/21 12:53:02 METAR KPMD 082053Z 00000KT 10SM CLR 16/M07 A3016 RMK AO2 SLP213 T01611067 57022 $ (AD)
0193723820231822021010821537+34629-118083FM-15+0787KPMD V0209999C000052200059N0160935N5+01725-00785102025ADDAA101000095GA1005+999999999GD10991+9999999GF100991999999999999999999MA1102075092905REMMET09801/08/21 13:53:02 METAR KPMD 082153Z 00000KT 10SM CLR 17/M08 A3014 RMK AO2 SLP202 T01721078 $ (AD)
0188723820231822021010822537+34629-118083FM-15+0787KPMD V0209999C000052200059N0160935N5+01725-01065102015ADDAA101000095GA1005+999999999GD10991+9999999GF100991999999999999999999MA1102075092905REMMET09301/08/21 14:53:02 METAR KPMD 082253Z 00000KT 10SM CLR 17/M11 A3014 RMK AO2 SLP201 T01721106 $
0246723820231822021010823537+34629-118083FM-15+0787KPMD V0202705N006752200059N0160935N5+01675-00835102065ADDAA101000095GA1005+999999999GD10991+9999999GF100991999999999999999999KA1060M+01721KA2060N+01221MA1102075092905MD1590059+9999REMMET11101/08/21 15:53:02 METAR KPMD 082353Z 27013KT 10SM CLR 17/M08 A3014 RMK AO2 SLP206 T01671083 10172 20122 55005 $
0188723820231822021010900537+34629-118083FM-15+0787KPMD V0202805N007752200059N0160935N5+01395-01285102085ADDAA101000095GA1005+999999999GD10991+9999999GF100991999999999999999999MA1102075092905REMMET09301/08/21 16:53:01 METAR KPMD 090053Z 28015KT 10SM CLR 14/M13 A3014 RMK AO2 SLP208 T01391128 $
0188723820231822021010901537+34629-118083FM-15+0787KPMD V0202805N011352200059N0160935N5+01285-00895102165ADDAA101000095GA1005+999999999GD10991+9999999GF100991999999999999999999MA1102135092965REMMET09301/08/21 17:53:01 METAR KPMD 090153Z 28022KT 10SM CLR 13/M09 A3016 RMK AO2 SLP216 T01281089 $
0240723820231822021010902537+34629-118083FM-15+0787KPMD V0202805N008252200059N0160935N5+01175-00675102265ADDAA101000095GA1005+999999999GD10991+9999999GF100991999999999999999999MA1102245093065MD1390139+9999OD149901331290REMMET11701/08/21 18:53:01 METAR KPMD 090253Z 28016KT 10SM CLR 12/M07 A3019 RMK AO2 PK WND 29026/0206 SLP226 T01171067 53013 $
0188723820231822021010903537+34629-118083FM-15+0787KPMD V0202805N008252200059N0160935N5+01115-00505102305ADDAA101000095GA1005+999999999GD10991+9999999GF100991999999999999999999MA1102275093095REMMET09301/08/21 19:53:01 METAR KPMD 090353Z 28016KT 10SM CLR 11/M05 A3020 RMK AO2 SLP230 T01111050 $
0199723820231822021010904537+34629-118083FM-15+0787KPMD V0202805N008852200059N0160935N5+01175-00285102225ADDAA101000095GA1005+999999999GD10991+9999999GF100991999999999999999999MA1102245093065OC101085REMMET09601/08/21 20:53:02 METAR KPMD 090453Z 28017G21KT 10SM CLR 12/M03 A3019 RMK AO2 SLP222 T01171028 $
0296723820231822021010905537+34629-118083FM-15+0787KPMD V0202805N007752200059N0160935N5+01115+00005102155ADDAA101000095GA1005+999999999GD10991+9999999GF100991999999999999999999KA1060M+01671KA2060N+01001MA1102245093065MD1890009+9999OD149901331280REMMET12801/08/21 21:53:02 METAR KPMD 090553Z 28015KT 10SM CLR 11/00 A3019 RMK AO2 PK WND 28026/0523 SLP215 T01110000 10167 20100 58000 $EQDQ010     3APC3  
0187723820231822021010906537+34629-118083FM-15+0787KPMD V0203005N005752200059N0160935N5+01115+00115102095ADDAA101000095GA1005+999999999GD10991+9999999GF100991999999999999999999MA1102175093005REMMET09201/08/21 22:53:02 METAR KPMD 090653Z 30011KT 10SM CLR 11/01 A3017 RMK AO2 SLP209 T01110011 $
0223723820231822021010907537+34629-118083FM-15+0787KPMD V0202905N004652200059N0160935N5+00945+00175102065ADDAA101000095GA1005+999999999GD10991+9999999GF100991999999999999999999KA1240M+01721KA2240N-00221MA1102135092965REMMET10201/08/21 23:53:02 METAR KPMD 090753Z 29009KT 10SM CLR 09/02 A3016 RMK AO2 SLP206 T00940017 401721022 $
0813723820231822021010907596+34629-118083SOD  +0787KPMD V020999999999999999999999999999+99999+99999999999ADDAA124000095KA1240M+01725KA2240N-00215MG1093024101964OE11240134128099995OE22240111828099995OE33240037199999995REMSOD69224 HR PRECIPITATION (IN): 0.00 24 HR MAX TEMP (F): 6324 HR MIN TEMP (F): 28AVERAGE STATION PRESSURE:27.470 MINIMUM SEA LEVEL PRESSURE:30.11 TIME OF OCCURRENCE:1431 PEAK WIND SPEED (MPH): 30 PEAK WIND DIR (DEG):280 PEAK WIND TIME (LST):      FASTEST 2MIN SPEED (MPH): 25FASTEST 2MIN DIR (DEG):280 FASTEST 2MIN TIME (LST):     AVERAGE WIND SPEED (MPH): 8.3 24 HR AVG TEMP (F): 46DEPART FROM NORMAL:  2  HEATING DEGREE DAYS: 19 COOLING DEGREE DAYS:  0 LATEST DAY MAX TEMP (0700-1900 LST):63  LATEST NIGHT MIN TEMP(1900-0800 LST):28 HOURLY INCREMENTAL PRECIPITATION VALUES (IN):.00 0.00 0.00 0.00 0.00 0.00 0.00 0.00 0.00 0.00 0.00 0.00 0.00 0.00 0.00 0.00 0.00 0.00 0.00 0.00 0.00 0.00 0.00 0.00
0207723820231822021010908537+34629-118083FM-15+0787KPMD V0202905N005752200059N0160935N5+00945+00225102015ADDAA101000095GA1005+999999999GD10991+9999999GF100991999999999999999999MA1102105092935MD1790119+9999REMMET09801/09/21 00:53:02 METAR KPMD 090853Z 29011KT 10SM CLR 09/02 A3015 RMK AO2 SLP201 T00940022 57011 $
0187723820231822021010909537+34629-118083FM-15+0787KPMD V0202905N008252200059N0160935N5+01005+00225101955ADDAA101000095GA1005+999999999GD10991+9999999GF100991999999999999999999MA1102075092905REMMET09201/09/21 01:53:02 METAR KPMD 090953Z 29016KT 10SM CLR 10/02 A3014 RMK AO2 SLP195 T01000022 $
0187723820231822021010910537+34629-118083FM-15+0787KPMD V0202805N006252200059N0160935N5+00945+00285101935ADDAA101000095GA1005+999999999GD10991+9999999GF100991999999999999999999MA1102035092875REMMET09201/09/21 02:53:02 METAR KPMD 091053Z 28012KT 10SM CLR 09/03 A3013 RMK AO2 SLP193 T00940028 $
0274723820231822021010911537+34629-118083FM-15+0787KPMD V0202805N010852200059N0160935N5+00895+00335101865ADDAA101000095GA1005+999999999GD10991+9999999GF100991999999999999999999KA1060M+01171KA2060N+00891MA1101965092815MD1890149+9999OC101345REMMET13101/09/21 03:53:02 METAR KPMD 091153Z 28021G26KT 10SM CLR 09/03 A3011 RMK AO2 PK WND 27026/1149 SLP186 T00890033 10117 20089 58014 $
0180723820231822021010912417+34629-118083FM-16+0787KPMD V0209999V003152200059N0160935N5+00785+00285999999ADDGA1005+999999999GD10991+9999999GF100991999999999999999999MA1102035092875REMMET09601/09/21 04:41:02 SPECI KPMD 091241Z VRB06KT 10SM CLR 08/03 A3013 RMK AO2 WSHFT 1221 T00780028 $
0198723820231822021010912537+34629-118083FM-15+0787KPMD V0200905N003652200059N0160935N5+00785+00225102015ADDAA101000095GA1005+999999999GD10991+9999999GF100991999999999999999999MA1102075092905REMMET10301/09/21 04:53:02 METAR KPMD 091253Z 09007KT 10SM CLR 08/02 A3014 RMK AO2 WSHFT 1221 SLP201 T00780022 $
0187723820231822021010913537+34629-118083FM-15+0787KPMD V0202505N002152200059N0160935N5+00615+00115102155ADDAA101000095GA1005+999999999GD10991+9999999GF100991999999999999999999MA1102175093005REMMET09201/09/21 05:53:02 METAR KPMD 091353Z 25004KT 10SM CLR 06/01 A3017 RMK AO2 SLP215 T00610011 $
0207723820231822021010914537+34629-118083FM-15+0787KPMD V0203205N001552200059N0160935N5+00445+00065102185ADDAA101000095GA1005+999999999GD10991+9999999GF100991999999999999999999MA1102205093035MD1190239+9999REMMET09801/09/21 06:53:02 METAR KPMD 091453Z 32003KT 10SM CLR 04/01 A3018 RMK AO2 SLP218 T00440006 51023 $
0186723820231822021010915537+34629-118083FM-15+0787KPMD V0203505N001552200059N0128755N5+00505+00115102285ADDAA101000095GA1005+999999999GD10991+9999999GF100991999999999999999999MA1102305093125REMMET09101/09/21 07:53:02 METAR KPMD 091553Z 35003KT 8SM CLR 05/01 A3021 RMK AO2 SLP228 T00500011 $
0187723820231822021010916537+34629-118083FM-15+0787KPMD V0200205N002652200059N0160935N5+00675+00065102405ADDAA101000095GA1005+999999999GD10991+9999999GF100991999999999999999999MA1102445093255REMMET09201/09/21 08:53:02 METAR KPMD 091653Z 02005KT 10SM CLR 07/01 A3025 RMK AO2 SLP240 T00670006 $
0246723820231822021010917537+34629-118083FM-15+0787KPMD V0200505N005752200059N0160935N5+01065-00065102405ADDAA101000095GA1005+999999999GD10991+9999999GF100991999999999999999999KA1060M+01061KA2060N+00331MA1102445093255MD1190249+9999REMMET11101/09/21 09:53:02 METAR KPMD 091753Z 05011KT 10SM CLR 11/M01 A3025 RMK AO2 SLP240 T01061006 10106 20033 51024 $
0188723820231822021010918537+34629-118083FM-15+0787KPMD V0200705N006752200059N0160935N5+01395-00785102305ADDAA101000095GA1005+999999999GD10991+9999999GF100991999999999999999999MA1102375093185REMMET09301/09/21 10:53:02 METAR KPMD 091853Z 07013KT 10SM CLR 14/M08 A3023 RMK AO2 SLP230 T01391078 $
0199723820231822021010919537+34629-118083FM-15+0787KPMD V0200705N006752200059N0160935N5+01445-00785102265ADDAA101000095GA1005+999999999GD10991+9999999GF100991999999999999999999MA1102345093155OC101035REMMET09601/09/21 11:53:02 METAR KPMD 091953Z 07013G20KT 10SM CLR 14/M08 A3022 RMK AO2 SLP226 T01441078 $
0208723820231822021010920537+34629-118083FM-15+0787KPMD V0200805N005752200059N0160935N5+01445-00835102175ADDAA101000095GA1005+999999999GD10991+9999999GF100991999999999999999999MA1102245093065MD1890199+9999REMMET09901/09/21 12:53:02 METAR KPMD 092053Z 08011KT 10SM CLR 14/M08 A3019 RMK AO2 SLP217 T01441083 58019 $
0188723820231822021010921537+34629-118083FM-15+0787KPMD V0200505N004652200059N0160935N5+01565-00895102095ADDAA101000095GA1005+999999999GD10991+9999999GF100991999999999999999999MA1102175093005REMMET09301/09/21 13:53:02 METAR KPMD 092153Z 05009KT 10SM CLR 16/M09 A3017 RMK AO2 SLP209 T01561089 $
0188723820231822021010922537+34629-118083FM-15+0787KPMD V0200705N005752200059N0160935N5+01505-01005102085ADDAA101000095GA1005+999999999GD10991+9999999GF100991999999999999999999MA1102175093005REMMET09301/09/21 14:53:02 METAR KPMD 092253Z 07011KT 10SM CLR 15/M10 A3017 RMK AO2 SLP208 T01501100 $
0251723820231822021010923537+34629-118083FM-15+0787KPMD V0200605N006252200059N0160935N5+01445-01065102105ADDAA101000095GA1005+999999999GD10991+9999999GF100991999999999999999999KA1060M+01561KA2060N+01061MA1102175093005MD1590079+9999REMMET11601/09/21 15:53:02 METAR KPMD 092353Z 06012KT 10SM CLR 14/M11 A3017 RMK AO2 SLP210 T01441106 10156 20106 55007 $ (BO)
0188723820231822021011000537+34629-118083FM-15+0787KPMD V0200705N003152200059N0160935N5+01065-01005102165ADDAA101000095GA1005+999999999GD10991+9999999GF100991999999999999999999MA1102205093035REMMET09301/09/21 16:53:01 METAR KPMD 100053Z 07006KT 10SM CLR 11/M10 A3018 RMK AO2 SLP216 T01061100 $
0188723820231822021011001537+34629-118083FM-15+0787KPMD V0200505N003652200059N0160935N5+00835-01005102205ADDAA101000095GA1005+999999999GD10991+9999999GF100991999999999999999999MA1102205093035REMMET09301/09/21 17:53:01 METAR KPMD 100153Z 05007KT 10SM CLR 08/M10 A3018 RMK AO2 SLP220 T00831100 $
0240723820231822021011002537+34629-118083FM-15+0787KPMD V0200905N002152200059N0160935N5+00445-00835102315ADDAA101000095GA1005+999999999GD10991+9999999GF100991999999999999999999MA1102275093095MD1390079+9999OD149901491130REMMET11701/09/21 18:53:01 METAR KPMD 100253Z 09004KT 10SM CLR 04/M08 A3020 RMK AO2 PK WND 13029/0232 SLP231 T00441083 53007 $
0188723820231822021011003537+34629-118083FM-15+0787KPMD V0201005N002652200059N0160935N5+00395-00895102355ADDAA101000095GA1005+999999999GD10991+9999999GF100991999999999999999999MA1102305093125REMMET09301/09/21 19:53:01 METAR KPMD 100353Z 10005KT 10SM CLR 04/M09 A3021 RMK AO2 SLP235 T00391089 $
0188723820231822021011004537+34629-118083FM-15+0787KPMD V0209999C000052200059N0160935N5+00335-00895102435ADDAA101000095GA1005+999999999GD10991+9999999GF100991999999999999999999MA1102375093185REMMET09301/09/21 20:53:02 METAR KPMD 100453Z 00000KT 10SM CLR 03/M09 A3023 RMK AO2 SLP243 T00331089 $
0246723820231822021011005537+34629-118083FM-15+0787KPMD V0209999C000052200059N0160935N5+00335-00945102405ADDAA101000095GA1005+999999999GD10991+9999999GF100991999999999999999999KA1060M+01441KA2060N+00171MA1102405093225MD1190139+9999REMMET11101/09/21 21:53:02 METAR KPMD 100553Z 00000KT 10SM CLR 03/M09 A3024 RMK AO2 SLP240 T00331094 10144 20017 51013 $
0188723820231822021011006537+34629-118083FM-15+0787KPMD V0203105N002152200059N0160935N5+00225-00895102385ADDAA101000095GA1005+999999999GD10991+9999999GF100991999999999999999999MA1102405093225REMMET09301/09/21 22:53:02 METAR KPMD 100653Z 31004KT 10SM CLR 02/M09 A3024 RMK AO2 SLP238 T00221089 $
0224723820231822021011007537+34629-118083FM-15+0787KPMD V0202905N003652200059N0160935N5+00175-00895102425ADDAA101000095GA1005+999999999GD10991+9999999GF100991999999999999999999KA1240M+01561KA2240N+00111MA1102445093255REMMET10301/09/21 23:53:02 METAR KPMD 100753Z 29007KT 10SM CLR 02/M09 A3025 RMK AO2 SLP242 T00171089 401560011 $
0813723820231822021011007596+34629-118083SOD  +0787KPMD V020999999999999999999999999999+99999+99999999999ADDAA124000095KA1240M+01565KA2240N+00115MG1093064101864OE11240152013099995OE22240107328099995OE33240041699999995REMSOD69224 HR PRECIPITATION (IN): 0.00 24 HR MAX TEMP (F): 6024 HR MIN TEMP (F): 34AVERAGE STATION PRESSURE:27.480 MINIMUM SEA LEVEL PRESSURE:30.08 TIME OF OCCURRENCE:0424 PEAK WIND SPEED (MPH): 34 PEAK WIND DIR (DEG):130 PEAK WIND TIME (LST):      FASTEST 2MIN SPEED (MPH): 24FASTEST 2MIN DIR (DEG):280 FASTEST 2MIN TIME (LST):     AVERAGE WIND SPEED (MPH): 9.3 24 HR AVG TEMP (F): 47DEPART FROM NORMAL:  3  HEATING DEGREE DAYS: 18 COOLING DEGREE DAYS:  0 LATEST DAY MAX TEMP (0700-1900 LST):60  LATEST NIGHT MIN TEMP(1900-0800 LST):38 HOURLY INCREMENTAL PRECIPITATION VALUES (IN):.00 0.00 0.00 0.00 0.00 0.00 0.00 0.00 0.00 0.00 0.00 0.00 0.00 0.00 0.00 0.00 0.00 0.00 0.00 0.00 0.00 0.00 0.00 0.00
0208723820231822021011008537+34629-118083FM-15+0787KPMD V0209999C000052200059N0160935N5+00065-00895102405ADDAA101000095GA1005+999999999GD10991+9999999GF100991999999999999999999MA1102405093225MD1090019+9999REMMET09901/10/21 00:53:02 METAR KPMD 100853Z 00000KT 10SM CLR 01/M09 A3024 RMK AO2 SLP240 T00061089 50001 $
0188723820231822021011009537+34629-118083FM-15+0787KPMD V0202505N002152200059N0160935N5+00115-00835102445ADDAA101000095GA1005+999999999GD10991+9999999GF100991999999999999999999MA1102445093255REMMET09301/10/21 01:53:02 METAR KPMD 100953Z 25004KT 10SM CLR 01/M08 A3025 RMK AO2 SLP244 T00111083 $
0189723820231822021011010537+34629-118083FM-15+0787KPMD V0209999C000052200059N0160935N5-00065-00835102515ADDAA101000095GA1005+999999999GD10991+9999999GF100991999999999999999999MA1102515093315REMMET09401/10/21 02:53:02 METAR KPMD 101053Z 00000KT 10SM CLR M01/M08 A3027 RMK AO2 SLP251 T10061083 $
0247723820231822021011011537+34629-118083FM-15+0787KPMD V0201705N002652200059N0160935N5-00115-00725102455ADDAA101000095GA1005+999999999GD10991+9999999GF100991999999999999999999KA1060M+00441KA2060N-00111MA1102445093255MD1090029+9999REMMET11201/10/21 03:53:02 METAR KPMD 101153Z 17005KT 10SM CLR M01/M07 A3025 RMK AO2 SLP245 T10111072 10044 21011 50002 $
0188723820231822021011012537+34629-118083FM-15+0787KPMD V0202505N002152200059N0160935N5+00005-00725102495ADDAA101000095GA1005+999999999GD10991+9999999GF100991999999999999999999MA1102475093285REMMET09301/10/21 04:53:02 METAR KPMD 101253Z 25004KT 10SM CLR 00/M07 A3026 RMK AO2 SLP249 T00001072 $
0193723820231822021011013537+34629-118083FM-15+0787KPMD V0209999C000052200059N0160935N5+00005-00725102525ADDAA101000095GA1005+999999999GD10991+9999999GF100991999999999999999999MA1102475093285REMMET09801/10/21 05:53:02 METAR KPMD 101353Z 00000KT 10SM CLR 00/M07 A3026 RMK AO2 SLP252 T00001072 $ (BO)
0214723820231822021011014537+34629-118083FM-15+0787KPMD V0203105N003652200059N0160935N5-00065-00725102635ADDAA101000095GA1005+999999999GD10991+9999999GF100991999999999999999999MA1102545093345MD1390099+9999REMMET10501/10/21 06:53:02 METAR KPMD 101453Z 31007KT 10SM CLR M01/M07 A3028 RMK AO2 SLP263 T10061072 53009 $ (BO)
0193723820231822021011015537+34629-118083FM-15+0787KPMD V0201705N001552200059N0160935N5+00005-00725102685ADDAA101000095GA1005+999999999GD10991+9999999GF100991999999999999999999MA1102575093375REMMET09801/10/21 07:53:02 METAR KPMD 101553Z 17003KT 10SM CLR 00/M07 A3029 RMK AO2 SLP268 T00001072 $ (BO)
0193723820231822021011016537+34629-118083FM-15+0787KPMD V0209999C000052200059N0160935N5+00445-00785102725ADDAA101000095GA1005+999999999GD10991+9999999GF100991999999999999999999MA1102645093445REMMET09801/10/21 08:53:02 METAR KPMD 101653Z 00000KT 10SM CLR 04/M08 A3031 RMK AO2 SLP272 T00441078 $ (BO)
0251723820231822021011017537+34629-118083FM-15+0787KPMD V0209999C000052200059N0160935N5+00835-00895102685ADDAA101000095GA1005+999999999GD10991+9999999GF100991999999999999999999KA1060M+00831KA2060N-00171MA1102645093445MD1190129+9999REMMET11601/10/21 09:53:02 METAR KPMD 101753Z 00000KT 10SM CLR 08/M09 A3031 RMK AO2 SLP268 T00831089 10083 21017 51012 $ (BO)
0193723820231822021011018537+34629-118083FM-15+0787KPMD V0209999C000052200059N0160935N5+00945-00835102575ADDAA101000095GA1005+999999999GD10991+9999999GF100991999999999999999999MA1102545093345REMMET09801/10/21 10:53:02 METAR KPMD 101853Z 00000KT 10SM CLR 09/M08 A3028 RMK AO2 SLP257 T00941083 $ (BO)
0193723820231822021011019537+34629-118083FM-15+0787KPMD V0203305N003152200059N0160935N5+00945-00835102515ADDAA101000095GA1005+999999999GD10991+9999999GF100991999999999999999999MA1102475093285REMMET09801/10/21 11:53:02 METAR KPMD 101953Z 33006KT 10SM CLR 09/M08 A3026 RMK AO2 SLP251 T00941083 $ (BO)
0213723820231822021011020537+34629-118083FM-15+0787KPMD V0203205N002652200059N0160935N5+01065-00835102435ADDAA101000095GA1005+999999999GD10991+9999999GF100991999999999999999999MA1102405093225MD1690239+9999REMMET10401/10/21 12:53:02 METAR KPMD 102053Z 32005KT 10SM CLR 11/M08 A3024 RMK AO2 SLP243 T01061083 56023 $ (AD)
0193723820231822021011021537+34629-118083FM-15+0787KPMD V0209999V001552200059N0160935N5+01285-00785102355ADDAA101000095GA1005+999999999GD10991+9999999GF100991999999999999999999MA1102345093155REMMET09801/10/21 13:53:02 METAR KPMD 102153Z VRB03KT 10SM CLR 13/M08 A3022 RMK AO2 SLP235 T01281078 $ (AD)
0193723820231822021011022537+34629-118083FM-15+0787KPMD V0209999C000052200059N0160935N5+01335-00725102275ADDAA101000095GA1005+999999999GD10991+9999999GF100991999999999999999999MA1102275093095REMMET09801/10/21 14:53:02 METAR KPMD 102253Z 00000KT 10SM CLR 13/M07 A3020 RMK AO2 SLP227 T01331072 $ (AD)
0251723820231822021011023537+34629-118083FM-15+0787KPMD V0209999C000052200059N0160935N5+01445-00785102295ADDAA101000095GA1005+999999999GD10991+9999999GF100991999999999999999999KA1060M+01441KA2060N+00831MA1102275093095MD1590119+9999REMMET11601/10/21 15:53:02 METAR KPMD 102353Z 00000KT 10SM CLR 14/M08 A3020 RMK AO2 SLP229 T01441078 10144 20083 55011 $ (AD)
0188723820231822021011100537+34629-118083FM-15+0787KPMD V0203505N002152200059N0160935N5+01175-00785102325ADDAA101000095GA1005+999999999GD10991+9999999GF100991999999999999999999MA1102305093125REMMET09301/10/21 16:53:01 METAR KPMD 110053Z 35004KT 10SM CLR 12/M08 A3021 RMK AO2 SLP232 T01171078 $
0188723820231822021011101537+34629-118083FM-15+0787KPMD V0202905N002152200059N0160935N5+00895-00675102435ADDAA101000095GA1005+999999999GD10991+9999999GF100991999999999999999999MA1102375093185REMMET09301/10/21 17:53:01 METAR KPMD 110153Z 29004KT 10SM CLR 09/M07 A3023 RMK AO2 SLP243 T00891067 $
0208723820231822021011102537+34629-118083FM-15+0787KPMD V0202105N002652200059N0160935N5+00565-00565102465ADDAA101000095GA1005+999999999GD10991+9999999GF100991999999999999999999MA1102375093185MD1190099+9999REMMET09901/10/21 18:53:01 METAR KPMD 110253Z 21005KT 10SM CLR 06/M06 A3023 RMK AO2 SLP246 T00561056 51009 $
0188723820231822021011103537+34629-118083FM-15+0787KPMD V0202005N003652200059N0160935N5+00505-00565102495ADDAA101000095GA1005+999999999GD10991+9999999GF100991999999999999999999MA1102405093225REMMET09301/10/21 19:53:01 METAR KPMD 110353Z 20007KT 10SM CLR 05/M06 A3024 RMK AO2 SLP249 T00501056 $
0188723820231822021011104537+34629-118083FM-15+0787KPMD V0202105N002652200059N0160935N5+00285-00565102555ADDAA101000095GA1005+999999999GD10991+9999999GF100991999999999999999999MA1102475093285REMMET09301/10/21 20:53:02 METAR KPMD 110453Z 21005KT 10SM CLR 03/M06 A3026 RMK AO2 SLP255 T00281056 $
0246723820231822021011105537+34629-118083FM-15+0787KPMD V0202105N002152200059N0160935N5+00175-00565102535ADDAA101000095GA1005+999999999GD10991+9999999GF100991999999999999999999KA1060M+01441KA2060N+00111MA1102475093285MD1190109+9999REMMET11101/10/21 21:53:02 METAR KPMD 110553Z 21004KT 10SM CLR 02/M06 A3026 RMK AO2 SLP253 T00171056 10144 20011 51010 $
0188723820231822021011106537+34629-118083FM-15+0787KPMD V0202005N002152200059N0160935N5+00115-00565102575ADDAA101000095GA1005+999999999GD10991+9999999GF100991999999999999999999MA1102545093345REMMET09301/10/21 22:53:02 METAR KPMD 110653Z 20004KT 10SM CLR 01/M06 A3028 RMK AO2 SLP257 T00111056 $
0224723820231822021011107537+34629-118083FM-15+0787KPMD V0209999C000052200059N0160935N5+00005-00505102595ADDAA101000095GA1005+999999999GD10991+9999999GF100991999999999999999999KA1240M+01441KA2240N-00171MA1102545093345REMMET10301/10/21 23:53:02 METAR KPMD 110753Z 00000KT 10SM CLR 00/M05 A3028 RMK AO2 SLP259 T00001050 401441017 $
0813723820231822021011107596+34629-118083SOD  +0787KPMD V020999999999999999999999999999+99999+99999999999ADDAA124000095KA1240M+01445KA2240N-00165MG1093264102274OE11240053633099995OE22240044728099995OE33240015299999995REMSOD69224 HR PRECIPITATION (IN): 0.00 24 HR MAX TEMP (F): 5824 HR MIN TEMP (F): 29AVERAGE STATION PRESSURE:27.540 MINIMUM SEA LEVEL PRESSURE:30.20 TIME OF OCCURRENCE:1549 PEAK WIND SPEED (MPH): 12 PEAK WIND DIR (DEG):330 PEAK WIND TIME (LST):      FASTEST 2MIN SPEED (MPH): 10FASTEST 2MIN DIR (DEG):280 FASTEST 2MIN TIME (LST):     AVERAGE WIND SPEED (MPH): 3.4 24 HR AVG TEMP (F): 44DEPART FROM NORMAL: -1  HEATING DEGREE DAYS: 21 COOLING DEGREE DAYS:  0 LATEST DAY MAX TEMP (0700-1900 LST):58  LATEST NIGHT MIN TEMP(1900-0800 LST):29 HOURLY INCREMENTAL PRECIPITATION VALUES (IN):.00 0.00 0.00 0.00 0.00 0.00 0.00 0.00 0.00 0.00 0.00 0.00 0.00 0.00 0.00 0.00 0.00 0.00 0.00 0.00 0.00 0.00 0.00 0.00
0208723820231822021011108537+34629-118083FM-15+0787KPMD V0202505N002152200059N0160935N5+00225-00445102605ADDAA101000095GA1005+999999999GD10991+9999999GF100991999999999999999999MA1102575093375MD1190099+9999REMMET09901/11/21 00:53:02 METAR KPMD 110853Z 25004KT 10SM CLR 02/M04 A3029 RMK AO2 SLP260 T00221044 51009 $
0189723820231822021011109537+34629-118083FM-15+0787KPMD V0202505N002652200059N0160935N5-00115-00565102635ADDAA101000095GA1005+999999999GD10991+9999999GF100991999999999999999999MA1102615093405REMMET09401/11/21 01:53:02 METAR KPMD 110953Z 25005KT 10SM CLR M01/M06 A3030 RMK AO2 SLP263 T10111056 $
0188723820231822021011110537+34629-118083FM-15+0787KPMD V0209999C000052200059N0160935N5+00065-00505102595ADDAA101000095GA1005+999999999GD10991+9999999GF100991999999999999999999MA1102575093375REMMET09301/11/21 02:53:02 METAR KPMD 111053Z 00000KT 10SM CLR 01/M05 A3029 RMK AO2 SLP259 T00061050 $
0247723820231822021011111537+34629-118083FM-15+0787KPMD V0209999C000052200059N0160935N5-00115-00505102545ADDAA101000095GA1005+999999999GD10991+9999999GF100991999999999999999999KA1060M+00221KA2060N-00111MA1102545093345MD1890059+9999REMMET11201/11/21 03:53:02 METAR KPMD 111153Z 00000KT 10SM CLR M01/M05 A3028 RMK AO2 SLP254 T10111050 10022 21011 58005 $
0189723820231822021011112537+34629-118083FM-15+0787KPMD V0209999C000052200059N0160935N5-00175-00565102555ADDAA101000095GA1005+999999999GD10991+9999999GF100991999999999999999999MA1102515093315REMMET09401/11/21 04:53:02 METAR KPMD 111253Z 00000KT 10SM CLR M02/M06 A3027 RMK AO2 SLP255 T10171056 $
0194723820231822021011113537+34629-118083FM-15+0787KPMD V0201805N001552200059N0160935N5-00225-00565102645ADDAA101000095GA1005+999999999GD10991+9999999GF100991999999999999999999MA1102545093345REMMET09901/11/21 05:53:02 METAR KPMD 111353Z 18003KT 10SM CLR M02/M06 A3028 RMK AO2 SLP264 T10221056 $ (AD)
0214723820231822021011114537+34629-118083FM-15+0787KPMD V0201805N002652200059N0160935N5-00335-00615102695ADDAA101000095GA1005+999999999GD10991+9999999GF100991999999999999999999MA1102575093375MD1390049+9999REMMET10501/11/21 06:53:02 METAR KPMD 111453Z 18005KT 10SM CLR M03/M06 A3029 RMK AO2 SLP269 T10331061 53004 $ (AD)
0194723820231822021011115537+34629-118083FM-15+0787KPMD V0201705N002152200059N0160935N5-00065-00445102705ADDAA101000095GA1005+999999999GD10991+9999999GF100991999999999999999999MA1102615093405REMMET09901/11/21 07:53:02 METAR KPMD 111553Z 17004KT 10SM CLR M01/M04 A3030 RMK AO2 SLP270 T10061044 $ (AD)
0191723820231822021011116537+34629-118083FM-15+0787KPMD V0209999C000052200059N0160935N5+00395-00395102745ADDAA101000095GA1005+999999999GD10991+9999999GF100991999999999999999999MA1102645093445REMMET09601/11/21 08:53:02 METAR KPMD 111653Z 00000KT 10SM CLR 04/M04 A3031 RMK AO2 SLP274 T00391039 (AD)
0249723820231822021011117537+34629-118083FM-15+0787KPMD V0203205N002652200059N0160935N5+00615-00445102815ADDAA101000095GA1005+999999999GD10991+9999999GF100991999999999999999999KA1060M+00611KA2060N-00391MA1102745093535MD1390169+9999REMMET11401/11/21 09:53:02 METAR KPMD 111753Z 32005KT 10SM CLR 06/M04 A3034 RMK AO2 SLP281 T00611044 10061 21039 53016 (AD)
0191723820231822021011118537+34629-118083FM-15+0787KPMD V0203405N001552200059N0160935N5+00835-00565102775ADDAA101000095GA1005+999999999GD10991+9999999GF100991999999999999999999MA1102715093505REMMET09601/11/21 10:53:02 METAR KPMD 111853Z 34003KT 10SM CLR 08/M06 A3033 RMK AO2 SLP277 T00831056 (AD)
0191723820231822021011119537+34629-118083FM-15+0787KPMD V0209999C000052200059N0160935N5+01005-00565102675ADDAA101000095GA1005+999999999GD10991+9999999GF100991999999999999999999MA1102615093405REMMET09601/11/21 11:53:02 METAR KPMD 111953Z 00000KT 10SM CLR 10/M06 A3030 RMK AO2 SLP267 T01001056 (AD)
0211723820231822021011120537+34629-118083FM-15+0787KPMD V0200105N002152200059N0160935N5+01335-00565102535ADDAA101000095GA1005+999999999GD10991+9999999GF100991999999999999999999MA1102545093345MD1890199+9999REMMET10201/11/21 12:53:02 METAR KPMD 112053Z 01004KT 10SM CLR 13/M06 A3028 RMK AO2 SLP253 T01331056 58019 (AD)
0191723820231822021011121537+34629-118083FM-15+0787KPMD V0200205N003652200059N0160935N5+01565-00675102475ADDAA101000095GA1005+999999999GD10991+9999999GF100991999999999999999999MA1102475093285REMMET09601/11/21 13:53:02 METAR KPMD 112153Z 02007KT 10SM CLR 16/M07 A3026 RMK AO2 SLP247 T01561067 (AD)
0191723820231822021011122537+34629-118083FM-15+0787KPMD V0200405N003152200059N0160935N5+01675-00725102485ADDAA101000095GA1005+999999999GD10991+9999999GF100991999999999999999999MA1102515093315REMMET09601/11/21 14:53:02 METAR KPMD 112253Z 04006KT 10SM CLR 17/M07 A3027 RMK AO2 SLP248 T01671072 (KC)
0249723820231822021011123537+34629-118083FM-15+0787KPMD V0200505N004152200059N0160935N5+01565-00725102435ADDAA101000095GA1005+999999999GD10991+9999999GF100991999999999999999999KA1060M+01671KA2060N+00611MA1102405093225MD1890109+9999REMMET11401/11/21 15:53:02 METAR KPMD 112353Z 05008KT 10SM CLR 16/M07 A3024 RMK AO2 SLP243 T01561072 10167 20061 58010 (KC)
0186723820231822021011200537+34629-118083FM-15+0787KPMD V0200705N002152200059N0160935N5+01285-00675102445ADDAA101000095GA1005+999999999GD10991+9999999GF100991999999999999999999MA1102405093225REMMET09101/11/21 16:53:01 METAR KPMD 120053Z 07004KT 10SM CLR 13/M07 A3024 RMK AO2 SLP244 T01281067
0186723820231822021011201537+34629-118083FM-15+0787KPMD V0200105N002652200059N0160935N5+01065-00675102515ADDAA101000095GA1005+999999999GD10991+9999999GF100991999999999999999999MA1102445093255REMMET09101/11/21 17:53:01 METAR KPMD 120153Z 01005KT 10SM CLR 11/M07 A3025 RMK AO2 SLP251 T01061067
0206723820231822021011202537+34629-118083FM-15+0787KPMD V0209999C000052200059N0160935N5+00835-00675102605ADDAA101000095GA1005+999999999GD10991+9999999GF100991999999999999999999MA1102515093315MD1390079+9999REMMET09701/11/21 18:53:01 METAR KPMD 120253Z 00000KT 10SM CLR 08/M07 A3027 RMK AO2 SLP260 T00831067 53007
0186723820231822021011203537+34629-118083FM-15+0787KPMD V0209999C000052200059N0160935N5+00615-00725102595ADDAA101000095GA1005+999999999GD10991+9999999GF100991999999999999999999MA1102515093315REMMET09101/11/21 19:53:01 METAR KPMD 120353Z 00000KT 10SM CLR 06/M07 A3027 RMK AO2 SLP259 T00611072
0186723820231822021011204537+34629-118083FM-15+0787KPMD V0202805N003652200059N0160935N5+00445-00615102665ADDAA101000095GA1005+999999999GD10991+9999999GF100991999999999999999999MA1102615093405REMMET09101/11/21 20:53:02 METAR KPMD 120453Z 28007KT 10SM CLR 04/M06 A3030 RMK AO2 SLP266 T00441061
0244723820231822021011205537+34629-118083FM-15+0787KPMD V0209999C000052200059N0160935N5+00335-00615102655ADDAA101000095GA1005+999999999GD10991+9999999GF100991999999999999999999KA1060M+01561KA2060N+00221MA1102615093405MD1390099+9999REMMET10901/11/21 21:53:02 METAR KPMD 120553Z 00000KT 10SM CLR 03/M06 A3030 RMK AO2 SLP265 T00331061 10156 20022 53009
0186723820231822021011206537+34629-118083FM-15+0787KPMD V0202005N003152200059N0160935N5+00175-00615102655ADDAA101000095GA1005+999999999GD10991+9999999GF100991999999999999999999MA1102615093405REMMET09101/11/21 22:53:02 METAR KPMD 120653Z 20006KT 10SM CLR 02/M06 A3030 RMK AO2 SLP265 T00171061
0222723820231822021011207537+34629-118083FM-15+0787KPMD V0202605N001552200059N0160935N5+00065-00615102635ADDAA101000095GA1005+999999999GD10991+9999999GF100991999999999999999999KA1240M+01671KA2240N-00391MA1102615093405REMMET10101/11/21 23:53:02 METAR KPMD 120753Z 26003KT 10SM CLR 01/M06 A3030 RMK AO2 SLP263 T00061061 401671039
0858723820231822021011207596+34629-118083SOD  +0787KPMD V020999999999999999999999999999+99999+99999999999ADDAA124000095AX1086246KA1240M+01675KA2240N-00385MG1093364102374OE11240058106099995OE22240053606099995OE33240017099999995REMSOD70924 HR PRECIPITATION (IN): 0.00 WEATHER(CODE):8  24 HR MAX TEMP (F): 6224 HR MIN TEMP (F): 25AVERAGE STATION PRESSURE:27.570 MINIMUM SEA LEVEL PRESSURE:30.23 TIME OF OCCURRENCE:1626 PEAK WIND SPEED (MPH): 13 PEAK WIND DIR (DEG): 60 PEAK WIND TIME (LST):      FASTEST 2MIN SPEED (MPH): 12FASTEST 2MIN DIR (DEG): 60 FASTEST 2MIN TIME (LST):     AVERAGE WIND SPEED (MPH): 3.8 24 HR AVG TEMP (F): 44DEPART FROM NORMAL: -1  HEATING DEGREE DAYS: 21 COOLING DEGREE DAYS:  0 LATEST DAY MAX TEMP (0700-1900 LST):62  LATEST NIGHT MIN TEMP(1900-0800 LST):25 HOURLY INCREMENTAL PRECIPITATION VALUES (IN):.00 0.00 0.00 0.00 0.00 0.00 0.00 0.00 0.00 0.00 0.00 0.00 0.00 0.00 0.00 0.00 0.00 0.00 0.00 0.00 0.00 0.00 0.00 0.00EQDR01     87AXW093
0206723820231822021011208537+34629-118083FM-15+0787KPMD V0202105N002152200059N0160935N5+00225-00615102635ADDAA101000095GA1005+999999999GD10991+9999999GF100991999999999999999999MA1102645093445MD1390029+9999REMMET09701/12/21 00:53:02 METAR KPMD 120853Z 21004KT 10SM CLR 02/M06 A3031 RMK AO2 SLP263 T00221061 53002
0187723820231822021011209537+34629-118083FM-15+0787KPMD V0201705N002152200059N0160935N5-00115-00615102645ADDAA101000095GA1005+999999999GD10991+9999999GF100991999999999999999999MA1102645093445REMMET09201/12/21 01:53:02 METAR KPMD 120953Z 17004KT 10SM CLR M01/M06 A3031 RMK AO2 SLP264 T10111061
0187723820231822021011210537+34629-118083FM-15+0787KPMD V0202005N004152200059N0160935N5-00115-00615102615ADDAA101000095GA1005+999999999GD10991+9999999GF100991999999999999999999MA1102615093405REMMET09201/12/21 02:53:02 METAR KPMD 121053Z 20008KT 10SM CLR M01/M06 A3030 RMK AO2 SLP261 T10111061
0244723820231822021011211537+34629-118083FM-15+0787KPMD V0209999C000052200059N0160935N5+00115-00675102615ADDAA101000095GA1005+999999999GD10991+9999999GF100991999999999999999999KA1060M+00331KA2060N-00171MA1102615093405MD1790019+9999REMMET10901/12/21 03:53:02 METAR KPMD 121153Z 00000KT 10SM CLR 01/M07 A3030 RMK AO2 SLP261 T00111067 10033 21017 57001
0187723820231822021011212537+34629-118083FM-15+0787KPMD V0202005N002152200059N0160935N5-00175-00675102655ADDAA101000095GA1005+999999999GD10991+9999999GF100991999999999999999999MA1102615093405REMMET09201/12/21 04:53:02 METAR KPMD 121253Z 20004KT 10SM CLR M02/M07 A3030 RMK AO2 SLP265 T10171067
0192723820231822021011213537+34629-118083FM-15+0787KPMD V0201805N001552200059N0160935N5-00285-00675102705ADDAA101000095GA1005+999999999GD10991+9999999GF100991999999999999999999MA1102645093445REMMET09701/12/21 05:53:02 METAR KPMD 121353Z 18003KT 10SM CLR M03/M07 A3031 RMK AO2 SLP270 T10281067 (AD)
0212723820231822021011214537+34629-118083FM-15+0787KPMD V0209999C000052200059N0160935N5-00225-00675102745ADDAA101000095GA1005+999999999GD10991+9999999GF100991999999999999999999MA1102645093445MD1390039+9999REMMET10301/12/21 06:53:02 METAR KPMD 121453Z 00000KT 10SM CLR M02/M07 A3031 RMK AO2 SLP274 T10221067 53003 (AD)
0192723820231822021011215537+34629-118083FM-15+0787KPMD V0201505N001552200059N0160935N5-00065-00565102815ADDAA101000095GA1005+999999999GD10991+9999999GF100991999999999999999999MA1102715093505REMMET09701/12/21 07:53:02 METAR KPMD 121553Z 15003KT 10SM CLR M01/M06 A3033 RMK AO2 SLP281 T10061056 (AD)
0191723820231822021011216537+34629-118083FM-15+0787KPMD V0209999C000052200059N0160935N5+00445-00565102865ADDAA101000095GA1005+999999999GD10991+9999999GF100991999999999999999999MA1102785093565REMMET09601/12/21 08:53:02 METAR KPMD 121653Z 00000KT 10SM CLR 04/M06 A3035 RMK AO2 SLP286 T00441056 (AD)
