0312723820231822023010100537+34629-118083FM-15+0787KPMD V0202105N007252200059N0160935N5+01335+00675100815ADDAA101000095GA1025+012505999GA2045+015245999GD11991+0125059GD22991+0152459GE19AGL   +99999+99999GF104995999999012501999999MA1100915091835OC101395OD149901391210REMMET12312/31/22 16:53:03 METAR KPMD 010053Z 21014G27KT 10SM FEW041 SCT050 13/07 A2980 RMK AO2 PK WND 21027/2357 SLP081 T01330067 $EQDD01      0ADE726
0219723820231822023010101537+34629-118083FM-15+0787KPMD V0209999V00155009755MN0160935N5+01285+00725100725ADDAA101000095GA1085+009755999GD14991+0097559GE19AGL   +99999+99999GF199999999999009751999999MA1100815091745REMMET10212/31/22 17:53:03 METAR KPMD 010153Z VRB03KT 10SM OVC032 13/07 A2977 RMK AO2 PRESFR SLP072 T01280072 $
0216723820231822023010102537+34629-118083FM-15+0787KPMD V0202005N007252200059N0160935N5+01285+00615100635ADDAA101000095GA1005+999999999GD10991+9999999GF100991999999999999999999MA1100755091685OC101445REMMET11312/31/22 18:53:03 METAR KPMD 010253Z 20014G28KT 10SM CLR 13/06 A2975 RMK AO2 PK WND 20028/0244 SLP063 T01280061 $
0293723820231822023010103537+34629-118083FM-15+0787KPMD V0202305N00725016765MN0128755N5+01175+00835100615ADDAA101001395AU110020015AW1615GA1085+016765999GD14991+0167659GE19AGL   +99999+99999GF199999999999016761999999MA1100715091655MW1615OC101185OD149901541200REMMET13112/31/22 19:53:03 METAR KPMD 010353Z 23014G23KT 8SM -RA OVC055 12/08 A2974 RMK AO2 PK WND 20030/0326 RAB27 SLP061 P0003 T01170083 $
0268723820231822023010104537+34629-118083FM-15+0787KPMD V0202105N00415013115MN0040235N5+01115+00895100645ADDAA101006995AU130020015AU200001015AW1105AW2635GA1085+013115999GD14991+0131159GE19AGL   +99999+99999GF199999999999013111999999MA1100755091685MW1635REMMET11112/31/22 20:53:03 METAR KPMD 010453Z 21008KT 2 1/2SM +RA BR OVC043 11/09 A2975 RMK AO2 SLP064 P0026 T01110089 $
0294723820231822023010105057+34629-118083FM-16+0787KPMD V0202005N00465013415MN0064375N5+01115+00895999999ADDAA101001231AU120020015AU200001015AW1105AW2625GA1075+013415999GA2085+015245999GD13991+0134159GD24991+0152459GE19AGL   +99999+99999GF199999999999013411999999MA1100755091685MW1655REMMET10612/31/22 21:05:03 SPECI KPMD 010505Z 20009KT 4SM RA BR BKN044 OVC050 11/09 A2975 RMK AO2 P0005 T01110089 $
0337723820231822023010105537+34629-118083FM-15+0787KPMD V0202005N00725015245MN0064375N5+01115+00835100565ADDAA101004695AA206012291AU120020015AW1625GA1085+015245999GD14991+0152459GE19AGL   +99999+99999GF199999999999015241999999KA1060M+01391KA2060N+01061MA1100685091625MD1890069+9999MW1655REMMET12712/31/22 21:53:03 METAR KPMD 010553Z 20014KT 4SM RA OVC050 11/08 A2973 RMK AO2 SLP056 P0019 60048 T01110083 10139 20106 58006 $EQDQ01  01218PRCP06
0286723820231822023010106537+34629-118083FM-15+0787KPMD V0202005N00825015245MN0096565N5+01115+00785100395ADDAA101002095AU120020015AW1625GA1085+015245999GD14991+0152459GE19AGL   +99999+99999GF199999999999015241999999MA1100515091465MW1655OC101345OD149901331200REMMET12412/31/22 22:53:03 METAR KPMD 010653Z 20016G26KT 6SM RA OVC050 11/08 A2968 RMK AO2 PK WND 20026/0653 SLP039 P0010 T01110078 $
0268723820231822023010107534+34629-118085FM-15+077599999V0201801N007710167619N016093199+01061+00721100261ADDAA101001731AW1611GD14991+0167619GE19AGL   +99999+99999GF199999999999016761999999KA1240M+01561KA2240N+01061MA1100371999999OD149901331180REMMET121METAR KPMD 010753Z AUTO 18015KT 10SM -RA OVC055 11/07 A2964 RMK AO2 PK WND 18026/0658 SLP026 P0007 T01060072 401560106 $=
0863723820231822023010107596+34629-118083SOD  +0787KPMD V020999999999999999999999999999+99999+99999999999ADDAA124016895AT1AU16RA  5AT2AU13BR  5AX1015245KA1240M+01565KA2240N+01065MG1092064100244OE11240178821099995OE22240138621099995OE33240071199999995REMSOD70924 HR PRECIPITATION (IN): 0.66 WEATHER(CODE):1  24 HR MAX TEMP (F): 6024 HR MIN TEMP (F): 51AVERAGE STATION PRESSURE:27.185 MINIMUM SEA LEVEL PRESSURE:29.60 TIME OF OCCURRENCE:2359 PEAK WIND SPEED (MPH): 40 PEAK WIND DIR (DEG):210 PEAK WIND TIME (LST):      FASTEST 2MIN SPEED (MPH): 31FASTEST 2MIN DIR (DEG):210 FASTEST 2MIN TIME (LST):     AVERAGE WIND SPEED (MPH):15.9 24 HR AVG TEMP (F): 56DEPART FROM NORMAL: 12  HEATING DEGREE DAYS:  9 COOLING DEGREE DAYS:  0 LATEST DAY MAX TEMP (0700-1900 LST):60  LATEST NIGHT MIN TEMP(1900-0800 LST):50 HOURLY INCREMENTAL PRECIPITATION VALUES (IN):.00 0.00 0.00 0.00 0.00 0.00 0.00 0.00 0.00 0.00 0.00 0.00 0.00 0.00 0.00 0.00 0.00 0.00 0.00 0.05 0.27 0.18 0.08 0.08
1276723820231822023010107596+34629-118083SOM  +0787KPMD V020999999999999999999999999999+99999+99999999999ADDAB10027996AD10016893131999999995AE1045025015005AH1005001093120565AH2010002093120565AH3015002893120565AH4020003693120565AH5030004693120595AH6045006193121055AI1060007193121265AI2080008693121405AI3100010293121595AI4120011493122106AI5150013093122205AI6180014093122525KB1744N+01505KB2744M+13945KB3744A+07725KC1N9-00501917995KC2M9+02002599995KD1744H05896KD2744C00005KE1005005145005MH1092754101904MK1103082409535100243123595REMSOM796PCP MTOT:1.10 PCP GT 24HRS:0.66 DATE(S):31 DAYS W/PCP >=.01:4  DAYS W/PCP >=.10:2  DAYS W/ PCP >=.50:1 DAYS W/PCP >=1.00:0 MSDP AMTS W/DATE-TIME TAGS:MIN:5 0.04  31/2056 MIN:10 0.08  31/2056 MIN:15 0.11  31/2056 MIN:20 0.14  31/2056 MIN:30 0.18  31/2059 MIN:45 0.24  31/2105 MIN:60 0.28  31/2126 MIN:80 0.34  31/2140 MIN:100 0.40  31/2159 MIN:120 0.45  31/2210 MIN:150 0.51  31/2220 MIN:180 0.55  31/2252 AVG DLY MIN:34.7  AVG DLY MAX:57.1  AVG MLY TMP:45.9  MIN TMP:23 DATE(S):19 17 MAX TMP:68  DATE(S):25 DAYS MAX <=32:0 DAYS MAX >=90:0  DAYS MIN <=32:14 DAYS MIN  <=0:0  AVG STP:27.390 LWST SLP:29.60 DATE/TIME:312359 HGST SLP:30.44 DATE/TIME:240953 HDD MTH TOT:589 DEP NORM:-2553 SEASON(JUL 1-JUN 30):1116 DEP NORM:-25536 CDD MTH TOT:0 DEP NORM:-2553 SEASON(JAN 1-DEC 31):2488 DEP NORM:-25536EQDR01  1.107ABP070R02  0.457A10078R03   5897KDH045
0371723820231822023010108387+34629-118083FM-16+0787KPMD V0202305N01185013415MN0040235N5+01065+00785999999ADDAA101001231AU130020015AW1635GA1045+007925999GA2075+013415999GA3075+033535999GD12991+0079259GD23991+0134159GD33991+0335359GE19AGL   +99999+99999GF199999999999007921999999MA1100375091335MW1635OC101905OD149901901240REMMET14701/01/23 00:38:02 SPECI KPMD 010838Z 23023G37KT 2 1/2SM +RA SCT026 BKN044 BKN110 11/08 A2964 RMK AO2 PK WND 24037/0834 WSHFT 0823 P0005 T01060078 $
0357723820231822023010108507+34629-118083FM-16+0787KPMD V0202405N01085013725MN0080475N5+01105+00705999999ADDAA101001731AU110020015AW1615GA1025+007925999GA2075+013725999GA3075+018295999GD11991+0079259GD23991+0137259GD33991+0182959GE19AGL   +99999+99999GF199999999999007921999999MA1100375091335MW1615OC101655OD149901901240REMMET13301/01/23 00:50:02 SPECI KPMD 010850Z 24021G32KT 5SM -RA FEW026 BKN045 BKN060 11/07 A2964 RMK AO2 PK WND 24037/0834 WSHFT 0823 P0007 $
0431723820231822023010108537+34629-118083FM-15+0787KPMD V0202505N00985013115MN0160935N5+01115+00725100285ADDAA101001595AA203006191AU110020015AW1615GA1025+008235999GA2075+013115999GA3085+022865999GD11991+0082359GD23991+0131159GD34991+0228659GE19AGL   +99999+99999GF199999999999008231999999MA1100415091365MD1590099+9999MW1615OC101655OD149901901240REMMET16301/01/23 00:53:02 METAR KPMD 010853Z 25019G32KT 10SM -RA FEW027 BKN043 OVC075 11/07 A2965 RMK AO2 PK WND 24037/0834 WSHFT 0823 SLP028 P0007 60024 T01110072 55009 $EQDQ01  00608PRCP03
0294723820231822023010109537+34629-118083FM-15+0787KPMD V0202705N00725018295MN0160935N5+01005+00785100345ADDAA101000025GA1075+018295999GA2075+024385999GD13991+0182959GD23991+0243859GE19AGL   +99999+99999GF199999999999018291999999MA1100475091435OD149901331240REMMET13201/01/23 01:53:02 METAR KPMD 010953Z 27014KT 10SM BKN060 BKN080 10/08 A2967 RMK AO2 PK WND 24026/0913 RAE09 SLP034 P0000 T01000078 $
0362723820231822023010110147+34629-118083FM-16+0787KPMD V0202805N01085007925MN0112655N5+00895+00615999999ADDAA101000231AU110020015AW1615GA1025+006105999GA2075+007925999GA3085+018295999GD11991+0061059GD23991+0079259GD34991+0182959GE19AGL   +99999+99999GF199999999999006101999999MA1100545091495MW1615OC101605OD149901591280REMMET13801/01/23 02:14:02 SPECI KPMD 011014Z 28021G31KT 7SM -RA FEW020 BKN026 OVC060 09/06 A2969 RMK AO2 PK WND 28031/1010 RAB09 P0001 T00890061 $
0381723820231822023010110227+34629-118083FM-16+0787KPMD V0202905N01035009755MN0048285N5+00835+00615999999ADDAA101000731AU120020015AU200001015AW1105AW2625GA1025+006105999GA2045+007925999GA3085+009755999GD11991+0061059GD22991+0079259GD34991+0097559GE19AGL   +99999+99999GF199999999999006101999999MA1100545091495MW1655OC101445OD149901591280REMMET14001/01/23 02:22:02 SPECI KPMD 011022Z 29020G28KT 3SM RA BR FEW020 SCT026 OVC032 08/06 A2969 RMK AO2 PK WND 28031/1010 RAB09 P0003 T00830061 $
0293723820231822023010110537+34629-118083FM-15+0787KPMD V0202805N01295011585MN0064375N5+00785+00505100445ADDAA101002395AU110020015AW1615GA1085+011585999GD14991+0115859GE19AGL   +99999+99999GF199999999999011581999999MA1100545091495MW1615OC101655OD149901641280REMMET13101/01/23 02:53:02 METAR KPMD 011053Z 28025G32KT 4SM -RA OVC038 08/05 A2969 RMK AO2 PK WND 28032/1051 RAB09 SLP044 P0008 T00780050 $
0470723820231822023010111537+34629-118083FM-15+0787KPMD V0202605N01035015245MN0160935N5+00835+00285100425ADDAA101001395AA206009791AA324021891GA1075+015245999GA2075+019815999GA3085+024385999GD13991+0152459GD23991+0198159GD34991+0243859GE19AGL   +99999+99999GF199999999999015241999999KA1060M+01171KA2060N+00781MA1100515091465MD1090109+9999OC101495OD149901691280REMMET17201/01/23 03:53:02 METAR KPMD 011153Z 26020G29KT 10SM BKN050 BKN065 OVC080 08/03 A2968 RMK AO2 PK WND 28033/1054 RAE42 SLP042 P0006 60038 70086 T00830028 10117 20078 50010 $EQDQ01  00968PRCP06Q02  02188PRCP24
0219723820231822023010112537+34629-118083FM-15+0787KPMD V0202505N006252200059N0160935N5+00675+00285100455ADDAA101000095GA1005+999999999GD10991+9999999GF100991999999999999999999MA1100515091465OD149901691250REMMET11001/01/23 04:53:02 METAR KPMD 011253Z 25012KT 10SM CLR 07/03 A2968 RMK AO2 PK WND 25033/1159 SLP045 T00670028 $
0198723820231822023010113537+34629-118083FM-15+0787KPMD V0202505N006252200059N0160935N5+00675+00225100485ADDAA101000095GA1005+999999999GD10991+9999999GF100991999999999999999999MA1100545091495OC101035REMMET09501/01/23 05:53:02 METAR KPMD 011353Z 25012G20KT 10SM CLR 07/02 A2969 RMK AO2 SLP048 T00670022 $
0236723820231822023010114537+34629-118083FM-15+0787KPMD V0202705N006252200059N0160935N5+00725+00175100545ADDAA101000095GA1005+999999999GD10991+9999999GF100991999999999999999999MA1100615091555MD1390099+9999OC101545REMMET11901/01/23 06:53:02 METAR KPMD 011453Z 27012G30KT 10SM CLR 07/02 A2971 RMK AO2 PK WND 28030/1444 SLP054 T00720017 53009 $
0230723820231822023010115537+34629-118083FM-15+0787KPMD V0202505N00725016765MN0160935N5+00785+00225100595ADDAA101000095GA1075+016765999GD13991+0167659GE19AGL   +99999+99999GF199999999999016761999999MA1100645091585REMMET11301/01/23 07:53:02 METAR KPMD 011553Z 25014KT 10SM BKN055 08/02 A2972 RMK AO2 PK WND 26039/1507 SLP059 T00780022 $
0212723820231822023010116537+34629-118083FM-15+0787KPMD V0202705N00575022865MN0160935N5+00835+00285100605ADDAA101000095GA1075+022865999GD13991+0228659GE19AGL   +99999+99999GF199999999999022861999999MA1100685091625REMMET09501/01/23 08:53:02 METAR KPMD 011653Z 27011KT 10SM BKN075 08/03 A2973 RMK AO2 SLP060 T00830028 $
0308723820231822023010117537+34629-118083FM-15+0787KPMD V0202605N00675025915MN0160935N5+01005+00335100645ADDAA101000095GA1025+011895999GA2075+025915999GD11991+0118959GD23991+0259159GE19AGL   +99999+99999GF199999999999011891999999KA1060M+01001KA2060N+00671MA1100715091655MD1190109+9999REMMET12001/01/23 09:53:02 METAR KPMD 011753Z 26013KT 10SM FEW039 BKN085 10/03 A2974 RMK AO2 SLP064 T01000033 10100 20067 51010 $
0320723820231822023010118537+34629-118083FM-15+0787KPMD V0202805N01035027435MN0160935N5+00945+00335100665ADDAA101000095GA1025+010365999GA2045+013725999GA3085+027435999GD11991+0103659GD22991+0137259GD34991+0274359GE19AGL   +99999+99999GF199999999999010361999999MA1100755091685OD149901441290REMMET12701/01/23 10:53:02 METAR KPMD 011853Z 28020KT 10SM FEW034 SCT045 OVC090 09/03 A2975 RMK AO2 PK WND 29028/1833 SLP066 T00940033 $
0331723820231822023010119537+34629-118083FM-15+0787KPMD V0202705N01295024385MN0160935N5+00895+00285100665ADDAA101000095GA1025+014635999GA2045+018295999GA3085+024385999GD11991+0146359GD22991+0182959GD34991+0243859GE19AGL   +99999+99999GF199999999999014631999999MA1100715091655OC101705OD149901691270REMMET13001/01/23 11:53:02 METAR KPMD 011953Z 27025G33KT 10SM FEW048 SCT060 OVC080 09/03 A2974 RMK AO2 PK WND 27033/1950 SLP066 T00890028 $
0313723820231822023010120537+34629-118083FM-15+0787KPMD V0202805N01035021345MN0160935N5+00835+00285100635ADDAA101000095GA1075+021345999GA2085+028965999GD13991+0213459GD24991+0289659GE19AGL   +99999+99999GF199999999999021341999999MA1100715091655MD1890029+9999OC101395OD149901591270REMMET12901/01/23 12:53:02 METAR KPMD 012053Z 28020G27KT 10SM BKN070 OVC095 08/03 A2974 RMK AO2 PK WND 27031/2002 SLP063 T00830028 58002 $
0282723820231822023010121537+34629-118083FM-15+0787KPMD V0202805N00935018295MN0160935N5+00785+00285100685ADDAA101000095GA1045+013725999GA2085+018295999GD12991+0137259GD24991+0182959GE19AGL   +99999+99999GF199999999999013721999999MA1100715091655OD149901331280REMMET12001/01/23 13:53:02 METAR KPMD 012153Z 28018KT 10SM SCT045 OVC060 08/03 A2974 RMK AO2 PK WND 28026/2055 SLP068 T00780028 $
0250723820231822023010122537+34629-118083FM-15+0787KPMD V0202705N01035015245MN0160935N5+00835+00285100705ADDAA101000095GA1025+012505999GA2075+015245999GD11991+0125059GD23991+0152459GE19AGL   +99999+99999GF199999999999012501999999MA1100755091685REMMET10201/01/23 14:53:02 METAR KPMD 012253Z 27020KT 10SM FEW041 BKN050 08/03 A2975 RMK AO2 SLP070 T00830028 $
0288723820231822023010123537+34629-118083FM-15+0787KPMD V0202705N00985030485MN0160935N5+00835+00175100715ADDAA101000095GA1075+030485999GD13991+0304859GE19AGL   +99999+99999GF199999999999030481999999KA1060M+01061KA2060N+00721MA1100755091685MD1190059+9999REMMET13101/01/23 15:53:02 METAR KPMD 012353Z 27019KT 10SM BKN100 08/02 A2975 RMK AO2 PK WND 27026/2318 SLP071 T00830017 10106 20072 51005 $
0219723820231822023010200537+34629-118083FM-15+0787KPMD V0202405N005752200059N0160935N5+00675+00065100795ADDAA101000095GA1005+999999999GD10991+9999999GF100991999999999999999999MA1100815091745OD149901331260REMMET11001/01/23 16:53:01 METAR KPMD 020053Z 24011KT 10SM CLR 07/01 A2977 RMK AO2 PK WND 26026/0008 SLP079 T00670006 $
0188723820231822023010201537+34629-118083FM-15+0787KPMD V0202605N007752200059N0160935N5+00615-00065100865ADDAA101000095GA1005+999999999GD10991+9999999GF100991999999999999999999MA1100885091805REMMET09301/01/23 17:53:01 METAR KPMD 020153Z 26015KT 10SM CLR 06/M01 A2979 RMK AO2 SLP086 T00611006 $
0208723820231822023010202537+34629-118083FM-15+0787KPMD V0202805N008252200059N0160935N5+00615-00115100965ADDAA101000095GA1005+999999999GD10991+9999999GF100991999999999999999999MA1100985091905MD1390219+9999REMMET09901/01/23 18:53:01 METAR KPMD 020253Z 28016KT 10SM CLR 06/M01 A2982 RMK AO2 SLP096 T00611011 53021 $
0188723820231822023010203537+34629-118083FM-15+0787KPMD V0202705N008252200059N0160935N5+00615-00065101035ADDAA101000095GA1005+999999999GD10991+9999999GF100991999999999999999999MA1101055091965REMMET09301/01/23 19:53:02 METAR KPMD 020353Z 27016KT 10SM CLR 06/M01 A2984 RMK AO2 SLP103 T00611006 $
0188723820231822023010204537+34629-118083FM-15+0787KPMD V0202905N007252200059N0160935N5+00565-00065101035ADDAA101000095GA1005+999999999GD10991+9999999GF100991999999999999999999MA1101055091965REMMET09301/01/23 20:53:02 METAR KPMD 020453Z 29014KT 10SM CLR 06/M01 A2984 RMK AO2 SLP103 T00561006 $
0245723820231822023010205537+34629-118083FM-15+0787KPMD V0202805N006252200059N0160935N5+00565+00005101065ADDAA101000095GA1005+999999999GD10991+9999999GF100991999999999999999999KA1060M+00831KA2060N+00501MA1101085091995MD1190109+9999REMMET11001/01/23 21:53:02 METAR KPMD 020553Z 28012KT 10SM CLR 06/00 A2985 RMK AO2 SLP106 T00560000 10083 20050 51010 $
0187723820231822023010206537+34629-118083FM-15+0787KPMD V0202905N003652200059N0160935N5+00445+00005101105ADDAA101000095GA1005+999999999GD10991+9999999GF100991999999999999999999MA1101125092025REMMET09201/01/23 22:53:02 METAR KPMD 020653Z 29007KT 10SM CLR 04/00 A2986 RMK AO2 SLP110 T00440000 $
0224723820231822023010207537+34629-118083FM-15+0787KPMD V0201905N002652200059N0160935N5+00335-00115101145ADDAA101000095GA1005+999999999GD10991+9999999GF100991999999999999999999KA1240M+01171KA2240N+00331MA1101155092055REMMET10301/01/23 23:53:02 METAR KPMD 020753Z 19005KT 10SM CLR 03/M01 A2987 RMK AO2 SLP114 T00331011 401170033 $
0863723820231822023010207596+34629-118083SOD  +0787KPMD V020999999999999999999999999999+99999+99999999999ADDAA124005195AT1AU16RA  5AT2AU13BR  5AX1015245KA1240M+01175KA2240N+00285MG1091694100204OE11240201226099995OE22240160926099995OE33240079199999995REMSOD70924 HR PRECIPITATION (IN): 0.20 WEATHER(CODE):1  24 HR MAX TEMP (F): 5324 HR MIN TEMP (F): 37AVERAGE STATION PRESSURE:27.075 MINIMUM SEA LEVEL PRESSURE:29.59 TIME OF OCCURRENCE:0029 PEAK WIND SPEED (MPH): 45 PEAK WIND DIR (DEG):260 PEAK WIND TIME (LST):      FASTEST 2MIN SPEED (MPH): 36FASTEST 2MIN DIR (DEG):260 FASTEST 2MIN TIME (LST):     AVERAGE WIND SPEED (MPH):17.7 24 HR AVG TEMP (F): 45DEPART FROM NORMAL:  0  HEATING DEGREE DAYS: 20 COOLING DEGREE DAYS:  0 LATEST DAY MAX TEMP (0700-1900 LST):51  LATEST NIGHT MIN TEMP(1900-0800 LST):44 HOURLY INCREMENTAL PRECIPITATION VALUES (IN):.06 T    0.09 0.05 0.00 0.00 0.00 0.00 0.00 0.00 0.00 0.00 0.00 0.00 0.00 0.00 0.00 0.00 0.00 0.00 0.00 0.00 0.00 0.00
0208723820231822023010208537+34629-118083FM-15+0787KPMD V0202405N003152200059N0160935N5+00285-00115101145ADDAA101000095GA1005+999999999GD10991+9999999GF100991999999999999999999MA1101125092025MD1090049+9999REMMET09901/02/23 00:53:02 METAR KPMD 020853Z 24006KT 10SM CLR 03/M01 A2986 RMK AO2 SLP114 T00281011 50004 $
0188723820231822023010209537+34629-118083FM-15+0787KPMD V0202005N004152200059N0160935N5+00115-00175101195ADDAA101000095GA1005+999999999GD10991+9999999GF100991999999999999999999MA1101155092055REMMET09301/02/23 01:53:02 METAR KPMD 020953Z 20008KT 10SM CLR 01/M02 A2987 RMK AO2 SLP119 T00111017 $
0188723820231822023010210537+34629-118083FM-15+0787KPMD V0202505N004652200059N0160935N5+00285-00115101205ADDAA101000095GA1005+999999999GD10991+9999999GF100991999999999999999999MA1101195092095REMMET09301/02/23 02:53:02 METAR KPMD 021053Z 25009KT 10SM CLR 03/M01 A2988 RMK AO2 SLP120 T00281011 $
0246723820231822023010211537+34629-118083FM-15+0787KPMD V0202105N002652200059N0160935N5+00175-00175101255ADDAA101000095GA1005+999999999GD10991+9999999GF100991999999999999999999KA1060M+00561KA2060N+00111MA1101225092125MD1390099+9999REMMET11101/02/23 03:53:02 METAR KPMD 021153Z 21005KT 10SM CLR 02/M02 A2989 RMK AO2 SLP125 T00171017 10056 20011 53009 $
0188723820231822023010212537+34629-118083FM-15+0787KPMD V0202205N002652200059N0160935N5+00175-00175101365ADDAA101000095GA1005+999999999GD10991+9999999GF100991999999999999999999MA1101325092215REMMET09301/02/23 04:53:02 METAR KPMD 021253Z 22005KT 10SM CLR 02/M02 A2992 RMK AO2 SLP136 T00171017 $
0188723820231822023010213537+34629-118083FM-15+0787KPMD V0201705N003652200059N0160935N5+00065-00175101375ADDAA101000095GA1005+999999999GD10991+9999999GF100991999999999999999999MA1101325092215REMMET09301/02/23 05:53:02 METAR KPMD 021353Z 17007KT 10SM CLR 01/M02 A2992 RMK AO2 SLP137 T00061017 $
0208723820231822023010214537+34629-118083FM-15+0787KPMD V0201905N004652200059N0160935N5+00115-00175101405ADDAA101000095GA1005+999999999GD10991+9999999GF100991999999999999999999MA1101355092245MD1190119+9999REMMET09901/02/23 06:53:02 METAR KPMD 021453Z 19009KT 10SM CLR 01/M02 A2993 RMK AO2 SLP140 T00111017 51011 $
0186723820231822023010215537+34629-118083FM-15+0787KPMD V0202105N002652200059N0160935N5+00285-00115101445ADDAA101000095GA1005+999999999GD10991+9999999GF100991999999999999999999MA1101395092275REMMET09101/02/23 07:53:02 METAR KPMD 021553Z 21005KT 10SM CLR 03/M01 A2994 RMK AO2 SLP144 T00281011
0185723820231822023010216537+34629-118083FM-15+0787KPMD V0201705N002152200059N0160935N5+00445+00065101485ADDAA101000095GA1005+999999999GD10991+9999999GF100991999999999999999999MA1101465092345REMMET09001/02/23 08:53:02 METAR KPMD 021653Z 17004KT 10SM CLR 04/01 A2996 RMK AO2 SLP148 T00440006
0244723820231822023010217537+34629-118083FM-15+0787KPMD V0202205N002152200059N0160935N5+00785-00065101495ADDAA101000095GA1005+999999999GD10991+9999999GF100991999999999999999999KA1060M+00781KA2060N+00061MA1101495092375MD1290149+9999REMMET10901/02/23 09:53:02 METAR KPMD 021753Z 22004KT 10SM CLR 08/M01 A2997 RMK AO2 SLP149 T00781006 10078 20006 52014
0186723820231822023010218537+34629-118083FM-15+0787KPMD V0209999C000052200059N0160935N5+00895-00175101435ADDAA101000095GA1005+999999999GD10991+9999999GF100991999999999999999999MA1101425092315REMMET09101/02/23 10:53:02 METAR KPMD 021853Z 00000KT 10SM CLR 09/M02 A2995 RMK AO2 SLP143 T00891017
0197723820231822023010219537+34629-118083FM-15+0787KPMD V0202505N003652200059N0160935N5+01065-00225101305ADDAA101000095GA1005+999999999GD10991+9999999GF100991999999999999999999MA1101325092215OC100825REMMET09401/02/23 11:53:02 METAR KPMD 021953Z 25007G16KT 10SM CLR 11/M02 A2992 RMK AO2 SLP130 T01061022
0206723820231822023010220537+34629-118083FM-15+0787KPMD V0202405N008852200059N0160935N5+00945-00115101345ADDAA101000095GA1005+999999999GD10991+9999999GF100991999999999999999999MA1101325092215MD1590159+9999REMMET09701/02/23 12:53:02 METAR KPMD 022053Z 24017KT 10SM CLR 09/M01 A2992 RMK AO2 SLP134 T00941011 55015
0229723820231822023010221537+34629-118083FM-15+0787KPMD V0202205N008852200059N0160935N5+00895+00005101295ADDAA101000095GA1025+036585999GD11991+0365859GE19AGL   +99999+99999GF102995999999036581999999MA1101255092155REMMET09301/02/23 13:53:02 METAR KPMD 022153Z 22017KT 10SM FEW120 09/00 A2990 RMK AO2 SLP129 T00890000EQDD01      0ADE726
0261723820231822023010222537+34629-118083FM-15+0787KPMD V0202205N00625024385MN0160935N5+00835+00005101365ADDAA101000095GA1075+024385999GA2085+030485999GD13991+0243859GD24991+0304859GE19AGL   +99999+99999GF199999999999024381999999MA1101355092245OC100985REMMET10501/02/23 14:53:02 METAR KPMD 022253Z 22012G19KT 10SM BKN080 OVC100 08/00 A2993 RMK AO2 SLP136 T00830000 $
0251723820231822023010223537+34629-118083FM-15+0787KPMD V0202205N00315033535MN0160935N5+00835-00065101305ADDAA101000095GA1085+033535999GD14991+0335359GE19AGL   +99999+99999GF199999999999033531999999KA1060M+01111KA2060N+00781MA1101295092185REMMET10801/02/23 15:53:02 METAR KPMD 022353Z 22006KT 10SM OVC110 08/M01 A2991 RMK AO2 SLP130 T00831006 10111 20078 $
0293723820231822023010300537+34629-118083FM-15+0787KPMD V0202205N01085024385MN0160935N5+00835+00065101335ADDAA101000095GA1025+016765999GA2085+024385999GD11991+0167659GD24991+0243859GE19AGL   +99999+99999GF199999999999016761999999MA1101295092185OC101495OD149901491220REMMET12301/02/23 16:53:01 METAR KPMD 030053Z 22021G29KT 10SM FEW055 OVC080 08/01 A2991 RMK AO2 PK WND 22029/0052 SLP133 T00830006 $
0331723820231822023010301537+34629-118083FM-15+0787KPMD V0202105N00985019815MN0160935N5+00675+00285101425ADDAA101000095GA1025+007015999GA2075+019815999GA3075+024385999GD11991+0070159GD23991+0198159GD33991+0243859GE19AGL   +99999+99999GF199999999999007011999999MA1101355092245OC101445OD149901591220REMMET13001/02/23 17:53:01 METAR KPMD 030153Z 21019G28KT 10SM FEW023 BKN065 BKN080 07/03 A2993 RMK AO2 PK WND 22031/0119 SLP142 T00670028 $
0425723820231822023010302537+34629-118083FM-15+0787KPMD V0202105N00825033535MN0160935N5+00675+00225101105ADDAA101000025AA203000021GA1025+018295999GA2025+024385999GA3075+033535999GD11991+0182959GD21991+0243859GD33991+0335359GE19AGL   +99999+99999GF199999999999018291999999MA1101055091965MD1890229+9999OC101965OD149901951220REMMET16401/02/23 18:53:01 METAR KPMD 030253Z 21016G38KT 10SM FEW060 FEW080 BKN110 07/02 A2984 RMK AO2 PK WND 22038/0248 RAB28E47 PRESFR SLP110 P0000 60000 T00670022 58022 $EQDQ01  00002PRCP03Q02  00008PRCP03
0312723820231822023010303537+34629-118083FM-15+0787KPMD V0202205N011352200059N0160935N5+00725+00115101235ADDAA101000095GA1025+019815999GA2045+030485999GD11991+0198159GD22991+0304859GE19AGL   +99999+99999GF104995999999019811999999MA1101225092125OC101705OD149902001210REMMET12301/02/23 19:53:01 METAR KPMD 030353Z 22022G33KT 10SM FEW065 SCT100 07/01 A2989 RMK AO2 PK WND 21039/0324 SLP123 T00720011 $EQDD01      0ADE726
0308723820231822023010304537+34629-118083FM-15+0787KPMD V0202105N01085022865MN0160935N5+00675+00175101235ADDAA101000025GA1025+018295999GA2085+022865999GD11991+0182959GD24991+0228659GE19AGL   +99999+99999GF199999999999018291999999MA1101225092125OC101605OD149901591220REMMET13801/02/23 20:53:02 METAR KPMD 030453Z 21021G31KT 10SM FEW060 OVC075 07/02 A2989 RMK AO2 PK WND 22031/0444 RAB28E47 SLP123 P0000 T00670017 $
0286723820231822023010305237+34629-118083FM-16+0787KPMD V0209999V00265027435MN0160935N5+00675+00115999999ADDGA1045+022865999GA2085+027435999GD12991+0228659GD24991+0274359GE19AGL   +99999+99999GF199999999999022861999999MA1101295092185OC101085OD149901391230REMMET12701/02/23 21:23:02 SPECI KPMD 030523Z VRB05G21KT 10SM SCT075 OVC090 07/01 A2991 RMK AO2 PK WND 23027/0502 WSHFT 0503 T00670011 $
0379723820231822023010305537+34629-118083FM-15+0787KPMD V0202605N00465028965MN0160935N5+00725+00065101305ADDAA101000095AA206000021GA1075+028965999GA2085+033535999GD13991+0289659GD24991+0335359GE19AGL   +99999+99999GF199999999999028961999999KA1060M+00891KA2060N+00671MA1101325092215MD1190259+9999OC100885OD149901391230REMMET15801/02/23 21:53:02 METAR KPMD 030553Z 26009G17KT 10SM BKN095 OVC110 07/01 A2992 RMK AO2 PK WND 23027/0502 WSHFT 0503 SLP130 60000 T00720006 10089 20067 51025 $
0274723820231822023010306537+34629-118083FM-15+0787KPMD V0202905N006252200059N0160935N5+00725+00115101225ADDAA101000095GA1025+033535999GD11991+0335359GE19AGL   +99999+99999GF102995999999033531999999MA1101255092155OC101755OD149901751260REMMET11601/02/23 22:53:02 METAR KPMD 030653Z 29012G34KT 10SM FEW110 07/01 A2990 RMK AO2 PK WND 26034/0646 SLP122 T00720011 $EQDD01      0ADE726
0310723820231822023010307537+34629-118083FM-15+0787KPMD V0202305N008252200059N0160935N5+00725+00115101265ADDAA101000095GA1025+013725999GD11991+0137259GE19AGL   +99999+99999GF102995999999013721999999KA1240M+01111KA2240N+00061MA1101295092185OC101345OD149901331260REMMET12601/02/23 23:53:02 METAR KPMD 030753Z 23016G26KT 10SM FEW045 07/01 A2991 RMK AO2 PK WND 26026/0747 SLP126 T00720011 401110006 $EQDD01      0ADE726
0813723820231822023010307596+34629-118083SOD  +0787KPMD V020999999999999999999999999999+99999+99999999999ADDAA124000025KA1240M+01115KA2240N+00065MG1092214101084OE11240201221099995OE22240143121099995OE33240055099999995REMSOD69224 HR PRECIPITATION (IN):    T 24 HR MAX TEMP (F): 5224 HR MIN TEMP (F): 33AVERAGE STATION PRESSURE:27.230 MINIMUM SEA LEVEL PRESSURE:29.85 TIME OF OCCURRENCE:1855 PEAK WIND SPEED (MPH): 45 PEAK WIND DIR (DEG):210 PEAK WIND TIME (LST):      FASTEST 2MIN SPEED (MPH): 32FASTEST 2MIN DIR (DEG):210 FASTEST 2MIN TIME (LST):     AVERAGE WIND SPEED (MPH):12.3 24 HR AVG TEMP (F): 43DEPART FROM NORMAL: -2  HEATING DEGREE DAYS: 22 COOLING DEGREE DAYS:  0 LATEST DAY MAX TEMP (0700-1900 LST):52  LATEST NIGHT MIN TEMP(1900-0800 LST):33 HOURLY INCREMENTAL PRECIPITATION VALUES (IN):.00 0.00 0.00 0.00 0.00 0.00 0.00 0.00 0.00 0.00 0.00 0.00 0.00 0.00 0.00 0.00 0.00 0.00 T    0.00 T    0.00 0.00 0.00
0319723820231822023010308537+34629-118083FM-15+0787KPMD V0202505N00575013415MN0160935N5+00725+00175101315ADDAA101000095GA1025+008845999GA2075+013415999GA3075+016765999GD11991+0088459GD23991+0134159GD33991+0167659GE19AGL   +99999+99999GF199999999999008841999999MA1101355092245MD1390039+9999OC100825REMMET11801/03/23 00:53:02 METAR KPMD 030853Z 25011G16KT 10SM FEW029 BKN044 BKN055 07/02 A2993 RMK AO2 SLP131 T00720017 53003 $
0232723820231822023010309387+34629-118083FM-16+0787KPMD V0202705N00415008535MN0160935N5+00675+00225999999ADDGA1075+008535999GA2085+010975999GD13991+0085359GD24991+0109759GE19AGL   +99999+99999GF199999999999008531999999MA1101465092345REMMET09501/03/23 01:38:02 SPECI KPMD 030938Z 27008KT 10SM BKN028 OVC036 07/02 A2996 RMK AO2 T00670022 $
0222723820231822023010309487+34629-118083FM-16+0787KPMD V0202805N00415010975MN0160935N5+00705+00305999999ADDGA1045+008535999GA2085+010975999GD12991+0085359GD24991+0109759GE19AGL   +99999+99999GF199999999999008531999999MA1101465092345REMMET08501/03/23 01:48:02 SPECI KPMD 030948Z 28008KT 10SM SCT028 OVC036 07/03 A2996 RMK AO2 $
0179723820231822023010309516+34629-118083FM-16+0787KPMD V0202705N00415008535MN0160935N5+00705+00305999999ADDGA1075+008535999GA2085+010975999GD13991+0085359GD24991+0109759MA1101465092345REMMET09001/03/23 01:51:02 SPECI KPMD 030951Z 27008KT 10SM BKN028 OVC036 07/03 A2996 RMK AO2 $ FIBI
0250723820231822023010309537+34629-118083FM-15+0787KPMD V0202705N00465008535MN0160935N5+00675+00285101455ADDAA101000095GA1075+008535999GA2085+010975999GD13991+0085359GD24991+0109759GE19AGL   +99999+99999GF199999999999008531999999MA1101465092345REMMET10201/03/23 01:53:02 METAR KPMD 030953Z 27009KT 10SM BKN028 OVC036 07/03 A2996 RMK AO2 SLP145 T00670028 $
0270723820231822023010310237+34629-118083FM-16+0787KPMD V0202905N00415011895MN0160935N5+00615+00335999999ADDGA1045+008845999GA2075+011895999GA3085+014335999GD12991+0088459GD23991+0118959GD34991+0143359GE19AGL   +99999+99999GF199999999999008841999999MA1101465092345REMMET10201/03/23 02:23:02 SPECI KPMD 031023Z 29008KT 10SM SCT029 BKN039 OVC047 06/03 A2996 RMK AO2 T00610033 $
0288723820231822023010310537+34629-118083FM-15+0787KPMD V0202905N00155009145MN0160935N5+00675+00335101435ADDAA101000095GA1075+009145999GA2075+011585999GA3085+015245999GD13991+0091459GD23991+0115859GD34991+0152459GE19AGL   +99999+99999GF199999999999009141999999MA1101465092345REMMET10901/03/23 02:53:02 METAR KPMD 031053Z 29003KT 10SM BKN030 BKN038 OVC050 07/03 A2996 RMK AO2 SLP143 T00670033 $
0270723820231822023010311157+34629-118083FM-16+0787KPMD V0201405N00155008845MN0160935N5+00675+00225999999ADDGA1045+007015999GA2075+008845999GA3075+011285999GD12991+0070159GD23991+0088459GD33991+0112859GE19AGL   +99999+99999GF199999999999007011999999MA1101425092315REMMET10201/03/23 03:15:02 SPECI KPMD 031115Z 14003KT 10SM SCT023 BKN029 BKN037 07/02 A2995 RMK AO2 T00670022 $
0251723820231822023010311247+34629-118083FM-16+0787KPMD V0209999C000052200059N0160935N5+00675+00225999999ADDGA1025+007625999GA2045+010365999GD11991+0076259GD22991+0103659GE19AGL   +99999+99999GF104995999999007621999999MA1101395092275REMMET09501/03/23 03:24:02 SPECI KPMD 031124Z 00000KT 10SM FEW025 SCT034 07/02 A2994 RMK AO2 T00670022 $EQDD01      0ADE726
0245723820231822023010311537+34629-118083FM-15+0787KPMD V0200305N003152200059N0160935N5+00615+00225101375ADDAA101000095GA1005+999999999GD10991+9999999GF100991999999999999999999KA1060M+00781KA2060N+00561MA1101395092275MD1890089+9999REMMET11001/03/23 03:53:02 METAR KPMD 031153Z 03006KT 10SM CLR 06/02 A2994 RMK AO2 SLP137 T00610022 10078 20056 58008 $
0198723820231822023010312537+34629-118083FM-15+0787KPMD V0202205N007252200059N0160935N5+00785+00335101375ADDAA101000095GA1005+999999999GD10991+9999999GF100991999999999999999999MA1101395092275OC101085REMMET09501/03/23 04:53:02 METAR KPMD 031253Z 22014G21KT 10SM CLR 08/03 A2994 RMK AO2 SLP137 T00780033 $
0198723820231822023010313537+34629-118083FM-15+0787KPMD V0202205N006752200059N0160935N5+00785+00395101355ADDAA101000095GA1005+999999999GD10991+9999999GF100991999999999999999999MA1101355092245OC100935REMMET09501/03/23 05:53:02 METAR KPMD 031353Z 22013G18KT 10SM CLR 08/04 A2993 RMK AO2 SLP135 T00780039 $
0207723820231822023010314537+34629-118083FM-15+0787KPMD V0202205N007752200059N0160935N5+00835+00445101445ADDAA101000095GA1005+999999999GD10991+9999999GF100991999999999999999999MA1101465092345MD1390079+9999REMMET09801/03/23 06:53:02 METAR KPMD 031453Z 22015KT 10SM CLR 08/04 A2996 RMK AO2 SLP144 T00830044 53007 $
0187723820231822023010315537+34629-118083FM-15+0787KPMD V0202105N006752200059N0160935N5+00895+00505101455ADDAA101000095GA1005+999999999GD10991+9999999GF100991999999999999999999MA1101495092375REMMET09201/03/23 07:53:02 METAR KPMD 031553Z 21013KT 10SM CLR 09/05 A2997 RMK AO2 SLP145 T00890050 $
0187723820231822023010316537+34629-118083FM-15+0787KPMD V0202205N007252200059N0160935N5+01005+00565101595ADDAA101000095GA1005+999999999GD10991+9999999GF100991999999999999999999MA1101635092495REMMET09201/03/23 08:53:02 METAR KPMD 031653Z 22014KT 10SM CLR 10/06 A3001 RMK AO2 SLP159 T01000056 $
0245723820231822023010317537+34629-118083FM-15+0787KPMD V0202205N005152200059N0160935N5+01175+00565101635ADDAA101000095GA1005+999999999GD10991+9999999GF100991999999999999999999KA1060M+01171KA2060N+00611MA1101665092535MD1390209+9999REMMET11001/03/23 09:53:02 METAR KPMD 031753Z 22010KT 10SM CLR 12/06 A3002 RMK AO2 SLP163 T01170056 10117 20061 53020 $
0187723820231822023010318537+34629-118083FM-15+0787KPMD V0202205N006252200059N0160935N5+01285+00675101645ADDAA101000095GA1005+999999999GD10991+9999999GF100991999999999999999999MA1101695092565REMMET09201/03/23 10:53:02 METAR KPMD 031853Z 22012KT 10SM CLR 13/07 A3003 RMK AO2 SLP164 T01280067 $
0187723820231822023010319537+34629-118083FM-15+0787KPMD V0202205N006252200059N0160935N5+01395+00725101495ADDAA101000095GA1005+999999999GD10991+9999999GF100991999999999999999999MA1101565092435REMMET09201/03/23 11:53:02 METAR KPMD 031953Z 22012KT 10SM CLR 14/07 A2999 RMK AO2 SLP149 T01390072 $
0207723820231822023010320537+34629-118083FM-15+0787KPMD V0202205N006252200059N0160935N5+01395+00725101455ADDAA101000095GA1005+999999999GD10991+9999999GF100991999999999999999999MA1101525092405MD1890159+9999REMMET09801/03/23 12:53:02 METAR KPMD 032053Z 22012KT 10SM CLR 14/07 A2998 RMK AO2 SLP145 T01390072 58015 $
0187723820231822023010321537+34629-118083FM-15+0787KPMD V0202305N006252200059N0160935N5+01445+00725101435ADDAA101000095GA1005+999999999GD10991+9999999GF100991999999999999999999MA1101495092375REMMET09201/03/23 13:53:02 METAR KPMD 032153Z 23012KT 10SM CLR 14/07 A2997 RMK AO2 SLP143 T01440072 $
0187723820231822023010322537+34629-118083FM-15+0787KPMD V0202205N005752200059N0160935N5+01285+00725101505ADDAA101000095GA1005+999999999GD10991+9999999GF100991999999999999999999MA1101565092435REMMET09201/03/23 14:53:02 METAR KPMD 032253Z 22011KT 10SM CLR 13/07 A2999 RMK AO2 SLP150 T01280072 $
0245723820231822023010323537+34629-118083FM-15+0787KPMD V0202305N004652200059N0160935N5+01225+00725101555ADDAA101000095GA1005+999999999GD10991+9999999GF100991999999999999999999KA1060M+01441KA2060N+01171MA1101595092465MD1390079+9999REMMET11001/03/23 15:53:02 METAR KPMD 032353Z 23009KT 10SM CLR 12/07 A3000 RMK AO2 SLP155 T01220072 10144 20117 53007 $
0187723820231822023010400537+34629-118083FM-15+0787KPMD V0202405N004652200059N0160935N5+01115+00785101585ADDAA101000095GA1005+999999999GD10991+9999999GF100991999999999999999999MA1101635092495REMMET09201/03/23 16:53:01 METAR KPMD 040053Z 24009KT 10SM CLR 11/08 A3001 RMK AO2 SLP158 T01110078 $
0187723820231822023010401537+34629-118083FM-15+0787KPMD V0202405N003152200059N0160935N5+01065+00785101635ADDAA101000095GA1005+999999999GD10991+9999999GF100991999999999999999999MA1101665092535REMMET09201/03/23 17:53:01 METAR KPMD 040153Z 24006KT 10SM CLR 11/08 A3002 RMK AO2 SLP163 T01060078 $
0207723820231822023010402537+34629-118083FM-15+0787KPMD V0202405N003152200059N0160935N5+01065+00785101695ADDAA101000095GA1005+999999999GD10991+9999999GF100991999999999999999999MA1101735092595MD1390139+9999REMMET09801/03/23 18:53:01 METAR KPMD 040253Z 24006KT 10SM CLR 11/08 A3004 RMK AO2 SLP169 T01060078 53013 $
0187723820231822023010403537+34629-118083FM-15+0787KPMD V0202405N003152200059N0160935N5+01005+00725101785ADDAA101000095GA1005+999999999GD10991+9999999GF100991999999999999999999MA1101835092685REMMET09201/03/23 19:53:01 METAR KPMD 040353Z 24006KT 10SM CLR 10/07 A3007 RMK AO2 SLP178 T01000072 $
0187723820231822023010404537+34629-118083FM-15+0787KPMD V0201405N004152200059N0160935N5+00895+00675101785ADDAA101000095GA1005+999999999GD10991+9999999GF100991999999999999999999MA1101835092685REMMET09201/03/23 20:53:01 METAR KPMD 040453Z 14008KT 10SM CLR 09/07 A3007 RMK AO2 SLP178 T00890067 $
0194723820231822023010405297+34629-118083FM-16+0787KPMD V0201505N00265004575MN0160935N5+00895+00725999999ADDGA1075+004575999GD13991+0045759GE19AGL   +99999+99999GF199999999999004571999999MA1101835092685REMMET08801/03/23 21:29:01 SPECI KPMD 040529Z 15005KT 10SM BKN015 09/07 A3007 RMK AO2 T00890072 $
0141723820231822023010405516+34629-118083FM-16+0787KPMD V0201105N001552200059N0160935N5+00905+00705999999ADDGA1045+004575999GD12991+0045759MA1101865092715REMMET08301/03/23 21:51:03 SPECI KPMD 040551Z 11003KT 10SM SCT015 09/07 A3008 RMK AO2 $ FIBI
0289723820231822023010405537+34629-118083FM-15+0787KPMD V0209999C000052200059N0160935N5+00945+00725101805ADDAA101000095GA1045+004575999GD12991+0045759GE19AGL   +99999+99999GF104995999999004571999999KA1060M+01221KA2060N+00891MA1101865092715MD1190129+9999REMMET11301/03/23 21:53:01 METAR KPMD 040553Z 00000KT 10SM SCT015 09/07 A3008 RMK AO2 SLP180 T00940072 10122 20089 51012 $EQDD01      0ADE726
0231723820231822023010406537+34629-118083FM-15+0787KPMD V0200705N002152200059N0160935N5+00835+00725101765ADDAA101000095GA1025+036585999GD11991+0365859GE19AGL   +99999+99999GF102995999999036581999999MA1101835092685REMMET09501/03/23 22:53:01 METAR KPMD 040653Z 07004KT 10SM FEW120 08/07 A3007 RMK AO2 SLP176 T00830072 $EQDD01      0ADE726
0267723820231822023010407537+34629-118083FM-15+0787KPMD V0209999C000052200059N0160935N5+00725+00615101785ADDAA101000095GA1045+033535999GD12991+0335359GE19AGL   +99999+99999GF104995999999033531999999KA1240M+01441KA2240N+00561MA1101835092685REMMET10501/03/23 23:53:01 METAR KPMD 040753Z 00000KT 10SM SCT110 07/06 A3007 RMK AO2 SLP178 T00720061 401440056 $EQDD01      0ADE726
0813723820231822023010407596+34629-118083SOD  +0787KPMD V020999999999999999999999999999+99999+99999999999ADDAA124000095KA1240M+01445KA2240N+00565MG1092484101224OE11240129621099995OE22240093920099995OE33240046099999995REMSOD69224 HR PRECIPITATION (IN): 0.00 24 HR MAX TEMP (F): 5824 HR MIN TEMP (F): 42AVERAGE STATION PRESSURE:27.310 MINIMUM SEA LEVEL PRESSURE:29.89 TIME OF OCCURRENCE:0035 PEAK WIND SPEED (MPH): 29 PEAK WIND DIR (DEG):210 PEAK WIND TIME (LST):      FASTEST 2MIN SPEED (MPH): 21FASTEST 2MIN DIR (DEG):200 FASTEST 2MIN TIME (LST):     AVERAGE WIND SPEED (MPH):10.3 24 HR AVG TEMP (F): 50DEPART FROM NORMAL:  5  HEATING DEGREE DAYS: 15 COOLING DEGREE DAYS:  0 LATEST DAY MAX TEMP (0700-1900 LST):58  LATEST NIGHT MIN TEMP(1900-0800 LST):42 HOURLY INCREMENTAL PRECIPITATION VALUES (IN):.00 0.00 0.00 0.00 0.00 0.00 0.00 0.00 0.00 0.00 0.00 0.00 0.00 0.00 0.00 0.00 0.00 0.00 0.00 0.00 0.00 0.00 0.00 0.00
0187723820231822023010408537+34629-118083FM-15+0787KPMD V0209999C000052200059N0160935N5+00725+00615101775ADDAA101000095GA1005+999999999GD10991+9999999GF100991999999999999999999MA1101835092685REMMET09201/04/23 00:53:02 METAR KPMD 040853Z 00000KT 10SM CLR 07/06 A3007 RMK AO2 SLP177 T00720061 $
0193723820231822023010409287+34629-118083FM-16+0787KPMD V0201105N00265008235MN0144845N5+00725+00615999999ADDGA1085+008235999GD14991+0082359GE19AGL   +99999+99999GF199999999999008231999999MA1101865092715REMMET08701/04/23 01:28:02 SPECI KPMD 040928Z 11005KT 9SM OVC027 07/06 A3008 RMK AO2 T00720061 $
0250723820231822023010409537+34629-118083FM-15+0787KPMD V0201205N00365008235MN0160935N5+00785+00675101795ADDAA101000095GA1045+006715999GA2085+008235999GD12991+0067159GD24991+0082359GE19AGL   +99999+99999GF199999999999006711999999MA1101865092715REMMET10201/04/23 01:53:02 METAR KPMD 040953Z 12007KT 10SM SCT022 OVC027 08/07 A3008 RMK AO2 SLP179 T00780067 $
0295723820231822023010410197+34629-118083FM-16+0787KPMD V0201405N00265010065MN0144845N5+00785+00675999999ADDAA101000021GA1045+007925999GA2075+010065999GA3085+033535999GD12991+0079259GD23991+0100659GD34991+0335359GE19AGL   +99999+99999GF199999999999007921999999MA1101865092715REMMET11601/04/23 02:19:02 SPECI KPMD 041019Z 14005KT 9SM SCT026 BKN033 OVC110 08/07 A3008 RMK AO2 RAB03E12 P0000 T00780067 $
0265723820231822023010410537+34629-118083FM-15+0787KPMD V0209999C00005009145MN0160935N5+00835+00675101835ADDAA101000025GA1075+009145999GA2085+033535999GD13991+0091459GD24991+0335359GE19AGL   +99999+99999GF199999999999009141999999MA1101905092745REMMET11701/04/23 02:53:02 METAR KPMD 041053Z 00000KT 10SM BKN030 OVC110 08/07 A3009 RMK AO2 RAB03E12 SLP183 P0000 T00830067 $
0179723820231822023010411516+34629-118083FM-16+0787KPMD V0209999C00005005795MN0160935N5+00805+00705999999ADDGA1075+005795999GA2075+036585999GD13991+0057959GD23991+0365859MA1101835092685REMMET09001/04/23 03:51:02 SPECI KPMD 041151Z 00000KT 10SM BKN019 BKN120 08/07 A3007 RMK AO2 $ FIBI
0325723820231822023010411537+34629-118083FM-15+0787KPMD V0209999C00005005795MN0160935N5+00785+00615101785ADDAA101000095AA206000021GA1075+005795999GA2075+036585999GD13991+0057959GD23991+0365859GE19AGL   +99999+99999GF199999999999005791999999KA1060M+00941KA2060N+00671MA1101835092685MD1890019+9999REMMET12601/04/23 03:53:02 METAR KPMD 041153Z 00000KT 10SM BKN019 BKN120 08/06 A3007 RMK AO2 SLP178 60000 T00780061 10094 20067 58001 $
0288723820231822023010412537+34629-118083FM-15+0787KPMD V0209999N99999036585MN0160935N5+00785+00615101735ADDAA101000095GA1025+006105999GA2045+008535999GA3075+036585999GD11991+0061059GD22991+0085359GD33991+0365859GE19AGL   +99999+99999GF199999999999006101999999MA1101765092625REMMET10901/04/23 04:53:02 METAR KPMD 041253Z      KT 10SM FEW020 SCT028 BKN120 08/06 A3005 RMK AO2 SLP173 T00780061 $
0260723820231822023010413487+34629-118083FM-16+0787KPMD V0209999C00005007925MN0160935N5+00805+00705999999ADDGA1025+005795999GA2075+007925999GA3085+033535999GD11991+0057959GD23991+0079259GD34991+0335359GE19AGL   +99999+99999GF199999999999005791999999MA1101865092715REMMET09201/04/23 05:48:02 SPECI KPMD 041348Z 00000KT 10SM FEW019 BKN026 OVC110 08/07 A3008 RMK AO2 $
0288723820231822023010413537+34629-118083FM-15+0787KPMD V0209999C00005007925MN0160935N5+00835+00675101845ADDAA101000095GA1025+005795999GA2075+007925999GA3085+033535999GD11991+0057959GD23991+0079259GD34991+0335359GE19AGL   +99999+99999GF199999999999005791999999MA1101905092745REMMET10901/04/23 05:53:02 METAR KPMD 041353Z 00000KT 10SM FEW019 BKN026 OVC110 08/07 A3009 RMK AO2 SLP184 T00830067 $
0212723820231822023010414537+34629-118083FM-15+0787KPMD V0209999C00005005185MN0160935N5+00835+00675101875ADDAA101000095GA1085+005185999GD14991+0051859GE19AGL   +99999+99999GF199999999999005181999999MA1101905092745REMMET09501/04/23 06:53:02 METAR KPMD 041453Z 00000KT 10SM OVC017 08/07 A3009 RMK AO2 SLP187 T00830067 $
0211723820231822023010415537+34629-118083FM-15+0787KPMD V0202905N00155005795MN0112655N5+00785+00675101935ADDAA101000095GA1075+005795999GD13991+0057959GE19AGL   +99999+99999GF199999999999005791999999MA1101965092815REMMET09401/04/23 07:53:02 METAR KPMD 041553Z 29003KT 7SM BKN019 08/07 A3011 RMK AO2 SLP193 T00780067 $
0231723820231822023010416397+34629-118083FM-16+0787KPMD V0203305N00265030485MN0112655N5+00835+00725999999ADDGA1045+006715999GA2085+030485999GD12991+0067159GD24991+0304859GE19AGL   +99999+99999GF199999999999006711999999MA1102005092845REMMET09401/04/23 08:39:02 SPECI KPMD 041639Z 33005KT 7SM SCT022 OVC100 08/07 A3012 RMK AO2 T00830072 $
0249723820231822023010416537+34629-118083FM-15+0787KPMD V0203305N00215030485MN0112655N5+00895+00725102025ADDAA101000095GA1025+014635999GA2085+030485999GD11991+0146359GD24991+0304859GE19AGL   +99999+99999GF199999999999014631999999MA1102035092875REMMET10101/04/23 08:53:02 METAR KPMD 041653Z 33004KT 7SM FEW048 OVC100 09/07 A3013 RMK AO2 SLP202 T00890072 $
0327723820231822023010417537+34629-118083FM-15+0787KPMD V0203305N001552200059N0160935N5+01005+00675102045ADDAA101000095GA1025+012805999GA2045+016765999GD11991+0128059GD22991+0167659GE19AGL   +99999+99999GF104995999999012801999999KA1060M+01001KA2060N+00721MA1102105092935MD1190179+9999REMMET12001/04/23 09:53:02 METAR KPMD 041753Z 33003KT 10SM FEW042 SCT055 10/07 A3015 RMK AO2 SLP204 T01000067 10100 20072 51017 $EQDD01      0ADE726
0250723820231822023010418537+34629-118083FM-15+0787KPMD V0203405N00155016765MN0160935N5+01065+00675102005ADDAA101000095GA1025+003665999GA2085+016765999GD11991+0036659GD24991+0167659GE19AGL   +99999+99999GF199999999999003661999999MA1102035092875REMMET10201/04/23 10:53:02 METAR KPMD 041853Z 34003KT 10SM FEW012 OVC055 11/07 A3013 RMK AO2 SLP200 T01060067 $
0212723820231822023010419537+34629-118083FM-15+0787KPMD V0209999V00155014635MN0160935N5+01115+00725101875ADDAA101000095GA1075+014635999GD13991+0146359GE19AGL   +99999+99999GF199999999999014631999999MA1101905092745REMMET09501/04/23 11:53:02 METAR KPMD 041953Z VRB03KT 10SM BKN048 11/07 A3009 RMK AO2 SLP187 T01110072 $
0250723820231822023010420537+34629-118083FM-15+0787KPMD V0203405N00215012505MN0160935N5+01175+00725101765ADDAA101000095GA1075+012505999GA2085+014635999GD13991+0125059GD24991+0146359GE19AGL   +99999+99999GF199999999999012501999999MA1101795092655REMMET10201/04/23 12:53:02 METAR KPMD 042053Z 34004KT 10SM BKN041 OVC048 12/07 A3006 RMK AO2 SLP176 T01170072 $
0250723820231822023010421537+34629-118083FM-15+0787KPMD V0203605N00215016765MN0160935N5+01225+00725101655ADDAA101000095GA1045+013725999GA2075+016765999GD12991+0137259GD23991+0167659GE19AGL   +99999+99999GF199999999999013721999999MA1101695092565REMMET10201/04/23 13:53:02 METAR KPMD 042153Z 36004KT 10SM SCT045 BKN055 12/07 A3003 RMK AO2 SLP165 T01220072 $
0269723820231822023010422537+34629-118083FM-15+0787KPMD V0203405N002152200059N0160935N5+01395+00725101615ADDAA101000095GA1045+012195999GA2045+014335999GD12991+0121959GD22991+0143359GE19AGL   +99999+99999GF104995999999012191999999MA1101665092535REMMET10201/04/23 14:53:02 METAR KPMD 042253Z 34004KT 10SM SCT040 SCT047 14/07 A3002 RMK AO2 SLP161 T01390072 $EQDD01      0ADE726
0289723820231822023010423537+34629-118083FM-15+0787KPMD V0202805N002652200059N0160935N5+01335+00785101615ADDAA101000095GA1025+015245999GD11991+0152459GE19AGL   +99999+99999GF102995999999015241999999KA1060M+01441KA2060N+01001MA1101665092535MD1690139+9999REMMET11301/04/23 15:53:02 METAR KPMD 042353Z 28005KT 10SM FEW050 13/08 A3002 RMK AO2 SLP161 T01330078 10144 20100 56013 $EQDD01      0ADE726
0250723820231822023010500537+34629-118083FM-15+0787KPMD V0201905N00415024385MN0160935N5+01395+00615101555ADDAA101000095GA1025+018295999GA2075+024385999GD11991+0182959GD23991+0243859GE19AGL   +99999+99999GF199999999999018291999999MA1101635092495REMMET10201/04/23 16:53:01 METAR KPMD 050053Z 19008KT 10SM FEW060 BKN080 14/06 A3001 RMK AO2 SLP155 T01390061 $
0250723820231822023010501537+34629-118083FM-15+0787KPMD V0209999C00005016765MN0160935N5+01335+00725101585ADDAA101000095GA1075+016765999GA2085+021345999GD13991+0167659GD24991+0213459GE19AGL   +99999+99999GF199999999999016761999999MA1101665092535REMMET10201/04/23 17:53:01 METAR KPMD 050153Z 00000KT 10SM BKN055 OVC070 13/07 A3002 RMK AO2 SLP158 T01330072 $
0337723820231822023010502537+34629-118083FM-15+0787KPMD V0201905N00365016765MN0160935N5+01285+00675101575ADDAA101000025AA203000021GA1025+014025999GA2075+016765999GD11991+0140259GD23991+0167659GE19AGL   +99999+99999GF199999999999014021999999MA1101635092495MD1690049+9999REMMET12901/04/23 18:53:01 METAR KPMD 050253Z 19007KT 10SM FEW046 BKN055 13/07 A3001 RMK AO2 RAB09E42 SLP157 P0000 60000 T01280067 56004 $EQDQ01  00002PRCP03Q02  00008PRCP03
0231723820231822023010503537+34629-118083FM-15+0787KPMD V0201905N006752200059N0160935N5+01225+00615101535ADDAA101000095GA1025+014945999GD11991+0149459GE19AGL   +99999+99999GF102995999999014941999999MA1101595092465REMMET09501/04/23 19:53:01 METAR KPMD 050353Z 19013KT 10SM FEW049 12/06 A3000 RMK AO2 SLP153 T01220061 $EQDD01      0ADE726
0231723820231822023010504537+34629-118083FM-15+0787KPMD V0202105N005752200059N0160935N5+01335+00505101565ADDAA101000095GA1045+016765999GD12991+0167659GE19AGL   +99999+99999GF104995999999016761999999MA1101635092495REMMET09501/04/23 20:53:02 METAR KPMD 050453Z 21011KT 10SM SCT055 13/05 A3001 RMK AO2 SLP156 T01330050 $EQDD01      0ADE726
0287723820231822023010505537+34629-118083FM-15+0787KPMD V0201805N00215014335MN0160935N5+01335+00565101505ADDAA101000095AA206000021GA1085+014335999GD14991+0143359GE19AGL   +99999+99999GF199999999999014331999999KA1060M+01441KA2060N+01221MA1101595092465MD1890049+9999REMMET11901/04/23 21:53:02 METAR KPMD 050553Z 18004KT 10SM OVC047 13/06 A3000 RMK AO2 SLP150 60000 T01330056 10144 20122 58004 $
0231723820231822023010506537+34629-118083FM-15+0787KPMD V0209999V003152200059N0160935N5+01225+00565101545ADDAA101000095GA1045+014025999GD12991+0140259GE19AGL   +99999+99999GF104995999999014021999999MA1101635092495REMMET09501/04/23 22:53:02 METAR KPMD 050653Z VRB06KT 10SM SCT046 12/06 A3001 RMK AO2 SLP154 T01220056 $EQDD01      0ADE726
0286723820231822023010507537+34629-118083FM-15+0787KPMD V0209999V00155015245MN0160935N5+01175+00505101535ADDAA101000095GA1045+013415999GA2075+015245999GD12991+0134159GD23991+0152459GE19AGL   +99999+99999GF199999999999013411999999KA1240M+01441KA2240N+00671MA1101595092465REMMET11201/04/23 23:53:02 METAR KPMD 050753Z VRB03KT 10SM SCT044 BKN050 12/05 A3000 RMK AO2 SLP153 T01170050 401440067 $
0858723820231822023010507596+34629-118083SOD  +0787KPMD V020999999999999999999999999999+99999+99999999999ADDAA124000025AX1016246KA1240M+01445KA2240N+00675MG1092634101494OE11240129619099995OE22240093919099995OE33240020699999995REMSOD70924 HR PRECIPITATION (IN):    T WEATHER(CODE):1  24 HR MAX TEMP (F): 5824 HR MIN TEMP (F): 44AVERAGE STATION PRESSURE:27.355 MINIMUM SEA LEVEL PRESSURE:29.97 TIME OF OCCURRENCE:2159 PEAK WIND SPEED (MPH): 29 PEAK WIND DIR (DEG):190 PEAK WIND TIME (LST):      FASTEST 2MIN SPEED (MPH): 21FASTEST 2MIN DIR (DEG):190 FASTEST 2MIN TIME (LST):     AVERAGE WIND SPEED (MPH): 4.6 24 HR AVG TEMP (F): 51DEPART FROM NORMAL:  6  HEATING DEGREE DAYS: 14 COOLING DEGREE DAYS:  0 LATEST DAY MAX TEMP (0700-1900 LST):58  LATEST NIGHT MIN TEMP(1900-0800 LST):44 HOURLY INCREMENTAL PRECIPITATION VALUES (IN):.00 0.00 T    0.00 0.00 0.00 0.00 0.00 0.00 0.00 0.00 0.00 0.00 0.00 0.00 0.00 0.00 0.00 T    0.00 0.00 0.00 0.00 0.00EQDR01     17AXW093
0270723820231822023010508537+34629-118083FM-15+0787KPMD V0209999V00215014635MN0160935N5+01175+00505101605ADDAA101000095GA1075+014635999GA2085+018295999GD13991+0146359GD24991+0182959GE19AGL   +99999+99999GF199999999999014631999999MA1101695092565MD1390099+9999REMMET10801/05/23 00:53:02 METAR KPMD 050853Z VRB04KT 10SM BKN048 OVC060 12/05 A3003 RMK AO2 SLP160 T01170050 53009 $
0307723820231822023010509537+34629-118083FM-15+0787KPMD V0201405N00985014635MN0160935N5+01175+00395101475ADDAA101000025AU110020015AW1615GA1075+014635999GA2085+021345999GD13991+0146359GD24991+0213459GE19AGL   +99999+99999GF199999999999014631999999MA1101565092435MW1615OC101245REMMET12801/05/23 01:53:02 METAR KPMD 050953Z 14019G24KT 10SM -RA BKN048 OVC070 12/04 A2999 RMK AO2 RAB50 PRESFR SLP147 P0000 T01170039 $
0249723820231822023010510537+34629-118083FM-15+0787KPMD V0202305N00725021345MN0160935N5+01065+00395101395ADDAA101000395GA1085+021345999GD14991+0213459GE19AGL   +99999+99999GF199999999999021341999999MA1101495092375REMMET13201/05/23 02:53:02 METAR KPMD 051053Z 23014KT 10SM OVC070 11/04 A2997 RMK AO2 PK WND 14033/1001 RAE19 PRESFR SLP139 P0001 T01060039 $
0441723820231822023010511537+34629-118083FM-15+0787KPMD V0202205N00775018295MN0160935N5+01005+00395101435ADDAA101000025AA206000391AA324000391AU110020015AW1615GA1075+018295999GA2075+021345999GA3085+025915999GD13991+0182959GD23991+0213459GD34991+0259159GE19AGL   +99999+99999GF199999999999018291999999KA1060M+01331MA1101495092375MD1590169+9999MW1615REMMET15501/05/23 03:53:02 METAR KPMD 051153Z 22015KT 10SM -RA BKN060 BKN070 OVC085 10/04 A2997 RMK AO2 RAB37 SLP143 P0000 60001 70001 T01000039 10133 20100 55016 $EQDQ01  00028PRCP06Q02  00028PRCP24
0224723820231822023010512537+34629-118083FM-15+0787KPMD V0202105N00775019815MN0160935N5+00945+00395101365ADDAA101000025GA1085+019815999GD14991+0198159GE19AGL   +99999+99999GF199999999999019811999999MA1101465092345REMMET10701/05/23 04:53:02 METAR KPMD 051253Z 21015KT 10SM OVC065 09/04 A2996 RMK AO2 RAE51 SLP136 P0000 T00940039 $
0265723820231822023010513537+34629-118083FM-15+0787KPMD V0201705N00825021345MN0160935N5+00945+00395101335ADDAA101000025GA1075+021345999GA2085+025915999GD13991+0213459GD24991+0259159GE19AGL   +99999+99999GF199999999999021341999999MA1101425092315REMMET11701/05/23 05:53:02 METAR KPMD 051353Z 17016KT 10SM BKN070 OVC085 09/04 A2995 RMK AO2 RAB36E45 SLP133 P0000 T00940039 $
0361723820231822023010514537+34629-118083FM-15+0787KPMD V0201305N00625022865MN0160935N5+00945+00395101355ADDAA101000025AA203000021GA1045+018295999GA2075+022865999GA3085+027435999GD12991+0182959GD23991+0228659GD34991+0274359GE19AGL   +99999+99999GF199999999999018291999999MA1101425092315MD1590089+9999REMMET13801/05/23 06:53:02 METAR KPMD 051453Z 13012KT 10SM SCT060 BKN075 OVC090 09/04 A2995 RMK AO2 RAB1354E10 SLP135 P0000 60000 T00940039 55008 $EQDQ01  00008PRCP03
0242723820231822023010515537+34629-118083FM-15+0787KPMD V0201805N009352200059N0160935N5+01005+00445101295ADDAA101000095GA1025+019815999GD11991+0198159GE19AGL   +99999+99999GF102995999999019811999999MA1101355092245OC101245REMMET09801/05/23 07:53:02 METAR KPMD 051553Z 18018G24KT 10SM FEW065 10/04 A2993 RMK AO2 SLP129 T01000044 $EQDD01      0ADE726
0265723820231822023010516537+34629-118083FM-15+0787KPMD V0201705N00935010065MN0160935N5+01065+00675101265ADDAA101000025GA1075+010065999GA2075+019815999GD13991+0100659GD23991+0198159GE19AGL   +99999+99999GF199999999999010061999999MA1101355092245REMMET11701/05/23 08:53:02 METAR KPMD 051653Z 17018KT 10SM BKN033 BKN065 11/07 A2993 RMK AO2 RAB09E52 SLP126 P0000 T01060067 $
0335723820231822023010517467+34629-118083FM-16+0787KPMD V0202105N00885010675MN0032195V5+01005+00675999999ADDAA101001531AU120020015AW1625GA1025+006715999GA2085+010675999GD11991+0067159GD24991+0106759GE19AGL   +99999+99999GF199999999999006711999999MA1101525092405MW1655OC101445OD149901591250REMMET14201/05/23 09:46:02 SPECI KPMD 051746Z 21017G28KT 2SM RA FEW022 OVC035 10/07 A2998 RMK AO2 PK WND 25031/1733 VIS 1 1/4V3 RAB19 P0006 T01000067 $
0363723820231822023010517517+34629-118083FM-16+0787KPMD V0201905N00675012195MN0048285N5+01005+00705999999ADDAA101001531AU110020015AW1615GA1025+006715999GA2045+009455999GA3085+012195999GD11991+0067159GD22991+0094559GD34991+0121959GE19AGL   +99999+99999GF199999999999006711999999MA1101525092405MW1615OC101135OD149901591250REMMET13901/05/23 09:51:02 SPECI KPMD 051751Z 19013G22KT 3SM -RA FEW022 SCT031 OVC040 10/07 A2998 RMK AO2 PK WND 25031/1733 WSHFT 1736 RAB19 P0006 $
0474723820231822023010517537+34629-118083FM-15+0787KPMD V0201905N00885012195MN0064375N5+01005+00725101445ADDAA101002096AA206001892AU110020015AW1615GA1025+006715999GA2045+009455999GA3085+012195999GD11991+0067159GD22991+0094559GD34991+0121959GE19AGL   +99999+99999GF199999999999006711999999KA1060M+01221KA2060N+00891MA1101525092405MD1390099+9999MW1615OC101295OD149901591250REMMET18001/05/23 09:53:02 METAR KPMD 051753Z 19017G25KT 4SM -RA FEW022 SCT031 OVC040 10/07 A2998 RMK AO2 PK WND 25031/1733 WSHFT 1736 RAB19 SLP144 P0007 60007 T01000072 10122 20089 53009 $EQDQ01  00178PRCP06
0329723820231822023010518007+34629-118083FM-16+0787KPMD V0202005N01295012805MN0064375N5+01065+00675999999ADDAA101000231AU110020015AW1615GA1025+006715999GA2085+012805999GD11991+0067159GD24991+0128059GE19AGL   +99999+99999GF199999999999006711999999MA1101525092405MW1615OC101805OD149901801220REMMET13601/05/23 10:00:02 SPECI KPMD 051800Z 20025G35KT 4SM -RA FEW022 OVC042 11/07 A2998 RMK AO2 PK WND 22035/1758 WSHFT 1740 P0001 T01060067 $
0374723820231822023010518537+34629-118083FM-15+0787KPMD V0202305N00985011585MN0128755N5+01065+00675101535ADDAA101000895AU110020015AW1615GA1025+007015999GA2075+011585999GA3085+014335999GD11991+0070159GD23991+0115859GD34991+0143359GE19AGL   +99999+99999GF199999999999007011999999MA1101595092465MW1615OC101545OD149901801220REMMET15001/05/23 10:53:02 METAR KPMD 051853Z 23019G30KT 8SM -RA FEW023 BKN038 OVC047 11/07 A3000 RMK AO2 PK WND 22035/1758 WSHFT 1740 SLP153 P0004 T01060067 $
0343723820231822023010519537+34629-118083FM-15+0787KPMD V0202505N00825010065MN0160935N5+01175+00785101495ADDAA101000395GA1045+007015999GA2075+010065999GA3075+013115999GD12991+0070159GD23991+0100659GD33991+0131159GE19AGL   +99999+99999GF199999999999007011999999MA1101565092435OC101135OD149901541240REMMET14201/05/23 11:53:02 METAR KPMD 051953Z 25016G22KT 10SM SCT023 BKN033 BKN043 12/08 A2999 RMK AO2 PK WND 24030/1854 RAE32 SLP149 P0001 T01170078 $
0368723820231822023010520537+34629-118083FM-15+0787KPMD V0202205N00415010365MN0160935N5+01175+00615101515ADDAA101000095AA203001391GA1045+008535999GA2075+010365999GA3085+015245999GD12991+0085359GD23991+0103659GD34991+0152459GE19AGL   +99999+99999GF199999999999008531999999MA1101595092465MD1190069+9999OC101135OD149901331260REMMET14201/05/23 12:53:02 METAR KPMD 052053Z 22008G22KT 10SM SCT028 BKN034 OVC050 12/06 A3000 RMK AO2 PK WND 26026/2001 SLP151 60005 T01170061 51006 $
0243723820231822023010521077+34629-118083FM-16+0787KPMD V0202305N00465007925MN0160935N5+01115+00615999999ADDGA1075+007925999GA2085+010065999GD13991+0079259GD24991+0100659GE19AGL   +99999+99999GF199999999999007921999999MA1101595092465OC101085REMMET09801/05/23 13:07:02 SPECI KPMD 052107Z 23009G21KT 10SM BKN026 OVC033 11/06 A3000 RMK AO2 T01110061 $
0281723820231822023010521277+34629-118083FM-16+0787KPMD V0202305N00625010065MN0160935N5+01225+00675999999ADDGA1025+007925999GA2075+010065999GA3085+021345999GD11991+0079259GD23991+0100659GD34991+0213459GE19AGL   +99999+99999GF199999999999007921999999MA1101565092435OC101035REMMET10501/05/23 13:27:02 SPECI KPMD 052127Z 23012G20KT 10SM FEW026 BKN033 OVC070 12/07 A2999 RMK AO2 T01220067 $
0331723820231822023010521537+34629-118083FM-15+0787KPMD V0202305N00725011285MN0160935N5+01175+00615101455ADDAA101000025GA1025+008845999GA2075+011285999GA3085+021345999GD11991+0088459GD23991+0112859GD34991+0213459GE19AGL   +99999+99999GF199999999999008841999999MA1101525092405OC101295OD149901331230REMMET13001/05/23 13:53:02 METAR KPMD 052153Z 23014G25KT 10SM FEW029 BKN037 OVC070 12/06 A2998 RMK AO2 PK WND 23026/2129 SLP145 T01170061 $
0339723820231822023010522537+34629-118083FM-15+0787KPMD V0202305N01085012505MN0080475N5+00895+00505101545ADDAA101000595AU110020015AW1615GA1075+012505999GA2075+016765999GD13991+0125059GD23991+0167659GE19AGL   +99999+99999GF199999999999012501999999MA1101595092465MW1615OC101705OD149901691250REMMET14601/05/23 14:53:02 METAR KPMD 052253Z 23021G33KT 5SM -RA BKN041 BKN055 09/05 A3000 RMK AO2 PK WND 25033/2249 RAB2156E09B41 SLP154 P0001 T00890050 $
0394723820231822023010523537+34629-118083FM-15+0787KPMD V0202005N00775015245MN0160935N5+01005+00615101585ADDAA101000025AA206001891GA1045+013115999GA2075+015245999GA3075+018295999GD12991+0131159GD23991+0152459GD33991+0182959GE19AGL   +99999+99999GF199999999999013111999999KA1060M+01281KA2060N+00831MA1101635092495MD1390049+9999REMMET14501/05/23 15:53:02 METAR KPMD 052353Z 20015KT 10SM SCT043 BKN050 BKN060 10/06 A3001 RMK AO2 RAE48 SLP158 P0001 60007 T01000061 10128 20083 53004 $EQDQ01  00178PRCP06
0255723820231822023010600537+34629-118083FM-15+0787KPMD V0202205N00885022865MN0160935N5+00945+00445101685ADDAA101000095GA1085+022865999GD14991+0228659GE19AGL   +99999+99999GF199999999999022861999999MA1101735092595OC101135OD149901391220REMMET11601/05/23 16:53:01 METAR KPMD 060053Z 22017G22KT 10SM OVC075 09/04 A3004 RMK AO2 PK WND 22027/0037 SLP168 T00940044 $
0293723820231822023010601537+34629-118083FM-15+0787KPMD V0202205N00775028965MN0160935N5+00895+00445101765ADDAA101000095GA1045+024385999GA2075+028965999GD12991+0243859GD23991+0289659GE19AGL   +99999+99999GF199999999999024381999999MA1101795092655OC101295OD149901441210REMMET12301/05/23 17:53:01 METAR KPMD 060153Z 22015G25KT 10SM SCT080 BKN095 09/04 A3006 RMK AO2 PK WND 21028/0112 SLP176 T00890044 $
0207723820231822023010602537+34629-118083FM-15+0787KPMD V0202305N007752200059N0160935N5+00835+00445101925ADDAA101000095GA1005+999999999GD10991+9999999GF100991999999999999999999MA1101935092785MD1390299+9999REMMET09801/05/23 18:53:01 METAR KPMD 060253Z 23015KT 10SM CLR 08/04 A3010 RMK AO2 SLP192 T00830044 53029 $
0231723820231822023010603537+34629-118083FM-15+0787KPMD V0202505N004152200059N0160935N5+00835+00445102035ADDAA101000095GA1045+015245999GD12991+0152459GE19AGL   +99999+99999GF104995999999015241999999MA1102075092905REMMET09501/05/23 19:53:02 METAR KPMD 060353Z 25008KT 10SM SCT050 08/04 A3014 RMK AO2 SLP203 T00830044 $EQDD01      0ADE726
0231723820231822023010604537+34629-118083FM-15+0787KPMD V0202605N003152200059N0160935N5+00675+00445102125ADDAA101000095GA1045+016765999GD12991+0167659GE19AGL   +99999+99999GF104995999999016761999999MA1102135092965REMMET09501/05/23 20:53:02 METAR KPMD 060453Z 26006KT 10SM SCT055 07/04 A3016 RMK AO2 SLP212 T00670044 $EQDD01      0ADE726
0269723820231822023010605537+34629-118083FM-15+0787KPMD V0202205N003652200059N0160935N5+00725+00395102195ADDAA101000095GA1025+009755999GD11991+0097559GE19AGL   +99999+99999GF102995999999009751999999KA1060M+01001KA2060N+00671MA1102205093035REMMET10701/05/23 21:53:02 METAR KPMD 060553Z 22007KT 10SM FEW032 07/04 A3018 RMK AO2 SLP219 T00720039 10100 20067 $EQDD01      0ADE726
0187723820231822023010606537+34629-118083FM-15+0787KPMD V0202105N004652200059N0160935N5+00615+00285102195ADDAA101000095GA1005+999999999GD10991+9999999GF100991999999999999999999MA1102205093035REMMET09201/05/23 22:53:02 METAR KPMD 060653Z 21009KT 10SM CLR 06/03 A3018 RMK AO2 SLP219 T00610028 $
0223723820231822023010607537+34629-118083FM-15+0787KPMD V0202305N004152200059N0160935N5+00565+00175102195ADDAA101000095GA1005+999999999GD10991+9999999GF100991999999999999999999KA1240M+01281KA2240N+00561MA1102205093035REMMET10201/05/23 23:53:02 METAR KPMD 060753Z 23008KT 10SM CLR 06/02 A3018 RMK AO2 SLP219 T00560017 401280056 $
0825723820231822023010607596+34629-118083SOD  +0787KPMD V020999999999999999999999999999+99999+99999999999ADDAA124003895AT1AU16RA  5KA1240M+01285KA2240N+00565MG1092574101254OE11240178822099995OE22240134120099995OE33240069799999995REMSOD69224 HR PRECIPITATION (IN): 0.15 24 HR MAX TEMP (F): 5524 HR MIN TEMP (F): 42AVERAGE STATION PRESSURE:27.335 MINIMUM SEA LEVEL PRESSURE:29.90 TIME OF OCCURRENCE:0855 PEAK WIND SPEED (MPH): 40 PEAK WIND DIR (DEG):220 PEAK WIND TIME (LST):      FASTEST 2MIN SPEED (MPH): 30FASTEST 2MIN DIR (DEG):200 FASTEST 2MIN TIME (LST):     AVERAGE WIND SPEED (MPH):15.6 24 HR AVG TEMP (F): 49DEPART FROM NORMAL:  4  HEATING DEGREE DAYS: 16 COOLING DEGREE DAYS:  0 LATEST DAY MAX TEMP (0700-1900 LST):55  LATEST NIGHT MIN TEMP(1900-0800 LST):48 HOURLY INCREMENTAL PRECIPITATION VALUES (IN):.00 T    0.01 T    T    T    T    0.00 T    0.08 0.03 0.01 0.00 T    0.02 T    0.00 0.00 0.00 0.00 0.00 0.00 0.00 0.00
0207723820231822023010608537+34629-118083FM-15+0787KPMD V0209999C000052200059N0160935N5+00565+00175102195ADDAA101000095GA1005+999999999GD10991+9999999GF100991999999999999999999MA1102205093035MD1690019+9999REMMET09801/06/23 00:53:02 METAR KPMD 060853Z 00000KT 10SM CLR 06/02 A3018 RMK AO2 SLP219 T00560017 56001 $
0187723820231822023010609537+34629-118083FM-15+0787KPMD V0202605N002152200059N0160935N5+00565+00115102195ADDAA101000095GA1005+999999999GD10991+9999999GF100991999999999999999999MA1102205093035REMMET09201/06/23 01:53:02 METAR KPMD 060953Z 26004KT 10SM CLR 06/01 A3018 RMK AO2 SLP219 T00560011 $
0187723820231822023010610537+34629-118083FM-15+0787KPMD V0209999V002652200059N0160935N5+00505+00065102275ADDAA101000095GA1005+999999999GD10991+9999999GF100991999999999999999999MA1102275093095REMMET09201/06/23 02:53:02 METAR KPMD 061053Z VRB05KT 10SM CLR 05/01 A3020 RMK AO2 SLP227 T00500006 $
0262723820231822023010611537+34629-118083FM-15+0787KPMD V0202605N003652200059N0160935N5+00445+00005102275ADDAA101000095AA224003691GA1005+999999999GD10991+9999999GF100991999999999999999999KA1060M+00721KA2060N+00441MA1102275093095MD1190069+9999REMMET11601/06/23 03:53:02 METAR KPMD 061153Z 26007KT 10SM CLR 04/00 A3020 RMK AO2 SLP227 70014 T00440000 10072 20044 51006 $
0187723820231822023010612537+34629-118083FM-15+0787KPMD V0201705N003652200059N0160935N5+00285+00005102305ADDAA101000095GA1005+999999999GD10991+9999999GF100991999999999999999999MA1102275093095REMMET09201/06/23 04:53:02 METAR KPMD 061253Z 17007KT 10SM CLR 03/00 A3020 RMK AO2 SLP230 T00280000 $
0188723820231822023010613537+34629-118083FM-15+0787KPMD V0202105N003152200059N0160935N5+00175-00065102335ADDAA101000095GA1005+999999999GD10991+9999999GF100991999999999999999999MA1102305093125REMMET09301/06/23 05:53:02 METAR KPMD 061353Z 21006KT 10SM CLR 02/M01 A3021 RMK AO2 SLP233 T00171006 $
0208723820231822023010614537+34629-118083FM-15+0787KPMD V0202005N003652200059N0160935N5+00115-00115102395ADDAA101000095GA1005+999999999GD10991+9999999GF100991999999999999999999MA1102345093155MD1390079+9999REMMET09901/06/23 06:53:02 METAR KPMD 061453Z 20007KT 10SM CLR 01/M01 A3022 RMK AO2 SLP239 T00111011 53007 $
0187723820231822023010615537+34629-118083FM-15+0787KPMD V0202105N002652200059N0160935N5+00285+00005102375ADDAA101000095GA1005+999999999GD10991+9999999GF100991999999999999999999MA1102345093155REMMET09201/06/23 07:53:02 METAR KPMD 061553Z 21005KT 10SM CLR 03/00 A3022 RMK AO2 SLP237 T00280000 $
0187723820231822023010616537+34629-118083FM-15+0787KPMD V0209999C000052200059N0160935N5+00725+00175102325ADDAA101000095GA1005+999999999GD10991+9999999GF100991999999999999999999MA1102305093125REMMET09201/06/23 08:53:02 METAR KPMD 061653Z 00000KT 10SM CLR 07/02 A3021 RMK AO2 SLP232 T00720017 $
0245723820231822023010617537+34629-118083FM-15+0787KPMD V0203405N004652200059N0160935N5+00945+00225102435ADDAA101000095GA1005+999999999GD10991+9999999GF100991999999999999999999KA1060M+00941KA2060N+00111MA1102445093255MD1390099+9999REMMET11001/06/23 09:53:02 METAR KPMD 061753Z 34009KT 10SM CLR 09/02 A3025 RMK AO2 SLP243 T00940022 10094 20011 53009 $
0187723820231822023010618537+34629-118083FM-15+0787KPMD V0200305N003152200059N0160935N5+01065+00225102505ADDAA101000095GA1005+999999999GD10991+9999999GF100991999999999999999999MA1102515093315REMMET09201/06/23 10:53:02 METAR KPMD 061853Z 03006KT 10SM CLR 11/02 A3027 RMK AO2 SLP250 T01060022 $
0187723820231822023010619537+34629-118083FM-15+0787KPMD V0200405N002152200059N0160935N5+01115+00225102445ADDAA101000095GA1005+999999999GD10991+9999999GF100991999999999999999999MA1102445093255REMMET09201/06/23 11:53:02 METAR KPMD 061953Z 04004KT 10SM CLR 11/02 A3025 RMK AO2 SLP244 T01110022 $
0207723820231822023010620537+34629-118083FM-15+0787KPMD V0200305N003152200059N0160935N5+01175+00225102395ADDAA101000095GA1005+999999999GD10991+9999999GF100991999999999999999999MA1102405093225MD1890039+9999REMMET09801/06/23 12:53:02 METAR KPMD 062053Z 03006KT 10SM CLR 12/02 A3024 RMK AO2 SLP239 T01170022 58003 $
0187723820231822023010621537+34629-118083FM-15+0787KPMD V0209999V002652200059N0160935N5+01225+00225102385ADDAA101000095GA1005+999999999GD10991+9999999GF100991999999999999999999MA1102405093225REMMET09201/06/23 13:53:02 METAR KPMD 062153Z VRB05KT 10SM CLR 12/02 A3024 RMK AO2 SLP238 T01220022 $
0187723820231822023010622537+34629-118083FM-15+0787KPMD V0200105N003152200059N0160935N5+01225+00065102445ADDAA101000095GA1005+999999999GD10991+9999999GF100991999999999999999999MA1102445093255REMMET09201/06/23 14:53:02 METAR KPMD 062253Z 01006KT 10SM CLR 12/01 A3025 RMK AO2 SLP244 T01220006 $
0245723820231822023010623537+34629-118083FM-15+0787KPMD V0201005N003152200059N0160935N5+01175+00175102425ADDAA101000095GA1005+999999999GD10991+9999999GF100991999999999999999999KA1060M+01221KA2060N+00891MA1102445093255MD1090019+9999REMMET11001/06/23 15:53:02 METAR KPMD 062353Z 10006KT 10SM CLR 12/02 A3025 RMK AO2 SLP242 T01170017 10122 20089 50001 $
0187723820231822023010700537+34629-118083FM-15+0787KPMD V0200705N002152200059N0160935N5+01005+00395102415ADDAA101000095GA1005+999999999GD10991+9999999GF100991999999999999999999MA1102405093225REMMET09201/06/23 16:53:01 METAR KPMD 070053Z 07004KT 10SM CLR 10/04 A3024 RMK AO2 SLP241 T01000039 $
0187723820231822023010701537+34629-118083FM-15+0787KPMD V0200405N002652200059N0160935N5+00895+00285102435ADDAA101000095GA1005+999999999GD10991+9999999GF100991999999999999999999MA1102405093225REMMET09201/06/23 17:53:01 METAR KPMD 070153Z 04005KT 10SM CLR 09/03 A3024 RMK AO2 SLP243 T00890028 $
0207723820231822023010702537+34629-118083FM-15+0787KPMD V0209999C000052200059N0160935N5+00675+00335102505ADDAA101000095GA1005+999999999GD10991+9999999GF100991999999999999999999MA1102445093255MD1590009+9999REMMET09801/06/23 18:53:01 METAR KPMD 070253Z 00000KT 10SM CLR 07/03 A3025 RMK AO2 SLP250 T00670033 55000 $
0187723820231822023010703537+34629-118083FM-15+0787KPMD V0209999C000052200059N0160935N5+00505+00225102505ADDAA101000095GA1005+999999999GD10991+9999999GF100991999999999999999999MA1102445093255REMMET09201/06/23 19:53:02 METAR KPMD 070353Z 00000KT 10SM CLR 05/02 A3025 RMK AO2 SLP250 T00500022 $
0187723820231822023010704537+34629-118083FM-15+0787KPMD V0202805N003152200059N0160935N5+00395+00175102465ADDAA101000095GA1005+999999999GD10991+9999999GF100991999999999999999999MA1102445093255REMMET09201/06/23 20:53:02 METAR KPMD 070453Z 28006KT 10SM CLR 04/02 A3025 RMK AO2 SLP246 T00390017 $
0245723820231822023010705537+34629-118083FM-15+0787KPMD V0202805N004652200059N0160935N5+00505+00175102505ADDAA101000095GA1005+999999999GD10991+9999999GF100991999999999999999999KA1060M+01171KA2060N+00391MA1102475093285MD1390069+9999REMMET11001/06/23 21:53:02 METAR KPMD 070553Z 28009KT 10SM CLR 05/02 A3026 RMK AO2 SLP250 T00500017 10117 20039 53006 $
0187723820231822023010706537+34629-118083FM-15+0787KPMD V0202705N001552200059N0160935N5+00395+00115102505ADDAA101000095GA1005+999999999GD10991+9999999GF100991999999999999999999MA1102515093315REMMET09201/06/23 22:53:02 METAR KPMD 070653Z 27003KT 10SM CLR 04/01 A3027 RMK AO2 SLP250 T00390011 $
0223723820231822023010707537+34629-118083FM-15+0787KPMD V0202005N003152200059N0160935N5+00225+00065102475ADDAA101000095GA1005+999999999GD10991+9999999GF100991999999999999999999KA1240M+01221KA2240N+00111MA1102475093285REMMET10201/06/23 23:53:02 METAR KPMD 070753Z 20006KT 10SM CLR 02/01 A3026 RMK AO2 SLP247 T00220006 401220011 $
0813723820231822023010707596+34629-118083SOD  +0787KPMD V020999999999999999999999999999+99999+99999999999ADDAA124000095KA1240M+01225KA2240N+00115MG1093214102174OE11240084924099995OE22240071525099995OE33240025099999995REMSOD69224 HR PRECIPITATION (IN): 0.00 24 HR MAX TEMP (F): 5424 HR MIN TEMP (F): 34AVERAGE STATION PRESSURE:27.525 MINIMUM SEA LEVEL PRESSURE:30.17 TIME OF OCCURRENCE:0151 PEAK WIND SPEED (MPH): 19 PEAK WIND DIR (DEG):240 PEAK WIND TIME (LST):      FASTEST 2MIN SPEED (MPH): 16FASTEST 2MIN DIR (DEG):250 FASTEST 2MIN TIME (LST):     AVERAGE WIND SPEED (MPH): 5.6 24 HR AVG TEMP (F): 44DEPART FROM NORMAL: -1  HEATING DEGREE DAYS: 21 COOLING DEGREE DAYS:  0 LATEST DAY MAX TEMP (0700-1900 LST):54  LATEST NIGHT MIN TEMP(1900-0800 LST):34 HOURLY INCREMENTAL PRECIPITATION VALUES (IN):.00 0.00 0.00 0.00 0.00 0.00 0.00 0.00 0.00 0.00 0.00 0.00 0.00 0.00 0.00 0.00 0.00 0.00 0.00 0.00 0.00 0.00 0.00 0.00
0196723820231822023010708537+34629-118083FM-15+0787KPMD V0202305N003152200059N0160935N5+00225+00005102415ADDGA1005+999999999GD10991+9999999GF100991999999999999999999MA1102405093225MD1890089+9999REMMET09801/07/23 00:53:02 METAR KPMD 070853Z 23006KT 10SM CLR 02/00 A3024 RMK AO2 SLP241 T00220000 58008 $
0176723820231822023010709537+34629-118083FM-15+0787KPMD V0209999C000052200059N0160935N5+00175+00005102405ADDGA1005+999999999GD10991+9999999GF100991999999999999999999MA1102405093225REMMET09201/07/23 01:53:02 METAR KPMD 070953Z 00000KT 10SM CLR 02/00 A3024 RMK AO2 SLP240 T00170000 $
0176723820231822023010710537+34629-118083FM-15+0787KPMD V0209999C000052200059N0160935N5+00225+00005102355ADDGA1005+999999999GD10991+9999999GF100991999999999999999999MA1102345093155REMMET09201/07/23 02:53:02 METAR KPMD 071053Z 00000KT 10SM CLR 02/00 A3022 RMK AO2 SLP235 T00220000 $
0234723820231822023010711537+34629-118083FM-15+0787KPMD V0203005N002152200059N0160935N5+00225+00005102355ADDGA1005+999999999GD10991+9999999GF100991999999999999999999KA1060M+00441KA2060N+00171MA1102345093155MD1790069+9999REMMET11001/07/23 03:53:02 METAR KPMD 071153Z 30004KT 10SM CLR 02/00 A3022 RMK AO2 SLP235 T00220000 10044 20017 57006 $
0176723820231822023010712537+34629-118083FM-15+0787KPMD V0202605N002152200059N0160935N5+00225+00065102405ADDGA1005+999999999GD10991+9999999GF100991999999999999999999MA1102375093185REMMET09201/07/23 04:53:02 METAR KPMD 071253Z 26004KT 10SM CLR 02/01 A3023 RMK AO2 SLP240 T00220006 $
0176723820231822023010713537+34629-118083FM-15+0787KPMD V0209999C000052200059N0160935N5+00285+00065102425ADDGA1005+999999999GD10991+9999999GF100991999999999999999999MA1102405093225REMMET09201/07/23 05:53:02 METAR KPMD 071353Z 00000KT 10SM CLR 03/01 A3024 RMK AO2 SLP242 T00280006 $
0196723820231822023010714537+34629-118083FM-15+0787KPMD V0202005N002152200059N0160935N5+00225+00065102485ADDGA1005+999999999GD10991+9999999GF100991999999999999999999MA1102405093225MD1190079+9999REMMET09801/07/23 06:53:02 METAR KPMD 071453Z 20004KT 10SM CLR 02/01 A3024 RMK AO2 SLP248 T00220006 51007 $
0176723820231822023010715537+34629-118083FM-15+0787KPMD V0202005N002652200059N0160935N5+00285+00175102505ADDGA1005+999999999GD10991+9999999GF100991999999999999999999MA1102445093255REMMET09201/07/23 07:53:02 METAR KPMD 071553Z 20005KT 10SM CLR 03/02 A3025 RMK AO2 SLP250 T00280017 $
0176723820231822023010716537+34629-118083FM-15+0787KPMD V0202005N001552200059N0160935N5+00565+00285102495ADDGA1005+999999999GD10991+9999999GF100991999999999999999999MA1102445093255REMMET09201/07/23 08:53:02 METAR KPMD 071653Z 20003KT 10SM CLR 06/03 A3025 RMK AO2 SLP249 T00560028 $
0234723820231822023010717537+34629-118083FM-15+0787KPMD V0203305N002652200059N0160935N5+00725+00285102465ADDGA1005+999999999GD10991+9999999GF100991999999999999999999KA1060M+00721KA2060N+00171MA1102445093255MD1090029+9999REMMET11001/07/23 09:53:02 METAR KPMD 071753Z 33005KT 10SM CLR 07/03 A3025 RMK AO2 SLP246 T00720028 10072 20017 50002 $
0176723820231822023010718537+34629-118083FM-15+0787KPMD V0203405N001552200059N0160935N5+00785+00225102455ADDGA1005+999999999GD10991+9999999GF100991999999999999999999MA1102405093225REMMET09201/07/23 10:53:02 METAR KPMD 071853Z 34003KT 10SM CLR 08/02 A3024 RMK AO2 SLP245 T00780022 $
0176723820231822023010719537+34629-118083FM-15+0787KPMD V0200105N002152200059N0160935N5+00895+00285102385ADDGA1005+999999999GD10991+9999999GF100991999999999999999999MA1102345093155REMMET09201/07/23 11:53:02 METAR KPMD 071953Z 01004KT 10SM CLR 09/03 A3022 RMK AO2 SLP238 T00890028 $
0198723820231822023010720147+34629-118083FM-16+0787KPMD V0203305N002652200059N0028165N5+00895+00285999999ADDAU100007015AW1051GA1005+999999999GD10991+9999999GF100991999999999999999999MA1102305093125MW1055REMMET09101/07/23 12:14:02 SPECI KPMD 072014Z 33005KT 1 3/4SM HZ CLR 09/03 A3021 RMK AO2 T00890028 $
0169723820231822023010720287+34629-118083FM-16+0787KPMD V0203005N001552200059N0160935N5+00945+00285999999ADDGA1005+999999999GD10991+9999999GF100991999999999999999999MA1102305093125REMMET08501/07/23 12:28:02 SPECI KPMD 072028Z 30003KT 10SM CLR 09/03 A3021 RMK AO2 T00940028 $
0196723820231822023010720537+34629-118083FM-15+0787KPMD V0200305N002652200059N0160935N5+01005+00285102295ADDGA1005+999999999GD10991+9999999GF100991999999999999999999MA1102275093095MD1890169+9999REMMET09801/07/23 12:53:02 METAR KPMD 072053Z 03005KT 10SM CLR 10/03 A3020 RMK AO2 SLP229 T01000028 58016 $
0176723820231822023010721537+34629-118083FM-15+0787KPMD V0203405N002652200059N0160935N5+01005+00285102245ADDGA1005+999999999GD10991+9999999GF100991999999999999999999MA1102245093065REMMET09201/07/23 13:53:02 METAR KPMD 072153Z 34005KT 10SM CLR 10/03 A3019 RMK AO2 SLP224 T01000028 $
0176723820231822023010722537+34629-118083FM-15+0787KPMD V0209999C000052200059N0160935N5+01005+00335102215ADDGA1005+999999999GD10991+9999999GF100991999999999999999999MA1102175093005REMMET09201/07/23 14:53:02 METAR KPMD 072253Z 00000KT 10SM CLR 10/03 A3017 RMK AO2 SLP221 T01000033 $
0234723820231822023010723537+34629-118083FM-15+0787KPMD V0209999V001552200059N0160935N5+01005+00285102195ADDGA1005+999999999GD10991+9999999GF100991999999999999999999KA1060M+01001KA2060N+00671MA1102175093005MD1690099+9999REMMET11001/07/23 15:53:02 METAR KPMD 072353Z VRB03KT 10SM CLR 10/03 A3017 RMK AO2 SLP219 T01000028 10100 20067 56009 $
0176723820231822023010800537+34629-118083FM-15+0787KPMD V0203205N001552200059N0160935N5+00945+00225102195ADDGA1005+999999999GD10991+9999999GF100991999999999999999999MA1102175093005REMMET09201/07/23 16:53:01 METAR KPMD 080053Z 32003KT 10SM CLR 09/02 A3017 RMK AO2 SLP219 T00940022 $
0176723820231822023010801537+34629-118083FM-15+0787KPMD V0202505N002152200059N0160935N5+00895+00335102195ADDGA1005+999999999GD10991+9999999GF100991999999999999999999MA1102175093005REMMET09201/07/23 17:53:01 METAR KPMD 080153Z 25004KT 10SM CLR 09/03 A3017 RMK AO2 SLP219 T00890033 $
0196723820231822023010802537+34629-118083FM-15+0787KPMD V0203205N001552200059N0160935N5+00785+00285102255ADDGA1005+999999999GD10991+9999999GF100991999999999999999999MA1102205093035MD1390049+9999REMMET09801/07/23 18:53:01 METAR KPMD 080253Z 32003KT 10SM CLR 08/03 A3018 RMK AO2 SLP225 T00780028 53004 $
0176723820231822023010803537+34629-118083FM-15+0787KPMD V0202405N001552200059N0160935N5+00725+00395102255ADDGA1005+999999999GD10991+9999999GF100991999999999999999999MA1102205093035REMMET09201/07/23 19:53:02 METAR KPMD 080353Z 24003KT 10SM CLR 07/04 A3018 RMK AO2 SLP225 T00720039 $
0201723820231822023010804537+34629-118083FM-15+0787KPMD V0201605N00215036585MN0160935N5+00675+00335102255ADDGA1075+036585999GD13991+0365859GE19AGL   +99999+99999GF199999999999036581999999MA1102245093065REMMET09501/07/23 20:53:02 METAR KPMD 080453Z 16004KT 10SM BKN120 07/03 A3019 RMK AO2 SLP225 T00670033 $
0259723820231822023010805537+34629-118083FM-15+0787KPMD V0201505N00215036585MN0160935N5+00615+00335102235ADDGA1075+036585999GD13991+0365859GE19AGL   +99999+99999GF199999999999036581999999KA1060M+01001KA2060N+00611MA1102205093035MD1090019+9999REMMET11301/07/23 21:53:02 METAR KPMD 080553Z 15004KT 10SM BKN120 06/03 A3018 RMK AO2 SLP223 T00610033 10100 20061 50001 $
0176723820231822023010806537+34629-118083FM-15+0787KPMD V0209999C000052200059N0160935N5+00565+00285102275ADDGA1005+999999999GD10991+9999999GF100991999999999999999999MA1102275093095REMMET09201/07/23 22:53:02 METAR KPMD 080653Z 00000KT 10SM CLR 06/03 A3020 RMK AO2 SLP227 T00560028 $
0212723820231822023010807537+34629-118083FM-15+0787KPMD V0202105N002652200059N0160935N5+00505+00175102275ADDGA1005+999999999GD10991+9999999GF100991999999999999999999KA1240M+01001KA2240N+00171MA1102275093095REMMET10201/07/23 23:53:02 METAR KPMD 080753Z 21005KT 10SM CLR 05/02 A3020 RMK AO2 SLP227 T00500017 401000017 $
0687723820231822023010807596+34629-118083SOD  +0787KPMD V020999999999999999999999999999+99999+99999999999ADDAA124000095AT1AU08HZ  5AX1085245KA1240M+01005KA2240N+00175MG1093094102174OE11240044732099995OE22240035821099995OE33240016599999995REMSOD54524 HR PRECIPITATION (IN): 0.00 WEATHER(CODE):8  24 HR MAX TEMP (F): 5024 HR MIN TEMP (F): 35AVERAGE STATION PRESSURE:27.490 MINIMUM SEA LEVEL PRESSURE:30.17 TIME OF OCCURRENCE:1807 PEAK WIND SPEED (MPH): 10 PEAK WIND DIR (DEG):320 PEAK WIND TIME (LST):      FASTEST 2MIN SPEED (MPH):  8FASTEST 2MIN DIR (DEG):210 FASTEST 2MIN TIME (LST):     AVERAGE WIND SPEED (MPH): 3.7 24 HR AVG TEMP (F): 43DEPART FROM NORMAL: -2  HEATING DEGREE DAYS: 22 COOLING DEGREE DAYS:  0 LATEST DAY MAX TEMP (0700-1900 LST):50  LATEST NIGHT MIN TEMP(1900-0800 LST):35
0207723820231822023010808537+34629-118083FM-15+0787KPMD V0201405N001552200059N0160935N5+00445+00225102115ADDAA101000095GA1005+999999999GD10991+9999999GF100991999999999999999999MA1102105092935MD1890109+9999REMMET09801/08/23 00:53:02 METAR KPMD 080853Z 14003KT 10SM CLR 04/02 A3015 RMK AO2 SLP211 T00440022 58010 $
0187723820231822023010809537+34629-118083FM-15+0787KPMD V0202805N002152200059N0160935N5+00395+00175102145ADDAA101000095GA1005+999999999GD10991+9999999GF100991999999999999999999MA1102135092965REMMET09201/08/23 01:53:02 METAR KPMD 080953Z 28004KT 10SM CLR 04/02 A3016 RMK AO2 SLP214 T00390017 $
0187723820231822023010810537+34629-118083FM-15+0787KPMD V0201805N002152200059N0160935N5+00335+00175102135ADDAA101000095GA1005+999999999GD10991+9999999GF100991999999999999999999MA1102135092965REMMET09201/08/23 02:53:02 METAR KPMD 081053Z 18004KT 10SM CLR 03/02 A3016 RMK AO2 SLP213 T00330017 $
0245723820231822023010811537+34629-118083FM-15+0787KPMD V0201705N001552200059N0160935N5+00335+00175102085ADDAA101000095GA1005+999999999GD10991+9999999GF100991999999999999999999KA1060M+00611KA2060N+00331MA1102075092905MD1890049+9999REMMET11001/08/23 03:53:02 METAR KPMD 081153Z 17003KT 10SM CLR 03/02 A3014 RMK AO2 SLP208 T00330017 10061 20033 58004 $
0187723820231822023010812537+34629-118083FM-15+0787KPMD V0209999C000052200059N0160935N5+00395+00175102105ADDAA101000095GA1005+999999999GD10991+9999999GF100991999999999999999999MA1102105092935REMMET09201/08/23 04:53:02 METAR KPMD 081253Z 00000KT 10SM CLR 04/02 A3015 RMK AO2 SLP210 T00390017 $
0194723820231822023010813537+34629-118083FM-15+0787KPMD V0202205N004152200059N0160935N5+00225+00065102205ADDAA101000095GA1005+999999999GD10991+9999999GF100991999999999999999999MA1102175093005REMMET09901/08/23 05:53:02 METAR KPMD 081353Z 22008KT 10SM CLR 02/01 A3017 RMK AO2 PRESRR SLP220 T00220006 $
0251723820231822023010814537+34629-118083FM-15+0787KPMD V0201605N002152200059N0160935N5+00285+00065102195ADDAA101000095GA1025+027435999GD11991+0274359GE19AGL   +99999+99999GF102995999999027431999999MA1102175093005MD1090099+9999REMMET10101/08/23 06:53:02 METAR KPMD 081453Z 16004KT 10SM FEW090 03/01 A3017 RMK AO2 SLP219 T00280006 50009 $EQDD01      0ADE726
0185723820231822023010816537+34629-118083FM-15+0787KPMD V0201305N005152200059N0160935N5+00725+00285102255ADDAA101000095GA1005+999999999GD10991+9999999GF100991999999999999999999MA1102245093065REMMET09001/08/23 08:53:02 METAR KPMD 081653Z 13010KT 10SM CLR 07/03 A3019 RMK AO2 SLP225 T00720028
0324723820231822023010817537+34629-118083FM-15+0787KPMD V0201505N00415024385MN0160935N5+01005+00115102225ADDAA101000095GA1025+015245999GA2045+018295999GA3075+024385999GD11991+0152459GD22991+0182959GD33991+0243859GE19AGL   +99999+99999GF199999999999015241999999KA1060M+01001KA2060N+00221MA1102245093065REMMET11901/08/23 09:53:02 METAR KPMD 081753Z 15008KT 10SM FEW050 SCT060 BKN080 10/01 A3019 RMK AO2 SLP222 T01000011 10100 20022
0229723820231822023010818537+34629-118083FM-15+0787KPMD V0201005N002152200059N0160935N5+01285+00175102165ADDAA101000095GA1045+012505999GD12991+0125059GE19AGL   +99999+99999GF104995999999012501999999MA1102205093035REMMET09301/08/23 10:53:02 METAR KPMD 081853Z 10004KT 10SM SCT041 13/02 A3018 RMK AO2 SLP216 T01280017EQDD01      0ADE726
0229723820231822023010819537+34629-118083FM-15+0787KPMD V0203205N003652200059N0160935N5+01395+00005102095ADDAA101000095GA1045+012195999GD12991+0121959GE19AGL   +99999+99999GF104995999999012191999999MA1102135092965REMMET09301/08/23 11:53:02 METAR KPMD 081953Z 32007KT 10SM SCT040 14/00 A3016 RMK AO2 SLP209 T01390000EQDD01      0ADE726
0249723820231822023010820537+34629-118083FM-15+0787KPMD V0202305N005752200059N0160935N5+01445+00225102005ADDAA101000095GA1045+012505999GD12991+0125059GE19AGL   +99999+99999GF104995999999012501999999MA1102035092875MD1890199+9999REMMET09901/08/23 12:53:02 METAR KPMD 082053Z 23011KT 10SM SCT041 14/02 A3013 RMK AO2 SLP200 T01440022 58019EQDD01      0ADE726
0185723820231822023010821537+34629-118083FM-15+0787KPMD V0202305N004652200059N0160935N5+01395+00335101915ADDAA101000095GA1005+999999999GD10991+9999999GF100991999999999999999999MA1101935092785REMMET09001/08/23 13:53:02 METAR KPMD 082153Z 23009KT 10SM CLR 14/03 A3010 RMK AO2 SLP191 T01390033
0185723820231822023010822537+34629-118083FM-15+0787KPMD V0202405N004152200059N0160935N5+01505+00395101925ADDAA101000095GA1005+999999999GD10991+9999999GF100991999999999999999999MA1101965092815REMMET09001/08/23 14:53:02 METAR KPMD 082253Z 24008KT 10SM CLR 15/04 A3011 RMK AO2 SLP192 T01500039
0243723820231822023010823537+34629-118083FM-15+0787KPMD V0202205N005752200059N0160935N5+01395+00395101915ADDAA101000095GA1005+999999999GD10991+9999999GF100991999999999999999999KA1060M+01501KA2060N+01001MA1101935092785MD1690089+9999REMMET10801/08/23 15:53:02 METAR KPMD 082353Z 22011KT 10SM CLR 14/04 A3010 RMK AO2 SLP191 T01390039 10150 20100 56008
0185723820231822023010900537+34629-118083FM-15+0787KPMD V0202305N004652200059N0160935N5+01285+00505101955ADDAA101000095GA1005+999999999GD10991+9999999GF100991999999999999999999MA1101965092815REMMET09001/08/23 16:53:01 METAR KPMD 090053Z 23009KT 10SM CLR 13/05 A3011 RMK AO2 SLP195 T01280050
0185723820231822023010901537+34629-118083FM-15+0787KPMD V0202205N005752200059N0160935N5+01285+00395102025ADDAA101000095GA1005+999999999GD10991+9999999GF100991999999999999999999MA1102035092875REMMET09001/08/23 17:53:01 METAR KPMD 090153Z 22011KT 10SM CLR 13/04 A3013 RMK AO2 SLP202 T01280039
0205723820231822023010902537+34629-118083FM-15+0787KPMD V0202505N003652200059N0160935N5+01115+00285102045ADDAA101000095GA1005+999999999GD10991+9999999GF100991999999999999999999MA1102035092875MD1190099+9999REMMET09601/08/23 18:53:01 METAR KPMD 090253Z 25007KT 10SM CLR 11/03 A3013 RMK AO2 SLP204 T01110028 51009
0248723820231822023010903537+34629-118083FM-15+0787KPMD V0202305N00265025915MN0160935N5+01115+00285102025ADDAA101000095GA1045+014635999GA2085+025915999GD12991+0146359GD24991+0259159GE19AGL   +99999+99999GF199999999999014631999999MA1102035092875REMMET10001/08/23 19:53:01 METAR KPMD 090353Z 23005KT 10SM SCT048 OVC085 11/03 A3013 RMK AO2 SLP202 T01110028
0267723820231822023010904537+34629-118083FM-15+0787KPMD V0209999C000052200059N0160935N5+01005+00395102055ADDAA101000095GA1025+014945999GA2045+021345999GD11991+0149459GD22991+0213459GE19AGL   +99999+99999GF104995999999014941999999MA1102075092905REMMET10001/08/23 20:53:02 METAR KPMD 090453Z 00000KT 10SM FEW049 SCT070 10/04 A3014 RMK AO2 SLP205 T01000039EQDD01      0ADE726
0243723820231822023010905537+34629-118083FM-15+0787KPMD V0202205N005152200059N0160935N5+01065+00395101985ADDAA101000095GA1005+999999999GD10991+9999999GF100991999999999999999999KA1060M+01391KA2060N+00941MA1102035092875MD1890019+9999REMMET10801/08/23 21:53:02 METAR KPMD 090553Z 22010KT 10SM CLR 11/04 A3013 RMK AO2 SLP198 T01060039 10139 20094 58001
0267723820231822023010906537+34629-118083FM-15+0787KPMD V0201305N002652200059N0160935N5+01115+00445101925ADDAA101000095GA1025+011285999GA2045+015245999GD11991+0112859GD22991+0152459GE19AGL   +99999+99999GF104995999999011281999999MA1102005092845REMMET10001/08/23 22:53:02 METAR KPMD 090653Z 13005KT 10SM FEW037 SCT050 11/04 A3012 RMK AO2 SLP192 T01110044EQDD01      0ADE726
0230723820231822023010907457+34629-118083FM-16+0787KPMD V0209999V00265008845MN0160935N5+01005+00445999999ADDGA1075+008845999GA2075+016765999GD13991+0088459GD23991+0167659GE19AGL   +99999+99999GF199999999999008841999999MA1101965092815REMMET09301/08/23 23:45:02 SPECI KPMD 090745Z VRB05KT 10SM BKN029 BKN055 10/04 A3011 RMK AO2 T01000044
0215723820231822023010907516+34629-118083FM-16+0787KPMD V0203405N00265036585MN0160935N5+00905+00405999999ADDGA1045+008845999GA2045+016765999GA3075+036585999GD12991+0088459GD22991+0167659GD33991+0365859MA1101965092815REMMET09501/08/23 23:51:03 SPECI KPMD 090751Z 34005KT 10SM SCT029 SCT055 BKN120 09/04 A3011 RMK AO2 FIBI
0322723820231822023010907537+34629-118083FM-15+0787KPMD V0200105N00315036585MN0160935N5+00945+00445101915ADDAA101000095GA1045+008845999GA2045+016765999GA3075+036585999GD12991+0088459GD22991+0167659GD33991+0365859GE19AGL   +99999+99999GF199999999999008841999999KA1240M+01501KA2240N+00221MA1101965092815REMMET11701/08/23 23:53:02 METAR KPMD 090753Z 01006KT 10SM SCT029 SCT055 BKN120 09/04 A3011 RMK AO2 SLP191 T00940044 401500022
0813723820231822023010907596+34629-118083SOD  +0787KPMD V020999999999999999999999999999+99999+99999999999ADDAA124000095KA1240M+01505KA2240N+00225MG1092894101864OE11240098327099995OE22240076022099995OE33240031399999995REMSOD69224 HR PRECIPITATION (IN): 0.00 24 HR MAX TEMP (F): 5924 HR MIN TEMP (F): 36AVERAGE STATION PRESSURE:27.430 MINIMUM SEA LEVEL PRESSURE:30.08 TIME OF OCCURRENCE:1410 PEAK WIND SPEED (MPH): 22 PEAK WIND DIR (DEG):270 PEAK WIND TIME (LST):      FASTEST 2MIN SPEED (MPH): 17FASTEST 2MIN DIR (DEG):220 FASTEST 2MIN TIME (LST):     AVERAGE WIND SPEED (MPH): 7.0 24 HR AVG TEMP (F): 48DEPART FROM NORMAL:  3  HEATING DEGREE DAYS: 17 COOLING DEGREE DAYS:  0 LATEST DAY MAX TEMP (0700-1900 LST):59  LATEST NIGHT MIN TEMP(1900-0800 LST):36 HOURLY INCREMENTAL PRECIPITATION VALUES (IN):.00 0.00 0.00 0.00 0.00 0.00 0.00 0.00 0.00 0.00 0.00 0.00 0.00 0.00 0.00 0.00 0.00 0.00 0.00 0.00 0.00 0.00 0.00 0.00
0231723820231822023010908537+34629-118083FM-15+0787KPMD V0200105N004152200059N0160935N5+00835+00395101865ADDAA101000095GA1025+033535999GD11991+0335359GE19AGL   +99999+99999GF102995999999033531999999MA1101935092785REMMET09501/09/23 00:53:02 METAR KPMD 090853Z 01008KT 10SM FEW110 08/04 A3010 RMK AO2 SLP186 T00830039 $EQDD01      0ADE726
0194723820231822023010909237+34629-118083FM-16+0787KPMD V0209999V00215008235MN0160935N5+00945+00565999999ADDGA1075+008235999GD13991+0082359GE19AGL   +99999+99999GF199999999999008231999999MA1101935092785REMMET08801/09/23 01:23:02 SPECI KPMD 090923Z VRB04KT 10SM BKN027 09/06 A3010 RMK AO2 T00940056 $
0231723820231822023010909537+34629-118083FM-15+0787KPMD V0202505N003152200059N0160935N5+01065+00615101815ADDAA101000095GA1045+008235999GD12991+0082359GE19AGL   +99999+99999GF104995999999008231999999MA1101905092745REMMET09501/09/23 01:53:02 METAR KPMD 090953Z 25006KT 10SM SCT027 11/06 A3009 RMK AO2 SLP181 T01060061 $EQDD01      0ADE726
0250723820231822023010910537+34629-118083FM-15+0787KPMD V0201105N00315019815MN0160935N5+00785+00445101775ADDAA101000095GA1025+012505999GA2075+019815999GD11991+0125059GD23991+0198159GE19AGL   +99999+99999GF199999999999012501999999MA1101865092715REMMET10201/09/23 02:53:02 METAR KPMD 091053Z 11006KT 10SM FEW041 BKN065 08/04 A3008 RMK AO2 SLP177 T00780044 $
0327723820231822023010911537+34629-118083FM-15+0787KPMD V0201205N003152200059N0160935N5+00785+00445101685ADDAA101000095GA1025+010365999GA2045+016765999GD11991+0103659GD22991+0167659GE19AGL   +99999+99999GF104995999999010361999999KA1060M+01221KA2060N+00781MA1101765092625MD1890179+9999REMMET12001/09/23 03:53:02 METAR KPMD 091153Z 12006KT 10SM FEW034 SCT055 08/04 A3005 RMK AO2 SLP168 T00780044 10122 20078 58017 $EQDD01      0ADE726
0288723820231822023010912537+34629-118083FM-15+0787KPMD V0209999V00215018295MN0160935N5+00895+00445101675ADDAA101000095GA1025+010365999GA2025+014335999GA3075+018295999GD11991+0103659GD21991+0143359GD33991+0182959GE19AGL   +99999+99999GF199999999999010361999999MA1101735092595REMMET10901/09/23 04:53:02 METAR KPMD 091253Z VRB04KT 10SM FEW034 FEW047 BKN060 09/04 A3004 RMK AO2 SLP167 T00890044 $
0320723820231822023010913537+34629-118083FM-15+0787KPMD V0201905N00625012805MN0160935N5+01115+00675101715ADDAA101000095GA1025+009145999GA2075+012805999GA3085+018295999GD11991+0091459GD23991+0128059GD34991+0182959GE19AGL   +99999+99999GF199999999999009141999999MA1101795092655OD149901441190REMMET12701/09/23 05:53:02 METAR KPMD 091353Z 19012KT 10SM FEW030 BKN042 OVC060 11/07 A3006 RMK AO2 PK WND 19028/1326 SLP171 T01110067 $
0337723820231822023010914537+34629-118083FM-15+0787KPMD V0201705N00415016765MN0160935N5+01115+00785101675ADDAA101000025AA203000021GA1025+011585999GA2085+016765999GD11991+0115859GD24991+0167659GE19AGL   +99999+99999GF199999999999011581999999MA1101735092595MD1890019+9999REMMET12901/09/23 06:53:02 METAR KPMD 091453Z 17008KT 10SM FEW038 OVC055 11/08 A3004 RMK AO2 RAB18E51 SLP167 P0000 60000 T01110078 58001 $EQDQ01  00002PRCP03Q02  00008PRCP03
0265723820231822023010915537+34629-118083FM-15+0787KPMD V0202105N00675018295MN0160935N5+01285+00785101695ADDAA101000025GA1025+010675999GA2075+018295999GD11991+0106759GD23991+0182959GE19AGL   +99999+99999GF199999999999010671999999MA1101765092625REMMET11701/09/23 07:53:02 METAR KPMD 091553Z 21013KT 10SM FEW035 BKN060 13/08 A3005 RMK AO2 RAB35E51 SLP169 P0000 T01280078 $
0305723820231822023010916537+34629-118083FM-15+0787KPMD V0202005N01035016765MN0160935N5+01335+00835101755ADDAA101000025GA1025+011585999GA2075+016765999GD11991+0115859GD23991+0167659GE19AGL   +99999+99999GF199999999999011581999999MA1101835092685OD149901541210REMMET14301/09/23 08:53:02 METAR KPMD 091653Z 20020KT 10SM FEW038 BKN055 13/08 A3007 RMK AO2 PK WND 21030/1639 RAB1558E26B44E53 SLP175 P0000 T01330083 $
0418723820231822023010917537+34629-118083FM-15+0787KPMD V0201905N00935021345MN0160935N5+01395+00895101735ADDAA101000025AA206000021GA1025+011895999GA2075+021345999GD11991+0118959GD23991+0213459GE19AGL   +99999+99999GF199999999999011891999999KA1060M+01391KA2060N+00781MA1101795092655MD1090079+9999OC101545OD149901541200REMMET16201/09/23 09:53:02 METAR KPMD 091753Z 19018G30KT 10SM FEW039 BKN070 14/09 A3006 RMK AO2 PK WND 20030/1747 RAB27E48 SLP173 P0000 60000 T01390089 10139 20078 50007 $EQDQ01  00002PRCP06Q02  00008PRCP06
0352723820231822023010918537+34629-118083FM-15+0787KPMD V0201905N00885016765MN0160935N5+01505+00895101665ADDAA101000025GA1025+011585999GA2045+013725999GA3075+016765999GD11991+0115859GD22991+0137259GD33991+0167659GE19AGL   +99999+99999GF199999999999011581999999MA1101765092625OC101245OD149901541180REMMET15101/09/23 10:53:02 METAR KPMD 091853Z 19017G24KT 10SM FEW038 SCT045 BKN055 15/09 A3005 RMK AO2 PK WND 18030/1818 RAB03E22B39E49 SLP166 P0000 T01500089 $
0370723820231822023010919537+34629-118083FM-15+0787KPMD V0201705N00985009145MN0160935N5+01395+00835101605ADDAA101000025AU110020015AW1615GA1075+009145999GA2075+012505999GA3085+021345999GD13991+0091459GD23991+0125059GD34991+0213459GE19AGL   +99999+99999GF199999999999009141999999MA1101665092535MW1615OC101245OD149901491200REMMET14601/09/23 11:53:02 METAR KPMD 091953Z 17019G24KT 10SM -RA BKN030 BKN041 OVC070 14/08 A3002 RMK AO2 PK WND 20029/1917 RAB43 SLP160 P0000 T01390083 $
0333723820231822023010920537+34629-118083FM-15+0787KPMD V0201805N00775009755MN0160935N5+01335+00895101525ADDAA101000595AA203000591AU110020015AW1615GA1085+009755999GD14991+0097559GE19AGL   +99999+99999GF199999999999009751999999MA1101595092465MD1890209+9999MW1615OD149901391190REMMET13501/09/23 12:53:02 METAR KPMD 092053Z 18015KT 10SM -RA OVC032 13/09 A3000 RMK AO2 PK WND 19027/2032 SLP152 P0002 60002 T01330089 58020 $EQDQ01  00058PRCP03
0224723820231822023010921537+34629-118083FM-15+0787KPMD V0201705N00625009145MN0160935N5+01395+00835101435ADDAA101001395GA1085+009145999GD14991+0091459GE19AGL   +99999+99999GF199999999999009141999999MA1101525092405REMMET10701/09/23 13:53:02 METAR KPMD 092153Z 17012KT 10SM OVC030 14/08 A2998 RMK AO2 RAE48 SLP143 P0005 T01390083 $
0180723820231822023010922516+34629-118083FM-16+0787KPMD V0201405N00625008845MN0160935N5+01305+00905999999ADDAU110020015AW1615GA1085+008845999GD14991+0088459MA1101425092315MW1615REMMET09901/09/23 14:51:02 SPECI KPMD 092251Z 14012KT 10SM -RA OVC029 13/09 A2995 RMK AO2 RAB19 P0003 $ FIBI
0251723820231822023010922537+34629-118083FM-15+0787KPMD V0201405N00625009455MN0160935N5+01335+00895101385ADDAA101000895AU110020015AW1615GA1085+009455999GD14991+0094559GE19AGL   +99999+99999GF199999999999009451999999MA1101465092345MW1615REMMET11101/09/23 14:53:02 METAR KPMD 092253Z 14012KT 10SM -RA OVC031 13/09 A2996 RMK AO2 RAB19 SLP138 P0003 T01330089 $
0255723820231822023010923077+34629-118083FM-16+0787KPMD V0201605N00575008845MN0160935N5+01335+00835999999ADDAA101000021GA1075+008845999GA2085+010675999GD13991+0088459GD24991+0106759GE19AGL   +99999+99999GF199999999999008841999999MA1101495092375REMMET10701/09/23 15:07:02 SPECI KPMD 092307Z 16011KT 10SM BKN029 OVC035 13/08 A2997 RMK AO2 RAE02 P0000 T01330083 $
0274723820231822023010923537+34629-118083FM-15+0787KPMD V0201605N003659999999N0160935N5+01335+00835101435ADDAA101000025AA206002591AU110020015AW1615KA1060M+01611KA2060N+01281MA1101495092375MW1615REMMET12501/09/23 15:53:02 METAR KPMD 092353Z 16007KT 10SM -RA 13/08 A2997 RMK AO2 RAE02B16 SLP143 P0000 60010 T01330083 10161 20128 $EQDQ01  00258PRCP06R01      7SKY009R02      7GAS009
0287723820231822023011000407+34629-118083FM-16+0787KPMD V0201605V00465008845MN0160935N5+01285+00835999999ADDAA101000021AU110020015AW1615GA1075+008845999GA2085+010365999GD13991+0088459GD24991+0103659GE19AGL   +99999+99999GF199999999999008841999999MA1101495092375MW1615OC100985REMMET10801/09/23 16:40:01 SPECI KPMD 100040Z 16009G19KT 10SM -RA BKN029 OVC034 13/08 A2997 RMK AO2 P0000 T01280083 $
0282723820231822023011000537+34629-118083FM-15+0787KPMD V0201205N00415008535MN0128755N5+01225+00835101395ADDAA101000395AU110020015AW1615GA1075+008535999GA2085+010365999GD13991+0085359GD24991+0103659GE19AGL   +99999+99999GF199999999999008531999999MA1101465092345MW1615REMMET11101/09/23 16:53:01 METAR KPMD 100053Z 12008KT 8SM -RA BKN028 OVC034 12/08 A2996 RMK AO2 SLP139 P0001 T01220083 $
0314723820231822023011001187+34629-118083FM-16+0787KPMD V0201305N00265010365MN0160935N5+01225+00835999999ADDAA101000231AU110020015AW1615GA1045+008535999GA2075+010365999GA3085+021345999GD12991+0085359GD23991+0103659GD34991+0213459GE19AGL   +99999+99999GF199999999999008531999999MA1101395092275MW1615REMMET11201/09/23 17:18:01 SPECI KPMD 100118Z 13005KT 10SM -RA SCT028 BKN034 OVC070 12/08 A2994 RMK AO2 P0001 T01220083 $
0332723820231822023011001537+34629-118083FM-15+0787KPMD V0201805N00675024385MN0160935N5+01285+00835101285ADDAA101000395AU110020015AW1615GA1025+016765999GA2075+024385999GA3085+028965999GD11991+0167659GD23991+0243859GD34991+0289659GE19AGL   +99999+99999GF199999999999016761999999MA1101355092245MW1615OC101185REMMET12201/09/23 17:53:01 METAR KPMD 100153Z 18013G23KT 10SM -RA FEW055 BKN080 OVC095 13/08 A2993 RMK AO2 SLP128 P0001 T01280083 $
0342723820231822023011002537+34629-118083FM-15+0787KPMD V0202005N01085018295MN0096565N5+01285+00895101285ADDAA101001095AA203001391AU120020015AW1625GA1085+018295999GD14991+0182959GE19AGL   +99999+99999GF199999999999018291999999MA1101355092245MD1690129+9999MW1655OC101655OD149901751200REMMET13601/09/23 18:53:01 METAR KPMD 100253Z 20021G32KT 6SM RA OVC060 13/09 A2993 RMK AO2 PK WND 20034/0231 SLP128 P0003 60005 T01280089 56012 $EQDQ01  00128PRCP03
0286723820231822023011003537+34629-118083FM-15+0787KPMD V0201905N01185014635MN0064375N5+01285+00895101375ADDAA101006195AU120020015AW1625GA1085+014635999GD14991+0146359GE19AGL   +99999+99999GF199999999999014631999999MA1101465092345MW1655OC101855OD149901851200REMMET12401/09/23 19:53:01 METAR KPMD 100353Z 19023G36KT 4SM RA OVC048 13/09 A2996 RMK AO2 PK WND 20036/0348 SLP137 P0023 T01280089 $
0283723820231822023011004297+34629-118083FM-16+0787KPMD V0201905N01245013415MN0040235N5+01225+00945999999ADDAA101003531AU120020015AW1625GA1085+013415999GD14991+0134159GE19AGL   +99999+99999GF199999999999013411999999MA1101565092435MW1655OC101965OD149901951190REMMET12101/09/23 20:29:01 SPECI KPMD 100429Z 19024G38KT 2 1/2SM RA OVC044 12/09 A2999 RMK AO2 PK WND 19038/0420 P0014 T01220094 $
0280723820231822023011004367+34629-118083FM-16+0787KPMD V0201905N01185013415MN0048285N5+01225+00945999999ADDAA101004331AU130020015AW1635GA1085+013415999GD14991+0134159GE19AGL   +99999+99999GF199999999999013411999999MA1101595092465MW1635OC101705OD149901951190REMMET11801/09/23 20:36:01 SPECI KPMD 100436Z 19023G33KT 3SM +RA OVC044 12/09 A3000 RMK AO2 PK WND 19038/0420 P0017 T01220094 $
