0186723820231822018010100537+34629-118083FM-15+0787KPMD V0209999C000052200059N0160935N5+01895-00835101745ADDAA101000095GA1005+999999999GD10991+9999999GF100991999999999999999999MA1101865092715REMMET09112/31/17 16:53:03 METAR KPMD 010053Z 00000KT 10SM CLR 19/M08 A3008 RMK AO2 SLP174 T01891083
0186723820231822018010101537+34629-118083FM-15+0787KPMD V0202105N004152200059N0160935N5+01335-00725101885ADDAA101000095GA1005+999999999GD10991+9999999GF100991999999999999999999MA1101935092785REMMET09112/31/17 17:53:03 METAR KPMD 010153Z 21008KT 10SM CLR 13/M07 A3010 RMK AO2 SLP188 T01331072
0206723820231822018010102537+34629-118083FM-15+0787KPMD V0202005N003152200059N0160935N5+01225-00565101975ADDAA101000095GA1005+999999999GD10991+9999999GF100991999999999999999999MA1102005092845MD1390179+9999REMMET09712/31/17 18:53:03 METAR KPMD 010253Z 20006KT 10SM CLR 12/M06 A3012 RMK AO2 SLP197 T01221056 53017
0186723820231822018010103537+34629-118083FM-15+0787KPMD V0202005N004152200059N0160935N5+01225-00565102035ADDAA101000095GA1005+999999999GD10991+9999999GF100991999999999999999999MA1102075092905REMMET09112/31/17 19:53:03 METAR KPMD 010353Z 20008KT 10SM CLR 12/M06 A3014 RMK AO2 SLP203 T01221056
0185723820231822018010104537+34629-118083FM-15+0787KPMD V0202105N003652200059N0112655N5+00895-00615102055ADDAA101000095GA1005+999999999GD10991+9999999GF100991999999999999999999MA1102075092905REMMET09012/31/17 20:53:03 METAR KPMD 010453Z 21007KT 7SM CLR 09/M06 A3014 RMK AO2 SLP205 T00891061
0244723820231822018010105537+34629-118083FM-15+0787KPMD V0202105N003652200059N0160935N5+00835-00615102065ADDAA101000095GA1005+999999999GD10991+9999999GF100991999999999999999999KA1060M+02061KA2060N+00781MA1102105092935MD1190119+9999REMMET10912/31/17 21:53:03 METAR KPMD 010553Z 21007KT 10SM CLR 08/M06 A3015 RMK AO2 SLP206 T00831061 10206 20078 51011
0186723820231822018010106537+34629-118083FM-15+0787KPMD V0209999C000052200059N0160935N5+00725-00615102135ADDAA101000095GA1005+999999999GD10991+9999999GF100991999999999999999999MA1102205093035REMMET09112/31/17 22:53:03 METAR KPMD 010653Z 00000KT 10SM CLR 07/M06 A3018 RMK AO2 SLP213 T00721061
0222723820231822018010107537+34629-118083FM-15+0787KPMD V0202405N001552200059N0160935N5+00675-00565102165ADDAA101000095GA1005+999999999GD10991+9999999GF100991999999999999999999KA1240M+02281KA2240N+00441MA1102245093065REMMET10112/31/17 23:53:03 METAR KPMD 010753Z 24003KT 10SM CLR 07/M06 A3019 RMK AO2 SLP216 T00671056 402280044
0886723820231822018010107596+34629-118083SOD  +0787KPMD V020999999999999999999999999999+99999+99999999999ADDAA124000095KA1240M+02285KA2240N+00445MG1092774101664OE11240098303009075OE22240067104009105OE33240019299999995REMSOD73024 HR PRECIPITATION (IN):0.00  24 HR MAX TEMP (F):73 24 HR MAX TEMP TIME (LST):1511 24 HR MIN TEMP (F):40 24 HR MIN TEMP TIME (LST):0816 AVERAGE STATION PRESSURE:27.395 MINIMUM SEA LEVEL PRESSURE:30.02 TIME OF OCCURRENCE:1544 PEAK WIND SPEED (MPH):22  PEAK WIND DIR (DEG):30  PEAK WIND TIME (LST):0907  FASTEST 2MIN SPEED (MPH):15 FASTEST 2MIN DIR (DEG):40  FASTEST 2MIN TIME (LST):0910 AVERAGE WIND SPEED (MPH):4.3  24 HR AVG TEMP (F):57 HEATING DEGREE DAYS:8   COOLING DEGREE DAYS:0   LATEST DAY MAX TEMP (0700-1900 LST):73  LATEST NIGHT MIN TEMP(1900-0800 LST):40 HOURLY INCREMENTAL PRECIPITATION VALUES (IN):.00 0.00 0.00 0.00 0.00 0.00 0.00 0.00 0.00 0.00 0.00 0.00 0.00 0.00 0.00 0.00 0.00 0.00 0.00 0.00 0.00 0.00 0.00 0.00EQDR01     N7GJS072R02     N7GKS075
1293723820231822018010107596+34629-118083SOM  +0787KPMD V020999999999999999999999999999+99999+99999999999ADDAB10000025AD10000029999999999995AE1005005005005AH1005000029999995AI1060999999999997AI2080999999999997AI3100999999999997AI4120999999999997AI5150999999999997AI6180999999999997KB1744N-00835KB2744M+18175KB3744A+08675KC1N9-00662299995KC2M9+02330299995KD1744H05295KD2744C00005KE1005005235005MH1093064102244MK1103350807035100411604375REMSOM775PCP MTOT:T PCP GT 24HRS:T DATE(S):16 DAYS W/PCP >=.01:0  DAYS W/PCP >=.10:0  DAYS W/ PCP >=.50:0 DAYS W/PCP >=1.00:0 MSDP AMTS W/DATE-TIME TAGS:MIN: 5/T MIN:10 0.00    /     MIN:15 0.00    /     MIN:20 0.00    /     MIN:30 0.00    /     MIN:45 0.00    /     MIN:60 0.00    /     MIN:80 0.00    /     MIN:100 0.00    /     MIN:120 0.00    /     MIN:150 0.00    /     MIN:180 0.00    /     AVG DLY MIN:30.5  AVG DLY MAX:64.7  AVG MLY TMP:47.6  MIN TMP:20 DATE(S):22 MAX TMP:74  DATE(S):02 DAYS MAX <=32:0 DAYS MAX >=90:0  DAYS MIN <=32:23 DAYS MIN  <=0:0  AVG STP:27.480 LWST SLP:29.65 DATE/TIME:160437 HGST SLP:30.52 DATE/TIME:080703 HDD MTH TOT:529 DEP NORM:-2553 SEASON(JUL 1-JUN 30):814 DEP NORM:-25536 CDD MTH TOT:0 DEP NORM:-2553 SEASON(JAN 1-DEC 31):2269 DEP NORM:-25536EQDR01  0.007A02007R02  0.007A03013R03  0.007A04019R04  0.007A05026R05  0.007A06033R06  0.007A07039R07  0.007A08046R08  0.007A09052R09  0.007A10058R10  0.007A11065R11  0.007A12071
0205723820231822018010108537+34629-118083FM-15+0787KPMD V0209999C000052200059N0144845N5+00445-00725102185ADDAA101000095GA1005+999999999GD10991+9999999GF100991999999999999999999MA1102275093095MD1190159+9999REMMET09601/01/18 00:53:02 METAR KPMD 010853Z 00000KT 9SM CLR 04/M07 A3020 RMK AO2 SLP218 T00441072 51015
0186723820231822018010109537+34629-118083FM-15+0787KPMD V0202805N001552200059N0160935N5+00615-00785102165ADDAA101000095GA1005+999999999GD10991+9999999GF100991999999999999999999MA1102275093095REMMET09101/01/18 01:53:02 METAR KPMD 010953Z 28003KT 10SM CLR 06/M08 A3020 RMK AO2 SLP216 T00611078
0186723820231822018010110537+34629-118083FM-15+0787KPMD V0202905N002152200059N0160935N5+00565-00895102165ADDAA101000095GA1005+999999999GD10991+9999999GF100991999999999999999999MA1102275093095REMMET09101/01/18 02:53:02 METAR KPMD 011053Z 29004KT 10SM CLR 06/M09 A3020 RMK AO2 SLP216 T00561089
0244723820231822018010111537+34629-118083FM-15+0787KPMD V0202705N001552200059N0160935N5+00285-00895102205ADDAA101000095GA1005+999999999GD10991+9999999GF100991999999999999999999KA1060M+00891KA2060N+00281MA1102275093095MD1090009+9999REMMET10901/01/18 03:53:02 METAR KPMD 011153Z 27003KT 10SM CLR 03/M09 A3020 RMK AO2 SLP220 T00281089 10089 20028 50000
0186723820231822018010112537+34629-118083FM-15+0787KPMD V0203205V007252200059N0160935N5+00225-00945102235ADDAA101000095GA1005+999999999GD10991+9999999GF100991999999999999999999MA1102275093095REMMET09101/01/18 04:53:02 METAR KPMD 011253Z 32014KT 10SM CLR 02/M09 A3020 RMK AO2 SLP223 T00221094
0186723820231822018010113537+34629-118083FM-15+0787KPMD V0203205N001552200059N0160935N5+00175-00945102315ADDAA101000095GA1005+999999999GD10991+9999999GF100991999999999999999999MA1102305093125REMMET09101/01/18 05:53:02 METAR KPMD 011353Z 32003KT 10SM CLR 02/M09 A3021 RMK AO2 SLP231 T00171094
0206723820231822018010114537+34629-118083FM-15+0787KPMD V0209999C000052200059N0160935N5+00225-01005102385ADDAA101000095GA1005+999999999GD10991+9999999GF100991999999999999999999MA1102375093185MD1390099+9999REMMET09701/01/18 06:53:02 METAR KPMD 011453Z 00000KT 10SM CLR 02/M10 A3023 RMK AO2 SLP238 T00221100 53009
0186723820231822018010115537+34629-118083FM-15+0787KPMD V0201805N001552200059N0160935N5+00335-00895102435ADDAA101000095GA1005+999999999GD10991+9999999GF100991999999999999999999MA1102445093255REMMET09101/01/18 07:53:02 METAR KPMD 011553Z 18003KT 10SM CLR 03/M09 A3025 RMK AO2 SLP243 T00331089
0186723820231822018010116537+34629-118083FM-15+0787KPMD V0200405N001552200059N0160935N5+00895-00895102465ADDAA101000095GA1005+999999999GD10991+9999999GF100991999999999999999999MA1102475093285REMMET09101/01/18 08:53:02 METAR KPMD 011653Z 04003KT 10SM CLR 09/M09 A3026 RMK AO2 SLP246 T00891089
0244723820231822018010117537+34629-118083FM-15+0787KPMD V0209999C000052200059N0160935N5+01175-00895102555ADDAA101000095GA1005+999999999GD10991+9999999GF100991999999999999999999KA1060M+01171KA2060N+00111MA1102575093375MD1390199+9999REMMET10901/01/18 09:53:02 METAR KPMD 011753Z 00000KT 10SM CLR 12/M09 A3029 RMK AO2 SLP255 T01171089 10117 20011 53019
0186723820231822018010118537+34629-118083FM-15+0787KPMD V0203305N002152200059N0160935N5+01395-00945102525ADDAA101000095GA1005+999999999GD10991+9999999GF100991999999999999999999MA1102575093375REMMET09101/01/18 10:53:02 METAR KPMD 011853Z 33004KT 10SM CLR 14/M09 A3029 RMK AO2 SLP252 T01391094
0186723820231822018010119537+34629-118083FM-15+0787KPMD V0209999V001552200059N0160935N5+01505-00895102425ADDAA101000095GA1005+999999999GD10991+9999999GF100991999999999999999999MA1102475093285REMMET09101/01/18 11:53:02 METAR KPMD 011953Z VRB03KT 10SM CLR 15/M09 A3026 RMK AO2 SLP242 T01501089
0206723820231822018010120537+34629-118083FM-15+0787KPMD V0203605N001552200059N0160935N5+01675-00895102305ADDAA101000095GA1005+999999999GD10991+9999999GF100991999999999999999999MA1102345093155MD1890229+9999REMMET09701/01/18 12:53:02 METAR KPMD 012053Z 36003KT 10SM CLR 17/M09 A3022 RMK AO2 SLP230 T01671089 58022
0186723820231822018010121537+34629-118083FM-15+0787KPMD V0200205N001552200059N0160935N5+01835-01005102155ADDAA101000095GA1005+999999999GD10991+9999999GF100991999999999999999999MA1102245093065REMMET09101/01/18 13:53:02 METAR KPMD 012153Z 02003KT 10SM CLR 18/M10 A3019 RMK AO2 SLP215 T01831100
0186723820231822018010122537+34629-118083FM-15+0787KPMD V0200205N002152200059N0160935N5+01895-01005102165ADDAA101000095GA1005+999999999GD10991+9999999GF100991999999999999999999MA1102245093065REMMET09101/01/18 14:53:02 METAR KPMD 012253Z 02004KT 10SM CLR 19/M10 A3019 RMK AO2 SLP216 T01891100
0244723820231822018010123537+34629-118083FM-15+0787KPMD V0203205N002652200059N0160935N5+01785-01065102195ADDAA101000095GA1005+999999999GD10991+9999999GF100991999999999999999999KA1060M+01941KA2060N+01171MA1102245093065MD1590109+9999REMMET10901/01/18 15:53:02 METAR KPMD 012353Z 32005KT 10SM CLR 18/M11 A3019 RMK AO2 SLP219 T01781106 10194 20117 55010
0186723820231822018010200537+34629-118083FM-15+0787KPMD V0203005N001552200059N0160935N5+01675-01115102215ADDAA101000095GA1005+999999999GD10991+9999999GF100991999999999999999999MA1102245093065REMMET09101/01/18 16:53:01 METAR KPMD 020053Z 30003KT 10SM CLR 17/M11 A3019 RMK AO2 SLP221 T01671111
0186723820231822018010201537+34629-118083FM-15+0787KPMD V0202405N002152200059N0160935N5+01565-01065102265ADDAA101000095GA1005+999999999GD10991+9999999GF100991999999999999999999MA1102275093095REMMET09101/01/18 17:53:01 METAR KPMD 020153Z 24004KT 10SM CLR 16/M11 A3020 RMK AO2 SLP226 T01561106
0206723820231822018010202537+34629-118083FM-15+0787KPMD V0202205N002652200059N0160935N5+01115-01065102335ADDAA101000095GA1005+999999999GD10991+9999999GF100991999999999999999999MA1102305093125MD1390079+9999REMMET09701/01/18 18:53:02 METAR KPMD 020253Z 22005KT 10SM CLR 11/M11 A3021 RMK AO2 SLP233 T01111106 53007
0186723820231822018010203537+34629-118083FM-15+0787KPMD V0209999C000052200059N0160935N5+00945-01005102375ADDAA101000095GA1005+999999999GD10991+9999999GF100991999999999999999999MA1102375093185REMMET09101/01/18 19:53:02 METAR KPMD 020353Z 00000KT 10SM CLR 09/M10 A3023 RMK AO2 SLP237 T00941100
0186723820231822018010204537+34629-118083FM-15+0787KPMD V0202005N002652200059N0160935N5+00785-00945102385ADDAA101000095GA1005+999999999GD10991+9999999GF100991999999999999999999MA1102405093225REMMET09101/01/18 20:53:02 METAR KPMD 020453Z 20005KT 10SM CLR 08/M09 A3024 RMK AO2 SLP238 T00781094
0244723820231822018010205537+34629-118083FM-15+0787KPMD V0202005N003652200059N0160935N5+00785-00895102385ADDAA101000095GA1005+999999999GD10991+9999999GF100991999999999999999999KA1060M+01781KA2060N+00671MA1102405093225MD1190099+9999REMMET10901/01/18 21:53:02 METAR KPMD 020553Z 20007KT 10SM CLR 08/M09 A3024 RMK AO2 SLP238 T00781089 10178 20067 51009
0186723820231822018010206537+34629-118083FM-15+0787KPMD V0202105N004152200059N0160935N5+00675-01065102385ADDAA101000095GA1005+999999999GD10991+9999999GF100991999999999999999999MA1102445093255REMMET09101/01/18 22:53:02 METAR KPMD 020653Z 21008KT 10SM CLR 07/M11 A3025 RMK AO2 SLP238 T00671106
0222723820231822018010207537+34629-118083FM-15+0787KPMD V0201805N001552200059N0160935N5+00615-01115102415ADDAA101000095GA1005+999999999GD10991+9999999GF100991999999999999999999KA1240M+01941KA2240N+00111MA1102445093255REMMET10101/01/18 23:53:02 METAR KPMD 020753Z 18003KT 10SM CLR 06/M11 A3025 RMK AO2 SLP241 T00611111 401940011
0926723820231822018010207596+34629-118083SOD  +0787KPMD V020999999999999999999999999999+99999+99999999999ADDAA124000095AJ100009599999999AL12400095AN1024000095KA1240M+01945KA2240N+00115MG1093184102134OE11240089433099995OE22240080533099995OE33240019299999995REMSOD76624 HR PRECIPITATION (IN): 0.00 SNOW DEPTH (IN):    0 24 HR SNOWFALL (IN):  0.024 HR MAX TEMP (F): 6724 HR MIN TEMP (F): 34AVERAGE STATION PRESSURE:27.515 MINIMUM SEA LEVEL PRESSURE:30.16 TIME OF OCCURRENCE:1508 PEAK WIND SPEED (MPH): 20 PEAK WIND DIR (DEG):330 PEAK WIND TIME (LST):      FASTEST 2MIN SPEED (MPH): 18FASTEST 2MIN DIR (DEG):330 FASTEST 2MIN TIME (LST):     AVERAGE WIND SPEED (MPH): 4.3 24 HR AVG TEMP (F): 51DEPART FROM NORMAL:  7  SKY COVER SR-SS (TENTHS): 0HEATING DEGREE DAYS: 14 COOLING DEGREE DAYS:  0 LATEST DAY MAX TEMP (0700-1900 LST):67  LATEST NIGHT MIN TEMP(1900-0800 LST):34 HOURLY INCREMENTAL PRECIPITATION VALUES (IN):.00 0.00 0.00 0.00 0.00 0.00 0.00 0.00 0.00 0.00 0.00 0.00 0.00 0.00 0.00 0.00 0.00 0.00 0.00 0.00 0.00 0.00 0.00 0.00
0206723820231822018010208537+34629-118083FM-15+0787KPMD V0201905N001552200059N0160935N5+00675-01005102405ADDAA101000095GA1005+999999999GD10991+9999999GF100991999999999999999999MA1102475093285MD1190059+9999REMMET09701/02/18 00:53:02 METAR KPMD 020853Z 19003KT 10SM CLR 07/M10 A3026 RMK AO2 SLP240 T00671100 51005
0186723820231822018010209537+34629-118083FM-15+0787KPMD V0209999N999992200059N0160935N5+00725-01115102375ADDAA101000095GA1005+999999999GD10991+9999999GF100991999999999999999999MA1102445093255REMMET09101/02/18 01:53:02 METAR KPMD 020953Z      KT 10SM CLR 07/M11 A3025 RMK AO2 SLP237 T00721111
0186723820231822018010210537+34629-118083FM-15+0787KPMD V0202105N001552200059N0160935N5+00725-01005102375ADDAA101000095GA1005+999999999GD10991+9999999GF100991999999999999999999MA1102475093285REMMET09101/02/18 02:53:02 METAR KPMD 021053Z 21003KT 10SM CLR 07/M10 A3026 RMK AO2 SLP237 T00721100
0244723820231822018010211537+34629-118083FM-15+0787KPMD V0209999C000052200059N0160935N5+00675-01065102365ADDAA101000095GA1005+999999999GD10991+9999999GF100991999999999999999999KA1060M+00781KA2060N+00611MA1102445093255MD1890029+9999REMMET10901/02/18 03:53:02 METAR KPMD 021153Z 00000KT 10SM CLR 07/M11 A3025 RMK AO2 SLP236 T00671106 10078 20061 58002
0186723820231822018010212537+34629-118083FM-15+0787KPMD V0209999C000052200059N0160935N5+00785-01115102365ADDAA101000095GA1005+999999999GD10991+9999999GF100991999999999999999999MA1102445093255REMMET09101/02/18 04:53:02 METAR KPMD 021253Z 00000KT 10SM CLR 08/M11 A3025 RMK AO2 SLP236 T00781111
0186723820231822018010213537+34629-118083FM-15+0787KPMD V0209999N999992200059N0160935N5+00675-00895102415ADDAA101000095GA1005+999999999GD10991+9999999GF100991999999999999999999MA1102475093285REMMET09101/02/18 05:53:02 METAR KPMD 021353Z      KT 10SM CLR 07/M09 A3026 RMK AO2 SLP241 T00671089
0206723820231822018010214537+34629-118083FM-15+0787KPMD V0202505N002652200059N0160935N5+00615-01065102505ADDAA101000095GA1005+999999999GD10991+9999999GF100991999999999999999999MA1102515093315MD1390079+9999REMMET09701/02/18 06:53:02 METAR KPMD 021453Z 25005KT 10SM CLR 06/M11 A3027 RMK AO2 SLP250 T00611106 53007
0186723820231822018010215537+34629-118083FM-15+0787KPMD V0209999C000052200059N0160935N5+00675-01115102535ADDAA101000095GA1005+999999999GD10991+9999999GF100991999999999999999999MA1102545093345REMMET09101/02/18 07:53:02 METAR KPMD 021553Z 00000KT 10SM CLR 07/M11 A3028 RMK AO2 SLP253 T00671111
0218723820231822018010216537+34629-118083FM-15+0787KPMD V0209999C000052200059N0160935N5+00895-01065102595ADDAA101000095GA1005+999999999GD10991+9999999GF100991999999999999999999MA1102615093405OD149901441210REMMET10901/02/18 08:53:02 METAR KPMD 021653Z 00000KT 10SM CLR 09/M11 A3030 RMK AO2 PK WND 21028/1606 SLP259 T00891106
0244723820231822018010217537+34629-118083FM-15+0787KPMD V0209999C000052200059N0160935N5+01005-01065102625ADDAA101000095GA1005+999999999GD10991+9999999GF100991999999999999999999KA1060M+01061KA2060N+00611MA1102645093445MD1390119+9999REMMET10901/02/18 09:53:02 METAR KPMD 021753Z 00000KT 10SM CLR 10/M11 A3031 RMK AO2 SLP262 T01001106 10106 20061 53011
0186723820231822018010218537+34629-118083FM-15+0787KPMD V0200105N001552200059N0160935N5+01395-01115102545ADDAA101000095GA1005+999999999GD10991+9999999GF100991999999999999999999MA1102575093375REMMET09101/02/18 10:53:02 METAR KPMD 021853Z 01003KT 10SM CLR 14/M11 A3029 RMK AO2 SLP254 T01391111
0186723820231822018010219537+34629-118083FM-15+0787KPMD V0203405N002152200059N0160935N5+01565-01115102415ADDAA101000095GA1005+999999999GD10991+9999999GF100991999999999999999999MA1102475093285REMMET09101/02/18 11:53:02 METAR KPMD 021953Z 34004KT 10SM CLR 16/M11 A3026 RMK AO2 SLP241 T01561111
0206723820231822018010220537+34629-118083FM-15+0787KPMD V0200205N002652200059N0160935N5+01725-01175102305ADDAA101000095GA1005+999999999GD10991+9999999GF100991999999999999999999MA1102375093185MD1890249+9999REMMET09701/02/18 12:53:02 METAR KPMD 022053Z 02005KT 10SM CLR 17/M12 A3023 RMK AO2 SLP230 T01721117 58024
0186723820231822018010221537+34629-118083FM-15+0787KPMD V0200305N002652200059N0160935N5+02005-01115102165ADDAA101000095GA1005+999999999GD10991+9999999GF100991999999999999999999MA1102275093095REMMET09101/02/18 13:53:02 METAR KPMD 022153Z 03005KT 10SM CLR 20/M11 A3020 RMK AO2 SLP216 T02001111
0186723820231822018010222537+34629-118083FM-15+0787KPMD V0200205N003652200059N0160935N5+02115-01175102135ADDAA101000095GA1005+999999999GD10991+9999999GF100991999999999999999999MA1102245093065REMMET09101/02/18 14:53:02 METAR KPMD 022253Z 02007KT 10SM CLR 21/M12 A3019 RMK AO2 SLP213 T02111117
0244723820231822018010223537+34629-118083FM-15+0787KPMD V0200205N004652200059N0160935N5+02005-01065102135ADDAA101000095GA1005+999999999GD10991+9999999GF100991999999999999999999KA1060M+02111KA2060N+01001MA1102245093065MD1690149+9999REMMET10901/02/18 15:53:02 METAR KPMD 022353Z 02009KT 10SM CLR 20/M11 A3019 RMK AO2 SLP213 T02001106 10211 20100 56014
0186723820231822018010300537+34629-118083FM-15+0787KPMD V0200105N001552200059N0160935N5+01785-01065102155ADDAA101000095GA1005+999999999GD10991+9999999GF100991999999999999999999MA1102245093065REMMET09101/02/18 16:53:01 METAR KPMD 030053Z 01003KT 10SM CLR 18/M11 A3019 RMK AO2 SLP215 T01781106
0186723820231822018010301537+34629-118083FM-15+0787KPMD V0201905N001552200059N0160935N5+01395-01175102235ADDAA101000095GA1005+999999999GD10991+9999999GF100991999999999999999999MA1102275093095REMMET09101/02/18 17:53:01 METAR KPMD 030153Z 19003KT 10SM CLR 14/M12 A3020 RMK AO2 SLP223 T01391117
0206723820231822018010302537+34629-118083FM-15+0787KPMD V0201705N002152200059N0160935N5+01175-01175102295ADDAA101000095GA1005+999999999GD10991+9999999GF100991999999999999999999MA1102305093125MD1390079+9999REMMET09701/02/18 18:53:02 METAR KPMD 030253Z 17004KT 10SM CLR 12/M12 A3021 RMK AO2 SLP229 T01171117 53007
0186723820231822018010303537+34629-118083FM-15+0787KPMD V0209999C000052200059N0160935N5+01005-01115102305ADDAA101000095GA1005+999999999GD10991+9999999GF100991999999999999999999MA1102305093125REMMET09101/02/18 19:53:02 METAR KPMD 030353Z 00000KT 10SM CLR 10/M11 A3021 RMK AO2 SLP230 T01001111
0186723820231822018010304537+34629-118083FM-15+0787KPMD V0209999C000052200059N0160935N5+00945-01115102315ADDAA101000095GA1005+999999999GD10991+9999999GF100991999999999999999999MA1102345093155REMMET09101/02/18 20:53:02 METAR KPMD 030453Z 00000KT 10SM CLR 09/M11 A3022 RMK AO2 SLP231 T00941111
0244723820231822018010305537+34629-118083FM-15+0787KPMD V0202805N001552200059N0160935N5+00945-01115102325ADDAA101000095GA1005+999999999GD10991+9999999GF100991999999999999999999KA1060M+02001KA2060N+00891MA1102375093185MD1390049+9999REMMET10901/02/18 21:53:02 METAR KPMD 030553Z 28003KT 10SM CLR 09/M11 A3023 RMK AO2 SLP232 T00941111 10200 20089 53004
0186723820231822018010306537+34629-118083FM-15+0787KPMD V0202905N003152200059N0160935N5+00895-00945102285ADDAA101000095GA1005+999999999GD10991+9999999GF100991999999999999999999MA1102345093155REMMET09101/02/18 22:53:02 METAR KPMD 030653Z 29006KT 10SM CLR 09/M09 A3022 RMK AO2 SLP228 T00891094
0222723820231822018010307537+34629-118083FM-15+0787KPMD V0203105N002652200059N0160935N5+00725-01005102265ADDAA101000095GA1005+999999999GD10991+9999999GF100991999999999999999999KA1240M+02111KA2240N+00611MA1102345093155REMMET10101/02/18 23:53:02 METAR KPMD 030753Z 31005KT 10SM CLR 07/M10 A3022 RMK AO2 SLP226 T00721100 402110061
0850723820231822018010307596+34629-118083SOD  +0787KPMD V020999999999999999999999999999+99999+99999999999ADDAA124000095AJ100009599999999AL12400095AN1024000095KA1240M+02115KA2240N+00615MG1093214102104OE11249999999999997OE22240058103099995OE33240016199999995REMSOD69024 HR PRECIPITATION (IN): 0.00 SNOW DEPTH (IN):    0 24 HR SNOWFALL (IN):  0.024 HR MAX TEMP (F): 7024 HR MIN TEMP (F): 43AVERAGE STATION PRESSURE:27.525 MINIMUM SEA LEVEL PRESSURE:30.15 TIME OF OCCURRENCE:1618  FASTEST 2MIN SPEED (MPH): 13FASTEST 2MIN DIR (DEG): 30 FASTEST 2MIN TIME (LST):     AVERAGE WIND SPEED (MPH): 3.6 24 HR AVG TEMP (F): 57DEPART FROM NORMAL: 13  SKY COVER SR-SS (TENTHS): 0HEATING DEGREE DAYS:  8 COOLING DEGREE DAYS:  0 LATEST DAY MAX TEMP (0700-1900 LST):70  LATEST NIGHT MIN TEMP(1900-0800 LST):43 HOURLY INCREMENTAL PRECIPITATION VALUES (IN):.00 0.00 0.00 0.00 0.00 0.00 0.00 0.00 0.00 0.00 0.00 0.00 0.00 0.00 0.00 0.00 0.00 0.00 0.00 0.00 0.00 0.00 0.00 0.00
0206723820231822018010308537+34629-118083FM-15+0787KPMD V0203005N002152200059N0160935N5+00835-00945102215ADDAA101000095GA1005+999999999GD10991+9999999GF100991999999999999999999MA1102305093125MD1890069+9999REMMET09701/03/18 00:53:02 METAR KPMD 030853Z 30004KT 10SM CLR 08/M09 A3021 RMK AO2 SLP221 T00831094 58006
0186723820231822018010309537+34629-118083FM-15+0787KPMD V0203105N001552200059N0160935N5+00615-01065102225ADDAA101000095GA1005+999999999GD10991+9999999GF100991999999999999999999MA1102305093125REMMET09101/03/18 01:53:02 METAR KPMD 030953Z 31003KT 10SM CLR 06/M11 A3021 RMK AO2 SLP222 T00611106
0186723820231822018010310537+34629-118083FM-15+0787KPMD V0202005N003652200059N0160935N5+00335-00945102235ADDAA101000095GA1005+999999999GD10991+9999999GF100991999999999999999999MA1102305093125REMMET09101/03/18 02:53:02 METAR KPMD 031053Z 20007KT 10SM CLR 03/M09 A3021 RMK AO2 SLP223 T00331094
0244723820231822018010311537+34629-118083FM-15+0787KPMD V0202005N003152200059N0160935N5+00565-00835102215ADDAA101000095GA1005+999999999GD10991+9999999GF100991999999999999999999KA1060M+01061KA2060N+00331MA1102305093125MD1090009+9999REMMET10901/03/18 03:53:02 METAR KPMD 031153Z 20006KT 10SM CLR 06/M08 A3021 RMK AO2 SLP221 T00561083 10106 20033 50000
0186723820231822018010312537+34629-118083FM-15+0787KPMD V0202105N003652200059N0160935N5+00285-00945102205ADDAA101000095GA1005+999999999GD10991+9999999GF100991999999999999999999MA1102275093095REMMET09101/03/18 04:53:02 METAR KPMD 031253Z 21007KT 10SM CLR 03/M09 A3020 RMK AO2 SLP220 T00281094
0186723820231822018010313537+34629-118083FM-15+0787KPMD V0203405N001552200059N0160935N5+00335-00895102255ADDAA101000095GA1005+999999999GD10991+9999999GF100991999999999999999999MA1102275093095REMMET09101/03/18 05:53:02 METAR KPMD 031353Z 34003KT 10SM CLR 03/M09 A3020 RMK AO2 SLP225 T00331089
0206723820231822018010314537+34629-118083FM-15+0787KPMD V0202705N001552200059N0160935N5+00445-00835102295ADDAA101000095GA1005+999999999GD10991+9999999GF100991999999999999999999MA1102305093125MD1390019+9999REMMET09701/03/18 06:53:02 METAR KPMD 031453Z 27003KT 10SM CLR 04/M08 A3021 RMK AO2 SLP229 T00441083 53001
0186723820231822018010315537+34629-118083FM-15+0787KPMD V0202805N001552200059N0160935N5+00445-00895102345ADDAA101000095GA1005+999999999GD10991+9999999GF100991999999999999999999MA1102345093155REMMET09101/03/18 07:53:02 METAR KPMD 031553Z 28003KT 10SM CLR 04/M09 A3022 RMK AO2 SLP234 T00441089
0186723820231822018010316537+34629-118083FM-15+0787KPMD V0209999N999992200059N0160935N5+00835-00785102335ADDAA101000095GA1005+999999999GD10991+9999999GF100991999999999999999999MA1102345093155REMMET09101/03/18 08:53:02 METAR KPMD 031653Z      KT 10SM CLR 08/M08 A3022 RMK AO2 SLP233 T00831078
0244723820231822018010317537+34629-118083FM-15+0787KPMD V0209999C000052200059N0160935N5+01005-00835102315ADDAA101000095GA1005+999999999GD10991+9999999GF100991999999999999999999KA1060M+01001KA2060N+00221MA1102345093155MD1190059+9999REMMET10901/03/18 09:53:02 METAR KPMD 031753Z 00000KT 10SM CLR 10/M08 A3022 RMK AO2 SLP231 T01001083 10100 20022 51005
0186723820231822018010318537+34629-118083FM-15+0787KPMD V0203205N002152200059N0160935N5+01285-00785102255ADDAA101000095GA1005+999999999GD10991+9999999GF100991999999999999999999MA1102305093125REMMET09101/03/18 10:53:02 METAR KPMD 031853Z 32004KT 10SM CLR 13/M08 A3021 RMK AO2 SLP225 T01281078
0186723820231822018010319537+34629-118083FM-15+0787KPMD V0203205N003152200059N0160935N5+01335-00835102175ADDAA101000095GA1005+999999999GD10991+9999999GF100991999999999999999999MA1102245093065REMMET09101/03/18 11:53:02 METAR KPMD 031953Z 32006KT 10SM CLR 13/M08 A3019 RMK AO2 SLP217 T01331083
0206723820231822018010320537+34629-118083FM-15+0787KPMD V0203205N001552200059N0160935N5+01395-00785102065ADDAA101000095GA1005+999999999GD10991+9999999GF100991999999999999999999MA1102105092935MD1890229+9999REMMET09701/03/18 12:53:02 METAR KPMD 032053Z 32003KT 10SM CLR 14/M08 A3015 RMK AO2 SLP206 T01391078 58022
0211723820231822018010321537+34629-118083FM-15+0787KPMD V0209999C00005033535MN0160935N5+01445-00725102005ADDAA101000095GA1075+033535999GD13991+0335359GE19AGL   +99999+99999GF199999999999033531999999MA1102075092905REMMET09401/03/18 13:53:02 METAR KPMD 032153Z 00000KT 10SM BKN110 14/M07 A3014 RMK AO2 SLP200 T01441072
0230723820231822018010322537+34629-118083FM-15+0787KPMD V0203205N002152200059N0160935N5+01565-00725101985ADDAA101000095GA1025+036585999GD11991+0365859GE19AGL   +99999+99999GF102995999999036581999999MA1102005092845REMMET09401/03/18 14:53:02 METAR KPMD 032253Z 32004KT 10SM FEW120 16/M07 A3012 RMK AO2 SLP198 T01561072EQDD01      0ADE726
0244723820231822018010323537+34629-118083FM-15+0787KPMD V0209999C000052200059N0160935N5+01565-00725101975ADDAA101000095GA1005+999999999GD10991+9999999GF100991999999999999999999KA1060M+01561KA2060N+01001MA1102035092875MD1590099+9999REMMET10901/03/18 15:53:02 METAR KPMD 032353Z 00000KT 10SM CLR 16/M07 A3013 RMK AO2 SLP197 T01561072 10156 20100 55009
0186723820231822018010400537+34629-118083FM-15+0787KPMD V0203005N002152200059N0160935N5+01445-00725102025ADDAA101000095GA1005+999999999GD10991+9999999GF100991999999999999999999MA1102035092875REMMET09101/03/18 16:53:01 METAR KPMD 040053Z 30004KT 10SM CLR 14/M07 A3013 RMK AO2 SLP202 T01441072
0230723820231822018010401537+34629-118083FM-15+0787KPMD V0209999C000052200059N0160935N5+01115-00835102075ADDAA101000095GA1025+036585999GD11991+0365859GE19AGL   +99999+99999GF102995999999036581999999MA1102075092905REMMET09401/03/18 17:53:01 METAR KPMD 040153Z 00000KT 10SM FEW120 11/M08 A3014 RMK AO2 SLP207 T01111083EQDD01      0ADE726
0231723820231822018010402537+34629-118083FM-15+0787KPMD V0201805N00215030485MN0160935N5+01115-00615102085ADDAA101000095GA1085+030485999GD14991+0304859GE19AGL   +99999+99999GF199999999999030481999999MA1102075092905MD1190059+9999REMMET10001/03/18 18:53:02 METAR KPMD 040253Z 18004KT 10SM OVC100 11/M06 A3014 RMK AO2 SLP208 T01111061 51005
0249723820231822018010403537+34629-118083FM-15+0787KPMD V0202305N00215030485MN0160935N5+01065-00565102095ADDAA101000095GA1075+030485999GA2075+036585999GD13991+0304859GD23991+0365859GE19AGL   +99999+99999GF199999999999030481999999MA1102105092935REMMET10101/03/18 19:53:02 METAR KPMD 040353Z 23004KT 10SM BKN100 BKN120 11/M06 A3015 RMK AO2 SLP209 T01061056
0211723820231822018010404537+34629-118083FM-15+0787KPMD V0202305N00155028965MN0160935N5+01065-00725102065ADDAA101000095GA1085+028965999GD14991+0289659GE19AGL   +99999+99999GF199999999999028961999999MA1102105092935REMMET09401/03/18 20:53:02 METAR KPMD 040453Z 23003KT 10SM OVC095 11/M07 A3015 RMK AO2 SLP206 T01061072
0269723820231822018010405537+34629-118083FM-15+0787KPMD V0202205N00155030485MN0160935N5+01115-00725102075ADDAA101000095GA1085+030485999GD14991+0304859GE19AGL   +99999+99999GF199999999999030481999999KA1060M+01561KA2060N+01061MA1102135092965MD1390049+9999REMMET11201/03/18 21:53:02 METAR KPMD 040553Z 22003KT 10SM OVC100 11/M07 A3016 RMK AO2 SLP207 T01111072 10156 20106 53004
0230723820231822018010406537+34629-118083FM-15+0787KPMD V0202905N002652200059N0160935N5+00895-00785102085ADDAA101000095GA1025+030485999GD11991+0304859GE19AGL   +99999+99999GF102995999999030481999999MA1102135092965REMMET09401/03/18 22:53:02 METAR KPMD 040653Z 29005KT 10SM FEW100 09/M08 A3016 RMK AO2 SLP208 T00891078EQDD01      0ADE726
0222723820231822018010407537+34629-118083FM-15+0787KPMD V0209999C000052200059N0160935N5+00725-00785102055ADDAA101000095GA1005+999999999GD10991+9999999GF100991999999999999999999KA1240M+01561KA2240N+00221MA1102105092935REMMET10101/03/18 23:53:02 METAR KPMD 040753Z 00000KT 10SM CLR 07/M08 A3015 RMK AO2 SLP205 T00721078 401560022
0926723820231822018010407596+34629-118083SOD  +0787KPMD V020999999999999999999999999999+99999+99999999999ADDAA124000095AJ100009599999999AL12400095AN1024000095KA1240M+01565KA2240N+00225MG1093014101964OE11240089433099995OE22240071532099995OE33240017099999995REMSOD76624 HR PRECIPITATION (IN): 0.00 SNOW DEPTH (IN):    0 24 HR SNOWFALL (IN):  0.024 HR MAX TEMP (F): 6024 HR MIN TEMP (F): 36AVERAGE STATION PRESSURE:27.465 MINIMUM SEA LEVEL PRESSURE:30.11 TIME OF OCCURRENCE:1633 PEAK WIND SPEED (MPH): 20 PEAK WIND DIR (DEG):330 PEAK WIND TIME (LST):      FASTEST 2MIN SPEED (MPH): 16FASTEST 2MIN DIR (DEG):320 FASTEST 2MIN TIME (LST):     AVERAGE WIND SPEED (MPH): 3.8 24 HR AVG TEMP (F): 48DEPART FROM NORMAL:  4  SKY COVER SR-SS (TENTHS): 2HEATING DEGREE DAYS: 17 COOLING DEGREE DAYS:  0 LATEST DAY MAX TEMP (0700-1900 LST):60  LATEST NIGHT MIN TEMP(1900-0800 LST):36 HOURLY INCREMENTAL PRECIPITATION VALUES (IN):.00 0.00 0.00 0.00 0.00 0.00 0.00 0.00 0.00 0.00 0.00 0.00 0.00 0.00 0.00 0.00 0.00 0.00 0.00 0.00 0.00 0.00 0.00 0.00
0206723820231822018010408537+34629-118083FM-15+0787KPMD V0202005N002152200059N0160935N5+00615-00895102045ADDAA101000095GA1005+999999999GD10991+9999999GF100991999999999999999999MA1102075092905MD1890049+9999REMMET09701/04/18 00:53:02 METAR KPMD 040853Z 20004KT 10SM CLR 06/M09 A3014 RMK AO2 SLP204 T00611089 58004
0186723820231822018010409537+34629-118083FM-15+0787KPMD V0201905N003652200059N0160935N5+00565-00725102035ADDAA101000095GA1005+999999999GD10991+9999999GF100991999999999999999999MA1102075092905REMMET09101/04/18 01:53:02 METAR KPMD 040953Z 19007KT 10SM CLR 06/M07 A3014 RMK AO2 SLP203 T00561072
0211723820231822018010410537+34629-118083FM-15+0787KPMD V0209999N99999036585MN0160935N5+00615-00725102045ADDAA101000095GA1075+036585999GD13991+0365859GE19AGL   +99999+99999GF199999999999036581999999MA1102105092935REMMET09401/04/18 02:53:02 METAR KPMD 041053Z      KT 10SM BKN120 06/M07 A3015 RMK AO2 SLP204 T00611072
0244723820231822018010411537+34629-118083FM-15+0787KPMD V0202405N002652200059N0160935N5+00615-00785102025ADDAA101000095GA1005+999999999GD10991+9999999GF100991999999999999999999KA1060M+01111KA2060N+00561MA1102075092905MD1090009+9999REMMET10901/04/18 03:53:02 METAR KPMD 041153Z 24005KT 10SM CLR 06/M08 A3014 RMK AO2 SLP202 T00611078 10111 20056 50000
0186723820231822018010412537+34629-118083FM-15+0787KPMD V0202305N003152200059N0160935N5+00505-00785102035ADDAA101000095GA1005+999999999GD10991+9999999GF100991999999999999999999MA1102075092905REMMET09101/04/18 04:53:02 METAR KPMD 041253Z 23006KT 10SM CLR 05/M08 A3014 RMK AO2 SLP203 T00501078
0230723820231822018010413537+34629-118083FM-15+0787KPMD V0203205N002652200059N0160935N5+00445-00835102115ADDAA101000095GA1045+027435999GD12991+0274359GE19AGL   +99999+99999GF104995999999027431999999MA1102135092965REMMET09401/04/18 05:53:02 METAR KPMD 041353Z 32005KT 10SM SCT090 04/M08 A3016 RMK AO2 SLP211 T00441083EQDD01      0ADE726
0206723820231822018010414537+34629-118083FM-15+0787KPMD V0209999N999992200059N0160935N5+00285-00895102165ADDAA101000095GA1005+999999999GD10991+9999999GF100991999999999999999999MA1102175093005MD1390079+9999REMMET09701/04/18 06:53:02 METAR KPMD 041453Z      KT 10SM CLR 03/M09 A3017 RMK AO2 SLP216 T00281089 53007
0186723820231822018010415537+34629-118083FM-15+0787KPMD V0209999C000052200059N0160935N5+00565-00785102205ADDAA101000095GA1005+999999999GD10991+9999999GF100991999999999999999999MA1102205093035REMMET09101/04/18 07:53:02 METAR KPMD 041553Z 00000KT 10SM CLR 06/M08 A3018 RMK AO2 SLP220 T00561078
0186723820231822018010416537+34629-118083FM-15+0787KPMD V0209999C000052200059N0160935N5+01005-00785102235ADDAA101000095GA1005+999999999GD10991+9999999GF100991999999999999999999MA1102275093095REMMET09101/04/18 08:53:02 METAR KPMD 041653Z 00000KT 10SM CLR 10/M08 A3020 RMK AO2 SLP223 T01001078
0244723820231822018010417537+34629-118083FM-15+0787KPMD V0209999C000052200059N0160935N5+01225-00725102245ADDAA101000095GA1005+999999999GD10991+9999999GF100991999999999999999999KA1060M+01221KA2060N+00281MA1102305093125MD1190149+9999REMMET10901/04/18 09:53:02 METAR KPMD 041753Z 00000KT 10SM CLR 12/M07 A3021 RMK AO2 SLP224 T01221072 10122 20028 51014
0186723820231822018010418537+34629-118083FM-15+0787KPMD V0203605N001552200059N0160935N5+01565-00675102205ADDAA101000095GA1005+999999999GD10991+9999999GF100991999999999999999999MA1102275093095REMMET09101/04/18 10:53:02 METAR KPMD 041853Z 36003KT 10SM CLR 16/M07 A3020 RMK AO2 SLP220 T01561067
0186723820231822018010419537+34629-118083FM-15+0787KPMD V0203005N002152200059N0160935N5+01835-00225102055ADDAA101000095GA1005+999999999GD10991+9999999GF100991999999999999999999MA1102135092965REMMET09101/04/18 11:53:02 METAR KPMD 041953Z 30004KT 10SM CLR 18/M02 A3016 RMK AO2 SLP205 T01831022
0234723820231822018010420537+34629-118083FM-15+0787KPMD V0202405N006752200059N0160935N5+02175+00835101935ADDAA101000095GA1005+999999999GD10991+9999999GF100991999999999999999999MA1102035092875MD1890269+9999OC101295REMMET11701/04/18 12:53:02 METAR KPMD 042053Z 24013G25KT 10SM CLR 22/08 A3013 RMK AO2 PK WND 27027/2042 SLP193 T02170083 58026
0217723820231822018010421537+34629-118083FM-15+0787KPMD V0202605N005152200059N0160935N5+02225+00835101895ADDAA101000095GA1005+999999999GD10991+9999999GF100991999999999999999999MA1102005092845OD149901391230REMMET10801/04/18 13:53:02 METAR KPMD 042153Z 26010KT 10SM CLR 22/08 A3012 RMK AO2 PK WND 23027/2055 SLP189 T02220083
0217723820231822018010422537+34629-118083FM-15+0787KPMD V0202205N006252200059N0160935N5+02175+00895101875ADDAA101000095GA1005+999999999GD10991+9999999GF100991999999999999999999MA1101965092815OD149901441300REMMET10801/04/18 14:53:02 METAR KPMD 042253Z 22012KT 10SM CLR 22/09 A3011 RMK AO2 PK WND 30028/2239 SLP187 T02170089
0272723820231822018010423537+34629-118083FM-15+0787KPMD V0202705N007252200059N0160935N5+02065+00895101895ADDAA101000095GA1005+999999999GD10991+9999999GF100991999999999999999999KA1060M+02221KA2060N+01221MA1102005092845MD1590049+9999OC101445REMMET12901/04/18 15:53:02 METAR KPMD 042353Z 27014G28KT 10SM CLR 21/09 A3012 RMK AO2 PK WND 30028/2353 SLP189 T02060089 10222 20122 55004
0185723820231822018010500537+34629-118083FM-15+0787KPMD V0202705N003152200059N0160935N5+01835+00895101955ADDAA101000095GA1005+999999999GD10991+9999999GF100991999999999999999999MA1102035092875REMMET09001/04/18 16:53:01 METAR KPMD 050053Z 27006KT 10SM CLR 18/09 A3013 RMK AO2 SLP195 T01830089
0185723820231822018010501537+34629-118083FM-15+0787KPMD V0202605N005752200059N0160935N5+01725+00895102025ADDAA101000095GA1005+999999999GD10991+9999999GF100991999999999999999999MA1102075092905REMMET09001/04/18 17:53:01 METAR KPMD 050153Z 26011KT 10SM CLR 17/09 A3014 RMK AO2 SLP202 T01720089
0237723820231822018010502537+34629-118083FM-15+0787KPMD V0202605N005152200059N0160935N5+01565+00835102035ADDAA101000095GA1005+999999999GD10991+9999999GF100991999999999999999999MA1102075092905MD1090079+9999OD149901641220REMMET11401/04/18 18:53:02 METAR KPMD 050253Z 26010KT 10SM CLR 16/08 A3014 RMK AO2 PK WND 22032/0233 SLP203 T01560083 50007
0185723820231822018010503537+34629-118083FM-15+0787KPMD V0202405N006252200059N0160935N5+01505+00895102065ADDAA101000095GA1005+999999999GD10991+9999999GF100991999999999999999999MA1102105092935REMMET09001/04/18 19:53:02 METAR KPMD 050353Z 24012KT 10SM CLR 15/09 A3015 RMK AO2 SLP206 T01500089
0185723820231822018010504537+34629-118083FM-15+0787KPMD V0202705N003152200059N0160935N5+01505+00945102125ADDAA101000095GA1005+999999999GD10991+9999999GF100991999999999999999999MA1102205093035REMMET09001/04/18 20:53:02 METAR KPMD 050453Z 27006KT 10SM CLR 15/09 A3018 RMK AO2 SLP212 T01500094
0243723820231822018010505537+34629-118083FM-15+0787KPMD V0202605N004652200059N0160935N5+01335+00895102125ADDAA101000095GA1005+999999999GD10991+9999999GF100991999999999999999999KA1060M+02061KA2060N+01331MA1102205093035MD1190139+9999REMMET10801/04/18 21:53:02 METAR KPMD 050553Z 26009KT 10SM CLR 13/09 A3018 RMK AO2 SLP212 T01330089 10206 20133 51013
0185723820231822018010506537+34629-118083FM-15+0787KPMD V0202705N004652200059N0160935N5+01445+01065102185ADDAA101000095GA1005+999999999GD10991+9999999GF100991999999999999999999MA1102305093125REMMET09001/04/18 22:53:02 METAR KPMD 050653Z 27009KT 10SM CLR 14/11 A3021 RMK AO2 SLP218 T01440106
0265723820231822018010507537+34629-118083FM-15+0787KPMD V0203005N005752200059N0160935N5+01395+01175102195ADDAA101000095GA1045+010975999GD12991+0109759GE19AGL   +99999+99999GF104995999999010971999999KA1240M+02221KA2240N+00281MA1102345093155REMMET10301/04/18 23:53:02 METAR KPMD 050753Z 30011KT 10SM SCT036 14/12 A3022 RMK AO2 SLP219 T01390117 402220028EQDD01      0ADE726
0850723820231822018010507596+34629-118083SOD  +0787KPMD V020999999999999999999999999999+99999+99999999999ADDAA124000095AJ100009599999999AL12400095AN1024000095KA1240M+02225KA2240N+00285MG1092974101864OE11249999999999997OE22240089423099995OE33240036799999995REMSOD69024 HR PRECIPITATION (IN): 0.00 SNOW DEPTH (IN):    0 24 HR SNOWFALL (IN):  0.024 HR MAX TEMP (F): 7224 HR MIN TEMP (F): 37AVERAGE STATION PRESSURE:27.455 MINIMUM SEA LEVEL PRESSURE:30.08 TIME OF OCCURRENCE:1552  FASTEST 2MIN SPEED (MPH): 20FASTEST 2MIN DIR (DEG):230 FASTEST 2MIN TIME (LST):     AVERAGE WIND SPEED (MPH): 8.2 24 HR AVG TEMP (F): 55DEPART FROM NORMAL: 11  SKY COVER SR-SS (TENTHS): 1HEATING DEGREE DAYS: 10 COOLING DEGREE DAYS:  0 LATEST DAY MAX TEMP (0700-1900 LST):72  LATEST NIGHT MIN TEMP(1900-0800 LST):37 HOURLY INCREMENTAL PRECIPITATION VALUES (IN):.00 0.00 0.00 0.00 0.00 0.00 0.00 0.00 0.00 0.00 0.00 0.00 0.00 0.00 0.00 0.00 0.00 0.00 0.00 0.00 0.00 0.00 0.00 0.00
0237723820231822018010508537+34629-118083FM-15+0787KPMD V0202605N004152200059N0160935N5+01335+01115102165ADDAA101000095GA1005+999999999GD10991+9999999GF100991999999999999999999MA1102345093155MD1190119+9999OD149901441310REMMET11401/05/18 00:53:02 METAR KPMD 050853Z 26008KT 10SM CLR 13/11 A3022 RMK AO2 PK WND 31028/0802 SLP216 T01330111 51011
0185723820231822018010509537+34629-118083FM-15+0787KPMD V0201905N002652200059N0160935N5+01285+01065102145ADDAA101000095GA1005+999999999GD10991+9999999GF100991999999999999999999MA1102305093125REMMET09001/05/18 01:53:02 METAR KPMD 050953Z 19005KT 10SM CLR 13/11 A3021 RMK AO2 SLP214 T01280106
0185723820231822018010510537+34629-118083FM-15+0787KPMD V0201905N003152200059N0160935N5+01065+01005102115ADDAA101000095GA1005+999999999GD10991+9999999GF100991999999999999999999MA1102245093065REMMET09001/05/18 02:53:02 METAR KPMD 051053Z 19006KT 10SM CLR 11/10 A3019 RMK AO2 SLP211 T01060100
0242723820231822018010511537+34629-118083FM-15+0787KPMD V0209999C000052200059N0128755N5+00895+00895102105ADDAA101000095GA1005+999999999GD10991+9999999GF100991999999999999999999KA1060M+01501KA2060N+00891MA1102245093065MD1890099+9999REMMET10701/05/18 03:53:02 METAR KPMD 051153Z 00000KT 8SM CLR 09/09 A3019 RMK AO2 SLP210 T00890089 10150 20089 58009
0204723820231822018010512537+34629-118083FM-15+0787KPMD V0203105N001552200059N0080475N5+00725+00725102125ADDAA101000095AU100001015AW1105GA1005+999999999GD10991+9999999GF100991999999999999999999MA1102205093035REMMET09201/05/18 04:53:02 METAR KPMD 051253Z 31003KT 5SM BR CLR 07/07 A3018 RMK AO2 SLP212 T00720072
0184723820231822018010513537+34629-118083FM-15+0787KPMD V0202105N004152200059N0128755N5+00675+00675102165ADDAA101000095GA1005+999999999GD10991+9999999GF100991999999999999999999MA1102245093065REMMET08901/05/18 05:53:02 METAR KPMD 051353Z 21008KT 8SM CLR 07/07 A3019 RMK AO2 SLP216 T00670067
0205723820231822018010514537+34629-118083FM-15+0787KPMD V0201905N002152200059N0160935N5+00785+00725102205ADDAA101000095GA1005+999999999GD10991+9999999GF100991999999999999999999MA1102275093095MD1390049+9999REMMET09601/05/18 06:53:02 METAR KPMD 051453Z 19004KT 10SM CLR 08/07 A3020 RMK AO2 SLP220 T00780072 53004
0184723820231822018010515537+34629-118083FM-15+0787KPMD V0201105N002152200059N0112655N5+00785+00785102265ADDAA101000095GA1005+999999999GD10991+9999999GF100991999999999999999999MA1102345093155REMMET08901/05/18 07:53:02 METAR KPMD 051553Z 11004KT 7SM CLR 08/08 A3022 RMK AO2 SLP226 T00780078
0185723820231822018010516537+34629-118083FM-15+0787KPMD V0209999C000052200059N0160935N5+01225+01005102265ADDAA101000095GA1005+999999999GD10991+9999999GF100991999999999999999999MA1102375093185REMMET09001/05/18 08:53:02 METAR KPMD 051653Z 00000KT 10SM CLR 12/10 A3023 RMK AO2 SLP226 T01220100
0243723820231822018010517537+34629-118083FM-15+0787KPMD V0209999C000052200059N0160935N5+01615+01065102295ADDAA101000095GA1005+999999999GD10991+9999999GF100991999999999999999999KA1060M+01611KA2060N+00611MA1102405093225MD1190139+9999REMMET10801/05/18 09:53:02 METAR KPMD 051753Z 00000KT 10SM CLR 16/11 A3024 RMK AO2 SLP229 T01610106 10161 20061 51013
0185723820231822018010518537+34629-118083FM-15+0787KPMD V0200705N001552200059N0160935N5+01785+01065102265ADDAA101000095GA1005+999999999GD10991+9999999GF100991999999999999999999MA1102405093225REMMET09001/05/18 10:53:02 METAR KPMD 051853Z 07003KT 10SM CLR 18/11 A3024 RMK AO2 SLP226 T01780106
0185723820231822018010519537+34629-118083FM-15+0787KPMD V0209999C000052200059N0160935N5+01895+00945102165ADDAA101000095GA1005+999999999GD10991+9999999GF100991999999999999999999MA1102305093125REMMET09001/05/18 11:53:02 METAR KPMD 051953Z 00000KT 10SM CLR 19/09 A3021 RMK AO2 SLP216 T01890094
0207723820231822018010520537+34629-118083FM-15+0787KPMD V0209999V001552200059N0160935N5+02005+00835102045ADDAA101000095GA1005+999999999GD10991+9999999GF100991999999999999999999MA1102205093035MD1890209+9999REMMET09801/05/18 12:53:02 METAR KPMD 052053Z VRB03KT 10SM CLR 20/08 A3018 RMK AO2 SLP204 T02000083 58020 $
0187723820231822018010521537+34629-118083FM-15+0787KPMD V0203405N001552200059N0160935N5+02225+00675101955ADDAA101000095GA1005+999999999GD10991+9999999GF100991999999999999999999MA1102135092965REMMET09201/05/18 13:53:02 METAR KPMD 052153Z 34003KT 10SM CLR 22/07 A3016 RMK AO2 SLP195 T02220067 $
0216723820231822018010522537+34629-118083FM-15+0787KPMD V0202605N007252200059N0160935N5+02175+00115101975ADDAA101000095GA1005+999999999GD10991+9999999GF100991999999999999999999MA1102105092935OC101395REMMET11301/05/18 14:53:02 METAR KPMD 052253Z 26014G27KT 10SM CLR 22/01 A3015 RMK AO2 PK WND 23030/2227 SLP197 T02170011 $
0277723820231822018010523537+34629-118083FM-15+0787KPMD V0202505N005152200059N0160935N5+02005+00615102015ADDAA101000095GA1005+999999999GD10991+9999999GF100991999999999999999999KA1060M+02221KA2060N+01611MA1102135092965MD1590069+9999OD149901641230REMMET12801/05/18 15:53:02 METAR KPMD 052353Z 25010KT 10SM CLR 20/06 A3016 RMK AO2 PK WND 23032/2302 SLP201 T02000061 10222 20161 55006 $
0187723820231822018010600537+34629-118083FM-15+0787KPMD V0202505N004652200059N0160935N5+01835+00675102095ADDAA101000095GA1005+999999999GD10991+9999999GF100991999999999999999999MA1102175093005REMMET09201/05/18 16:53:01 METAR KPMD 060053Z 25009KT 10SM CLR 18/07 A3017 RMK AO2 SLP209 T01830067 $
0187723820231822018010601537+34629-118083FM-15+0787KPMD V0209999C000052200059N0160935N5+01675+00675102175ADDAA101000095GA1005+999999999GD10991+9999999GF100991999999999999999999MA1102245093065REMMET09201/05/18 17:53:01 METAR KPMD 060153Z 00000KT 10SM CLR 17/07 A3019 RMK AO2 SLP217 T01670067 $
0207723820231822018010602537+34629-118083FM-15+0787KPMD V0209999C000052200059N0160935N5+01615+00675102195ADDAA101000095GA1005+999999999GD10991+9999999GF100991999999999999999999MA1102275093095MD1190139+9999REMMET09801/05/18 18:53:02 METAR KPMD 060253Z 00000KT 10SM CLR 16/07 A3020 RMK AO2 SLP219 T01610067 51013 $
0187723820231822018010603537+34629-118083FM-15+0787KPMD V0209999C000052200059N0160935N5+01335+00565102215ADDAA101000095GA1005+999999999GD10991+9999999GF100991999999999999999999MA1102275093095REMMET09201/05/18 19:53:02 METAR KPMD 060353Z 00000KT 10SM CLR 13/06 A3020 RMK AO2 SLP221 T01330056 $
0187723820231822018010604537+34629-118083FM-15+0787KPMD V0201305N002152200059N0160935N5+01225+00565102195ADDAA101000095GA1005+999999999GD10991+9999999GF100991999999999999999999MA1102275093095REMMET09201/05/18 20:53:02 METAR KPMD 060453Z 13004KT 10SM CLR 12/06 A3020 RMK AO2 SLP219 T01220056 $
0245723820231822018010605537+34629-118083FM-15+0787KPMD V0202105N001552200059N0160935N5+01285+00615102255ADDAA101000095GA1005+999999999GD10991+9999999GF100991999999999999999999KA1060M+01941KA2060N+01221MA1102375093185MD1390099+9999REMMET11001/05/18 21:53:02 METAR KPMD 060553Z 21003KT 10SM CLR 13/06 A3023 RMK AO2 SLP225 T01280061 10194 20122 53009 $
0187723820231822018010606537+34629-118083FM-15+0787KPMD V0209999C000052200059N0160935N5+01335+00835102185ADDAA101000095GA1005+999999999GD10991+9999999GF100991999999999999999999MA1102305093125REMMET09201/05/18 22:53:02 METAR KPMD 060653Z 00000KT 10SM CLR 13/08 A3021 RMK AO2 SLP218 T01330083 $
0223723820231822018010607537+34629-118083FM-15+0787KPMD V0202005N003652200059N0160935N5+01225+00895102165ADDAA101000095GA1005+999999999GD10991+9999999GF100991999999999999999999KA1240M+02221KA2240N+00611MA1102305093125REMMET10201/05/18 23:53:02 METAR KPMD 060753Z 20007KT 10SM CLR 12/09 A3021 RMK AO2 SLP216 T01220089 402220061 $
0965723820231822018010607596+34629-118083SOD  +0787KPMD V020999999999999999999999999999+99999+99999999999ADDAA124000095AJ100009599999999AL12400095AN1024000095AT1AU13BR  5AX1015245KA1240M+02225KA2240N+00615MG1093094101934OE11240160923099995OE22240089426099995OE33240020199999995REMSOD78424 HR PRECIPITATION (IN): 0.00 SNOW DEPTH (IN):    0 24 HR SNOWFALL (IN):  0.0WEATHER(CODE): 1  24 HR MAX TEMP (F): 7224 HR MIN TEMP (F): 43AVERAGE STATION PRESSURE:27.490 MINIMUM SEA LEVEL PRESSURE:30.10 TIME OF OCCURRENCE:1436 PEAK WIND SPEED (MPH): 36 PEAK WIND DIR (DEG):230 PEAK WIND TIME (LST):      FASTEST 2MIN SPEED (MPH): 20FASTEST 2MIN DIR (DEG):260 FASTEST 2MIN TIME (LST):     AVERAGE WIND SPEED (MPH): 4.5 24 HR AVG TEMP (F): 58DEPART FROM NORMAL: 14  SKY COVER SR-SS (TENTHS): 0HEATING DEGREE DAYS:  7 COOLING DEGREE DAYS:  0 LATEST DAY MAX TEMP (0700-1900 LST):72  LATEST NIGHT MIN TEMP(1900-0800 LST):43 HOURLY INCREMENTAL PRECIPITATION VALUES (IN):.00 0.00 0.00 0.00 0.00 0.00 0.00 0.00 0.00 0.00 0.00 0.00 0.00 0.00 0.00 0.00 0.00 0.00 0.00 0.00 0.00 0.00 0.00 0.00
0207723820231822018010608537+34629-118083FM-15+0787KPMD V0201805N002152200059N0160935N5+01225+00895102075ADDAA101000095GA1005+999999999GD10991+9999999GF100991999999999999999999MA1102205093035MD1890149+9999REMMET09801/06/18 00:53:02 METAR KPMD 060853Z 18004KT 10SM CLR 12/09 A3018 RMK AO2 SLP207 T01220089 58014 $
0212723820231822018010609537+34629-118083FM-15+0787KPMD V0201305N00365033535MN0160935N5+01175+00835101985ADDAA101000095GA1075+033535999GD13991+0335359GE19AGL   +99999+99999GF199999999999033531999999MA1102135092965REMMET09501/06/18 01:53:02 METAR KPMD 060953Z 13007KT 10SM BKN110 12/08 A3016 RMK AO2 SLP198 T01170083 $
0187723820231822018010610537+34629-118083FM-15+0787KPMD V0202005N003152200059N0160935N5+01115+00835102005ADDAA101000095GA1005+999999999GD10991+9999999GF100991999999999999999999MA1102135092965REMMET09201/06/18 02:53:02 METAR KPMD 061053Z 20006KT 10SM CLR 11/08 A3016 RMK AO2 SLP200 T01110083 $
0245723820231822018010611537+34629-118083FM-15+0787KPMD V0201105N002652200059N0160935N5+01005+00725101965ADDAA101000095GA1005+999999999GD10991+9999999GF100991999999999999999999KA1060M+01331KA2060N+01001MA1102105092935MD1690129+9999REMMET11001/06/18 03:53:02 METAR KPMD 061153Z 11005KT 10SM CLR 10/07 A3015 RMK AO2 SLP196 T01000072 10133 20100 56012 $
0231723820231822018010612537+34629-118083FM-15+0787KPMD V0202705N002652200059N0160935N5+00945+00615101975ADDAA101000095GA1025+030485999GD11991+0304859GE19AGL   +99999+99999GF102995999999030481999999MA1102075092905REMMET09501/06/18 04:53:02 METAR KPMD 061253Z 27005KT 10SM FEW100 09/06 A3014 RMK AO2 SLP197 T00940061 $EQDD01      0ADE726
0187723820231822018010613537+34629-118083FM-15+0787KPMD V0201905N001552200059N0160935N5+01005+00615101975ADDAA101000095GA1005+999999999GD10991+9999999GF100991999999999999999999MA1102075092905REMMET09201/06/18 05:53:02 METAR KPMD 061353Z 19003KT 10SM CLR 10/06 A3014 RMK AO2 SLP197 T01000061 $
0270723820231822018010614537+34629-118083FM-15+0787KPMD V0203005N00265027435MN0160935N5+01115+00505102035ADDAA101000095GA1075+027435999GA2085+036585999GD13991+0274359GD24991+0365859GE19AGL   +99999+99999GF199999999999027431999999MA1102135092965MD1390049+9999REMMET10801/06/18 06:53:02 METAR KPMD 061453Z 30005KT 10SM BKN090 OVC120 11/05 A3016 RMK AO2 SLP203 T01110050 53004 $
0231723820231822018010615537+34629-118083FM-15+0787KPMD V0203205N002652200059N0160935N5+01395+00445102065ADDAA101000095GA1025+030485999GD11991+0304859GE19AGL   +99999+99999GF102995999999030481999999MA1102175093005REMMET09501/06/18 07:53:02 METAR KPMD 061553Z 32005KT 10SM FEW100 14/04 A3017 RMK AO2 SLP206 T01390044 $EQDD01      0ADE726
0187723820231822018010616537+34629-118083FM-15+0787KPMD V0201405N001552200059N0160935N5+01565+00505102065ADDAA101000095GA1005+999999999GD10991+9999999GF100991999999999999999999MA1102175093005REMMET09201/06/18 08:53:02 METAR KPMD 061653Z 14003KT 10SM CLR 16/05 A3017 RMK AO2 SLP206 T01560050 $
0245723820231822018010617537+34629-118083FM-15+0787KPMD V0202905N004152200059N0160935N5+01895+00335102075ADDAA101000095GA1005+999999999GD10991+9999999GF100991999999999999999999KA1060M+01891KA2060N+00891MA1102205093035MD1390079+9999REMMET11001/06/18 09:53:02 METAR KPMD 061753Z 29008KT 10SM CLR 19/03 A3018 RMK AO2 SLP207 T01890033 10189 20089 53007 $
0217723820231822018010618537+34629-118083FM-15+0787KPMD V0202505N008852200059N0160935N5+02175-00065101965ADDAA101000095GA1005+999999999GD10991+9999999GF100991999999999999999999MA1102135092965OC101655REMMET11401/06/18 10:53:02 METAR KPMD 061853Z 25017G32KT 10SM CLR 22/M01 A3016 RMK AO2 PK WND 23032/1847 SLP196 T02171006 $
0216723820231822018010619537+34629-118083FM-15+0787KPMD V0202405N007252200059N0160935N5+02175+00115101835ADDAA101000095GA1005+999999999GD10991+9999999GF100991999999999999999999MA1102005092845OC101705REMMET11301/06/18 11:53:02 METAR KPMD 061953Z 24014G33KT 10SM CLR 22/01 A3012 RMK AO2 PK WND 22033/1951 SLP183 T02170011 $
0236723820231822018010620537+34629-118083FM-15+0787KPMD V0202705N008252200059N0160935N5+02115+00285101785ADDAA101000095GA1005+999999999GD10991+9999999GF100991999999999999999999MA1101935092785MD1690269+9999OC101655REMMET11901/06/18 12:53:02 METAR KPMD 062053Z 27016G32KT 10SM CLR 21/03 A3010 RMK AO2 PK WND 23033/2032 SLP178 T02110028 56026 $
0216723820231822018010621537+34629-118083FM-15+0787KPMD V0202505N010852200059N0160935N5+02065+00615101755ADDAA101000095GA1005+999999999GD10991+9999999GF100991999999999999999999MA1101905092745OC101755REMMET11301/06/18 13:53:02 METAR KPMD 062153Z 25021G34KT 10SM CLR 21/06 A3009 RMK AO2 PK WND 22034/2149 SLP175 T02060061 $
0216723820231822018010622537+34629-118083FM-15+0787KPMD V0202505N009352200059N0160935N5+02005+00725101775ADDAA101000095GA1005+999999999GD10991+9999999GF100991999999999999999999MA1101905092745OC101705REMMET11301/06/18 14:53:02 METAR KPMD 062253Z 25018G33KT 10SM CLR 20/07 A3009 RMK AO2 PK WND 22034/2243 SLP177 T02000072 $
0274723820231822018010623537+34629-118083FM-15+0787KPMD V0202805N008852200059N0160935N5+01895+00725101845ADDAA101000095GA1005+999999999GD10991+9999999GF100991999999999999999999KA1060M+02171KA2060N+01891MA1101965092815MD1390029+9999OC101445REMMET13101/06/18 15:53:02 METAR KPMD 062353Z 28017G28KT 10SM CLR 19/07 A3011 RMK AO2 PK WND 23032/2325 SLP184 T01890072 10217 20189 53002 $
0216723820231822018010700537+34629-118083FM-15+0787KPMD V0203005N008852200059N0160935N5+01675+00835101885ADDAA101000095GA1005+999999999GD10991+9999999GF100991999999999999999999MA1101965092815OC101445REMMET11301/06/18 16:53:01 METAR KPMD 070053Z 30017G28KT 10SM CLR 17/08 A3011 RMK AO2 PK WND 23031/0035 SLP188 T01670083 $
0219723820231822018010701537+34629-118083FM-15+0787KPMD V0202905N009352200059N0160935N5+01565+00945101935ADDAA101000095GA1005+999999999GD10991+9999999GF100991999999999999999999MA1102035092875OD149901491320REMMET11001/06/18 17:53:01 METAR KPMD 070153Z 29018KT 10SM CLR 16/09 A3013 RMK AO2 PK WND 32029/0059 SLP193 T01560094 $
0236723820231822018010702537+34629-118083FM-15+0787KPMD V0202905N009352200059N0160935N5+01505+00945101935ADDAA101000095GA1005+999999999GD10991+9999999GF100991999999999999999999MA1102035092875MD1190079+9999OC101445REMMET11901/06/18 18:53:02 METAR KPMD 070253Z 29018G28KT 10SM CLR 15/09 A3013 RMK AO2 PK WND 31028/0214 SLP193 T01500094 51007 $
0216723820231822018010703537+34629-118083FM-15+0787KPMD V0203005N008252200059N0160935N5+01505+00945101975ADDAA101000095GA1005+999999999GD10991+9999999GF100991999999999999999999MA1102105092935OC101445REMMET11301/06/18 19:53:02 METAR KPMD 070353Z 30016G28KT 10SM CLR 15/09 A3015 RMK AO2 PK WND 31028/0336 SLP197 T01500094 $
0216723820231822018010704537+34629-118083FM-15+0787KPMD V0202905N007752200059N0160935N5+01445+01005102015ADDAA101000095GA1005+999999999GD10991+9999999GF100991999999999999999999MA1102135092965OC101245REMMET11301/06/18 20:53:02 METAR KPMD 070453Z 29015G24KT 10SM CLR 14/10 A3016 RMK AO2 PK WND 32029/0418 SLP201 T01440100 $
0245723820231822018010705537+34629-118083FM-15+0787KPMD V0203005N006752200059N0160935N5+01395+01005102015ADDAA101000095GA1005+999999999GD10991+9999999GF100991999999999999999999KA1060M+01891KA2060N+01391MA1102175093005MD1190129+9999REMMET11001/06/18 21:53:02 METAR KPMD 070553Z 30013KT 10SM CLR 14/10 A3017 RMK AO2 SLP201 T01390100 10189 20139 51012 $
0187723820231822018010706537+34629-118083FM-15+0787KPMD V0202705N005152200059N0160935N5+01395+00945101955ADDAA101000095GA1005+999999999GD10991+9999999GF100991999999999999999999MA1102135092965REMMET09201/06/18 22:53:02 METAR KPMD 070653Z 27010KT 10SM CLR 14/09 A3016 RMK AO2 SLP195 T01390094 $
0223723820231822018010707537+34629-118083FM-15+0787KPMD V0202605N003152200059N0160935N5+01285+00895101925ADDAA101000095GA1005+999999999GD10991+9999999GF100991999999999999999999KA1240M+02171KA2240N+00891MA1102105092935REMMET10201/06/18 23:53:02 METAR KPMD 070753Z 26006KT 10SM CLR 13/09 A3015 RMK AO2 SLP192 T01280089 402170089 $
0926723820231822018010707596+34629-118083SOD  +0787KPMD V020999999999999999999999999999+99999+99999999999ADDAA124000095AJ100009599999999AL12400095AN1024000095KA1240M+02175KA2240N+00895MG1092924101734OE11240174322099995OE22240116226099995OE33240057299999995REMSOD76624 HR PRECIPITATION (IN): 0.00 SNOW DEPTH (IN):    0 24 HR SNOWFALL (IN):  0.024 HR MAX TEMP (F): 7124 HR MIN TEMP (F): 48AVERAGE STATION PRESSURE:27.440 MINIMUM SEA LEVEL PRESSURE:30.04 TIME OF OCCURRENCE:1437 PEAK WIND SPEED (MPH): 39 PEAK WIND DIR (DEG):220 PEAK WIND TIME (LST):      FASTEST 2MIN SPEED (MPH): 26FASTEST 2MIN DIR (DEG):260 FASTEST 2MIN TIME (LST):     AVERAGE WIND SPEED (MPH):12.8 24 HR AVG TEMP (F): 60DEPART FROM NORMAL: 16  SKY COVER SR-SS (TENTHS): 1HEATING DEGREE DAYS:  5 COOLING DEGREE DAYS:  0 LATEST DAY MAX TEMP (0700-1900 LST):71  LATEST NIGHT MIN TEMP(1900-0800 LST):48 HOURLY INCREMENTAL PRECIPITATION VALUES (IN):.00 0.00 0.00 0.00 0.00 0.00 0.00 0.00 0.00 0.00 0.00 0.00 0.00 0.00 0.00 0.00 0.00 0.00 0.00 0.00 0.00 0.00 0.00 0.00
0207723820231822018010708537+34629-118083FM-15+0787KPMD V0201705N001552200059N0160935N5+01175+00835101925ADDAA101000095GA1005+999999999GD10991+9999999GF100991999999999999999999MA1102075092905MD1690089+9999REMMET09801/07/18 00:53:02 METAR KPMD 070853Z 17003KT 10SM CLR 12/08 A3014 RMK AO2 SLP192 T01170083 56008 $
0192723820231822018010709537+34629-118083FM-15+0787KPMD V0209999C000052200059N0160935N5+00835+00675101985ADDAA101000095GA1005+999999999GD10991+9999999GF100991999999999999999999MA1102105092935REMMET09701/07/18 01:53:02 METAR KPMD 070953Z 00000KT 10SM CLR 08/07 A3015 RMK AO2 SLP198 T00830067 TSNO $
0187723820231822018010710537+34629-118083FM-15+0787KPMD V0201705N003152200059N0160935N5+00675+00565101995ADDAA101000095GA1005+999999999GD10991+9999999GF100991999999999999999999MA1102105092935REMMET09201/07/18 02:53:02 METAR KPMD 071053Z 17006KT 10SM CLR 07/06 A3015 RMK AO2 SLP199 T00670056 $
0245723820231822018010711537+34629-118083FM-15+0787KPMD V0201805N002152200059N0160935N5+00615+00505102015ADDAA101000095GA1005+999999999GD10991+9999999GF100991999999999999999999KA1060M+01391KA2060N+00611MA1102105092935MD1190029+9999REMMET11001/07/18 03:53:02 METAR KPMD 071153Z 18004KT 10SM CLR 06/05 A3015 RMK AO2 SLP201 T00610050 10139 20061 51002 $
0187723820231822018010712537+34629-118083FM-15+0787KPMD V0202005N002652200059N0160935N5+00565+00445102025ADDAA101000095GA1005+999999999GD10991+9999999GF100991999999999999999999MA1102105092935REMMET09201/07/18 04:53:02 METAR KPMD 071253Z 20005KT 10SM CLR 06/04 A3015 RMK AO2 SLP202 T00560044 $
0187723820231822018010713537+34629-118083FM-15+0787KPMD V0201605N001552200059N0160935N5+00445+00335102105ADDAA101000095GA1005+999999999GD10991+9999999GF100991999999999999999999MA1102135092965REMMET09201/07/18 05:53:02 METAR KPMD 071353Z 16003KT 10SM CLR 04/03 A3016 RMK AO2 SLP210 T00440033 $
0207723820231822018010714537+34629-118083FM-15+0787KPMD V0209999N999992200059N0160935N5+00445+00335102125ADDAA101000095GA1005+999999999GD10991+9999999GF100991999999999999999999MA1102175093005MD1390069+9999REMMET09801/07/18 06:53:02 METAR KPMD 071453Z      KT 10SM CLR 04/03 A3017 RMK AO2 SLP212 T00440033 53006 $
0185723820231822018010715537+34629-118083FM-15+0787KPMD V0209999N999992200059N0160935N5+00505+00395102205ADDAA101000095GA1005+999999999GD10991+9999999GF100991999999999999999999MA1102245093065REMMET09001/07/18 07:53:02 METAR KPMD 071553Z      KT 10SM CLR 05/04 A3019 RMK AO2 SLP220 T00500039
0184723820231822018010716537+34629-118083FM-15+0787KPMD V0203605N002652200059N0144845N5+00835+00615102215ADDAA101000095GA1005+999999999GD10991+9999999GF100991999999999999999999MA1102275093095REMMET08901/07/18 08:53:02 METAR KPMD 071653Z 36005KT 9SM CLR 08/06 A3020 RMK AO2 SLP221 T00830061
0242723820231822018010717537+34629-118083FM-15+0787KPMD V0209999C000052200059N0144845N5+01065+00725102225ADDAA101000095GA1005+999999999GD10991+9999999GF100991999999999999999999KA1060M+01061KA2060N+00331MA1102305093125MD1190129+9999REMMET10701/07/18 09:53:02 METAR KPMD 071753Z 00000KT 9SM CLR 11/07 A3021 RMK AO2 SLP222 T01060072 10106 20033 51012
0185723820231822018010718537+34629-118083FM-15+0787KPMD V0209999C000052200059N0160935N5+01225+00785102165ADDAA101000095GA1005+999999999GD10991+9999999GF100991999999999999999999MA1102245093065REMMET09001/07/18 10:53:02 METAR KPMD 071853Z 00000KT 10SM CLR 12/08 A3019 RMK AO2 SLP216 T01220078
0185723820231822018010719537+34629-118083FM-15+0787KPMD V0209999V002652200059N0160935N5+01505+00785102055ADDAA101000095GA1005+999999999GD10991+9999999GF100991999999999999999999MA1102175093005REMMET09001/07/18 11:53:02 METAR KPMD 071953Z VRB05KT 10SM CLR 15/08 A3017 RMK AO2 SLP205 T01500078
0205723820231822018010720537+34629-118083FM-15+0787KPMD V0209999V002152200059N0160935N5+01785+00565101915ADDAA101000095GA1005+999999999GD10991+9999999GF100991999999999999999999MA1102035092875MD1890249+9999REMMET09601/07/18 12:53:02 METAR KPMD 072053Z VRB04KT 10SM CLR 18/06 A3013 RMK AO2 SLP191 T01780056 58024
0185723820231822018010721537+34629-118083FM-15+0787KPMD V0200405N002152200059N0160935N5+01785+00445101855ADDAA101000095GA1005+999999999GD10991+9999999GF100991999999999999999999MA1101935092785REMMET09001/07/18 13:53:02 METAR KPMD 072153Z 04004KT 10SM CLR 18/04 A3010 RMK AO2 SLP185 T01780044
0185723820231822018010722537+34629-118083FM-15+0787KPMD V0200305N002652200059N0160935N5+01895+00335101815ADDAA101000095GA1005+999999999GD10991+9999999GF100991999999999999999999MA1101905092745REMMET09001/07/18 14:53:02 METAR KPMD 072253Z 03005KT 10SM CLR 19/03 A3009 RMK AO2 SLP181 T01890033
0243723820231822018010723537+34629-118083FM-15+0787KPMD V0203605N003152200059N0160935N5+01835+00225101795ADDAA101000095GA1005+999999999GD10991+9999999GF100991999999999999999999KA1060M+01941KA2060N+01061MA1101865092715MD1690159+9999REMMET10801/07/18 15:53:02 METAR KPMD 072353Z 36006KT 10SM CLR 18/02 A3008 RMK AO2 SLP179 T01830022 10194 20106 56015
0185723820231822018010800537+34629-118083FM-15+0787KPMD V0203405N002652200059N0160935N5+01675+00225101805ADDAA101000095GA1005+999999999GD10991+9999999GF100991999999999999999999MA1101865092715REMMET09001/07/18 16:53:01 METAR KPMD 080053Z 34005KT 10SM CLR 17/02 A3008 RMK AO2 SLP180 T01670022
0185723820231822018010801537+34629-118083FM-15+0787KPMD V0203205N002152200059N0160935N5+01285+00175101885ADDAA101000095GA1005+999999999GD10991+9999999GF100991999999999999999999MA1101905092745REMMET09001/07/18 17:53:01 METAR KPMD 080153Z 32004KT 10SM CLR 13/02 A3009 RMK AO2 SLP188 T01280017
0205723820231822018010802537+34629-118083FM-15+0787KPMD V0202805N002152200059N0160935N5+01335+00175101895ADDAA101000095GA1005+999999999GD10991+9999999GF100991999999999999999999MA1101935092785MD1390049+9999REMMET09601/07/18 18:53:02 METAR KPMD 080253Z 28004KT 10SM CLR 13/02 A3010 RMK AO2 SLP189 T01330017 53004
0185723820231822018010803537+34629-118083FM-15+0787KPMD V0202705N002652200059N0160935N5+01285+00225101895ADDAA101000095GA1005+999999999GD10991+9999999GF100991999999999999999999MA1101935092785REMMET09001/07/18 19:53:02 METAR KPMD 080353Z 27005KT 10SM CLR 13/02 A3010 RMK AO2 SLP189 T01280022
0185723820231822018010804537+34629-118083FM-15+0787KPMD V0202805N001552200059N0160935N5+01335+00225101875ADDAA101000095GA1005+999999999GD10991+9999999GF100991999999999999999999MA1101935092785REMMET09001/07/18 20:53:02 METAR KPMD 080453Z 28003KT 10SM CLR 13/02 A3010 RMK AO2 SLP187 T01330022
0243723820231822018010805537+34629-118083FM-15+0787KPMD V0202605N002152200059N0160935N5+01225+00225101855ADDAA101000095GA1005+999999999GD10991+9999999GF100991999999999999999999KA1060M+01831KA2060N+01221MA1101935092785MD1090019+9999REMMET10801/07/18 21:53:02 METAR KPMD 080553Z 26004KT 10SM CLR 12/02 A3010 RMK AO2 SLP185 T01220022 10183 20122 50001
0185723820231822018010806537+34629-118083FM-15+0787KPMD V0209999C000052200059N0160935N5+01175+00175101805ADDAA101000095GA1005+999999999GD10991+9999999GF100991999999999999999999MA1101905092745REMMET09001/07/18 22:53:02 METAR KPMD 080653Z 00000KT 10SM CLR 12/02 A3009 RMK AO2 SLP180 T01170017
0265723820231822018010807537+34629-118083FM-15+0787KPMD V0202005N002152200059N0160935N5+01175+00225101745ADDAA101000095GA1045+033535999GD12991+0335359GE19AGL   +99999+99999GF104995999999033531999999KA1240M+01941KA2240N+00331MA1101835092685REMMET10301/07/18 23:53:02 METAR KPMD 080753Z 20004KT 10SM SCT110 12/02 A3007 RMK AO2 SLP174 T01170022 401940033EQDD01      0ADE726
0926723820231822018010807596+34629-118083SOD  +0787KPMD V020999999999999999999999999999+99999+99999999999ADDAA124000095AJ100009599999999AL12400095AN1024000095KA1240M+01945KA2240N+00335MG1092874101734OE11240093933099995OE22240058131099995OE33240018399999995REMSOD76624 HR PRECIPITATION (IN): 0.00 SNOW DEPTH (IN):    0 24 HR SNOWFALL (IN):  0.024 HR MAX TEMP (F): 6724 HR MIN TEMP (F): 38AVERAGE STATION PRESSURE:27.425 MINIMUM SEA LEVEL PRESSURE:30.04 TIME OF OCCURRENCE:2359 PEAK WIND SPEED (MPH): 21 PEAK WIND DIR (DEG):330 PEAK WIND TIME (LST):      FASTEST 2MIN SPEED (MPH): 13FASTEST 2MIN DIR (DEG):310 FASTEST 2MIN TIME (LST):     AVERAGE WIND SPEED (MPH): 4.1 24 HR AVG TEMP (F): 53DEPART FROM NORMAL:  9  SKY COVER SR-SS (TENTHS): 0HEATING DEGREE DAYS: 12 COOLING DEGREE DAYS:  0 LATEST DAY MAX TEMP (0700-1900 LST):67  LATEST NIGHT MIN TEMP(1900-0800 LST):38 HOURLY INCREMENTAL PRECIPITATION VALUES (IN):.00 0.00 0.00 0.00 0.00 0.00 0.00 0.00 0.00 0.00 0.00 0.00 0.00 0.00 0.00 0.00 0.00 0.00 0.00 0.00 0.00 0.00 0.00 0.00
0230723820231822018010808537+34629-118083FM-15+0787KPMD V0202705N00215030485MN0160935N5+01175+00225101685ADDAA101000095GA1085+030485999GD14991+0304859GE19AGL   +99999+99999GF199999999999030481999999MA1101835092685MD1690109+9999REMMET09901/08/18 00:53:02 METAR KPMD 080853Z 27004KT 10SM OVC100 12/02 A3007 RMK AO2 SLP168 T01170022 56010
0210723820231822018010809537+34629-118083FM-15+0787KPMD V0202905N00215024385MN0160935N5+01175+00285101695ADDAA101000095GA1085+024385999GD14991+0243859GE19AGL   +99999+99999GF199999999999024381999999MA1101835092685REMMET09301/08/18 01:53:02 METAR KPMD 080953Z 29004KT 10SM OVC080 12/03 A3007 RMK AO2 SLP169 T01170028
0210723820231822018010810537+34629-118083FM-15+0787KPMD V0209999C00005028965MN0160935N5+01175+00285101615ADDAA101000095GA1085+028965999GD14991+0289659GE19AGL   +99999+99999GF199999999999028961999999MA1101765092625REMMET09301/08/18 02:53:02 METAR KPMD 081053Z 00000KT 10SM OVC095 12/03 A3005 RMK AO2 SLP161 T01170028
0268723820231822018010811537+34629-118083FM-15+0787KPMD V0209999C00005025915MN0160935N5+01065+00285101545ADDAA101000095GA1085+025915999GD14991+0259159GE19AGL   +99999+99999GF199999999999025911999999KA1060M+01281KA2060N+01061MA1101665092535MD1890139+9999REMMET11101/08/18 03:53:02 METAR KPMD 081153Z 00000KT 10SM OVC085 11/03 A3002 RMK AO2 SLP154 T01060028 10128 20106 58013
0263723820231822018010812537+34629-118083FM-15+0787KPMD V0202905N00155019815MN0160935N5+01065+00675101555ADDAA101000025GA1075+019815999GA2085+024385999GD13991+0198159GD24991+0243859GE19AGL   +99999+99999GF199999999999019811999999MA1101665092535REMMET11501/08/18 04:53:02 METAR KPMD 081253Z 29003KT 10SM BKN065 OVC080 11/07 A3002 RMK AO2 RAB09E48 SLP155 P0000 T01060067
0286723820231822018010813537+34629-118083FM-15+0787KPMD V0202705N00155021345MN0160935N5+01065+00835101605ADDAA101000025GA1025+016765999GA2075+021345999GA3085+025915999GD11991+0167659GD23991+0213459GD34991+0259159GE19AGL   +99999+99999GF199999999999016761999999MA1101695092565REMMET10701/08/18 05:53:02 METAR KPMD 081353Z 27003KT 10SM FEW055 BKN070 OVC085 11/08 A3003 RMK AO2 SLP160 T01060083
0338723820231822018010814537+34629-118083FM-15+0787KPMD V0203105N00265014335MN0144845N5+01005+00725101645ADDAA101000395AA203000391AU110020015AW1615GA1075+014335999GA2085+025915999GD13991+0143359GD24991+0259159GE19AGL   +99999+99999GF199999999999014331999999MA1101735092595MD1390049+9999REMMET12901/08/18 06:53:02 METAR KPMD 081453Z 31005KT 9SM -RA BKN047 OVC085 10/07 A3004 RMK AO2 RAB1359 SLP164 P0001 60001 T01000072 53004EQDQ01  00028PRCP03
0313723820231822018010815537+34629-118083FM-15+0787KPMD V0209999C00005024385MN0160935N5+01005+00835101695ADDAA101000395AU110020015AW1615GA1045+013415999GA2075+024385999GA3085+030485999GD12991+0134159GD23991+0243859GD34991+0304859GE19AGL   +99999+99999GF199999999999013411999999MA1101765092625REMMET11701/08/18 07:53:02 METAR KPMD 081553Z 00000KT 10SM -RA SCT044 BKN080 OVC100 10/08 A3005 RMK AO2 SLP169 P0001 T01000083
0076723820231822018010816424+34629-118085FM-15+077599999V0209999C000019999999N016093199+01001+00701999999ADDMA1101791999999REMMET049METAR KPMD 081642Z AUTO 00000KT 10SM 10/07 A3006=
0306723820231822018010816537+34629-118083FM-15+0787KPMD V0209999C00005016765MN0160935N5+01065+00675101725ADDAA101000025GA1075+016765999GA2075+027435999GA3085+033535999GD13991+0167659GD23991+0274359GD34991+0335359GE19AGL   +99999+99999GF199999999999016761999999MA1101795092655REMMET12701/08/18 08:53:02 METAR KPMD 081653Z 00000KT 10SM BKN055 BKN090 OVC110 11/07 A3006 RMK AO2 RAE1555B20E38 SLP172 P0000 T01060067
0414723820231822018010817537+34629-118083FM-15+0787KPMD V0209999N99999018295MN0144845N5+01065+00785101745ADDAA101000025AA206000591AU110020015AW1615GA1045+014635999GA2075+018295999GA3085+022865999GD12991+0146359GD23991+0182959GD34991+0228659GE19AGL   +99999+99999GF199999999999014631999999KA1060M+01061KA2060N+01001MA1101795092655MD1190099+9999REMMET14801/08/18 09:53:02 METAR KPMD 081753Z      KT 9SM -RA SCT048 BKN060 OVC075 11/08 A3006 RMK AO2 RAB1659 SLP174 P0000 60002 T01060078 10106 20100 51009EQDQ01  00058PRCP06
0260723820231822018010818537+34629-118083FM-15+0787KPMD V0203205N00315021345MN0160935N5+01065+00785101685ADDAA101000395GA1045+018295999GA2085+021345999GD12991+0182959GD24991+0213459GE19AGL   +99999+99999GF199999999999018291999999MA1101765092625REMMET11201/08/18 10:53:02 METAR KPMD 081853Z 32006KT 10SM SCT060 OVC070 11/08 A3005 RMK AO2 RAE41 SLP168 P0001 T01060078
0265723820231822018010819537+34629-118083FM-15+0787KPMD V0209999C00005015245MN0160935N5+01115+00835101515ADDAA101000025GA1075+015245999GA2085+021345999GD13991+0152459GD24991+0213459GE19AGL   +99999+99999GF199999999999015241999999MA1101595092465REMMET11701/08/18 11:53:02 METAR KPMD 081953Z 00000KT 10SM BKN050 OVC070 11/08 A3000 RMK AO2 RAB1858E15 SLP151 P0000 T01110083
0336723820231822018010820537+34629-118083FM-15+0787KPMD V0203505N00155014335MN0112655N5+01115+00835101415ADDAA101000025AA203000391AU110020015AW1615GA1025+005185999GA2085+014335999GD11991+0051859GD24991+0143359GE19AGL   +99999+99999GF199999999999005181999999MA1101495092375MD1890309+9999REMMET12701/08/18 12:53:02 METAR KPMD 082053Z 35003KT 7SM -RA FEW017 OVC047 11/08 A2997 RMK AO2 RAB37 SLP141 P0000 60001 T01110083 58030EQDQ01  00028PRCP03
0274723820231822018010821537+34629-118083FM-15+0787KPMD V0209999C00005013415MN0128755N5+01115+00895101385ADDAA101000595AU110020015AW1615GA1025+006105999GA2085+013415999GD11991+0061059GD24991+0134159GE19AGL   +99999+99999GF199999999999006101999999MA1101465092345REMMET10901/08/18 13:53:02 METAR KPMD 082153Z 00000KT 8SM -RA FEW020 OVC044 11/09 A2996 RMK AO2 SLP138 P0002 T01110089
0332723820231822018010822537+34629-118083FM-15+0787KPMD V0202705N00265022865MN0080475N5+01065+01005101405ADDAA101001895AU110020015AU200001015AW1105AW2615GA1025+012195999GA2045+016765999GA3085+022865999GD11991+0121959GD22991+0167659GD34991+0228659GE19AGL   +99999+99999GF199999999999012191999999MA1101465092345REMMET11901/08/18 14:53:02 METAR KPMD 082253Z 27005KT 5SM -RA BR FEW040 SCT055 OVC075 11/10 A2996 RMK AO2 SLP140 P0007 T01060100
0388723820231822018010823537+34629-118083FM-15+0787KPMD V0203305N00215018295MN0096565N5+01005+01005101335ADDAA101001095AA206003691AU110020015AU200001015AW1105AW2615GA1075+018295999GA2085+027435999GD13991+0182959GD24991+0274359GE19AGL   +99999+99999GF199999999999018291999999KA1060M+01171KA2060N+01001MA1101395092275MD1890099+9999REMMET13601/08/18 15:53:02 METAR KPMD 082353Z 33004KT 6SM -RA BR BKN060 OVC090 10/10 A2994 RMK AO2 SLP133 P0004 60014 T01000100 10117 20100 58009EQDQ01  00358PRCP06
0325723820231822018010900017+34629-118083FM-16+0787KPMD V0209999C00005018295MN0080475N5+01005+01005999999ADDAA101000021AU110020015AU200001015AW1105AW2615GA1025+001225999GA2075+018295999GA3085+027435999GD11991+0012259GD23991+0182959GD34991+0274359GE19AGL   +99999+99999GF199999999999001221999999MA1101395092275REMMET11201/08/18 16:01:01 SPECI KPMD 090001Z 00000KT 5SM -RA BR FEW004 BKN060 OVC090 10/10 A2994 RMK AO2 P0000 T01000100
0287723820231822018010900147+34629-118083FM-16+0787KPMD V0209999C00005001835MN0080475N5+01005+00945999999ADDAA101000021AU110020015AU200001015AW1105AW2615GA1075+001835999GA2085+018295999GD13991+0018359GD24991+0182959GE19AGL   +99999+99999GF199999999999001831999999MA1101395092275REMMET10501/08/18 16:14:01 SPECI KPMD 090014Z 00000KT 5SM -RA BR BKN006 OVC060 10/09 A2994 RMK AO2 P0000 T01000094
0267723820231822018010900537+34629-118083FM-15+0787KPMD V0209999C00005001525MN0064375N5+01005+01005101365ADDAA101002395AU120020015AU200001015AW1105AW2625GA1085+001525999GD14991+0015251GE19AGL   +99999+99999GF199999999999001521999999MA1101425092315REMMET11601/08/18 16:53:01 METAR KPMD 090053Z 00000KT 4SM RA BR OVC005 10/10 A2995 RMK AO2 CIG 004V009 SLP136 P0007 T01000100
0293723820231822018010901537+34629-118083FM-15+0787KPMD V0209999C00005002135MN0096565N5+01005+01005101305ADDAA101002595AU120020015AU200001015AW1105AW2625GA1075+002135999GA2085+011895999GD13991+0021359GD24991+0118959GE19AGL   +99999+99999GF199999999999002131999999MA1101355092245REMMET11101/08/18 17:53:01 METAR KPMD 090153Z 00000KT 6SM RA BR BKN007 OVC039 10/10 A2993 RMK AO2 SLP130 P0011 T01000100
0294723820231822018010902067+34629-118083FM-16+0787KPMD V0200705N00365012805MN0080475N5+01005+01005999999ADDAA101000531AU110020015AU200001015AW1105AW2615GA1045+002445999GA2085+012805999GD12991+0024459GD24991+0128059GE19AGL   +99999+99999GF199999999999002441999999MA1101295092185REMMET11201/08/18 18:06:01 SPECI KPMD 090206Z 07007KT 5SM -RA BR SCT008 OVC042 10/10 A2991 RMK AO2 PRESFR P0002 T01000100
0306723820231822018010902277+34629-118083FM-16+0787KPMD V0209999C00005001835MN0160935N5+01005+01005999999ADDAA101000531AU110020015AW1615GA1075+001835999GA2075+010675999GA3085+014025999GD13991+0018359GD23991+0106759GD34991+0140259GE19AGL   +99999+99999GF199999999999001831999999MA1101325092215REMMET11001/08/18 18:27:01 SPECI KPMD 090227Z 00000KT 10SM -RA BKN006 BKN035 OVC046 10/10 A2992 RMK AO2 P0002 T01000100
0189723820231822018010902516+34629-118083FM-16+0787KPMD V0200405N00155003355MN0160935N5+01005+00905999999ADDGA1045+001835999GA2075+003355999GD12991+0018359GD23991+0033559MA1101295092185REMMET10001/08/18 18:51:03 SPECI KPMD 090251Z 04003KT 10SM SCT006 BKN011 10/09 A2991 RMK AO2 RAE31 P0002 FIBI
0316723820231822018010902537+34629-118083FM-15+0787KPMD V0209999C00005003355MN0160935N5+01005+00945101245ADDAA101000395AA203005191GA1045+001835999GA2075+003355999GD12991+0018359GD23991+0033559GE19AGL   +99999+99999GF199999999999001831999999MA1101295092185MD1890099+9999REMMET12401/08/18 18:53:02 METAR KPMD 090253Z 00000KT 10SM SCT006 BKN011 10/09 A2991 RMK AO2 RAE31 SLP124 P0002 60020 T01000094 58009EQDQ01  00508PRCP03
0230723820231822018010903047+34629-118083FM-16+0787KPMD V0203505N00155013415MN0160935N5+01005+01005999999ADDGA1045+003355999GA2075+013415999GD12991+0033559GD23991+0134159GE19AGL   +99999+99999GF199999999999003351999999MA1101295092185REMMET09301/08/18 19:04:02 SPECI KPMD 090304Z 35003KT 10SM SCT011 BKN044 10/10 A2991 RMK AO2 T01000100
0230723820231822018010903227+34629-118083FM-16+0787KPMD V0203305N00155014025MN0160935N5+00945+00945999999ADDGA1045+001525999GA2085+014025999GD12991+0015259GD24991+0140259GE19AGL   +99999+99999GF199999999999001521999999MA1101295092185REMMET09301/08/18 19:22:02 SPECI KPMD 090322Z 33003KT 10SM SCT005 OVC046 09/09 A2991 RMK AO2 T00940094
0229723820231822018010903317+34629-118083FM-16+0787KPMD V0203605N00215001525MN0144845N5+01005+01005999999ADDGA1075+001525999GA2085+014025999GD13991+0015259GD24991+0140259GE19AGL   +99999+99999GF199999999999001521999999MA1101255092155REMMET09201/08/18 19:31:02 SPECI KPMD 090331Z 36004KT 9SM BKN005 OVC046 10/10 A2990 RMK AO2 T01000100
0209723820231822018010903537+34629-118083FM-15+0787KPMD V0203605N00265001525MN0144845N5+01005+01005101215ADDAA101000095GA1085+001525999GD14991+0015259GE19AGL   +99999+99999GF199999999999001521999999MA1101255092155REMMET09201/08/18 19:53:02 METAR KPMD 090353Z 36005KT 9SM OVC005 10/10 A2990 RMK AO2 SLP121 T01000100
0192723820231822018010904187+34629-118083FM-16+0787KPMD V0209999C00005001225MN0160935N5+01005+01005999999ADDGA1085+001225999GD14991+0012259GE19AGL   +99999+99999GF199999999999001221999999MA1101295092185REMMET08601/08/18 20:18:02 SPECI KPMD 090418Z 00000KT 10SM OVC004 10/10 A2991 RMK AO2 T01000100
0248723820231822018010904357+34629-118083FM-16+0787KPMD V0200405N00215001835MN0160935N5+01005+00945999999ADDAA101000021AU110020015AW1615GA1085+001835999GD14991+0018351GE19AGL   +99999+99999GF199999999999001831999999MA1101255092155REMMET11401/08/18 20:35:02 SPECI KPMD 090435Z 04004KT 10SM -RA OVC006 10/09 A2990 RMK AO2 RAB27 CIG 004V007 P0000 T01000094
0229723820231822018010904516+34629-118083FM-16+0787KPMD V0200405N00155003665MN0144845N5+00905+00905999999ADDGA1045+001835999GA2075+003665999GA3085+016765999GD12991+0018359GD23991+0036659GD34991+0167659MA1101195092095REMMET10901/08/18 20:51:03 SPECI KPMD 090451Z 04003KT 9SM SCT006 BKN012 OVC055 09/09 A2988 RMK AO2 RAB27E36 P0000 FIBI
0300723820231822018010904537+34629-118083FM-15+0787KPMD V0200405N00155003665MN0144845N5+00945+00945101135ADDAA101000025GA1045+001835999GA2075+003665999GA3075+016765999GD12991+0018359GD23991+0036659GD33991+0167659GE19AGL   +99999+99999GF199999999999001831999999MA1101195092095REMMET12101/08/18 20:53:02 METAR KPMD 090453Z 04003KT 9SM SCT006 BKN012 BKN055 09/09 A2988 RMK AO2 RAB27E36 SLP113 P0000 T00940094
0241723820231822018010905127+34629-118083FM-16+0787KPMD V0203205N00215001525MN0112655N5+00945+00945999999ADDGA1075+001525999GA2085+016765999GD13991+0015251GD24991+0167659GE19AGL   +99999+99999GF199999999999001521999999MA1101225092125REMMET10401/08/18 21:12:02 SPECI KPMD 090512Z 32004KT 7SM BKN005 OVC055 09/09 A2989 RMK AO2 CIG 003V011 T00940094
0284723820231822018010905537+34629-118083FM-15+0787KPMD V0209999C00005002135MN0144845N5+00945+00945101125ADDAA101000095AA206005191GA1085+002135999GD14991+0021359GE19AGL   +99999+99999GF199999999999002131999999KA1060M+01001KA2060N+00941MA1101195092095MD1690119+9999REMMET11601/08/18 21:53:02 METAR KPMD 090553Z 00000KT 9SM OVC007 09/09 A2988 RMK AO2 SLP112 60020 T00940094 10100 20094 56011
0248723820231822018010906267+34629-118083FM-16+0787KPMD V0200905N001552200059N0144845N5+00895+00895999999ADDGA1045+002745999GA2045+014635999GD12991+0027459GD22991+0146359GE19AGL   +99999+99999GF104995999999002741999999MA1101155092055REMMET09201/08/18 22:26:02 SPECI KPMD 090626Z 09003KT 9SM SCT009 SCT048 09/09 A2987 RMK AO2 T00890089EQDD01      0ADE726
0184723820231822018010906537+34629-118083FM-15+0787KPMD V0202805N001552200059N0112655N5+00895+00895101045ADDAA101000095GA1005+999999999GD10991+9999999GF100991999999999999999999MA1101085091995REMMET08901/08/18 22:53:02 METAR KPMD 090653Z 28003KT 7SM CLR 09/09 A2985 RMK AO2 SLP104 T00890089
0354723820231822018010907537+34629-118083FM-15+0787KPMD V0200105N00155016765MN0128755N5+00895+00835100935ADDAA101000025AU110020015AW1615GA1045+014635999GA2075+016765999GA3085+027435999GD12991+0146359GD23991+0167659GD34991+0274359GE19AGL   +99999+99999GF199999999999014631999999KA1240M+01221KA2240N+00891MA1100985091905REMMET13201/08/18 23:53:02 METAR KPMD 090753Z 01003KT 8SM -RA SCT048 BKN055 OVC090 09/08 A2982 RMK AO2 RAB49 SLP093 P0000 T00890083 401220089
0926723820231822018010907596+34629-118083SOD  +0787KPMD V020999999999999999999999999999+99999+99999999999ADDAA124009195AJ100009599999999AT1AU16RA  5AT2AU13BR  5AX1015245KA1240M+01225KA2240N+00895MG1092384100914OE11240062604099995OE22240035830099995OE33240011699999995REMSOD75524 HR PRECIPITATION (IN): 0.36 SNOW DEPTH (IN):    0WEATHER(CODE): 1  24 HR MAX TEMP (F): 5424 HR MIN TEMP (F): 48AVERAGE STATION PRESSURE:27.280 MINIMUM SEA LEVEL PRESSURE:29.80 TIME OF OCCURRENCE:2359 PEAK WIND SPEED (MPH): 14 PEAK WIND DIR (DEG): 40 PEAK WIND TIME (LST):      FASTEST 2MIN SPEED (MPH):  8FASTEST 2MIN DIR (DEG):300 FASTEST 2MIN TIME (LST):     AVERAGE WIND SPEED (MPH): 2.6 24 HR AVG TEMP (F): 51DEPART FROM NORMAL:  7  SKY COVER SR-SS (TENTHS): 9HEATING DEGREE DAYS: 14 COOLING DEGREE DAYS:  0 LATEST DAY MAX TEMP (0700-1900 LST):53  LATEST NIGHT MIN TEMP(1900-0800 LST):50 HOURLY INCREMENTAL PRECIPITATION VALUES (IN):.00 0.00 0.00 0.00 T    T    0.01 0.01 T    T    0.01 T    T    0.02 0.07 0.04 0.09 0.10 0.01 0.00 T    0.00 0.00 T
0353723820231822018010908537+34629-118083FM-15+0787KPMD V0209999N99999028965MN0144845N5+00835+00835100795ADDAA101000025AA203000021GA1045+013415999GA2045+024385999GA3075+028965999GD12991+0134159GD22991+0243859GD33991+0289659GE19AGL   +99999+99999GF199999999999013411999999MA1100855091775MD1890299+9999REMMET13001/09/18 00:53:02 METAR KPMD 090853Z      KT 9SM SCT044 SCT080 BKN095 08/08 A2978 RMK AO2 RAE18 SLP079 P0000 60000 T00830083 58029EQDQ01  00008PRCP03
0300723820231822018010909537+34629-118083FM-15+0787KPMD V0201905N00155019815MN0144845N5+00835+00785100765ADDAA101000025GA1025+011585999GA2045+015245999GA3075+019815999GD11991+0115859GD22991+0152459GD33991+0198159GE19AGL   +99999+99999GF199999999999011581999999MA1100815091745REMMET12101/09/18 01:53:02 METAR KPMD 090953Z 19003KT 9SM FEW038 SCT050 BKN065 08/08 A2977 RMK AO2 RAB21E53 SLP076 P0000 T00830078
0267723820231822018010910537+34629-118083FM-15+0787KPMD V0209999C00005028965MN0080475N5+00785+00785100675ADDAA101000095AU100001015AW1105GA1025+022865999GA2075+028965999GD11991+0228659GD23991+0289659GE19AGL   +99999+99999GF199999999999022861999999MA1100755091685REMMET10201/09/18 02:53:02 METAR KPMD 091053Z 00000KT 5SM BR FEW075 BKN095 08/08 A2975 RMK AO2 SLP067 T00780078
0268723820231822018010911317+34629-118083FM-16+0787KPMD V0209999N999992200059N0032195N5+00675+00675999999ADDAU100001015AW1105GA1025+015245999GA2025+019815999GD11991+0152459GD21991+0198159GE19AGL   +99999+99999GF102995999999015241999999MA1100585091525REMMET09501/09/18 03:31:02 SPECI KPMD 091131Z      KT 2SM BR FEW050 FEW065 07/07 A2970 RMK AO2 T00670067EQDD01      0ADE726
0281723820231822018010911407+34629-118083FM-16+0787KPMD V0200905N002652200059N0012075N5+00675+00675999999ADDAU100001015AW1105GA1025+001525999GA2045+007925999GD11991+0015259GD22991+0079259GE19AGL   +99999+99999GF104995999999001521999999MA1100585091525OC100935REMMET10001/09/18 03:40:02 SPECI KPMD 091140Z 09005G18KT 3/4SM BR FEW005 SCT026 07/07 A2970 RMK AO2 T00670067EQDD01      0ADE726
0262723820231822018010911447+34629-118083FM-16+0787KPMD V0200705N00265004275MN0004025N5+00615+00615999999ADDAU100002015AW1305GA1025+001525999GA2075+004275999GD11991+0015259GD23991+0042759GE19AGL   +99999+99999GF199999999999001521999999MA1100585091525OC100935REMMET10001/09/18 03:44:02 SPECI KPMD 091144Z 07005G18KT 1/4SM FG FEW005 BKN014 06/06 A2970 RMK AO2 T00610061
0341723820231822018010911537+34629-118083FM-15+0787KPMD V0200905N00215003355WN0004025N5+00615+00615100495ADDAA101000095AA206000021AA324009191AU100002015AW1305GA1095+003355999GD15991+0033559GE19AGL   +99999+99999GF109991999999003351999999KA1060M+00941KA2060N+00611MA1100545091495MD1890309+9999REMMET12601/09/18 03:53:02 METAR KPMD 091153Z 09004KT 1/4SM FG VV011 06/06 A2969 RMK AO2 SLP049 60000 70036 T00610061 10094 20061 58030EQDQ01  00918PRCP24
0212723820231822018010912017+34629-118083FM-16+0787KPMD V0209999C00005001225WN0004025N5+00675+00675999999ADDAU100002015AW1305GA1095+001225999GD15991+0012259GE19AGL   +99999+99999GF109991999999001221999999MA1100545091495REMMET08901/09/18 04:01:02 SPECI KPMD 091201Z 00000KT 1/4SM FG VV004 07/07 A2969 RMK AO2 T00670067
0256723820231822018010912357+34629-118083FM-16+0787KPMD V0209999C00005003055WN0004025N5+00725+00725999999ADDAA101000231AU110020015AU200002015AW1305AW2615GA1095+003055999GD15991+0030559GE19AGL   +99999+99999GF109991999999003051999999MA1100545091495REMMET10501/09/18 04:35:02 SPECI KPMD 091235Z 00000KT 1/4SM -RA FG VV010 07/07 A2969 RMK AO2 RAB05 P0001 T00720072
0231723820231822018010912516+34629-118083FM-16+0787KPMD V0209999999999007325MN0004025N5+00805+00805999999ADDAU110020015AU200002015AW1305AW2615GA1075+007325999GA2085+021345999GD13991+0073259GD24991+0213459MA1100445091405REMMET10801/09/18 04:51:02 SPECI KPMD 091251Z      KT 1/4SM -RA FG BKN024 OVC070 08/08 A2966 RMK AO2 RAB05 P0002 FIBI
0340723820231822018010912537+34629-118083FM-15+0787KPMD V0209999N99999007925MN0004025N5+00725+00725100395ADDAA101000595AU110020015AU200002015AW1305AW2615GA1075+007925999GA2075+021345999GA3085+025915999GD13991+0079259GD23991+0213459GD34991+0259159GE19AGL   +99999+99999GF199999999999007921999999MA1100445091405REMMET12701/09/18 04:53:02 METAR KPMD 091253Z      KT 1/4SM -RA FG BKN026 BKN070 OVC085 07/07 A2966 RMK AO2 RAB05 SLP039 P0002 T00720072
0327723820231822018010913017+34629-118083FM-16+0787KPMD V0202805N00315021345MN0004025N5+00785+00785999999ADDAA101000021AU110020015AU200002015AW1305AW2615GA1045+013415999GA2075+021345999GA3085+027435999GD12991+0134159GD23991+0213459GD34991+0274359GE19AGL   +99999+99999GF199999999999013411999999MA1100445091405REMMET11401/09/18 05:01:02 SPECI KPMD 091301Z 28006KT 1/4SM -RA FG SCT044 BKN070 OVC090 08/08 A2966 RMK AO2 P0000 T00780078
0287723820231822018010913097+34629-118083FM-16+0787KPMD V0202605N00365021345MN0016095N5+00785+00785999999ADDAA101000021AU110020015AU200001015AW1105AW2615GA1075+021345999GA2085+027435999GD13991+0213459GD24991+0274359GE19AGL   +99999+99999GF199999999999021341999999MA1100475091435REMMET10501/09/18 05:09:02 SPECI KPMD 091309Z 26007KT 1SM -RA BR BKN070 OVC090 08/08 A2967 RMK AO2 P0000 T00780078
0287723820231822018010913167+34629-118083FM-16+0787KPMD V0202705N00215018295MN0048285N5+00785+00785999999ADDAA101000021AU110020015AU200001015AW1105AW2615GA1075+018295999GA2085+024385999GD13991+0182959GD24991+0243859GE19AGL   +99999+99999GF199999999999018291999999MA1100445091405REMMET10501/09/18 05:16:02 SPECI KPMD 091316Z 27004KT 3SM -RA BR BKN060 OVC080 08/08 A2966 RMK AO2 P0000 T00780078
0325723820231822018010913387+34629-118083FM-16+0787KPMD V0200905N00365016765MN0064375N5+00785+00785999999ADDAA101000531AU110020015AU200001015AW1105AW2615GA1025+000915999GA2075+016765999GA3085+024385999GD11991+0009159GD23991+0167659GD34991+0243859GE19AGL   +99999+99999GF199999999999000911999999MA1100415091365REMMET11201/09/18 05:38:02 SPECI KPMD 091338Z 09007KT 4SM -RA BR FEW003 BKN055 OVC080 08/08 A2965 RMK AO2 P0002 T00780078
0268723820231822018010913516+34629-118083FM-16+0787KPMD V0200705N00315021345MN0032195N5+00805+00805999999ADDAU110020015AU200001015AW1105AW2615GA1025+000915999GA2075+021345999GA3085+030485999GD11991+0009159GD23991+0213459GD34991+0304859MA1100345091305REMMET11401/09/18 05:51:02 SPECI KPMD 091351Z 07006KT 2SM -RA BR FEW003 BKN070 OVC100 08/08 A2963 RMK AO2 PRESFR P0002 FIBI
0332723820231822018010913537+34629-118083FM-15+0787KPMD V0200705N00315021345MN0032195N5+00785+00785100305ADDAA101000595AU110020015AU200001015AW1105AW2615GA1025+000915999GA2075+021345999GA3085+030485999GD11991+0009159GD23991+0213459GD34991+0304859GE19AGL   +99999+99999GF199999999999000911999999MA1100375091335REMMET11901/09/18 05:53:02 METAR KPMD 091353Z 07006KT 2SM -RA BR FEW003 BKN070 OVC100 08/08 A2964 RMK AO2 SLP030 P0002 T00780078
0314723820231822018010914027+34629-118083FM-16+0787KPMD V0209999V00315021345MN0012075N5+00785+00785999999ADDAA101000021AU100001015AW1105GA1045+001225999GA2075+021345999GA3085+025915999GD12991+0012259GD23991+0213459GD34991+0259159GE19AGL   +99999+99999GF199999999999001221999999MA1100345091305REMMET11801/09/18 06:02:02 SPECI KPMD 091402Z VRB06KT 3/4SM BR SCT004 BKN070 OVC085 08/08 A2963 RMK AO2 RAE1356 P0000 T00780078
0314723820231822018010914097+34629-118083FM-16+0787KPMD V0209999N99999000615MN0012075N5+00785+00785999999ADDAA101000021AU100001015AW1105GA1075+000615999GA2075+016765999GA3085+025915999GD13991+0006159GD23991+0167659GD34991+0259159GE19AGL   +99999+99999GF199999999999000611999999MA1100345091305REMMET11801/09/18 06:09:02 SPECI KPMD 091409Z      KT 3/4SM BR BKN002 BKN055 OVC085 08/08 A2963 RMK AO2 RAE1356 P0000 T00780078
0316723820231822018010914177+34629-118083FM-16+0787KPMD V0209999N99999000615MN0020125N5+00785+00785999999ADDAA101000021AU100001015AW1105GA1075+000615999GA2075+016765999GA3085+027435999GD13991+0006159GD23991+0167659GD34991+0274359GE19AGL   +99999+99999GF199999999999000611999999MA1100345091305REMMET12001/09/18 06:17:02 SPECI KPMD 091417Z      KT 1 1/4SM BR BKN002 BKN055 OVC090 08/08 A2963 RMK AO2 RAE1356 P0000 T00780078
0347723820231822018010914357+34629-118083FM-16+0787KPMD V0202505N00315000615MN0032195N5+00785+00785999999ADDAA101000021AU110020015AU200001015AW1105AW2615GA1075+000615999GA2075+002445999GA3085+011895999GD13991+0006159GD23991+0024459GD34991+0118959GE19AGL   +99999+99999GF199999999999000611999999MA1100375091335OC100985REMMET12601/09/18 06:35:02 SPECI KPMD 091435Z 25006G19KT 2SM -RA BR BKN002 BKN008 OVC039 08/08 A2964 RMK AO2 RAE1356B35 P0000 T00780078
0282723820231822018010914516+34629-118083FM-16+0787KPMD V0202405N00515002445MN0040235N5+00805+00805999999ADDAU120020015AU200001015AW1105AW2625GA1045+001225999GA2075+002445999GA3085+003665999GD12991+0012259GD23991+0024459GD34991+0036659MA1100475091435REMMET12801/09/18 06:51:02 SPECI KPMD 091451Z 24010KT 2 1/2SM RA BR SCT004 BKN008 OVC012 08/08 A2967 RMK AO2 RAE1356B35 PRESRR P0003 FIBI
0452723820231822018010914537+34629-118083FM-15+0787KPMD V0202405N00725002445MN0040235N5+00835+00835100445ADDAA101002095AA203002091AU120020015AU200001015AW1105AW2625GA1045+001225999GA2075+002445999GA3085+004275999GD12991+0012259GD23991+0024459GD34991+0042759GE19AGL   +99999+99999GF199999999999001221999999MA1100515091465MD1390059+9999OC101345OD149901331230REMMET17301/09/18 06:53:02 METAR KPMD 091453Z 24014G26KT 2 1/2SM RA BR SCT004 BKN008 OVC014 08/08 A2968 RMK AO2 PK WND 23026/1453 RAE1356B35 PRESRR SLP044 P0004 60008 T00830083 53005EQDQ01  00208PRCP03
0378723820231822018010915057+34629-118083FM-16+0787KPMD V0202505N01135004885MN0040235N5+00895+00835999999ADDAA101001531AU120020015AU200001015AW1105AW2625GA1045+001835999GA2075+004885999GA3085+009455999GD12991+0018359GD23991+0048859GD34991+0094559GE19AGL   +99999+99999GF199999999999001831999999MA1100545091495OC101755OD149901751240REMMET14301/09/18 07:05:02 SPECI KPMD 091505Z 25022G34KT 2 1/2SM RA BR SCT006 BKN016 OVC031 09/08 A2969 RMK AO2 PK WND 24034/1457 PRESRR P0006 T00890083
0367723820231822018010915127+34629-118083FM-16+0787KPMD V0202505N00775010065MN0048285N5+00895+00785999999ADDAA101001731AU120020015AU200001015AW1105AW2625GA1025+001835999GA2045+004885999GA3085+010065999GD11991+0018359GD22991+0048859GD34991+0100659GE19AGL   +99999+99999GF199999999999001831999999MA1100545091495OC101655OD149901751240REMMET13201/09/18 07:12:02 SPECI KPMD 091512Z 25015G32KT 3SM RA BR FEW006 SCT016 OVC033 09/08 A2969 RMK AO2 PK WND 24034/1457 P0007 T00890078
0307723820231822018010915537+34629-118083FM-15+0787KPMD V0202505N00625019815MN0160935N5+00945+00725100505ADDAA101001095AU110020015AW1615GA1045+015245999GA2085+019815999GD12991+0152459GD24991+0198159GE19AGL   +99999+99999GF199999999999015241999999MA1100585091525OD149901751240REMMET12801/09/18 07:53:02 METAR KPMD 091553Z 25012KT 10SM -RA SCT050 OVC065 09/07 A2970 RMK AO2 PK WND 24034/1457 SLP050 P0008 T00940072
0298723820231822018010916537+34629-118083FM-15+0787KPMD V0209999C00005024385MN0160935N5+01005+00785100635ADDAA101000595GA1025+007925999GA2045+014335999GA3075+024385999GD11991+0079259GD22991+0143359GD33991+0243859GE19AGL   +99999+99999GF199999999999007921999999MA1100685091625REMMET11901/09/18 08:53:02 METAR KPMD 091653Z 00000KT 10SM FEW026 SCT047 BKN080 10/08 A2973 RMK AO2 RAE44 SLP063 P0002 T01000078
0397723820231822018010917537+34629-118083FM-15+0787KPMD V0202205N00415014945MN0160935N5+01115+00785100685ADDAA101000025AA206004691GA1045+007925999GA2045+012505999GA3075+014945999GD12991+0079259GD22991+0125059GD33991+0149459GE19AGL   +99999+99999GF199999999999007921999999KA1060M+01111KA2060N+00611MA1100755091685MD1190249+9999REMMET14801/09/18 09:53:02 METAR KPMD 091753Z 22008KT 10SM SCT026 SCT041 BKN049 11/08 A2975 RMK AO2 RAB1657E06 SLP068 P0000 60018 T01110078 10111 20061 51024EQDQ01  00458PRCP06
0214723820231822018010918537+34629-118083FM-15+0787KPMD V0201905N008252200059N0160935N5+01225+00615100595ADDAA101000095GA1005+999999999GD10991+9999999GF100991999999999999999999MA1100685091625OC101545REMMET11101/09/18 10:53:02 METAR KPMD 091853Z 19016G30KT 10SM CLR 12/06 A2973 RMK AO2 PK WND 21030/1846 SLP059 T01220061
0280723820231822018010919537+34629-118083FM-15+0787KPMD V0201405N00415014335MN0160935N5+01225+00445100605ADDAA101000095GA1075+014335999GA2075+016765999GD13991+0143359GD23991+0167659GE19AGL   +99999+99999GF199999999999014331999999MA1100685091625OD149901441170REMMET11801/09/18 11:53:02 METAR KPMD 091953Z 14008KT 10SM BKN047 BKN055 12/04 A2973 RMK AO2 PK WND 17028/1916 SLP060 T01220044
0311723820231822018010920537+34629-118083FM-15+0787KPMD V0202305N009852200059N0160935N5+01175+00505100415ADDAA101000095GA1025+021345999GD11991+0213459GE19AGL   +99999+99999GF102995999999021341999999MA1100475091435MD1890259+9999OC101345OD149901391230REMMET13901/09/18 12:53:02 METAR KPMD 092053Z 23019G26KT 10SM FEW070 12/05 A2967 RMK AO2 PK WND 23027/2033 LTG DSNT SW PRESFR SLP041 T01170050 58025EQDD01      0ADE726
0361723820231822018010921537+34629-118083FM-15+0787KPMD V0202305N00625022865MN0128755N5+01005+00675100525ADDAA101000025AU110020015AW1615GA1025+013725999GA2075+022865999GA3085+027435999GD11991+0137259GD23991+0228659GD34991+0274359GE19AGL   +99999+99999GF199999999999013721999999MA1100585091525OC101135OD149901591230REMMET14301/09/18 13:53:02 METAR KPMD 092153Z 23012G22KT 8SM -RA FEW045 BKN075 OVC090 10/07 A2970 RMK AO2 PK WND 23031/2055 RAB42 SLP052 P0000 T01000067
0274723820231822018010922537+34629-118083FM-15+0787KPMD V0202405N00365013725MN0080475N5+00945+00675100625ADDAA101000895AU110020015AW1615GA1075+013725999GA2085+016765999GD13991+0137259GD24991+0167659GE19AGL   +99999+99999GF199999999999013721999999MA1100685091625REMMET10901/09/18 14:53:02 METAR KPMD 092253Z 24007KT 5SM -RA BKN045 OVC055 09/07 A2973 RMK AO2 SLP062 P0002 T00940067
0368723820231822018010923537+34629-118083FM-15+0787KPMD V0201705N00465014635MN0128755N5+00945+00675100685ADDAA101000595AA206001391AU110020015AW1615GA1075+014635999GA2085+018295999GD13991+0146359GD24991+0182959GE19AGL   +99999+99999GF199999999999014631999999KA1060M+01221KA2060N+00941MA1100715091655MD1190219+9999REMMET13301/09/18 15:53:02 METAR KPMD 092353Z 17009KT 8SM -RA BKN048 OVC060 09/07 A2974 RMK AO2 SLP068 P0003 60005 T00940067 10122 20094 51021EQDQ01  00128PRCP06
0260723820231822018011000537+34629-118083FM-15+0787KPMD V0202305N00365018295MN0160935N5+00835+00565100705ADDAA101000025GA1045+014335999GA2085+018295999GD12991+0143359GD24991+0182959GE19AGL   +99999+99999GF199999999999014331999999MA1100755091685REMMET11201/09/18 16:53:01 METAR KPMD 100053Z 23007KT 10SM SCT047 OVC060 08/06 A2975 RMK AO2 RAE21 SLP070 P0000 T00830056
0248723820231822018011001537+34629-118083FM-15+0787KPMD V0202905N00515015245MN0160935N5+00895+00615100785ADDAA101000095GA1075+015245999GA2085+018295999GD13991+0152459GD24991+0182959GE19AGL   +99999+99999GF199999999999015241999999MA1100815091745REMMET10001/09/18 17:53:01 METAR KPMD 100153Z 29010KT 10SM BKN050 OVC060 09/06 A2977 RMK AO2 SLP078 T00890061
0279723820231822018011002157+34629-118083FM-16+0787KPMD V0203205N00575008235MN0160935N5+00895+00675999999ADDGA1075+008235999GA2075+009755999GA3085+016765999GD13991+0082359GD23991+0097559GD34991+0167659GE19AGL   +99999+99999GF199999999999008231999999MA1100855091775OC100885REMMET10301/09/18 18:15:01 SPECI KPMD 100215Z 32011G17KT 10SM BKN027 BKN032 OVC055 09/07 A2978 RMK AO2 T00890067
0268723820231822018011002237+34629-118083FM-16+0787KPMD V0209999N99999010675MN0160935N5+00895+00675999999ADDGA1045+008235999GA2075+010675999GA3085+014025999GD12991+0082359GD23991+0106759GD34991+0140259GE19AGL   +99999+99999GF199999999999008231999999MA1100885091805REMMET10001/09/18 18:23:01 SPECI KPMD 100223Z      KT 10SM SCT027 BKN035 OVC046 09/07 A2979 RMK AO2 T00890067
0279723820231822018011002537+34629-118083FM-15+0787KPMD V0209999N99999011895MN0160935N5+00835+00675100865ADDAA101000095AA203000021GA1075+011895999GD13991+0118959GE19AGL   +99999+99999GF199999999999011891999999MA1100885091805MD1390179+9999OD149901901150REMMET12301/09/18 18:53:02 METAR KPMD 100253Z      KT 10SM BKN039 08/07 A2979 RMK AO2 PK WND 15037/0245 SLP086 60000 T00830067 53017
0185723820231822018011003537+34629-118083FM-15+0787KPMD V0202005N003652200059N0160935N5+00675+00615100925ADDAA101000095GA1005+999999999GD10991+9999999GF100991999999999999999999MA1100955091875REMMET09001/09/18 19:53:02 METAR KPMD 100353Z 20007KT 10SM CLR 07/06 A2981 RMK AO2 SLP092 T00670061
0185723820231822018011004537+34629-118083FM-15+0787KPMD V0202205N003652200059N0160935N5+00675+00505101015ADDAA101000095GA1005+999999999GD10991+9999999GF100991999999999999999999MA1101055091965REMMET09001/09/18 20:53:02 METAR KPMD 100453Z 22007KT 10SM CLR 07/05 A2984 RMK AO2 SLP101 T00670050
0342723820231822018011005537+34629-118083FM-15+0787KPMD V0202005N004152200059N0160935N5+00725+00565101045ADDAA101000095AA206000021GA1025+011285999GA2045+033535999GD11991+0112859GD22991+0335359GE19AGL   +99999+99999GF104995999999011281999999KA1060M+00941KA2060N+00671MA1101085091995MD1190189+9999REMMET12401/09/18 21:53:02 METAR KPMD 100553Z 20008KT 10SM FEW037 SCT110 07/06 A2985 RMK AO2 SLP104 60000 T00720056 10094 20067 51018EQDD01      0ADE726
0229723820231822018011006537+34629-118083FM-15+0787KPMD V0202005N004652200059N0160935N5+00785+00565101035ADDAA101000095GA1025+030485999GD11991+0304859GE19AGL   +99999+99999GF102995999999030481999999MA1101085091995REMMET09301/09/18 22:53:02 METAR KPMD 100653Z 20009KT 10SM FEW100 08/06 A2985 RMK AO2 SLP103 T00780056EQDD01      0ADE726
0221723820231822018011007537+34629-118083FM-15+0787KPMD V0202105N005152200059N0160935N5+00725+00505101125ADDAA101000095GA1005+999999999GD10991+9999999GF100991999999999999999999KA1240M+01221KA2240N+00611MA1101195092095REMMET10001/09/18 23:53:02 METAR KPMD 100753Z 21010KT 10SM CLR 07/05 A2988 RMK AO2 SLP112 T00720050 401220061
0986723820231822018011007596+34629-118083SOD  +0787KPMD V020999999999999999999999999999+99999+99999999999ADDAA124005895AJ100009599999999AT1AU16RA  5AT2AU01FG  5AT3AU13BR  5AX1016246AX2026246KA1240M+01225KA2240N+00615MG1091694100244OE11240187815099995OE22240143124099995OE33240042999999995REMSOD75924 HR PRECIPITATION (IN): 0.23 SNOW DEPTH (IN):    0WEATHER(CODE): 12  24 HR MAX TEMP (F): 5424 HR MIN TEMP (F): 43AVERAGE STATION PRESSURE:27.075 MINIMUM SEA LEVEL PRESSURE:29.60 TIME OF OCCURRENCE:0559 PEAK WIND SPEED (MPH): 42 PEAK WIND DIR (DEG):150 PEAK WIND TIME (LST):      FASTEST 2MIN SPEED (MPH): 32FASTEST 2MIN DIR (DEG):240 FASTEST 2MIN TIME (LST):     AVERAGE WIND SPEED (MPH): 9.6 24 HR AVG TEMP (F): 49DEPART FROM NORMAL:  5  SKY COVER SR-SS (TENTHS): 6HEATING DEGREE DAYS: 16 COOLING DEGREE DAYS:  0 LATEST DAY MAX TEMP (0700-1900 LST):54  LATEST NIGHT MIN TEMP(1900-0800 LST):43 HOURLY INCREMENTAL PRECIPITATION VALUES (IN):    T    0.00 0.00 0.02 0.02 0.08 0.04 0.02 T    0.00 0.00 0.00 T    0.03 0.02 T    0.00 0.00 0.00 0.00 0.00 0.00 0.00EQDR01    127AXW090R02    127AXW090
0249723820231822018011008537+34629-118083FM-15+0787KPMD V0202305N004152200059N0160935N5+00785+00505101095ADDAA101000095GA1025+011585999GD11991+0115859GE19AGL   +99999+99999GF102995999999011581999999MA1101155092055MD1090069+9999REMMET09901/10/18 00:53:02 METAR KPMD 100853Z 23008KT 10SM FEW038 08/05 A2987 RMK AO2 SLP109 T00780050 50006EQDD01      0ADE726
0185723820231822018011009537+34629-118083FM-15+0787KPMD V0202105N003152200059N0160935N5+00895+00505101245ADDAA101000095GA1005+999999999GD10991+9999999GF100991999999999999999999MA1101295092185REMMET09001/10/18 01:53:02 METAR KPMD 100953Z 21006KT 10SM CLR 09/05 A2991 RMK AO2 SLP124 T00890050
0185723820231822018011010537+34629-118083FM-15+0787KPMD V0202105N004652200059N0160935N5+00675+00445101305ADDAA101000095GA1005+999999999GD10991+9999999GF100991999999999999999999MA1101325092215REMMET09001/10/18 02:53:02 METAR KPMD 101053Z 21009KT 10SM CLR 07/04 A2992 RMK AO2 SLP130 T00670044
